{"contracts/HorizonStaff.sol":{"HorizonStaff":{"abi":[{"inputs":[],"stateMutability":"nonpayable","type":"constructor"},{"inputs":[],"name":"NothingToWithdraw","type":"error"},{"anonymous":false,"inputs":[{"indexed":true,"internalType":"address","name":"_wallet","type":"address"}],"name":"AdminADD","type":"event"},{"anonymous":false,"inputs":[{"indexed":true,"internalType":"address","name":"_wallet","type":"address"}],"name":"AdminRemoved","type":"event"},{"anonymous":false,"inputs":[{"indexed":false,"internalType":"uint256","name":"_installmentNumber","type":"uint256"},{"indexed":false,"internalType":"uint256","name":"_dateOfPayment","type":"uint256"}],"name":"InstallmentDateUpdated","type":"event"},{"anonymous":false,"inputs":[{"indexed":false,"internalType":"uint256","name":"currentInterestRate","type":"uint256"},{"indexed":false,"internalType":"uint256","name":"amountToPay","type":"uint256"}],"name":"PaymentIsLate","type":"event"},{"anonymous":false,"inputs":[{"indexed":false,"internalType":"uint256","name":"_amountToPay","type":"uint256"}],"name":"TheInstallmentIsOneDayLate","type":"event"},{"anonymous":false,"inputs":[{"indexed":false,"internalType":"uint256","name":"_paymentDelay","type":"uint256"}],"name":"TheInstallmenteIsOnTime","type":"event"},{"anonymous":false,"inputs":[{"indexed":false,"internalType":"uint256","name":"currentInterestRate","type":"uint256"},{"indexed":false,"internalType":"uint256","name":"amountToPay","type":"uint256"}],"name":"TheTitleIsCloseToBeCanceled","type":"event"},{"anonymous":false,"inputs":[{"indexed":false,"internalType":"contract IERC20","name":"tokenAddress","type":"address"},{"indexed":false,"internalType":"string","name":"symbol","type":"string"}],"name":"TokenAdded","type":"event"},{"anonymous":false,"inputs":[{"indexed":false,"internalType":"string","name":"symbol","type":"string"},{"indexed":false,"internalType":"address","name":"_stablecoin","type":"address"}],"name":"TokenRemoved","type":"event"},{"inputs":[{"internalType":"address","name":"_wallet","type":"address"}],"name":"addAdmin","outputs":[],"stateMutability":"nonpayable","type":"function"},{"inputs":[{"internalType":"uint256","name":"_scheduleId","type":"uint256"},{"internalType":"uint256","name":"_drawNumber","type":"uint256"}],"name":"addParticipantsToDraw","outputs":[],"stateMutability":"nonpayable","type":"function"},{"inputs":[{"internalType":"contract IERC20","name":"_stablecoin","type":"address"},{"internalType":"string","name":"_tokenSymbol","type":"string"}],"name":"addToken","outputs":[],"stateMutability":"nonpayable","type":"function"},{"inputs":[{"internalType":"contract IERC20","name":"coinAddress","type":"address"}],"name":"allowedCrypto","outputs":[{"internalType":"string","name":"tokenSymbol","type":"string"},{"internalType":"contract IERC20","name":"stablecoin","type":"address"},{"internalType":"bool","name":"isStable","type":"bool"}],"stateMutability":"view","type":"function"},{"inputs":[],"name":"baseInterestRate","outputs":[{"internalType":"uint256","name":"","type":"uint256"}],"stateMutability":"view","type":"function"},{"inputs":[{"internalType":"uint256","name":"_paymentDelay","type":"uint256"},{"internalType":"uint256","name":"_scheduleId","type":"uint256"},{"internalType":"uint256","name":"_inicialInstallment","type":"uint256"}],"name":"calculateDelayedPayment","outputs":[{"internalType":"uint256","name":"","type":"uint256"}],"stateMutability":"nonpayable","type":"function"},{"inputs":[{"internalType":"uint256","name":"_titleId","type":"uint256"},{"internalType":"uint256","name":"_numPayments","type":"uint256"},{"internalType":"uint256","name":"_closing","type":"uint256"}],"name":"createSchedule","outputs":[{"internalType":"uint256","name":"_scheduleId","type":"uint256"}],"stateMutability":"nonpayable","type":"function"},{"inputs":[],"name":"dailyInterestRate","outputs":[{"internalType":"uint256","name":"","type":"uint256"}],"stateMutability":"view","type":"function"},{"inputs":[{"internalType":"address","name":"_wallet","type":"address"}],"name":"removeAdmin","outputs":[],"stateMutability":"nonpayable","type":"function"},{"inputs":[{"internalType":"contract IERC20","name":"_stablecoin","type":"address"}],"name":"removeToken","outputs":[],"stateMutability":"nonpayable","type":"function"},{"inputs":[{"internalType":"contract IERC20","name":"_stablecoin","type":"address"}],"name":"returnAvailableStablecoin","outputs":[{"internalType":"string","name":"","type":"string"},{"internalType":"address","name":"","type":"address"},{"internalType":"bool","name":"","type":"bool"}],"stateMutability":"view","type":"function"},{"inputs":[{"internalType":"uint256","name":"_scheduleId","type":"uint256"},{"internalType":"uint256","name":"_installmentNumber","type":"uint256"}],"name":"returnDrawDate","outputs":[{"internalType":"uint256","name":"","type":"uint256"}],"stateMutability":"view","type":"function"},{"inputs":[{"internalType":"uint256","name":"_scheduleId","type":"uint256"},{"internalType":"uint256","name":"_drawNumber","type":"uint256"}],"name":"returnDrawParticipants","outputs":[{"internalType":"uint256","name":"","type":"uint256"}],"stateMutability":"view","type":"function"},{"inputs":[{"internalType":"uint256","name":"_scheduleId","type":"uint256"},{"internalType":"uint256","name":"_installmentNumber","type":"uint256"}],"name":"returnPaymentDeadline","outputs":[{"internalType":"uint256","name":"","type":"uint256"}],"stateMutability":"view","type":"function"},{"inputs":[{"internalType":"address","name":"adminWallet","type":"address"}],"name":"staff","outputs":[{"internalType":"address","name":"wallet","type":"address"},{"internalType":"bool","name":"isAdmin","type":"bool"}],"stateMutability":"view","type":"function"},{"inputs":[{"internalType":"uint256","name":"_baseRate","type":"uint256"},{"internalType":"uint256","name":"_dailyRate","type":"uint256"}],"name":"updateInterest","outputs":[],"stateMutability":"nonpayable","type":"function"},{"inputs":[{"internalType":"uint256","name":"_scheduleId","type":"uint256"},{"internalType":"uint256","name":"_installmentNumber","type":"uint256"},{"internalType":"uint256","name":"_dateOfPayment","type":"uint256"}],"name":"updatePaymentDate","outputs":[],"stateMutability":"nonpayable","type":"function"},{"inputs":[{"internalType":"contract IERC20","name":"_tokenAddress","type":"address"}],"name":"withdrawProtocolFee","outputs":[],"stateMutability":"nonpayable","type":"function"}],"devdoc":{"kind":"dev","methods":{},"version":1},"evm":{"bytecode":{"linkReferences":{},"object":"6080806040523461003b576001600055600a6001556003600255603c6003553360018060a01b031960045416176004556113c090816100418239f35b600080fdfe60806040908082526004918236101561001757600080fd5b600092833560e01c9283630d65a8e8146110c657508383631785f53c146110505750826329b007321461103a5782632b18775514610eec5782632c8da56014610bf65782634f83158a14610bab5782635294bac814610970578263559006c2146107245782635fa7b5841461058a57826364cf0e401461055b578263668fb6dc1461037c5782637048027514610252575081637c4c4b89146101fa5781637fca631f146101db5781638c83ddd314610163578163ac066fa21461012d578163afd927621461010a575063b4f9a7e0146100ef57600080fd5b34610107576100fd366110f3565b9060015560025580f35b80fd5b9050346101295781600319360112610129576020906001549051908152f35b5080fd5b90503461012957600190610140366110f3565b908452600660205281842090845260205282200161015e815461137b565b905580f35b905034610129576020366003190112610129576101c591906001600160a01b039060ff60018284610192611128565b169586815260056020526101a78282206111b0565b96815260056020522001548251958695606087526060870190611256565b938116602086015260a01c161515908301520390f35b9050346101295781600319360112610129576020906002549051908152f35b905034610129576020366003190112610129576101c5916001600160a01b0390829082610225611128565b1681526005602052209160ff600161023c856111b0565b9401548251958695606087526060870190611256565b838234610129576020366003190112610129576001600160a01b038335818116929083900361037857610286831515611296565b828452600760205260ff8185205460a01c166103365780519181830183811067ffffffffffffffff821117610323578252838352600160208085019182528587526007905291852092518354925160ff60a01b90151560a01b166001600160a81b0319909316911660ff60a01b1916171790559091507fda51e137fbd273174ffcac81ca558daee6ff0b24569cb9bc7086453e280dca278280a280f35b634e487b7160e01b865260418752602486fd5b5162461bcd60e51b8152602081860152601860248201527f41646d696e20616c7265616479207265676973746572656400000000000000006044820152606490fd5b8380fd5b915034610557576020908160031936011261037857610399611128565b83546001600160a01b03908116913383900361051457811680875260058552600160ff81868a20015460a01c161515036104dd57865260058452600183872001541693846bffffffffffffffffffffffff60a01b60085416176008558251946370a0823160e01b865230828701528486602481845afa9586156104d35787966104a0575b50851561049157849291876044928651988995869463a9059cbb60e01b865285015260248401525af19081156104885750610456578280f35b81813d8311610481575b61046a818361113e565b810103126101295751801515036101075738808280f35b503d610460565b513d85823e3d90fd5b508251630686827b60e51b8152fd5b9095508481813d83116104cc575b6104b8818361113e565b810103126104c85751943861041d565b8680fd5b503d6104ae565b84513d89823e3d90fd5b835162461bcd60e51b81528087018690526011602482015270151bdad95b881b9bdd08185b1b1bddd959607a1b6044820152606490fd5b835162461bcd60e51b8152808701869052601c60248201527f5468652063616c6c6572206d75737420626520746865206f776e6572000000006044820152606490fd5b8280fd5b83823461012957600281602093610571366110f3565b9082526006865282822090825285522001549051908152f35b50823461010757602080600319360112610129576001600160a01b0390816105b0611128565b16908184526005815260019283868620015416916105cf8315156112e2565b84526005815284842094846105e48754611176565b806106eb575b50848701558051938185528596805461060281611176565b809488015282811690816000146106a3575060011461064c575b867f1adb68f0a540855cafa9d341c1e94a36fa13b8a15ff602507addfe49c0f018d187808b89898301520390a180f35b865282862092965085925b82841061068f57505050820160600193817f1adb68f0a540855cafa9d341c1e94a36fa13b8a15ff602507addfe49c0f018d18461061c565b805486850160600152928701928101610657565b60ff191660608881019190915293151560051b870190930197508492507f1adb68f0a540855cafa9d341c1e94a36fa13b8a15ff602507addfe49c0f018d1915085905061061c565b601f8111600114610701575086555b84876105ea565b87825261071b601f858420920160051c820187830161132e565b818855556106fa565b838234610129576107343661110e565b90918215610917578085526020956006875284862084875287528385872054036108d4578186526006875284862084875287526002858720015483111561088657603c8302838104603c14841517156108605782875260068852858720600019860186811161087357885288526002868820015481039081116108605761012c101561080157509484957ffc0b6df00175009634ee8493748db715994ef6a2da308acd70658b3b4f3222b1955260068152838620838752815281600285882001558351928352820152a180f35b845162461bcd60e51b8152908101879052603360248201527f4d7573742068617665206120706572696f64206f662033302064617973206265604482015272747765656e20696e7374616c6c6d656e74732160681b6064820152608490fd5b634e487b7160e01b875260118252602487fd5b634e487b7160e01b895260118452602489fd5b845162461bcd60e51b8152908101879052602260248201527f596f752063616e206f6e6c7920706f7374706f6e6520746865207061796d656e604482015261742160f01b6064820152608490fd5b845162461bcd60e51b8152908101879052601e60248201527f496e7374616c6c6d656e74206e756d626572206d7573742065786973742100006044820152606490fd5b835162461bcd60e51b8152602081880152602d60248201527f496e7374616c6c6d656e74206e756d626572206d75737420626520677265617460448201526c6572207468616e207a65726f2160981b6064820152608490fd5b838234610129576109803661110e565b90918215610b555742821115610af65761012c91828101809111610ae35760019283915b858511156109c457602088888154916109bc8361137b565b905551908152f35b42811115610a945781810190818111610a815783546002908154918a519360c0850185811067ffffffffffffffff821117610a6c57610a6696959492600594928f8f8e918e958252828a52602092838b0193828552838c0195865260608c01978d895260808d01998a5260a08d019a8b52835260068152838320918352522097518855518b8801555190860155516003850155518d840155519101559461137b565b936109a4565b5050634e487b7160e01b8c5260418d5260248cfd5b634e487b7160e01b895260118a52602489fd5b865162461bcd60e51b81526020818b0152602360248201527f5061796d656e742064617465206d75737420626520696e20746865206675747560448201526272652160e81b6064820152608490fd5b634e487b7160e01b865260118752602486fd5b835162461bcd60e51b8152602081880152603360248201527f54686520636c6f73696e67206f66207469746c652073656c6c696e67206d75736044820152727420626520696e20746865206675747572652160681b6064820152608490fd5b835162461bcd60e51b8152602081880152602a60248201527f4e756d626572206f66207061796d656e7473206d7573742062652067726561746044820152696572207468616e20302160b01b6064820152608490fd5b839034610129576020366003190112610129576001600160a01b03919035828116908190036101295781849160ff9352600760205220548351928116835260a01c1615156020820152f35b839034610129578260031936011261012957610c10611128565b90602480359167ffffffffffffffff91828411610ee85736602385011215610ee8578382013594838611610ed657875193602096601f1996610c598989601f850116018861113e565b81875236858383010111610ed257818a92868b9301838a0137870101526001600160a01b0391821695610c8d8715156112e2565b8689526005885260019183838c8c20015416610e9a578a51916060830183811083821117610e88578c52878352898301968988528c8401968588528a8d5260058c528d8d209451918251948511610e775750508b8b610cec8654611176565b601f8111610e3d575b5050508a91601f8411600114610db157509282610d8d9693610da09a9996938e9f99967f7afee0f1b802cc0f66c67890e26b4566251859cf2cd8de79b86aed7251d9756a9f92610da6575b5050600019600383901b1c191690831b1781555b019251166bffffffffffffffffffffffff60a01b83541617825551151581549060ff60a01b90151560a01b169060ff60a01b1916179055565b8080519586958652850152830190611256565b0390a180f35b015190508f80610d40565b848d528b8d2092919084168d5b818110610e2857509386937f7afee0f1b802cc0f66c67890e26b4566251859cf2cd8de79b86aed7251d9756a9e9f999693610da09c9b989383610d8d9b9810610e0f575b505050811b018155610d54565b015160001960f88460031b161c191690558f8080610e02565b82840151855593870193928d01928d01610dbe565b818388610e6595522090601f870160051c8201928710610e6d575b601f0160051c019061132e565b8b8b8f610cf5565b9091508190610e58565b634e487b7160e01b8e52604190528cfd5b634e487b7160e01b8c5260418852868cfd5b8a5162461bcd60e51b81528087018a905260138187015272151bdad95b88185b1c9958591e481859191959606a1b6044820152606490fd5b8980fd5b50634e487b7160e01b86526041825285fd5b8580fd5b90833461010757610efc3661110e565b60035490939281811015610f69575050610f326020958584606494610f3997965260068952818120868252895220015483611345565b049061136e565b907f1323840bbd6e53af646a0046b72ff8ea4144b0492c4f6d3614f8ce899804fd04838251848152a15b51908152f35b90918395949552600660205283832085845260205260058484200154928215611027575060209550610fb892610fab92610fa39204611345565b60015461136e565b926064610f328583611345565b91816028821115610ff5577f7882c1a4f360824e9d02cee7d2b40d77bf44368aae126f3af401776bf5e824839181519081528486820152a1610f63565b7f43df8b22d3686d15a6e74163ca342c850bc01d74db643db1d546d2bd2a93c9ec9181519081528486820152a1610f63565b634e487b7160e01b815260128752602490fd5b83823461012957600381602093610571366110f3565b9192503461012957602036600319011261012957356001600160a01b038116929083900361012957611083831515611296565b82825260076020528120600160ff825460a01c1615150361012957557fa3b62bc36326052d97ea62d63c3d60308ed4c3ea8ac079dd8499f1e9c4f80c0f8280a280f35b92505034610557576001906020936110dd366110f3565b9082526006865282822090825285522001548152f35b6040906003190112611109576004359060243590565b600080fd5b606090600319011261110957600435906024359060443590565b600435906001600160a01b038216820361110957565b90601f8019910116810190811067ffffffffffffffff82111761116057604052565b634e487b7160e01b600052604160045260246000fd5b90600182811c921680156111a6575b602083101461119057565b634e487b7160e01b600052602260045260246000fd5b91607f1691611185565b90604051918260008254926111c484611176565b90818452600194858116908160001461123357506001146111f0575b50506111ee9250038361113e565b565b9093915060005260209081600020936000915b81831061121b5750506111ee935082010138806111e0565b85548884018501529485019487945091830191611203565b9150506111ee94506020925060ff191682840152151560051b82010138806111e0565b919082519283825260005b848110611282575050826000602080949584010152601f8019910116010190565b602081830181015184830182015201611261565b1561129d57565b60405162461bcd60e51b815260206004820152601c60248201527f41646d696e2077616c6c65742063616e277420626520656d70747921000000006044820152606490fd5b156112e957565b60405162461bcd60e51b815260206004820152601c60248201527f546f6b656e20616464726573732063616e6e6f74206265207a65726f000000006044820152606490fd5b818110611339575050565b6000815560010161132e565b8181029291811591840414171561135857565b634e487b7160e01b600052601160045260246000fd5b9190820180921161135857565b6000198114611358576001019056fea2646970667358221220ceaf899e2804b5bdc45357be12ed938b9012dfd47ad921bd68187b8a0c6bf2cc64736f6c63430008140033","opcodes":"PUSH1 0x80 DUP1 PUSH1 0x40 MSTORE CALLVALUE PUSH2 0x3B JUMPI PUSH1 0x1 PUSH1 0x0 SSTORE PUSH1 0xA PUSH1 0x1 SSTORE PUSH1 0x3 PUSH1 0x2 SSTORE PUSH1 0x3C PUSH1 0x3 SSTORE CALLER PUSH1 0x1 DUP1 PUSH1 0xA0 SHL SUB NOT PUSH1 0x4 SLOAD AND OR PUSH1 0x4 SSTORE PUSH2 0x13C0 SWAP1 DUP2 PUSH2 0x41 DUP3 CODECOPY RETURN JUMPDEST PUSH1 0x0 DUP1 REVERT INVALID PUSH1 0x80 PUSH1 0x40 SWAP1 DUP1 DUP3 MSTORE PUSH1 0x4 SWAP2 DUP3 CALLDATASIZE LT ISZERO PUSH2 0x17 JUMPI PUSH1 0x0 DUP1 REVERT JUMPDEST PUSH1 0x0 SWAP3 DUP4 CALLDATALOAD PUSH1 0xE0 SHR SWAP3 DUP4 PUSH4 0xD65A8E8 EQ PUSH2 0x10C6 JUMPI POP DUP4 DUP4 PUSH4 0x1785F53C EQ PUSH2 0x1050 JUMPI POP DUP3 PUSH4 0x29B00732 EQ PUSH2 0x103A JUMPI DUP3 PUSH4 0x2B187755 EQ PUSH2 0xEEC JUMPI DUP3 PUSH4 0x2C8DA560 EQ PUSH2 0xBF6 JUMPI DUP3 PUSH4 0x4F83158A EQ PUSH2 0xBAB JUMPI DUP3 PUSH4 0x5294BAC8 EQ PUSH2 0x970 JUMPI DUP3 PUSH4 0x559006C2 EQ PUSH2 0x724 JUMPI DUP3 PUSH4 0x5FA7B584 EQ PUSH2 0x58A JUMPI DUP3 PUSH4 0x64CF0E40 EQ PUSH2 0x55B JUMPI DUP3 PUSH4 0x668FB6DC EQ PUSH2 0x37C JUMPI DUP3 PUSH4 0x70480275 EQ PUSH2 0x252 JUMPI POP DUP2 PUSH4 0x7C4C4B89 EQ PUSH2 0x1FA JUMPI DUP2 PUSH4 0x7FCA631F EQ PUSH2 0x1DB JUMPI DUP2 PUSH4 0x8C83DDD3 EQ PUSH2 0x163 JUMPI DUP2 PUSH4 0xAC066FA2 EQ PUSH2 0x12D JUMPI DUP2 PUSH4 0xAFD92762 EQ PUSH2 0x10A JUMPI POP PUSH4 0xB4F9A7E0 EQ PUSH2 0xEF JUMPI PUSH1 0x0 DUP1 REVERT JUMPDEST CALLVALUE PUSH2 0x107 JUMPI PUSH2 0xFD CALLDATASIZE PUSH2 0x10F3 JUMP JUMPDEST SWAP1 PUSH1 0x1 SSTORE PUSH1 0x2 SSTORE DUP1 RETURN JUMPDEST DUP1 REVERT JUMPDEST SWAP1 POP CALLVALUE PUSH2 0x129 JUMPI DUP2 PUSH1 0x3 NOT CALLDATASIZE ADD SLT PUSH2 0x129 JUMPI PUSH1 0x20 SWAP1 PUSH1 0x1 SLOAD SWAP1 MLOAD SWAP1 DUP2 MSTORE RETURN JUMPDEST POP DUP1 REVERT JUMPDEST SWAP1 POP CALLVALUE PUSH2 0x129 JUMPI PUSH1 0x1 SWAP1 PUSH2 0x140 CALLDATASIZE PUSH2 0x10F3 JUMP JUMPDEST SWAP1 DUP5 MSTORE PUSH1 0x6 PUSH1 0x20 MSTORE DUP2 DUP5 KECCAK256 SWAP1 DUP5 MSTORE PUSH1 0x20 MSTORE DUP3 KECCAK256 ADD PUSH2 0x15E DUP2 SLOAD PUSH2 0x137B JUMP JUMPDEST SWAP1 SSTORE DUP1 RETURN JUMPDEST SWAP1 POP CALLVALUE PUSH2 0x129 JUMPI PUSH1 0x20 CALLDATASIZE PUSH1 0x3 NOT ADD SLT PUSH2 0x129 JUMPI PUSH2 0x1C5 SWAP2 SWAP1 PUSH1 0x1 PUSH1 0x1 PUSH1 0xA0 SHL SUB SWAP1 PUSH1 0xFF PUSH1 0x1 DUP3 DUP5 PUSH2 0x192 PUSH2 0x1128 JUMP JUMPDEST AND SWAP6 DUP7 DUP2 MSTORE PUSH1 0x5 PUSH1 0x20 MSTORE PUSH2 0x1A7 DUP3 DUP3 KECCAK256 PUSH2 0x11B0 JUMP JUMPDEST SWAP7 DUP2 MSTORE PUSH1 0x5 PUSH1 0x20 MSTORE KECCAK256 ADD SLOAD DUP3 MLOAD SWAP6 DUP7 SWAP6 PUSH1 0x60 DUP8 MSTORE PUSH1 0x60 DUP8 ADD SWAP1 PUSH2 0x1256 JUMP JUMPDEST SWAP4 DUP2 AND PUSH1 0x20 DUP7 ADD MSTORE PUSH1 0xA0 SHR AND ISZERO ISZERO SWAP1 DUP4 ADD MSTORE SUB SWAP1 RETURN JUMPDEST SWAP1 POP CALLVALUE PUSH2 0x129 JUMPI DUP2 PUSH1 0x3 NOT CALLDATASIZE ADD SLT PUSH2 0x129 JUMPI PUSH1 0x20 SWAP1 PUSH1 0x2 SLOAD SWAP1 MLOAD SWAP1 DUP2 MSTORE RETURN JUMPDEST SWAP1 POP CALLVALUE PUSH2 0x129 JUMPI PUSH1 0x20 CALLDATASIZE PUSH1 0x3 NOT ADD SLT PUSH2 0x129 JUMPI PUSH2 0x1C5 SWAP2 PUSH1 0x1 PUSH1 0x1 PUSH1 0xA0 SHL SUB SWAP1 DUP3 SWAP1 DUP3 PUSH2 0x225 PUSH2 0x1128 JUMP JUMPDEST AND DUP2 MSTORE PUSH1 0x5 PUSH1 0x20 MSTORE KECCAK256 SWAP2 PUSH1 0xFF PUSH1 0x1 PUSH2 0x23C DUP6 PUSH2 0x11B0 JUMP JUMPDEST SWAP5 ADD SLOAD DUP3 MLOAD SWAP6 DUP7 SWAP6 PUSH1 0x60 DUP8 MSTORE PUSH1 0x60 DUP8 ADD SWAP1 PUSH2 0x1256 JUMP JUMPDEST DUP4 DUP3 CALLVALUE PUSH2 0x129 JUMPI PUSH1 0x20 CALLDATASIZE PUSH1 0x3 NOT ADD SLT PUSH2 0x129 JUMPI PUSH1 0x1 PUSH1 0x1 PUSH1 0xA0 SHL SUB DUP4 CALLDATALOAD DUP2 DUP2 AND SWAP3 SWAP1 DUP4 SWAP1 SUB PUSH2 0x378 JUMPI PUSH2 0x286 DUP4 ISZERO ISZERO PUSH2 0x1296 JUMP JUMPDEST DUP3 DUP5 MSTORE PUSH1 0x7 PUSH1 0x20 MSTORE PUSH1 0xFF DUP2 DUP6 KECCAK256 SLOAD PUSH1 0xA0 SHR AND PUSH2 0x336 JUMPI DUP1 MLOAD SWAP2 DUP2 DUP4 ADD DUP4 DUP2 LT PUSH8 0xFFFFFFFFFFFFFFFF DUP3 GT OR PUSH2 0x323 JUMPI DUP3 MSTORE DUP4 DUP4 MSTORE PUSH1 0x1 PUSH1 0x20 DUP1 DUP6 ADD SWAP2 DUP3 MSTORE DUP6 DUP8 MSTORE PUSH1 0x7 SWAP1 MSTORE SWAP2 DUP6 KECCAK256 SWAP3 MLOAD DUP4 SLOAD SWAP3 MLOAD PUSH1 0xFF PUSH1 0xA0 SHL SWAP1 ISZERO ISZERO PUSH1 0xA0 SHL AND PUSH1 0x1 PUSH1 0x1 PUSH1 0xA8 SHL SUB NOT SWAP1 SWAP4 AND SWAP2 AND PUSH1 0xFF PUSH1 0xA0 SHL NOT AND OR OR SWAP1 SSTORE SWAP1 SWAP2 POP PUSH32 0xDA51E137FBD273174FFCAC81CA558DAEE6FF0B24569CB9BC7086453E280DCA27 DUP3 DUP1 LOG2 DUP1 RETURN JUMPDEST PUSH4 0x4E487B71 PUSH1 0xE0 SHL DUP7 MSTORE PUSH1 0x41 DUP8 MSTORE PUSH1 0x24 DUP7 REVERT JUMPDEST MLOAD PUSH3 0x461BCD PUSH1 0xE5 SHL DUP2 MSTORE PUSH1 0x20 DUP2 DUP7 ADD MSTORE PUSH1 0x18 PUSH1 0x24 DUP3 ADD MSTORE PUSH32 0x41646D696E20616C726561647920726567697374657265640000000000000000 PUSH1 0x44 DUP3 ADD MSTORE PUSH1 0x64 SWAP1 REVERT JUMPDEST DUP4 DUP1 REVERT JUMPDEST SWAP2 POP CALLVALUE PUSH2 0x557 JUMPI PUSH1 0x20 SWAP1 DUP2 PUSH1 0x3 NOT CALLDATASIZE ADD SLT PUSH2 0x378 JUMPI PUSH2 0x399 PUSH2 0x1128 JUMP JUMPDEST DUP4 SLOAD PUSH1 0x1 PUSH1 0x1 PUSH1 0xA0 SHL SUB SWAP1 DUP2 AND SWAP2 CALLER DUP4 SWAP1 SUB PUSH2 0x514 JUMPI DUP2 AND DUP1 DUP8 MSTORE PUSH1 0x5 DUP6 MSTORE PUSH1 0x1 PUSH1 0xFF DUP2 DUP7 DUP11 KECCAK256 ADD SLOAD PUSH1 0xA0 SHR AND ISZERO ISZERO SUB PUSH2 0x4DD JUMPI DUP7 MSTORE PUSH1 0x5 DUP5 MSTORE PUSH1 0x1 DUP4 DUP8 KECCAK256 ADD SLOAD AND SWAP4 DUP5 PUSH12 0xFFFFFFFFFFFFFFFFFFFFFFFF PUSH1 0xA0 SHL PUSH1 0x8 SLOAD AND OR PUSH1 0x8 SSTORE DUP3 MLOAD SWAP5 PUSH4 0x70A08231 PUSH1 0xE0 SHL DUP7 MSTORE ADDRESS DUP3 DUP8 ADD MSTORE DUP5 DUP7 PUSH1 0x24 DUP2 DUP5 GAS STATICCALL SWAP6 DUP7 ISZERO PUSH2 0x4D3 JUMPI DUP8 SWAP7 PUSH2 0x4A0 JUMPI JUMPDEST POP DUP6 ISZERO PUSH2 0x491 JUMPI DUP5 SWAP3 SWAP2 DUP8 PUSH1 0x44 SWAP3 DUP7 MLOAD SWAP9 DUP10 SWAP6 DUP7 SWAP5 PUSH4 0xA9059CBB PUSH1 0xE0 SHL DUP7 MSTORE DUP6 ADD MSTORE PUSH1 0x24 DUP5 ADD MSTORE GAS CALL SWAP1 DUP2 ISZERO PUSH2 0x488 JUMPI POP PUSH2 0x456 JUMPI DUP3 DUP1 RETURN JUMPDEST DUP2 DUP2 RETURNDATASIZE DUP4 GT PUSH2 0x481 JUMPI JUMPDEST PUSH2 0x46A DUP2 DUP4 PUSH2 0x113E JUMP JUMPDEST DUP2 ADD SUB SLT PUSH2 0x129 JUMPI MLOAD DUP1 ISZERO ISZERO SUB PUSH2 0x107 JUMPI CODESIZE DUP1 DUP3 DUP1 RETURN JUMPDEST POP RETURNDATASIZE PUSH2 0x460 JUMP JUMPDEST MLOAD RETURNDATASIZE DUP6 DUP3 RETURNDATACOPY RETURNDATASIZE SWAP1 REVERT JUMPDEST POP DUP3 MLOAD PUSH4 0x686827B PUSH1 0xE5 SHL DUP2 MSTORE REVERT JUMPDEST SWAP1 SWAP6 POP DUP5 DUP2 DUP2 RETURNDATASIZE DUP4 GT PUSH2 0x4CC JUMPI JUMPDEST PUSH2 0x4B8 DUP2 DUP4 PUSH2 0x113E JUMP JUMPDEST DUP2 ADD SUB SLT PUSH2 0x4C8 JUMPI MLOAD SWAP5 CODESIZE PUSH2 0x41D JUMP JUMPDEST DUP7 DUP1 REVERT JUMPDEST POP RETURNDATASIZE PUSH2 0x4AE JUMP JUMPDEST DUP5 MLOAD RETURNDATASIZE DUP10 DUP3 RETURNDATACOPY RETURNDATASIZE SWAP1 REVERT JUMPDEST DUP4 MLOAD PUSH3 0x461BCD PUSH1 0xE5 SHL DUP2 MSTORE DUP1 DUP8 ADD DUP7 SWAP1 MSTORE PUSH1 0x11 PUSH1 0x24 DUP3 ADD MSTORE PUSH17 0x151BDAD95B881B9BDD08185B1B1BDDD959 PUSH1 0x7A SHL PUSH1 0x44 DUP3 ADD MSTORE PUSH1 0x64 SWAP1 REVERT JUMPDEST DUP4 MLOAD PUSH3 0x461BCD PUSH1 0xE5 SHL DUP2 MSTORE DUP1 DUP8 ADD DUP7 SWAP1 MSTORE PUSH1 0x1C PUSH1 0x24 DUP3 ADD MSTORE PUSH32 0x5468652063616C6C6572206D75737420626520746865206F776E657200000000 PUSH1 0x44 DUP3 ADD MSTORE PUSH1 0x64 SWAP1 REVERT JUMPDEST DUP3 DUP1 REVERT JUMPDEST DUP4 DUP3 CALLVALUE PUSH2 0x129 JUMPI PUSH1 0x2 DUP2 PUSH1 0x20 SWAP4 PUSH2 0x571 CALLDATASIZE PUSH2 0x10F3 JUMP JUMPDEST SWAP1 DUP3 MSTORE PUSH1 0x6 DUP7 MSTORE DUP3 DUP3 KECCAK256 SWAP1 DUP3 MSTORE DUP6 MSTORE KECCAK256 ADD SLOAD SWAP1 MLOAD SWAP1 DUP2 MSTORE RETURN JUMPDEST POP DUP3 CALLVALUE PUSH2 0x107 JUMPI PUSH1 0x20 DUP1 PUSH1 0x3 NOT CALLDATASIZE ADD SLT PUSH2 0x129 JUMPI PUSH1 0x1 PUSH1 0x1 PUSH1 0xA0 SHL SUB SWAP1 DUP2 PUSH2 0x5B0 PUSH2 0x1128 JUMP JUMPDEST AND SWAP1 DUP2 DUP5 MSTORE PUSH1 0x5 DUP2 MSTORE PUSH1 0x1 SWAP3 DUP4 DUP7 DUP7 KECCAK256 ADD SLOAD AND SWAP2 PUSH2 0x5CF DUP4 ISZERO ISZERO PUSH2 0x12E2 JUMP JUMPDEST DUP5 MSTORE PUSH1 0x5 DUP2 MSTORE DUP5 DUP5 KECCAK256 SWAP5 DUP5 PUSH2 0x5E4 DUP8 SLOAD PUSH2 0x1176 JUMP JUMPDEST DUP1 PUSH2 0x6EB JUMPI JUMPDEST POP DUP5 DUP8 ADD SSTORE DUP1 MLOAD SWAP4 DUP2 DUP6 MSTORE DUP6 SWAP7 DUP1 SLOAD PUSH2 0x602 DUP2 PUSH2 0x1176 JUMP JUMPDEST DUP1 SWAP5 DUP9 ADD MSTORE DUP3 DUP2 AND SWAP1 DUP2 PUSH1 0x0 EQ PUSH2 0x6A3 JUMPI POP PUSH1 0x1 EQ PUSH2 0x64C JUMPI JUMPDEST DUP7 PUSH32 0x1ADB68F0A540855CAFA9D341C1E94A36FA13B8A15FF602507ADDFE49C0F018D1 DUP8 DUP1 DUP12 DUP10 DUP10 DUP4 ADD MSTORE SUB SWAP1 LOG1 DUP1 RETURN JUMPDEST DUP7 MSTORE DUP3 DUP7 KECCAK256 SWAP3 SWAP7 POP DUP6 SWAP3 JUMPDEST DUP3 DUP5 LT PUSH2 0x68F JUMPI POP POP POP DUP3 ADD PUSH1 0x60 ADD SWAP4 DUP2 PUSH32 0x1ADB68F0A540855CAFA9D341C1E94A36FA13B8A15FF602507ADDFE49C0F018D1 DUP5 PUSH2 0x61C JUMP JUMPDEST DUP1 SLOAD DUP7 DUP6 ADD PUSH1 0x60 ADD MSTORE SWAP3 DUP8 ADD SWAP3 DUP2 ADD PUSH2 0x657 JUMP JUMPDEST PUSH1 0xFF NOT AND PUSH1 0x60 DUP9 DUP2 ADD SWAP2 SWAP1 SWAP2 MSTORE SWAP4 ISZERO ISZERO PUSH1 0x5 SHL DUP8 ADD SWAP1 SWAP4 ADD SWAP8 POP DUP5 SWAP3 POP PUSH32 0x1ADB68F0A540855CAFA9D341C1E94A36FA13B8A15FF602507ADDFE49C0F018D1 SWAP2 POP DUP6 SWAP1 POP PUSH2 0x61C JUMP JUMPDEST PUSH1 0x1F DUP2 GT PUSH1 0x1 EQ PUSH2 0x701 JUMPI POP DUP7 SSTORE JUMPDEST DUP5 DUP8 PUSH2 0x5EA JUMP JUMPDEST DUP8 DUP3 MSTORE PUSH2 0x71B PUSH1 0x1F DUP6 DUP5 KECCAK256 SWAP3 ADD PUSH1 0x5 SHR DUP3 ADD DUP8 DUP4 ADD PUSH2 0x132E JUMP JUMPDEST DUP2 DUP9 SSTORE SSTORE PUSH2 0x6FA JUMP JUMPDEST DUP4 DUP3 CALLVALUE PUSH2 0x129 JUMPI PUSH2 0x734 CALLDATASIZE PUSH2 0x110E JUMP JUMPDEST SWAP1 SWAP2 DUP3 ISZERO PUSH2 0x917 JUMPI DUP1 DUP6 MSTORE PUSH1 0x20 SWAP6 PUSH1 0x6 DUP8 MSTORE DUP5 DUP7 KECCAK256 DUP5 DUP8 MSTORE DUP8 MSTORE DUP4 DUP6 DUP8 KECCAK256 SLOAD SUB PUSH2 0x8D4 JUMPI DUP2 DUP7 MSTORE PUSH1 0x6 DUP8 MSTORE DUP5 DUP7 KECCAK256 DUP5 DUP8 MSTORE DUP8 MSTORE PUSH1 0x2 DUP6 DUP8 KECCAK256 ADD SLOAD DUP4 GT ISZERO PUSH2 0x886 JUMPI PUSH1 0x3C DUP4 MUL DUP4 DUP2 DIV PUSH1 0x3C EQ DUP5 ISZERO OR ISZERO PUSH2 0x860 JUMPI DUP3 DUP8 MSTORE PUSH1 0x6 DUP9 MSTORE DUP6 DUP8 KECCAK256 PUSH1 0x0 NOT DUP7 ADD DUP7 DUP2 GT PUSH2 0x873 JUMPI DUP9 MSTORE DUP9 MSTORE PUSH1 0x2 DUP7 DUP9 KECCAK256 ADD SLOAD DUP2 SUB SWAP1 DUP2 GT PUSH2 0x860 JUMPI PUSH2 0x12C LT ISZERO PUSH2 0x801 JUMPI POP SWAP5 DUP5 SWAP6 PUSH32 0xFC0B6DF00175009634EE8493748DB715994EF6A2DA308ACD70658B3B4F3222B1 SWAP6 MSTORE PUSH1 0x6 DUP2 MSTORE DUP4 DUP7 KECCAK256 DUP4 DUP8 MSTORE DUP2 MSTORE DUP2 PUSH1 0x2 DUP6 DUP9 KECCAK256 ADD SSTORE DUP4 MLOAD SWAP3 DUP4 MSTORE DUP3 ADD MSTORE LOG1 DUP1 RETURN JUMPDEST DUP5 MLOAD PUSH3 0x461BCD PUSH1 0xE5 SHL DUP2 MSTORE SWAP1 DUP2 ADD DUP8 SWAP1 MSTORE PUSH1 0x33 PUSH1 0x24 DUP3 ADD MSTORE PUSH32 0x4D7573742068617665206120706572696F64206F662033302064617973206265 PUSH1 0x44 DUP3 ADD MSTORE PUSH19 0x747765656E20696E7374616C6C6D656E747321 PUSH1 0x68 SHL PUSH1 0x64 DUP3 ADD MSTORE PUSH1 0x84 SWAP1 REVERT JUMPDEST PUSH4 0x4E487B71 PUSH1 0xE0 SHL DUP8 MSTORE PUSH1 0x11 DUP3 MSTORE PUSH1 0x24 DUP8 REVERT JUMPDEST PUSH4 0x4E487B71 PUSH1 0xE0 SHL DUP10 MSTORE PUSH1 0x11 DUP5 MSTORE PUSH1 0x24 DUP10 REVERT JUMPDEST DUP5 MLOAD PUSH3 0x461BCD PUSH1 0xE5 SHL DUP2 MSTORE SWAP1 DUP2 ADD DUP8 SWAP1 MSTORE PUSH1 0x22 PUSH1 0x24 DUP3 ADD MSTORE PUSH32 0x596F752063616E206F6E6C7920706F7374706F6E6520746865207061796D656E PUSH1 0x44 DUP3 ADD MSTORE PUSH2 0x7421 PUSH1 0xF0 SHL PUSH1 0x64 DUP3 ADD MSTORE PUSH1 0x84 SWAP1 REVERT JUMPDEST DUP5 MLOAD PUSH3 0x461BCD PUSH1 0xE5 SHL DUP2 MSTORE SWAP1 DUP2 ADD DUP8 SWAP1 MSTORE PUSH1 0x1E PUSH1 0x24 DUP3 ADD MSTORE PUSH32 0x496E7374616C6C6D656E74206E756D626572206D757374206578697374210000 PUSH1 0x44 DUP3 ADD MSTORE PUSH1 0x64 SWAP1 REVERT JUMPDEST DUP4 MLOAD PUSH3 0x461BCD PUSH1 0xE5 SHL DUP2 MSTORE PUSH1 0x20 DUP2 DUP9 ADD MSTORE PUSH1 0x2D PUSH1 0x24 DUP3 ADD MSTORE PUSH32 0x496E7374616C6C6D656E74206E756D626572206D757374206265206772656174 PUSH1 0x44 DUP3 ADD MSTORE PUSH13 0x6572207468616E207A65726F21 PUSH1 0x98 SHL PUSH1 0x64 DUP3 ADD MSTORE PUSH1 0x84 SWAP1 REVERT JUMPDEST DUP4 DUP3 CALLVALUE PUSH2 0x129 JUMPI PUSH2 0x980 CALLDATASIZE PUSH2 0x110E JUMP JUMPDEST SWAP1 SWAP2 DUP3 ISZERO PUSH2 0xB55 JUMPI TIMESTAMP DUP3 GT ISZERO PUSH2 0xAF6 JUMPI PUSH2 0x12C SWAP2 DUP3 DUP2 ADD DUP1 SWAP2 GT PUSH2 0xAE3 JUMPI PUSH1 0x1 SWAP3 DUP4 SWAP2 JUMPDEST DUP6 DUP6 GT ISZERO PUSH2 0x9C4 JUMPI PUSH1 0x20 DUP9 DUP9 DUP2 SLOAD SWAP2 PUSH2 0x9BC DUP4 PUSH2 0x137B JUMP JUMPDEST SWAP1 SSTORE MLOAD SWAP1 DUP2 MSTORE RETURN JUMPDEST TIMESTAMP DUP2 GT ISZERO PUSH2 0xA94 JUMPI DUP2 DUP2 ADD SWAP1 DUP2 DUP2 GT PUSH2 0xA81 JUMPI DUP4 SLOAD PUSH1 0x2 SWAP1 DUP2 SLOAD SWAP2 DUP11 MLOAD SWAP4 PUSH1 0xC0 DUP6 ADD DUP6 DUP2 LT PUSH8 0xFFFFFFFFFFFFFFFF DUP3 GT OR PUSH2 0xA6C JUMPI PUSH2 0xA66 SWAP7 SWAP6 SWAP5 SWAP3 PUSH1 0x5 SWAP5 SWAP3 DUP16 DUP16 DUP15 SWAP2 DUP15 SWAP6 DUP3 MSTORE DUP3 DUP11 MSTORE PUSH1 0x20 SWAP3 DUP4 DUP12 ADD SWAP4 DUP3 DUP6 MSTORE DUP4 DUP13 ADD SWAP6 DUP7 MSTORE PUSH1 0x60 DUP13 ADD SWAP8 DUP14 DUP10 MSTORE PUSH1 0x80 DUP14 ADD SWAP10 DUP11 MSTORE PUSH1 0xA0 DUP14 ADD SWAP11 DUP12 MSTORE DUP4 MSTORE PUSH1 0x6 DUP2 MSTORE DUP4 DUP4 KECCAK256 SWAP2 DUP4 MSTORE MSTORE KECCAK256 SWAP8 MLOAD DUP9 SSTORE MLOAD DUP12 DUP9 ADD SSTORE MLOAD SWAP1 DUP7 ADD SSTORE MLOAD PUSH1 0x3 DUP6 ADD SSTORE MLOAD DUP14 DUP5 ADD SSTORE MLOAD SWAP2 ADD SSTORE SWAP5 PUSH2 0x137B JUMP JUMPDEST SWAP4 PUSH2 0x9A4 JUMP JUMPDEST POP POP PUSH4 0x4E487B71 PUSH1 0xE0 SHL DUP13 MSTORE PUSH1 0x41 DUP14 MSTORE PUSH1 0x24 DUP13 REVERT JUMPDEST PUSH4 0x4E487B71 PUSH1 0xE0 SHL DUP10 MSTORE PUSH1 0x11 DUP11 MSTORE PUSH1 0x24 DUP10 REVERT JUMPDEST DUP7 MLOAD PUSH3 0x461BCD PUSH1 0xE5 SHL DUP2 MSTORE PUSH1 0x20 DUP2 DUP12 ADD MSTORE PUSH1 0x23 PUSH1 0x24 DUP3 ADD MSTORE PUSH32 0x5061796D656E742064617465206D75737420626520696E207468652066757475 PUSH1 0x44 DUP3 ADD MSTORE PUSH3 0x726521 PUSH1 0xE8 SHL PUSH1 0x64 DUP3 ADD MSTORE PUSH1 0x84 SWAP1 REVERT JUMPDEST PUSH4 0x4E487B71 PUSH1 0xE0 SHL DUP7 MSTORE PUSH1 0x11 DUP8 MSTORE PUSH1 0x24 DUP7 REVERT JUMPDEST DUP4 MLOAD PUSH3 0x461BCD PUSH1 0xE5 SHL DUP2 MSTORE PUSH1 0x20 DUP2 DUP9 ADD MSTORE PUSH1 0x33 PUSH1 0x24 DUP3 ADD MSTORE PUSH32 0x54686520636C6F73696E67206F66207469746C652073656C6C696E67206D7573 PUSH1 0x44 DUP3 ADD MSTORE PUSH19 0x7420626520696E207468652066757475726521 PUSH1 0x68 SHL PUSH1 0x64 DUP3 ADD MSTORE PUSH1 0x84 SWAP1 REVERT JUMPDEST DUP4 MLOAD PUSH3 0x461BCD PUSH1 0xE5 SHL DUP2 MSTORE PUSH1 0x20 DUP2 DUP9 ADD MSTORE PUSH1 0x2A PUSH1 0x24 DUP3 ADD MSTORE PUSH32 0x4E756D626572206F66207061796D656E7473206D757374206265206772656174 PUSH1 0x44 DUP3 ADD MSTORE PUSH10 0x6572207468616E203021 PUSH1 0xB0 SHL PUSH1 0x64 DUP3 ADD MSTORE PUSH1 0x84 SWAP1 REVERT JUMPDEST DUP4 SWAP1 CALLVALUE PUSH2 0x129 JUMPI PUSH1 0x20 CALLDATASIZE PUSH1 0x3 NOT ADD SLT PUSH2 0x129 JUMPI PUSH1 0x1 PUSH1 0x1 PUSH1 0xA0 SHL SUB SWAP2 SWAP1 CALLDATALOAD DUP3 DUP2 AND SWAP1 DUP2 SWAP1 SUB PUSH2 0x129 JUMPI DUP2 DUP5 SWAP2 PUSH1 0xFF SWAP4 MSTORE PUSH1 0x7 PUSH1 0x20 MSTORE KECCAK256 SLOAD DUP4 MLOAD SWAP3 DUP2 AND DUP4 MSTORE PUSH1 0xA0 SHR AND ISZERO ISZERO PUSH1 0x20 DUP3 ADD MSTORE RETURN JUMPDEST DUP4 SWAP1 CALLVALUE PUSH2 0x129 JUMPI DUP3 PUSH1 0x3 NOT CALLDATASIZE ADD SLT PUSH2 0x129 JUMPI PUSH2 0xC10 PUSH2 0x1128 JUMP JUMPDEST SWAP1 PUSH1 0x24 DUP1 CALLDATALOAD SWAP2 PUSH8 0xFFFFFFFFFFFFFFFF SWAP2 DUP3 DUP5 GT PUSH2 0xEE8 JUMPI CALLDATASIZE PUSH1 0x23 DUP6 ADD SLT ISZERO PUSH2 0xEE8 JUMPI DUP4 DUP3 ADD CALLDATALOAD SWAP5 DUP4 DUP7 GT PUSH2 0xED6 JUMPI DUP8 MLOAD SWAP4 PUSH1 0x20 SWAP7 PUSH1 0x1F NOT SWAP7 PUSH2 0xC59 DUP10 DUP10 PUSH1 0x1F DUP6 ADD AND ADD DUP9 PUSH2 0x113E JUMP JUMPDEST DUP2 DUP8 MSTORE CALLDATASIZE DUP6 DUP4 DUP4 ADD ADD GT PUSH2 0xED2 JUMPI DUP2 DUP11 SWAP3 DUP7 DUP12 SWAP4 ADD DUP4 DUP11 ADD CALLDATACOPY DUP8 ADD ADD MSTORE PUSH1 0x1 PUSH1 0x1 PUSH1 0xA0 SHL SUB SWAP2 DUP3 AND SWAP6 PUSH2 0xC8D DUP8 ISZERO ISZERO PUSH2 0x12E2 JUMP JUMPDEST DUP7 DUP10 MSTORE PUSH1 0x5 DUP9 MSTORE PUSH1 0x1 SWAP2 DUP4 DUP4 DUP13 DUP13 KECCAK256 ADD SLOAD AND PUSH2 0xE9A JUMPI DUP11 MLOAD SWAP2 PUSH1 0x60 DUP4 ADD DUP4 DUP2 LT DUP4 DUP3 GT OR PUSH2 0xE88 JUMPI DUP13 MSTORE DUP8 DUP4 MSTORE DUP10 DUP4 ADD SWAP7 DUP10 DUP9 MSTORE DUP13 DUP5 ADD SWAP7 DUP6 DUP9 MSTORE DUP11 DUP14 MSTORE PUSH1 0x5 DUP13 MSTORE DUP14 DUP14 KECCAK256 SWAP5 MLOAD SWAP2 DUP3 MLOAD SWAP5 DUP6 GT PUSH2 0xE77 JUMPI POP POP DUP12 DUP12 PUSH2 0xCEC DUP7 SLOAD PUSH2 0x1176 JUMP JUMPDEST PUSH1 0x1F DUP2 GT PUSH2 0xE3D JUMPI JUMPDEST POP POP POP DUP11 SWAP2 PUSH1 0x1F DUP5 GT PUSH1 0x1 EQ PUSH2 0xDB1 JUMPI POP SWAP3 DUP3 PUSH2 0xD8D SWAP7 SWAP4 PUSH2 0xDA0 SWAP11 SWAP10 SWAP7 SWAP4 DUP15 SWAP16 SWAP10 SWAP7 PUSH32 0x7AFEE0F1B802CC0F66C67890E26B4566251859CF2CD8DE79B86AED7251D9756A SWAP16 SWAP3 PUSH2 0xDA6 JUMPI JUMPDEST POP POP PUSH1 0x0 NOT PUSH1 0x3 DUP4 SWAP1 SHL SHR NOT AND SWAP1 DUP4 SHL OR DUP2 SSTORE JUMPDEST ADD SWAP3 MLOAD AND PUSH12 0xFFFFFFFFFFFFFFFFFFFFFFFF PUSH1 0xA0 SHL DUP4 SLOAD AND OR DUP3 SSTORE MLOAD ISZERO ISZERO DUP2 SLOAD SWAP1 PUSH1 0xFF PUSH1 0xA0 SHL SWAP1 ISZERO ISZERO PUSH1 0xA0 SHL AND SWAP1 PUSH1 0xFF PUSH1 0xA0 SHL NOT AND OR SWAP1 SSTORE JUMP JUMPDEST DUP1 DUP1 MLOAD SWAP6 DUP7 SWAP6 DUP7 MSTORE DUP6 ADD MSTORE DUP4 ADD SWAP1 PUSH2 0x1256 JUMP JUMPDEST SUB SWAP1 LOG1 DUP1 RETURN JUMPDEST ADD MLOAD SWAP1 POP DUP16 DUP1 PUSH2 0xD40 JUMP JUMPDEST DUP5 DUP14 MSTORE DUP12 DUP14 KECCAK256 SWAP3 SWAP2 SWAP1 DUP5 AND DUP14 JUMPDEST DUP2 DUP2 LT PUSH2 0xE28 JUMPI POP SWAP4 DUP7 SWAP4 PUSH32 0x7AFEE0F1B802CC0F66C67890E26B4566251859CF2CD8DE79B86AED7251D9756A SWAP15 SWAP16 SWAP10 SWAP7 SWAP4 PUSH2 0xDA0 SWAP13 SWAP12 SWAP9 SWAP4 DUP4 PUSH2 0xD8D SWAP12 SWAP9 LT PUSH2 0xE0F JUMPI JUMPDEST POP POP POP DUP2 SHL ADD DUP2 SSTORE PUSH2 0xD54 JUMP JUMPDEST ADD MLOAD PUSH1 0x0 NOT PUSH1 0xF8 DUP5 PUSH1 0x3 SHL AND SHR NOT AND SWAP1 SSTORE DUP16 DUP1 DUP1 PUSH2 0xE02 JUMP JUMPDEST DUP3 DUP5 ADD MLOAD DUP6 SSTORE SWAP4 DUP8 ADD SWAP4 SWAP3 DUP14 ADD SWAP3 DUP14 ADD PUSH2 0xDBE JUMP JUMPDEST DUP2 DUP4 DUP9 PUSH2 0xE65 SWAP6 MSTORE KECCAK256 SWAP1 PUSH1 0x1F DUP8 ADD PUSH1 0x5 SHR DUP3 ADD SWAP3 DUP8 LT PUSH2 0xE6D JUMPI JUMPDEST PUSH1 0x1F ADD PUSH1 0x5 SHR ADD SWAP1 PUSH2 0x132E JUMP JUMPDEST DUP12 DUP12 DUP16 PUSH2 0xCF5 JUMP JUMPDEST SWAP1 SWAP2 POP DUP2 SWAP1 PUSH2 0xE58 JUMP JUMPDEST PUSH4 0x4E487B71 PUSH1 0xE0 SHL DUP15 MSTORE PUSH1 0x41 SWAP1 MSTORE DUP13 REVERT JUMPDEST PUSH4 0x4E487B71 PUSH1 0xE0 SHL DUP13 MSTORE PUSH1 0x41 DUP9 MSTORE DUP7 DUP13 REVERT JUMPDEST DUP11 MLOAD PUSH3 0x461BCD PUSH1 0xE5 SHL DUP2 MSTORE DUP1 DUP8 ADD DUP11 SWAP1 MSTORE PUSH1 0x13 DUP2 DUP8 ADD MSTORE PUSH19 0x151BDAD95B88185B1C9958591E481859191959 PUSH1 0x6A SHL PUSH1 0x44 DUP3 ADD MSTORE PUSH1 0x64 SWAP1 REVERT JUMPDEST DUP10 DUP1 REVERT JUMPDEST POP PUSH4 0x4E487B71 PUSH1 0xE0 SHL DUP7 MSTORE PUSH1 0x41 DUP3 MSTORE DUP6 REVERT JUMPDEST DUP6 DUP1 REVERT JUMPDEST SWAP1 DUP4 CALLVALUE PUSH2 0x107 JUMPI PUSH2 0xEFC CALLDATASIZE PUSH2 0x110E JUMP JUMPDEST PUSH1 0x3 SLOAD SWAP1 SWAP4 SWAP3 DUP2 DUP2 LT ISZERO PUSH2 0xF69 JUMPI POP POP PUSH2 0xF32 PUSH1 0x20 SWAP6 DUP6 DUP5 PUSH1 0x64 SWAP5 PUSH2 0xF39 SWAP8 SWAP7 MSTORE PUSH1 0x6 DUP10 MSTORE DUP2 DUP2 KECCAK256 DUP7 DUP3 MSTORE DUP10 MSTORE KECCAK256 ADD SLOAD DUP4 PUSH2 0x1345 JUMP JUMPDEST DIV SWAP1 PUSH2 0x136E JUMP JUMPDEST SWAP1 PUSH32 0x1323840BBD6E53AF646A0046B72FF8EA4144B0492C4F6D3614F8CE899804FD04 DUP4 DUP3 MLOAD DUP5 DUP2 MSTORE LOG1 JUMPDEST MLOAD SWAP1 DUP2 MSTORE RETURN JUMPDEST SWAP1 SWAP2 DUP4 SWAP6 SWAP5 SWAP6 MSTORE PUSH1 0x6 PUSH1 0x20 MSTORE DUP4 DUP4 KECCAK256 DUP6 DUP5 MSTORE PUSH1 0x20 MSTORE PUSH1 0x5 DUP5 DUP5 KECCAK256 ADD SLOAD SWAP3 DUP3 ISZERO PUSH2 0x1027 JUMPI POP PUSH1 0x20 SWAP6 POP PUSH2 0xFB8 SWAP3 PUSH2 0xFAB SWAP3 PUSH2 0xFA3 SWAP3 DIV PUSH2 0x1345 JUMP JUMPDEST PUSH1 0x1 SLOAD PUSH2 0x136E JUMP JUMPDEST SWAP3 PUSH1 0x64 PUSH2 0xF32 DUP6 DUP4 PUSH2 0x1345 JUMP JUMPDEST SWAP2 DUP2 PUSH1 0x28 DUP3 GT ISZERO PUSH2 0xFF5 JUMPI PUSH32 0x7882C1A4F360824E9D02CEE7D2B40D77BF44368AAE126F3AF401776BF5E82483 SWAP2 DUP2 MLOAD SWAP1 DUP2 MSTORE DUP5 DUP7 DUP3 ADD MSTORE LOG1 PUSH2 0xF63 JUMP JUMPDEST PUSH32 0x43DF8B22D3686D15A6E74163CA342C850BC01D74DB643DB1D546D2BD2A93C9EC SWAP2 DUP2 MLOAD SWAP1 DUP2 MSTORE DUP5 DUP7 DUP3 ADD MSTORE LOG1 PUSH2 0xF63 JUMP JUMPDEST PUSH4 0x4E487B71 PUSH1 0xE0 SHL DUP2 MSTORE PUSH1 0x12 DUP8 MSTORE PUSH1 0x24 SWAP1 REVERT JUMPDEST DUP4 DUP3 CALLVALUE PUSH2 0x129 JUMPI PUSH1 0x3 DUP2 PUSH1 0x20 SWAP4 PUSH2 0x571 CALLDATASIZE PUSH2 0x10F3 JUMP JUMPDEST SWAP2 SWAP3 POP CALLVALUE PUSH2 0x129 JUMPI PUSH1 0x20 CALLDATASIZE PUSH1 0x3 NOT ADD SLT PUSH2 0x129 JUMPI CALLDATALOAD PUSH1 0x1 PUSH1 0x1 PUSH1 0xA0 SHL SUB DUP2 AND SWAP3 SWAP1 DUP4 SWAP1 SUB PUSH2 0x129 JUMPI PUSH2 0x1083 DUP4 ISZERO ISZERO PUSH2 0x1296 JUMP JUMPDEST DUP3 DUP3 MSTORE PUSH1 0x7 PUSH1 0x20 MSTORE DUP2 KECCAK256 PUSH1 0x1 PUSH1 0xFF DUP3 SLOAD PUSH1 0xA0 SHR AND ISZERO ISZERO SUB PUSH2 0x129 JUMPI SSTORE PUSH32 0xA3B62BC36326052D97EA62D63C3D60308ED4C3EA8AC079DD8499F1E9C4F80C0F DUP3 DUP1 LOG2 DUP1 RETURN JUMPDEST SWAP3 POP POP CALLVALUE PUSH2 0x557 JUMPI PUSH1 0x1 SWAP1 PUSH1 0x20 SWAP4 PUSH2 0x10DD CALLDATASIZE PUSH2 0x10F3 JUMP JUMPDEST SWAP1 DUP3 MSTORE PUSH1 0x6 DUP7 MSTORE DUP3 DUP3 KECCAK256 SWAP1 DUP3 MSTORE DUP6 MSTORE KECCAK256 ADD SLOAD DUP2 MSTORE RETURN JUMPDEST PUSH1 0x40 SWAP1 PUSH1 0x3 NOT ADD SLT PUSH2 0x1109 JUMPI PUSH1 0x4 CALLDATALOAD SWAP1 PUSH1 0x24 CALLDATALOAD SWAP1 JUMP JUMPDEST PUSH1 0x0 DUP1 REVERT JUMPDEST PUSH1 0x60 SWAP1 PUSH1 0x3 NOT ADD SLT PUSH2 0x1109 JUMPI PUSH1 0x4 CALLDATALOAD SWAP1 PUSH1 0x24 CALLDATALOAD SWAP1 PUSH1 0x44 CALLDATALOAD SWAP1 JUMP JUMPDEST PUSH1 0x4 CALLDATALOAD SWAP1 PUSH1 0x1 PUSH1 0x1 PUSH1 0xA0 SHL SUB DUP3 AND DUP3 SUB PUSH2 0x1109 JUMPI JUMP JUMPDEST SWAP1 PUSH1 0x1F DUP1 NOT SWAP2 ADD AND DUP2 ADD SWAP1 DUP2 LT PUSH8 0xFFFFFFFFFFFFFFFF DUP3 GT OR PUSH2 0x1160 JUMPI PUSH1 0x40 MSTORE JUMP JUMPDEST PUSH4 0x4E487B71 PUSH1 0xE0 SHL PUSH1 0x0 MSTORE PUSH1 0x41 PUSH1 0x4 MSTORE PUSH1 0x24 PUSH1 0x0 REVERT JUMPDEST SWAP1 PUSH1 0x1 DUP3 DUP2 SHR SWAP3 AND DUP1 ISZERO PUSH2 0x11A6 JUMPI JUMPDEST PUSH1 0x20 DUP4 LT EQ PUSH2 0x1190 JUMPI JUMP JUMPDEST PUSH4 0x4E487B71 PUSH1 0xE0 SHL PUSH1 0x0 MSTORE PUSH1 0x22 PUSH1 0x4 MSTORE PUSH1 0x24 PUSH1 0x0 REVERT JUMPDEST SWAP2 PUSH1 0x7F AND SWAP2 PUSH2 0x1185 JUMP JUMPDEST SWAP1 PUSH1 0x40 MLOAD SWAP2 DUP3 PUSH1 0x0 DUP3 SLOAD SWAP3 PUSH2 0x11C4 DUP5 PUSH2 0x1176 JUMP JUMPDEST SWAP1 DUP2 DUP5 MSTORE PUSH1 0x1 SWAP5 DUP6 DUP2 AND SWAP1 DUP2 PUSH1 0x0 EQ PUSH2 0x1233 JUMPI POP PUSH1 0x1 EQ PUSH2 0x11F0 JUMPI JUMPDEST POP POP PUSH2 0x11EE SWAP3 POP SUB DUP4 PUSH2 0x113E JUMP JUMPDEST JUMP JUMPDEST SWAP1 SWAP4 SWAP2 POP PUSH1 0x0 MSTORE PUSH1 0x20 SWAP1 DUP2 PUSH1 0x0 KECCAK256 SWAP4 PUSH1 0x0 SWAP2 JUMPDEST DUP2 DUP4 LT PUSH2 0x121B JUMPI POP POP PUSH2 0x11EE SWAP4 POP DUP3 ADD ADD CODESIZE DUP1 PUSH2 0x11E0 JUMP JUMPDEST DUP6 SLOAD DUP9 DUP5 ADD DUP6 ADD MSTORE SWAP5 DUP6 ADD SWAP5 DUP8 SWAP5 POP SWAP2 DUP4 ADD SWAP2 PUSH2 0x1203 JUMP JUMPDEST SWAP2 POP POP PUSH2 0x11EE SWAP5 POP PUSH1 0x20 SWAP3 POP PUSH1 0xFF NOT AND DUP3 DUP5 ADD MSTORE ISZERO ISZERO PUSH1 0x5 SHL DUP3 ADD ADD CODESIZE DUP1 PUSH2 0x11E0 JUMP JUMPDEST SWAP2 SWAP1 DUP3 MLOAD SWAP3 DUP4 DUP3 MSTORE PUSH1 0x0 JUMPDEST DUP5 DUP2 LT PUSH2 0x1282 JUMPI POP POP DUP3 PUSH1 0x0 PUSH1 0x20 DUP1 SWAP5 SWAP6 DUP5 ADD ADD MSTORE PUSH1 0x1F DUP1 NOT SWAP2 ADD AND ADD ADD SWAP1 JUMP JUMPDEST PUSH1 0x20 DUP2 DUP4 ADD DUP2 ADD MLOAD DUP5 DUP4 ADD DUP3 ADD MSTORE ADD PUSH2 0x1261 JUMP JUMPDEST ISZERO PUSH2 0x129D JUMPI JUMP JUMPDEST PUSH1 0x40 MLOAD PUSH3 0x461BCD PUSH1 0xE5 SHL DUP2 MSTORE PUSH1 0x20 PUSH1 0x4 DUP3 ADD MSTORE PUSH1 0x1C PUSH1 0x24 DUP3 ADD MSTORE PUSH32 0x41646D696E2077616C6C65742063616E277420626520656D7074792100000000 PUSH1 0x44 DUP3 ADD MSTORE PUSH1 0x64 SWAP1 REVERT JUMPDEST ISZERO PUSH2 0x12E9 JUMPI JUMP JUMPDEST PUSH1 0x40 MLOAD PUSH3 0x461BCD PUSH1 0xE5 SHL DUP2 MSTORE PUSH1 0x20 PUSH1 0x4 DUP3 ADD MSTORE PUSH1 0x1C PUSH1 0x24 DUP3 ADD MSTORE PUSH32 0x546F6B656E20616464726573732063616E6E6F74206265207A65726F00000000 PUSH1 0x44 DUP3 ADD MSTORE PUSH1 0x64 SWAP1 REVERT JUMPDEST DUP2 DUP2 LT PUSH2 0x1339 JUMPI POP POP JUMP JUMPDEST PUSH1 0x0 DUP2 SSTORE PUSH1 0x1 ADD PUSH2 0x132E JUMP JUMPDEST DUP2 DUP2 MUL SWAP3 SWAP2 DUP2 ISZERO SWAP2 DUP5 DIV EQ OR ISZERO PUSH2 0x1358 JUMPI JUMP JUMPDEST PUSH4 0x4E487B71 PUSH1 0xE0 SHL PUSH1 0x0 MSTORE PUSH1 0x11 PUSH1 0x4 MSTORE PUSH1 0x24 PUSH1 0x0 REVERT JUMPDEST SWAP2 SWAP1 DUP3 ADD DUP1 SWAP3 GT PUSH2 0x1358 JUMPI JUMP JUMPDEST PUSH1 0x0 NOT DUP2 EQ PUSH2 0x1358 JUMPI PUSH1 0x1 ADD SWAP1 JUMP INVALID LOG2 PUSH5 0x6970667358 0x22 SLT KECCAK256 0xCE 0xAF DUP10 SWAP15 0x28 DIV 0xB5 0xBD 0xC4 MSTORE8 JUMPI 0xBE SLT 0xED SWAP4 DUP12 SWAP1 SLT 0xDF 0xD4 PUSH27 0xD921BD68187B8A0C6BF2CC64736F6C634300081400330000000000 "},"gasEstimates":{"creation":{"codeDepositCost":"1011200","executionCost":"113712","totalCost":"1124912"},"external":{"addAdmin(address)":"28310","addParticipantsToDraw(uint256,uint256)":"24938","addToken(address,string)":"infinite","allowedCrypto(address)":"infinite","baseInterestRate()":"2643","calculateDelayedPayment(uint256,uint256,uint256)":"infinite","createSchedule(uint256,uint256,uint256)":"infinite","dailyInterestRate()":"2577","removeAdmin(address)":"8623","removeToken(address)":"infinite","returnAvailableStablecoin(address)":"infinite","returnDrawDate(uint256,uint256)":"2508","returnDrawParticipants(uint256,uint256)":"2449","returnPaymentDeadline(uint256,uint256)":"2662","staff(address)":"2554","updateInterest(uint256,uint256)":"44786","updatePaymentDate(uint256,uint256,uint256)":"30820","withdrawProtocolFee(address)":"infinite"}},"methodIdentifiers":{"addAdmin(address)":"70480275","addParticipantsToDraw(uint256,uint256)":"ac066fa2","addToken(address,string)":"2c8da560","allowedCrypto(address)":"7c4c4b89","baseInterestRate()":"afd92762","calculateDelayedPayment(uint256,uint256,uint256)":"2b187755","createSchedule(uint256,uint256,uint256)":"5294bac8","dailyInterestRate()":"7fca631f","removeAdmin(address)":"1785f53c","removeToken(address)":"5fa7b584","returnAvailableStablecoin(address)":"8c83ddd3","returnDrawDate(uint256,uint256)":"29b00732","returnDrawParticipants(uint256,uint256)":"0d65a8e8","returnPaymentDeadline(uint256,uint256)":"64cf0e40","staff(address)":"4f83158a","updateInterest(uint256,uint256)":"b4f9a7e0","updatePaymentDate(uint256,uint256,uint256)":"559006c2","withdrawProtocolFee(address)":"668fb6dc"}},"storageLayout":{"storage":[{"astId":6979,"contract":"contracts/HorizonStaff.sol:HorizonStaff","label":"scheduleId","offset":0,"slot":"0","type":"t_uint256"},{"astId":6982,"contract":"contracts/HorizonStaff.sol:HorizonStaff","label":"baseInterestRate","offset":0,"slot":"1","type":"t_uint256"},{"astId":6985,"contract":"contracts/HorizonStaff.sol:HorizonStaff","label":"dailyInterestRate","offset":0,"slot":"2","type":"t_uint256"},{"astId":6988,"contract":"contracts/HorizonStaff.sol:HorizonStaff","label":"oneDay","offset":0,"slot":"3","type":"t_uint256"},{"astId":6990,"contract":"contracts/HorizonStaff.sol:HorizonStaff","label":"owner","offset":0,"slot":"4","type":"t_address"},{"astId":7069,"contract":"contracts/HorizonStaff.sol:HorizonStaff","label":"allowedCrypto","offset":0,"slot":"5","type":"t_mapping(t_contract(IERC20)827,t_struct(TokenInfo)7050_storage)"},{"astId":7076,"contract":"contracts/HorizonStaff.sol:HorizonStaff","label":"schedule","offset":0,"slot":"6","type":"t_mapping(t_uint256,t_mapping(t_uint256,t_struct(Deadlines)7063_storage))"},{"astId":7081,"contract":"contracts/HorizonStaff.sol:HorizonStaff","label":"staff","offset":0,"slot":"7","type":"t_mapping(t_address,t_struct(AdminInfo)7042_storage)"},{"astId":7084,"contract":"contracts/HorizonStaff.sol:HorizonStaff","label":"stablecoin","offset":0,"slot":"8","type":"t_contract(IERC20)827"}],"types":{"t_address":{"encoding":"inplace","label":"address","numberOfBytes":"20"},"t_bool":{"encoding":"inplace","label":"bool","numberOfBytes":"1"},"t_contract(IERC20)827":{"encoding":"inplace","label":"contract IERC20","numberOfBytes":"20"},"t_mapping(t_address,t_struct(AdminInfo)7042_storage)":{"encoding":"mapping","key":"t_address","label":"mapping(address => struct HorizonStaff.AdminInfo)","numberOfBytes":"32","value":"t_struct(AdminInfo)7042_storage"},"t_mapping(t_contract(IERC20)827,t_struct(TokenInfo)7050_storage)":{"encoding":"mapping","key":"t_contract(IERC20)827","label":"mapping(contract IERC20 => struct HorizonStaff.TokenInfo)","numberOfBytes":"32","value":"t_struct(TokenInfo)7050_storage"},"t_mapping(t_uint256,t_mapping(t_uint256,t_struct(Deadlines)7063_storage))":{"encoding":"mapping","key":"t_uint256","label":"mapping(uint256 => mapping(uint256 => struct HorizonStaff.Deadlines))","numberOfBytes":"32","value":"t_mapping(t_uint256,t_struct(Deadlines)7063_storage)"},"t_mapping(t_uint256,t_struct(Deadlines)7063_storage)":{"encoding":"mapping","key":"t_uint256","label":"mapping(uint256 => struct HorizonStaff.Deadlines)","numberOfBytes":"32","value":"t_struct(Deadlines)7063_storage"},"t_string_storage":{"encoding":"bytes","label":"string","numberOfBytes":"32"},"t_struct(AdminInfo)7042_storage":{"encoding":"inplace","label":"struct HorizonStaff.AdminInfo","members":[{"astId":7039,"contract":"contracts/HorizonStaff.sol:HorizonStaff","label":"wallet","offset":0,"slot":"0","type":"t_address"},{"astId":7041,"contract":"contracts/HorizonStaff.sol:HorizonStaff","label":"isAdmin","offset":20,"slot":"0","type":"t_bool"}],"numberOfBytes":"32"},"t_struct(Deadlines)7063_storage":{"encoding":"inplace","label":"struct HorizonStaff.Deadlines","members":[{"astId":7052,"contract":"contracts/HorizonStaff.sol:HorizonStaff","label":"installmentNumber","offset":0,"slot":"0","type":"t_uint256"},{"astId":7054,"contract":"contracts/HorizonStaff.sol:HorizonStaff","label":"participants","offset":0,"slot":"1","type":"t_uint256"},{"astId":7056,"contract":"contracts/HorizonStaff.sol:HorizonStaff","label":"dateOfPayment","offset":0,"slot":"2","type":"t_uint256"},{"astId":7058,"contract":"contracts/HorizonStaff.sol:HorizonStaff","label":"dateOfDraw","offset":0,"slot":"3","type":"t_uint256"},{"astId":7060,"contract":"contracts/HorizonStaff.sol:HorizonStaff","label":"baseInterestRate","offset":0,"slot":"4","type":"t_uint256"},{"astId":7062,"contract":"contracts/HorizonStaff.sol:HorizonStaff","label":"dailyInterestRate","offset":0,"slot":"5","type":"t_uint256"}],"numberOfBytes":"192"},"t_struct(TokenInfo)7050_storage":{"encoding":"inplace","label":"struct HorizonStaff.TokenInfo","members":[{"astId":7044,"contract":"contracts/HorizonStaff.sol:HorizonStaff","label":"tokenSymbol","offset":0,"slot":"0","type":"t_string_storage"},{"astId":7047,"contract":"contracts/HorizonStaff.sol:HorizonStaff","label":"stablecoin","offset":0,"slot":"1","type":"t_contract(IERC20)827"},{"astId":7049,"contract":"contracts/HorizonStaff.sol:HorizonStaff","label":"isStable","offset":20,"slot":"1","type":"t_bool"}],"numberOfBytes":"64"},"t_uint256":{"encoding":"inplace","label":"uint256","numberOfBytes":"32"}}},"userdoc":{"kind":"user","methods":{},"version":1}}}}