{"contracts/HorizonReceipt.sol":{"HorizonReceipt":{"abi":[{"inputs":[],"stateMutability":"nonpayable","type":"constructor"},{"inputs":[{"internalType":"address","name":"sender","type":"address"},{"internalType":"uint256","name":"tokenId","type":"uint256"},{"internalType":"address","name":"owner","type":"address"}],"name":"ERC721IncorrectOwner","type":"error"},{"inputs":[{"internalType":"address","name":"operator","type":"address"},{"internalType":"uint256","name":"tokenId","type":"uint256"}],"name":"ERC721InsufficientApproval","type":"error"},{"inputs":[{"internalType":"address","name":"approver","type":"address"}],"name":"ERC721InvalidApprover","type":"error"},{"inputs":[{"internalType":"address","name":"operator","type":"address"}],"name":"ERC721InvalidOperator","type":"error"},{"inputs":[{"internalType":"address","name":"owner","type":"address"}],"name":"ERC721InvalidOwner","type":"error"},{"inputs":[{"internalType":"address","name":"receiver","type":"address"}],"name":"ERC721InvalidReceiver","type":"error"},{"inputs":[{"internalType":"address","name":"sender","type":"address"}],"name":"ERC721InvalidSender","type":"error"},{"inputs":[{"internalType":"uint256","name":"tokenId","type":"uint256"}],"name":"ERC721NonexistentToken","type":"error"},{"anonymous":false,"inputs":[{"indexed":true,"internalType":"address","name":"owner","type":"address"},{"indexed":true,"internalType":"address","name":"approved","type":"address"},{"indexed":true,"internalType":"uint256","name":"tokenId","type":"uint256"}],"name":"Approval","type":"event"},{"anonymous":false,"inputs":[{"indexed":true,"internalType":"address","name":"owner","type":"address"},{"indexed":true,"internalType":"address","name":"operator","type":"address"},{"indexed":false,"internalType":"bool","name":"approved","type":"bool"}],"name":"ApprovalForAll","type":"event"},{"anonymous":false,"inputs":[{"indexed":false,"internalType":"uint256","name":"_fromTokenId","type":"uint256"},{"indexed":false,"internalType":"uint256","name":"_toTokenId","type":"uint256"}],"name":"BatchMetadataUpdate","type":"event"},{"anonymous":false,"inputs":[{"indexed":false,"internalType":"uint256","name":"_tokenId","type":"uint256"}],"name":"MetadataUpdate","type":"event"},{"anonymous":false,"inputs":[{"indexed":true,"internalType":"address","name":"from","type":"address"},{"indexed":true,"internalType":"address","name":"to","type":"address"},{"indexed":true,"internalType":"uint256","name":"tokenId","type":"uint256"}],"name":"Transfer","type":"event"},{"inputs":[{"internalType":"address","name":"to","type":"address"},{"internalType":"uint256","name":"tokenId","type":"uint256"}],"name":"approve","outputs":[],"stateMutability":"nonpayable","type":"function"},{"inputs":[{"internalType":"address","name":"owner","type":"address"}],"name":"balanceOf","outputs":[{"internalType":"uint256","name":"","type":"uint256"}],"stateMutability":"view","type":"function"},{"inputs":[{"internalType":"uint256","name":"tokenId","type":"uint256"}],"name":"burn","outputs":[],"stateMutability":"nonpayable","type":"function"},{"inputs":[{"internalType":"uint256","name":"tokenId","type":"uint256"}],"name":"getApproved","outputs":[{"internalType":"address","name":"","type":"address"}],"stateMutability":"view","type":"function"},{"inputs":[{"internalType":"address","name":"owner","type":"address"},{"internalType":"address","name":"operator","type":"address"}],"name":"isApprovedForAll","outputs":[{"internalType":"bool","name":"","type":"bool"}],"stateMutability":"view","type":"function"},{"inputs":[],"name":"name","outputs":[{"internalType":"string","name":"","type":"string"}],"stateMutability":"view","type":"function"},{"inputs":[{"internalType":"uint256","name":"tokenId","type":"uint256"}],"name":"ownerOf","outputs":[{"internalType":"address","name":"","type":"address"}],"stateMutability":"view","type":"function"},{"inputs":[{"internalType":"address","name":"to","type":"address"},{"internalType":"string","name":"uri","type":"string"}],"name":"safeMint","outputs":[{"internalType":"uint256","name":"","type":"uint256"}],"stateMutability":"nonpayable","type":"function"},{"inputs":[{"internalType":"address","name":"from","type":"address"},{"internalType":"address","name":"to","type":"address"},{"internalType":"uint256","name":"tokenId","type":"uint256"}],"name":"safeTransferFrom","outputs":[],"stateMutability":"nonpayable","type":"function"},{"inputs":[{"internalType":"address","name":"from","type":"address"},{"internalType":"address","name":"to","type":"address"},{"internalType":"uint256","name":"tokenId","type":"uint256"},{"internalType":"bytes","name":"data","type":"bytes"}],"name":"safeTransferFrom","outputs":[],"stateMutability":"nonpayable","type":"function"},{"inputs":[{"internalType":"address","name":"operator","type":"address"},{"internalType":"bool","name":"approved","type":"bool"}],"name":"setApprovalForAll","outputs":[],"stateMutability":"nonpayable","type":"function"},{"inputs":[{"internalType":"bytes4","name":"interfaceId","type":"bytes4"}],"name":"supportsInterface","outputs":[{"internalType":"bool","name":"","type":"bool"}],"stateMutability":"view","type":"function"},{"inputs":[],"name":"symbol","outputs":[{"internalType":"string","name":"","type":"string"}],"stateMutability":"view","type":"function"},{"inputs":[{"internalType":"uint256","name":"tokenId","type":"uint256"}],"name":"tokenURI","outputs":[{"internalType":"string","name":"","type":"string"}],"stateMutability":"view","type":"function"},{"inputs":[{"internalType":"address","name":"from","type":"address"},{"internalType":"address","name":"to","type":"address"},{"internalType":"uint256","name":"tokenId","type":"uint256"}],"name":"transferFrom","outputs":[],"stateMutability":"nonpayable","type":"function"}],"devdoc":{"errors":{"ERC721IncorrectOwner(address,uint256,address)":[{"details":"Indicates an error related to the ownership over a particular token. Used in transfers.","params":{"owner":"Address of the current owner of a token.","sender":"Address whose tokens are being transferred.","tokenId":"Identifier number of a token."}}],"ERC721InsufficientApproval(address,uint256)":[{"details":"Indicates a failure with the `operator`’s approval. Used in transfers.","params":{"operator":"Address that may be allowed to operate on tokens without being their owner.","tokenId":"Identifier number of a token."}}],"ERC721InvalidApprover(address)":[{"details":"Indicates a failure with the `approver` of a token to be approved. Used in approvals.","params":{"approver":"Address initiating an approval operation."}}],"ERC721InvalidOperator(address)":[{"details":"Indicates a failure with the `operator` to be approved. Used in approvals.","params":{"operator":"Address that may be allowed to operate on tokens without being their owner."}}],"ERC721InvalidOwner(address)":[{"details":"Indicates that an address can't be an owner. For example, `address(0)` is a forbidden owner in EIP-20. Used in balance queries.","params":{"owner":"Address of the current owner of a token."}}],"ERC721InvalidReceiver(address)":[{"details":"Indicates a failure with the token `receiver`. Used in transfers.","params":{"receiver":"Address to which tokens are being transferred."}}],"ERC721InvalidSender(address)":[{"details":"Indicates a failure with the token `sender`. Used in transfers.","params":{"sender":"Address whose tokens are being transferred."}}],"ERC721NonexistentToken(uint256)":[{"details":"Indicates a `tokenId` whose `owner` is the zero address.","params":{"tokenId":"Identifier number of a token."}}]},"events":{"Approval(address,address,uint256)":{"details":"Emitted when `owner` enables `approved` to manage the `tokenId` token."},"ApprovalForAll(address,address,bool)":{"details":"Emitted when `owner` enables or disables (`approved`) `operator` to manage all of its assets."},"BatchMetadataUpdate(uint256,uint256)":{"details":"This event emits when the metadata of a range of tokens is changed. So that the third-party platforms such as NFT market could timely update the images and related attributes of the NFTs."},"MetadataUpdate(uint256)":{"details":"This event emits when the metadata of a token is changed. So that the third-party platforms such as NFT market could timely update the images and related attributes of the NFT."},"Transfer(address,address,uint256)":{"details":"Emitted when `tokenId` token is transferred from `from` to `to`."}},"kind":"dev","methods":{"approve(address,uint256)":{"details":"See {IERC721-approve}."},"balanceOf(address)":{"details":"See {IERC721-balanceOf}."},"burn(uint256)":{"details":"Burns `tokenId`. See {ERC721-_burn}. Requirements: - The caller must own `tokenId` or be an approved operator."},"getApproved(uint256)":{"details":"See {IERC721-getApproved}."},"isApprovedForAll(address,address)":{"details":"See {IERC721-isApprovedForAll}."},"name()":{"details":"See {IERC721Metadata-name}."},"ownerOf(uint256)":{"details":"See {IERC721-ownerOf}."},"safeTransferFrom(address,address,uint256)":{"details":"See {IERC721-safeTransferFrom}."},"safeTransferFrom(address,address,uint256,bytes)":{"details":"See {IERC721-safeTransferFrom}."},"setApprovalForAll(address,bool)":{"details":"See {IERC721-setApprovalForAll}."},"symbol()":{"details":"See {IERC721Metadata-symbol}."},"transferFrom(address,address,uint256)":{"details":"See {IERC721-transferFrom}."}},"version":1},"evm":{"bytecode":{"linkReferences":{},"object":"60803462000311576001600160401b039060409080820183811182821017620002fb578252600e81526020926d121bdc9a5e9bdb949958d95a5c1d60921b84830152825183810181811083821117620002fb5784526003815262242d2960e91b85820152825190828211620002fb5760008054926001958685811c95168015620002f0575b89861014620002dc578190601f9586811162000289575b5089908683116001146200022557849262000219575b5050600019600383901b1c191690861b1781555b8151938411620002055784548581811c91168015620001fa575b88821014620001e6578381116200019e575b508692841160011462000138578394959650926200012c575b5050600019600383901b1c191690821b1790555b516111809081620003178239f35b0151905038806200010a565b9190601f1984169685845280842093905b8882106200018657505083859697106200016c575b505050811b0190556200011e565b015160001960f88460031b161c191690553880806200015e565b80878596829496860151815501950193019062000149565b8582528782208480870160051c8201928a8810620001dc575b0160051c019086905b828110620001d0575050620000f1565b838155018690620001c0565b92508192620001b7565b634e487b7160e01b82526022600452602482fd5b90607f1690620000df565b634e487b7160e01b81526041600452602490fd5b015190503880620000b1565b8480528a85208994509190601f198416865b8d82821062000272575050841162000258575b505050811b018155620000c5565b015160001960f88460031b161c191690553880806200024a565b8385015186558c9790950194938401930162000237565b9091508380528984208680850160051c8201928c8610620002d2575b918a91869594930160051c01915b828110620002c35750506200009b565b8681558594508a9101620002b3565b92508192620002a5565b634e487b7160e01b83526022600452602483fd5b94607f169462000084565b634e487b7160e01b600052604160045260246000fd5b600080fdfe60808060405260048036101561001457600080fd5b60003560e01c91826301ffc9a714610c225750816306fdde0314610b7f578163081812fc14610b44578163095ea7b314610a5757816323b872dd14610a4057816342842e0e14610a1257816342966c68146108b85781636352211e1461088957816370a082311461082f57816395d89b4114610750578163a22cb465146106ab578163b88d4fde14610640578163c87b56dd1461054f578163d204c45e14610121575063e985e9c5146100c657600080fd5b3461011c57604036600319011261011c576100df610ce6565b6100e7610cfc565b9060018060a01b03809116600052600560205260406000209116600052602052602060ff604060002054166040519015158152f35b600080fd5b3461011c57604036600319011261011c5761013a610ce6565b67ffffffffffffffff919060243583811161011c573660238201121561011c5761016d9036906024818601359101610db7565b9160075491600019831461053a576001830160075560405161018e81610d47565b600081526001600160a01b03821615610522576000848152600260205260409020546001600160a01b0316806104eb575b6001600160a01b0383166000818152600360209081526040808320805460010190558883526002909152812080546001600160a01b0319168317905586919083907fddf252ad1be2c89b69c2b068fc378daa952ba7f163c4a11628f55a4df523b3ef9080a46104d357813b61038d575b5050816000526006602052604060002090835194851161037857506102548154610dee565b93601f8511610330575b602094508493601f82116001146102cd5793819293946000926102c2575b50508160011b916000199060031b1c19161790555b7ff8e1a15aba9398e019f0b49df1a4fde98ee17ae345cb5f6b5e2c27f5033e8ce782604051838152a1604051908152f35b01519050858061027c565b601f1982169483600052866000209160005b878110610319575083600195969710610300575b505050811b019055610291565b015160001960f88460031b161c191690558580806102f3565b9192886001819286850151815501940192016102df565b816000526020600020601f820160051c8101956020831061036e575b601f0160051c01945b858110610362575061025e565b60008155600101610355565b909550859061034c565b604190634e487b7160e01b6000525260246000fd5b604095939194929551602081806103cc630a85bd0160e11b95868352338c84015260006024840152876044840152608060648401526084830190610ca6565b038160006001600160a01b038b165af16000918161048e575b5061044d5786863d15610445573d916103fd83610d9b565b9261040b6040519485610d79565b83523d6000602085013e5b8251928361043e57604051633250574960e11b81526001600160a01b03841681840152602490fd5b8390602001fd5b606091610416565b9395929491936001600160e01b0319160361046a5750848061022f565b604051633250574960e11b81526001600160a01b0390911691810191909152602490fd5b9091506020813d6020116104cb575b816104aa60209383610d79565b8101031261011c57516001600160e01b03198116810361011c5790886103e5565b3d915061049d565b6040516339e3563760e11b8152600081850152602490fd5b600085815260046020526040902080546001600160a01b0319169055806000526003602052604060002060001981540190556101bf565b604051633250574960e11b8152600081850152602490fd5b601182634e487b7160e01b6000525260246000fd5b3461011c576020908160031936011261011c573561056c81610fc7565b506000526006815260406000209060405191826000825461058c81610dee565b9384845260019186838216918260001461061e5750506001146105df575b50506105b892500383610d79565b60006040516105c681610d47565b526105db604051928284938452830190610ca6565b0390f35b85925060005281600020906000915b8583106106065750506105b8935082010185806105aa565b805483890185015287945086939092019181016105ee565b92509350506105b894915060ff191682840152151560051b82010185806105aa565b3461011c57608036600319011261011c57610659610ce6565b610661610cfc565b6044359060643567ffffffffffffffff811161011c573660238201121561011c576106a99481602461069893369301359101610db7565b926106a4838383610e28565b611002565b005b3461011c57604036600319011261011c576106c4610ce6565b6024359081151580920361011c576001600160a01b03169182156107385750336000526005602052604060002082600052602052604060002060ff1981541660ff83161790556040519081527f17307eab39ab6107e8899845ad3d59bd9653f200f220920489ca2b5937696c3160203392a3005b604051630b61174360e31b8152908101839052602490fd5b3461011c57600036600319011261011c576040516000600180549061077482610dee565b8085529181811690811561080857506001146107af575b6105db8461079b81860382610d79565b604051918291602083526020830190610ca6565b600081815292507fb10e2d527612073b26eecdfd717e6a320cf44b4afac2b0732d9fcbe2b7fa0cf65b8284106107f057505050810160200161079b8261078b565b805460208587018101919091529093019281016107d8565b60ff191660208087019190915292151560051b8501909201925061079b915083905061078b565b3461011c57602036600319011261011c576001600160a01b03610850610ce6565b16908115610871575060005260036020526020604060002054604051908152f35b6024906000604051916322718ad960e21b8352820152fd5b3461011c57602036600319011261011c576108a660209135610fc7565b6040516001600160a01b039091168152f35b3461011c5760208060031936011261011c578135600081815260028352604090205490926001600160a01b0391821691331515908161096f575b50505060026000928261093c575b848452526040822080546001600160a01b03191690557fddf252ad1be2c89b69c2b068fc378daa952ba7f163c4a11628f55a4df523b3ef8280a4005b600085815260046020526040902080546001600160a01b0319169055828452600381526040842084198154019055610900565b816109bb575b50156109825780806108f2565b915061099e5760249160405191637e27328960e01b8352820152fd5b6044916040519163177e802f60e01b835233908301526024820152fd5b338414915081156109ee575b81156109d5575b5085610975565b90508460005281845233906040600020541614856109ce565b90508260005260058452604060002033600052845260ff60406000205416906109c7565b3461011c576106a9610a2336610d12565b9060405192610a3184610d47565b600084526106a4838383610e28565b3461011c576106a9610a5136610d12565b91610e28565b3461011c57604036600319011261011c57610a70610ce6565b90602435610a7d81610fc7565b33151580610b31575b80610b04575b610aed576001600160a01b039384169382918591167f8c5be1e5ebec7d5bd14f71427d1e84f3dd0314c0f7b2291e5b200ac8c7c3b925600080a46000526020526040600020906bffffffffffffffffffffffff60a01b825416179055600080f35b60405163a9fbf51f60e01b81523381850152602490fd5b5060018060a01b038116600052600560205260406000203360005260205260ff6040600020541615610a8c565b506001600160a01b038116331415610a86565b3461011c57602036600319011261011c578035610b6081610fc7565b50600052602052602060018060a01b0360406000205416604051908152f35b3461011c57600036600319011261011c5760405160008054610ba081610dee565b808452906001908181169081156108085750600114610bc9576105db8461079b81860382610d79565b600080805292507f290decd9548b62a8d60345a988386fc84ba6bc95484008f6362f93160ef3e5635b828410610c0a57505050810160200161079b8261078b565b80546020858701810191909152909301928101610bf2565b903461011c57602036600319011261011c57359063ffffffff60e01b821680920361011c57602091632483248360e11b8114908115610c63575b5015158152f35b6380ac58cd60e01b811491508115610c95575b8115610c84575b5083610c5c565b6301ffc9a760e01b14905083610c7d565b635b5e139f60e01b81149150610c76565b919082519283825260005b848110610cd2575050826000602080949584010152601f8019910116010190565b602081830181015184830182015201610cb1565b600435906001600160a01b038216820361011c57565b602435906001600160a01b038216820361011c57565b606090600319011261011c576001600160a01b0390600435828116810361011c5791602435908116810361011c579060443590565b6020810190811067ffffffffffffffff821117610d6357604052565b634e487b7160e01b600052604160045260246000fd5b90601f8019910116810190811067ffffffffffffffff821117610d6357604052565b67ffffffffffffffff8111610d6357601f01601f191660200190565b929192610dc382610d9b565b91610dd16040519384610d79565b82948184528183011161011c578281602093846000960137010152565b90600182811c92168015610e1e575b6020831014610e0857565b634e487b7160e01b600052602260045260246000fd5b91607f1691610dfd565b6001600160a01b039182169290918315610fae57600092828452826020956002875260409684888820541696879133151580610f18575b509060027fddf252ad1be2c89b69c2b068fc378daa952ba7f163c4a11628f55a4df523b3ef9284610ee5575b858352600381528b8320805460010190558683525289812080546001600160a01b0319168517905580a41692838303610ec45750505050565b6064945051926364283d7b60e01b8452600484015260248301526044820152fd5b600087815260046020526040902080546001600160a01b0319169055848352600381528b83208054600019019055610e8b565b91939450915080610f6d575b15610f3457859291879138610e5f565b878688610f51576024915190637e27328960e01b82526004820152fd5b604491519063177e802f60e01b82523360048301526024820152fd5b503387148015610f92575b80610f245750858252600481523385898420541614610f24565b5086825260058152878220338352815260ff8883205416610f78565b604051633250574960e11b815260006004820152602490fd5b6000818152600260205260409020546001600160a01b0316908115610fea575090565b60249060405190637e27328960e01b82526004820152fd5b813b61100f575b50505050565b604051630a85bd0160e11b8082523360048301526001600160a01b0392831660248301526044820194909452608060648201526020959290911693909290839061105d906084830190610ca6565b039285816000958187895af1849181611106575b506110d1575050503d6000146110c9573d61108b81610d9b565b906110996040519283610d79565b81528091843d92013e5b805192836110c457604051633250574960e11b815260048101849052602490fd5b019050fd5b5060606110a3565b919450915063ffffffff60e01b16036110ee575038808080611009565b60249060405190633250574960e11b82526004820152fd5b9091508681813d8311611143575b61111e8183610d79565b8101031261113f57516001600160e01b03198116810361113f579038611071565b8480fd5b503d61111456fea2646970667358221220b89fd5179a19270bcdf17cb957f0c0c9bd5c4221f0f5431a6c5fef1dedcf0d6964736f6c63430008140033","opcodes":"PUSH1 0x80 CALLVALUE PUSH3 0x311 JUMPI PUSH1 0x1 PUSH1 0x1 PUSH1 0x40 SHL SUB SWAP1 PUSH1 0x40 SWAP1 DUP1 DUP3 ADD DUP4 DUP2 GT DUP3 DUP3 LT OR PUSH3 0x2FB JUMPI DUP3 MSTORE PUSH1 0xE DUP2 MSTORE PUSH1 0x20 SWAP3 PUSH14 0x121BDC9A5E9BDB949958D95A5C1D PUSH1 0x92 SHL DUP5 DUP4 ADD MSTORE DUP3 MLOAD DUP4 DUP2 ADD DUP2 DUP2 LT DUP4 DUP3 GT OR PUSH3 0x2FB JUMPI DUP5 MSTORE PUSH1 0x3 DUP2 MSTORE PUSH3 0x242D29 PUSH1 0xE9 SHL DUP6 DUP3 ADD MSTORE DUP3 MLOAD SWAP1 DUP3 DUP3 GT PUSH3 0x2FB JUMPI PUSH1 0x0 DUP1 SLOAD SWAP3 PUSH1 0x1 SWAP6 DUP7 DUP6 DUP2 SHR SWAP6 AND DUP1 ISZERO PUSH3 0x2F0 JUMPI JUMPDEST DUP10 DUP7 LT EQ PUSH3 0x2DC JUMPI DUP2 SWAP1 PUSH1 0x1F SWAP6 DUP7 DUP2 GT PUSH3 0x289 JUMPI JUMPDEST POP DUP10 SWAP1 DUP7 DUP4 GT PUSH1 0x1 EQ PUSH3 0x225 JUMPI DUP5 SWAP3 PUSH3 0x219 JUMPI JUMPDEST POP POP PUSH1 0x0 NOT PUSH1 0x3 DUP4 SWAP1 SHL SHR NOT AND SWAP1 DUP7 SHL OR DUP2 SSTORE JUMPDEST DUP2 MLOAD SWAP4 DUP5 GT PUSH3 0x205 JUMPI DUP5 SLOAD DUP6 DUP2 DUP2 SHR SWAP2 AND DUP1 ISZERO PUSH3 0x1FA JUMPI JUMPDEST DUP9 DUP3 LT EQ PUSH3 0x1E6 JUMPI DUP4 DUP2 GT PUSH3 0x19E JUMPI JUMPDEST POP DUP7 SWAP3 DUP5 GT PUSH1 0x1 EQ PUSH3 0x138 JUMPI DUP4 SWAP5 SWAP6 SWAP7 POP SWAP3 PUSH3 0x12C JUMPI JUMPDEST POP POP PUSH1 0x0 NOT PUSH1 0x3 DUP4 SWAP1 SHL SHR NOT AND SWAP1 DUP3 SHL OR SWAP1 SSTORE JUMPDEST MLOAD PUSH2 0x1180 SWAP1 DUP2 PUSH3 0x317 DUP3 CODECOPY RETURN JUMPDEST ADD MLOAD SWAP1 POP CODESIZE DUP1 PUSH3 0x10A JUMP JUMPDEST SWAP2 SWAP1 PUSH1 0x1F NOT DUP5 AND SWAP7 DUP6 DUP5 MSTORE DUP1 DUP5 KECCAK256 SWAP4 SWAP1 JUMPDEST DUP9 DUP3 LT PUSH3 0x186 JUMPI POP POP DUP4 DUP6 SWAP7 SWAP8 LT PUSH3 0x16C JUMPI JUMPDEST POP POP POP DUP2 SHL ADD SWAP1 SSTORE PUSH3 0x11E JUMP JUMPDEST ADD MLOAD PUSH1 0x0 NOT PUSH1 0xF8 DUP5 PUSH1 0x3 SHL AND SHR NOT AND SWAP1 SSTORE CODESIZE DUP1 DUP1 PUSH3 0x15E JUMP JUMPDEST DUP1 DUP8 DUP6 SWAP7 DUP3 SWAP5 SWAP7 DUP7 ADD MLOAD DUP2 SSTORE ADD SWAP6 ADD SWAP4 ADD SWAP1 PUSH3 0x149 JUMP JUMPDEST DUP6 DUP3 MSTORE DUP8 DUP3 KECCAK256 DUP5 DUP1 DUP8 ADD PUSH1 0x5 SHR DUP3 ADD SWAP3 DUP11 DUP9 LT PUSH3 0x1DC JUMPI JUMPDEST ADD PUSH1 0x5 SHR ADD SWAP1 DUP7 SWAP1 JUMPDEST DUP3 DUP2 LT PUSH3 0x1D0 JUMPI POP POP PUSH3 0xF1 JUMP JUMPDEST DUP4 DUP2 SSTORE ADD DUP7 SWAP1 PUSH3 0x1C0 JUMP JUMPDEST SWAP3 POP DUP2 SWAP3 PUSH3 0x1B7 JUMP JUMPDEST PUSH4 0x4E487B71 PUSH1 0xE0 SHL DUP3 MSTORE PUSH1 0x22 PUSH1 0x4 MSTORE PUSH1 0x24 DUP3 REVERT JUMPDEST SWAP1 PUSH1 0x7F AND SWAP1 PUSH3 0xDF JUMP JUMPDEST PUSH4 0x4E487B71 PUSH1 0xE0 SHL DUP2 MSTORE PUSH1 0x41 PUSH1 0x4 MSTORE PUSH1 0x24 SWAP1 REVERT JUMPDEST ADD MLOAD SWAP1 POP CODESIZE DUP1 PUSH3 0xB1 JUMP JUMPDEST DUP5 DUP1 MSTORE DUP11 DUP6 KECCAK256 DUP10 SWAP5 POP SWAP2 SWAP1 PUSH1 0x1F NOT DUP5 AND DUP7 JUMPDEST DUP14 DUP3 DUP3 LT PUSH3 0x272 JUMPI POP POP DUP5 GT PUSH3 0x258 JUMPI JUMPDEST POP POP POP DUP2 SHL ADD DUP2 SSTORE PUSH3 0xC5 JUMP JUMPDEST ADD MLOAD PUSH1 0x0 NOT PUSH1 0xF8 DUP5 PUSH1 0x3 SHL AND SHR NOT AND SWAP1 SSTORE CODESIZE DUP1 DUP1 PUSH3 0x24A JUMP JUMPDEST DUP4 DUP6 ADD MLOAD DUP7 SSTORE DUP13 SWAP8 SWAP1 SWAP6 ADD SWAP5 SWAP4 DUP5 ADD SWAP4 ADD PUSH3 0x237 JUMP JUMPDEST SWAP1 SWAP2 POP DUP4 DUP1 MSTORE DUP10 DUP5 KECCAK256 DUP7 DUP1 DUP6 ADD PUSH1 0x5 SHR DUP3 ADD SWAP3 DUP13 DUP7 LT PUSH3 0x2D2 JUMPI JUMPDEST SWAP2 DUP11 SWAP2 DUP7 SWAP6 SWAP5 SWAP4 ADD PUSH1 0x5 SHR ADD SWAP2 JUMPDEST DUP3 DUP2 LT PUSH3 0x2C3 JUMPI POP POP PUSH3 0x9B JUMP JUMPDEST DUP7 DUP2 SSTORE DUP6 SWAP5 POP DUP11 SWAP2 ADD PUSH3 0x2B3 JUMP JUMPDEST SWAP3 POP DUP2 SWAP3 PUSH3 0x2A5 JUMP JUMPDEST PUSH4 0x4E487B71 PUSH1 0xE0 SHL DUP4 MSTORE PUSH1 0x22 PUSH1 0x4 MSTORE PUSH1 0x24 DUP4 REVERT JUMPDEST SWAP5 PUSH1 0x7F AND SWAP5 PUSH3 0x84 JUMP JUMPDEST PUSH4 0x4E487B71 PUSH1 0xE0 SHL PUSH1 0x0 MSTORE PUSH1 0x41 PUSH1 0x4 MSTORE PUSH1 0x24 PUSH1 0x0 REVERT JUMPDEST PUSH1 0x0 DUP1 REVERT INVALID PUSH1 0x80 DUP1 PUSH1 0x40 MSTORE PUSH1 0x4 DUP1 CALLDATASIZE LT ISZERO PUSH2 0x14 JUMPI PUSH1 0x0 DUP1 REVERT JUMPDEST PUSH1 0x0 CALLDATALOAD PUSH1 0xE0 SHR SWAP2 DUP3 PUSH4 0x1FFC9A7 EQ PUSH2 0xC22 JUMPI POP DUP2 PUSH4 0x6FDDE03 EQ PUSH2 0xB7F JUMPI DUP2 PUSH4 0x81812FC EQ PUSH2 0xB44 JUMPI DUP2 PUSH4 0x95EA7B3 EQ PUSH2 0xA57 JUMPI DUP2 PUSH4 0x23B872DD EQ PUSH2 0xA40 JUMPI DUP2 PUSH4 0x42842E0E EQ PUSH2 0xA12 JUMPI DUP2 PUSH4 0x42966C68 EQ PUSH2 0x8B8 JUMPI DUP2 PUSH4 0x6352211E EQ PUSH2 0x889 JUMPI DUP2 PUSH4 0x70A08231 EQ PUSH2 0x82F JUMPI DUP2 PUSH4 0x95D89B41 EQ PUSH2 0x750 JUMPI DUP2 PUSH4 0xA22CB465 EQ PUSH2 0x6AB JUMPI DUP2 PUSH4 0xB88D4FDE EQ PUSH2 0x640 JUMPI DUP2 PUSH4 0xC87B56DD EQ PUSH2 0x54F JUMPI DUP2 PUSH4 0xD204C45E EQ PUSH2 0x121 JUMPI POP PUSH4 0xE985E9C5 EQ PUSH2 0xC6 JUMPI PUSH1 0x0 DUP1 REVERT JUMPDEST CALLVALUE PUSH2 0x11C JUMPI PUSH1 0x40 CALLDATASIZE PUSH1 0x3 NOT ADD SLT PUSH2 0x11C JUMPI PUSH2 0xDF PUSH2 0xCE6 JUMP JUMPDEST PUSH2 0xE7 PUSH2 0xCFC JUMP JUMPDEST SWAP1 PUSH1 0x1 DUP1 PUSH1 0xA0 SHL SUB DUP1 SWAP2 AND PUSH1 0x0 MSTORE PUSH1 0x5 PUSH1 0x20 MSTORE PUSH1 0x40 PUSH1 0x0 KECCAK256 SWAP2 AND PUSH1 0x0 MSTORE PUSH1 0x20 MSTORE PUSH1 0x20 PUSH1 0xFF PUSH1 0x40 PUSH1 0x0 KECCAK256 SLOAD AND PUSH1 0x40 MLOAD SWAP1 ISZERO ISZERO DUP2 MSTORE RETURN JUMPDEST PUSH1 0x0 DUP1 REVERT JUMPDEST CALLVALUE PUSH2 0x11C JUMPI PUSH1 0x40 CALLDATASIZE PUSH1 0x3 NOT ADD SLT PUSH2 0x11C JUMPI PUSH2 0x13A PUSH2 0xCE6 JUMP JUMPDEST PUSH8 0xFFFFFFFFFFFFFFFF SWAP2 SWAP1 PUSH1 0x24 CALLDATALOAD DUP4 DUP2 GT PUSH2 0x11C JUMPI CALLDATASIZE PUSH1 0x23 DUP3 ADD SLT ISZERO PUSH2 0x11C JUMPI PUSH2 0x16D SWAP1 CALLDATASIZE SWAP1 PUSH1 0x24 DUP2 DUP7 ADD CALLDATALOAD SWAP2 ADD PUSH2 0xDB7 JUMP JUMPDEST SWAP2 PUSH1 0x7 SLOAD SWAP2 PUSH1 0x0 NOT DUP4 EQ PUSH2 0x53A JUMPI PUSH1 0x1 DUP4 ADD PUSH1 0x7 SSTORE PUSH1 0x40 MLOAD PUSH2 0x18E DUP2 PUSH2 0xD47 JUMP JUMPDEST PUSH1 0x0 DUP2 MSTORE PUSH1 0x1 PUSH1 0x1 PUSH1 0xA0 SHL SUB DUP3 AND ISZERO PUSH2 0x522 JUMPI PUSH1 0x0 DUP5 DUP2 MSTORE PUSH1 0x2 PUSH1 0x20 MSTORE PUSH1 0x40 SWAP1 KECCAK256 SLOAD PUSH1 0x1 PUSH1 0x1 PUSH1 0xA0 SHL SUB AND DUP1 PUSH2 0x4EB JUMPI JUMPDEST PUSH1 0x1 PUSH1 0x1 PUSH1 0xA0 SHL SUB DUP4 AND PUSH1 0x0 DUP2 DUP2 MSTORE PUSH1 0x3 PUSH1 0x20 SWAP1 DUP2 MSTORE PUSH1 0x40 DUP1 DUP4 KECCAK256 DUP1 SLOAD PUSH1 0x1 ADD SWAP1 SSTORE DUP9 DUP4 MSTORE PUSH1 0x2 SWAP1 SWAP2 MSTORE DUP2 KECCAK256 DUP1 SLOAD PUSH1 0x1 PUSH1 0x1 PUSH1 0xA0 SHL SUB NOT AND DUP4 OR SWAP1 SSTORE DUP7 SWAP2 SWAP1 DUP4 SWAP1 PUSH32 0xDDF252AD1BE2C89B69C2B068FC378DAA952BA7F163C4A11628F55A4DF523B3EF SWAP1 DUP1 LOG4 PUSH2 0x4D3 JUMPI DUP2 EXTCODESIZE PUSH2 0x38D JUMPI JUMPDEST POP POP DUP2 PUSH1 0x0 MSTORE PUSH1 0x6 PUSH1 0x20 MSTORE PUSH1 0x40 PUSH1 0x0 KECCAK256 SWAP1 DUP4 MLOAD SWAP5 DUP6 GT PUSH2 0x378 JUMPI POP PUSH2 0x254 DUP2 SLOAD PUSH2 0xDEE JUMP JUMPDEST SWAP4 PUSH1 0x1F DUP6 GT PUSH2 0x330 JUMPI JUMPDEST PUSH1 0x20 SWAP5 POP DUP5 SWAP4 PUSH1 0x1F DUP3 GT PUSH1 0x1 EQ PUSH2 0x2CD JUMPI SWAP4 DUP2 SWAP3 SWAP4 SWAP5 PUSH1 0x0 SWAP3 PUSH2 0x2C2 JUMPI JUMPDEST POP POP DUP2 PUSH1 0x1 SHL SWAP2 PUSH1 0x0 NOT SWAP1 PUSH1 0x3 SHL SHR NOT AND OR SWAP1 SSTORE JUMPDEST PUSH32 0xF8E1A15ABA9398E019F0B49DF1A4FDE98EE17AE345CB5F6B5E2C27F5033E8CE7 DUP3 PUSH1 0x40 MLOAD DUP4 DUP2 MSTORE LOG1 PUSH1 0x40 MLOAD SWAP1 DUP2 MSTORE RETURN JUMPDEST ADD MLOAD SWAP1 POP DUP6 DUP1 PUSH2 0x27C JUMP JUMPDEST PUSH1 0x1F NOT DUP3 AND SWAP5 DUP4 PUSH1 0x0 MSTORE DUP7 PUSH1 0x0 KECCAK256 SWAP2 PUSH1 0x0 JUMPDEST DUP8 DUP2 LT PUSH2 0x319 JUMPI POP DUP4 PUSH1 0x1 SWAP6 SWAP7 SWAP8 LT PUSH2 0x300 JUMPI JUMPDEST POP POP POP DUP2 SHL ADD SWAP1 SSTORE PUSH2 0x291 JUMP JUMPDEST ADD MLOAD PUSH1 0x0 NOT PUSH1 0xF8 DUP5 PUSH1 0x3 SHL AND SHR NOT AND SWAP1 SSTORE DUP6 DUP1 DUP1 PUSH2 0x2F3 JUMP JUMPDEST SWAP2 SWAP3 DUP9 PUSH1 0x1 DUP2 SWAP3 DUP7 DUP6 ADD MLOAD DUP2 SSTORE ADD SWAP5 ADD SWAP3 ADD PUSH2 0x2DF JUMP JUMPDEST DUP2 PUSH1 0x0 MSTORE PUSH1 0x20 PUSH1 0x0 KECCAK256 PUSH1 0x1F DUP3 ADD PUSH1 0x5 SHR DUP2 ADD SWAP6 PUSH1 0x20 DUP4 LT PUSH2 0x36E JUMPI JUMPDEST PUSH1 0x1F ADD PUSH1 0x5 SHR ADD SWAP5 JUMPDEST DUP6 DUP2 LT PUSH2 0x362 JUMPI POP PUSH2 0x25E JUMP JUMPDEST PUSH1 0x0 DUP2 SSTORE PUSH1 0x1 ADD PUSH2 0x355 JUMP JUMPDEST SWAP1 SWAP6 POP DUP6 SWAP1 PUSH2 0x34C JUMP JUMPDEST PUSH1 0x41 SWAP1 PUSH4 0x4E487B71 PUSH1 0xE0 SHL PUSH1 0x0 MSTORE MSTORE PUSH1 0x24 PUSH1 0x0 REVERT JUMPDEST PUSH1 0x40 SWAP6 SWAP4 SWAP2 SWAP5 SWAP3 SWAP6 MLOAD PUSH1 0x20 DUP2 DUP1 PUSH2 0x3CC PUSH4 0xA85BD01 PUSH1 0xE1 SHL SWAP6 DUP7 DUP4 MSTORE CALLER DUP13 DUP5 ADD MSTORE PUSH1 0x0 PUSH1 0x24 DUP5 ADD MSTORE DUP8 PUSH1 0x44 DUP5 ADD MSTORE PUSH1 0x80 PUSH1 0x64 DUP5 ADD MSTORE PUSH1 0x84 DUP4 ADD SWAP1 PUSH2 0xCA6 JUMP JUMPDEST SUB DUP2 PUSH1 0x0 PUSH1 0x1 PUSH1 0x1 PUSH1 0xA0 SHL SUB DUP12 AND GAS CALL PUSH1 0x0 SWAP2 DUP2 PUSH2 0x48E JUMPI JUMPDEST POP PUSH2 0x44D JUMPI DUP7 DUP7 RETURNDATASIZE ISZERO PUSH2 0x445 JUMPI RETURNDATASIZE SWAP2 PUSH2 0x3FD DUP4 PUSH2 0xD9B JUMP JUMPDEST SWAP3 PUSH2 0x40B PUSH1 0x40 MLOAD SWAP5 DUP6 PUSH2 0xD79 JUMP JUMPDEST DUP4 MSTORE RETURNDATASIZE PUSH1 0x0 PUSH1 0x20 DUP6 ADD RETURNDATACOPY JUMPDEST DUP3 MLOAD SWAP3 DUP4 PUSH2 0x43E JUMPI PUSH1 0x40 MLOAD PUSH4 0x32505749 PUSH1 0xE1 SHL DUP2 MSTORE PUSH1 0x1 PUSH1 0x1 PUSH1 0xA0 SHL SUB DUP5 AND DUP2 DUP5 ADD MSTORE PUSH1 0x24 SWAP1 REVERT JUMPDEST DUP4 SWAP1 PUSH1 0x20 ADD REVERT JUMPDEST PUSH1 0x60 SWAP2 PUSH2 0x416 JUMP JUMPDEST SWAP4 SWAP6 SWAP3 SWAP5 SWAP2 SWAP4 PUSH1 0x1 PUSH1 0x1 PUSH1 0xE0 SHL SUB NOT AND SUB PUSH2 0x46A JUMPI POP DUP5 DUP1 PUSH2 0x22F JUMP JUMPDEST PUSH1 0x40 MLOAD PUSH4 0x32505749 PUSH1 0xE1 SHL DUP2 MSTORE PUSH1 0x1 PUSH1 0x1 PUSH1 0xA0 SHL SUB SWAP1 SWAP2 AND SWAP2 DUP2 ADD SWAP2 SWAP1 SWAP2 MSTORE PUSH1 0x24 SWAP1 REVERT JUMPDEST SWAP1 SWAP2 POP PUSH1 0x20 DUP2 RETURNDATASIZE PUSH1 0x20 GT PUSH2 0x4CB JUMPI JUMPDEST DUP2 PUSH2 0x4AA PUSH1 0x20 SWAP4 DUP4 PUSH2 0xD79 JUMP JUMPDEST DUP2 ADD SUB SLT PUSH2 0x11C JUMPI MLOAD PUSH1 0x1 PUSH1 0x1 PUSH1 0xE0 SHL SUB NOT DUP2 AND DUP2 SUB PUSH2 0x11C JUMPI SWAP1 DUP9 PUSH2 0x3E5 JUMP JUMPDEST RETURNDATASIZE SWAP2 POP PUSH2 0x49D JUMP JUMPDEST PUSH1 0x40 MLOAD PUSH4 0x39E35637 PUSH1 0xE1 SHL DUP2 MSTORE PUSH1 0x0 DUP2 DUP6 ADD MSTORE PUSH1 0x24 SWAP1 REVERT JUMPDEST PUSH1 0x0 DUP6 DUP2 MSTORE PUSH1 0x4 PUSH1 0x20 MSTORE PUSH1 0x40 SWAP1 KECCAK256 DUP1 SLOAD PUSH1 0x1 PUSH1 0x1 PUSH1 0xA0 SHL SUB NOT AND SWAP1 SSTORE DUP1 PUSH1 0x0 MSTORE PUSH1 0x3 PUSH1 0x20 MSTORE PUSH1 0x40 PUSH1 0x0 KECCAK256 PUSH1 0x0 NOT DUP2 SLOAD ADD SWAP1 SSTORE PUSH2 0x1BF JUMP JUMPDEST PUSH1 0x40 MLOAD PUSH4 0x32505749 PUSH1 0xE1 SHL DUP2 MSTORE PUSH1 0x0 DUP2 DUP6 ADD MSTORE PUSH1 0x24 SWAP1 REVERT JUMPDEST PUSH1 0x11 DUP3 PUSH4 0x4E487B71 PUSH1 0xE0 SHL PUSH1 0x0 MSTORE MSTORE PUSH1 0x24 PUSH1 0x0 REVERT JUMPDEST CALLVALUE PUSH2 0x11C JUMPI PUSH1 0x20 SWAP1 DUP2 PUSH1 0x3 NOT CALLDATASIZE ADD SLT PUSH2 0x11C JUMPI CALLDATALOAD PUSH2 0x56C DUP2 PUSH2 0xFC7 JUMP JUMPDEST POP PUSH1 0x0 MSTORE PUSH1 0x6 DUP2 MSTORE PUSH1 0x40 PUSH1 0x0 KECCAK256 SWAP1 PUSH1 0x40 MLOAD SWAP2 DUP3 PUSH1 0x0 DUP3 SLOAD PUSH2 0x58C DUP2 PUSH2 0xDEE JUMP JUMPDEST SWAP4 DUP5 DUP5 MSTORE PUSH1 0x1 SWAP2 DUP7 DUP4 DUP3 AND SWAP2 DUP3 PUSH1 0x0 EQ PUSH2 0x61E JUMPI POP POP PUSH1 0x1 EQ PUSH2 0x5DF JUMPI JUMPDEST POP POP PUSH2 0x5B8 SWAP3 POP SUB DUP4 PUSH2 0xD79 JUMP JUMPDEST PUSH1 0x0 PUSH1 0x40 MLOAD PUSH2 0x5C6 DUP2 PUSH2 0xD47 JUMP JUMPDEST MSTORE PUSH2 0x5DB PUSH1 0x40 MLOAD SWAP3 DUP3 DUP5 SWAP4 DUP5 MSTORE DUP4 ADD SWAP1 PUSH2 0xCA6 JUMP JUMPDEST SUB SWAP1 RETURN JUMPDEST DUP6 SWAP3 POP PUSH1 0x0 MSTORE DUP2 PUSH1 0x0 KECCAK256 SWAP1 PUSH1 0x0 SWAP2 JUMPDEST DUP6 DUP4 LT PUSH2 0x606 JUMPI POP POP PUSH2 0x5B8 SWAP4 POP DUP3 ADD ADD DUP6 DUP1 PUSH2 0x5AA JUMP JUMPDEST DUP1 SLOAD DUP4 DUP10 ADD DUP6 ADD MSTORE DUP8 SWAP5 POP DUP7 SWAP4 SWAP1 SWAP3 ADD SWAP2 DUP2 ADD PUSH2 0x5EE JUMP JUMPDEST SWAP3 POP SWAP4 POP POP PUSH2 0x5B8 SWAP5 SWAP2 POP PUSH1 0xFF NOT AND DUP3 DUP5 ADD MSTORE ISZERO ISZERO PUSH1 0x5 SHL DUP3 ADD ADD DUP6 DUP1 PUSH2 0x5AA JUMP JUMPDEST CALLVALUE PUSH2 0x11C JUMPI PUSH1 0x80 CALLDATASIZE PUSH1 0x3 NOT ADD SLT PUSH2 0x11C JUMPI PUSH2 0x659 PUSH2 0xCE6 JUMP JUMPDEST PUSH2 0x661 PUSH2 0xCFC JUMP JUMPDEST PUSH1 0x44 CALLDATALOAD SWAP1 PUSH1 0x64 CALLDATALOAD PUSH8 0xFFFFFFFFFFFFFFFF DUP2 GT PUSH2 0x11C JUMPI CALLDATASIZE PUSH1 0x23 DUP3 ADD SLT ISZERO PUSH2 0x11C JUMPI PUSH2 0x6A9 SWAP5 DUP2 PUSH1 0x24 PUSH2 0x698 SWAP4 CALLDATASIZE SWAP4 ADD CALLDATALOAD SWAP2 ADD PUSH2 0xDB7 JUMP JUMPDEST SWAP3 PUSH2 0x6A4 DUP4 DUP4 DUP4 PUSH2 0xE28 JUMP JUMPDEST PUSH2 0x1002 JUMP JUMPDEST STOP JUMPDEST CALLVALUE PUSH2 0x11C JUMPI PUSH1 0x40 CALLDATASIZE PUSH1 0x3 NOT ADD SLT PUSH2 0x11C JUMPI PUSH2 0x6C4 PUSH2 0xCE6 JUMP JUMPDEST PUSH1 0x24 CALLDATALOAD SWAP1 DUP2 ISZERO ISZERO DUP1 SWAP3 SUB PUSH2 0x11C JUMPI PUSH1 0x1 PUSH1 0x1 PUSH1 0xA0 SHL SUB AND SWAP2 DUP3 ISZERO PUSH2 0x738 JUMPI POP CALLER PUSH1 0x0 MSTORE PUSH1 0x5 PUSH1 0x20 MSTORE PUSH1 0x40 PUSH1 0x0 KECCAK256 DUP3 PUSH1 0x0 MSTORE PUSH1 0x20 MSTORE PUSH1 0x40 PUSH1 0x0 KECCAK256 PUSH1 0xFF NOT DUP2 SLOAD AND PUSH1 0xFF DUP4 AND OR SWAP1 SSTORE PUSH1 0x40 MLOAD SWAP1 DUP2 MSTORE PUSH32 0x17307EAB39AB6107E8899845AD3D59BD9653F200F220920489CA2B5937696C31 PUSH1 0x20 CALLER SWAP3 LOG3 STOP JUMPDEST PUSH1 0x40 MLOAD PUSH4 0xB611743 PUSH1 0xE3 SHL DUP2 MSTORE SWAP1 DUP2 ADD DUP4 SWAP1 MSTORE PUSH1 0x24 SWAP1 REVERT JUMPDEST CALLVALUE PUSH2 0x11C JUMPI PUSH1 0x0 CALLDATASIZE PUSH1 0x3 NOT ADD SLT PUSH2 0x11C JUMPI PUSH1 0x40 MLOAD PUSH1 0x0 PUSH1 0x1 DUP1 SLOAD SWAP1 PUSH2 0x774 DUP3 PUSH2 0xDEE JUMP JUMPDEST DUP1 DUP6 MSTORE SWAP2 DUP2 DUP2 AND SWAP1 DUP2 ISZERO PUSH2 0x808 JUMPI POP PUSH1 0x1 EQ PUSH2 0x7AF JUMPI JUMPDEST PUSH2 0x5DB DUP5 PUSH2 0x79B DUP2 DUP7 SUB DUP3 PUSH2 0xD79 JUMP JUMPDEST PUSH1 0x40 MLOAD SWAP2 DUP3 SWAP2 PUSH1 0x20 DUP4 MSTORE PUSH1 0x20 DUP4 ADD SWAP1 PUSH2 0xCA6 JUMP JUMPDEST PUSH1 0x0 DUP2 DUP2 MSTORE SWAP3 POP PUSH32 0xB10E2D527612073B26EECDFD717E6A320CF44B4AFAC2B0732D9FCBE2B7FA0CF6 JUMPDEST DUP3 DUP5 LT PUSH2 0x7F0 JUMPI POP POP POP DUP2 ADD PUSH1 0x20 ADD PUSH2 0x79B DUP3 PUSH2 0x78B JUMP JUMPDEST DUP1 SLOAD PUSH1 0x20 DUP6 DUP8 ADD DUP2 ADD SWAP2 SWAP1 SWAP2 MSTORE SWAP1 SWAP4 ADD SWAP3 DUP2 ADD PUSH2 0x7D8 JUMP JUMPDEST PUSH1 0xFF NOT AND PUSH1 0x20 DUP1 DUP8 ADD SWAP2 SWAP1 SWAP2 MSTORE SWAP3 ISZERO ISZERO PUSH1 0x5 SHL DUP6 ADD SWAP1 SWAP3 ADD SWAP3 POP PUSH2 0x79B SWAP2 POP DUP4 SWAP1 POP PUSH2 0x78B JUMP JUMPDEST CALLVALUE PUSH2 0x11C JUMPI PUSH1 0x20 CALLDATASIZE PUSH1 0x3 NOT ADD SLT PUSH2 0x11C JUMPI PUSH1 0x1 PUSH1 0x1 PUSH1 0xA0 SHL SUB PUSH2 0x850 PUSH2 0xCE6 JUMP JUMPDEST AND SWAP1 DUP2 ISZERO PUSH2 0x871 JUMPI POP PUSH1 0x0 MSTORE PUSH1 0x3 PUSH1 0x20 MSTORE PUSH1 0x20 PUSH1 0x40 PUSH1 0x0 KECCAK256 SLOAD PUSH1 0x40 MLOAD SWAP1 DUP2 MSTORE RETURN JUMPDEST PUSH1 0x24 SWAP1 PUSH1 0x0 PUSH1 0x40 MLOAD SWAP2 PUSH4 0x22718AD9 PUSH1 0xE2 SHL DUP4 MSTORE DUP3 ADD MSTORE REVERT JUMPDEST CALLVALUE PUSH2 0x11C JUMPI PUSH1 0x20 CALLDATASIZE PUSH1 0x3 NOT ADD SLT PUSH2 0x11C JUMPI PUSH2 0x8A6 PUSH1 0x20 SWAP2 CALLDATALOAD PUSH2 0xFC7 JUMP JUMPDEST PUSH1 0x40 MLOAD PUSH1 0x1 PUSH1 0x1 PUSH1 0xA0 SHL SUB SWAP1 SWAP2 AND DUP2 MSTORE RETURN JUMPDEST CALLVALUE PUSH2 0x11C JUMPI PUSH1 0x20 DUP1 PUSH1 0x3 NOT CALLDATASIZE ADD SLT PUSH2 0x11C JUMPI DUP2 CALLDATALOAD PUSH1 0x0 DUP2 DUP2 MSTORE PUSH1 0x2 DUP4 MSTORE PUSH1 0x40 SWAP1 KECCAK256 SLOAD SWAP1 SWAP3 PUSH1 0x1 PUSH1 0x1 PUSH1 0xA0 SHL SUB SWAP2 DUP3 AND SWAP2 CALLER ISZERO ISZERO SWAP1 DUP2 PUSH2 0x96F JUMPI JUMPDEST POP POP POP PUSH1 0x2 PUSH1 0x0 SWAP3 DUP3 PUSH2 0x93C JUMPI JUMPDEST DUP5 DUP5 MSTORE MSTORE PUSH1 0x40 DUP3 KECCAK256 DUP1 SLOAD PUSH1 0x1 PUSH1 0x1 PUSH1 0xA0 SHL SUB NOT AND SWAP1 SSTORE PUSH32 0xDDF252AD1BE2C89B69C2B068FC378DAA952BA7F163C4A11628F55A4DF523B3EF DUP3 DUP1 LOG4 STOP JUMPDEST PUSH1 0x0 DUP6 DUP2 MSTORE PUSH1 0x4 PUSH1 0x20 MSTORE PUSH1 0x40 SWAP1 KECCAK256 DUP1 SLOAD PUSH1 0x1 PUSH1 0x1 PUSH1 0xA0 SHL SUB NOT AND SWAP1 SSTORE DUP3 DUP5 MSTORE PUSH1 0x3 DUP2 MSTORE PUSH1 0x40 DUP5 KECCAK256 DUP5 NOT DUP2 SLOAD ADD SWAP1 SSTORE PUSH2 0x900 JUMP JUMPDEST DUP2 PUSH2 0x9BB JUMPI JUMPDEST POP ISZERO PUSH2 0x982 JUMPI DUP1 DUP1 PUSH2 0x8F2 JUMP JUMPDEST SWAP2 POP PUSH2 0x99E JUMPI PUSH1 0x24 SWAP2 PUSH1 0x40 MLOAD SWAP2 PUSH4 0x7E273289 PUSH1 0xE0 SHL DUP4 MSTORE DUP3 ADD MSTORE REVERT JUMPDEST PUSH1 0x44 SWAP2 PUSH1 0x40 MLOAD SWAP2 PUSH4 0x177E802F PUSH1 0xE0 SHL DUP4 MSTORE CALLER SWAP1 DUP4 ADD MSTORE PUSH1 0x24 DUP3 ADD MSTORE REVERT JUMPDEST CALLER DUP5 EQ SWAP2 POP DUP2 ISZERO PUSH2 0x9EE JUMPI JUMPDEST DUP2 ISZERO PUSH2 0x9D5 JUMPI JUMPDEST POP DUP6 PUSH2 0x975 JUMP JUMPDEST SWAP1 POP DUP5 PUSH1 0x0 MSTORE DUP2 DUP5 MSTORE CALLER SWAP1 PUSH1 0x40 PUSH1 0x0 KECCAK256 SLOAD AND EQ DUP6 PUSH2 0x9CE JUMP JUMPDEST SWAP1 POP DUP3 PUSH1 0x0 MSTORE PUSH1 0x5 DUP5 MSTORE PUSH1 0x40 PUSH1 0x0 KECCAK256 CALLER PUSH1 0x0 MSTORE DUP5 MSTORE PUSH1 0xFF PUSH1 0x40 PUSH1 0x0 KECCAK256 SLOAD AND SWAP1 PUSH2 0x9C7 JUMP JUMPDEST CALLVALUE PUSH2 0x11C JUMPI PUSH2 0x6A9 PUSH2 0xA23 CALLDATASIZE PUSH2 0xD12 JUMP JUMPDEST SWAP1 PUSH1 0x40 MLOAD SWAP3 PUSH2 0xA31 DUP5 PUSH2 0xD47 JUMP JUMPDEST PUSH1 0x0 DUP5 MSTORE PUSH2 0x6A4 DUP4 DUP4 DUP4 PUSH2 0xE28 JUMP JUMPDEST CALLVALUE PUSH2 0x11C JUMPI PUSH2 0x6A9 PUSH2 0xA51 CALLDATASIZE PUSH2 0xD12 JUMP JUMPDEST SWAP2 PUSH2 0xE28 JUMP JUMPDEST CALLVALUE PUSH2 0x11C JUMPI PUSH1 0x40 CALLDATASIZE PUSH1 0x3 NOT ADD SLT PUSH2 0x11C JUMPI PUSH2 0xA70 PUSH2 0xCE6 JUMP JUMPDEST SWAP1 PUSH1 0x24 CALLDATALOAD PUSH2 0xA7D DUP2 PUSH2 0xFC7 JUMP JUMPDEST CALLER ISZERO ISZERO DUP1 PUSH2 0xB31 JUMPI JUMPDEST DUP1 PUSH2 0xB04 JUMPI JUMPDEST PUSH2 0xAED JUMPI PUSH1 0x1 PUSH1 0x1 PUSH1 0xA0 SHL SUB SWAP4 DUP5 AND SWAP4 DUP3 SWAP2 DUP6 SWAP2 AND PUSH32 0x8C5BE1E5EBEC7D5BD14F71427D1E84F3DD0314C0F7B2291E5B200AC8C7C3B925 PUSH1 0x0 DUP1 LOG4 PUSH1 0x0 MSTORE PUSH1 0x20 MSTORE PUSH1 0x40 PUSH1 0x0 KECCAK256 SWAP1 PUSH12 0xFFFFFFFFFFFFFFFFFFFFFFFF PUSH1 0xA0 SHL DUP3 SLOAD AND OR SWAP1 SSTORE PUSH1 0x0 DUP1 RETURN JUMPDEST PUSH1 0x40 MLOAD PUSH4 0xA9FBF51F PUSH1 0xE0 SHL DUP2 MSTORE CALLER DUP2 DUP6 ADD MSTORE PUSH1 0x24 SWAP1 REVERT JUMPDEST POP PUSH1 0x1 DUP1 PUSH1 0xA0 SHL SUB DUP2 AND PUSH1 0x0 MSTORE PUSH1 0x5 PUSH1 0x20 MSTORE PUSH1 0x40 PUSH1 0x0 KECCAK256 CALLER PUSH1 0x0 MSTORE PUSH1 0x20 MSTORE PUSH1 0xFF PUSH1 0x40 PUSH1 0x0 KECCAK256 SLOAD AND ISZERO PUSH2 0xA8C JUMP JUMPDEST POP PUSH1 0x1 PUSH1 0x1 PUSH1 0xA0 SHL SUB DUP2 AND CALLER EQ ISZERO PUSH2 0xA86 JUMP JUMPDEST CALLVALUE PUSH2 0x11C JUMPI PUSH1 0x20 CALLDATASIZE PUSH1 0x3 NOT ADD SLT PUSH2 0x11C JUMPI DUP1 CALLDATALOAD PUSH2 0xB60 DUP2 PUSH2 0xFC7 JUMP JUMPDEST POP PUSH1 0x0 MSTORE PUSH1 0x20 MSTORE PUSH1 0x20 PUSH1 0x1 DUP1 PUSH1 0xA0 SHL SUB PUSH1 0x40 PUSH1 0x0 KECCAK256 SLOAD AND PUSH1 0x40 MLOAD SWAP1 DUP2 MSTORE RETURN JUMPDEST CALLVALUE PUSH2 0x11C JUMPI PUSH1 0x0 CALLDATASIZE PUSH1 0x3 NOT ADD SLT PUSH2 0x11C JUMPI PUSH1 0x40 MLOAD PUSH1 0x0 DUP1 SLOAD PUSH2 0xBA0 DUP2 PUSH2 0xDEE JUMP JUMPDEST DUP1 DUP5 MSTORE SWAP1 PUSH1 0x1 SWAP1 DUP2 DUP2 AND SWAP1 DUP2 ISZERO PUSH2 0x808 JUMPI POP PUSH1 0x1 EQ PUSH2 0xBC9 JUMPI PUSH2 0x5DB DUP5 PUSH2 0x79B DUP2 DUP7 SUB DUP3 PUSH2 0xD79 JUMP JUMPDEST PUSH1 0x0 DUP1 DUP1 MSTORE SWAP3 POP PUSH32 0x290DECD9548B62A8D60345A988386FC84BA6BC95484008F6362F93160EF3E563 JUMPDEST DUP3 DUP5 LT PUSH2 0xC0A JUMPI POP POP POP DUP2 ADD PUSH1 0x20 ADD PUSH2 0x79B DUP3 PUSH2 0x78B JUMP JUMPDEST DUP1 SLOAD PUSH1 0x20 DUP6 DUP8 ADD DUP2 ADD SWAP2 SWAP1 SWAP2 MSTORE SWAP1 SWAP4 ADD SWAP3 DUP2 ADD PUSH2 0xBF2 JUMP JUMPDEST SWAP1 CALLVALUE PUSH2 0x11C JUMPI PUSH1 0x20 CALLDATASIZE PUSH1 0x3 NOT ADD SLT PUSH2 0x11C JUMPI CALLDATALOAD SWAP1 PUSH4 0xFFFFFFFF PUSH1 0xE0 SHL DUP3 AND DUP1 SWAP3 SUB PUSH2 0x11C JUMPI PUSH1 0x20 SWAP2 PUSH4 0x24832483 PUSH1 0xE1 SHL DUP2 EQ SWAP1 DUP2 ISZERO PUSH2 0xC63 JUMPI JUMPDEST POP ISZERO ISZERO DUP2 MSTORE RETURN JUMPDEST PUSH4 0x80AC58CD PUSH1 0xE0 SHL DUP2 EQ SWAP2 POP DUP2 ISZERO PUSH2 0xC95 JUMPI JUMPDEST DUP2 ISZERO PUSH2 0xC84 JUMPI JUMPDEST POP DUP4 PUSH2 0xC5C JUMP JUMPDEST PUSH4 0x1FFC9A7 PUSH1 0xE0 SHL EQ SWAP1 POP DUP4 PUSH2 0xC7D JUMP JUMPDEST PUSH4 0x5B5E139F PUSH1 0xE0 SHL DUP2 EQ SWAP2 POP PUSH2 0xC76 JUMP JUMPDEST SWAP2 SWAP1 DUP3 MLOAD SWAP3 DUP4 DUP3 MSTORE PUSH1 0x0 JUMPDEST DUP5 DUP2 LT PUSH2 0xCD2 JUMPI POP POP DUP3 PUSH1 0x0 PUSH1 0x20 DUP1 SWAP5 SWAP6 DUP5 ADD ADD MSTORE PUSH1 0x1F DUP1 NOT SWAP2 ADD AND ADD ADD SWAP1 JUMP JUMPDEST PUSH1 0x20 DUP2 DUP4 ADD DUP2 ADD MLOAD DUP5 DUP4 ADD DUP3 ADD MSTORE ADD PUSH2 0xCB1 JUMP JUMPDEST PUSH1 0x4 CALLDATALOAD SWAP1 PUSH1 0x1 PUSH1 0x1 PUSH1 0xA0 SHL SUB DUP3 AND DUP3 SUB PUSH2 0x11C JUMPI JUMP JUMPDEST PUSH1 0x24 CALLDATALOAD SWAP1 PUSH1 0x1 PUSH1 0x1 PUSH1 0xA0 SHL SUB DUP3 AND DUP3 SUB PUSH2 0x11C JUMPI JUMP JUMPDEST PUSH1 0x60 SWAP1 PUSH1 0x3 NOT ADD SLT PUSH2 0x11C JUMPI PUSH1 0x1 PUSH1 0x1 PUSH1 0xA0 SHL SUB SWAP1 PUSH1 0x4 CALLDATALOAD DUP3 DUP2 AND DUP2 SUB PUSH2 0x11C JUMPI SWAP2 PUSH1 0x24 CALLDATALOAD SWAP1 DUP2 AND DUP2 SUB PUSH2 0x11C JUMPI SWAP1 PUSH1 0x44 CALLDATALOAD SWAP1 JUMP JUMPDEST PUSH1 0x20 DUP2 ADD SWAP1 DUP2 LT PUSH8 0xFFFFFFFFFFFFFFFF DUP3 GT OR PUSH2 0xD63 JUMPI PUSH1 0x40 MSTORE JUMP JUMPDEST PUSH4 0x4E487B71 PUSH1 0xE0 SHL PUSH1 0x0 MSTORE PUSH1 0x41 PUSH1 0x4 MSTORE PUSH1 0x24 PUSH1 0x0 REVERT JUMPDEST SWAP1 PUSH1 0x1F DUP1 NOT SWAP2 ADD AND DUP2 ADD SWAP1 DUP2 LT PUSH8 0xFFFFFFFFFFFFFFFF DUP3 GT OR PUSH2 0xD63 JUMPI PUSH1 0x40 MSTORE JUMP JUMPDEST PUSH8 0xFFFFFFFFFFFFFFFF DUP2 GT PUSH2 0xD63 JUMPI PUSH1 0x1F ADD PUSH1 0x1F NOT AND PUSH1 0x20 ADD SWAP1 JUMP JUMPDEST SWAP3 SWAP2 SWAP3 PUSH2 0xDC3 DUP3 PUSH2 0xD9B JUMP JUMPDEST SWAP2 PUSH2 0xDD1 PUSH1 0x40 MLOAD SWAP4 DUP5 PUSH2 0xD79 JUMP JUMPDEST DUP3 SWAP5 DUP2 DUP5 MSTORE DUP2 DUP4 ADD GT PUSH2 0x11C JUMPI DUP3 DUP2 PUSH1 0x20 SWAP4 DUP5 PUSH1 0x0 SWAP7 ADD CALLDATACOPY ADD ADD MSTORE JUMP JUMPDEST SWAP1 PUSH1 0x1 DUP3 DUP2 SHR SWAP3 AND DUP1 ISZERO PUSH2 0xE1E JUMPI JUMPDEST PUSH1 0x20 DUP4 LT EQ PUSH2 0xE08 JUMPI JUMP JUMPDEST PUSH4 0x4E487B71 PUSH1 0xE0 SHL PUSH1 0x0 MSTORE PUSH1 0x22 PUSH1 0x4 MSTORE PUSH1 0x24 PUSH1 0x0 REVERT JUMPDEST SWAP2 PUSH1 0x7F AND SWAP2 PUSH2 0xDFD JUMP JUMPDEST PUSH1 0x1 PUSH1 0x1 PUSH1 0xA0 SHL SUB SWAP2 DUP3 AND SWAP3 SWAP1 SWAP2 DUP4 ISZERO PUSH2 0xFAE JUMPI PUSH1 0x0 SWAP3 DUP3 DUP5 MSTORE DUP3 PUSH1 0x20 SWAP6 PUSH1 0x2 DUP8 MSTORE PUSH1 0x40 SWAP7 DUP5 DUP9 DUP9 KECCAK256 SLOAD AND SWAP7 DUP8 SWAP2 CALLER ISZERO ISZERO DUP1 PUSH2 0xF18 JUMPI JUMPDEST POP SWAP1 PUSH1 0x2 PUSH32 0xDDF252AD1BE2C89B69C2B068FC378DAA952BA7F163C4A11628F55A4DF523B3EF SWAP3 DUP5 PUSH2 0xEE5 JUMPI JUMPDEST DUP6 DUP4 MSTORE PUSH1 0x3 DUP2 MSTORE DUP12 DUP4 KECCAK256 DUP1 SLOAD PUSH1 0x1 ADD SWAP1 SSTORE DUP7 DUP4 MSTORE MSTORE DUP10 DUP2 KECCAK256 DUP1 SLOAD PUSH1 0x1 PUSH1 0x1 PUSH1 0xA0 SHL SUB NOT AND DUP6 OR SWAP1 SSTORE DUP1 LOG4 AND SWAP3 DUP4 DUP4 SUB PUSH2 0xEC4 JUMPI POP POP POP POP JUMP JUMPDEST PUSH1 0x64 SWAP5 POP MLOAD SWAP3 PUSH4 0x64283D7B PUSH1 0xE0 SHL DUP5 MSTORE PUSH1 0x4 DUP5 ADD MSTORE PUSH1 0x24 DUP4 ADD MSTORE PUSH1 0x44 DUP3 ADD MSTORE REVERT JUMPDEST PUSH1 0x0 DUP8 DUP2 MSTORE PUSH1 0x4 PUSH1 0x20 MSTORE PUSH1 0x40 SWAP1 KECCAK256 DUP1 SLOAD PUSH1 0x1 PUSH1 0x1 PUSH1 0xA0 SHL SUB NOT AND SWAP1 SSTORE DUP5 DUP4 MSTORE PUSH1 0x3 DUP2 MSTORE DUP12 DUP4 KECCAK256 DUP1 SLOAD PUSH1 0x0 NOT ADD SWAP1 SSTORE PUSH2 0xE8B JUMP JUMPDEST SWAP2 SWAP4 SWAP5 POP SWAP2 POP DUP1 PUSH2 0xF6D JUMPI JUMPDEST ISZERO PUSH2 0xF34 JUMPI DUP6 SWAP3 SWAP2 DUP8 SWAP2 CODESIZE PUSH2 0xE5F JUMP JUMPDEST DUP8 DUP7 DUP9 PUSH2 0xF51 JUMPI PUSH1 0x24 SWAP2 MLOAD SWAP1 PUSH4 0x7E273289 PUSH1 0xE0 SHL DUP3 MSTORE PUSH1 0x4 DUP3 ADD MSTORE REVERT JUMPDEST PUSH1 0x44 SWAP2 MLOAD SWAP1 PUSH4 0x177E802F PUSH1 0xE0 SHL DUP3 MSTORE CALLER PUSH1 0x4 DUP4 ADD MSTORE PUSH1 0x24 DUP3 ADD MSTORE REVERT JUMPDEST POP CALLER DUP8 EQ DUP1 ISZERO PUSH2 0xF92 JUMPI JUMPDEST DUP1 PUSH2 0xF24 JUMPI POP DUP6 DUP3 MSTORE PUSH1 0x4 DUP2 MSTORE CALLER DUP6 DUP10 DUP5 KECCAK256 SLOAD AND EQ PUSH2 0xF24 JUMP JUMPDEST POP DUP7 DUP3 MSTORE PUSH1 0x5 DUP2 MSTORE DUP8 DUP3 KECCAK256 CALLER DUP4 MSTORE DUP2 MSTORE PUSH1 0xFF DUP9 DUP4 KECCAK256 SLOAD AND PUSH2 0xF78 JUMP JUMPDEST PUSH1 0x40 MLOAD PUSH4 0x32505749 PUSH1 0xE1 SHL DUP2 MSTORE PUSH1 0x0 PUSH1 0x4 DUP3 ADD MSTORE PUSH1 0x24 SWAP1 REVERT JUMPDEST PUSH1 0x0 DUP2 DUP2 MSTORE PUSH1 0x2 PUSH1 0x20 MSTORE PUSH1 0x40 SWAP1 KECCAK256 SLOAD PUSH1 0x1 PUSH1 0x1 PUSH1 0xA0 SHL SUB AND SWAP1 DUP2 ISZERO PUSH2 0xFEA JUMPI POP SWAP1 JUMP JUMPDEST PUSH1 0x24 SWAP1 PUSH1 0x40 MLOAD SWAP1 PUSH4 0x7E273289 PUSH1 0xE0 SHL DUP3 MSTORE PUSH1 0x4 DUP3 ADD MSTORE REVERT JUMPDEST DUP2 EXTCODESIZE PUSH2 0x100F JUMPI JUMPDEST POP POP POP POP JUMP JUMPDEST PUSH1 0x40 MLOAD PUSH4 0xA85BD01 PUSH1 0xE1 SHL DUP1 DUP3 MSTORE CALLER PUSH1 0x4 DUP4 ADD MSTORE PUSH1 0x1 PUSH1 0x1 PUSH1 0xA0 SHL SUB SWAP3 DUP4 AND PUSH1 0x24 DUP4 ADD MSTORE PUSH1 0x44 DUP3 ADD SWAP5 SWAP1 SWAP5 MSTORE PUSH1 0x80 PUSH1 0x64 DUP3 ADD MSTORE PUSH1 0x20 SWAP6 SWAP3 SWAP1 SWAP2 AND SWAP4 SWAP1 SWAP3 SWAP1 DUP4 SWAP1 PUSH2 0x105D SWAP1 PUSH1 0x84 DUP4 ADD SWAP1 PUSH2 0xCA6 JUMP JUMPDEST SUB SWAP3 DUP6 DUP2 PUSH1 0x0 SWAP6 DUP2 DUP8 DUP10 GAS CALL DUP5 SWAP2 DUP2 PUSH2 0x1106 JUMPI JUMPDEST POP PUSH2 0x10D1 JUMPI POP POP POP RETURNDATASIZE PUSH1 0x0 EQ PUSH2 0x10C9 JUMPI RETURNDATASIZE PUSH2 0x108B DUP2 PUSH2 0xD9B JUMP JUMPDEST SWAP1 PUSH2 0x1099 PUSH1 0x40 MLOAD SWAP3 DUP4 PUSH2 0xD79 JUMP JUMPDEST DUP2 MSTORE DUP1 SWAP2 DUP5 RETURNDATASIZE SWAP3 ADD RETURNDATACOPY JUMPDEST DUP1 MLOAD SWAP3 DUP4 PUSH2 0x10C4 JUMPI PUSH1 0x40 MLOAD PUSH4 0x32505749 PUSH1 0xE1 SHL DUP2 MSTORE PUSH1 0x4 DUP2 ADD DUP5 SWAP1 MSTORE PUSH1 0x24 SWAP1 REVERT JUMPDEST ADD SWAP1 POP REVERT JUMPDEST POP PUSH1 0x60 PUSH2 0x10A3 JUMP JUMPDEST SWAP2 SWAP5 POP SWAP2 POP PUSH4 0xFFFFFFFF PUSH1 0xE0 SHL AND SUB PUSH2 0x10EE JUMPI POP CODESIZE DUP1 DUP1 DUP1 PUSH2 0x1009 JUMP JUMPDEST PUSH1 0x24 SWAP1 PUSH1 0x40 MLOAD SWAP1 PUSH4 0x32505749 PUSH1 0xE1 SHL DUP3 MSTORE PUSH1 0x4 DUP3 ADD MSTORE REVERT JUMPDEST SWAP1 SWAP2 POP DUP7 DUP2 DUP2 RETURNDATASIZE DUP4 GT PUSH2 0x1143 JUMPI JUMPDEST PUSH2 0x111E DUP2 DUP4 PUSH2 0xD79 JUMP JUMPDEST DUP2 ADD SUB SLT PUSH2 0x113F JUMPI MLOAD PUSH1 0x1 PUSH1 0x1 PUSH1 0xE0 SHL SUB NOT DUP2 AND DUP2 SUB PUSH2 0x113F JUMPI SWAP1 CODESIZE PUSH2 0x1071 JUMP JUMPDEST DUP5 DUP1 REVERT JUMPDEST POP RETURNDATASIZE PUSH2 0x1114 JUMP INVALID LOG2 PUSH5 0x6970667358 0x22 SLT KECCAK256 0xB8 SWAP16 0xD5 OR SWAP11 NOT 0x27 SIGNEXTEND 0xCD CALL PUSH29 0xB957F0C0C9BD5C4221F0F5431A6C5FEF1DEDCF0D6964736F6C63430008 EQ STOP CALLER "},"gasEstimates":{"creation":{"codeDepositCost":"896000","executionCost":"infinite","totalCost":"infinite"},"external":{"approve(address,uint256)":"31106","balanceOf(address)":"2612","burn(uint256)":"81871","getApproved(uint256)":"4629","isApprovedForAll(address,address)":"2879","name()":"infinite","ownerOf(uint256)":"2577","safeMint(address,string)":"infinite","safeTransferFrom(address,address,uint256)":"infinite","safeTransferFrom(address,address,uint256,bytes)":"infinite","setApprovalForAll(address,bool)":"26652","supportsInterface(bytes4)":"383","symbol()":"infinite","tokenURI(uint256)":"infinite","transferFrom(address,address,uint256)":"106388"}},"methodIdentifiers":{"approve(address,uint256)":"095ea7b3","balanceOf(address)":"70a08231","burn(uint256)":"42966c68","getApproved(uint256)":"081812fc","isApprovedForAll(address,address)":"e985e9c5","name()":"06fdde03","ownerOf(uint256)":"6352211e","safeMint(address,string)":"d204c45e","safeTransferFrom(address,address,uint256)":"42842e0e","safeTransferFrom(address,address,uint256,bytes)":"b88d4fde","setApprovalForAll(address,bool)":"a22cb465","supportsInterface(bytes4)":"01ffc9a7","symbol()":"95d89b41","tokenURI(uint256)":"c87b56dd","transferFrom(address,address,uint256)":"23b872dd"}},"storageLayout":{"storage":[{"astId":860,"contract":"contracts/HorizonReceipt.sol:HorizonReceipt","label":"_name","offset":0,"slot":"0","type":"t_string_storage"},{"astId":862,"contract":"contracts/HorizonReceipt.sol:HorizonReceipt","label":"_symbol","offset":0,"slot":"1","type":"t_string_storage"},{"astId":866,"contract":"contracts/HorizonReceipt.sol:HorizonReceipt","label":"_owners","offset":0,"slot":"2","type":"t_mapping(t_uint256,t_address)"},{"astId":870,"contract":"contracts/HorizonReceipt.sol:HorizonReceipt","label":"_balances","offset":0,"slot":"3","type":"t_mapping(t_address,t_uint256)"},{"astId":874,"contract":"contracts/HorizonReceipt.sol:HorizonReceipt","label":"_tokenApprovals","offset":0,"slot":"4","type":"t_mapping(t_uint256,t_address)"},{"astId":880,"contract":"contracts/HorizonReceipt.sol:HorizonReceipt","label":"_operatorApprovals","offset":0,"slot":"5","type":"t_mapping(t_address,t_mapping(t_address,t_bool))"},{"astId":2028,"contract":"contracts/HorizonReceipt.sol:HorizonReceipt","label":"_tokenURIs","offset":0,"slot":"6","type":"t_mapping(t_uint256,t_string_storage)"},{"astId":6354,"contract":"contracts/HorizonReceipt.sol:HorizonReceipt","label":"_nextTokenId","offset":0,"slot":"7","type":"t_uint256"}],"types":{"t_address":{"encoding":"inplace","label":"address","numberOfBytes":"20"},"t_bool":{"encoding":"inplace","label":"bool","numberOfBytes":"1"},"t_mapping(t_address,t_bool)":{"encoding":"mapping","key":"t_address","label":"mapping(address => bool)","numberOfBytes":"32","value":"t_bool"},"t_mapping(t_address,t_mapping(t_address,t_bool))":{"encoding":"mapping","key":"t_address","label":"mapping(address => mapping(address => bool))","numberOfBytes":"32","value":"t_mapping(t_address,t_bool)"},"t_mapping(t_address,t_uint256)":{"encoding":"mapping","key":"t_address","label":"mapping(address => uint256)","numberOfBytes":"32","value":"t_uint256"},"t_mapping(t_uint256,t_address)":{"encoding":"mapping","key":"t_uint256","label":"mapping(uint256 => address)","numberOfBytes":"32","value":"t_address"},"t_mapping(t_uint256,t_string_storage)":{"encoding":"mapping","key":"t_uint256","label":"mapping(uint256 => string)","numberOfBytes":"32","value":"t_string_storage"},"t_string_storage":{"encoding":"bytes","label":"string","numberOfBytes":"32"},"t_uint256":{"encoding":"inplace","label":"uint256","numberOfBytes":"32"}}},"userdoc":{"kind":"user","methods":{},"version":1}}}}