{"contracts/HorizonS.sol":{"HorizonS":{"abi":[{"inputs":[{"internalType":"address","name":"_router","type":"address"},{"internalType":"address","name":"_linkToken","type":"address"}],"stateMutability":"nonpayable","type":"constructor"},{"inputs":[{"internalType":"uint64","name":"destinationChainSelector","type":"uint64"}],"name":"DestinationChainNotWhitelisted","type":"error"},{"inputs":[{"internalType":"address","name":"owner","type":"address"},{"internalType":"address","name":"target","type":"address"},{"internalType":"uint256","name":"value","type":"uint256"}],"name":"FailedToWithdrawEth","type":"error"},{"inputs":[{"internalType":"address","name":"router","type":"address"}],"name":"InvalidRouter","type":"error"},{"inputs":[{"internalType":"uint256","name":"currentBalance","type":"uint256"},{"internalType":"uint256","name":"calculatedFees","type":"uint256"}],"name":"NotEnoughBalance","type":"error"},{"inputs":[],"name":"NothingToWithdraw","type":"error"},{"anonymous":false,"inputs":[{"indexed":false,"internalType":"string","name":"blockchainName","type":"string"},{"indexed":false,"internalType":"address","name":"receiverAddress","type":"address"}],"name":"CCIPReceiverAdded","type":"event"},{"anonymous":false,"inputs":[{"indexed":false,"internalType":"address","name":"_receiverAddress","type":"address"}],"name":"CCIPReceiverRemoved","type":"event"},{"anonymous":false,"inputs":[{"indexed":true,"internalType":"bytes32","name":"messageId","type":"bytes32"},{"indexed":true,"internalType":"uint64","name":"sourceChainSelector","type":"uint64"},{"indexed":false,"internalType":"address","name":"sender","type":"address"},{"indexed":false,"internalType":"string","name":"text","type":"string"},{"indexed":false,"internalType":"address","name":"token","type":"address"},{"indexed":false,"internalType":"uint256","name":"tokenAmount","type":"uint256"}],"name":"MessageReceived","type":"event"},{"anonymous":false,"inputs":[{"indexed":true,"internalType":"bytes32","name":"messageId","type":"bytes32"},{"indexed":true,"internalType":"uint64","name":"destinationChainSelector","type":"uint64"},{"indexed":false,"internalType":"address","name":"receiver","type":"address"},{"indexed":false,"internalType":"bytes","name":"text","type":"bytes"},{"indexed":false,"internalType":"address","name":"feeToken","type":"address"},{"indexed":false,"internalType":"uint256","name":"fees","type":"uint256"}],"name":"MessageSent","type":"event"},{"inputs":[{"internalType":"string","name":"_blockchainName","type":"string"},{"internalType":"address","name":"_receiverAddress","type":"address"}],"name":"addReceiver","outputs":[],"stateMutability":"nonpayable","type":"function"},{"inputs":[{"internalType":"address","name":"receiverAddress","type":"address"}],"name":"ccipReceicers","outputs":[{"internalType":"string","name":"blockchainName","type":"string"},{"internalType":"address","name":"receiverAddress","type":"address"},{"internalType":"bool","name":"isReceiver","type":"bool"}],"stateMutability":"view","type":"function"},{"inputs":[{"components":[{"internalType":"bytes32","name":"messageId","type":"bytes32"},{"internalType":"uint64","name":"sourceChainSelector","type":"uint64"},{"internalType":"bytes","name":"sender","type":"bytes"},{"internalType":"bytes","name":"data","type":"bytes"},{"components":[{"internalType":"address","name":"token","type":"address"},{"internalType":"uint256","name":"amount","type":"uint256"}],"internalType":"struct Client.EVMTokenAmount[]","name":"destTokenAmounts","type":"tuple[]"}],"internalType":"struct Client.Any2EVMMessage","name":"message","type":"tuple"}],"name":"ccipReceive","outputs":[],"stateMutability":"nonpayable","type":"function"},{"inputs":[{"internalType":"uint64","name":"_destinationChainSelector","type":"uint64"}],"name":"denylistDestinationChain","outputs":[],"stateMutability":"nonpayable","type":"function"},{"inputs":[],"name":"getRouter","outputs":[{"internalType":"address","name":"","type":"address"}],"stateMutability":"view","type":"function"},{"inputs":[{"internalType":"address","name":"_receiverAddress","type":"address"}],"name":"removeReceiver","outputs":[],"stateMutability":"nonpayable","type":"function"},{"inputs":[{"internalType":"uint64","name":"_destinationChainSelector","type":"uint64"},{"internalType":"address","name":"_receiverAddress","type":"address"},{"internalType":"bytes","name":"_data","type":"bytes"}],"name":"sendMessagePayLINK","outputs":[{"internalType":"bytes32","name":"messageId","type":"bytes32"}],"stateMutability":"nonpayable","type":"function"},{"inputs":[{"internalType":"bytes4","name":"interfaceId","type":"bytes4"}],"name":"supportsInterface","outputs":[{"internalType":"bool","name":"","type":"bool"}],"stateMutability":"pure","type":"function"},{"inputs":[{"internalType":"uint64","name":"_destinationChainSelector","type":"uint64"}],"name":"whitelistDestinationChain","outputs":[],"stateMutability":"nonpayable","type":"function"},{"inputs":[{"internalType":"uint64","name":"","type":"uint64"}],"name":"whitelistedDestinationChains","outputs":[{"internalType":"bool","name":"","type":"bool"}],"stateMutability":"view","type":"function"},{"inputs":[{"internalType":"address","name":"_beneficiary","type":"address"}],"name":"withdraw","outputs":[],"stateMutability":"nonpayable","type":"function"},{"inputs":[{"internalType":"address","name":"_beneficiary","type":"address"},{"internalType":"address","name":"_token","type":"address"}],"name":"withdrawToken","outputs":[],"stateMutability":"nonpayable","type":"function"},{"stateMutability":"payable","type":"receive"}],"devdoc":{"kind":"dev","methods":{"ccipReceive((bytes32,uint64,bytes,bytes,(address,uint256)[]))":{"details":"Note ensure you check the msg.sender is the OffRampRouter","params":{"message":"CCIP Message"}},"denylistDestinationChain(uint64)":{"details":"Denylists a chain for transactions.","params":{"_destinationChainSelector":"The selector of the destination chain to be denylisted."}},"getRouter()":{"returns":{"_0":"i_router address"}},"supportsInterface(bytes4)":{"params":{"interfaceId":"The interfaceId to check"},"returns":{"_0":"true if the interfaceId is supported"}},"whitelistDestinationChain(uint64)":{"details":"Whitelists a chain for transactions.","params":{"_destinationChainSelector":"The selector of the destination chain to be whitelisted."}}},"version":1},"evm":{"bytecode":{"linkReferences":{},"object":"60a0346100bb57601f6115ca38819003918201601f19168301916001600160401b038311848410176100c05780849260409485528339810103126100bb57610052602061004b836100d6565b92016100d6565b6001600160a01b0391808316156100a25760805260018060a01b0319918260065416911617600655339060035416176003556040516114df90816100eb823960805181818160c401526106c00152f35b6040516335fdcccd60e21b815260006004820152602490fd5b600080fd5b634e487b7160e01b600052604160045260246000fd5b51906001600160a01b03821682036100bb5756fe608080604052600436101561001d575b50361561001b57600080fd5b005b60003560e01c90816301ffc9a7146110af575080631d5e294714610e245780631f27166d14610d355780633aeac4e114610c5557806351cff8d914610bb45780636552d8b414610ad457806373645cff14610a855780637898d18414610a33578063835b347c146109f457806385572ffb14610683578063a30e3770146100f85763b0f479a1146100ae573861000f565b346100f35760003660031901126100f3576040517f00000000000000000000000000000000000000000000000000000000000000006001600160a01b03168152602090f35b600080fd5b346100f3576060806003193601126100f357610112611259565b61011a6111ab565b916044356001600160401b0381116100f35761013a90369060040161126f565b6001600160a01b03848116600090815260056020526040902060010154161561063e5760018060a01b0384166000526005602052600160ff816040600020015460a01c161515036105eb5760018060a01b038416600052600560205260018060a01b03600160406000200154169260018060a01b03600654168360806040516101c281611102565b8281528260208201528260408201526000838201520152604051946020860152602085526101ef8561111d565b604051602080820152610217816102096040820187611234565b03601f198101835282611138565b60405190602082018281106001600160401b038211176105d55760405260008252604051966102458861111d565b620c350088526020880160008152604051986397a657c960e01b60208b01525160248a01525115156044890152604488528760808101106001600160401b0360808a0111176105d557608088016040526102a160808901611102565b608088015260a087015260c08601528060e08601528461010081015260405163b0f479a160e01b8152602081600481305afa90811561047c57600091610593575b506040516320487ded60e01b815291906001600160a01b03166020838061031060808b018860048401611347565b0381845afa92831561047c5760009361055f575b506040516370a0823160e01b80825230600483015290602081602481875afa90811561047c5760009161052d575b5084116104b5575060405163095ea7b360e01b81526001600160a01b03821660048201526024810184905291602090839060449082906000905af190811561047c576103c497602093608093610488575b506000604051809a819582946396f4e9f960e01b8452018960048401611347565b03925af194851561047c57600095610443575b50916020956001600160401b037f3d8a9f055772202d2c3c1fddbad930d3dbe588d8692b75b84cee07194628291193879561042b60405195869560018060a01b0316865260808c8701526080860190611234565b976000604086015284015216940390a3604051908152f35b919450916020823d602011610474575b8161046060209383611138565b810103126100f357905193909160206103d7565b3d9150610453565b6040513d6000823e3d90fd5b6104a790853d87116104ae575b61049f8183611138565b810190611410565b508a6103a3565b503d610495565b60405190815230600482015283602082602481875afa90811561047c576000916104f8575b6044925060405191634787a10360e11b835260048301526024820152fd5b90506020823d602011610525575b8161051360209383611138565b810103126100f35760449151906104da565b3d9150610506565b90506020813d602011610557575b8161054860209383611138565b810103126100f357518a610352565b3d915061053b565b9092506020813d60201161058b575b8161057b60209383611138565b810103126100f357519188610324565b3d915061056e565b90506020813d6020116105cd575b816105ae60209383611138565b810103126100f357516001600160a01b03811681036100f357876102e2565b3d91506105a1565b634e487b7160e01b600052604160045260246000fd5b60405162461bcd60e51b815260206004820152602560248201527f54686973207265636569766572206973206e6f742077686974656c6973746564604482015264207965742160d81b6064820152608490fd5b60405162461bcd60e51b815260206004820152601f60248201527f456e74657220612076616c6964207265636569766572206164647265737321006044820152606490fd5b346100f357600319602036820181136100f3576004356001600160401b03928382116100f35760a09082360301126100f3576001600160a01b03917f0000000000000000000000000000000000000000000000000000000000000000831633036109dc57604051926106f484611102565b8260040135845260248301359385851685036100f35782810194855260448401358681116100f35761072c906004369187010161126f565b956040820196875260648501358181116100f357610750906004369188010161126f565b94606083019586526084810135908282116100f3570191366023840112156100f3576004830135928284116105d55760405193610792878260051b0186611138565b80855260248786019160061b830101913683116100f357602401905b82821061099f575050506080810192835280516000556107d78651868082518301019101611428565b80518381116105d557806001926107ee84546111d7565b601f8111610947575b508890601f83116001146108c7576000926108bc575b5050600019600383901b1c191690821b1790555b51955116955183818051810103126100f357830151918083168093036100f3576108ac8461089161087c7f90ec910a8f80bb04e184a806e2ae6f8786ef2ae898859a3180f953397edc12019851838082518301019101611428565b936108878651611486565b5151169451611486565b51015191608060405196879687528601526080850190611234565b91604084015260608301520390a3005b015190508b8061080d565b90849350601f19831691846000527fb10e2d527612073b26eecdfd717e6a320cf44b4afac2b0732d9fcbe2b7fa0cf69260005b8c8282106109315750508411610918575b505050811b019055610821565b015160001960f88460031b161c191690558b808061090b565b83850151865588979095019493840193016108fa565b61098f90856000527fb10e2d527612073b26eecdfd717e6a320cf44b4afac2b0732d9fcbe2b7fa0cf6601f850160051c8101918c8610610995575b601f0160051c0190611330565b8c6107f7565b9091508190610982565b6040823603126100f357604051906109b68261111d565b82359088821682036100f357828a926040945282850135838201528152019101906107ae565b6040516335fdcccd60e21b8152336004820152602490fd5b346100f35760203660031901126100f3576001600160401b03610a15611259565b166000526004602052602060ff604060002054166040519015158152f35b346100f35760203660031901126100f3576001600160401b03610a54611259565b610a6960018060a01b0360035416331461128d565b166000908152600460205260409020805460ff19166001179055005b346100f35760203660031901126100f3576001600160401b03610aa6611259565b610abb60018060a01b0360035416331461128d565b166000908152600460205260409020805460ff19169055005b346100f35760203660031901126100f3577fc98322fddcb9467a648bda840e8c0844a6a420e0a62af038077f0de932e729666020610b106111c1565b6003546001600160a01b039190610b2a908316331461128d565b168060005260058252610b4e600160ff816040600020015460a01c161515146112e4565b80600052600582526000600160408220610b6881546111d7565b80610b7a575b500155604051908152a1005b601f81118314610b8f57508281555b86610b6e565b8390828252610bab601f888420920160051c8201858301611330565b81835555610b89565b346100f35760203660031901126100f357610bcd6111c1565b47908115610c4357600080808085855af13d15610c3e573d610bee81611159565b90610bfc6040519283611138565b8152600060203d92013e5b15610c0e57005b604051639d11f56360e01b81523360048201526001600160a01b0390911660248201526044810191909152606490fd5b610c07565b604051630686827b60e51b8152600490fd5b346100f35760403660031901126100f357610c6e6111c1565b6001600160a01b03610c7e6111ab565b16604051916370a0823160e01b83523060048401526020928381602481865afa90811561047c57600091610d08575b508015610c435760405163a9059cbb60e01b81526001600160a01b039290921660048301526024820152908290829060449082906000905af1801561047c57610cf257005b8161001b92903d106104ae5761049f8183611138565b90508381813d8311610d2e575b610d1f8183611138565b810103126100f3575184610cad565b503d610d15565b346100f3576020806003193601126100f3576001600160a01b0380610d586111c1565b166000526005825260406000209060405191600090805491610d79836111d7565b808652600193808516908115610e085750600114610dd4575b5091610dbe9591610da78660ff950387611138565b015490604051958695606087526060870190611234565b9382169085015260a01c16151560408301520390f35b60008381528781209092505b818310610df557505084018501610dbe610d92565b8054878401890152918701918401610de0565b60ff19168789015250151560051b850186019050610dbe610d92565b346100f35760403660031901126100f3576001600160401b036004358181116100f357366023820112156100f357610e66903690602481600401359101611174565b610e6e6111ab565b6003546001600160a01b03918291610e89908316331461128d565b168015611071578060005260209160058352600190610eb560ff836040600020015460a01c16156112e4565b6040519060608201828110888211176105d5576040528582528482019284845260408301928184528560005260058752604060002090519889519081116105d557610f0082546111d7565b601f8111611041575b5087601f8211600114610fb3579080610f9f9a99989796959493927f619facc3344a864638bdf6b94faebe32fea796eccc10ab263d90da8b44c42be49c600092610fa8575b5050600019600383901b1c191690831b1781555b0192511682549160ff60a01b9051151560a01b16916affffffffffffffffffffff60a81b1617179055604051938493604085526040850190611234565b918301520390a1005b015190508c80610f4e565b601f1982169083600052896000209160005b81811061102c57509183917f619facc3344a864638bdf6b94faebe32fea796eccc10ab263d90da8b44c42be49d879695610f9f9e9d9c9b9a99989510611013575b505050811b018155610f62565b015160001960f88460031b161c191690558c8080611006565b8d830151845592860192918b01918b01610fc5565b61106b908360005289600020601f840160051c8101918b851061099557601f0160051c0190611330565b8a610f09565b60405162461bcd60e51b8152602060048201526016602482015275456e74657220612076616c696420616464726573732160501b6044820152606490fd5b346100f35760203660031901126100f3576004359063ffffffff60e01b82168092036100f3576020916385572ffb60e01b81149081156110f1575b5015158152f35b6301ffc9a760e01b149050836110ea565b60a081019081106001600160401b038211176105d557604052565b604081019081106001600160401b038211176105d557604052565b90601f801991011681019081106001600160401b038211176105d557604052565b6001600160401b0381116105d557601f01601f191660200190565b92919261118082611159565b9161118e6040519384611138565b8294818452818301116100f3578281602093846000960137010152565b602435906001600160a01b03821682036100f357565b600435906001600160a01b03821682036100f357565b90600182811c92168015611207575b60208310146111f157565b634e487b7160e01b600052602260045260246000fd5b91607f16916111e6565b60005b8381106112245750506000910152565b8181015183820152602001611214565b9060209161124d81518092818552858086019101611211565b601f01601f1916010190565b600435906001600160401b03821682036100f357565b9080601f830112156100f35781602061128a93359101611174565b90565b1561129457565b60405162461bcd60e51b815260206004820152602260248201527f4f6e6c79204f776e65722063616e2063616c6c20746869732066756e6374696f6044820152616e2160f01b6064820152608490fd5b156112eb57565b60405162461bcd60e51b815260206004820152601f60248201527f526563656976657220697320616c7265616479207265676973746572656421006044820152606490fd5b81811061133b575050565b60008155600101611330565b906001600160401b039093929316815260406020918183820152611376855160a08484015260e0830190611234565b916113928487015193603f199485858303016060860152611234565b8187015194848483030160808501528080875193848152019601926000905b8382106113e757505050505060c0608061128a959660018060a01b0360608201511660a085015201519282850301910152611234565b845180516001600160a01b031689528301518884015296870196938201936001909101906113b1565b908160209103126100f3575180151581036100f35790565b6020818303126100f3578051906001600160401b0382116100f3570181601f820112156100f357805161145a81611159565b926114686040519485611138565b818452602082840101116100f35761128a9160208085019101611211565b8051156114935760200190565b634e487b7160e01b600052603260045260246000fdfea264697066735822122042ac00fb266c1ca8d7b6a0ac2a964161ea83deef9bc0d066b3d6e0c8db395d6864736f6c63430008140033","opcodes":"PUSH1 0xA0 CALLVALUE PUSH2 0xBB JUMPI PUSH1 0x1F PUSH2 0x15CA CODESIZE DUP2 SWAP1 SUB SWAP2 DUP3 ADD PUSH1 0x1F NOT AND DUP4 ADD SWAP2 PUSH1 0x1 PUSH1 0x1 PUSH1 0x40 SHL SUB DUP4 GT DUP5 DUP5 LT OR PUSH2 0xC0 JUMPI DUP1 DUP5 SWAP3 PUSH1 0x40 SWAP5 DUP6 MSTORE DUP4 CODECOPY DUP2 ADD SUB SLT PUSH2 0xBB JUMPI PUSH2 0x52 PUSH1 0x20 PUSH2 0x4B DUP4 PUSH2 0xD6 JUMP JUMPDEST SWAP3 ADD PUSH2 0xD6 JUMP JUMPDEST PUSH1 0x1 PUSH1 0x1 PUSH1 0xA0 SHL SUB SWAP2 DUP1 DUP4 AND ISZERO PUSH2 0xA2 JUMPI PUSH1 0x80 MSTORE PUSH1 0x1 DUP1 PUSH1 0xA0 SHL SUB NOT SWAP2 DUP3 PUSH1 0x6 SLOAD AND SWAP2 AND OR PUSH1 0x6 SSTORE CALLER SWAP1 PUSH1 0x3 SLOAD AND OR PUSH1 0x3 SSTORE PUSH1 0x40 MLOAD PUSH2 0x14DF SWAP1 DUP2 PUSH2 0xEB DUP3 CODECOPY PUSH1 0x80 MLOAD DUP2 DUP2 DUP2 PUSH1 0xC4 ADD MSTORE PUSH2 0x6C0 ADD MSTORE RETURN JUMPDEST PUSH1 0x40 MLOAD PUSH4 0x35FDCCCD PUSH1 0xE2 SHL DUP2 MSTORE PUSH1 0x0 PUSH1 0x4 DUP3 ADD MSTORE PUSH1 0x24 SWAP1 REVERT JUMPDEST PUSH1 0x0 DUP1 REVERT JUMPDEST PUSH4 0x4E487B71 PUSH1 0xE0 SHL PUSH1 0x0 MSTORE PUSH1 0x41 PUSH1 0x4 MSTORE PUSH1 0x24 PUSH1 0x0 REVERT JUMPDEST MLOAD SWAP1 PUSH1 0x1 PUSH1 0x1 PUSH1 0xA0 SHL SUB DUP3 AND DUP3 SUB PUSH2 0xBB JUMPI JUMP INVALID PUSH1 0x80 DUP1 PUSH1 0x40 MSTORE PUSH1 0x4 CALLDATASIZE LT ISZERO PUSH2 0x1D JUMPI JUMPDEST POP CALLDATASIZE ISZERO PUSH2 0x1B JUMPI PUSH1 0x0 DUP1 REVERT JUMPDEST STOP JUMPDEST PUSH1 0x0 CALLDATALOAD PUSH1 0xE0 SHR SWAP1 DUP2 PUSH4 0x1FFC9A7 EQ PUSH2 0x10AF JUMPI POP DUP1 PUSH4 0x1D5E2947 EQ PUSH2 0xE24 JUMPI DUP1 PUSH4 0x1F27166D EQ PUSH2 0xD35 JUMPI DUP1 PUSH4 0x3AEAC4E1 EQ PUSH2 0xC55 JUMPI DUP1 PUSH4 0x51CFF8D9 EQ PUSH2 0xBB4 JUMPI DUP1 PUSH4 0x6552D8B4 EQ PUSH2 0xAD4 JUMPI DUP1 PUSH4 0x73645CFF EQ PUSH2 0xA85 JUMPI DUP1 PUSH4 0x7898D184 EQ PUSH2 0xA33 JUMPI DUP1 PUSH4 0x835B347C EQ PUSH2 0x9F4 JUMPI DUP1 PUSH4 0x85572FFB EQ PUSH2 0x683 JUMPI DUP1 PUSH4 0xA30E3770 EQ PUSH2 0xF8 JUMPI PUSH4 0xB0F479A1 EQ PUSH2 0xAE JUMPI CODESIZE PUSH2 0xF JUMP JUMPDEST CALLVALUE PUSH2 0xF3 JUMPI PUSH1 0x0 CALLDATASIZE PUSH1 0x3 NOT ADD SLT PUSH2 0xF3 JUMPI PUSH1 0x40 MLOAD PUSH32 0x0 PUSH1 0x1 PUSH1 0x1 PUSH1 0xA0 SHL SUB AND DUP2 MSTORE PUSH1 0x20 SWAP1 RETURN JUMPDEST PUSH1 0x0 DUP1 REVERT JUMPDEST CALLVALUE PUSH2 0xF3 JUMPI PUSH1 0x60 DUP1 PUSH1 0x3 NOT CALLDATASIZE ADD SLT PUSH2 0xF3 JUMPI PUSH2 0x112 PUSH2 0x1259 JUMP JUMPDEST PUSH2 0x11A PUSH2 0x11AB JUMP JUMPDEST SWAP2 PUSH1 0x44 CALLDATALOAD PUSH1 0x1 PUSH1 0x1 PUSH1 0x40 SHL SUB DUP2 GT PUSH2 0xF3 JUMPI PUSH2 0x13A SWAP1 CALLDATASIZE SWAP1 PUSH1 0x4 ADD PUSH2 0x126F JUMP JUMPDEST PUSH1 0x1 PUSH1 0x1 PUSH1 0xA0 SHL SUB DUP5 DUP2 AND PUSH1 0x0 SWAP1 DUP2 MSTORE PUSH1 0x5 PUSH1 0x20 MSTORE PUSH1 0x40 SWAP1 KECCAK256 PUSH1 0x1 ADD SLOAD AND ISZERO PUSH2 0x63E JUMPI PUSH1 0x1 DUP1 PUSH1 0xA0 SHL SUB DUP5 AND PUSH1 0x0 MSTORE PUSH1 0x5 PUSH1 0x20 MSTORE PUSH1 0x1 PUSH1 0xFF DUP2 PUSH1 0x40 PUSH1 0x0 KECCAK256 ADD SLOAD PUSH1 0xA0 SHR AND ISZERO ISZERO SUB PUSH2 0x5EB JUMPI PUSH1 0x1 DUP1 PUSH1 0xA0 SHL SUB DUP5 AND PUSH1 0x0 MSTORE PUSH1 0x5 PUSH1 0x20 MSTORE PUSH1 0x1 DUP1 PUSH1 0xA0 SHL SUB PUSH1 0x1 PUSH1 0x40 PUSH1 0x0 KECCAK256 ADD SLOAD AND SWAP3 PUSH1 0x1 DUP1 PUSH1 0xA0 SHL SUB PUSH1 0x6 SLOAD AND DUP4 PUSH1 0x80 PUSH1 0x40 MLOAD PUSH2 0x1C2 DUP2 PUSH2 0x1102 JUMP JUMPDEST DUP3 DUP2 MSTORE DUP3 PUSH1 0x20 DUP3 ADD MSTORE DUP3 PUSH1 0x40 DUP3 ADD MSTORE PUSH1 0x0 DUP4 DUP3 ADD MSTORE ADD MSTORE PUSH1 0x40 MLOAD SWAP5 PUSH1 0x20 DUP7 ADD MSTORE PUSH1 0x20 DUP6 MSTORE PUSH2 0x1EF DUP6 PUSH2 0x111D JUMP JUMPDEST PUSH1 0x40 MLOAD PUSH1 0x20 DUP1 DUP3 ADD MSTORE PUSH2 0x217 DUP2 PUSH2 0x209 PUSH1 0x40 DUP3 ADD DUP8 PUSH2 0x1234 JUMP JUMPDEST SUB PUSH1 0x1F NOT DUP2 ADD DUP4 MSTORE DUP3 PUSH2 0x1138 JUMP JUMPDEST PUSH1 0x40 MLOAD SWAP1 PUSH1 0x20 DUP3 ADD DUP3 DUP2 LT PUSH1 0x1 PUSH1 0x1 PUSH1 0x40 SHL SUB DUP3 GT OR PUSH2 0x5D5 JUMPI PUSH1 0x40 MSTORE PUSH1 0x0 DUP3 MSTORE PUSH1 0x40 MLOAD SWAP7 PUSH2 0x245 DUP9 PUSH2 0x111D JUMP JUMPDEST PUSH3 0xC3500 DUP9 MSTORE PUSH1 0x20 DUP9 ADD PUSH1 0x0 DUP2 MSTORE PUSH1 0x40 MLOAD SWAP9 PUSH4 0x97A657C9 PUSH1 0xE0 SHL PUSH1 0x20 DUP12 ADD MSTORE MLOAD PUSH1 0x24 DUP11 ADD MSTORE MLOAD ISZERO ISZERO PUSH1 0x44 DUP10 ADD MSTORE PUSH1 0x44 DUP9 MSTORE DUP8 PUSH1 0x80 DUP2 ADD LT PUSH1 0x1 PUSH1 0x1 PUSH1 0x40 SHL SUB PUSH1 0x80 DUP11 ADD GT OR PUSH2 0x5D5 JUMPI PUSH1 0x80 DUP9 ADD PUSH1 0x40 MSTORE PUSH2 0x2A1 PUSH1 0x80 DUP10 ADD PUSH2 0x1102 JUMP JUMPDEST PUSH1 0x80 DUP9 ADD MSTORE PUSH1 0xA0 DUP8 ADD MSTORE PUSH1 0xC0 DUP7 ADD MSTORE DUP1 PUSH1 0xE0 DUP7 ADD MSTORE DUP5 PUSH2 0x100 DUP2 ADD MSTORE PUSH1 0x40 MLOAD PUSH4 0xB0F479A1 PUSH1 0xE0 SHL DUP2 MSTORE PUSH1 0x20 DUP2 PUSH1 0x4 DUP2 ADDRESS GAS STATICCALL SWAP1 DUP2 ISZERO PUSH2 0x47C JUMPI PUSH1 0x0 SWAP2 PUSH2 0x593 JUMPI JUMPDEST POP PUSH1 0x40 MLOAD PUSH4 0x20487DED PUSH1 0xE0 SHL DUP2 MSTORE SWAP2 SWAP1 PUSH1 0x1 PUSH1 0x1 PUSH1 0xA0 SHL SUB AND PUSH1 0x20 DUP4 DUP1 PUSH2 0x310 PUSH1 0x80 DUP12 ADD DUP9 PUSH1 0x4 DUP5 ADD PUSH2 0x1347 JUMP JUMPDEST SUB DUP2 DUP5 GAS STATICCALL SWAP3 DUP4 ISZERO PUSH2 0x47C JUMPI PUSH1 0x0 SWAP4 PUSH2 0x55F JUMPI JUMPDEST POP PUSH1 0x40 MLOAD PUSH4 0x70A08231 PUSH1 0xE0 SHL DUP1 DUP3 MSTORE ADDRESS PUSH1 0x4 DUP4 ADD MSTORE SWAP1 PUSH1 0x20 DUP2 PUSH1 0x24 DUP2 DUP8 GAS STATICCALL SWAP1 DUP2 ISZERO PUSH2 0x47C JUMPI PUSH1 0x0 SWAP2 PUSH2 0x52D JUMPI JUMPDEST POP DUP5 GT PUSH2 0x4B5 JUMPI POP PUSH1 0x40 MLOAD PUSH4 0x95EA7B3 PUSH1 0xE0 SHL DUP2 MSTORE PUSH1 0x1 PUSH1 0x1 PUSH1 0xA0 SHL SUB DUP3 AND PUSH1 0x4 DUP3 ADD MSTORE PUSH1 0x24 DUP2 ADD DUP5 SWAP1 MSTORE SWAP2 PUSH1 0x20 SWAP1 DUP4 SWAP1 PUSH1 0x44 SWAP1 DUP3 SWAP1 PUSH1 0x0 SWAP1 GAS CALL SWAP1 DUP2 ISZERO PUSH2 0x47C JUMPI PUSH2 0x3C4 SWAP8 PUSH1 0x20 SWAP4 PUSH1 0x80 SWAP4 PUSH2 0x488 JUMPI JUMPDEST POP PUSH1 0x0 PUSH1 0x40 MLOAD DUP1 SWAP11 DUP2 SWAP6 DUP3 SWAP5 PUSH4 0x96F4E9F9 PUSH1 0xE0 SHL DUP5 MSTORE ADD DUP10 PUSH1 0x4 DUP5 ADD PUSH2 0x1347 JUMP JUMPDEST SUB SWAP3 GAS CALL SWAP5 DUP6 ISZERO PUSH2 0x47C JUMPI PUSH1 0x0 SWAP6 PUSH2 0x443 JUMPI JUMPDEST POP SWAP2 PUSH1 0x20 SWAP6 PUSH1 0x1 PUSH1 0x1 PUSH1 0x40 SHL SUB PUSH32 0x3D8A9F055772202D2C3C1FDDBAD930D3DBE588D8692B75B84CEE071946282911 SWAP4 DUP8 SWAP6 PUSH2 0x42B PUSH1 0x40 MLOAD SWAP6 DUP7 SWAP6 PUSH1 0x1 DUP1 PUSH1 0xA0 SHL SUB AND DUP7 MSTORE PUSH1 0x80 DUP13 DUP8 ADD MSTORE PUSH1 0x80 DUP7 ADD SWAP1 PUSH2 0x1234 JUMP JUMPDEST SWAP8 PUSH1 0x0 PUSH1 0x40 DUP7 ADD MSTORE DUP5 ADD MSTORE AND SWAP5 SUB SWAP1 LOG3 PUSH1 0x40 MLOAD SWAP1 DUP2 MSTORE RETURN JUMPDEST SWAP2 SWAP5 POP SWAP2 PUSH1 0x20 DUP3 RETURNDATASIZE PUSH1 0x20 GT PUSH2 0x474 JUMPI JUMPDEST DUP2 PUSH2 0x460 PUSH1 0x20 SWAP4 DUP4 PUSH2 0x1138 JUMP JUMPDEST DUP2 ADD SUB SLT PUSH2 0xF3 JUMPI SWAP1 MLOAD SWAP4 SWAP1 SWAP2 PUSH1 0x20 PUSH2 0x3D7 JUMP JUMPDEST RETURNDATASIZE SWAP2 POP PUSH2 0x453 JUMP JUMPDEST PUSH1 0x40 MLOAD RETURNDATASIZE PUSH1 0x0 DUP3 RETURNDATACOPY RETURNDATASIZE SWAP1 REVERT JUMPDEST PUSH2 0x4A7 SWAP1 DUP6 RETURNDATASIZE DUP8 GT PUSH2 0x4AE JUMPI JUMPDEST PUSH2 0x49F DUP2 DUP4 PUSH2 0x1138 JUMP JUMPDEST DUP2 ADD SWAP1 PUSH2 0x1410 JUMP JUMPDEST POP DUP11 PUSH2 0x3A3 JUMP JUMPDEST POP RETURNDATASIZE PUSH2 0x495 JUMP JUMPDEST PUSH1 0x40 MLOAD SWAP1 DUP2 MSTORE ADDRESS PUSH1 0x4 DUP3 ADD MSTORE DUP4 PUSH1 0x20 DUP3 PUSH1 0x24 DUP2 DUP8 GAS STATICCALL SWAP1 DUP2 ISZERO PUSH2 0x47C JUMPI PUSH1 0x0 SWAP2 PUSH2 0x4F8 JUMPI JUMPDEST PUSH1 0x44 SWAP3 POP PUSH1 0x40 MLOAD SWAP2 PUSH4 0x4787A103 PUSH1 0xE1 SHL DUP4 MSTORE PUSH1 0x4 DUP4 ADD MSTORE PUSH1 0x24 DUP3 ADD MSTORE REVERT JUMPDEST SWAP1 POP PUSH1 0x20 DUP3 RETURNDATASIZE PUSH1 0x20 GT PUSH2 0x525 JUMPI JUMPDEST DUP2 PUSH2 0x513 PUSH1 0x20 SWAP4 DUP4 PUSH2 0x1138 JUMP JUMPDEST DUP2 ADD SUB SLT PUSH2 0xF3 JUMPI PUSH1 0x44 SWAP2 MLOAD SWAP1 PUSH2 0x4DA JUMP JUMPDEST RETURNDATASIZE SWAP2 POP PUSH2 0x506 JUMP JUMPDEST SWAP1 POP PUSH1 0x20 DUP2 RETURNDATASIZE PUSH1 0x20 GT PUSH2 0x557 JUMPI JUMPDEST DUP2 PUSH2 0x548 PUSH1 0x20 SWAP4 DUP4 PUSH2 0x1138 JUMP JUMPDEST DUP2 ADD SUB SLT PUSH2 0xF3 JUMPI MLOAD DUP11 PUSH2 0x352 JUMP JUMPDEST RETURNDATASIZE SWAP2 POP PUSH2 0x53B JUMP JUMPDEST SWAP1 SWAP3 POP PUSH1 0x20 DUP2 RETURNDATASIZE PUSH1 0x20 GT PUSH2 0x58B JUMPI JUMPDEST DUP2 PUSH2 0x57B PUSH1 0x20 SWAP4 DUP4 PUSH2 0x1138 JUMP JUMPDEST DUP2 ADD SUB SLT PUSH2 0xF3 JUMPI MLOAD SWAP2 DUP9 PUSH2 0x324 JUMP JUMPDEST RETURNDATASIZE SWAP2 POP PUSH2 0x56E JUMP JUMPDEST SWAP1 POP PUSH1 0x20 DUP2 RETURNDATASIZE PUSH1 0x20 GT PUSH2 0x5CD JUMPI JUMPDEST DUP2 PUSH2 0x5AE PUSH1 0x20 SWAP4 DUP4 PUSH2 0x1138 JUMP JUMPDEST DUP2 ADD SUB SLT PUSH2 0xF3 JUMPI MLOAD PUSH1 0x1 PUSH1 0x1 PUSH1 0xA0 SHL SUB DUP2 AND DUP2 SUB PUSH2 0xF3 JUMPI DUP8 PUSH2 0x2E2 JUMP JUMPDEST RETURNDATASIZE SWAP2 POP PUSH2 0x5A1 JUMP JUMPDEST PUSH4 0x4E487B71 PUSH1 0xE0 SHL PUSH1 0x0 MSTORE PUSH1 0x41 PUSH1 0x4 MSTORE PUSH1 0x24 PUSH1 0x0 REVERT JUMPDEST PUSH1 0x40 MLOAD PUSH3 0x461BCD PUSH1 0xE5 SHL DUP2 MSTORE PUSH1 0x20 PUSH1 0x4 DUP3 ADD MSTORE PUSH1 0x25 PUSH1 0x24 DUP3 ADD MSTORE PUSH32 0x54686973207265636569766572206973206E6F742077686974656C6973746564 PUSH1 0x44 DUP3 ADD MSTORE PUSH5 0x2079657421 PUSH1 0xD8 SHL PUSH1 0x64 DUP3 ADD MSTORE PUSH1 0x84 SWAP1 REVERT JUMPDEST PUSH1 0x40 MLOAD PUSH3 0x461BCD PUSH1 0xE5 SHL DUP2 MSTORE PUSH1 0x20 PUSH1 0x4 DUP3 ADD MSTORE PUSH1 0x1F PUSH1 0x24 DUP3 ADD MSTORE PUSH32 0x456E74657220612076616C696420726563656976657220616464726573732100 PUSH1 0x44 DUP3 ADD MSTORE PUSH1 0x64 SWAP1 REVERT JUMPDEST CALLVALUE PUSH2 0xF3 JUMPI PUSH1 0x3 NOT PUSH1 0x20 CALLDATASIZE DUP3 ADD DUP2 SGT PUSH2 0xF3 JUMPI PUSH1 0x4 CALLDATALOAD PUSH1 0x1 PUSH1 0x1 PUSH1 0x40 SHL SUB SWAP3 DUP4 DUP3 GT PUSH2 0xF3 JUMPI PUSH1 0xA0 SWAP1 DUP3 CALLDATASIZE SUB ADD SLT PUSH2 0xF3 JUMPI PUSH1 0x1 PUSH1 0x1 PUSH1 0xA0 SHL SUB SWAP2 PUSH32 0x0 DUP4 AND CALLER SUB PUSH2 0x9DC JUMPI PUSH1 0x40 MLOAD SWAP3 PUSH2 0x6F4 DUP5 PUSH2 0x1102 JUMP JUMPDEST DUP3 PUSH1 0x4 ADD CALLDATALOAD DUP5 MSTORE PUSH1 0x24 DUP4 ADD CALLDATALOAD SWAP4 DUP6 DUP6 AND DUP6 SUB PUSH2 0xF3 JUMPI DUP3 DUP2 ADD SWAP5 DUP6 MSTORE PUSH1 0x44 DUP5 ADD CALLDATALOAD DUP7 DUP2 GT PUSH2 0xF3 JUMPI PUSH2 0x72C SWAP1 PUSH1 0x4 CALLDATASIZE SWAP2 DUP8 ADD ADD PUSH2 0x126F JUMP JUMPDEST SWAP6 PUSH1 0x40 DUP3 ADD SWAP7 DUP8 MSTORE PUSH1 0x64 DUP6 ADD CALLDATALOAD DUP2 DUP2 GT PUSH2 0xF3 JUMPI PUSH2 0x750 SWAP1 PUSH1 0x4 CALLDATASIZE SWAP2 DUP9 ADD ADD PUSH2 0x126F JUMP JUMPDEST SWAP5 PUSH1 0x60 DUP4 ADD SWAP6 DUP7 MSTORE PUSH1 0x84 DUP2 ADD CALLDATALOAD SWAP1 DUP3 DUP3 GT PUSH2 0xF3 JUMPI ADD SWAP2 CALLDATASIZE PUSH1 0x23 DUP5 ADD SLT ISZERO PUSH2 0xF3 JUMPI PUSH1 0x4 DUP4 ADD CALLDATALOAD SWAP3 DUP3 DUP5 GT PUSH2 0x5D5 JUMPI PUSH1 0x40 MLOAD SWAP4 PUSH2 0x792 DUP8 DUP3 PUSH1 0x5 SHL ADD DUP7 PUSH2 0x1138 JUMP JUMPDEST DUP1 DUP6 MSTORE PUSH1 0x24 DUP8 DUP7 ADD SWAP2 PUSH1 0x6 SHL DUP4 ADD ADD SWAP2 CALLDATASIZE DUP4 GT PUSH2 0xF3 JUMPI PUSH1 0x24 ADD SWAP1 JUMPDEST DUP3 DUP3 LT PUSH2 0x99F JUMPI POP POP POP PUSH1 0x80 DUP2 ADD SWAP3 DUP4 MSTORE DUP1 MLOAD PUSH1 0x0 SSTORE PUSH2 0x7D7 DUP7 MLOAD DUP7 DUP1 DUP3 MLOAD DUP4 ADD ADD SWAP2 ADD PUSH2 0x1428 JUMP JUMPDEST DUP1 MLOAD DUP4 DUP2 GT PUSH2 0x5D5 JUMPI DUP1 PUSH1 0x1 SWAP3 PUSH2 0x7EE DUP5 SLOAD PUSH2 0x11D7 JUMP JUMPDEST PUSH1 0x1F DUP2 GT PUSH2 0x947 JUMPI JUMPDEST POP DUP9 SWAP1 PUSH1 0x1F DUP4 GT PUSH1 0x1 EQ PUSH2 0x8C7 JUMPI PUSH1 0x0 SWAP3 PUSH2 0x8BC JUMPI JUMPDEST POP POP PUSH1 0x0 NOT PUSH1 0x3 DUP4 SWAP1 SHL SHR NOT AND SWAP1 DUP3 SHL OR SWAP1 SSTORE JUMPDEST MLOAD SWAP6 MLOAD AND SWAP6 MLOAD DUP4 DUP2 DUP1 MLOAD DUP2 ADD SUB SLT PUSH2 0xF3 JUMPI DUP4 ADD MLOAD SWAP2 DUP1 DUP4 AND DUP1 SWAP4 SUB PUSH2 0xF3 JUMPI PUSH2 0x8AC DUP5 PUSH2 0x891 PUSH2 0x87C PUSH32 0x90EC910A8F80BB04E184A806E2AE6F8786EF2AE898859A3180F953397EDC1201 SWAP9 MLOAD DUP4 DUP1 DUP3 MLOAD DUP4 ADD ADD SWAP2 ADD PUSH2 0x1428 JUMP JUMPDEST SWAP4 PUSH2 0x887 DUP7 MLOAD PUSH2 0x1486 JUMP JUMPDEST MLOAD MLOAD AND SWAP5 MLOAD PUSH2 0x1486 JUMP JUMPDEST MLOAD ADD MLOAD SWAP2 PUSH1 0x80 PUSH1 0x40 MLOAD SWAP7 DUP8 SWAP7 DUP8 MSTORE DUP7 ADD MSTORE PUSH1 0x80 DUP6 ADD SWAP1 PUSH2 0x1234 JUMP JUMPDEST SWAP2 PUSH1 0x40 DUP5 ADD MSTORE PUSH1 0x60 DUP4 ADD MSTORE SUB SWAP1 LOG3 STOP JUMPDEST ADD MLOAD SWAP1 POP DUP12 DUP1 PUSH2 0x80D JUMP JUMPDEST SWAP1 DUP5 SWAP4 POP PUSH1 0x1F NOT DUP4 AND SWAP2 DUP5 PUSH1 0x0 MSTORE PUSH32 0xB10E2D527612073B26EECDFD717E6A320CF44B4AFAC2B0732D9FCBE2B7FA0CF6 SWAP3 PUSH1 0x0 JUMPDEST DUP13 DUP3 DUP3 LT PUSH2 0x931 JUMPI POP POP DUP5 GT PUSH2 0x918 JUMPI JUMPDEST POP POP POP DUP2 SHL ADD SWAP1 SSTORE PUSH2 0x821 JUMP JUMPDEST ADD MLOAD PUSH1 0x0 NOT PUSH1 0xF8 DUP5 PUSH1 0x3 SHL AND SHR NOT AND SWAP1 SSTORE DUP12 DUP1 DUP1 PUSH2 0x90B JUMP JUMPDEST DUP4 DUP6 ADD MLOAD DUP7 SSTORE DUP9 SWAP8 SWAP1 SWAP6 ADD SWAP5 SWAP4 DUP5 ADD SWAP4 ADD PUSH2 0x8FA JUMP JUMPDEST PUSH2 0x98F SWAP1 DUP6 PUSH1 0x0 MSTORE PUSH32 0xB10E2D527612073B26EECDFD717E6A320CF44B4AFAC2B0732D9FCBE2B7FA0CF6 PUSH1 0x1F DUP6 ADD PUSH1 0x5 SHR DUP2 ADD SWAP2 DUP13 DUP7 LT PUSH2 0x995 JUMPI JUMPDEST PUSH1 0x1F ADD PUSH1 0x5 SHR ADD SWAP1 PUSH2 0x1330 JUMP JUMPDEST DUP13 PUSH2 0x7F7 JUMP JUMPDEST SWAP1 SWAP2 POP DUP2 SWAP1 PUSH2 0x982 JUMP JUMPDEST PUSH1 0x40 DUP3 CALLDATASIZE SUB SLT PUSH2 0xF3 JUMPI PUSH1 0x40 MLOAD SWAP1 PUSH2 0x9B6 DUP3 PUSH2 0x111D JUMP JUMPDEST DUP3 CALLDATALOAD SWAP1 DUP9 DUP3 AND DUP3 SUB PUSH2 0xF3 JUMPI DUP3 DUP11 SWAP3 PUSH1 0x40 SWAP5 MSTORE DUP3 DUP6 ADD CALLDATALOAD DUP4 DUP3 ADD MSTORE DUP2 MSTORE ADD SWAP2 ADD SWAP1 PUSH2 0x7AE JUMP JUMPDEST PUSH1 0x40 MLOAD PUSH4 0x35FDCCCD PUSH1 0xE2 SHL DUP2 MSTORE CALLER PUSH1 0x4 DUP3 ADD MSTORE PUSH1 0x24 SWAP1 REVERT JUMPDEST CALLVALUE PUSH2 0xF3 JUMPI PUSH1 0x20 CALLDATASIZE PUSH1 0x3 NOT ADD SLT PUSH2 0xF3 JUMPI PUSH1 0x1 PUSH1 0x1 PUSH1 0x40 SHL SUB PUSH2 0xA15 PUSH2 0x1259 JUMP JUMPDEST AND PUSH1 0x0 MSTORE PUSH1 0x4 PUSH1 0x20 MSTORE PUSH1 0x20 PUSH1 0xFF PUSH1 0x40 PUSH1 0x0 KECCAK256 SLOAD AND PUSH1 0x40 MLOAD SWAP1 ISZERO ISZERO DUP2 MSTORE RETURN JUMPDEST CALLVALUE PUSH2 0xF3 JUMPI PUSH1 0x20 CALLDATASIZE PUSH1 0x3 NOT ADD SLT PUSH2 0xF3 JUMPI PUSH1 0x1 PUSH1 0x1 PUSH1 0x40 SHL SUB PUSH2 0xA54 PUSH2 0x1259 JUMP JUMPDEST PUSH2 0xA69 PUSH1 0x1 DUP1 PUSH1 0xA0 SHL SUB PUSH1 0x3 SLOAD AND CALLER EQ PUSH2 0x128D JUMP JUMPDEST AND PUSH1 0x0 SWAP1 DUP2 MSTORE PUSH1 0x4 PUSH1 0x20 MSTORE PUSH1 0x40 SWAP1 KECCAK256 DUP1 SLOAD PUSH1 0xFF NOT AND PUSH1 0x1 OR SWAP1 SSTORE STOP JUMPDEST CALLVALUE PUSH2 0xF3 JUMPI PUSH1 0x20 CALLDATASIZE PUSH1 0x3 NOT ADD SLT PUSH2 0xF3 JUMPI PUSH1 0x1 PUSH1 0x1 PUSH1 0x40 SHL SUB PUSH2 0xAA6 PUSH2 0x1259 JUMP JUMPDEST PUSH2 0xABB PUSH1 0x1 DUP1 PUSH1 0xA0 SHL SUB PUSH1 0x3 SLOAD AND CALLER EQ PUSH2 0x128D JUMP JUMPDEST AND PUSH1 0x0 SWAP1 DUP2 MSTORE PUSH1 0x4 PUSH1 0x20 MSTORE PUSH1 0x40 SWAP1 KECCAK256 DUP1 SLOAD PUSH1 0xFF NOT AND SWAP1 SSTORE STOP JUMPDEST CALLVALUE PUSH2 0xF3 JUMPI PUSH1 0x20 CALLDATASIZE PUSH1 0x3 NOT ADD SLT PUSH2 0xF3 JUMPI PUSH32 0xC98322FDDCB9467A648BDA840E8C0844A6A420E0A62AF038077F0DE932E72966 PUSH1 0x20 PUSH2 0xB10 PUSH2 0x11C1 JUMP JUMPDEST PUSH1 0x3 SLOAD PUSH1 0x1 PUSH1 0x1 PUSH1 0xA0 SHL SUB SWAP2 SWAP1 PUSH2 0xB2A SWAP1 DUP4 AND CALLER EQ PUSH2 0x128D JUMP JUMPDEST AND DUP1 PUSH1 0x0 MSTORE PUSH1 0x5 DUP3 MSTORE PUSH2 0xB4E PUSH1 0x1 PUSH1 0xFF DUP2 PUSH1 0x40 PUSH1 0x0 KECCAK256 ADD SLOAD PUSH1 0xA0 SHR AND ISZERO ISZERO EQ PUSH2 0x12E4 JUMP JUMPDEST DUP1 PUSH1 0x0 MSTORE PUSH1 0x5 DUP3 MSTORE PUSH1 0x0 PUSH1 0x1 PUSH1 0x40 DUP3 KECCAK256 PUSH2 0xB68 DUP2 SLOAD PUSH2 0x11D7 JUMP JUMPDEST DUP1 PUSH2 0xB7A JUMPI JUMPDEST POP ADD SSTORE PUSH1 0x40 MLOAD SWAP1 DUP2 MSTORE LOG1 STOP JUMPDEST PUSH1 0x1F DUP2 GT DUP4 EQ PUSH2 0xB8F JUMPI POP DUP3 DUP2 SSTORE JUMPDEST DUP7 PUSH2 0xB6E JUMP JUMPDEST DUP4 SWAP1 DUP3 DUP3 MSTORE PUSH2 0xBAB PUSH1 0x1F DUP9 DUP5 KECCAK256 SWAP3 ADD PUSH1 0x5 SHR DUP3 ADD DUP6 DUP4 ADD PUSH2 0x1330 JUMP JUMPDEST DUP2 DUP4 SSTORE SSTORE PUSH2 0xB89 JUMP JUMPDEST CALLVALUE PUSH2 0xF3 JUMPI PUSH1 0x20 CALLDATASIZE PUSH1 0x3 NOT ADD SLT PUSH2 0xF3 JUMPI PUSH2 0xBCD PUSH2 0x11C1 JUMP JUMPDEST SELFBALANCE SWAP1 DUP2 ISZERO PUSH2 0xC43 JUMPI PUSH1 0x0 DUP1 DUP1 DUP1 DUP6 DUP6 GAS CALL RETURNDATASIZE ISZERO PUSH2 0xC3E JUMPI RETURNDATASIZE PUSH2 0xBEE DUP2 PUSH2 0x1159 JUMP JUMPDEST SWAP1 PUSH2 0xBFC PUSH1 0x40 MLOAD SWAP3 DUP4 PUSH2 0x1138 JUMP JUMPDEST DUP2 MSTORE PUSH1 0x0 PUSH1 0x20 RETURNDATASIZE SWAP3 ADD RETURNDATACOPY JUMPDEST ISZERO PUSH2 0xC0E JUMPI STOP JUMPDEST PUSH1 0x40 MLOAD PUSH4 0x9D11F563 PUSH1 0xE0 SHL DUP2 MSTORE CALLER PUSH1 0x4 DUP3 ADD MSTORE PUSH1 0x1 PUSH1 0x1 PUSH1 0xA0 SHL SUB SWAP1 SWAP2 AND PUSH1 0x24 DUP3 ADD MSTORE PUSH1 0x44 DUP2 ADD SWAP2 SWAP1 SWAP2 MSTORE PUSH1 0x64 SWAP1 REVERT JUMPDEST PUSH2 0xC07 JUMP JUMPDEST PUSH1 0x40 MLOAD PUSH4 0x686827B PUSH1 0xE5 SHL DUP2 MSTORE PUSH1 0x4 SWAP1 REVERT JUMPDEST CALLVALUE PUSH2 0xF3 JUMPI PUSH1 0x40 CALLDATASIZE PUSH1 0x3 NOT ADD SLT PUSH2 0xF3 JUMPI PUSH2 0xC6E PUSH2 0x11C1 JUMP JUMPDEST PUSH1 0x1 PUSH1 0x1 PUSH1 0xA0 SHL SUB PUSH2 0xC7E PUSH2 0x11AB JUMP JUMPDEST AND PUSH1 0x40 MLOAD SWAP2 PUSH4 0x70A08231 PUSH1 0xE0 SHL DUP4 MSTORE ADDRESS PUSH1 0x4 DUP5 ADD MSTORE PUSH1 0x20 SWAP3 DUP4 DUP2 PUSH1 0x24 DUP2 DUP7 GAS STATICCALL SWAP1 DUP2 ISZERO PUSH2 0x47C JUMPI PUSH1 0x0 SWAP2 PUSH2 0xD08 JUMPI JUMPDEST POP DUP1 ISZERO PUSH2 0xC43 JUMPI PUSH1 0x40 MLOAD PUSH4 0xA9059CBB PUSH1 0xE0 SHL DUP2 MSTORE PUSH1 0x1 PUSH1 0x1 PUSH1 0xA0 SHL SUB SWAP3 SWAP1 SWAP3 AND PUSH1 0x4 DUP4 ADD MSTORE PUSH1 0x24 DUP3 ADD MSTORE SWAP1 DUP3 SWAP1 DUP3 SWAP1 PUSH1 0x44 SWAP1 DUP3 SWAP1 PUSH1 0x0 SWAP1 GAS CALL DUP1 ISZERO PUSH2 0x47C JUMPI PUSH2 0xCF2 JUMPI STOP JUMPDEST DUP2 PUSH2 0x1B SWAP3 SWAP1 RETURNDATASIZE LT PUSH2 0x4AE JUMPI PUSH2 0x49F DUP2 DUP4 PUSH2 0x1138 JUMP JUMPDEST SWAP1 POP DUP4 DUP2 DUP2 RETURNDATASIZE DUP4 GT PUSH2 0xD2E JUMPI JUMPDEST PUSH2 0xD1F DUP2 DUP4 PUSH2 0x1138 JUMP JUMPDEST DUP2 ADD SUB SLT PUSH2 0xF3 JUMPI MLOAD DUP5 PUSH2 0xCAD JUMP JUMPDEST POP RETURNDATASIZE PUSH2 0xD15 JUMP JUMPDEST CALLVALUE PUSH2 0xF3 JUMPI PUSH1 0x20 DUP1 PUSH1 0x3 NOT CALLDATASIZE ADD SLT PUSH2 0xF3 JUMPI PUSH1 0x1 PUSH1 0x1 PUSH1 0xA0 SHL SUB DUP1 PUSH2 0xD58 PUSH2 0x11C1 JUMP JUMPDEST AND PUSH1 0x0 MSTORE PUSH1 0x5 DUP3 MSTORE PUSH1 0x40 PUSH1 0x0 KECCAK256 SWAP1 PUSH1 0x40 MLOAD SWAP2 PUSH1 0x0 SWAP1 DUP1 SLOAD SWAP2 PUSH2 0xD79 DUP4 PUSH2 0x11D7 JUMP JUMPDEST DUP1 DUP7 MSTORE PUSH1 0x1 SWAP4 DUP1 DUP6 AND SWAP1 DUP2 ISZERO PUSH2 0xE08 JUMPI POP PUSH1 0x1 EQ PUSH2 0xDD4 JUMPI JUMPDEST POP SWAP2 PUSH2 0xDBE SWAP6 SWAP2 PUSH2 0xDA7 DUP7 PUSH1 0xFF SWAP6 SUB DUP8 PUSH2 0x1138 JUMP JUMPDEST ADD SLOAD SWAP1 PUSH1 0x40 MLOAD SWAP6 DUP7 SWAP6 PUSH1 0x60 DUP8 MSTORE PUSH1 0x60 DUP8 ADD SWAP1 PUSH2 0x1234 JUMP JUMPDEST SWAP4 DUP3 AND SWAP1 DUP6 ADD MSTORE PUSH1 0xA0 SHR AND ISZERO ISZERO PUSH1 0x40 DUP4 ADD MSTORE SUB SWAP1 RETURN JUMPDEST PUSH1 0x0 DUP4 DUP2 MSTORE DUP8 DUP2 KECCAK256 SWAP1 SWAP3 POP JUMPDEST DUP2 DUP4 LT PUSH2 0xDF5 JUMPI POP POP DUP5 ADD DUP6 ADD PUSH2 0xDBE PUSH2 0xD92 JUMP JUMPDEST DUP1 SLOAD DUP8 DUP5 ADD DUP10 ADD MSTORE SWAP2 DUP8 ADD SWAP2 DUP5 ADD PUSH2 0xDE0 JUMP JUMPDEST PUSH1 0xFF NOT AND DUP8 DUP10 ADD MSTORE POP ISZERO ISZERO PUSH1 0x5 SHL DUP6 ADD DUP7 ADD SWAP1 POP PUSH2 0xDBE PUSH2 0xD92 JUMP JUMPDEST CALLVALUE PUSH2 0xF3 JUMPI PUSH1 0x40 CALLDATASIZE PUSH1 0x3 NOT ADD SLT PUSH2 0xF3 JUMPI PUSH1 0x1 PUSH1 0x1 PUSH1 0x40 SHL SUB PUSH1 0x4 CALLDATALOAD DUP2 DUP2 GT PUSH2 0xF3 JUMPI CALLDATASIZE PUSH1 0x23 DUP3 ADD SLT ISZERO PUSH2 0xF3 JUMPI PUSH2 0xE66 SWAP1 CALLDATASIZE SWAP1 PUSH1 0x24 DUP2 PUSH1 0x4 ADD CALLDATALOAD SWAP2 ADD PUSH2 0x1174 JUMP JUMPDEST PUSH2 0xE6E PUSH2 0x11AB JUMP JUMPDEST PUSH1 0x3 SLOAD PUSH1 0x1 PUSH1 0x1 PUSH1 0xA0 SHL SUB SWAP2 DUP3 SWAP2 PUSH2 0xE89 SWAP1 DUP4 AND CALLER EQ PUSH2 0x128D JUMP JUMPDEST AND DUP1 ISZERO PUSH2 0x1071 JUMPI DUP1 PUSH1 0x0 MSTORE PUSH1 0x20 SWAP2 PUSH1 0x5 DUP4 MSTORE PUSH1 0x1 SWAP1 PUSH2 0xEB5 PUSH1 0xFF DUP4 PUSH1 0x40 PUSH1 0x0 KECCAK256 ADD SLOAD PUSH1 0xA0 SHR AND ISZERO PUSH2 0x12E4 JUMP JUMPDEST PUSH1 0x40 MLOAD SWAP1 PUSH1 0x60 DUP3 ADD DUP3 DUP2 LT DUP9 DUP3 GT OR PUSH2 0x5D5 JUMPI PUSH1 0x40 MSTORE DUP6 DUP3 MSTORE DUP5 DUP3 ADD SWAP3 DUP5 DUP5 MSTORE PUSH1 0x40 DUP4 ADD SWAP3 DUP2 DUP5 MSTORE DUP6 PUSH1 0x0 MSTORE PUSH1 0x5 DUP8 MSTORE PUSH1 0x40 PUSH1 0x0 KECCAK256 SWAP1 MLOAD SWAP9 DUP10 MLOAD SWAP1 DUP2 GT PUSH2 0x5D5 JUMPI PUSH2 0xF00 DUP3 SLOAD PUSH2 0x11D7 JUMP JUMPDEST PUSH1 0x1F DUP2 GT PUSH2 0x1041 JUMPI JUMPDEST POP DUP8 PUSH1 0x1F DUP3 GT PUSH1 0x1 EQ PUSH2 0xFB3 JUMPI SWAP1 DUP1 PUSH2 0xF9F SWAP11 SWAP10 SWAP9 SWAP8 SWAP7 SWAP6 SWAP5 SWAP4 SWAP3 PUSH32 0x619FACC3344A864638BDF6B94FAEBE32FEA796ECCC10AB263D90DA8B44C42BE4 SWAP13 PUSH1 0x0 SWAP3 PUSH2 0xFA8 JUMPI JUMPDEST POP POP PUSH1 0x0 NOT PUSH1 0x3 DUP4 SWAP1 SHL SHR NOT AND SWAP1 DUP4 SHL OR DUP2 SSTORE JUMPDEST ADD SWAP3 MLOAD AND DUP3 SLOAD SWAP2 PUSH1 0xFF PUSH1 0xA0 SHL SWAP1 MLOAD ISZERO ISZERO PUSH1 0xA0 SHL AND SWAP2 PUSH11 0xFFFFFFFFFFFFFFFFFFFFFF PUSH1 0xA8 SHL AND OR OR SWAP1 SSTORE PUSH1 0x40 MLOAD SWAP4 DUP5 SWAP4 PUSH1 0x40 DUP6 MSTORE PUSH1 0x40 DUP6 ADD SWAP1 PUSH2 0x1234 JUMP JUMPDEST SWAP2 DUP4 ADD MSTORE SUB SWAP1 LOG1 STOP JUMPDEST ADD MLOAD SWAP1 POP DUP13 DUP1 PUSH2 0xF4E JUMP JUMPDEST PUSH1 0x1F NOT DUP3 AND SWAP1 DUP4 PUSH1 0x0 MSTORE DUP10 PUSH1 0x0 KECCAK256 SWAP2 PUSH1 0x0 JUMPDEST DUP2 DUP2 LT PUSH2 0x102C JUMPI POP SWAP2 DUP4 SWAP2 PUSH32 0x619FACC3344A864638BDF6B94FAEBE32FEA796ECCC10AB263D90DA8B44C42BE4 SWAP14 DUP8 SWAP7 SWAP6 PUSH2 0xF9F SWAP15 SWAP14 SWAP13 SWAP12 SWAP11 SWAP10 SWAP9 SWAP6 LT PUSH2 0x1013 JUMPI JUMPDEST POP POP POP DUP2 SHL ADD DUP2 SSTORE PUSH2 0xF62 JUMP JUMPDEST ADD MLOAD PUSH1 0x0 NOT PUSH1 0xF8 DUP5 PUSH1 0x3 SHL AND SHR NOT AND SWAP1 SSTORE DUP13 DUP1 DUP1 PUSH2 0x1006 JUMP JUMPDEST DUP14 DUP4 ADD MLOAD DUP5 SSTORE SWAP3 DUP7 ADD SWAP3 SWAP2 DUP12 ADD SWAP2 DUP12 ADD PUSH2 0xFC5 JUMP JUMPDEST PUSH2 0x106B SWAP1 DUP4 PUSH1 0x0 MSTORE DUP10 PUSH1 0x0 KECCAK256 PUSH1 0x1F DUP5 ADD PUSH1 0x5 SHR DUP2 ADD SWAP2 DUP12 DUP6 LT PUSH2 0x995 JUMPI PUSH1 0x1F ADD PUSH1 0x5 SHR ADD SWAP1 PUSH2 0x1330 JUMP JUMPDEST DUP11 PUSH2 0xF09 JUMP JUMPDEST PUSH1 0x40 MLOAD PUSH3 0x461BCD PUSH1 0xE5 SHL DUP2 MSTORE PUSH1 0x20 PUSH1 0x4 DUP3 ADD MSTORE PUSH1 0x16 PUSH1 0x24 DUP3 ADD MSTORE PUSH22 0x456E74657220612076616C6964206164647265737321 PUSH1 0x50 SHL PUSH1 0x44 DUP3 ADD MSTORE PUSH1 0x64 SWAP1 REVERT JUMPDEST CALLVALUE PUSH2 0xF3 JUMPI PUSH1 0x20 CALLDATASIZE PUSH1 0x3 NOT ADD SLT PUSH2 0xF3 JUMPI PUSH1 0x4 CALLDATALOAD SWAP1 PUSH4 0xFFFFFFFF PUSH1 0xE0 SHL DUP3 AND DUP1 SWAP3 SUB PUSH2 0xF3 JUMPI PUSH1 0x20 SWAP2 PUSH4 0x85572FFB PUSH1 0xE0 SHL DUP2 EQ SWAP1 DUP2 ISZERO PUSH2 0x10F1 JUMPI JUMPDEST POP ISZERO ISZERO DUP2 MSTORE RETURN JUMPDEST PUSH4 0x1FFC9A7 PUSH1 0xE0 SHL EQ SWAP1 POP DUP4 PUSH2 0x10EA JUMP JUMPDEST PUSH1 0xA0 DUP2 ADD SWAP1 DUP2 LT PUSH1 0x1 PUSH1 0x1 PUSH1 0x40 SHL SUB DUP3 GT OR PUSH2 0x5D5 JUMPI PUSH1 0x40 MSTORE JUMP JUMPDEST PUSH1 0x40 DUP2 ADD SWAP1 DUP2 LT PUSH1 0x1 PUSH1 0x1 PUSH1 0x40 SHL SUB DUP3 GT OR PUSH2 0x5D5 JUMPI PUSH1 0x40 MSTORE JUMP JUMPDEST SWAP1 PUSH1 0x1F DUP1 NOT SWAP2 ADD AND DUP2 ADD SWAP1 DUP2 LT PUSH1 0x1 PUSH1 0x1 PUSH1 0x40 SHL SUB DUP3 GT OR PUSH2 0x5D5 JUMPI PUSH1 0x40 MSTORE JUMP JUMPDEST PUSH1 0x1 PUSH1 0x1 PUSH1 0x40 SHL SUB DUP2 GT PUSH2 0x5D5 JUMPI PUSH1 0x1F ADD PUSH1 0x1F NOT AND PUSH1 0x20 ADD SWAP1 JUMP JUMPDEST SWAP3 SWAP2 SWAP3 PUSH2 0x1180 DUP3 PUSH2 0x1159 JUMP JUMPDEST SWAP2 PUSH2 0x118E PUSH1 0x40 MLOAD SWAP4 DUP5 PUSH2 0x1138 JUMP JUMPDEST DUP3 SWAP5 DUP2 DUP5 MSTORE DUP2 DUP4 ADD GT PUSH2 0xF3 JUMPI DUP3 DUP2 PUSH1 0x20 SWAP4 DUP5 PUSH1 0x0 SWAP7 ADD CALLDATACOPY ADD ADD MSTORE JUMP JUMPDEST PUSH1 0x24 CALLDATALOAD SWAP1 PUSH1 0x1 PUSH1 0x1 PUSH1 0xA0 SHL SUB DUP3 AND DUP3 SUB PUSH2 0xF3 JUMPI JUMP JUMPDEST PUSH1 0x4 CALLDATALOAD SWAP1 PUSH1 0x1 PUSH1 0x1 PUSH1 0xA0 SHL SUB DUP3 AND DUP3 SUB PUSH2 0xF3 JUMPI JUMP JUMPDEST SWAP1 PUSH1 0x1 DUP3 DUP2 SHR SWAP3 AND DUP1 ISZERO PUSH2 0x1207 JUMPI JUMPDEST PUSH1 0x20 DUP4 LT EQ PUSH2 0x11F1 JUMPI JUMP JUMPDEST PUSH4 0x4E487B71 PUSH1 0xE0 SHL PUSH1 0x0 MSTORE PUSH1 0x22 PUSH1 0x4 MSTORE PUSH1 0x24 PUSH1 0x0 REVERT JUMPDEST SWAP2 PUSH1 0x7F AND SWAP2 PUSH2 0x11E6 JUMP JUMPDEST PUSH1 0x0 JUMPDEST DUP4 DUP2 LT PUSH2 0x1224 JUMPI POP POP PUSH1 0x0 SWAP2 ADD MSTORE JUMP JUMPDEST DUP2 DUP2 ADD MLOAD DUP4 DUP3 ADD MSTORE PUSH1 0x20 ADD PUSH2 0x1214 JUMP JUMPDEST SWAP1 PUSH1 0x20 SWAP2 PUSH2 0x124D DUP2 MLOAD DUP1 SWAP3 DUP2 DUP6 MSTORE DUP6 DUP1 DUP7 ADD SWAP2 ADD PUSH2 0x1211 JUMP JUMPDEST PUSH1 0x1F ADD PUSH1 0x1F NOT AND ADD ADD SWAP1 JUMP JUMPDEST PUSH1 0x4 CALLDATALOAD SWAP1 PUSH1 0x1 PUSH1 0x1 PUSH1 0x40 SHL SUB DUP3 AND DUP3 SUB PUSH2 0xF3 JUMPI JUMP JUMPDEST SWAP1 DUP1 PUSH1 0x1F DUP4 ADD SLT ISZERO PUSH2 0xF3 JUMPI DUP2 PUSH1 0x20 PUSH2 0x128A SWAP4 CALLDATALOAD SWAP2 ADD PUSH2 0x1174 JUMP JUMPDEST SWAP1 JUMP JUMPDEST ISZERO PUSH2 0x1294 JUMPI JUMP JUMPDEST PUSH1 0x40 MLOAD PUSH3 0x461BCD PUSH1 0xE5 SHL DUP2 MSTORE PUSH1 0x20 PUSH1 0x4 DUP3 ADD MSTORE PUSH1 0x22 PUSH1 0x24 DUP3 ADD MSTORE PUSH32 0x4F6E6C79204F776E65722063616E2063616C6C20746869732066756E6374696F PUSH1 0x44 DUP3 ADD MSTORE PUSH2 0x6E21 PUSH1 0xF0 SHL PUSH1 0x64 DUP3 ADD MSTORE PUSH1 0x84 SWAP1 REVERT JUMPDEST ISZERO PUSH2 0x12EB JUMPI JUMP JUMPDEST PUSH1 0x40 MLOAD PUSH3 0x461BCD PUSH1 0xE5 SHL DUP2 MSTORE PUSH1 0x20 PUSH1 0x4 DUP3 ADD MSTORE PUSH1 0x1F PUSH1 0x24 DUP3 ADD MSTORE PUSH32 0x526563656976657220697320616C726561647920726567697374657265642100 PUSH1 0x44 DUP3 ADD MSTORE PUSH1 0x64 SWAP1 REVERT JUMPDEST DUP2 DUP2 LT PUSH2 0x133B JUMPI POP POP JUMP JUMPDEST PUSH1 0x0 DUP2 SSTORE PUSH1 0x1 ADD PUSH2 0x1330 JUMP JUMPDEST SWAP1 PUSH1 0x1 PUSH1 0x1 PUSH1 0x40 SHL SUB SWAP1 SWAP4 SWAP3 SWAP4 AND DUP2 MSTORE PUSH1 0x40 PUSH1 0x20 SWAP2 DUP2 DUP4 DUP3 ADD MSTORE PUSH2 0x1376 DUP6 MLOAD PUSH1 0xA0 DUP5 DUP5 ADD MSTORE PUSH1 0xE0 DUP4 ADD SWAP1 PUSH2 0x1234 JUMP JUMPDEST SWAP2 PUSH2 0x1392 DUP5 DUP8 ADD MLOAD SWAP4 PUSH1 0x3F NOT SWAP5 DUP6 DUP6 DUP4 SUB ADD PUSH1 0x60 DUP7 ADD MSTORE PUSH2 0x1234 JUMP JUMPDEST DUP2 DUP8 ADD MLOAD SWAP5 DUP5 DUP5 DUP4 SUB ADD PUSH1 0x80 DUP6 ADD MSTORE DUP1 DUP1 DUP8 MLOAD SWAP4 DUP5 DUP2 MSTORE ADD SWAP7 ADD SWAP3 PUSH1 0x0 SWAP1 JUMPDEST DUP4 DUP3 LT PUSH2 0x13E7 JUMPI POP POP POP POP POP PUSH1 0xC0 PUSH1 0x80 PUSH2 0x128A SWAP6 SWAP7 PUSH1 0x1 DUP1 PUSH1 0xA0 SHL SUB PUSH1 0x60 DUP3 ADD MLOAD AND PUSH1 0xA0 DUP6 ADD MSTORE ADD MLOAD SWAP3 DUP3 DUP6 SUB ADD SWAP2 ADD MSTORE PUSH2 0x1234 JUMP JUMPDEST DUP5 MLOAD DUP1 MLOAD PUSH1 0x1 PUSH1 0x1 PUSH1 0xA0 SHL SUB AND DUP10 MSTORE DUP4 ADD MLOAD DUP9 DUP5 ADD MSTORE SWAP7 DUP8 ADD SWAP7 SWAP4 DUP3 ADD SWAP4 PUSH1 0x1 SWAP1 SWAP2 ADD SWAP1 PUSH2 0x13B1 JUMP JUMPDEST SWAP1 DUP2 PUSH1 0x20 SWAP2 SUB SLT PUSH2 0xF3 JUMPI MLOAD DUP1 ISZERO ISZERO DUP2 SUB PUSH2 0xF3 JUMPI SWAP1 JUMP JUMPDEST PUSH1 0x20 DUP2 DUP4 SUB SLT PUSH2 0xF3 JUMPI DUP1 MLOAD SWAP1 PUSH1 0x1 PUSH1 0x1 PUSH1 0x40 SHL SUB DUP3 GT PUSH2 0xF3 JUMPI ADD DUP2 PUSH1 0x1F DUP3 ADD SLT ISZERO PUSH2 0xF3 JUMPI DUP1 MLOAD PUSH2 0x145A DUP2 PUSH2 0x1159 JUMP JUMPDEST SWAP3 PUSH2 0x1468 PUSH1 0x40 MLOAD SWAP5 DUP6 PUSH2 0x1138 JUMP JUMPDEST DUP2 DUP5 MSTORE PUSH1 0x20 DUP3 DUP5 ADD ADD GT PUSH2 0xF3 JUMPI PUSH2 0x128A SWAP2 PUSH1 0x20 DUP1 DUP6 ADD SWAP2 ADD PUSH2 0x1211 JUMP JUMPDEST DUP1 MLOAD ISZERO PUSH2 0x1493 JUMPI PUSH1 0x20 ADD SWAP1 JUMP JUMPDEST PUSH4 0x4E487B71 PUSH1 0xE0 SHL PUSH1 0x0 MSTORE PUSH1 0x32 PUSH1 0x4 MSTORE PUSH1 0x24 PUSH1 0x0 REVERT INVALID LOG2 PUSH5 0x6970667358 0x22 SLT KECCAK256 TIMESTAMP 0xAC STOP 0xFB 0x26 PUSH13 0x1CA8D7B6A0AC2A964161EA83DE 0xEF SWAP12 0xC0 0xD0 PUSH7 0xB3D6E0C8DB395D PUSH9 0x64736F6C6343000814 STOP CALLER "},"gasEstimates":{"creation":{"codeDepositCost":"1068600","executionCost":"infinite","totalCost":"infinite"},"external":{"addReceiver(string,address)":"infinite","ccipReceicers(address)":"infinite","ccipReceive((bytes32,uint64,bytes,bytes,(address,uint256)[]))":"infinite","denylistDestinationChain(uint64)":"26804","getRouter()":"infinite","removeReceiver(address)":"infinite","sendMessagePayLINK(uint64,address,bytes)":"infinite","supportsInterface(bytes4)":"271","whitelistDestinationChain(uint64)":"26832","whitelistedDestinationChains(uint64)":"2597","withdraw(address)":"infinite","withdrawToken(address,address)":"infinite"},"internal":{"_buildCCIPMessage(address,bytes memory,address)":"infinite","_ccipReceive(struct Client.Any2EVMMessage memory)":"infinite"}},"methodIdentifiers":{"addReceiver(string,address)":"1d5e2947","ccipReceicers(address)":"1f27166d","ccipReceive((bytes32,uint64,bytes,bytes,(address,uint256)[]))":"85572ffb","denylistDestinationChain(uint64)":"73645cff","getRouter()":"b0f479a1","removeReceiver(address)":"6552d8b4","sendMessagePayLINK(uint64,address,bytes)":"a30e3770","supportsInterface(bytes4)":"01ffc9a7","whitelistDestinationChain(uint64)":"7898d184","whitelistedDestinationChains(uint64)":"835b347c","withdraw(address)":"51cff8d9","withdrawToken(address,address)":"3aeac4e1"}},"storageLayout":{"storage":[{"astId":6496,"contract":"contracts/HorizonS.sol:HorizonS","label":"lastReceivedMessageId","offset":0,"slot":"0","type":"t_bytes32"},{"astId":6498,"contract":"contracts/HorizonS.sol:HorizonS","label":"lastReceivedText","offset":0,"slot":"1","type":"t_string_storage"},{"astId":6500,"contract":"contracts/HorizonS.sol:HorizonS","label":"destinationChainSelector","offset":0,"slot":"2","type":"t_uint256"},{"astId":6502,"contract":"contracts/HorizonS.sol:HorizonS","label":"owner","offset":0,"slot":"3","type":"t_address"},{"astId":6513,"contract":"contracts/HorizonS.sol:HorizonS","label":"whitelistedDestinationChains","offset":0,"slot":"4","type":"t_mapping(t_uint64,t_bool)"},{"astId":6518,"contract":"contracts/HorizonS.sol:HorizonS","label":"ccipReceicers","offset":0,"slot":"5","type":"t_mapping(t_address,t_struct(ReceiverInfo)6509_storage)"},{"astId":6524,"contract":"contracts/HorizonS.sol:HorizonS","label":"linkToken","offset":0,"slot":"6","type":"t_contract(LinkTokenInterface)522"}],"types":{"t_address":{"encoding":"inplace","label":"address","numberOfBytes":"20"},"t_bool":{"encoding":"inplace","label":"bool","numberOfBytes":"1"},"t_bytes32":{"encoding":"inplace","label":"bytes32","numberOfBytes":"32"},"t_contract(LinkTokenInterface)522":{"encoding":"inplace","label":"contract LinkTokenInterface","numberOfBytes":"20"},"t_mapping(t_address,t_struct(ReceiverInfo)6509_storage)":{"encoding":"mapping","key":"t_address","label":"mapping(address => struct HorizonS.ReceiverInfo)","numberOfBytes":"32","value":"t_struct(ReceiverInfo)6509_storage"},"t_mapping(t_uint64,t_bool)":{"encoding":"mapping","key":"t_uint64","label":"mapping(uint64 => bool)","numberOfBytes":"32","value":"t_bool"},"t_string_storage":{"encoding":"bytes","label":"string","numberOfBytes":"32"},"t_struct(ReceiverInfo)6509_storage":{"encoding":"inplace","label":"struct HorizonS.ReceiverInfo","members":[{"astId":6504,"contract":"contracts/HorizonS.sol:HorizonS","label":"blockchainName","offset":0,"slot":"0","type":"t_string_storage"},{"astId":6506,"contract":"contracts/HorizonS.sol:HorizonS","label":"receiverAddress","offset":0,"slot":"1","type":"t_address"},{"astId":6508,"contract":"contracts/HorizonS.sol:HorizonS","label":"isReceiver","offset":20,"slot":"1","type":"t_bool"}],"numberOfBytes":"64"},"t_uint256":{"encoding":"inplace","label":"uint256","numberOfBytes":"32"},"t_uint64":{"encoding":"inplace","label":"uint64","numberOfBytes":"8"}}},"userdoc":{"kind":"user","methods":{"ccipReceive((bytes32,uint64,bytes,bytes,(address,uint256)[]))":{"notice":"Called by the Router to deliver a message. If this reverts, any token transfers also revert. The message will move to a FAILED state and become available for manual execution."},"denylistDestinationChain(uint64)":{"notice":"This function can only be called by the owner."},"getRouter()":{"notice":"Return the current router"},"supportsInterface(bytes4)":{"notice":"IERC165 supports an interfaceId"},"whitelistDestinationChain(uint64)":{"notice":"This function can only be called by the owner."}},"version":1}}}}