{"contracts/HorizonStaff.sol":{"HorizonStaff":{"abi":[{"inputs":[],"stateMutability":"nonpayable","type":"constructor"},{"inputs":[],"name":"NothingToWithdraw","type":"error"},{"anonymous":false,"inputs":[{"indexed":true,"internalType":"address","name":"_wallet","type":"address"}],"name":"AdminADD","type":"event"},{"anonymous":false,"inputs":[{"indexed":true,"internalType":"address","name":"_wallet","type":"address"}],"name":"AdminRemoved","type":"event"},{"anonymous":false,"inputs":[{"indexed":false,"internalType":"uint256","name":"_installmentNumber","type":"uint256"},{"indexed":false,"internalType":"uint256","name":"_dateOfPayment","type":"uint256"}],"name":"InstallmentDateUpdated","type":"event"},{"anonymous":false,"inputs":[{"indexed":false,"internalType":"uint256","name":"currentInterestRate","type":"uint256"},{"indexed":false,"internalType":"uint256","name":"amountToPay","type":"uint256"}],"name":"PaymentIsLate","type":"event"},{"anonymous":false,"inputs":[{"indexed":false,"internalType":"uint256","name":"_amountToPay","type":"uint256"}],"name":"TheInstallmentIsOneDayLate","type":"event"},{"anonymous":false,"inputs":[{"indexed":false,"internalType":"uint256","name":"_paymentDelay","type":"uint256"}],"name":"TheInstallmenteIsOnTime","type":"event"},{"anonymous":false,"inputs":[{"indexed":false,"internalType":"uint256","name":"currentInterestRate","type":"uint256"},{"indexed":false,"internalType":"uint256","name":"amountToPay","type":"uint256"}],"name":"TheTitleIsCloseToBeCanceled","type":"event"},{"anonymous":false,"inputs":[{"indexed":false,"internalType":"contract IERC20","name":"tokenAddress","type":"address"},{"indexed":false,"internalType":"string","name":"symbol","type":"string"}],"name":"TokenAdded","type":"event"},{"anonymous":false,"inputs":[{"indexed":false,"internalType":"string","name":"symbol","type":"string"},{"indexed":false,"internalType":"address","name":"_stablecoin","type":"address"}],"name":"TokenRemoved","type":"event"},{"inputs":[{"internalType":"address","name":"_wallet","type":"address"}],"name":"addAdmin","outputs":[],"stateMutability":"nonpayable","type":"function"},{"inputs":[{"internalType":"uint256","name":"_scheduleId","type":"uint256"},{"internalType":"uint256","name":"_drawNumber","type":"uint256"}],"name":"addParticipantsToDraw","outputs":[],"stateMutability":"nonpayable","type":"function"},{"inputs":[{"internalType":"contract IERC20","name":"_stablecoin","type":"address"},{"internalType":"string","name":"_tokenSymbol","type":"string"}],"name":"addToken","outputs":[],"stateMutability":"nonpayable","type":"function"},{"inputs":[{"internalType":"contract IERC20","name":"coinAddress","type":"address"}],"name":"allowedCrypto","outputs":[{"internalType":"string","name":"tokenSymbol","type":"string"},{"internalType":"contract IERC20","name":"stablecoin","type":"address"},{"internalType":"bool","name":"isStable","type":"bool"}],"stateMutability":"view","type":"function"},{"inputs":[],"name":"baseInterestRate","outputs":[{"internalType":"uint256","name":"","type":"uint256"}],"stateMutability":"view","type":"function"},{"inputs":[{"internalType":"uint256","name":"_paymentDelay","type":"uint256"},{"internalType":"uint256","name":"_scheduleId","type":"uint256"},{"internalType":"uint256","name":"_inicialInstallment","type":"uint256"}],"name":"calculateDelayedPayment","outputs":[{"internalType":"uint256","name":"","type":"uint256"}],"stateMutability":"nonpayable","type":"function"},{"inputs":[{"internalType":"uint256","name":"_titleId","type":"uint256"},{"internalType":"uint256","name":"_numPayments","type":"uint256"},{"internalType":"uint256","name":"_closing","type":"uint256"}],"name":"createSchedule","outputs":[{"internalType":"uint256","name":"_scheduleId","type":"uint256"}],"stateMutability":"nonpayable","type":"function"},{"inputs":[],"name":"dailyInterestRate","outputs":[{"internalType":"uint256","name":"","type":"uint256"}],"stateMutability":"view","type":"function"},{"inputs":[{"internalType":"address","name":"_wallet","type":"address"}],"name":"removeAdmin","outputs":[],"stateMutability":"nonpayable","type":"function"},{"inputs":[{"internalType":"contract IERC20","name":"_stablecoin","type":"address"}],"name":"removeToken","outputs":[],"stateMutability":"nonpayable","type":"function"},{"inputs":[{"internalType":"contract IERC20","name":"_stablecoin","type":"address"}],"name":"returnAvailableStablecoin","outputs":[{"internalType":"string","name":"","type":"string"},{"internalType":"contract IERC20","name":"","type":"address"},{"internalType":"bool","name":"","type":"bool"}],"stateMutability":"nonpayable","type":"function"},{"inputs":[{"internalType":"uint256","name":"_scheduleId","type":"uint256"},{"internalType":"uint256","name":"_installmentNumber","type":"uint256"}],"name":"returnDrawDate","outputs":[{"internalType":"uint256","name":"","type":"uint256"}],"stateMutability":"view","type":"function"},{"inputs":[{"internalType":"uint256","name":"_scheduleId","type":"uint256"},{"internalType":"uint256","name":"_drawNumber","type":"uint256"}],"name":"returnDrawParticipants","outputs":[{"internalType":"uint256","name":"","type":"uint256"}],"stateMutability":"view","type":"function"},{"inputs":[{"internalType":"uint256","name":"_scheduleId","type":"uint256"},{"internalType":"uint256","name":"_installmentNumber","type":"uint256"}],"name":"returnPaymentDeadline","outputs":[{"internalType":"uint256","name":"","type":"uint256"}],"stateMutability":"view","type":"function"},{"inputs":[{"internalType":"address","name":"adminWallet","type":"address"}],"name":"staff","outputs":[{"internalType":"address","name":"wallet","type":"address"},{"internalType":"bool","name":"isAdmin","type":"bool"}],"stateMutability":"view","type":"function"},{"inputs":[{"internalType":"uint256","name":"_baseRate","type":"uint256"},{"internalType":"uint256","name":"_dailyRate","type":"uint256"}],"name":"updateInterest","outputs":[],"stateMutability":"nonpayable","type":"function"},{"inputs":[{"internalType":"uint256","name":"_scheduleId","type":"uint256"},{"internalType":"uint256","name":"_installmentNumber","type":"uint256"},{"internalType":"uint256","name":"_dateOfPayment","type":"uint256"}],"name":"updatePaymentDate","outputs":[],"stateMutability":"nonpayable","type":"function"},{"inputs":[{"internalType":"contract IERC20","name":"_tokenAddress","type":"address"}],"name":"withdrawProtocolFee","outputs":[],"stateMutability":"nonpayable","type":"function"}],"devdoc":{"kind":"dev","methods":{},"version":1},"evm":{"bytecode":{"linkReferences":{},"object":"6080806040523461003b576001600055600a6001556003600255603c6003553360018060a01b031960045416176004556113e490816100418239f35b600080fdfe60806040908082526004918236101561001757600080fd5b600092833560e01c9283630d65a8e8146110bc57508383631785f53c146110465750826329b00732146110305782632b18775514610ee25782632c8da56014610bf15782634f83158a14610ba65782635294bac81461096b578263559006c21461071f5782635fa7b5841461058557826364cf0e4014610556578263668fb6dc1461037c5782637048027514610252575081637c4c4b89146101fb5781637fca631f146101dc5781638c83ddd314610163578163ac066fa21461012d578163afd927621461010a575063b4f9a7e0146100ef57600080fd5b34610107576100fd366110e9565b9060015560025580f35b80fd5b9050346101295781600319360112610129576020906001549051908152f35b5080fd5b90503461012957600190610140366110e9565b908452600660205281842090845260205282200161015e815461139f565b905580f35b8234610107576020366003190112610107576001600160a01b03916101d89060ff6001828661019061111e565b169586815260056020526101a58282206111a6565b968152600560205220019485541694856001600160601b0360a01b60085416176008555460a01c1690519384938461128c565b0390f35b9050346101295781600319360112610129576020906002549051908152f35b8234610107576020366003190112610107576001600160a01b03906101d89083908361022561111e565b16815260056020522092600161023a856111a6565b940154905193849360ff8360a01c169216908461128c565b838234610129576020366003190112610129576001600160a01b0383358181169290839003610378576102868315156112ba565b828452600760205260ff8185205460a01c166103365780519181830183811067ffffffffffffffff821117610323578252838352600160208085019182528587526007905291852092518354925160ff60a01b90151560a01b166001600160a81b0319909316911660ff60a01b1916171790559091507fda51e137fbd273174ffcac81ca558daee6ff0b24569cb9bc7086453e280dca278280a280f35b634e487b7160e01b865260418752602486fd5b5162461bcd60e51b8152602081860152601860248201527f41646d696e20616c7265616479207265676973746572656400000000000000006044820152606490fd5b8380fd5b91503461055257602090816003193601126103785761039961111e565b83546001600160a01b03908116913383900361050f57811680875260058552600160ff81868a20015460a01c161515036104d857865260058452600183872001541693846001600160601b0360a01b60085416176008558251946370a0823160e01b865230828701528486602481845afa9586156104ce57879661049b575b50851561048c57849291876044928651988995869463a9059cbb60e01b865285015260248401525af19081156104835750610451578280f35b81813d831161047c575b6104658183611134565b810103126101295751801515036101075738808280f35b503d61045b565b513d85823e3d90fd5b508251630686827b60e51b8152fd5b9095508481813d83116104c7575b6104b38183611134565b810103126104c357519438610418565b8680fd5b503d6104a9565b84513d89823e3d90fd5b835162461bcd60e51b81528087018690526011602482015270151bdad95b881b9bdd08185b1b1bddd959607a1b6044820152606490fd5b835162461bcd60e51b8152808701869052601c60248201527f5468652063616c6c6572206d75737420626520746865206f776e6572000000006044820152606490fd5b8280fd5b8382346101295760028160209361056c366110e9565b9082526006865282822090825285522001549051908152f35b50823461010757602080600319360112610129576001600160a01b0390816105ab61111e565b16908184526005815260019283868620015416916105ca831515611306565b84526005815284842094846105df875461116c565b806106e6575b5084870155805193818552859680546105fd8161116c565b8094880152828116908160001461069e5750600114610647575b867f1adb68f0a540855cafa9d341c1e94a36fa13b8a15ff602507addfe49c0f018d187808b89898301520390a180f35b865282862092965085925b82841061068a57505050820160600193817f1adb68f0a540855cafa9d341c1e94a36fa13b8a15ff602507addfe49c0f018d184610617565b805486850160600152928701928101610652565b60ff191660608881019190915293151560051b870190930197508492507f1adb68f0a540855cafa9d341c1e94a36fa13b8a15ff602507addfe49c0f018d19150859050610617565b601f81116001146106fc575086555b84876105e5565b878252610716601f858420920160051c8201878301611352565b818855556106f5565b8382346101295761072f36611104565b90918215610912578085526020956006875284862084875287528385872054036108cf578186526006875284862084875287526002858720015483111561088157603c8302838104603c148415171561085b5782875260068852858720600019860186811161086e578852885260028688200154810390811161085b5761012c10156107fc57509484957ffc0b6df00175009634ee8493748db715994ef6a2da308acd70658b3b4f3222b1955260068152838620838752815281600285882001558351928352820152a180f35b845162461bcd60e51b8152908101879052603360248201527f4d7573742068617665206120706572696f64206f662033302064617973206265604482015272747765656e20696e7374616c6c6d656e74732160681b6064820152608490fd5b634e487b7160e01b875260118252602487fd5b634e487b7160e01b895260118452602489fd5b845162461bcd60e51b8152908101879052602260248201527f596f752063616e206f6e6c7920706f7374706f6e6520746865207061796d656e604482015261742160f01b6064820152608490fd5b845162461bcd60e51b8152908101879052601e60248201527f496e7374616c6c6d656e74206e756d626572206d7573742065786973742100006044820152606490fd5b835162461bcd60e51b8152602081880152602d60248201527f496e7374616c6c6d656e74206e756d626572206d75737420626520677265617460448201526c6572207468616e207a65726f2160981b6064820152608490fd5b8382346101295761097b36611104565b90918215610b505742821115610af15761012c91828101809111610ade5760019283915b858511156109bf57602088888154916109b78361139f565b905551908152f35b42811115610a8f5781810190818111610a7c5783546002908154918a519360c0850185811067ffffffffffffffff821117610a6757610a6196959492600594928f8f8e918e958252828a52602092838b0193828552838c0195865260608c01978d895260808d01998a5260a08d019a8b52835260068152838320918352522097518855518b8801555190860155516003850155518d840155519101559461139f565b9361099f565b5050634e487b7160e01b8c5260418d5260248cfd5b634e487b7160e01b895260118a52602489fd5b865162461bcd60e51b81526020818b0152602360248201527f5061796d656e742064617465206d75737420626520696e20746865206675747560448201526272652160e81b6064820152608490fd5b634e487b7160e01b865260118752602486fd5b835162461bcd60e51b8152602081880152603360248201527f54686520636c6f73696e67206f66207469746c652073656c6c696e67206d75736044820152727420626520696e20746865206675747572652160681b6064820152608490fd5b835162461bcd60e51b8152602081880152602a60248201527f4e756d626572206f66207061796d656e7473206d7573742062652067726561746044820152696572207468616e20302160b01b6064820152608490fd5b839034610129576020366003190112610129576001600160a01b03919035828116908190036101295781849160ff9352600760205220548351928116835260a01c1615156020820152f35b839034610129578260031936011261012957610c0b61111e565b90602480359167ffffffffffffffff91828411610ede5736602385011215610ede578382013594838611610ecc57875193602096601f1996610c548989601f8501160188611134565b81875236858383010111610ec857818a92868b9301838a0137870101526001600160a01b0391821695610c88871515611306565b8689526005885260019183838c8c20015416610e90578a51916060830183811083821117610e7e578c52878352898301968988528c8401968588528a8d5260058c528d8d209451918251948511610e6d5750508b8b610ce7865461116c565b601f8111610e33575b5050508a91601f8411600114610da757509282610d839693610d969a9996938e9f99967f7afee0f1b802cc0f66c67890e26b4566251859cf2cd8de79b86aed7251d9756a9f92610d9c575b5050600019600383901b1c191690831b1781555b019251166001600160601b0360a01b83541617825551151581549060ff60a01b90151560a01b169060ff60a01b1916179055565b808051958695865285015283019061124c565b0390a180f35b015190508f80610d3b565b848d528b8d2092919084168d5b818110610e1e57509386937f7afee0f1b802cc0f66c67890e26b4566251859cf2cd8de79b86aed7251d9756a9e9f999693610d969c9b989383610d839b9810610e05575b505050811b018155610d4f565b015160001960f88460031b161c191690558f8080610df8565b82840151855593870193928d01928d01610db4565b818388610e5b95522090601f870160051c8201928710610e63575b601f0160051c0190611352565b8b8b8f610cf0565b9091508190610e4e565b634e487b7160e01b8e52604190528cfd5b634e487b7160e01b8c5260418852868cfd5b8a5162461bcd60e51b81528087018a905260138187015272151bdad95b88185b1c9958591e481859191959606a1b6044820152606490fd5b8980fd5b50634e487b7160e01b86526041825285fd5b8580fd5b90833461010757610ef236611104565b60035490939281811015610f5f575050610f286020958584606494610f2f97965260068952818120868252895220015483611369565b0490611392565b907f1323840bbd6e53af646a0046b72ff8ea4144b0492c4f6d3614f8ce899804fd04838251848152a15b51908152f35b9091839594955260066020528383208584526020526005848420015492821561101d575060209550610fae92610fa192610f999204611369565b600154611392565b926064610f288583611369565b91816028821115610feb577f7882c1a4f360824e9d02cee7d2b40d77bf44368aae126f3af401776bf5e824839181519081528486820152a1610f59565b7f43df8b22d3686d15a6e74163ca342c850bc01d74db643db1d546d2bd2a93c9ec9181519081528486820152a1610f59565b634e487b7160e01b815260128752602490fd5b8382346101295760038160209361056c366110e9565b9192503461012957602036600319011261012957356001600160a01b0381169290839003610129576110798315156112ba565b82825260076020528120600160ff825460a01c1615150361012957557fa3b62bc36326052d97ea62d63c3d60308ed4c3ea8ac079dd8499f1e9c4f80c0f8280a280f35b92505034610552576001906020936110d3366110e9565b9082526006865282822090825285522001548152f35b60409060031901126110ff576004359060243590565b600080fd5b60609060031901126110ff57600435906024359060443590565b600435906001600160a01b03821682036110ff57565b90601f8019910116810190811067ffffffffffffffff82111761115657604052565b634e487b7160e01b600052604160045260246000fd5b90600182811c9216801561119c575b602083101461118657565b634e487b7160e01b600052602260045260246000fd5b91607f169161117b565b90604051918260008254926111ba8461116c565b90818452600194858116908160001461122957506001146111e6575b50506111e492500383611134565b565b9093915060005260209081600020936000915b8183106112115750506111e4935082010138806111d6565b855488840185015294850194879450918301916111f9565b9150506111e494506020925060ff191682840152151560051b82010138806111d6565b919082519283825260005b848110611278575050826000602080949584010152601f8019910116010190565b602081830181015184830182015201611257565b9193926112a360409260608552606085019061124c565b6001600160a01b0390951660208401521515910152565b156112c157565b60405162461bcd60e51b815260206004820152601c60248201527f41646d696e2077616c6c65742063616e277420626520656d70747921000000006044820152606490fd5b1561130d57565b60405162461bcd60e51b815260206004820152601c60248201527f546f6b656e20616464726573732063616e6e6f74206265207a65726f000000006044820152606490fd5b81811061135d575050565b60008155600101611352565b8181029291811591840414171561137c57565b634e487b7160e01b600052601160045260246000fd5b9190820180921161137c57565b600019811461137c576001019056fea2646970667358221220205b31180486fc9f8eb5619fc43793a49620863a45493c12b4e750fb83a8194264736f6c63430008140033","opcodes":"PUSH1 0x80 DUP1 PUSH1 0x40 MSTORE CALLVALUE PUSH2 0x3B JUMPI PUSH1 0x1 PUSH1 0x0 SSTORE PUSH1 0xA PUSH1 0x1 SSTORE PUSH1 0x3 PUSH1 0x2 SSTORE PUSH1 0x3C PUSH1 0x3 SSTORE CALLER PUSH1 0x1 DUP1 PUSH1 0xA0 SHL SUB NOT PUSH1 0x4 SLOAD AND OR PUSH1 0x4 SSTORE PUSH2 0x13E4 SWAP1 DUP2 PUSH2 0x41 DUP3 CODECOPY RETURN JUMPDEST PUSH1 0x0 DUP1 REVERT INVALID PUSH1 0x80 PUSH1 0x40 SWAP1 DUP1 DUP3 MSTORE PUSH1 0x4 SWAP2 DUP3 CALLDATASIZE LT ISZERO PUSH2 0x17 JUMPI PUSH1 0x0 DUP1 REVERT JUMPDEST PUSH1 0x0 SWAP3 DUP4 CALLDATALOAD PUSH1 0xE0 SHR SWAP3 DUP4 PUSH4 0xD65A8E8 EQ PUSH2 0x10BC JUMPI POP DUP4 DUP4 PUSH4 0x1785F53C EQ PUSH2 0x1046 JUMPI POP DUP3 PUSH4 0x29B00732 EQ PUSH2 0x1030 JUMPI DUP3 PUSH4 0x2B187755 EQ PUSH2 0xEE2 JUMPI DUP3 PUSH4 0x2C8DA560 EQ PUSH2 0xBF1 JUMPI DUP3 PUSH4 0x4F83158A EQ PUSH2 0xBA6 JUMPI DUP3 PUSH4 0x5294BAC8 EQ PUSH2 0x96B JUMPI DUP3 PUSH4 0x559006C2 EQ PUSH2 0x71F JUMPI DUP3 PUSH4 0x5FA7B584 EQ PUSH2 0x585 JUMPI DUP3 PUSH4 0x64CF0E40 EQ PUSH2 0x556 JUMPI DUP3 PUSH4 0x668FB6DC EQ PUSH2 0x37C JUMPI DUP3 PUSH4 0x70480275 EQ PUSH2 0x252 JUMPI POP DUP2 PUSH4 0x7C4C4B89 EQ PUSH2 0x1FB JUMPI DUP2 PUSH4 0x7FCA631F EQ PUSH2 0x1DC JUMPI DUP2 PUSH4 0x8C83DDD3 EQ PUSH2 0x163 JUMPI DUP2 PUSH4 0xAC066FA2 EQ PUSH2 0x12D JUMPI DUP2 PUSH4 0xAFD92762 EQ PUSH2 0x10A JUMPI POP PUSH4 0xB4F9A7E0 EQ PUSH2 0xEF JUMPI PUSH1 0x0 DUP1 REVERT JUMPDEST CALLVALUE PUSH2 0x107 JUMPI PUSH2 0xFD CALLDATASIZE PUSH2 0x10E9 JUMP JUMPDEST SWAP1 PUSH1 0x1 SSTORE PUSH1 0x2 SSTORE DUP1 RETURN JUMPDEST DUP1 REVERT JUMPDEST SWAP1 POP CALLVALUE PUSH2 0x129 JUMPI DUP2 PUSH1 0x3 NOT CALLDATASIZE ADD SLT PUSH2 0x129 JUMPI PUSH1 0x20 SWAP1 PUSH1 0x1 SLOAD SWAP1 MLOAD SWAP1 DUP2 MSTORE RETURN JUMPDEST POP DUP1 REVERT JUMPDEST SWAP1 POP CALLVALUE PUSH2 0x129 JUMPI PUSH1 0x1 SWAP1 PUSH2 0x140 CALLDATASIZE PUSH2 0x10E9 JUMP JUMPDEST SWAP1 DUP5 MSTORE PUSH1 0x6 PUSH1 0x20 MSTORE DUP2 DUP5 KECCAK256 SWAP1 DUP5 MSTORE PUSH1 0x20 MSTORE DUP3 KECCAK256 ADD PUSH2 0x15E DUP2 SLOAD PUSH2 0x139F JUMP JUMPDEST SWAP1 SSTORE DUP1 RETURN JUMPDEST DUP3 CALLVALUE PUSH2 0x107 JUMPI PUSH1 0x20 CALLDATASIZE PUSH1 0x3 NOT ADD SLT PUSH2 0x107 JUMPI PUSH1 0x1 PUSH1 0x1 PUSH1 0xA0 SHL SUB SWAP2 PUSH2 0x1D8 SWAP1 PUSH1 0xFF PUSH1 0x1 DUP3 DUP7 PUSH2 0x190 PUSH2 0x111E JUMP JUMPDEST AND SWAP6 DUP7 DUP2 MSTORE PUSH1 0x5 PUSH1 0x20 MSTORE PUSH2 0x1A5 DUP3 DUP3 KECCAK256 PUSH2 0x11A6 JUMP JUMPDEST SWAP7 DUP2 MSTORE PUSH1 0x5 PUSH1 0x20 MSTORE KECCAK256 ADD SWAP5 DUP6 SLOAD AND SWAP5 DUP6 PUSH1 0x1 PUSH1 0x1 PUSH1 0x60 SHL SUB PUSH1 0xA0 SHL PUSH1 0x8 SLOAD AND OR PUSH1 0x8 SSTORE SLOAD PUSH1 0xA0 SHR AND SWAP1 MLOAD SWAP4 DUP5 SWAP4 DUP5 PUSH2 0x128C JUMP JUMPDEST SUB SWAP1 RETURN JUMPDEST SWAP1 POP CALLVALUE PUSH2 0x129 JUMPI DUP2 PUSH1 0x3 NOT CALLDATASIZE ADD SLT PUSH2 0x129 JUMPI PUSH1 0x20 SWAP1 PUSH1 0x2 SLOAD SWAP1 MLOAD SWAP1 DUP2 MSTORE RETURN JUMPDEST DUP3 CALLVALUE PUSH2 0x107 JUMPI PUSH1 0x20 CALLDATASIZE PUSH1 0x3 NOT ADD SLT PUSH2 0x107 JUMPI PUSH1 0x1 PUSH1 0x1 PUSH1 0xA0 SHL SUB SWAP1 PUSH2 0x1D8 SWAP1 DUP4 SWAP1 DUP4 PUSH2 0x225 PUSH2 0x111E JUMP JUMPDEST AND DUP2 MSTORE PUSH1 0x5 PUSH1 0x20 MSTORE KECCAK256 SWAP3 PUSH1 0x1 PUSH2 0x23A DUP6 PUSH2 0x11A6 JUMP JUMPDEST SWAP5 ADD SLOAD SWAP1 MLOAD SWAP4 DUP5 SWAP4 PUSH1 0xFF DUP4 PUSH1 0xA0 SHR AND SWAP3 AND SWAP1 DUP5 PUSH2 0x128C JUMP JUMPDEST DUP4 DUP3 CALLVALUE PUSH2 0x129 JUMPI PUSH1 0x20 CALLDATASIZE PUSH1 0x3 NOT ADD SLT PUSH2 0x129 JUMPI PUSH1 0x1 PUSH1 0x1 PUSH1 0xA0 SHL SUB DUP4 CALLDATALOAD DUP2 DUP2 AND SWAP3 SWAP1 DUP4 SWAP1 SUB PUSH2 0x378 JUMPI PUSH2 0x286 DUP4 ISZERO ISZERO PUSH2 0x12BA JUMP JUMPDEST DUP3 DUP5 MSTORE PUSH1 0x7 PUSH1 0x20 MSTORE PUSH1 0xFF DUP2 DUP6 KECCAK256 SLOAD PUSH1 0xA0 SHR AND PUSH2 0x336 JUMPI DUP1 MLOAD SWAP2 DUP2 DUP4 ADD DUP4 DUP2 LT PUSH8 0xFFFFFFFFFFFFFFFF DUP3 GT OR PUSH2 0x323 JUMPI DUP3 MSTORE DUP4 DUP4 MSTORE PUSH1 0x1 PUSH1 0x20 DUP1 DUP6 ADD SWAP2 DUP3 MSTORE DUP6 DUP8 MSTORE PUSH1 0x7 SWAP1 MSTORE SWAP2 DUP6 KECCAK256 SWAP3 MLOAD DUP4 SLOAD SWAP3 MLOAD PUSH1 0xFF PUSH1 0xA0 SHL SWAP1 ISZERO ISZERO PUSH1 0xA0 SHL AND PUSH1 0x1 PUSH1 0x1 PUSH1 0xA8 SHL SUB NOT SWAP1 SWAP4 AND SWAP2 AND PUSH1 0xFF PUSH1 0xA0 SHL NOT AND OR OR SWAP1 SSTORE SWAP1 SWAP2 POP PUSH32 0xDA51E137FBD273174FFCAC81CA558DAEE6FF0B24569CB9BC7086453E280DCA27 DUP3 DUP1 LOG2 DUP1 RETURN JUMPDEST PUSH4 0x4E487B71 PUSH1 0xE0 SHL DUP7 MSTORE PUSH1 0x41 DUP8 MSTORE PUSH1 0x24 DUP7 REVERT JUMPDEST MLOAD PUSH3 0x461BCD PUSH1 0xE5 SHL DUP2 MSTORE PUSH1 0x20 DUP2 DUP7 ADD MSTORE PUSH1 0x18 PUSH1 0x24 DUP3 ADD MSTORE PUSH32 0x41646D696E20616C726561647920726567697374657265640000000000000000 PUSH1 0x44 DUP3 ADD MSTORE PUSH1 0x64 SWAP1 REVERT JUMPDEST DUP4 DUP1 REVERT JUMPDEST SWAP2 POP CALLVALUE PUSH2 0x552 JUMPI PUSH1 0x20 SWAP1 DUP2 PUSH1 0x3 NOT CALLDATASIZE ADD SLT PUSH2 0x378 JUMPI PUSH2 0x399 PUSH2 0x111E JUMP JUMPDEST DUP4 SLOAD PUSH1 0x1 PUSH1 0x1 PUSH1 0xA0 SHL SUB SWAP1 DUP2 AND SWAP2 CALLER DUP4 SWAP1 SUB PUSH2 0x50F JUMPI DUP2 AND DUP1 DUP8 MSTORE PUSH1 0x5 DUP6 MSTORE PUSH1 0x1 PUSH1 0xFF DUP2 DUP7 DUP11 KECCAK256 ADD SLOAD PUSH1 0xA0 SHR AND ISZERO ISZERO SUB PUSH2 0x4D8 JUMPI DUP7 MSTORE PUSH1 0x5 DUP5 MSTORE PUSH1 0x1 DUP4 DUP8 KECCAK256 ADD SLOAD AND SWAP4 DUP5 PUSH1 0x1 PUSH1 0x1 PUSH1 0x60 SHL SUB PUSH1 0xA0 SHL PUSH1 0x8 SLOAD AND OR PUSH1 0x8 SSTORE DUP3 MLOAD SWAP5 PUSH4 0x70A08231 PUSH1 0xE0 SHL DUP7 MSTORE ADDRESS DUP3 DUP8 ADD MSTORE DUP5 DUP7 PUSH1 0x24 DUP2 DUP5 GAS STATICCALL SWAP6 DUP7 ISZERO PUSH2 0x4CE JUMPI DUP8 SWAP7 PUSH2 0x49B JUMPI JUMPDEST POP DUP6 ISZERO PUSH2 0x48C JUMPI DUP5 SWAP3 SWAP2 DUP8 PUSH1 0x44 SWAP3 DUP7 MLOAD SWAP9 DUP10 SWAP6 DUP7 SWAP5 PUSH4 0xA9059CBB PUSH1 0xE0 SHL DUP7 MSTORE DUP6 ADD MSTORE PUSH1 0x24 DUP5 ADD MSTORE GAS CALL SWAP1 DUP2 ISZERO PUSH2 0x483 JUMPI POP PUSH2 0x451 JUMPI DUP3 DUP1 RETURN JUMPDEST DUP2 DUP2 RETURNDATASIZE DUP4 GT PUSH2 0x47C JUMPI JUMPDEST PUSH2 0x465 DUP2 DUP4 PUSH2 0x1134 JUMP JUMPDEST DUP2 ADD SUB SLT PUSH2 0x129 JUMPI MLOAD DUP1 ISZERO ISZERO SUB PUSH2 0x107 JUMPI CODESIZE DUP1 DUP3 DUP1 RETURN JUMPDEST POP RETURNDATASIZE PUSH2 0x45B JUMP JUMPDEST MLOAD RETURNDATASIZE DUP6 DUP3 RETURNDATACOPY RETURNDATASIZE SWAP1 REVERT JUMPDEST POP DUP3 MLOAD PUSH4 0x686827B PUSH1 0xE5 SHL DUP2 MSTORE REVERT JUMPDEST SWAP1 SWAP6 POP DUP5 DUP2 DUP2 RETURNDATASIZE DUP4 GT PUSH2 0x4C7 JUMPI JUMPDEST PUSH2 0x4B3 DUP2 DUP4 PUSH2 0x1134 JUMP JUMPDEST DUP2 ADD SUB SLT PUSH2 0x4C3 JUMPI MLOAD SWAP5 CODESIZE PUSH2 0x418 JUMP JUMPDEST DUP7 DUP1 REVERT JUMPDEST POP RETURNDATASIZE PUSH2 0x4A9 JUMP JUMPDEST DUP5 MLOAD RETURNDATASIZE DUP10 DUP3 RETURNDATACOPY RETURNDATASIZE SWAP1 REVERT JUMPDEST DUP4 MLOAD PUSH3 0x461BCD PUSH1 0xE5 SHL DUP2 MSTORE DUP1 DUP8 ADD DUP7 SWAP1 MSTORE PUSH1 0x11 PUSH1 0x24 DUP3 ADD MSTORE PUSH17 0x151BDAD95B881B9BDD08185B1B1BDDD959 PUSH1 0x7A SHL PUSH1 0x44 DUP3 ADD MSTORE PUSH1 0x64 SWAP1 REVERT JUMPDEST DUP4 MLOAD PUSH3 0x461BCD PUSH1 0xE5 SHL DUP2 MSTORE DUP1 DUP8 ADD DUP7 SWAP1 MSTORE PUSH1 0x1C PUSH1 0x24 DUP3 ADD MSTORE PUSH32 0x5468652063616C6C6572206D75737420626520746865206F776E657200000000 PUSH1 0x44 DUP3 ADD MSTORE PUSH1 0x64 SWAP1 REVERT JUMPDEST DUP3 DUP1 REVERT JUMPDEST DUP4 DUP3 CALLVALUE PUSH2 0x129 JUMPI PUSH1 0x2 DUP2 PUSH1 0x20 SWAP4 PUSH2 0x56C CALLDATASIZE PUSH2 0x10E9 JUMP JUMPDEST SWAP1 DUP3 MSTORE PUSH1 0x6 DUP7 MSTORE DUP3 DUP3 KECCAK256 SWAP1 DUP3 MSTORE DUP6 MSTORE KECCAK256 ADD SLOAD SWAP1 MLOAD SWAP1 DUP2 MSTORE RETURN JUMPDEST POP DUP3 CALLVALUE PUSH2 0x107 JUMPI PUSH1 0x20 DUP1 PUSH1 0x3 NOT CALLDATASIZE ADD SLT PUSH2 0x129 JUMPI PUSH1 0x1 PUSH1 0x1 PUSH1 0xA0 SHL SUB SWAP1 DUP2 PUSH2 0x5AB PUSH2 0x111E JUMP JUMPDEST AND SWAP1 DUP2 DUP5 MSTORE PUSH1 0x5 DUP2 MSTORE PUSH1 0x1 SWAP3 DUP4 DUP7 DUP7 KECCAK256 ADD SLOAD AND SWAP2 PUSH2 0x5CA DUP4 ISZERO ISZERO PUSH2 0x1306 JUMP JUMPDEST DUP5 MSTORE PUSH1 0x5 DUP2 MSTORE DUP5 DUP5 KECCAK256 SWAP5 DUP5 PUSH2 0x5DF DUP8 SLOAD PUSH2 0x116C JUMP JUMPDEST DUP1 PUSH2 0x6E6 JUMPI JUMPDEST POP DUP5 DUP8 ADD SSTORE DUP1 MLOAD SWAP4 DUP2 DUP6 MSTORE DUP6 SWAP7 DUP1 SLOAD PUSH2 0x5FD DUP2 PUSH2 0x116C JUMP JUMPDEST DUP1 SWAP5 DUP9 ADD MSTORE DUP3 DUP2 AND SWAP1 DUP2 PUSH1 0x0 EQ PUSH2 0x69E JUMPI POP PUSH1 0x1 EQ PUSH2 0x647 JUMPI JUMPDEST DUP7 PUSH32 0x1ADB68F0A540855CAFA9D341C1E94A36FA13B8A15FF602507ADDFE49C0F018D1 DUP8 DUP1 DUP12 DUP10 DUP10 DUP4 ADD MSTORE SUB SWAP1 LOG1 DUP1 RETURN JUMPDEST DUP7 MSTORE DUP3 DUP7 KECCAK256 SWAP3 SWAP7 POP DUP6 SWAP3 JUMPDEST DUP3 DUP5 LT PUSH2 0x68A JUMPI POP POP POP DUP3 ADD PUSH1 0x60 ADD SWAP4 DUP2 PUSH32 0x1ADB68F0A540855CAFA9D341C1E94A36FA13B8A15FF602507ADDFE49C0F018D1 DUP5 PUSH2 0x617 JUMP JUMPDEST DUP1 SLOAD DUP7 DUP6 ADD PUSH1 0x60 ADD MSTORE SWAP3 DUP8 ADD SWAP3 DUP2 ADD PUSH2 0x652 JUMP JUMPDEST PUSH1 0xFF NOT AND PUSH1 0x60 DUP9 DUP2 ADD SWAP2 SWAP1 SWAP2 MSTORE SWAP4 ISZERO ISZERO PUSH1 0x5 SHL DUP8 ADD SWAP1 SWAP4 ADD SWAP8 POP DUP5 SWAP3 POP PUSH32 0x1ADB68F0A540855CAFA9D341C1E94A36FA13B8A15FF602507ADDFE49C0F018D1 SWAP2 POP DUP6 SWAP1 POP PUSH2 0x617 JUMP JUMPDEST PUSH1 0x1F DUP2 GT PUSH1 0x1 EQ PUSH2 0x6FC JUMPI POP DUP7 SSTORE JUMPDEST DUP5 DUP8 PUSH2 0x5E5 JUMP JUMPDEST DUP8 DUP3 MSTORE PUSH2 0x716 PUSH1 0x1F DUP6 DUP5 KECCAK256 SWAP3 ADD PUSH1 0x5 SHR DUP3 ADD DUP8 DUP4 ADD PUSH2 0x1352 JUMP JUMPDEST DUP2 DUP9 SSTORE SSTORE PUSH2 0x6F5 JUMP JUMPDEST DUP4 DUP3 CALLVALUE PUSH2 0x129 JUMPI PUSH2 0x72F CALLDATASIZE PUSH2 0x1104 JUMP JUMPDEST SWAP1 SWAP2 DUP3 ISZERO PUSH2 0x912 JUMPI DUP1 DUP6 MSTORE PUSH1 0x20 SWAP6 PUSH1 0x6 DUP8 MSTORE DUP5 DUP7 KECCAK256 DUP5 DUP8 MSTORE DUP8 MSTORE DUP4 DUP6 DUP8 KECCAK256 SLOAD SUB PUSH2 0x8CF JUMPI DUP2 DUP7 MSTORE PUSH1 0x6 DUP8 MSTORE DUP5 DUP7 KECCAK256 DUP5 DUP8 MSTORE DUP8 MSTORE PUSH1 0x2 DUP6 DUP8 KECCAK256 ADD SLOAD DUP4 GT ISZERO PUSH2 0x881 JUMPI PUSH1 0x3C DUP4 MUL DUP4 DUP2 DIV PUSH1 0x3C EQ DUP5 ISZERO OR ISZERO PUSH2 0x85B JUMPI DUP3 DUP8 MSTORE PUSH1 0x6 DUP9 MSTORE DUP6 DUP8 KECCAK256 PUSH1 0x0 NOT DUP7 ADD DUP7 DUP2 GT PUSH2 0x86E JUMPI DUP9 MSTORE DUP9 MSTORE PUSH1 0x2 DUP7 DUP9 KECCAK256 ADD SLOAD DUP2 SUB SWAP1 DUP2 GT PUSH2 0x85B JUMPI PUSH2 0x12C LT ISZERO PUSH2 0x7FC JUMPI POP SWAP5 DUP5 SWAP6 PUSH32 0xFC0B6DF00175009634EE8493748DB715994EF6A2DA308ACD70658B3B4F3222B1 SWAP6 MSTORE PUSH1 0x6 DUP2 MSTORE DUP4 DUP7 KECCAK256 DUP4 DUP8 MSTORE DUP2 MSTORE DUP2 PUSH1 0x2 DUP6 DUP9 KECCAK256 ADD SSTORE DUP4 MLOAD SWAP3 DUP4 MSTORE DUP3 ADD MSTORE LOG1 DUP1 RETURN JUMPDEST DUP5 MLOAD PUSH3 0x461BCD PUSH1 0xE5 SHL DUP2 MSTORE SWAP1 DUP2 ADD DUP8 SWAP1 MSTORE PUSH1 0x33 PUSH1 0x24 DUP3 ADD MSTORE PUSH32 0x4D7573742068617665206120706572696F64206F662033302064617973206265 PUSH1 0x44 DUP3 ADD MSTORE PUSH19 0x747765656E20696E7374616C6C6D656E747321 PUSH1 0x68 SHL PUSH1 0x64 DUP3 ADD MSTORE PUSH1 0x84 SWAP1 REVERT JUMPDEST PUSH4 0x4E487B71 PUSH1 0xE0 SHL DUP8 MSTORE PUSH1 0x11 DUP3 MSTORE PUSH1 0x24 DUP8 REVERT JUMPDEST PUSH4 0x4E487B71 PUSH1 0xE0 SHL DUP10 MSTORE PUSH1 0x11 DUP5 MSTORE PUSH1 0x24 DUP10 REVERT JUMPDEST DUP5 MLOAD PUSH3 0x461BCD PUSH1 0xE5 SHL DUP2 MSTORE SWAP1 DUP2 ADD DUP8 SWAP1 MSTORE PUSH1 0x22 PUSH1 0x24 DUP3 ADD MSTORE PUSH32 0x596F752063616E206F6E6C7920706F7374706F6E6520746865207061796D656E PUSH1 0x44 DUP3 ADD MSTORE PUSH2 0x7421 PUSH1 0xF0 SHL PUSH1 0x64 DUP3 ADD MSTORE PUSH1 0x84 SWAP1 REVERT JUMPDEST DUP5 MLOAD PUSH3 0x461BCD PUSH1 0xE5 SHL DUP2 MSTORE SWAP1 DUP2 ADD DUP8 SWAP1 MSTORE PUSH1 0x1E PUSH1 0x24 DUP3 ADD MSTORE PUSH32 0x496E7374616C6C6D656E74206E756D626572206D757374206578697374210000 PUSH1 0x44 DUP3 ADD MSTORE PUSH1 0x64 SWAP1 REVERT JUMPDEST DUP4 MLOAD PUSH3 0x461BCD PUSH1 0xE5 SHL DUP2 MSTORE PUSH1 0x20 DUP2 DUP9 ADD MSTORE PUSH1 0x2D PUSH1 0x24 DUP3 ADD MSTORE PUSH32 0x496E7374616C6C6D656E74206E756D626572206D757374206265206772656174 PUSH1 0x44 DUP3 ADD MSTORE PUSH13 0x6572207468616E207A65726F21 PUSH1 0x98 SHL PUSH1 0x64 DUP3 ADD MSTORE PUSH1 0x84 SWAP1 REVERT JUMPDEST DUP4 DUP3 CALLVALUE PUSH2 0x129 JUMPI PUSH2 0x97B CALLDATASIZE PUSH2 0x1104 JUMP JUMPDEST SWAP1 SWAP2 DUP3 ISZERO PUSH2 0xB50 JUMPI TIMESTAMP DUP3 GT ISZERO PUSH2 0xAF1 JUMPI PUSH2 0x12C SWAP2 DUP3 DUP2 ADD DUP1 SWAP2 GT PUSH2 0xADE JUMPI PUSH1 0x1 SWAP3 DUP4 SWAP2 JUMPDEST DUP6 DUP6 GT ISZERO PUSH2 0x9BF JUMPI PUSH1 0x20 DUP9 DUP9 DUP2 SLOAD SWAP2 PUSH2 0x9B7 DUP4 PUSH2 0x139F JUMP JUMPDEST SWAP1 SSTORE MLOAD SWAP1 DUP2 MSTORE RETURN JUMPDEST TIMESTAMP DUP2 GT ISZERO PUSH2 0xA8F JUMPI DUP2 DUP2 ADD SWAP1 DUP2 DUP2 GT PUSH2 0xA7C JUMPI DUP4 SLOAD PUSH1 0x2 SWAP1 DUP2 SLOAD SWAP2 DUP11 MLOAD SWAP4 PUSH1 0xC0 DUP6 ADD DUP6 DUP2 LT PUSH8 0xFFFFFFFFFFFFFFFF DUP3 GT OR PUSH2 0xA67 JUMPI PUSH2 0xA61 SWAP7 SWAP6 SWAP5 SWAP3 PUSH1 0x5 SWAP5 SWAP3 DUP16 DUP16 DUP15 SWAP2 DUP15 SWAP6 DUP3 MSTORE DUP3 DUP11 MSTORE PUSH1 0x20 SWAP3 DUP4 DUP12 ADD SWAP4 DUP3 DUP6 MSTORE DUP4 DUP13 ADD SWAP6 DUP7 MSTORE PUSH1 0x60 DUP13 ADD SWAP8 DUP14 DUP10 MSTORE PUSH1 0x80 DUP14 ADD SWAP10 DUP11 MSTORE PUSH1 0xA0 DUP14 ADD SWAP11 DUP12 MSTORE DUP4 MSTORE PUSH1 0x6 DUP2 MSTORE DUP4 DUP4 KECCAK256 SWAP2 DUP4 MSTORE MSTORE KECCAK256 SWAP8 MLOAD DUP9 SSTORE MLOAD DUP12 DUP9 ADD SSTORE MLOAD SWAP1 DUP7 ADD SSTORE MLOAD PUSH1 0x3 DUP6 ADD SSTORE MLOAD DUP14 DUP5 ADD SSTORE MLOAD SWAP2 ADD SSTORE SWAP5 PUSH2 0x139F JUMP JUMPDEST SWAP4 PUSH2 0x99F JUMP JUMPDEST POP POP PUSH4 0x4E487B71 PUSH1 0xE0 SHL DUP13 MSTORE PUSH1 0x41 DUP14 MSTORE PUSH1 0x24 DUP13 REVERT JUMPDEST PUSH4 0x4E487B71 PUSH1 0xE0 SHL DUP10 MSTORE PUSH1 0x11 DUP11 MSTORE PUSH1 0x24 DUP10 REVERT JUMPDEST DUP7 MLOAD PUSH3 0x461BCD PUSH1 0xE5 SHL DUP2 MSTORE PUSH1 0x20 DUP2 DUP12 ADD MSTORE PUSH1 0x23 PUSH1 0x24 DUP3 ADD MSTORE PUSH32 0x5061796D656E742064617465206D75737420626520696E207468652066757475 PUSH1 0x44 DUP3 ADD MSTORE PUSH3 0x726521 PUSH1 0xE8 SHL PUSH1 0x64 DUP3 ADD MSTORE PUSH1 0x84 SWAP1 REVERT JUMPDEST PUSH4 0x4E487B71 PUSH1 0xE0 SHL DUP7 MSTORE PUSH1 0x11 DUP8 MSTORE PUSH1 0x24 DUP7 REVERT JUMPDEST DUP4 MLOAD PUSH3 0x461BCD PUSH1 0xE5 SHL DUP2 MSTORE PUSH1 0x20 DUP2 DUP9 ADD MSTORE PUSH1 0x33 PUSH1 0x24 DUP3 ADD MSTORE PUSH32 0x54686520636C6F73696E67206F66207469746C652073656C6C696E67206D7573 PUSH1 0x44 DUP3 ADD MSTORE PUSH19 0x7420626520696E207468652066757475726521 PUSH1 0x68 SHL PUSH1 0x64 DUP3 ADD MSTORE PUSH1 0x84 SWAP1 REVERT JUMPDEST DUP4 MLOAD PUSH3 0x461BCD PUSH1 0xE5 SHL DUP2 MSTORE PUSH1 0x20 DUP2 DUP9 ADD MSTORE PUSH1 0x2A PUSH1 0x24 DUP3 ADD MSTORE PUSH32 0x4E756D626572206F66207061796D656E7473206D757374206265206772656174 PUSH1 0x44 DUP3 ADD MSTORE PUSH10 0x6572207468616E203021 PUSH1 0xB0 SHL PUSH1 0x64 DUP3 ADD MSTORE PUSH1 0x84 SWAP1 REVERT JUMPDEST DUP4 SWAP1 CALLVALUE PUSH2 0x129 JUMPI PUSH1 0x20 CALLDATASIZE PUSH1 0x3 NOT ADD SLT PUSH2 0x129 JUMPI PUSH1 0x1 PUSH1 0x1 PUSH1 0xA0 SHL SUB SWAP2 SWAP1 CALLDATALOAD DUP3 DUP2 AND SWAP1 DUP2 SWAP1 SUB PUSH2 0x129 JUMPI DUP2 DUP5 SWAP2 PUSH1 0xFF SWAP4 MSTORE PUSH1 0x7 PUSH1 0x20 MSTORE KECCAK256 SLOAD DUP4 MLOAD SWAP3 DUP2 AND DUP4 MSTORE PUSH1 0xA0 SHR AND ISZERO ISZERO PUSH1 0x20 DUP3 ADD MSTORE RETURN JUMPDEST DUP4 SWAP1 CALLVALUE PUSH2 0x129 JUMPI DUP3 PUSH1 0x3 NOT CALLDATASIZE ADD SLT PUSH2 0x129 JUMPI PUSH2 0xC0B PUSH2 0x111E JUMP JUMPDEST SWAP1 PUSH1 0x24 DUP1 CALLDATALOAD SWAP2 PUSH8 0xFFFFFFFFFFFFFFFF SWAP2 DUP3 DUP5 GT PUSH2 0xEDE JUMPI CALLDATASIZE PUSH1 0x23 DUP6 ADD SLT ISZERO PUSH2 0xEDE JUMPI DUP4 DUP3 ADD CALLDATALOAD SWAP5 DUP4 DUP7 GT PUSH2 0xECC JUMPI DUP8 MLOAD SWAP4 PUSH1 0x20 SWAP7 PUSH1 0x1F NOT SWAP7 PUSH2 0xC54 DUP10 DUP10 PUSH1 0x1F DUP6 ADD AND ADD DUP9 PUSH2 0x1134 JUMP JUMPDEST DUP2 DUP8 MSTORE CALLDATASIZE DUP6 DUP4 DUP4 ADD ADD GT PUSH2 0xEC8 JUMPI DUP2 DUP11 SWAP3 DUP7 DUP12 SWAP4 ADD DUP4 DUP11 ADD CALLDATACOPY DUP8 ADD ADD MSTORE PUSH1 0x1 PUSH1 0x1 PUSH1 0xA0 SHL SUB SWAP2 DUP3 AND SWAP6 PUSH2 0xC88 DUP8 ISZERO ISZERO PUSH2 0x1306 JUMP JUMPDEST DUP7 DUP10 MSTORE PUSH1 0x5 DUP9 MSTORE PUSH1 0x1 SWAP2 DUP4 DUP4 DUP13 DUP13 KECCAK256 ADD SLOAD AND PUSH2 0xE90 JUMPI DUP11 MLOAD SWAP2 PUSH1 0x60 DUP4 ADD DUP4 DUP2 LT DUP4 DUP3 GT OR PUSH2 0xE7E JUMPI DUP13 MSTORE DUP8 DUP4 MSTORE DUP10 DUP4 ADD SWAP7 DUP10 DUP9 MSTORE DUP13 DUP5 ADD SWAP7 DUP6 DUP9 MSTORE DUP11 DUP14 MSTORE PUSH1 0x5 DUP13 MSTORE DUP14 DUP14 KECCAK256 SWAP5 MLOAD SWAP2 DUP3 MLOAD SWAP5 DUP6 GT PUSH2 0xE6D JUMPI POP POP DUP12 DUP12 PUSH2 0xCE7 DUP7 SLOAD PUSH2 0x116C JUMP JUMPDEST PUSH1 0x1F DUP2 GT PUSH2 0xE33 JUMPI JUMPDEST POP POP POP DUP11 SWAP2 PUSH1 0x1F DUP5 GT PUSH1 0x1 EQ PUSH2 0xDA7 JUMPI POP SWAP3 DUP3 PUSH2 0xD83 SWAP7 SWAP4 PUSH2 0xD96 SWAP11 SWAP10 SWAP7 SWAP4 DUP15 SWAP16 SWAP10 SWAP7 PUSH32 0x7AFEE0F1B802CC0F66C67890E26B4566251859CF2CD8DE79B86AED7251D9756A SWAP16 SWAP3 PUSH2 0xD9C JUMPI JUMPDEST POP POP PUSH1 0x0 NOT PUSH1 0x3 DUP4 SWAP1 SHL SHR NOT AND SWAP1 DUP4 SHL OR DUP2 SSTORE JUMPDEST ADD SWAP3 MLOAD AND PUSH1 0x1 PUSH1 0x1 PUSH1 0x60 SHL SUB PUSH1 0xA0 SHL DUP4 SLOAD AND OR DUP3 SSTORE MLOAD ISZERO ISZERO DUP2 SLOAD SWAP1 PUSH1 0xFF PUSH1 0xA0 SHL SWAP1 ISZERO ISZERO PUSH1 0xA0 SHL AND SWAP1 PUSH1 0xFF PUSH1 0xA0 SHL NOT AND OR SWAP1 SSTORE JUMP JUMPDEST DUP1 DUP1 MLOAD SWAP6 DUP7 SWAP6 DUP7 MSTORE DUP6 ADD MSTORE DUP4 ADD SWAP1 PUSH2 0x124C JUMP JUMPDEST SUB SWAP1 LOG1 DUP1 RETURN JUMPDEST ADD MLOAD SWAP1 POP DUP16 DUP1 PUSH2 0xD3B JUMP JUMPDEST DUP5 DUP14 MSTORE DUP12 DUP14 KECCAK256 SWAP3 SWAP2 SWAP1 DUP5 AND DUP14 JUMPDEST DUP2 DUP2 LT PUSH2 0xE1E JUMPI POP SWAP4 DUP7 SWAP4 PUSH32 0x7AFEE0F1B802CC0F66C67890E26B4566251859CF2CD8DE79B86AED7251D9756A SWAP15 SWAP16 SWAP10 SWAP7 SWAP4 PUSH2 0xD96 SWAP13 SWAP12 SWAP9 SWAP4 DUP4 PUSH2 0xD83 SWAP12 SWAP9 LT PUSH2 0xE05 JUMPI JUMPDEST POP POP POP DUP2 SHL ADD DUP2 SSTORE PUSH2 0xD4F JUMP JUMPDEST ADD MLOAD PUSH1 0x0 NOT PUSH1 0xF8 DUP5 PUSH1 0x3 SHL AND SHR NOT AND SWAP1 SSTORE DUP16 DUP1 DUP1 PUSH2 0xDF8 JUMP JUMPDEST DUP3 DUP5 ADD MLOAD DUP6 SSTORE SWAP4 DUP8 ADD SWAP4 SWAP3 DUP14 ADD SWAP3 DUP14 ADD PUSH2 0xDB4 JUMP JUMPDEST DUP2 DUP4 DUP9 PUSH2 0xE5B SWAP6 MSTORE KECCAK256 SWAP1 PUSH1 0x1F DUP8 ADD PUSH1 0x5 SHR DUP3 ADD SWAP3 DUP8 LT PUSH2 0xE63 JUMPI JUMPDEST PUSH1 0x1F ADD PUSH1 0x5 SHR ADD SWAP1 PUSH2 0x1352 JUMP JUMPDEST DUP12 DUP12 DUP16 PUSH2 0xCF0 JUMP JUMPDEST SWAP1 SWAP2 POP DUP2 SWAP1 PUSH2 0xE4E JUMP JUMPDEST PUSH4 0x4E487B71 PUSH1 0xE0 SHL DUP15 MSTORE PUSH1 0x41 SWAP1 MSTORE DUP13 REVERT JUMPDEST PUSH4 0x4E487B71 PUSH1 0xE0 SHL DUP13 MSTORE PUSH1 0x41 DUP9 MSTORE DUP7 DUP13 REVERT JUMPDEST DUP11 MLOAD PUSH3 0x461BCD PUSH1 0xE5 SHL DUP2 MSTORE DUP1 DUP8 ADD DUP11 SWAP1 MSTORE PUSH1 0x13 DUP2 DUP8 ADD MSTORE PUSH19 0x151BDAD95B88185B1C9958591E481859191959 PUSH1 0x6A SHL PUSH1 0x44 DUP3 ADD MSTORE PUSH1 0x64 SWAP1 REVERT JUMPDEST DUP10 DUP1 REVERT JUMPDEST POP PUSH4 0x4E487B71 PUSH1 0xE0 SHL DUP7 MSTORE PUSH1 0x41 DUP3 MSTORE DUP6 REVERT JUMPDEST DUP6 DUP1 REVERT JUMPDEST SWAP1 DUP4 CALLVALUE PUSH2 0x107 JUMPI PUSH2 0xEF2 CALLDATASIZE PUSH2 0x1104 JUMP JUMPDEST PUSH1 0x3 SLOAD SWAP1 SWAP4 SWAP3 DUP2 DUP2 LT ISZERO PUSH2 0xF5F JUMPI POP POP PUSH2 0xF28 PUSH1 0x20 SWAP6 DUP6 DUP5 PUSH1 0x64 SWAP5 PUSH2 0xF2F SWAP8 SWAP7 MSTORE PUSH1 0x6 DUP10 MSTORE DUP2 DUP2 KECCAK256 DUP7 DUP3 MSTORE DUP10 MSTORE KECCAK256 ADD SLOAD DUP4 PUSH2 0x1369 JUMP JUMPDEST DIV SWAP1 PUSH2 0x1392 JUMP JUMPDEST SWAP1 PUSH32 0x1323840BBD6E53AF646A0046B72FF8EA4144B0492C4F6D3614F8CE899804FD04 DUP4 DUP3 MLOAD DUP5 DUP2 MSTORE LOG1 JUMPDEST MLOAD SWAP1 DUP2 MSTORE RETURN JUMPDEST SWAP1 SWAP2 DUP4 SWAP6 SWAP5 SWAP6 MSTORE PUSH1 0x6 PUSH1 0x20 MSTORE DUP4 DUP4 KECCAK256 DUP6 DUP5 MSTORE PUSH1 0x20 MSTORE PUSH1 0x5 DUP5 DUP5 KECCAK256 ADD SLOAD SWAP3 DUP3 ISZERO PUSH2 0x101D JUMPI POP PUSH1 0x20 SWAP6 POP PUSH2 0xFAE SWAP3 PUSH2 0xFA1 SWAP3 PUSH2 0xF99 SWAP3 DIV PUSH2 0x1369 JUMP JUMPDEST PUSH1 0x1 SLOAD PUSH2 0x1392 JUMP JUMPDEST SWAP3 PUSH1 0x64 PUSH2 0xF28 DUP6 DUP4 PUSH2 0x1369 JUMP JUMPDEST SWAP2 DUP2 PUSH1 0x28 DUP3 GT ISZERO PUSH2 0xFEB JUMPI PUSH32 0x7882C1A4F360824E9D02CEE7D2B40D77BF44368AAE126F3AF401776BF5E82483 SWAP2 DUP2 MLOAD SWAP1 DUP2 MSTORE DUP5 DUP7 DUP3 ADD MSTORE LOG1 PUSH2 0xF59 JUMP JUMPDEST PUSH32 0x43DF8B22D3686D15A6E74163CA342C850BC01D74DB643DB1D546D2BD2A93C9EC SWAP2 DUP2 MLOAD SWAP1 DUP2 MSTORE DUP5 DUP7 DUP3 ADD MSTORE LOG1 PUSH2 0xF59 JUMP JUMPDEST PUSH4 0x4E487B71 PUSH1 0xE0 SHL DUP2 MSTORE PUSH1 0x12 DUP8 MSTORE PUSH1 0x24 SWAP1 REVERT JUMPDEST DUP4 DUP3 CALLVALUE PUSH2 0x129 JUMPI PUSH1 0x3 DUP2 PUSH1 0x20 SWAP4 PUSH2 0x56C CALLDATASIZE PUSH2 0x10E9 JUMP JUMPDEST SWAP2 SWAP3 POP CALLVALUE PUSH2 0x129 JUMPI PUSH1 0x20 CALLDATASIZE PUSH1 0x3 NOT ADD SLT PUSH2 0x129 JUMPI CALLDATALOAD PUSH1 0x1 PUSH1 0x1 PUSH1 0xA0 SHL SUB DUP2 AND SWAP3 SWAP1 DUP4 SWAP1 SUB PUSH2 0x129 JUMPI PUSH2 0x1079 DUP4 ISZERO ISZERO PUSH2 0x12BA JUMP JUMPDEST DUP3 DUP3 MSTORE PUSH1 0x7 PUSH1 0x20 MSTORE DUP2 KECCAK256 PUSH1 0x1 PUSH1 0xFF DUP3 SLOAD PUSH1 0xA0 SHR AND ISZERO ISZERO SUB PUSH2 0x129 JUMPI SSTORE PUSH32 0xA3B62BC36326052D97EA62D63C3D60308ED4C3EA8AC079DD8499F1E9C4F80C0F DUP3 DUP1 LOG2 DUP1 RETURN JUMPDEST SWAP3 POP POP CALLVALUE PUSH2 0x552 JUMPI PUSH1 0x1 SWAP1 PUSH1 0x20 SWAP4 PUSH2 0x10D3 CALLDATASIZE PUSH2 0x10E9 JUMP JUMPDEST SWAP1 DUP3 MSTORE PUSH1 0x6 DUP7 MSTORE DUP3 DUP3 KECCAK256 SWAP1 DUP3 MSTORE DUP6 MSTORE KECCAK256 ADD SLOAD DUP2 MSTORE RETURN JUMPDEST PUSH1 0x40 SWAP1 PUSH1 0x3 NOT ADD SLT PUSH2 0x10FF JUMPI PUSH1 0x4 CALLDATALOAD SWAP1 PUSH1 0x24 CALLDATALOAD SWAP1 JUMP JUMPDEST PUSH1 0x0 DUP1 REVERT JUMPDEST PUSH1 0x60 SWAP1 PUSH1 0x3 NOT ADD SLT PUSH2 0x10FF JUMPI PUSH1 0x4 CALLDATALOAD SWAP1 PUSH1 0x24 CALLDATALOAD SWAP1 PUSH1 0x44 CALLDATALOAD SWAP1 JUMP JUMPDEST PUSH1 0x4 CALLDATALOAD SWAP1 PUSH1 0x1 PUSH1 0x1 PUSH1 0xA0 SHL SUB DUP3 AND DUP3 SUB PUSH2 0x10FF JUMPI JUMP JUMPDEST SWAP1 PUSH1 0x1F DUP1 NOT SWAP2 ADD AND DUP2 ADD SWAP1 DUP2 LT PUSH8 0xFFFFFFFFFFFFFFFF DUP3 GT OR PUSH2 0x1156 JUMPI PUSH1 0x40 MSTORE JUMP JUMPDEST PUSH4 0x4E487B71 PUSH1 0xE0 SHL PUSH1 0x0 MSTORE PUSH1 0x41 PUSH1 0x4 MSTORE PUSH1 0x24 PUSH1 0x0 REVERT JUMPDEST SWAP1 PUSH1 0x1 DUP3 DUP2 SHR SWAP3 AND DUP1 ISZERO PUSH2 0x119C JUMPI JUMPDEST PUSH1 0x20 DUP4 LT EQ PUSH2 0x1186 JUMPI JUMP JUMPDEST PUSH4 0x4E487B71 PUSH1 0xE0 SHL PUSH1 0x0 MSTORE PUSH1 0x22 PUSH1 0x4 MSTORE PUSH1 0x24 PUSH1 0x0 REVERT JUMPDEST SWAP2 PUSH1 0x7F AND SWAP2 PUSH2 0x117B JUMP JUMPDEST SWAP1 PUSH1 0x40 MLOAD SWAP2 DUP3 PUSH1 0x0 DUP3 SLOAD SWAP3 PUSH2 0x11BA DUP5 PUSH2 0x116C JUMP JUMPDEST SWAP1 DUP2 DUP5 MSTORE PUSH1 0x1 SWAP5 DUP6 DUP2 AND SWAP1 DUP2 PUSH1 0x0 EQ PUSH2 0x1229 JUMPI POP PUSH1 0x1 EQ PUSH2 0x11E6 JUMPI JUMPDEST POP POP PUSH2 0x11E4 SWAP3 POP SUB DUP4 PUSH2 0x1134 JUMP JUMPDEST JUMP JUMPDEST SWAP1 SWAP4 SWAP2 POP PUSH1 0x0 MSTORE PUSH1 0x20 SWAP1 DUP2 PUSH1 0x0 KECCAK256 SWAP4 PUSH1 0x0 SWAP2 JUMPDEST DUP2 DUP4 LT PUSH2 0x1211 JUMPI POP POP PUSH2 0x11E4 SWAP4 POP DUP3 ADD ADD CODESIZE DUP1 PUSH2 0x11D6 JUMP JUMPDEST DUP6 SLOAD DUP9 DUP5 ADD DUP6 ADD MSTORE SWAP5 DUP6 ADD SWAP5 DUP8 SWAP5 POP SWAP2 DUP4 ADD SWAP2 PUSH2 0x11F9 JUMP JUMPDEST SWAP2 POP POP PUSH2 0x11E4 SWAP5 POP PUSH1 0x20 SWAP3 POP PUSH1 0xFF NOT AND DUP3 DUP5 ADD MSTORE ISZERO ISZERO PUSH1 0x5 SHL DUP3 ADD ADD CODESIZE DUP1 PUSH2 0x11D6 JUMP JUMPDEST SWAP2 SWAP1 DUP3 MLOAD SWAP3 DUP4 DUP3 MSTORE PUSH1 0x0 JUMPDEST DUP5 DUP2 LT PUSH2 0x1278 JUMPI POP POP DUP3 PUSH1 0x0 PUSH1 0x20 DUP1 SWAP5 SWAP6 DUP5 ADD ADD MSTORE PUSH1 0x1F DUP1 NOT SWAP2 ADD AND ADD ADD SWAP1 JUMP JUMPDEST PUSH1 0x20 DUP2 DUP4 ADD DUP2 ADD MLOAD DUP5 DUP4 ADD DUP3 ADD MSTORE ADD PUSH2 0x1257 JUMP JUMPDEST SWAP2 SWAP4 SWAP3 PUSH2 0x12A3 PUSH1 0x40 SWAP3 PUSH1 0x60 DUP6 MSTORE PUSH1 0x60 DUP6 ADD SWAP1 PUSH2 0x124C JUMP JUMPDEST PUSH1 0x1 PUSH1 0x1 PUSH1 0xA0 SHL SUB SWAP1 SWAP6 AND PUSH1 0x20 DUP5 ADD MSTORE ISZERO ISZERO SWAP2 ADD MSTORE JUMP JUMPDEST ISZERO PUSH2 0x12C1 JUMPI JUMP JUMPDEST PUSH1 0x40 MLOAD PUSH3 0x461BCD PUSH1 0xE5 SHL DUP2 MSTORE PUSH1 0x20 PUSH1 0x4 DUP3 ADD MSTORE PUSH1 0x1C PUSH1 0x24 DUP3 ADD MSTORE PUSH32 0x41646D696E2077616C6C65742063616E277420626520656D7074792100000000 PUSH1 0x44 DUP3 ADD MSTORE PUSH1 0x64 SWAP1 REVERT JUMPDEST ISZERO PUSH2 0x130D JUMPI JUMP JUMPDEST PUSH1 0x40 MLOAD PUSH3 0x461BCD PUSH1 0xE5 SHL DUP2 MSTORE PUSH1 0x20 PUSH1 0x4 DUP3 ADD MSTORE PUSH1 0x1C PUSH1 0x24 DUP3 ADD MSTORE PUSH32 0x546F6B656E20616464726573732063616E6E6F74206265207A65726F00000000 PUSH1 0x44 DUP3 ADD MSTORE PUSH1 0x64 SWAP1 REVERT JUMPDEST DUP2 DUP2 LT PUSH2 0x135D JUMPI POP POP JUMP JUMPDEST PUSH1 0x0 DUP2 SSTORE PUSH1 0x1 ADD PUSH2 0x1352 JUMP JUMPDEST DUP2 DUP2 MUL SWAP3 SWAP2 DUP2 ISZERO SWAP2 DUP5 DIV EQ OR ISZERO PUSH2 0x137C JUMPI JUMP JUMPDEST PUSH4 0x4E487B71 PUSH1 0xE0 SHL PUSH1 0x0 MSTORE PUSH1 0x11 PUSH1 0x4 MSTORE PUSH1 0x24 PUSH1 0x0 REVERT JUMPDEST SWAP2 SWAP1 DUP3 ADD DUP1 SWAP3 GT PUSH2 0x137C JUMPI JUMP JUMPDEST PUSH1 0x0 NOT DUP2 EQ PUSH2 0x137C JUMPI PUSH1 0x1 ADD SWAP1 JUMP INVALID LOG2 PUSH5 0x6970667358 0x22 SLT KECCAK256 KECCAK256 JUMPDEST BALANCE XOR DIV DUP7 0xFC SWAP16 DUP15 0xB5 PUSH2 0x9FC4 CALLDATACOPY SWAP4 LOG4 SWAP7 KECCAK256 DUP7 GASPRICE GASLIMIT 0x49 EXTCODECOPY SLT 0xB4 0xE7 POP 0xFB DUP4 0xA8 NOT TIMESTAMP PUSH5 0x736F6C6343 STOP ADDMOD EQ STOP CALLER "},"gasEstimates":{"creation":{"codeDepositCost":"1018400","executionCost":"113725","totalCost":"1132125"},"external":{"addAdmin(address)":"28310","addParticipantsToDraw(uint256,uint256)":"24938","addToken(address,string)":"infinite","allowedCrypto(address)":"infinite","baseInterestRate()":"2643","calculateDelayedPayment(uint256,uint256,uint256)":"infinite","createSchedule(uint256,uint256,uint256)":"infinite","dailyInterestRate()":"2577","removeAdmin(address)":"8623","removeToken(address)":"infinite","returnAvailableStablecoin(address)":"infinite","returnDrawDate(uint256,uint256)":"2508","returnDrawParticipants(uint256,uint256)":"2449","returnPaymentDeadline(uint256,uint256)":"2662","staff(address)":"2554","updateInterest(uint256,uint256)":"44786","updatePaymentDate(uint256,uint256,uint256)":"30820","withdrawProtocolFee(address)":"infinite"}},"methodIdentifiers":{"addAdmin(address)":"70480275","addParticipantsToDraw(uint256,uint256)":"ac066fa2","addToken(address,string)":"2c8da560","allowedCrypto(address)":"7c4c4b89","baseInterestRate()":"afd92762","calculateDelayedPayment(uint256,uint256,uint256)":"2b187755","createSchedule(uint256,uint256,uint256)":"5294bac8","dailyInterestRate()":"7fca631f","removeAdmin(address)":"1785f53c","removeToken(address)":"5fa7b584","returnAvailableStablecoin(address)":"8c83ddd3","returnDrawDate(uint256,uint256)":"29b00732","returnDrawParticipants(uint256,uint256)":"0d65a8e8","returnPaymentDeadline(uint256,uint256)":"64cf0e40","staff(address)":"4f83158a","updateInterest(uint256,uint256)":"b4f9a7e0","updatePaymentDate(uint256,uint256,uint256)":"559006c2","withdrawProtocolFee(address)":"668fb6dc"}},"storageLayout":{"storage":[{"astId":6974,"contract":"contracts/HorizonStaff.sol:HorizonStaff","label":"scheduleId","offset":0,"slot":"0","type":"t_uint256"},{"astId":6977,"contract":"contracts/HorizonStaff.sol:HorizonStaff","label":"baseInterestRate","offset":0,"slot":"1","type":"t_uint256"},{"astId":6980,"contract":"contracts/HorizonStaff.sol:HorizonStaff","label":"dailyInterestRate","offset":0,"slot":"2","type":"t_uint256"},{"astId":6983,"contract":"contracts/HorizonStaff.sol:HorizonStaff","label":"oneDay","offset":0,"slot":"3","type":"t_uint256"},{"astId":6985,"contract":"contracts/HorizonStaff.sol:HorizonStaff","label":"owner","offset":0,"slot":"4","type":"t_address"},{"astId":7064,"contract":"contracts/HorizonStaff.sol:HorizonStaff","label":"allowedCrypto","offset":0,"slot":"5","type":"t_mapping(t_contract(IERC20)827,t_struct(TokenInfo)7045_storage)"},{"astId":7071,"contract":"contracts/HorizonStaff.sol:HorizonStaff","label":"schedule","offset":0,"slot":"6","type":"t_mapping(t_uint256,t_mapping(t_uint256,t_struct(Deadlines)7058_storage))"},{"astId":7076,"contract":"contracts/HorizonStaff.sol:HorizonStaff","label":"staff","offset":0,"slot":"7","type":"t_mapping(t_address,t_struct(AdminInfo)7037_storage)"},{"astId":7079,"contract":"contracts/HorizonStaff.sol:HorizonStaff","label":"stablecoin","offset":0,"slot":"8","type":"t_contract(IERC20)827"}],"types":{"t_address":{"encoding":"inplace","label":"address","numberOfBytes":"20"},"t_bool":{"encoding":"inplace","label":"bool","numberOfBytes":"1"},"t_contract(IERC20)827":{"encoding":"inplace","label":"contract IERC20","numberOfBytes":"20"},"t_mapping(t_address,t_struct(AdminInfo)7037_storage)":{"encoding":"mapping","key":"t_address","label":"mapping(address => struct HorizonStaff.AdminInfo)","numberOfBytes":"32","value":"t_struct(AdminInfo)7037_storage"},"t_mapping(t_contract(IERC20)827,t_struct(TokenInfo)7045_storage)":{"encoding":"mapping","key":"t_contract(IERC20)827","label":"mapping(contract IERC20 => struct HorizonStaff.TokenInfo)","numberOfBytes":"32","value":"t_struct(TokenInfo)7045_storage"},"t_mapping(t_uint256,t_mapping(t_uint256,t_struct(Deadlines)7058_storage))":{"encoding":"mapping","key":"t_uint256","label":"mapping(uint256 => mapping(uint256 => struct HorizonStaff.Deadlines))","numberOfBytes":"32","value":"t_mapping(t_uint256,t_struct(Deadlines)7058_storage)"},"t_mapping(t_uint256,t_struct(Deadlines)7058_storage)":{"encoding":"mapping","key":"t_uint256","label":"mapping(uint256 => struct HorizonStaff.Deadlines)","numberOfBytes":"32","value":"t_struct(Deadlines)7058_storage"},"t_string_storage":{"encoding":"bytes","label":"string","numberOfBytes":"32"},"t_struct(AdminInfo)7037_storage":{"encoding":"inplace","label":"struct HorizonStaff.AdminInfo","members":[{"astId":7034,"contract":"contracts/HorizonStaff.sol:HorizonStaff","label":"wallet","offset":0,"slot":"0","type":"t_address"},{"astId":7036,"contract":"contracts/HorizonStaff.sol:HorizonStaff","label":"isAdmin","offset":20,"slot":"0","type":"t_bool"}],"numberOfBytes":"32"},"t_struct(Deadlines)7058_storage":{"encoding":"inplace","label":"struct HorizonStaff.Deadlines","members":[{"astId":7047,"contract":"contracts/HorizonStaff.sol:HorizonStaff","label":"installmentNumber","offset":0,"slot":"0","type":"t_uint256"},{"astId":7049,"contract":"contracts/HorizonStaff.sol:HorizonStaff","label":"participants","offset":0,"slot":"1","type":"t_uint256"},{"astId":7051,"contract":"contracts/HorizonStaff.sol:HorizonStaff","label":"dateOfPayment","offset":0,"slot":"2","type":"t_uint256"},{"astId":7053,"contract":"contracts/HorizonStaff.sol:HorizonStaff","label":"dateOfDraw","offset":0,"slot":"3","type":"t_uint256"},{"astId":7055,"contract":"contracts/HorizonStaff.sol:HorizonStaff","label":"baseInterestRate","offset":0,"slot":"4","type":"t_uint256"},{"astId":7057,"contract":"contracts/HorizonStaff.sol:HorizonStaff","label":"dailyInterestRate","offset":0,"slot":"5","type":"t_uint256"}],"numberOfBytes":"192"},"t_struct(TokenInfo)7045_storage":{"encoding":"inplace","label":"struct HorizonStaff.TokenInfo","members":[{"astId":7039,"contract":"contracts/HorizonStaff.sol:HorizonStaff","label":"tokenSymbol","offset":0,"slot":"0","type":"t_string_storage"},{"astId":7042,"contract":"contracts/HorizonStaff.sol:HorizonStaff","label":"stablecoin","offset":0,"slot":"1","type":"t_contract(IERC20)827"},{"astId":7044,"contract":"contracts/HorizonStaff.sol:HorizonStaff","label":"isStable","offset":20,"slot":"1","type":"t_bool"}],"numberOfBytes":"64"},"t_uint256":{"encoding":"inplace","label":"uint256","numberOfBytes":"32"}}},"userdoc":{"kind":"user","methods":{},"version":1}}}}