{"contracts/HorizonVRF.sol":{"HorizonVRF":{"abi":[{"inputs":[{"internalType":"address","name":"_vrfCoordinator","type":"address"},{"internalType":"bytes32","name":"_keyHash","type":"bytes32"},{"internalType":"uint64","name":"_subscriptionId","type":"uint64"},{"internalType":"uint32","name":"_callbackGasLimit","type":"uint32"},{"internalType":"uint16","name":"_requestConfirmations","type":"uint16"},{"internalType":"uint32","name":"_numWords","type":"uint32"}],"stateMutability":"nonpayable","type":"constructor"},{"inputs":[{"internalType":"address","name":"have","type":"address"},{"internalType":"address","name":"want","type":"address"}],"name":"OnlyCoordinatorCanFulfill","type":"error"},{"anonymous":false,"inputs":[{"indexed":false,"internalType":"uint256","name":"randomValue","type":"uint256"}],"name":"RandomValueUpdated","type":"event"},{"anonymous":false,"inputs":[{"indexed":false,"internalType":"uint256","name":"requestId","type":"uint256"},{"indexed":false,"internalType":"uint256[]","name":"randomWords","type":"uint256[]"},{"indexed":false,"internalType":"uint256","name":"randomValue","type":"uint256"}],"name":"RequestFulfilled","type":"event"},{"anonymous":false,"inputs":[{"indexed":false,"internalType":"uint256","name":"requestId","type":"uint256"},{"indexed":false,"internalType":"uint32","name":"numWords","type":"uint32"},{"indexed":false,"internalType":"uint256","name":"_titleId","type":"uint256"},{"indexed":false,"internalType":"uint256","name":"_drawNumber","type":"uint256"},{"indexed":false,"internalType":"uint256","name":"_totalPlayersAvailable","type":"uint256"}],"name":"RequestSent","type":"event"},{"inputs":[{"internalType":"uint256","name":"_requestId","type":"uint256"}],"name":"getRequestStatus","outputs":[{"internalType":"bool","name":"fulfilled","type":"bool"},{"internalType":"uint256[]","name":"randomWords","type":"uint256[]"},{"internalType":"uint256","name":"_randomValue","type":"uint256"}],"stateMutability":"view","type":"function"},{"inputs":[],"name":"lastRequestId","outputs":[{"internalType":"uint256","name":"","type":"uint256"}],"stateMutability":"view","type":"function"},{"inputs":[],"name":"owner","outputs":[{"internalType":"address","name":"","type":"address"}],"stateMutability":"view","type":"function"},{"inputs":[{"internalType":"uint256","name":"requestId","type":"uint256"},{"internalType":"uint256[]","name":"randomWords","type":"uint256[]"}],"name":"rawFulfillRandomWords","outputs":[],"stateMutability":"nonpayable","type":"function"},{"inputs":[{"internalType":"uint256","name":"","type":"uint256"}],"name":"requestIds","outputs":[{"internalType":"uint256","name":"","type":"uint256"}],"stateMutability":"view","type":"function"},{"inputs":[{"internalType":"uint256","name":"_titleId","type":"uint256"},{"internalType":"uint256","name":"_drawNumber","type":"uint256"},{"internalType":"uint256","name":"_totalPlayersAvailable","type":"uint256"}],"name":"requestRandomWords","outputs":[{"internalType":"uint256","name":"requestId","type":"uint256"}],"stateMutability":"nonpayable","type":"function"},{"inputs":[{"internalType":"uint256","name":"requestId","type":"uint256"}],"name":"s_draw","outputs":[{"internalType":"uint256","name":"titleId","type":"uint256"},{"internalType":"uint256","name":"drawNumber","type":"uint256"},{"internalType":"uint256","name":"totalPlayersAvailable","type":"uint256"}],"stateMutability":"view","type":"function"},{"inputs":[{"internalType":"uint256","name":"requestId","type":"uint256"}],"name":"s_requests","outputs":[{"internalType":"bool","name":"fulfilled","type":"bool"},{"internalType":"bool","name":"exists","type":"bool"},{"internalType":"uint256","name":"randomValue","type":"uint256"}],"stateMutability":"view","type":"function"}],"devdoc":{"kind":"dev","methods":{},"version":1},"evm":{"bytecode":{"linkReferences":{},"object":"60a03461010c576001600160401b0390601f610a1c38819003918201601f1916830191848311848410176101115780849260c09460405283398101031261010c578051916001600160a01b0383169081840361010c57602083015192604081015191821680920361010c5761007660608201610127565b9160808201519461ffff8616860361010c576dffff000000000000000000000000946100b160a06bffffffff00000000000000009501610127565b9760805260018060a01b031960065416176006556008556009549563ffffffff60701b9060701b169560018060901b031916179160401b16179160601b1617176009556040516108e390816101398239608051816105b80152f35b600080fd5b634e487b7160e01b600052604160045260246000fd5b519063ffffffff8216820361010c5756fe60c060408181526004918236101561001657600080fd5b600092833560e01c9182631fe543e31461053c5750816332601f64146102605781638796ba8c146102255781638da5cb5b146101fc578163a168fa89146101b7578163cbc1c02114610179578163d8a4676f1461009e575063fc2a88c31461007d57600080fd5b3461009a578160031936011261009a576020906005549051908152f35b5080fd5b83833461009a576020928360031936011261017557358083528284526100cc60ff8385205460081c1661086d565b82528183528082208151906100e082610798565b60ff81548181161515845260081c16151585830152600193848201845191829687938984549182815201938352898320925b8a82821061015f57868a8a61015760028c61012f868d03876107ca565b8585850152015491826060820152511515936060845196879687528601526060850190610839565b918301520390f35b845486528a965090940193928201928201610112565b8280fd5b905034610175576020366003190112610175576060928291358152600160205220805491600260018301549201549181519384526020840152820152f35b905034610175576020366003190112610175576060928291358152806020522090600282549201549060ff8151938181161515855260081c1615156020840152820152f35b50503461009a578160031936011261009a5760035490516001600160a01b039091168152602090f35b82843461025d57602036600319011261025d578235925483101561025d575061024f6020926107ec565b91905490519160031b1c8152f35b80fd5b9050823461025d57606036600319011261025d5760018060a01b036006541691600854600954908551906305d3b1d360e41b82528382015267ffffffffffffffff906024958284168783015261ffff8460601c16604483015263ffffffff848180968b1c16606485015260701c16608483015260206080528160a48188608051945af18015610532578560a0526104fb575b50855192608051840184811083821117610485578752848452865161031681610798565b858152608051810190600195868352898201908152606082019288845260a051895288608051528a8920925115159060ff61ff0085549251151560081b1692169061ffff191617178255519182518581116104e957600160401b938482116104d7578884019081548383558084106104ab575b5060805101908a526080518a20898b5b848110610497575050505050600290519101558154908110156104855780856103c4920183556107ec565b81549060031b9060a051821b91600019901b191617905560a0516005558651916060830190838210908211176104855791600260a09694927ffe311bf598a14a250b990be603a26cfc8f34a235e618e79c51aacc47c0d74ac69896948a52359586835260805183019035948582528a8401918b604435988985528b5181528360805152209451855551908401555191015560095460701c1692865193855185526080518501528684015260608301526080820152a15160a051815260805190f35b634e487b7160e01b8652604182528686fd5b835193608051019381840155018a90610399565b828c526080518c20908b8583018e5b83850182106104cc5750505050610389565b8155018c908e6104ba565b634e487b7160e01b8a52604186528a8afd5b634e487b7160e01b8952604185528989fd5b6080513d811161052b575b61051081836107ca565b816080519181010312610527575160a052866102f2565b8480fd5b503d610506565b87513d87823e3d90fd5b8482853461017557806003193601126101755781359060249283359367ffffffffffffffff918286116107945736602387011215610794578581013595838711610782578660051b906020976105948984018c6107ca565b8a52878a018481938301019136831161077e57858a9101915b83831061076e5750507f00000000000000000000000000000000000000000000000000000000000000006001600160a01b031691505033819003610752575085885287875261060460ff868a205460081c1661086d565b85885287875284882093600180958160ff19825416178155018a5191821161074057600160401b8211610740578054828255808310610719575b5082908a52888a20868b5b8481106107075750505050508851156106f55751858852838752600285892001549081156106e357069283018093116106d25750506106c88596847f147eb1ff0c82f87f2b03e2c43f5a36488ff63ec6b730195fde4605f612f8db519752878652826002858a2001556060845196879687528601526060850190610839565b918301520390a180f35b634e487b7160e01b87526011905285fd5b634e487b7160e01b8952601283528389fd5b50634e487b7160e01b87526032905285fd5b8b845194019381840155018790610649565b818b5286838b8d2092830192015b82811061073557505061063e565b8c8155018790610727565b634e487b7160e01b8a5260418452848afd5b905060449285519263073e64fd60e21b84523390840152820152fd5b82358152918101918a91016105ad565b8a80fd5b50634e487b7160e01b87526041905285fd5b8680fd5b6080810190811067ffffffffffffffff8211176107b457604052565b634e487b7160e01b600052604160045260246000fd5b90601f8019910116810190811067ffffffffffffffff8211176107b457604052565b6004548110156108235760046000527f8a35acfbc15ff81a39ae7d344fd709f28e8600b4aa8c65c6b64bfe7fe36bd19b0190600090565b634e487b7160e01b600052603260045260246000fd5b90815180825260208080930193019160005b828110610859575050505090565b83518552938101939281019260010161084b565b1561087457565b60405162461bcd60e51b81526020600482015260116024820152701c995c5d595cdd081b9bdd08199bdd5b99607a1b6044820152606490fdfea26469706673582212205ba1b422964075ddc3b123e6400a9a5375994823fa5eaa4567770dcb58a0387f64736f6c63430008140033","opcodes":"PUSH1 0xA0 CALLVALUE PUSH2 0x10C JUMPI PUSH1 0x1 PUSH1 0x1 PUSH1 0x40 SHL SUB SWAP1 PUSH1 0x1F PUSH2 0xA1C CODESIZE DUP2 SWAP1 SUB SWAP2 DUP3 ADD PUSH1 0x1F NOT AND DUP4 ADD SWAP2 DUP5 DUP4 GT DUP5 DUP5 LT OR PUSH2 0x111 JUMPI DUP1 DUP5 SWAP3 PUSH1 0xC0 SWAP5 PUSH1 0x40 MSTORE DUP4 CODECOPY DUP2 ADD SUB SLT PUSH2 0x10C JUMPI DUP1 MLOAD SWAP2 PUSH1 0x1 PUSH1 0x1 PUSH1 0xA0 SHL SUB DUP4 AND SWAP1 DUP2 DUP5 SUB PUSH2 0x10C JUMPI PUSH1 0x20 DUP4 ADD MLOAD SWAP3 PUSH1 0x40 DUP2 ADD MLOAD SWAP2 DUP3 AND DUP1 SWAP3 SUB PUSH2 0x10C JUMPI PUSH2 0x76 PUSH1 0x60 DUP3 ADD PUSH2 0x127 JUMP JUMPDEST SWAP2 PUSH1 0x80 DUP3 ADD MLOAD SWAP5 PUSH2 0xFFFF DUP7 AND DUP7 SUB PUSH2 0x10C JUMPI PUSH14 0xFFFF000000000000000000000000 SWAP5 PUSH2 0xB1 PUSH1 0xA0 PUSH12 0xFFFFFFFF0000000000000000 SWAP6 ADD PUSH2 0x127 JUMP JUMPDEST SWAP8 PUSH1 0x80 MSTORE PUSH1 0x1 DUP1 PUSH1 0xA0 SHL SUB NOT PUSH1 0x6 SLOAD AND OR PUSH1 0x6 SSTORE PUSH1 0x8 SSTORE PUSH1 0x9 SLOAD SWAP6 PUSH4 0xFFFFFFFF PUSH1 0x70 SHL SWAP1 PUSH1 0x70 SHL AND SWAP6 PUSH1 0x1 DUP1 PUSH1 0x90 SHL SUB NOT AND OR SWAP2 PUSH1 0x40 SHL AND OR SWAP2 PUSH1 0x60 SHL AND OR OR PUSH1 0x9 SSTORE PUSH1 0x40 MLOAD PUSH2 0x8E3 SWAP1 DUP2 PUSH2 0x139 DUP3 CODECOPY PUSH1 0x80 MLOAD DUP2 PUSH2 0x5B8 ADD MSTORE RETURN JUMPDEST PUSH1 0x0 DUP1 REVERT JUMPDEST PUSH4 0x4E487B71 PUSH1 0xE0 SHL PUSH1 0x0 MSTORE PUSH1 0x41 PUSH1 0x4 MSTORE PUSH1 0x24 PUSH1 0x0 REVERT JUMPDEST MLOAD SWAP1 PUSH4 0xFFFFFFFF DUP3 AND DUP3 SUB PUSH2 0x10C JUMPI JUMP INVALID PUSH1 0xC0 PUSH1 0x40 DUP2 DUP2 MSTORE PUSH1 0x4 SWAP2 DUP3 CALLDATASIZE LT ISZERO PUSH2 0x16 JUMPI PUSH1 0x0 DUP1 REVERT JUMPDEST PUSH1 0x0 SWAP3 DUP4 CALLDATALOAD PUSH1 0xE0 SHR SWAP2 DUP3 PUSH4 0x1FE543E3 EQ PUSH2 0x53C JUMPI POP DUP2 PUSH4 0x32601F64 EQ PUSH2 0x260 JUMPI DUP2 PUSH4 0x8796BA8C EQ PUSH2 0x225 JUMPI DUP2 PUSH4 0x8DA5CB5B EQ PUSH2 0x1FC JUMPI DUP2 PUSH4 0xA168FA89 EQ PUSH2 0x1B7 JUMPI DUP2 PUSH4 0xCBC1C021 EQ PUSH2 0x179 JUMPI DUP2 PUSH4 0xD8A4676F EQ PUSH2 0x9E JUMPI POP PUSH4 0xFC2A88C3 EQ PUSH2 0x7D JUMPI PUSH1 0x0 DUP1 REVERT JUMPDEST CALLVALUE PUSH2 0x9A JUMPI DUP2 PUSH1 0x3 NOT CALLDATASIZE ADD SLT PUSH2 0x9A JUMPI PUSH1 0x20 SWAP1 PUSH1 0x5 SLOAD SWAP1 MLOAD SWAP1 DUP2 MSTORE RETURN JUMPDEST POP DUP1 REVERT JUMPDEST DUP4 DUP4 CALLVALUE PUSH2 0x9A JUMPI PUSH1 0x20 SWAP3 DUP4 PUSH1 0x3 NOT CALLDATASIZE ADD SLT PUSH2 0x175 JUMPI CALLDATALOAD DUP1 DUP4 MSTORE DUP3 DUP5 MSTORE PUSH2 0xCC PUSH1 0xFF DUP4 DUP6 KECCAK256 SLOAD PUSH1 0x8 SHR AND PUSH2 0x86D JUMP JUMPDEST DUP3 MSTORE DUP2 DUP4 MSTORE DUP1 DUP3 KECCAK256 DUP2 MLOAD SWAP1 PUSH2 0xE0 DUP3 PUSH2 0x798 JUMP JUMPDEST PUSH1 0xFF DUP2 SLOAD DUP2 DUP2 AND ISZERO ISZERO DUP5 MSTORE PUSH1 0x8 SHR AND ISZERO ISZERO DUP6 DUP4 ADD MSTORE PUSH1 0x1 SWAP4 DUP5 DUP3 ADD DUP5 MLOAD SWAP2 DUP3 SWAP7 DUP8 SWAP4 DUP10 DUP5 SLOAD SWAP2 DUP3 DUP2 MSTORE ADD SWAP4 DUP4 MSTORE DUP10 DUP4 KECCAK256 SWAP3 JUMPDEST DUP11 DUP3 DUP3 LT PUSH2 0x15F JUMPI DUP7 DUP11 DUP11 PUSH2 0x157 PUSH1 0x2 DUP13 PUSH2 0x12F DUP7 DUP14 SUB DUP8 PUSH2 0x7CA JUMP JUMPDEST DUP6 DUP6 DUP6 ADD MSTORE ADD SLOAD SWAP2 DUP3 PUSH1 0x60 DUP3 ADD MSTORE MLOAD ISZERO ISZERO SWAP4 PUSH1 0x60 DUP5 MLOAD SWAP7 DUP8 SWAP7 DUP8 MSTORE DUP7 ADD MSTORE PUSH1 0x60 DUP6 ADD SWAP1 PUSH2 0x839 JUMP JUMPDEST SWAP2 DUP4 ADD MSTORE SUB SWAP1 RETURN JUMPDEST DUP5 SLOAD DUP7 MSTORE DUP11 SWAP7 POP SWAP1 SWAP5 ADD SWAP4 SWAP3 DUP3 ADD SWAP3 DUP3 ADD PUSH2 0x112 JUMP JUMPDEST DUP3 DUP1 REVERT JUMPDEST SWAP1 POP CALLVALUE PUSH2 0x175 JUMPI PUSH1 0x20 CALLDATASIZE PUSH1 0x3 NOT ADD SLT PUSH2 0x175 JUMPI PUSH1 0x60 SWAP3 DUP3 SWAP2 CALLDATALOAD DUP2 MSTORE PUSH1 0x1 PUSH1 0x20 MSTORE KECCAK256 DUP1 SLOAD SWAP2 PUSH1 0x2 PUSH1 0x1 DUP4 ADD SLOAD SWAP3 ADD SLOAD SWAP2 DUP2 MLOAD SWAP4 DUP5 MSTORE PUSH1 0x20 DUP5 ADD MSTORE DUP3 ADD MSTORE RETURN JUMPDEST SWAP1 POP CALLVALUE PUSH2 0x175 JUMPI PUSH1 0x20 CALLDATASIZE PUSH1 0x3 NOT ADD SLT PUSH2 0x175 JUMPI PUSH1 0x60 SWAP3 DUP3 SWAP2 CALLDATALOAD DUP2 MSTORE DUP1 PUSH1 0x20 MSTORE KECCAK256 SWAP1 PUSH1 0x2 DUP3 SLOAD SWAP3 ADD SLOAD SWAP1 PUSH1 0xFF DUP2 MLOAD SWAP4 DUP2 DUP2 AND ISZERO ISZERO DUP6 MSTORE PUSH1 0x8 SHR AND ISZERO ISZERO PUSH1 0x20 DUP5 ADD MSTORE DUP3 ADD MSTORE RETURN JUMPDEST POP POP CALLVALUE PUSH2 0x9A JUMPI DUP2 PUSH1 0x3 NOT CALLDATASIZE ADD SLT PUSH2 0x9A JUMPI PUSH1 0x3 SLOAD SWAP1 MLOAD PUSH1 0x1 PUSH1 0x1 PUSH1 0xA0 SHL SUB SWAP1 SWAP2 AND DUP2 MSTORE PUSH1 0x20 SWAP1 RETURN JUMPDEST DUP3 DUP5 CALLVALUE PUSH2 0x25D JUMPI PUSH1 0x20 CALLDATASIZE PUSH1 0x3 NOT ADD SLT PUSH2 0x25D JUMPI DUP3 CALLDATALOAD SWAP3 SLOAD DUP4 LT ISZERO PUSH2 0x25D JUMPI POP PUSH2 0x24F PUSH1 0x20 SWAP3 PUSH2 0x7EC JUMP JUMPDEST SWAP2 SWAP1 SLOAD SWAP1 MLOAD SWAP2 PUSH1 0x3 SHL SHR DUP2 MSTORE RETURN JUMPDEST DUP1 REVERT JUMPDEST SWAP1 POP DUP3 CALLVALUE PUSH2 0x25D JUMPI PUSH1 0x60 CALLDATASIZE PUSH1 0x3 NOT ADD SLT PUSH2 0x25D JUMPI PUSH1 0x1 DUP1 PUSH1 0xA0 SHL SUB PUSH1 0x6 SLOAD AND SWAP2 PUSH1 0x8 SLOAD PUSH1 0x9 SLOAD SWAP1 DUP6 MLOAD SWAP1 PUSH4 0x5D3B1D3 PUSH1 0xE4 SHL DUP3 MSTORE DUP4 DUP3 ADD MSTORE PUSH8 0xFFFFFFFFFFFFFFFF SWAP1 PUSH1 0x24 SWAP6 DUP3 DUP5 AND DUP8 DUP4 ADD MSTORE PUSH2 0xFFFF DUP5 PUSH1 0x60 SHR AND PUSH1 0x44 DUP4 ADD MSTORE PUSH4 0xFFFFFFFF DUP5 DUP2 DUP1 SWAP7 DUP12 SHR AND PUSH1 0x64 DUP6 ADD MSTORE PUSH1 0x70 SHR AND PUSH1 0x84 DUP4 ADD MSTORE PUSH1 0x20 PUSH1 0x80 MSTORE DUP2 PUSH1 0xA4 DUP2 DUP9 PUSH1 0x80 MLOAD SWAP5 GAS CALL DUP1 ISZERO PUSH2 0x532 JUMPI DUP6 PUSH1 0xA0 MSTORE PUSH2 0x4FB JUMPI JUMPDEST POP DUP6 MLOAD SWAP3 PUSH1 0x80 MLOAD DUP5 ADD DUP5 DUP2 LT DUP4 DUP3 GT OR PUSH2 0x485 JUMPI DUP8 MSTORE DUP5 DUP5 MSTORE DUP7 MLOAD PUSH2 0x316 DUP2 PUSH2 0x798 JUMP JUMPDEST DUP6 DUP2 MSTORE PUSH1 0x80 MLOAD DUP2 ADD SWAP1 PUSH1 0x1 SWAP6 DUP7 DUP4 MSTORE DUP10 DUP3 ADD SWAP1 DUP2 MSTORE PUSH1 0x60 DUP3 ADD SWAP3 DUP9 DUP5 MSTORE PUSH1 0xA0 MLOAD DUP10 MSTORE DUP9 PUSH1 0x80 MLOAD MSTORE DUP11 DUP10 KECCAK256 SWAP3 MLOAD ISZERO ISZERO SWAP1 PUSH1 0xFF PUSH2 0xFF00 DUP6 SLOAD SWAP3 MLOAD ISZERO ISZERO PUSH1 0x8 SHL AND SWAP3 AND SWAP1 PUSH2 0xFFFF NOT AND OR OR DUP3 SSTORE MLOAD SWAP2 DUP3 MLOAD DUP6 DUP2 GT PUSH2 0x4E9 JUMPI PUSH1 0x1 PUSH1 0x40 SHL SWAP4 DUP5 DUP3 GT PUSH2 0x4D7 JUMPI DUP9 DUP5 ADD SWAP1 DUP2 SLOAD DUP4 DUP4 SSTORE DUP1 DUP5 LT PUSH2 0x4AB JUMPI JUMPDEST POP PUSH1 0x80 MLOAD ADD SWAP1 DUP11 MSTORE PUSH1 0x80 MLOAD DUP11 KECCAK256 DUP10 DUP12 JUMPDEST DUP5 DUP2 LT PUSH2 0x497 JUMPI POP POP POP POP POP PUSH1 0x2 SWAP1 MLOAD SWAP2 ADD SSTORE DUP2 SLOAD SWAP1 DUP2 LT ISZERO PUSH2 0x485 JUMPI DUP1 DUP6 PUSH2 0x3C4 SWAP3 ADD DUP4 SSTORE PUSH2 0x7EC JUMP JUMPDEST DUP2 SLOAD SWAP1 PUSH1 0x3 SHL SWAP1 PUSH1 0xA0 MLOAD DUP3 SHL SWAP2 PUSH1 0x0 NOT SWAP1 SHL NOT AND OR SWAP1 SSTORE PUSH1 0xA0 MLOAD PUSH1 0x5 SSTORE DUP7 MLOAD SWAP2 PUSH1 0x60 DUP4 ADD SWAP1 DUP4 DUP3 LT SWAP1 DUP3 GT OR PUSH2 0x485 JUMPI SWAP2 PUSH1 0x2 PUSH1 0xA0 SWAP7 SWAP5 SWAP3 PUSH32 0xFE311BF598A14A250B990BE603A26CFC8F34A235E618E79C51AACC47C0D74AC6 SWAP9 SWAP7 SWAP5 DUP11 MSTORE CALLDATALOAD SWAP6 DUP7 DUP4 MSTORE PUSH1 0x80 MLOAD DUP4 ADD SWAP1 CALLDATALOAD SWAP5 DUP6 DUP3 MSTORE DUP11 DUP5 ADD SWAP2 DUP12 PUSH1 0x44 CALLDATALOAD SWAP9 DUP10 DUP6 MSTORE DUP12 MLOAD DUP2 MSTORE DUP4 PUSH1 0x80 MLOAD MSTORE KECCAK256 SWAP5 MLOAD DUP6 SSTORE MLOAD SWAP1 DUP5 ADD SSTORE MLOAD SWAP2 ADD SSTORE PUSH1 0x9 SLOAD PUSH1 0x70 SHR AND SWAP3 DUP7 MLOAD SWAP4 DUP6 MLOAD DUP6 MSTORE PUSH1 0x80 MLOAD DUP6 ADD MSTORE DUP7 DUP5 ADD MSTORE PUSH1 0x60 DUP4 ADD MSTORE PUSH1 0x80 DUP3 ADD MSTORE LOG1 MLOAD PUSH1 0xA0 MLOAD DUP2 MSTORE PUSH1 0x80 MLOAD SWAP1 RETURN JUMPDEST PUSH4 0x4E487B71 PUSH1 0xE0 SHL DUP7 MSTORE PUSH1 0x41 DUP3 MSTORE DUP7 DUP7 REVERT JUMPDEST DUP4 MLOAD SWAP4 PUSH1 0x80 MLOAD ADD SWAP4 DUP2 DUP5 ADD SSTORE ADD DUP11 SWAP1 PUSH2 0x399 JUMP JUMPDEST DUP3 DUP13 MSTORE PUSH1 0x80 MLOAD DUP13 KECCAK256 SWAP1 DUP12 DUP6 DUP4 ADD DUP15 JUMPDEST DUP4 DUP6 ADD DUP3 LT PUSH2 0x4CC JUMPI POP POP POP POP PUSH2 0x389 JUMP JUMPDEST DUP2 SSTORE ADD DUP13 SWAP1 DUP15 PUSH2 0x4BA JUMP JUMPDEST PUSH4 0x4E487B71 PUSH1 0xE0 SHL DUP11 MSTORE PUSH1 0x41 DUP7 MSTORE DUP11 DUP11 REVERT JUMPDEST PUSH4 0x4E487B71 PUSH1 0xE0 SHL DUP10 MSTORE PUSH1 0x41 DUP6 MSTORE DUP10 DUP10 REVERT JUMPDEST PUSH1 0x80 MLOAD RETURNDATASIZE DUP2 GT PUSH2 0x52B JUMPI JUMPDEST PUSH2 0x510 DUP2 DUP4 PUSH2 0x7CA JUMP JUMPDEST DUP2 PUSH1 0x80 MLOAD SWAP2 DUP2 ADD SUB SLT PUSH2 0x527 JUMPI MLOAD PUSH1 0xA0 MSTORE DUP7 PUSH2 0x2F2 JUMP JUMPDEST DUP5 DUP1 REVERT JUMPDEST POP RETURNDATASIZE PUSH2 0x506 JUMP JUMPDEST DUP8 MLOAD RETURNDATASIZE DUP8 DUP3 RETURNDATACOPY RETURNDATASIZE SWAP1 REVERT JUMPDEST DUP5 DUP3 DUP6 CALLVALUE PUSH2 0x175 JUMPI DUP1 PUSH1 0x3 NOT CALLDATASIZE ADD SLT PUSH2 0x175 JUMPI DUP2 CALLDATALOAD SWAP1 PUSH1 0x24 SWAP3 DUP4 CALLDATALOAD SWAP4 PUSH8 0xFFFFFFFFFFFFFFFF SWAP2 DUP3 DUP7 GT PUSH2 0x794 JUMPI CALLDATASIZE PUSH1 0x23 DUP8 ADD SLT ISZERO PUSH2 0x794 JUMPI DUP6 DUP2 ADD CALLDATALOAD SWAP6 DUP4 DUP8 GT PUSH2 0x782 JUMPI DUP7 PUSH1 0x5 SHL SWAP1 PUSH1 0x20 SWAP8 PUSH2 0x594 DUP10 DUP5 ADD DUP13 PUSH2 0x7CA JUMP JUMPDEST DUP11 MSTORE DUP8 DUP11 ADD DUP5 DUP2 SWAP4 DUP4 ADD ADD SWAP2 CALLDATASIZE DUP4 GT PUSH2 0x77E JUMPI DUP6 DUP11 SWAP2 ADD SWAP2 JUMPDEST DUP4 DUP4 LT PUSH2 0x76E JUMPI POP POP PUSH32 0x0 PUSH1 0x1 PUSH1 0x1 PUSH1 0xA0 SHL SUB AND SWAP2 POP POP CALLER DUP2 SWAP1 SUB PUSH2 0x752 JUMPI POP DUP6 DUP9 MSTORE DUP8 DUP8 MSTORE PUSH2 0x604 PUSH1 0xFF DUP7 DUP11 KECCAK256 SLOAD PUSH1 0x8 SHR AND PUSH2 0x86D JUMP JUMPDEST DUP6 DUP9 MSTORE DUP8 DUP8 MSTORE DUP5 DUP9 KECCAK256 SWAP4 PUSH1 0x1 DUP1 SWAP6 DUP2 PUSH1 0xFF NOT DUP3 SLOAD AND OR DUP2 SSTORE ADD DUP11 MLOAD SWAP2 DUP3 GT PUSH2 0x740 JUMPI PUSH1 0x1 PUSH1 0x40 SHL DUP3 GT PUSH2 0x740 JUMPI DUP1 SLOAD DUP3 DUP3 SSTORE DUP1 DUP4 LT PUSH2 0x719 JUMPI JUMPDEST POP DUP3 SWAP1 DUP11 MSTORE DUP9 DUP11 KECCAK256 DUP7 DUP12 JUMPDEST DUP5 DUP2 LT PUSH2 0x707 JUMPI POP POP POP POP POP DUP9 MLOAD ISZERO PUSH2 0x6F5 JUMPI MLOAD DUP6 DUP9 MSTORE DUP4 DUP8 MSTORE PUSH1 0x2 DUP6 DUP10 KECCAK256 ADD SLOAD SWAP1 DUP2 ISZERO PUSH2 0x6E3 JUMPI MOD SWAP3 DUP4 ADD DUP1 SWAP4 GT PUSH2 0x6D2 JUMPI POP POP PUSH2 0x6C8 DUP6 SWAP7 DUP5 PUSH32 0x147EB1FF0C82F87F2B03E2C43F5A36488FF63EC6B730195FDE4605F612F8DB51 SWAP8 MSTORE DUP8 DUP7 MSTORE DUP3 PUSH1 0x2 DUP6 DUP11 KECCAK256 ADD SSTORE PUSH1 0x60 DUP5 MLOAD SWAP7 DUP8 SWAP7 DUP8 MSTORE DUP7 ADD MSTORE PUSH1 0x60 DUP6 ADD SWAP1 PUSH2 0x839 JUMP JUMPDEST SWAP2 DUP4 ADD MSTORE SUB SWAP1 LOG1 DUP1 RETURN JUMPDEST PUSH4 0x4E487B71 PUSH1 0xE0 SHL DUP8 MSTORE PUSH1 0x11 SWAP1 MSTORE DUP6 REVERT JUMPDEST PUSH4 0x4E487B71 PUSH1 0xE0 SHL DUP10 MSTORE PUSH1 0x12 DUP4 MSTORE DUP4 DUP10 REVERT JUMPDEST POP PUSH4 0x4E487B71 PUSH1 0xE0 SHL DUP8 MSTORE PUSH1 0x32 SWAP1 MSTORE DUP6 REVERT JUMPDEST DUP12 DUP5 MLOAD SWAP5 ADD SWAP4 DUP2 DUP5 ADD SSTORE ADD DUP8 SWAP1 PUSH2 0x649 JUMP JUMPDEST DUP2 DUP12 MSTORE DUP7 DUP4 DUP12 DUP14 KECCAK256 SWAP3 DUP4 ADD SWAP3 ADD JUMPDEST DUP3 DUP2 LT PUSH2 0x735 JUMPI POP POP PUSH2 0x63E JUMP JUMPDEST DUP13 DUP2 SSTORE ADD DUP8 SWAP1 PUSH2 0x727 JUMP JUMPDEST PUSH4 0x4E487B71 PUSH1 0xE0 SHL DUP11 MSTORE PUSH1 0x41 DUP5 MSTORE DUP5 DUP11 REVERT JUMPDEST SWAP1 POP PUSH1 0x44 SWAP3 DUP6 MLOAD SWAP3 PUSH4 0x73E64FD PUSH1 0xE2 SHL DUP5 MSTORE CALLER SWAP1 DUP5 ADD MSTORE DUP3 ADD MSTORE REVERT JUMPDEST DUP3 CALLDATALOAD DUP2 MSTORE SWAP2 DUP2 ADD SWAP2 DUP11 SWAP2 ADD PUSH2 0x5AD JUMP JUMPDEST DUP11 DUP1 REVERT JUMPDEST POP PUSH4 0x4E487B71 PUSH1 0xE0 SHL DUP8 MSTORE PUSH1 0x41 SWAP1 MSTORE DUP6 REVERT JUMPDEST DUP7 DUP1 REVERT JUMPDEST PUSH1 0x80 DUP2 ADD SWAP1 DUP2 LT PUSH8 0xFFFFFFFFFFFFFFFF DUP3 GT OR PUSH2 0x7B4 JUMPI PUSH1 0x40 MSTORE JUMP JUMPDEST PUSH4 0x4E487B71 PUSH1 0xE0 SHL PUSH1 0x0 MSTORE PUSH1 0x41 PUSH1 0x4 MSTORE PUSH1 0x24 PUSH1 0x0 REVERT JUMPDEST SWAP1 PUSH1 0x1F DUP1 NOT SWAP2 ADD AND DUP2 ADD SWAP1 DUP2 LT PUSH8 0xFFFFFFFFFFFFFFFF DUP3 GT OR PUSH2 0x7B4 JUMPI PUSH1 0x40 MSTORE JUMP JUMPDEST PUSH1 0x4 SLOAD DUP2 LT ISZERO PUSH2 0x823 JUMPI PUSH1 0x4 PUSH1 0x0 MSTORE PUSH32 0x8A35ACFBC15FF81A39AE7D344FD709F28E8600B4AA8C65C6B64BFE7FE36BD19B ADD SWAP1 PUSH1 0x0 SWAP1 JUMP JUMPDEST PUSH4 0x4E487B71 PUSH1 0xE0 SHL PUSH1 0x0 MSTORE PUSH1 0x32 PUSH1 0x4 MSTORE PUSH1 0x24 PUSH1 0x0 REVERT JUMPDEST SWAP1 DUP2 MLOAD DUP1 DUP3 MSTORE PUSH1 0x20 DUP1 DUP1 SWAP4 ADD SWAP4 ADD SWAP2 PUSH1 0x0 JUMPDEST DUP3 DUP2 LT PUSH2 0x859 JUMPI POP POP POP POP SWAP1 JUMP JUMPDEST DUP4 MLOAD DUP6 MSTORE SWAP4 DUP2 ADD SWAP4 SWAP3 DUP2 ADD SWAP3 PUSH1 0x1 ADD PUSH2 0x84B JUMP JUMPDEST ISZERO PUSH2 0x874 JUMPI JUMP JUMPDEST PUSH1 0x40 MLOAD PUSH3 0x461BCD PUSH1 0xE5 SHL DUP2 MSTORE PUSH1 0x20 PUSH1 0x4 DUP3 ADD MSTORE PUSH1 0x11 PUSH1 0x24 DUP3 ADD MSTORE PUSH17 0x1C995C5D595CDD081B9BDD08199BDD5B99 PUSH1 0x7A SHL PUSH1 0x44 DUP3 ADD MSTORE PUSH1 0x64 SWAP1 REVERT INVALID LOG2 PUSH5 0x6970667358 0x22 SLT KECCAK256 JUMPDEST LOG1 0xB4 0x22 SWAP7 BLOCKHASH PUSH22 0xDDC3B123E6400A9A5375994823FA5EAA4567770DCB58 LOG0 CODESIZE PUSH32 0x64736F6C63430008140033000000000000000000000000000000000000000000 "},"gasEstimates":{"creation":{"codeDepositCost":"455000","executionCost":"infinite","totalCost":"infinite"},"external":{"getRequestStatus(uint256)":"infinite","lastRequestId()":"2435","owner()":"2373","rawFulfillRandomWords(uint256,uint256[])":"infinite","requestIds(uint256)":"6650","requestRandomWords(uint256,uint256,uint256)":"infinite","s_draw(uint256)":"6714","s_requests(uint256)":"4616"},"internal":{"fulfillRandomWords(uint256,uint256[] memory)":"infinite"}},"methodIdentifiers":{"getRequestStatus(uint256)":"d8a4676f","lastRequestId()":"fc2a88c3","owner()":"8da5cb5b","rawFulfillRandomWords(uint256,uint256[])":"1fe543e3","requestIds(uint256)":"8796ba8c","requestRandomWords(uint256,uint256,uint256)":"32601f64","s_draw(uint256)":"cbc1c021","s_requests(uint256)":"a168fa89"}},"storageLayout":{"storage":[{"astId":7803,"contract":"contracts/HorizonVRF.sol:HorizonVRF","label":"s_requests","offset":0,"slot":"0","type":"t_mapping(t_uint256,t_struct(RequestStatus)7791_storage)"},{"astId":7808,"contract":"contracts/HorizonVRF.sol:HorizonVRF","label":"s_draw","offset":0,"slot":"1","type":"t_mapping(t_uint256,t_struct(DrawInfos)7798_storage)"},{"astId":7810,"contract":"contracts/HorizonVRF.sol:HorizonVRF","label":"randomValue","offset":0,"slot":"2","type":"t_uint256"},{"astId":7812,"contract":"contracts/HorizonVRF.sol:HorizonVRF","label":"owner","offset":0,"slot":"3","type":"t_address"},{"astId":7815,"contract":"contracts/HorizonVRF.sol:HorizonVRF","label":"requestIds","offset":0,"slot":"4","type":"t_array(t_uint256)dyn_storage"},{"astId":7817,"contract":"contracts/HorizonVRF.sol:HorizonVRF","label":"lastRequestId","offset":0,"slot":"5","type":"t_uint256"},{"astId":7820,"contract":"contracts/HorizonVRF.sol:HorizonVRF","label":"COORDINATOR","offset":0,"slot":"6","type":"t_contract(VRFCoordinatorV2Interface)427"},{"astId":7822,"contract":"contracts/HorizonVRF.sol:HorizonVRF","label":"vrfCoordinator","offset":0,"slot":"7","type":"t_address"},{"astId":7824,"contract":"contracts/HorizonVRF.sol:HorizonVRF","label":"keyHash","offset":0,"slot":"8","type":"t_bytes32"},{"astId":7826,"contract":"contracts/HorizonVRF.sol:HorizonVRF","label":"s_subscriptionId","offset":0,"slot":"9","type":"t_uint64"},{"astId":7828,"contract":"contracts/HorizonVRF.sol:HorizonVRF","label":"callbackGasLimit","offset":8,"slot":"9","type":"t_uint32"},{"astId":7830,"contract":"contracts/HorizonVRF.sol:HorizonVRF","label":"requestConfirmations","offset":12,"slot":"9","type":"t_uint16"},{"astId":7832,"contract":"contracts/HorizonVRF.sol:HorizonVRF","label":"numWords","offset":14,"slot":"9","type":"t_uint32"}],"types":{"t_address":{"encoding":"inplace","label":"address","numberOfBytes":"20"},"t_array(t_uint256)dyn_storage":{"base":"t_uint256","encoding":"dynamic_array","label":"uint256[]","numberOfBytes":"32"},"t_bool":{"encoding":"inplace","label":"bool","numberOfBytes":"1"},"t_bytes32":{"encoding":"inplace","label":"bytes32","numberOfBytes":"32"},"t_contract(VRFCoordinatorV2Interface)427":{"encoding":"inplace","label":"contract VRFCoordinatorV2Interface","numberOfBytes":"20"},"t_mapping(t_uint256,t_struct(DrawInfos)7798_storage)":{"encoding":"mapping","key":"t_uint256","label":"mapping(uint256 => struct HorizonVRF.DrawInfos)","numberOfBytes":"32","value":"t_struct(DrawInfos)7798_storage"},"t_mapping(t_uint256,t_struct(RequestStatus)7791_storage)":{"encoding":"mapping","key":"t_uint256","label":"mapping(uint256 => struct HorizonVRF.RequestStatus)","numberOfBytes":"32","value":"t_struct(RequestStatus)7791_storage"},"t_struct(DrawInfos)7798_storage":{"encoding":"inplace","label":"struct HorizonVRF.DrawInfos","members":[{"astId":7793,"contract":"contracts/HorizonVRF.sol:HorizonVRF","label":"titleId","offset":0,"slot":"0","type":"t_uint256"},{"astId":7795,"contract":"contracts/HorizonVRF.sol:HorizonVRF","label":"drawNumber","offset":0,"slot":"1","type":"t_uint256"},{"astId":7797,"contract":"contracts/HorizonVRF.sol:HorizonVRF","label":"totalPlayersAvailable","offset":0,"slot":"2","type":"t_uint256"}],"numberOfBytes":"96"},"t_struct(RequestStatus)7791_storage":{"encoding":"inplace","label":"struct HorizonVRF.RequestStatus","members":[{"astId":7783,"contract":"contracts/HorizonVRF.sol:HorizonVRF","label":"fulfilled","offset":0,"slot":"0","type":"t_bool"},{"astId":7785,"contract":"contracts/HorizonVRF.sol:HorizonVRF","label":"exists","offset":1,"slot":"0","type":"t_bool"},{"astId":7788,"contract":"contracts/HorizonVRF.sol:HorizonVRF","label":"randomWords","offset":0,"slot":"1","type":"t_array(t_uint256)dyn_storage"},{"astId":7790,"contract":"contracts/HorizonVRF.sol:HorizonVRF","label":"randomValue","offset":0,"slot":"2","type":"t_uint256"}],"numberOfBytes":"96"},"t_uint16":{"encoding":"inplace","label":"uint16","numberOfBytes":"2"},"t_uint256":{"encoding":"inplace","label":"uint256","numberOfBytes":"32"},"t_uint32":{"encoding":"inplace","label":"uint32","numberOfBytes":"4"},"t_uint64":{"encoding":"inplace","label":"uint64","numberOfBytes":"8"}}},"userdoc":{"kind":"user","methods":{},"version":1}}}}