{"contracts/Horizon.sol":{"Horizon":{"abi":[{"inputs":[{"internalType":"address","name":"_router","type":"address"}],"stateMutability":"nonpayable","type":"constructor"},{"inputs":[{"internalType":"address","name":"router","type":"address"}],"name":"InvalidRouter","type":"error"},{"anonymous":false,"inputs":[{"indexed":false,"internalType":"uint256","name":"totalAmountLate","type":"uint256"}],"name":"AmountLateWithInterest","type":"event"},{"anonymous":false,"inputs":[{"indexed":false,"internalType":"uint256","name":"amountWithInterests","type":"uint256"}],"name":"AmountToPay","type":"event"},{"anonymous":false,"inputs":[{"indexed":false,"internalType":"uint256","name":"_idTitle","type":"uint256"},{"indexed":false,"internalType":"uint256","name":"_contractId","type":"uint256"},{"indexed":false,"internalType":"uint256","name":"_drawNumber","type":"uint256"},{"indexed":false,"internalType":"uint256","name":"_idOfColateralTitle","type":"uint256"},{"indexed":false,"internalType":"uint256","name":"_idOfColateralContract","type":"uint256"}],"name":"ColateralTitleAdded","type":"event"},{"anonymous":false,"inputs":[{"indexed":false,"internalType":"uint256","name":"_idTitle","type":"uint256"},{"indexed":false,"internalType":"uint256","name":"_contractId","type":"uint256"},{"indexed":false,"internalType":"uint256","name":"_drawSelected","type":"uint256"},{"indexed":false,"internalType":"address","name":"_fujiReceiver","type":"address"}],"name":"CreatingPermission","type":"event"},{"anonymous":false,"inputs":[{"indexed":false,"internalType":"address","name":"_temporaryEnsurance","type":"address"}],"name":"EnsuranceUpdated","type":"event"},{"anonymous":false,"inputs":[{"indexed":false,"internalType":"uint256","name":"_idTitle","type":"uint256"},{"indexed":false,"internalType":"uint256","name":"_contractId","type":"uint256"},{"indexed":false,"internalType":"uint256","name":"_valueOfEnsurance","type":"uint256"}],"name":"EnsuranceValueNeededUpdate","type":"event"},{"anonymous":false,"inputs":[{"indexed":false,"internalType":"uint256","name":"_idTitle","type":"uint256"},{"indexed":false,"internalType":"uint256","name":"_contractId","type":"uint256"},{"indexed":false,"internalType":"uint256","name":"_installmentsPaid","type":"uint256"}],"name":"InstallmentPaid","type":"event"},{"anonymous":false,"inputs":[{"indexed":false,"internalType":"uint256","name":"_installmentsPaid","type":"uint256"}],"name":"LastInstallmentPaid","type":"event"},{"anonymous":false,"inputs":[{"indexed":true,"internalType":"bytes32","name":"messageId","type":"bytes32"},{"indexed":true,"internalType":"uint64","name":"sourceChainSelector","type":"uint64"},{"indexed":false,"internalType":"address","name":"sender","type":"address"},{"indexed":false,"internalType":"string","name":"text","type":"string"}],"name":"MessageReceived","type":"event"},{"anonymous":false,"inputs":[{"indexed":false,"internalType":"uint256","name":"_idTitle","type":"uint256"},{"indexed":false,"internalType":"uint256","name":"_drawNumber","type":"uint256"},{"indexed":false,"internalType":"address","name":"_winner","type":"address"},{"indexed":false,"internalType":"uint256","name":"_titleValue","type":"uint256"}],"name":"MonthlyWinnerPaid","type":"event"},{"anonymous":false,"inputs":[{"indexed":false,"internalType":"uint256","name":"_idTitle","type":"uint256"},{"indexed":false,"internalType":"uint256","name":"_drawNumber","type":"uint256"},{"indexed":false,"internalType":"uint256","name":"_randomValue","type":"uint256"},{"indexed":false,"internalType":"uint256","name":"_selectedContractId","type":"uint256"},{"indexed":false,"internalType":"address","name":"_winner","type":"address"}],"name":"MonthlyWinnerSelected","type":"event"},{"anonymous":false,"inputs":[{"indexed":false,"internalType":"enum Horizon.MyTitleWithdraw","name":"myTitleStatus","type":"uint8"}],"name":"MyTitleStatusUpdated","type":"event"},{"anonymous":false,"inputs":[{"indexed":false,"internalType":"uint256","name":"_investmentValue","type":"uint256"},{"indexed":false,"internalType":"address","name":"_protocolAddress","type":"address"}],"name":"NewInvestmentCreated","type":"event"},{"anonymous":false,"inputs":[{"indexed":false,"internalType":"uint256","name":"_titleId","type":"uint256"},{"indexed":false,"internalType":"uint256","name":"_scheduleId","type":"uint256"},{"indexed":false,"internalType":"uint256","name":"_monthlyValue","type":"uint256"},{"indexed":false,"internalType":"uint256","name":"_titleValue","type":"uint256"}],"name":"NewTitleCreated","type":"event"},{"anonymous":false,"inputs":[{"indexed":false,"internalType":"uint256","name":"_contractId","type":"uint256"},{"indexed":false,"internalType":"address","name":"_owner","type":"address"}],"name":"NewTitleSold","type":"event"},{"anonymous":false,"inputs":[{"indexed":false,"internalType":"uint256","name":"_nextDraw","type":"uint256"}],"name":"NextDraw","type":"event"},{"anonymous":false,"inputs":[{"indexed":false,"internalType":"uint256","name":"lateInstallments","type":"uint256"}],"name":"PaymentIsLate","type":"event"},{"anonymous":false,"inputs":[{"indexed":false,"internalType":"uint256","name":"_i","type":"uint256"}],"name":"PaymentLateNumber","type":"event"},{"anonymous":false,"inputs":[{"indexed":false,"internalType":"uint256","name":"_installmentsPaid","type":"uint256"},{"indexed":false,"internalType":"uint256","name":"_colateralTitleId","type":"uint256"},{"indexed":false,"internalType":"address","name":"_colateralReceiptAddress","type":"address"},{"indexed":false,"internalType":"address","name":"_nftAddress","type":"address"},{"indexed":false,"internalType":"enum Horizon.MyTitleWithdraw","name":"myTitleStatus","type":"uint8"}],"name":"ThereAreSomePendencies","type":"event"},{"anonymous":false,"inputs":[{"indexed":false,"internalType":"uint256","name":"_titlesAvailableForNextDraw","type":"uint256"}],"name":"ThisTitleHasBeenCanceled","type":"event"},{"anonymous":false,"inputs":[{"indexed":false,"internalType":"enum Horizon.TitleStatus","name":"status","type":"uint8"}],"name":"TitleStatusUpdated","type":"event"},{"anonymous":false,"inputs":[{"indexed":false,"internalType":"bool","name":"fulfilled","type":"bool"},{"indexed":false,"internalType":"uint256[]","name":"randomWords","type":"uint256[]"},{"indexed":false,"internalType":"uint256","name":"randomValue","type":"uint256"}],"name":"VRFAnswer","type":"event"},{"inputs":[{"internalType":"uint256","name":"_idTitle","type":"uint256"},{"internalType":"uint256","name":"_contractId","type":"uint256"}],"name":"addRWAColateral","outputs":[],"stateMutability":"nonpayable","type":"function"},{"inputs":[{"internalType":"address","name":"_receiverAddress","type":"address"}],"name":"addReceiver","outputs":[],"stateMutability":"nonpayable","type":"function"},{"inputs":[{"internalType":"address","name":"_sender","type":"address"}],"name":"addSender","outputs":[],"stateMutability":"nonpayable","type":"function"},{"inputs":[{"internalType":"uint64","name":"_sourceChainSelector","type":"uint64"}],"name":"addSourceChain","outputs":[],"stateMutability":"nonpayable","type":"function"},{"inputs":[{"internalType":"uint256","name":"_titleId","type":"uint256"},{"internalType":"uint256","name":"_contractId","type":"uint256"},{"internalType":"uint256","name":"_idOfColateralTitle","type":"uint256"},{"internalType":"uint256","name":"_idOfColateralContract","type":"uint256"}],"name":"addTitleAsColateral","outputs":[],"stateMutability":"nonpayable","type":"function"},{"inputs":[{"internalType":"uint256","name":"titleId","type":"uint256"}],"name":"allTitles","outputs":[{"internalType":"uint256","name":"openSellingDate","type":"uint256"},{"internalType":"uint256","name":"closeSellingDate","type":"uint256"},{"internalType":"uint256","name":"paymentSchedule","type":"uint256"},{"internalType":"uint256","name":"nextDrawNumber","type":"uint256"},{"internalType":"uint256","name":"titleValue","type":"uint256"},{"internalType":"uint256","name":"installments","type":"uint256"},{"internalType":"uint256","name":"monthlyInvestiment","type":"uint256"},{"internalType":"uint256","name":"protocolFee","type":"uint256"},{"internalType":"uint256","name":"numberOfTitlesSold","type":"uint256"},{"internalType":"uint256","name":"totalValueReceived","type":"uint256"},{"internalType":"uint256","name":"totalValuePaid","type":"uint256"},{"internalType":"uint256","name":"titleCanceled","type":"uint256"},{"internalType":"enum Horizon.TitleStatus","name":"status","type":"uint8"}],"stateMutability":"view","type":"function"},{"inputs":[{"internalType":"uint64","name":"_titleId","type":"uint64"},{"internalType":"bool","name":"withdrawPeriod","type":"bool"},{"internalType":"contract IERC20","name":"_tokenAddress","type":"address"}],"name":"buyTitle","outputs":[],"stateMutability":"nonpayable","type":"function"},{"inputs":[{"components":[{"internalType":"bytes32","name":"messageId","type":"bytes32"},{"internalType":"uint64","name":"sourceChainSelector","type":"uint64"},{"internalType":"bytes","name":"sender","type":"bytes"},{"internalType":"bytes","name":"data","type":"bytes"},{"components":[{"internalType":"address","name":"token","type":"address"},{"internalType":"uint256","name":"amount","type":"uint256"}],"internalType":"struct Client.EVMTokenAmount[]","name":"destTokenAmounts","type":"tuple[]"}],"internalType":"struct Client.Any2EVMMessage","name":"message","type":"tuple"}],"name":"ccipReceive","outputs":[],"stateMutability":"nonpayable","type":"function"},{"inputs":[{"internalType":"uint256","name":"titleId","type":"uint256"},{"internalType":"uint256","name":"contractId","type":"uint256"}],"name":"colateralInfos","outputs":[{"internalType":"address","name":"colateralOwner","type":"address"},{"internalType":"uint256","name":"titleIdOfColateral","type":"uint256"},{"internalType":"uint256","name":"contractIdOfColateral","type":"uint256"}],"stateMutability":"view","type":"function"},{"inputs":[{"internalType":"uint256","name":"_opening","type":"uint256"},{"internalType":"uint256","name":"_closing","type":"uint256"},{"internalType":"uint256","name":"_participants","type":"uint256"},{"internalType":"uint256","name":"_value","type":"uint256"}],"name":"createTitle","outputs":[],"stateMutability":"nonpayable","type":"function"},{"inputs":[{"internalType":"uint256","name":"titleId","type":"uint256"},{"internalType":"uint256","name":"drawNumber","type":"uint256"}],"name":"drawInfos","outputs":[{"internalType":"uint256","name":"idTitle","type":"uint256"},{"internalType":"uint256","name":"drawNumber","type":"uint256"},{"internalType":"uint256","name":"drawDate","type":"uint256"},{"internalType":"uint256","name":"totalParticipants","type":"uint256"},{"internalType":"uint256","name":"requestId","type":"uint256"},{"internalType":"uint256","name":"randomNumberVRF","type":"uint256"},{"internalType":"uint256","name":"selectedContractID","type":"uint256"},{"internalType":"address","name":"winner","type":"address"}],"stateMutability":"view","type":"function"},{"inputs":[],"name":"getLastReceivedMessageDetails","outputs":[{"internalType":"bytes32","name":"messageId","type":"bytes32"},{"internalType":"bytes","name":"text","type":"bytes"}],"stateMutability":"view","type":"function"},{"inputs":[],"name":"getRouter","outputs":[{"internalType":"address","name":"","type":"address"}],"stateMutability":"view","type":"function"},{"inputs":[{"internalType":"uint256","name":"_idTitle","type":"uint256"}],"name":"monthlyVRFWinner","outputs":[],"stateMutability":"nonpayable","type":"function"},{"inputs":[{"internalType":"uint256","name":"_idTitle","type":"uint256"},{"internalType":"uint256","name":"_contractId","type":"uint256"},{"internalType":"uint256","name":"_installmentNumber","type":"uint256"},{"internalType":"contract IERC20","name":"_tokenAddress","type":"address"}],"name":"payInstallment","outputs":[],"stateMutability":"nonpayable","type":"function"},{"inputs":[{"internalType":"uint256","name":"_idTitle","type":"uint256"},{"internalType":"contract IERC20","name":"_tokenAddress","type":"address"}],"name":"protocolWithdraw","outputs":[],"stateMutability":"nonpayable","type":"function"},{"inputs":[{"internalType":"uint256","name":"_idTitle","type":"uint256"}],"name":"receiveVRFRandomNumber","outputs":[],"stateMutability":"nonpayable","type":"function"},{"inputs":[{"internalType":"uint256","name":"_idTitle","type":"uint256"},{"internalType":"uint256","name":"_contractId","type":"uint256"}],"name":"refundColateral","outputs":[],"stateMutability":"nonpayable","type":"function"},{"inputs":[{"internalType":"address","name":"_sender","type":"address"}],"name":"removeSender","outputs":[],"stateMutability":"nonpayable","type":"function"},{"inputs":[{"internalType":"uint64","name":"_sourceChainSelector","type":"uint64"}],"name":"removelistSourceChain","outputs":[],"stateMutability":"nonpayable","type":"function"},{"inputs":[{"internalType":"uint256","name":"titleId","type":"uint256"},{"internalType":"uint256","name":"drawNumber","type":"uint256"},{"internalType":"uint256","name":"paymentOrder","type":"uint256"}],"name":"selectorVRF","outputs":[{"internalType":"uint256","name":"contractId","type":"uint256"},{"internalType":"uint256","name":"installmentNumber","type":"uint256"},{"internalType":"uint256","name":"paymentDate","type":"uint256"},{"internalType":"address","name":"payerAddress","type":"address"},{"internalType":"address","name":"user","type":"address"},{"internalType":"uint256","name":"amount","type":"uint256"},{"internalType":"uint256","name":"paymentDelay","type":"uint256"},{"internalType":"bool","name":"paid","type":"bool"},{"internalType":"uint256","name":"installmentsPaid","type":"uint256"}],"stateMutability":"view","type":"function"},{"inputs":[{"internalType":"bytes4","name":"interfaceId","type":"bytes4"}],"name":"supportsInterface","outputs":[{"internalType":"bool","name":"","type":"bool"}],"stateMutability":"pure","type":"function"},{"inputs":[{"internalType":"uint256","name":"titleId","type":"uint256"},{"internalType":"uint256","name":"contractId","type":"uint256"}],"name":"titleSoldInfos","outputs":[{"internalType":"uint256","name":"contractId","type":"uint256"},{"internalType":"uint256","name":"titleValue","type":"uint256"},{"internalType":"uint256","name":"installments","type":"uint256"},{"internalType":"uint256","name":"monthlyValue","type":"uint256"},{"internalType":"uint256","name":"periodLocked","type":"uint256"},{"internalType":"address","name":"titleOwner","type":"address"},{"internalType":"uint256","name":"installmentsPaid","type":"uint256"},{"internalType":"uint256","name":"drawSelected","type":"uint256"},{"internalType":"uint256","name":"colateralId","type":"uint256"},{"internalType":"address","name":"colateralTitleAddress","type":"address"},{"internalType":"address","name":"colateralRWAAddress","type":"address"},{"internalType":"uint256","name":"valueOfEnsuranceNeeded","type":"uint256"},{"internalType":"enum Horizon.MyTitleWithdraw","name":"myTitleStatus","type":"uint8"},{"internalType":"bool","name":"paid","type":"bool"}],"stateMutability":"view","type":"function"},{"inputs":[{"internalType":"uint256","name":"_titleId","type":"uint256"}],"name":"updateTitleStatus","outputs":[],"stateMutability":"nonpayable","type":"function"},{"inputs":[{"internalType":"uint256","name":"_titleId","type":"uint256"},{"internalType":"uint256","name":"_contractId","type":"uint256"}],"name":"verifyLatePayments","outputs":[],"stateMutability":"nonpayable","type":"function"},{"inputs":[{"internalType":"address","name":"","type":"address"}],"name":"whitelistedSenders","outputs":[{"internalType":"bool","name":"","type":"bool"}],"stateMutability":"view","type":"function"},{"inputs":[{"internalType":"uint64","name":"","type":"uint64"}],"name":"whitelistedSourceChains","outputs":[{"internalType":"bool","name":"","type":"bool"}],"stateMutability":"view","type":"function"},{"inputs":[{"internalType":"uint256","name":"_idTitle","type":"uint256"},{"internalType":"uint256","name":"_contractId","type":"uint256"},{"internalType":"contract IERC20","name":"_stablecoin","type":"address"}],"name":"winnerWithdraw","outputs":[],"stateMutability":"nonpayable","type":"function"}],"devdoc":{"kind":"dev","methods":{"ccipReceive((bytes32,uint64,bytes,bytes,(address,uint256)[]))":{"details":"Note ensure you check the msg.sender is the OffRampRouter","params":{"message":"CCIP Message"}},"getRouter()":{"returns":{"_0":"i_router address"}},"supportsInterface(bytes4)":{"params":{"interfaceId":"The interfaceId to check"},"returns":{"_0":"true if the interfaceId is supported"}}},"version":1},"evm":{"bytecode":{"linkReferences":{},"object":"60a0346200012657601f6200427038819003918201601f19168301916001600160401b038311848410176200012b578084926020946040528339810103126200012657516001600160a01b0381168082036200012657156200010d57608052600060045560018060a01b031973cd24c9696f2aa4bb15170b263e72642b5600b47981600b541617600b5573e7d98f63efcdd443549b64205b1a1d22af8c100781600c541617600c55730203fc68ded882c7b669b4711c42fb7a27e119a981600d541617600d5573c3e7e776227d34874f6082f2f8476dd150dec2de81600e541617600e553390600854161760085560405161412e9081620001428239608051818181610d3b01526113c40152f35b6040516335fdcccd60e21b815260006004820152602490fd5b600080fd5b634e487b7160e01b600052604160045260246000fdfe608080604052600436101561001357600080fd5b60003560e01c90816301ffc9a7146129a35750806323478654146127a4578063263596a514612767578063272efc69146127285780632d7c0b7f1461244e57806331ae0df61461236b5780634991126d146122bb5780634c67469c1461205f5780634facbacb14611c4257806358a15a2e14611c2b578063643233e51461187c57806369d83ed1146118425780637dc91a021461180357806385572ffb146113875780638a12312c146112c95780638f9fce70146110d65780639beaf73114610e45578063ab92263114610dbc578063ad3b6da314610d6a578063b0f479a114610d25578063b2f8764314610cd9578063b697f53114610c8a578063ba658a44146107bb578063c39622f814610785578063c5ec1c7a14610733578063d0ade9d514610470578063d762a160146101a75763ff46ed531461015357600080fd5b346101a25760203660031901126101a2576001600160401b03610174612abe565b61018960018060a01b03600854163314613fa5565b166000908152600260205260409020805460ff19169055005b600080fd5b346101a2576020806003193601126101a2576004359081600052600f81526040600020600c81019283549160ff8316916101e083612a88565b6004831480801561045d575b801561044a575b15610405578254421190816103f4575b501561024557505050507fb34436423c205503bb9de249902d7e3e7fc76197d9cec741c46e9e0dd6489f4491600360ff1982541617905560405160038152a15b005b60018295949501544211806103e1575b1561026c575050505050600160ff19825416179055005b60018060a0979596971b03600b541692856003840154926044604051809781936301acb51d60e31b835260048301528660248301525afa9384156103d5576000946103a6575b506102bc81612a88565b6001811491829182610398575b8315610353575b5050506000146103145750507fb34436423c205503bb9de249902d7e3e7fc76197d9cec741c46e9e0dd6489f449250600260ff1982541617905560405160028152a1005b600801549091901561032257005b7f2e24ed849df3be5edecca4a9280b775d8d82b800d0ebefaa298f3d61a0998a709360ff19169055604051908152a1005b61035f91929350612a88565b8161037c575b5080610374575b8680806102d0565b50811561036c565b61038c9150600b83015490612bfe565b60058201541086610365565b6005850154821193506102c9565b9093508581813d83116103ce575b6103be8183612b0a565b810103126101a2575192876102b2565b503d6103b4565b6040513d6000823e3d90fd5b506103eb83612a88565b60038314610255565b90506103ff84612a88565b87610203565b60405162461bcd60e51b815260048101879052601860248201527f54686973207469746c6520616c726561647920656e64656400000000000000006044820152606490fd5b5061045484612a88565b600184146101f3565b5061046784612a88565b600384146101ec565b346101a2576020806003193601126101a25760043580600052600f825260406000209160118152604060002060038401908154600052825260406000209060018060a01b0380600c541695600060048501546024604051809a819363d8a4676f60e01b835260048301525afa9283156103d5576000809860009561068c575b50156106475760405160608101986001998a83526060898401528151809152886080840192019060005b81811061063457507f495707aadfdb79a8158bc4c70170204a5bd6402ce8d4f16af9b93d19f5b864b760a08c8c8f8c8e918d8d8d7f6eed17f1838c49c44631282c96ef8d77984fda771e865bc74772b03c5da4bde78e808f8860408301520390a18760005260128752604060002093600c81880193845496876000528a526040600020886000528a526040600020968860058b0155875460068b015560048801996007888c54169101906001600160601b038f1b8254161790558b60005260108b52604060002088546000528b526007604060002001556105fb87548c613b5d565b019060ff198254161790556106108154612ba4565b905554915493541693604051958652850152604084015260608301526080820152a1005b82518452928a0192918a01918c01610519565b60405162461bcd60e51b815260048101879052601960248201527f5652462072657175657374206e6f742066756c66696c6c6564000000000000006044820152606490fd5b98505092503d806000893e6106a18189612b0a565b8701926060888503126101a2576106b78861341a565b97868101516001600160401b0381116101a25781019480601f870112156101a25785516106e381612b8d565b966106f16040519889612b0a565b818852898089019260051b8201019283116101a25789809101915b8383106107235750505050604001519397896104ef565b82518152918101918a910161070c565b346101a25760203660031901126101a2576001600160401b03610754612abe565b61076960018060a01b03600854163314613fa5565b166000908152600260205260409020805460ff19166001179055005b346101a25760803660031901126101a2576064356001600160a01b03811681036101a25761024390604435602435600435612c3d565b346101a25760603660031901126101a2576107d4612abe565b602435908115158092036101a2576107ea612aa8565b6001600160401b038216600052600f602052604060002091600360ff600c8501541661081581612a88565b03610c2857600883015493600584015494858111610bf257610838600191612ba4565b9182600887015514600014610be7576007840154946000905b6108646004870154976006880154612bfe565b9060405197886101c08101106001600160401b036101c08b011117610bbd576101c0890160405284895260208901526040880152606087015260808601523360a0860152600060c0860152600060e086015260006101008601523061012086015260006101408601526000610160860152600261018086015260006101a08601526001600160401b0382166000526010602052604060002090600052602052600c6040600020855181556020860151600182015560408601516002820155606086015160038201556080860151600482015560018060a01b0360a087015116600582016001600160601b0360a01b918282541617905560c0870151600683015560e0870151600783015561010087015160088301556009820160018060a01b036101208901511682825416179055600a82019060018060a01b036101408901511690825416179055610160860151600b820155016109d06101808601516109ca81612a88565b82612be6565b6101a0850151151561ff0082549160081b169061ff0019161790556008830154600584015410610bd3575b6101a06040519480516020870152602081015160408701526040810151606087015260608101516080870152608081015160a087015260018060a01b0360a08201511660c087015260c081015160e087015260e081015161010087015261010081015161012087015260018060a01b036101208201511661014087015260018060a01b0361014082015116610160870152610160810151610180870152610180810151610aa781612a88565b82870152015115156101c08501526101c084526101e08401938085106001600160401b03861117610bbd576040859052600d54636902622f60e11b865260209086906001600160a01b03168160006101df1986610b0981336101e48201612c0b565b0301925af180156103d557610b8c575b6001600160401b0382166000818152601060209081526040808320600889810154855292529182902080546006909101547f5462399704f0e380dbcb381163c0a1404e8b14097242551b2494b16157faa530948992610b7c928a92909190612c3d565b01548151908152336020820152a1005b602091939482903d8411610bb5575b81610ba591612b0a565b810103126101a257829184610b19565b3d9150610b9b565b634e487b7160e01b600052604160045260246000fd5b600c8301805460ff191660011790556109fb565b600094600590610851565b60405162461bcd60e51b815260206004820152600e60248201526d5469746c6520736f6c646f75742160901b6044820152606490fd5b60405162461bcd60e51b815260206004820152603460248201527f54686973205469746c65206973206e6f7420617661696c61626c652e20436865604482015273636b20746865205469746c65207374617475732160601b6064820152608490fd5b346101a25760203660031901126101a257610ca3612a54565b6008546001600160a01b039190610cbd9083163314613fa5565b166000908152600360205260409020805460ff19166001179055005b346101a25760203660031901126101a257610cf2612a54565b6008546001600160a01b039190610d0c9083163314613fa5565b166000908152600360205260409020805460ff19169055005b346101a25760003660031901126101a2576040517f00000000000000000000000000000000000000000000000000000000000000006001600160a01b03168152602090f35b346101a257610d78366129f6565b9060005260146020526040600020906000526020526060604060002060018060a01b0381541690600260018201549101549060405192835260208301526040820152f35b346101a257610dca366129f6565b906000526011602052604060002090600052602052610100604060002080549060018101549060028101546003820154600483015490600584015492600685015494600760018060a01b039101541695604051978852602088015260408701526060860152608085015260a084015260c083015260e0820152f35b346101a2576020806003193601126101a2576004359081600052600f8152604060002060018060a01b0380600b54169060028301549460038401918254966040516314d8039960e11b81528160048201528860248201528781604481895afa9081156103d5576000916110a9575b5042111561106e5786906044604051809781936301acb51d60e31b835260048301528b60248301525afa9384156103d55760009461103d575b50600c54604051630c9807d960e21b81526004810184905260248101989098526044880185905286908890606490829060009086165af19687156103d55760009761100e575b50600c85019660ff19966004888a5416178955845490604051916101008301938385106001600160401b03861117610bbd576005986007956040528785528385018381526040860190428252606087019283526080870193845260a08701946000865260c08801966000885260e089019b60008d5260005260118152604060002091600052526040600020965187555160018701555160028601555160038501555160048401555187830155516006820155019151166001600160601b0360a01b825416179055549101541061100457005b8154166002179055005b9096508581813d8311611036575b6110268183612b0a565b810103126101a257519587610f32565b503d61101c565b9693508587813d8311611067575b6110558183612b0a565b810103126101a2579551929585610eec565b503d61104b565b60405162461bcd60e51b815260048101889052601360248201527249736e2774207468652074696d65207965742160681b6044820152606490fd5b90508781813d83116110cf575b6110c08183612b0a565b810103126101a2575189610eb3565b503d6110b6565b346101a2576110e4366129f6565b908060005260206010815260406000208360005281526040600020600781018054611110811515613bff565b60058301546001600160a01b0393908416330361126e5760408051808701888152602081018a90529182018490526111e99387939092600b9261116081606084015b03601f198101835282612b0a565b5190209260026040519161117383612ad4565b8b83528683018d81526040840191825286600052601388526040600020935184555160018401555191015501546040519183830152604082015260016060820152606081526111c181612aef565b84600e541685600754166000604051809681958294630a30e37760e41b845260048401613ca3565b03925af180156103d55761123d575b7f28c64511bad94645265b4ac8c503dd3b588ca95f2bfb17598135c3e6cdc4be8260808686868a875491600754169260405194855284015260408301526060820152a1005b928092919493813d8311611267575b6112568183612b0a565b810103126101a257909192856111f8565b503d61124c565b60405162461bcd60e51b815260048101869052602d60248201527f4f6e6c792074686520647261772077696e6e65722063616e206372656174652060448201526c61207065726d697373696f6e2160981b6064820152608490fd5b346101a25760203660031901126101a257600435600052600f6020526101a0604060002080549060018101549060028101546003820154600483015460058401546006850154600786015491600887015493600988015495600a8901549760ff600c600b8c01549b0154169a6040519c8d5260208d015260408c015260608b015260808a015260a089015260c088015260e087015261010086015261012085015261014084015261016083015261137f81612a88565b610180820152f35b346101a257600319602036820181136101a257600435916001600160401b03908184116101a25760a09084360301126101a2576001600160a01b037f0000000000000000000000000000000000000000000000000000000000000000811633036117eb576040519360a0850185811084821117610bbd5760405280600401358552602493848201359484861686036101a25781870195865260448301358581116101a25761143b9060043691860101612b46565b966040810197885260648401358681116101a25761145f9060043691870101612b46565b93606082019485526084810135908782116101a25701366023820112156101a25760048101359061148f82612b8d565b9161149d6040519384612b0a565b808352848684019160061b830101913683116101a2578501905b82821061179057505050608082015280516000558351805181019084818184019303126101a25784810151908882116101a257019080603f830112156101a25784820151611507926040016133c9565b9182519087821161177c5750806001936115218554613ff1565b601f811161170c575b508590601f831160011461168c57600092611681575b5050600019600383901b1c191690831b1782555b61155c61402b565b6060818051810103126101a25780840151879387606061157e604086016140e4565b9401519316916000526013865260406000209081546000526010875260406000209101546000528552604060002091806008840155600a8301826001600160601b0360a01b82541617905515159081611677575b50611663575b5051955116955181818051810103126101a257816115f691016140e4565b9151908151820181838203126101a257818301519586116101a25761164861165e93837fb1e312a29937cc11967b0e4a346fef1ae132424ebaba9dc6d90249dba053e87c988160409501920101613400565b9181519586951685528401526040830190612a2f565b0390a3005b600c01805460ff19166003179055886115d8565b905015158a6115d2565b015190508a80611540565b90859350601f19831691846000527fb10e2d527612073b26eecdfd717e6a320cf44b4afac2b0732d9fcbe2b7fa0cf69260005b898282106116f657505084116116dd575b505050811b018255611554565b015160001960f88460031b161c191690558a80806116d0565b83850151865589979095019493840193016116bf565b909150846000527fb10e2d527612073b26eecdfd717e6a320cf44b4afac2b0732d9fcbe2b7fa0cf6601f840160051c810191878510611772575b84939291601f88920160051c01915b82811061176357505061152a565b60008155859450879101611755565b9091508190611746565b634e487b7160e01b60009081526041600452fd5b6040823603126101a25760405190604082018281108c8211176117d6576040528235908a821682036101a2578289926040945282850135838201528152019101906114b7565b87634e487b7160e01b60005260416004526000fd5b6040516335fdcccd60e21b8152336004820152602490fd5b346101a25760203660031901126101a2576001600160401b03611824612abe565b166000526002602052602060ff604060002054166040519015158152f35b346101a25760203660031901126101a2576001600160a01b03611863612a54565b166001600160601b0360a01b6007541617600755600080f35b346101a25761188a36612a6a565b928015611bce5780831115611b72578115611b1a576118f2916020846118b1600454612ba4565b8060045583600060018060a01b03600b54169260405198899586948593630a52975960e31b8552600485016040919493926060820195825260208201520152565b03925af19283156103d557600093611ae6575b50670de0b6b3a764000094858102958187041490151715611ad05761192a8186612bc6565b906119358187612bc6565b600581029080820460051490151715611ad057604051926101a08401928484106001600160401b03851117610bbd577f89c4c2329efcd15ed5ec8cc7dd2e4c2103edd8b1d7e9e17e76da38d7b83ade6798608098611a809760649660405287526020870152876040870152600160608701528886015260a085015260c08401520460e082015260006101008201526000610120820152600061014082015260006101608201526004610180820152600454600052600f602052600c6101806040600020928051845560208101516001850155604081015160028501556060810151600385015586810151600485015560a0810151600585015560c0810151600685015560e0810151600785015561010081015160088501556101208101516009850155610140810151600a850155610160810151600b850155015191611a7a83612a88565b01612be6565b6004549081600052600f602052611aa560406000206007600682015491015490612bfe565b82600052600f60205260046040600020015491604051938452602084015260408301526060820152a1005b634e487b7160e01b600052601160045260246000fd5b9092506020813d602011611b12575b81611b0260209383612b0a565b810103126101a257519185611905565b3d9150611af5565b60405162461bcd60e51b815260206004820152602a60248201527f4d7573742073657420746865206e756d626572206f6620746f74616c207061726044820152697469636970616e74732160b01b6064820152608490fd5b60405162461bcd60e51b815260206004820152602e60248201527f4d7573742053656c6563742061206461746520746f2073746f7020746f20736560448201526d6c6c20746865207469746c65732160901b6064820152608490fd5b60405162461bcd60e51b815260206004820152602f60248201527f4d7573742053656c6563742061206461746520746f20737461727420746f207360448201526e656c6c20746865207469746c65732160881b6064820152608490fd5b346101a257610243611c3c366129f6565b90613cd3565b346101a25760603660031901126101a257600435611c5e612aa8565b81600052602090600f82526040600020906010835260406000206024356000528352604060002093600585019360018060a01b03928386541633148015612052575b15611fe757831694611cb3861515613f65565b600c87019360ff855416611cc681612a88565b60038103611f895760068901549060028a015482148015611f7c575b8015611f5f575b15611ef157505060008082600b5416602460405180948193638c83ddd360e01b83528d60048401525af19081156103d557611d3291600191600091611ecb575b50151514613473565b600980546001600160a01b031916881790556040516370a0823160e01b815230600482015283816024818b5afa9081156103d557600091611e9e575b50600189019788548092106101a257835460405163a9059cbb60e01b81529084166001600160a01b03166004820152602481019290925284908290816000816044810103925af180156103d557611e30575b50927fa15c2435fada31fa58c0eb6a516d9b0df54ed70f48f3680ba2b527955c5797c192611e2c97608093600a98979660078c015491541691549260405194855284015260408301526060820152a15b61010061ff001982541617905501916001835491015490612bfe565b9055005b9195949390928083813d8311611e97575b611e4b8183612b0a565b810103126101a257611e2c97600a977fa15c2435fada31fa58c0eb6a516d9b0df54ed70f48f3680ba2b527955c5797c195611e8760809661341a565b5093969798509350975092611dc0565b503d611e41565b90508381813d8311611ec4575b611eb58183612b0a565b810103126101a2575189611d6e565b503d611eab565b611ee891503d806000833e611ee08183612b0a565b810190613427565b9150508b611d29565b9091611e2c9850600a9796955060a09350937f09878aa34b75479da70e37bce4455679dae86d7580d3cf362e48f2abb18baacd9460088b01548160098d015416918a8d0154169260405195865285015260408401526060830152611f5481612a88565b6080820152a1611e10565b5082600a8b01541615158015611ce9575060088a01541515611ce9565b5060088a01541515611ce2565b60405162461bcd60e51b815260048101859052603060248201527f54686973207469746c6520646f6e2774206861766520746865207065726d697360448201526f73696f6e20746f20776974686472617760801b6064820152608490fd5b60405162461bcd60e51b815260048101839052603c60248201527f4d73672e73656e646572206d7573742062652074686520636f6e74726163742060448201527f4f776e6572206f72207468652070726f746f636f6c206f776e657221000000006064820152608490fd5b5083600854163314611ca0565b346101a25760403660031901126101a2576024356001600160a01b03818116918290036101a25761209581600854163314613fa5565b600435600052602090600f8252604060002060ff600c820154166120b881612a88565b600281149081156122a9575b50156101a25761210460096120f06120e56008850154600b86015490612c30565b600485015490612bb3565b920154916120fe8184612c30565b92612c30565b811161225657612115841515613f65565b60008083600b5416602460405180948193638c83ddd360e01b83528a60048401525af19081156103d557612156916001916000916122385750151514613473565b600980546001600160a01b031916851790556040516370a0823160e01b81523060048201528381602481885afa80156103d5578291600091612207575b50106101a257600b5460405163a9059cbb60e01b815292166001600160a01b0316600483015260248201529181908390816000816044810103925af180156103d5576121db57005b81813d8311612200575b6121ef8183612b0a565b810103126101a2576102439061341a565b503d6121e5565b809250858092503d8311612231575b6122208183612b0a565b810103126101a25781905186612193565b503d612216565b61224d91503d806000833e611ee08183612b0a565b91505087611d29565b60405162461bcd60e51b815260048101849052602560248201527f5f616d6f756e742063616e27742065786365656420746865207469746c652076604482015264616c75652160d81b6064820152608490fd5b90506122b481612a88565b15856120c4565b346101a25760603660031901126101a2576004356000526012602052604060002060243560005260205260406000206044356000526020526101206040600020805490600181015490600281015460018060a01b038060038401541690600484015416600584015491600685015493600860ff60078801541696015496604051988952602089015260408801526060870152608086015260a085015260c0840152151560e0830152610100820152f35b346101a257612379366129f6565b9060005260106020526040600020906000526020526101c0604060002060ff8154916001810154906002810154600382015460048301549060018060a01b0391826005860154166006860154906007870154926008880154948660098a01541696600a8a01541697600c600b8b01549a01549a60206040519e8f908152015260408d015260608c015260808b015260a08a015260c089015260e088015261010087015261012086015261014085015261016084015281811661243a81612a88565b61018084015260081c1615156101a0820152f35b346101a25761245c36612a6a565b908060009493945260209360108552604060002083600052855260406000208460005260108652604060002082600052865260406000209060078201916124a583541515613bff565b60058101546001600160a01b0391906124c19083163314613c4b565b60058301926124d4338486541614613c4b565b600181015490600b830154908183106126ad5780600360066124fb93015491015490612bb3565b918160011b9180830460021490151715611ad05782149182156126a2575b5050156125d757917f50243003e9d7ef147493229d55468984fe3256e1b1cf63b435c46d06331682a4989391600c60a0999897969401600360ff1982541617905560405161256681612ad4565b33815260028682019288845260408301908a82528b6000526014895260406000208860005289526040600020935116936001600160601b038d1b94858554161784555160018401555191015530908254161790555491604051958652850152604084015260608301526080820152a1005b60405162461bcd60e51b8152600481018a9052608b60248201527f416c6c2074686520696e7374616c6c6d656e74732066726f6d2074686520636f60448201527f6c61746572616c206d7573742068617665206265656e2070616964206f72206160648201527f74206c65617374207468652076616c75652070616964206d757374206265206760848201527f726561746572207468656e2074776f2074696d65732074686520656e7375726560a48201526a15985b1d5953995959195960aa1b60c482015260e490fd5b101590508a80612519565b60405162461bcd60e51b8152600481018d9052604760248201527f54686520636f6c61746572616c20746f74616c2076616c7565206d757374206260448201527f652067726561746572207468616e2074756520656e737572616e636556616c756064820152661953995959195960ca1b608482015260a490fd5b346101a25760203660031901126101a2576001600160a01b03612749612a54565b166000526003602052602060ff604060002054166040519015158152f35b346101a25760003660031901126101a25760005461278361402b565b906127a06040519283928352604060208401526040830190612a2f565b0390f35b346101a2576127b2366129f6565b81600052600f60209181835260406000209160016008918285019560038601925b875481101561024357886000526010908183526040600020816000528352876040600020928654938c866002968761280f600686015483612c30565b106128e157505061285b95600c918284019360ff1994858154169055600b80970161283a8154612ba4565b90558c81015415908115916128bc575b50612860575b505050505050612ba4565b6127d3565b6000526014885260406000208c60005288526040600020906001820154600052898952604060002094895260406000209101546000528752604060002001908154169055016128af8154612ba4565b90558a808080808e612850565b600a01546001600160a01b0316151590816128d9575b503861284a565b9050386128d2565b929450925050604460018060a01b03600b5416958c015460405196879384926301933c3960e61b8452600484015260248301525afa80156103d557600090612974575b61285b93504211612936575b50612ba4565b600c01600160ff198254161790557f5238eef763c91b9905201192c7b588678d655a1fec573e5434470d30d3f975be8360405160018152a18a612930565b508383813d831161299c575b61298a8183612b0a565b810103126101a25761285b9251612924565b503d612980565b346101a25760203660031901126101a2576004359063ffffffff60e01b82168092036101a2576020916385572ffb60e01b81149081156129e5575b5015158152f35b6301ffc9a760e01b149050836129de565b60409060031901126101a2576004359060243590565b60005b838110612a1f5750506000910152565b8181015183820152602001612a0f565b90602091612a4881518092818552858086019101612a0c565b601f01601f1916010190565b600435906001600160a01b03821682036101a257565b60809060031901126101a25760043590602435906044359060643590565b60051115612a9257565b634e487b7160e01b600052602160045260246000fd5b604435906001600160a01b03821682036101a257565b600435906001600160401b03821682036101a257565b606081019081106001600160401b03821117610bbd57604052565b608081019081106001600160401b03821117610bbd57604052565b90601f801991011681019081106001600160401b03821117610bbd57604052565b6001600160401b038111610bbd57601f01601f191660200190565b81601f820112156101a257803590612b5d82612b2b565b92612b6b6040519485612b0a565b828452602083830101116101a257816000926020809301838601378301015290565b6001600160401b038111610bbd5760051b60200190565b6000198114611ad05760010190565b81810292918115918404141715611ad057565b8115612bd0570490565b634e487b7160e01b600052601260045260246000fd5b90612bf081612a88565b60ff80198354169116179055565b91908201809211611ad057565b6001600160a01b039091168152604060208201819052612c2d92910190612a2f565b90565b91908203918211611ad057565b9091600090828252600f602052604082206010602052604083208584526020526040832095600160ff600c84015416612c7581612a88565b036133845760028701908382541061332b57600c88019360ff855416612c9a81612a88565b60028114908115613316575b8115613302575b50156132fe57806132b6576001915b60018060a01b03600b5416602060028701546044604051809481936301933c3960e61b835260048301528860248301525afa908115613235578891613284575b5080421160001461324057612d119042612c30565b908160065581613169575b50505b60018060a01b0360058a015416956005549660065460068c019889549260405196876101208101106001600160401b036101208a0111176131555761012088016040528d88526020880152426040880152336060880152608087015260a086015260c0850152600160e08501528061010085015260038601548091101580613149575b612f87575b5090506101006040519280516020850152602081015160408501526040810151606085015260018060a01b03606082015116608085015260018060a01b0360808201511660a085015260a081015160c085015260c081015160e085015260e0810151151582850152015161012083015261012082526101408201908282106001600160401b03831117610bbd576040829052600d54636902622f60e11b835260209083906001600160a01b0316818461013f1988612e6a81336101448201612c0b565b0301925af1908115612f7b5750612f44575b5050907fd6985739ec9552d19c3572fc03d8cc0f929e20de244eaa8d01c1786d61fd177a96849392612eee9554905414612f1b575b50600383549101541480612f04575b612ef3575b50612ed08484613b5d565b54604051938493846040919493926060820195825260208201520152565b0390a1565b805460ff1916600217905538612ec5565b50600160ff825416612f1581612a88565b14612ec0565b825460ff1916600317835560080154612f35575b38612eb1565b612f3f8686613cd3565b612f2f565b90602091829695949396903d8411612f73575b81612f6191612b0a565b810103126101a2579091923880612e7c565b3d9150612f57565b604051903d90823e3d90fd5b60018060a01b03600b5416906002870154823b1561314557906044849283604051958694859363560337d160e11b8552600485015260248401525af1801561313a5761310f575b50600b54600286015460038701546040516301acb51d60e31b815260048101929092526024820152919290602090839060449082906001600160a01b03165afa9182156131045783926130d0575b5088835260126020526040832090835260205260408220908252602052604081208251815560208301516001820155604083015160028201556003810160018060a01b03606085015116906001600160601b0360a01b9182825416179055600482019060018060a01b036080860151169082541617905560a0830151600582015560c083015160068201556007810160e0840151151560ff8019835416911617905560086101008401519101558038612da7565b9091506020813d6020116130fc575b816130ec60209383612b0a565b810103126101a25751903861301c565b3d91506130df565b6040513d85823e3d90fd5b6001600160401b0381116131265760405238612fce565b634e487b7160e01b82526041600452602482fd5b6040513d84823e3d90fd5b8380fd5b5060078b015415612da2565b634e487b7160e01b86526041600452602486fd5b600b546002870154600554604051632b18775560e01b8152600481019590955260248501919091526044840152602090839060649082908c906001600160a01b03165af180156132355788906131fb575b6131f49250806005557f57d559aaa778ae17e20a31e208d5763cb05667142a48b6098af5fb106b0ce8d96020604051838152a18a8a6134b4565b3880612d1c565b50906020813d60201161322d575b8161321660209383612b0a565b8101031261322957906131f491516131ba565b8780fd5b3d9150613209565b6040513d8a823e3d90fd5b5061327f9060038b0154806005557f57d559aaa778ae17e20a31e208d5763cb05667142a48b6098af5fb106b0ce8d96020604051838152a18a8a6134b4565b612d1f565b90506020813d6020116132ae575b8161329f60209383612b0a565b81010312613229575138612cfc565b3d9150613292565b60068901548111156132c9578091612cbc565b60405162461bcd60e51b815260206004820152600d60248201526c416c726561647920706169642160981b6044820152606490fd5b8580fd5b6003915061330f81612a88565b1438612cad565b905061332181612a88565b6001811490612ca6565b60405162461bcd60e51b815260206004820152602b60248201527f596f7520646f6e2774206861766520616e7920696e7374616c6c6d656e74206c60448201526a65667420746f207061792160a81b6064820152608490fd5b60405162461bcd60e51b815260206004820152601760248201527f436865636b20746865207469746c6520737461747573210000000000000000006044820152606490fd5b909291926133d681612b2b565b916133e46040519384612b0a565b8294828452828201116101a25760206133fe930190612a0c565b565b9080601f830112156101a2578151612c2d926020016133c9565b519081151582036101a257565b906060828203126101a2578151906001600160401b0382116101a25761344e918301613400565b60208201519092906001600160a01b03811681036101a2576040612c2d91930161341a565b1561347a57565b60405162461bcd60e51b8152602060048201526012602482015271546f6b656e206e6f7420616c6c6f7765642160701b6044820152606490fd5b92600091848352602091601083526040918285209085528352818420958452600f8352818420908654600883015410613b075760ff600c880154166134f881612a88565b801590811591613af2575b5015613a73576001600160a01b039081168015613a37578582600b5416918551638c83ddd360e01b8152828160049584878301528160249687925af19081156139de5761355c916001918b91613a1a5750151514613473565b600980546001600160a01b0319168217905560038a015489106139e85785516370a0823160e01b8152338482015287818481855afa9081156139de57908a918a916139a9575b50106139705786604491875192838092636eb1769f60e11b8252338883015230878301525afa90811561374757908991899161393f575b50106138e05750878101546137515760098301968754976006850154988961360091612bfe565b905560095485516323b872dd60e01b80825233858301908152306020820152604081019b909b529990918891839187169082908c90829060600103925af18015613747579188918896959493613704575b5061366b906006856009541695600b541696015490612c30565b8651998a5233928a019283526001600160a01b039094166020830152604082019390935287928391829060600103925af19081156136fb57506136bf575b5050506006905b016136bb8154612ba4565b9055565b82813d83116136f4575b6136d38183612b0a565b810103126136f15750906136e860069261341a565b509038806136a9565b80fd5b503d6136c9565b513d84823e3d90fd5b8092508691939495963d8311613740575b61371f8183612b0a565b810103126132295761366b87959493926137398a9361341a565b5090613651565b503d613715565b86513d8a823e3d90fd5b61377460098401936006855491019461376c86548093612bfe565b905588612c30565b156138a757600954835485516323b872dd60e01b80825233858301908152306020820152604081019390935299929091889183918290036060019082908c9089165af18015613747579188918896959493613864575b506137e190846009541694600b5416955490612c30565b8651998a5233928a019283526001600160a01b03909416602083015260408201939093528792839182906060015b03925af19081156136fb575061382b575b5050506006906136b0565b82813d831161385d575b61383f8183612b0a565b810103126136f157509061385460069261341a565b50903880613820565b503d613835565b8092508691939495963d83116138a0575b61387f8183612b0a565b81010312613229576137e187959493926138998a9361341a565b50906137ca565b503d613875565b60095484516323b872dd60e01b81523392810192835230602084015260408301989098528593508792169082908790829060600161380f565b845162461bcd60e51b81529182018690526034908201527f596f75206d75737420617070726f76652074686520636f6e747261637420746f604482015273207472616e736665722074686520746f6b656e7360601b6064820152608490fd5b809250888092503d8311613969575b6139588183612b0a565b8101031261322957889051386135d9565b503d61394e565b855162461bcd60e51b815280840188905260148184015273496e73756666696369656e742062616c616e636560601b6044820152606490fd5b809250898092503d83116139d7575b6139c28183612b0a565b810103126139d357899051386135a2565b8880fd5b503d6139b8565b87513d8b823e3d90fd5b855162461bcd60e51b8152808401889052600d818401526c57726f6e672076616c7565212160981b6044820152606490fd5b613a2e91503d808d833e611ee08183612b0a565b91505038611d29565b835162461bcd60e51b8152600481018690526015602482015274456e746572206120746f6b656e206164647265737360581b6044820152606490fd5b825162461bcd60e51b815260048101859052604c60248201527f796f7572207469746c6520616c72656164792068617665206265656e2066696e60448201527f616c697a6564206f722063616e63656c65642e20506c6561736520636865636b60648201526b103a34329039ba30ba3ab99760a11b608482015260a490fd5b60049150613aff81612a88565b141538613503565b825162461bcd60e51b815260048101859052602960248201527f456e74657220612076616c696420636f6e747261637420496420666f722074686044820152686973205469746c652160b81b6064820152608490fd5b907f0612a8a5548125c3db9f13b41025df2c888d69f8a0351889cd94bd21a45dd34b91612eee600b6000838152600f6020526040812090601060205260408120868252602052613bba604082209260068085015491015490612bb3565b6001830154808210613bec575050828201555b0154604051938493846040919493926060820195825260208201520152565b613bf69250612c30565b82820155613bcd565b15613c0657565b60405162461bcd60e51b815260206004820152601e60248201527f596f7520686176656e2774206265656e2073656c6563746564207965742100006044820152606490fd5b15613c5257565b60405162461bcd60e51b815260206004820152602360248201527f4f6e6c7920746865206f776e65722063616e20616464206120636f6c61746572604482015262616c2160e81b6064820152608490fd5b67ccf0a31a221f3c9b81526001600160a01b039091166020820152606060408201819052612c2d92910190612a2f565b906000908282526020906010825260409081842081855283528184209060068201546002830154148015613f0f57600c830190600160ff835460081c16151503613ead578080613e97575b15613def57505090600b849596613dac9593613d5b6007850154916111528851938492898401968791606093918352602083015260408201520190565b519020910154835191838301528382015285606082015260608152613d7f81612aef565b60018060a01b0380600e54169060075416878551809781958294630a30e37760e41b845260048401613ca3565b03925af1908115613de65750613dc157505050565b813d8311613ddf575b613dd48183612b0a565b810103126136f15750565b503d613dca565b513d85823e3d90fd5b909694939281613e89575b50613e08575b505050505050565b600593855260148352818520908552825280842093815194613e2986612ad4565b60018060a01b0393848254168752600260018301549283838a01520154918488019283528352601081528383209151835252209251169101906001600160601b0360a01b825416179055600460ff19825416179055388080808080613e00565b600891500154151538613dfa565b50600a8401546001600160a01b03161515613d1e565b845162461bcd60e51b815260048101879052603560248201527f596f752063616e27742072657472696576652074686520636f6c61746572616c604482015274206265666f7265207468652077697468647261772160581b6064820152608490fd5b835162461bcd60e51b815260048101869052602960248201527f416c6c2074686520696e7374616c6c6d656e7473206d7573742068617665206260448201526865656e20706169642160b81b6064820152608490fd5b15613f6c57565b60405162461bcd60e51b8152602060048201526011602482015270151bdad95b881b9bdd08185b1b1bddd959607a1b6044820152606490fd5b15613fac57565b60405162461bcd60e51b815260206004820152601d60248201527f5468652063616c6c6572206d75737420626520746865206f776e6572210000006044820152606490fd5b90600182811c92168015614021575b602083101461400b57565b634e487b7160e01b600052602260045260246000fd5b91607f1691614000565b6040519060008260019182549261404184613ff1565b808452938181169081156140c25750600114614065575b506133fe92500383612b0a565b600081815291507fb10e2d527612073b26eecdfd717e6a320cf44b4afac2b0732d9fcbe2b7fa0cf65b8483106140a757506133fe935050810160200138614058565b81935090816020925483858a0101520191019091859261408e565b9050602092506133fe94915060ff191682840152151560051b82010138614058565b51906001600160a01b03821682036101a25756fea2646970667358221220191216605b3f1eb3f87b92cb8da3061cecbb4e6efeafd666834fb5d18587fa4e64736f6c63430008140033","opcodes":"PUSH1 0xA0 CALLVALUE PUSH3 0x126 JUMPI PUSH1 0x1F PUSH3 0x4270 CODESIZE DUP2 SWAP1 SUB SWAP2 DUP3 ADD PUSH1 0x1F NOT AND DUP4 ADD SWAP2 PUSH1 0x1 PUSH1 0x1 PUSH1 0x40 SHL SUB DUP4 GT DUP5 DUP5 LT OR PUSH3 0x12B JUMPI DUP1 DUP5 SWAP3 PUSH1 0x20 SWAP5 PUSH1 0x40 MSTORE DUP4 CODECOPY DUP2 ADD SUB SLT PUSH3 0x126 JUMPI MLOAD PUSH1 0x1 PUSH1 0x1 PUSH1 0xA0 SHL SUB DUP2 AND DUP1 DUP3 SUB PUSH3 0x126 JUMPI ISZERO PUSH3 0x10D JUMPI PUSH1 0x80 MSTORE PUSH1 0x0 PUSH1 0x4 SSTORE PUSH1 0x1 DUP1 PUSH1 0xA0 SHL SUB NOT PUSH20 0xCD24C9696F2AA4BB15170B263E72642B5600B479 DUP2 PUSH1 0xB SLOAD AND OR PUSH1 0xB SSTORE PUSH20 0xE7D98F63EFCDD443549B64205B1A1D22AF8C1007 DUP2 PUSH1 0xC SLOAD AND OR PUSH1 0xC SSTORE PUSH20 0x203FC68DED882C7B669B4711C42FB7A27E119A9 DUP2 PUSH1 0xD SLOAD AND OR PUSH1 0xD SSTORE PUSH20 0xC3E7E776227D34874F6082F2F8476DD150DEC2DE DUP2 PUSH1 0xE SLOAD AND OR PUSH1 0xE SSTORE CALLER SWAP1 PUSH1 0x8 SLOAD AND OR PUSH1 0x8 SSTORE PUSH1 0x40 MLOAD PUSH2 0x412E SWAP1 DUP2 PUSH3 0x142 DUP3 CODECOPY PUSH1 0x80 MLOAD DUP2 DUP2 DUP2 PUSH2 0xD3B ADD MSTORE PUSH2 0x13C4 ADD MSTORE RETURN JUMPDEST PUSH1 0x40 MLOAD PUSH4 0x35FDCCCD PUSH1 0xE2 SHL DUP2 MSTORE PUSH1 0x0 PUSH1 0x4 DUP3 ADD MSTORE PUSH1 0x24 SWAP1 REVERT JUMPDEST PUSH1 0x0 DUP1 REVERT JUMPDEST PUSH4 0x4E487B71 PUSH1 0xE0 SHL PUSH1 0x0 MSTORE PUSH1 0x41 PUSH1 0x4 MSTORE PUSH1 0x24 PUSH1 0x0 REVERT INVALID PUSH1 0x80 DUP1 PUSH1 0x40 MSTORE PUSH1 0x4 CALLDATASIZE LT ISZERO PUSH2 0x13 JUMPI PUSH1 0x0 DUP1 REVERT JUMPDEST PUSH1 0x0 CALLDATALOAD PUSH1 0xE0 SHR SWAP1 DUP2 PUSH4 0x1FFC9A7 EQ PUSH2 0x29A3 JUMPI POP DUP1 PUSH4 0x23478654 EQ PUSH2 0x27A4 JUMPI DUP1 PUSH4 0x263596A5 EQ PUSH2 0x2767 JUMPI DUP1 PUSH4 0x272EFC69 EQ PUSH2 0x2728 JUMPI DUP1 PUSH4 0x2D7C0B7F EQ PUSH2 0x244E JUMPI DUP1 PUSH4 0x31AE0DF6 EQ PUSH2 0x236B JUMPI DUP1 PUSH4 0x4991126D EQ PUSH2 0x22BB JUMPI DUP1 PUSH4 0x4C67469C EQ PUSH2 0x205F JUMPI DUP1 PUSH4 0x4FACBACB EQ PUSH2 0x1C42 JUMPI DUP1 PUSH4 0x58A15A2E EQ PUSH2 0x1C2B JUMPI DUP1 PUSH4 0x643233E5 EQ PUSH2 0x187C JUMPI DUP1 PUSH4 0x69D83ED1 EQ PUSH2 0x1842 JUMPI DUP1 PUSH4 0x7DC91A02 EQ PUSH2 0x1803 JUMPI DUP1 PUSH4 0x85572FFB EQ PUSH2 0x1387 JUMPI DUP1 PUSH4 0x8A12312C EQ PUSH2 0x12C9 JUMPI DUP1 PUSH4 0x8F9FCE70 EQ PUSH2 0x10D6 JUMPI DUP1 PUSH4 0x9BEAF731 EQ PUSH2 0xE45 JUMPI DUP1 PUSH4 0xAB922631 EQ PUSH2 0xDBC JUMPI DUP1 PUSH4 0xAD3B6DA3 EQ PUSH2 0xD6A JUMPI DUP1 PUSH4 0xB0F479A1 EQ PUSH2 0xD25 JUMPI DUP1 PUSH4 0xB2F87643 EQ PUSH2 0xCD9 JUMPI DUP1 PUSH4 0xB697F531 EQ PUSH2 0xC8A JUMPI DUP1 PUSH4 0xBA658A44 EQ PUSH2 0x7BB JUMPI DUP1 PUSH4 0xC39622F8 EQ PUSH2 0x785 JUMPI DUP1 PUSH4 0xC5EC1C7A EQ PUSH2 0x733 JUMPI DUP1 PUSH4 0xD0ADE9D5 EQ PUSH2 0x470 JUMPI DUP1 PUSH4 0xD762A160 EQ PUSH2 0x1A7 JUMPI PUSH4 0xFF46ED53 EQ PUSH2 0x153 JUMPI PUSH1 0x0 DUP1 REVERT JUMPDEST CALLVALUE PUSH2 0x1A2 JUMPI PUSH1 0x20 CALLDATASIZE PUSH1 0x3 NOT ADD SLT PUSH2 0x1A2 JUMPI PUSH1 0x1 PUSH1 0x1 PUSH1 0x40 SHL SUB PUSH2 0x174 PUSH2 0x2ABE JUMP JUMPDEST PUSH2 0x189 PUSH1 0x1 DUP1 PUSH1 0xA0 SHL SUB PUSH1 0x8 SLOAD AND CALLER EQ PUSH2 0x3FA5 JUMP JUMPDEST AND PUSH1 0x0 SWAP1 DUP2 MSTORE PUSH1 0x2 PUSH1 0x20 MSTORE PUSH1 0x40 SWAP1 KECCAK256 DUP1 SLOAD PUSH1 0xFF NOT AND SWAP1 SSTORE STOP JUMPDEST PUSH1 0x0 DUP1 REVERT JUMPDEST CALLVALUE PUSH2 0x1A2 JUMPI PUSH1 0x20 DUP1 PUSH1 0x3 NOT CALLDATASIZE ADD SLT PUSH2 0x1A2 JUMPI PUSH1 0x4 CALLDATALOAD SWAP1 DUP2 PUSH1 0x0 MSTORE PUSH1 0xF DUP2 MSTORE PUSH1 0x40 PUSH1 0x0 KECCAK256 PUSH1 0xC DUP2 ADD SWAP3 DUP4 SLOAD SWAP2 PUSH1 0xFF DUP4 AND SWAP2 PUSH2 0x1E0 DUP4 PUSH2 0x2A88 JUMP JUMPDEST PUSH1 0x4 DUP4 EQ DUP1 DUP1 ISZERO PUSH2 0x45D JUMPI JUMPDEST DUP1 ISZERO PUSH2 0x44A JUMPI JUMPDEST ISZERO PUSH2 0x405 JUMPI DUP3 SLOAD TIMESTAMP GT SWAP1 DUP2 PUSH2 0x3F4 JUMPI JUMPDEST POP ISZERO PUSH2 0x245 JUMPI POP POP POP POP PUSH32 0xB34436423C205503BB9DE249902D7E3E7FC76197D9CEC741C46E9E0DD6489F44 SWAP2 PUSH1 0x3 PUSH1 0xFF NOT DUP3 SLOAD AND OR SWAP1 SSTORE PUSH1 0x40 MLOAD PUSH1 0x3 DUP2 MSTORE LOG1 JUMPDEST STOP JUMPDEST PUSH1 0x1 DUP3 SWAP6 SWAP5 SWAP6 ADD SLOAD TIMESTAMP GT DUP1 PUSH2 0x3E1 JUMPI JUMPDEST ISZERO PUSH2 0x26C JUMPI POP POP POP POP POP PUSH1 0x1 PUSH1 0xFF NOT DUP3 SLOAD AND OR SWAP1 SSTORE STOP JUMPDEST PUSH1 0x1 DUP1 PUSH1 0xA0 SWAP8 SWAP6 SWAP7 SWAP8 SHL SUB PUSH1 0xB SLOAD AND SWAP3 DUP6 PUSH1 0x3 DUP5 ADD SLOAD SWAP3 PUSH1 0x44 PUSH1 0x40 MLOAD DUP1 SWAP8 DUP2 SWAP4 PUSH4 0x1ACB51D PUSH1 0xE3 SHL DUP4 MSTORE PUSH1 0x4 DUP4 ADD MSTORE DUP7 PUSH1 0x24 DUP4 ADD MSTORE GAS STATICCALL SWAP4 DUP5 ISZERO PUSH2 0x3D5 JUMPI PUSH1 0x0 SWAP5 PUSH2 0x3A6 JUMPI JUMPDEST POP PUSH2 0x2BC DUP2 PUSH2 0x2A88 JUMP JUMPDEST PUSH1 0x1 DUP2 EQ SWAP2 DUP3 SWAP2 DUP3 PUSH2 0x398 JUMPI JUMPDEST DUP4 ISZERO PUSH2 0x353 JUMPI JUMPDEST POP POP POP PUSH1 0x0 EQ PUSH2 0x314 JUMPI POP POP PUSH32 0xB34436423C205503BB9DE249902D7E3E7FC76197D9CEC741C46E9E0DD6489F44 SWAP3 POP PUSH1 0x2 PUSH1 0xFF NOT DUP3 SLOAD AND OR SWAP1 SSTORE PUSH1 0x40 MLOAD PUSH1 0x2 DUP2 MSTORE LOG1 STOP JUMPDEST PUSH1 0x8 ADD SLOAD SWAP1 SWAP2 SWAP1 ISZERO PUSH2 0x322 JUMPI STOP JUMPDEST PUSH32 0x2E24ED849DF3BE5EDECCA4A9280B775D8D82B800D0EBEFAA298F3D61A0998A70 SWAP4 PUSH1 0xFF NOT AND SWAP1 SSTORE PUSH1 0x40 MLOAD SWAP1 DUP2 MSTORE LOG1 STOP JUMPDEST PUSH2 0x35F SWAP2 SWAP3 SWAP4 POP PUSH2 0x2A88 JUMP JUMPDEST DUP2 PUSH2 0x37C JUMPI JUMPDEST POP DUP1 PUSH2 0x374 JUMPI JUMPDEST DUP7 DUP1 DUP1 PUSH2 0x2D0 JUMP JUMPDEST POP DUP2 ISZERO PUSH2 0x36C JUMP JUMPDEST PUSH2 0x38C SWAP2 POP PUSH1 0xB DUP4 ADD SLOAD SWAP1 PUSH2 0x2BFE JUMP JUMPDEST PUSH1 0x5 DUP3 ADD SLOAD LT DUP7 PUSH2 0x365 JUMP JUMPDEST PUSH1 0x5 DUP6 ADD SLOAD DUP3 GT SWAP4 POP PUSH2 0x2C9 JUMP JUMPDEST SWAP1 SWAP4 POP DUP6 DUP2 DUP2 RETURNDATASIZE DUP4 GT PUSH2 0x3CE JUMPI JUMPDEST PUSH2 0x3BE DUP2 DUP4 PUSH2 0x2B0A JUMP JUMPDEST DUP2 ADD SUB SLT PUSH2 0x1A2 JUMPI MLOAD SWAP3 DUP8 PUSH2 0x2B2 JUMP JUMPDEST POP RETURNDATASIZE PUSH2 0x3B4 JUMP JUMPDEST PUSH1 0x40 MLOAD RETURNDATASIZE PUSH1 0x0 DUP3 RETURNDATACOPY RETURNDATASIZE SWAP1 REVERT JUMPDEST POP PUSH2 0x3EB DUP4 PUSH2 0x2A88 JUMP JUMPDEST PUSH1 0x3 DUP4 EQ PUSH2 0x255 JUMP JUMPDEST SWAP1 POP PUSH2 0x3FF DUP5 PUSH2 0x2A88 JUMP JUMPDEST DUP8 PUSH2 0x203 JUMP JUMPDEST PUSH1 0x40 MLOAD PUSH3 0x461BCD PUSH1 0xE5 SHL DUP2 MSTORE PUSH1 0x4 DUP2 ADD DUP8 SWAP1 MSTORE PUSH1 0x18 PUSH1 0x24 DUP3 ADD MSTORE PUSH32 0x54686973207469746C6520616C726561647920656E6465640000000000000000 PUSH1 0x44 DUP3 ADD MSTORE PUSH1 0x64 SWAP1 REVERT JUMPDEST POP PUSH2 0x454 DUP5 PUSH2 0x2A88 JUMP JUMPDEST PUSH1 0x1 DUP5 EQ PUSH2 0x1F3 JUMP JUMPDEST POP PUSH2 0x467 DUP5 PUSH2 0x2A88 JUMP JUMPDEST PUSH1 0x3 DUP5 EQ PUSH2 0x1EC JUMP JUMPDEST CALLVALUE PUSH2 0x1A2 JUMPI PUSH1 0x20 DUP1 PUSH1 0x3 NOT CALLDATASIZE ADD SLT PUSH2 0x1A2 JUMPI PUSH1 0x4 CALLDATALOAD DUP1 PUSH1 0x0 MSTORE PUSH1 0xF DUP3 MSTORE PUSH1 0x40 PUSH1 0x0 KECCAK256 SWAP2 PUSH1 0x11 DUP2 MSTORE PUSH1 0x40 PUSH1 0x0 KECCAK256 PUSH1 0x3 DUP5 ADD SWAP1 DUP2 SLOAD PUSH1 0x0 MSTORE DUP3 MSTORE PUSH1 0x40 PUSH1 0x0 KECCAK256 SWAP1 PUSH1 0x1 DUP1 PUSH1 0xA0 SHL SUB DUP1 PUSH1 0xC SLOAD AND SWAP6 PUSH1 0x0 PUSH1 0x4 DUP6 ADD SLOAD PUSH1 0x24 PUSH1 0x40 MLOAD DUP1 SWAP11 DUP2 SWAP4 PUSH4 0xD8A4676F PUSH1 0xE0 SHL DUP4 MSTORE PUSH1 0x4 DUP4 ADD MSTORE GAS STATICCALL SWAP3 DUP4 ISZERO PUSH2 0x3D5 JUMPI PUSH1 0x0 DUP1 SWAP9 PUSH1 0x0 SWAP6 PUSH2 0x68C JUMPI JUMPDEST POP ISZERO PUSH2 0x647 JUMPI PUSH1 0x40 MLOAD PUSH1 0x60 DUP2 ADD SWAP9 PUSH1 0x1 SWAP10 DUP11 DUP4 MSTORE PUSH1 0x60 DUP10 DUP5 ADD MSTORE DUP2 MLOAD DUP1 SWAP2 MSTORE DUP9 PUSH1 0x80 DUP5 ADD SWAP3 ADD SWAP1 PUSH1 0x0 JUMPDEST DUP2 DUP2 LT PUSH2 0x634 JUMPI POP PUSH32 0x495707AADFDB79A8158BC4C70170204A5BD6402CE8D4F16AF9B93D19F5B864B7 PUSH1 0xA0 DUP13 DUP13 DUP16 DUP13 DUP15 SWAP2 DUP14 DUP14 DUP14 PUSH32 0x6EED17F1838C49C44631282C96EF8D77984FDA771E865BC74772B03C5DA4BDE7 DUP15 DUP1 DUP16 DUP9 PUSH1 0x40 DUP4 ADD MSTORE SUB SWAP1 LOG1 DUP8 PUSH1 0x0 MSTORE PUSH1 0x12 DUP8 MSTORE PUSH1 0x40 PUSH1 0x0 KECCAK256 SWAP4 PUSH1 0xC DUP2 DUP9 ADD SWAP4 DUP5 SLOAD SWAP7 DUP8 PUSH1 0x0 MSTORE DUP11 MSTORE PUSH1 0x40 PUSH1 0x0 KECCAK256 DUP9 PUSH1 0x0 MSTORE DUP11 MSTORE PUSH1 0x40 PUSH1 0x0 KECCAK256 SWAP7 DUP9 PUSH1 0x5 DUP12 ADD SSTORE DUP8 SLOAD PUSH1 0x6 DUP12 ADD SSTORE PUSH1 0x4 DUP9 ADD SWAP10 PUSH1 0x7 DUP9 DUP13 SLOAD AND SWAP2 ADD SWAP1 PUSH1 0x1 PUSH1 0x1 PUSH1 0x60 SHL SUB DUP16 SHL DUP3 SLOAD AND OR SWAP1 SSTORE DUP12 PUSH1 0x0 MSTORE PUSH1 0x10 DUP12 MSTORE PUSH1 0x40 PUSH1 0x0 KECCAK256 DUP9 SLOAD PUSH1 0x0 MSTORE DUP12 MSTORE PUSH1 0x7 PUSH1 0x40 PUSH1 0x0 KECCAK256 ADD SSTORE PUSH2 0x5FB DUP8 SLOAD DUP13 PUSH2 0x3B5D JUMP JUMPDEST ADD SWAP1 PUSH1 0xFF NOT DUP3 SLOAD AND OR SWAP1 SSTORE PUSH2 0x610 DUP2 SLOAD PUSH2 0x2BA4 JUMP JUMPDEST SWAP1 SSTORE SLOAD SWAP2 SLOAD SWAP4 SLOAD AND SWAP4 PUSH1 0x40 MLOAD SWAP6 DUP7 MSTORE DUP6 ADD MSTORE PUSH1 0x40 DUP5 ADD MSTORE PUSH1 0x60 DUP4 ADD MSTORE PUSH1 0x80 DUP3 ADD MSTORE LOG1 STOP JUMPDEST DUP3 MLOAD DUP5 MSTORE SWAP3 DUP11 ADD SWAP3 SWAP2 DUP11 ADD SWAP2 DUP13 ADD PUSH2 0x519 JUMP JUMPDEST PUSH1 0x40 MLOAD PUSH3 0x461BCD PUSH1 0xE5 SHL DUP2 MSTORE PUSH1 0x4 DUP2 ADD DUP8 SWAP1 MSTORE PUSH1 0x19 PUSH1 0x24 DUP3 ADD MSTORE PUSH32 0x5652462072657175657374206E6F742066756C66696C6C656400000000000000 PUSH1 0x44 DUP3 ADD MSTORE PUSH1 0x64 SWAP1 REVERT JUMPDEST SWAP9 POP POP SWAP3 POP RETURNDATASIZE DUP1 PUSH1 0x0 DUP10 RETURNDATACOPY PUSH2 0x6A1 DUP2 DUP10 PUSH2 0x2B0A JUMP JUMPDEST DUP8 ADD SWAP3 PUSH1 0x60 DUP9 DUP6 SUB SLT PUSH2 0x1A2 JUMPI PUSH2 0x6B7 DUP9 PUSH2 0x341A JUMP JUMPDEST SWAP8 DUP7 DUP2 ADD MLOAD PUSH1 0x1 PUSH1 0x1 PUSH1 0x40 SHL SUB DUP2 GT PUSH2 0x1A2 JUMPI DUP2 ADD SWAP5 DUP1 PUSH1 0x1F DUP8 ADD SLT ISZERO PUSH2 0x1A2 JUMPI DUP6 MLOAD PUSH2 0x6E3 DUP2 PUSH2 0x2B8D JUMP JUMPDEST SWAP7 PUSH2 0x6F1 PUSH1 0x40 MLOAD SWAP9 DUP10 PUSH2 0x2B0A JUMP JUMPDEST DUP2 DUP9 MSTORE DUP10 DUP1 DUP10 ADD SWAP3 PUSH1 0x5 SHL DUP3 ADD ADD SWAP3 DUP4 GT PUSH2 0x1A2 JUMPI DUP10 DUP1 SWAP2 ADD SWAP2 JUMPDEST DUP4 DUP4 LT PUSH2 0x723 JUMPI POP POP POP POP PUSH1 0x40 ADD MLOAD SWAP4 SWAP8 DUP10 PUSH2 0x4EF JUMP JUMPDEST DUP3 MLOAD DUP2 MSTORE SWAP2 DUP2 ADD SWAP2 DUP11 SWAP2 ADD PUSH2 0x70C JUMP JUMPDEST CALLVALUE PUSH2 0x1A2 JUMPI PUSH1 0x20 CALLDATASIZE PUSH1 0x3 NOT ADD SLT PUSH2 0x1A2 JUMPI PUSH1 0x1 PUSH1 0x1 PUSH1 0x40 SHL SUB PUSH2 0x754 PUSH2 0x2ABE JUMP JUMPDEST PUSH2 0x769 PUSH1 0x1 DUP1 PUSH1 0xA0 SHL SUB PUSH1 0x8 SLOAD AND CALLER EQ PUSH2 0x3FA5 JUMP JUMPDEST AND PUSH1 0x0 SWAP1 DUP2 MSTORE PUSH1 0x2 PUSH1 0x20 MSTORE PUSH1 0x40 SWAP1 KECCAK256 DUP1 SLOAD PUSH1 0xFF NOT AND PUSH1 0x1 OR SWAP1 SSTORE STOP JUMPDEST CALLVALUE PUSH2 0x1A2 JUMPI PUSH1 0x80 CALLDATASIZE PUSH1 0x3 NOT ADD SLT PUSH2 0x1A2 JUMPI PUSH1 0x64 CALLDATALOAD PUSH1 0x1 PUSH1 0x1 PUSH1 0xA0 SHL SUB DUP2 AND DUP2 SUB PUSH2 0x1A2 JUMPI PUSH2 0x243 SWAP1 PUSH1 0x44 CALLDATALOAD PUSH1 0x24 CALLDATALOAD PUSH1 0x4 CALLDATALOAD PUSH2 0x2C3D JUMP JUMPDEST CALLVALUE PUSH2 0x1A2 JUMPI PUSH1 0x60 CALLDATASIZE PUSH1 0x3 NOT ADD SLT PUSH2 0x1A2 JUMPI PUSH2 0x7D4 PUSH2 0x2ABE JUMP JUMPDEST PUSH1 0x24 CALLDATALOAD SWAP1 DUP2 ISZERO ISZERO DUP1 SWAP3 SUB PUSH2 0x1A2 JUMPI PUSH2 0x7EA PUSH2 0x2AA8 JUMP JUMPDEST PUSH1 0x1 PUSH1 0x1 PUSH1 0x40 SHL SUB DUP3 AND PUSH1 0x0 MSTORE PUSH1 0xF PUSH1 0x20 MSTORE PUSH1 0x40 PUSH1 0x0 KECCAK256 SWAP2 PUSH1 0x3 PUSH1 0xFF PUSH1 0xC DUP6 ADD SLOAD AND PUSH2 0x815 DUP2 PUSH2 0x2A88 JUMP JUMPDEST SUB PUSH2 0xC28 JUMPI PUSH1 0x8 DUP4 ADD SLOAD SWAP4 PUSH1 0x5 DUP5 ADD SLOAD SWAP5 DUP6 DUP2 GT PUSH2 0xBF2 JUMPI PUSH2 0x838 PUSH1 0x1 SWAP2 PUSH2 0x2BA4 JUMP JUMPDEST SWAP2 DUP3 PUSH1 0x8 DUP8 ADD SSTORE EQ PUSH1 0x0 EQ PUSH2 0xBE7 JUMPI PUSH1 0x7 DUP5 ADD SLOAD SWAP5 PUSH1 0x0 SWAP1 JUMPDEST PUSH2 0x864 PUSH1 0x4 DUP8 ADD SLOAD SWAP8 PUSH1 0x6 DUP9 ADD SLOAD PUSH2 0x2BFE JUMP JUMPDEST SWAP1 PUSH1 0x40 MLOAD SWAP8 DUP9 PUSH2 0x1C0 DUP2 ADD LT PUSH1 0x1 PUSH1 0x1 PUSH1 0x40 SHL SUB PUSH2 0x1C0 DUP12 ADD GT OR PUSH2 0xBBD JUMPI PUSH2 0x1C0 DUP10 ADD PUSH1 0x40 MSTORE DUP5 DUP10 MSTORE PUSH1 0x20 DUP10 ADD MSTORE PUSH1 0x40 DUP9 ADD MSTORE PUSH1 0x60 DUP8 ADD MSTORE PUSH1 0x80 DUP7 ADD MSTORE CALLER PUSH1 0xA0 DUP7 ADD MSTORE PUSH1 0x0 PUSH1 0xC0 DUP7 ADD MSTORE PUSH1 0x0 PUSH1 0xE0 DUP7 ADD MSTORE PUSH1 0x0 PUSH2 0x100 DUP7 ADD MSTORE ADDRESS PUSH2 0x120 DUP7 ADD MSTORE PUSH1 0x0 PUSH2 0x140 DUP7 ADD MSTORE PUSH1 0x0 PUSH2 0x160 DUP7 ADD MSTORE PUSH1 0x2 PUSH2 0x180 DUP7 ADD MSTORE PUSH1 0x0 PUSH2 0x1A0 DUP7 ADD MSTORE PUSH1 0x1 PUSH1 0x1 PUSH1 0x40 SHL SUB DUP3 AND PUSH1 0x0 MSTORE PUSH1 0x10 PUSH1 0x20 MSTORE PUSH1 0x40 PUSH1 0x0 KECCAK256 SWAP1 PUSH1 0x0 MSTORE PUSH1 0x20 MSTORE PUSH1 0xC PUSH1 0x40 PUSH1 0x0 KECCAK256 DUP6 MLOAD DUP2 SSTORE PUSH1 0x20 DUP7 ADD MLOAD PUSH1 0x1 DUP3 ADD SSTORE PUSH1 0x40 DUP7 ADD MLOAD PUSH1 0x2 DUP3 ADD SSTORE PUSH1 0x60 DUP7 ADD MLOAD PUSH1 0x3 DUP3 ADD SSTORE PUSH1 0x80 DUP7 ADD MLOAD PUSH1 0x4 DUP3 ADD SSTORE PUSH1 0x1 DUP1 PUSH1 0xA0 SHL SUB PUSH1 0xA0 DUP8 ADD MLOAD AND PUSH1 0x5 DUP3 ADD PUSH1 0x1 PUSH1 0x1 PUSH1 0x60 SHL SUB PUSH1 0xA0 SHL SWAP2 DUP3 DUP3 SLOAD AND OR SWAP1 SSTORE PUSH1 0xC0 DUP8 ADD MLOAD PUSH1 0x6 DUP4 ADD SSTORE PUSH1 0xE0 DUP8 ADD MLOAD PUSH1 0x7 DUP4 ADD SSTORE PUSH2 0x100 DUP8 ADD MLOAD PUSH1 0x8 DUP4 ADD SSTORE PUSH1 0x9 DUP3 ADD PUSH1 0x1 DUP1 PUSH1 0xA0 SHL SUB PUSH2 0x120 DUP10 ADD MLOAD AND DUP3 DUP3 SLOAD AND OR SWAP1 SSTORE PUSH1 0xA DUP3 ADD SWAP1 PUSH1 0x1 DUP1 PUSH1 0xA0 SHL SUB PUSH2 0x140 DUP10 ADD MLOAD AND SWAP1 DUP3 SLOAD AND OR SWAP1 SSTORE PUSH2 0x160 DUP7 ADD MLOAD PUSH1 0xB DUP3 ADD SSTORE ADD PUSH2 0x9D0 PUSH2 0x180 DUP7 ADD MLOAD PUSH2 0x9CA DUP2 PUSH2 0x2A88 JUMP JUMPDEST DUP3 PUSH2 0x2BE6 JUMP JUMPDEST PUSH2 0x1A0 DUP6 ADD MLOAD ISZERO ISZERO PUSH2 0xFF00 DUP3 SLOAD SWAP2 PUSH1 0x8 SHL AND SWAP1 PUSH2 0xFF00 NOT AND OR SWAP1 SSTORE PUSH1 0x8 DUP4 ADD SLOAD PUSH1 0x5 DUP5 ADD SLOAD LT PUSH2 0xBD3 JUMPI JUMPDEST PUSH2 0x1A0 PUSH1 0x40 MLOAD SWAP5 DUP1 MLOAD PUSH1 0x20 DUP8 ADD MSTORE PUSH1 0x20 DUP2 ADD MLOAD PUSH1 0x40 DUP8 ADD MSTORE PUSH1 0x40 DUP2 ADD MLOAD PUSH1 0x60 DUP8 ADD MSTORE PUSH1 0x60 DUP2 ADD MLOAD PUSH1 0x80 DUP8 ADD MSTORE PUSH1 0x80 DUP2 ADD MLOAD PUSH1 0xA0 DUP8 ADD MSTORE PUSH1 0x1 DUP1 PUSH1 0xA0 SHL SUB PUSH1 0xA0 DUP3 ADD MLOAD AND PUSH1 0xC0 DUP8 ADD MSTORE PUSH1 0xC0 DUP2 ADD MLOAD PUSH1 0xE0 DUP8 ADD MSTORE PUSH1 0xE0 DUP2 ADD MLOAD PUSH2 0x100 DUP8 ADD MSTORE PUSH2 0x100 DUP2 ADD MLOAD PUSH2 0x120 DUP8 ADD MSTORE PUSH1 0x1 DUP1 PUSH1 0xA0 SHL SUB PUSH2 0x120 DUP3 ADD MLOAD AND PUSH2 0x140 DUP8 ADD MSTORE PUSH1 0x1 DUP1 PUSH1 0xA0 SHL SUB PUSH2 0x140 DUP3 ADD MLOAD AND PUSH2 0x160 DUP8 ADD MSTORE PUSH2 0x160 DUP2 ADD MLOAD PUSH2 0x180 DUP8 ADD MSTORE PUSH2 0x180 DUP2 ADD MLOAD PUSH2 0xAA7 DUP2 PUSH2 0x2A88 JUMP JUMPDEST DUP3 DUP8 ADD MSTORE ADD MLOAD ISZERO ISZERO PUSH2 0x1C0 DUP6 ADD MSTORE PUSH2 0x1C0 DUP5 MSTORE PUSH2 0x1E0 DUP5 ADD SWAP4 DUP1 DUP6 LT PUSH1 0x1 PUSH1 0x1 PUSH1 0x40 SHL SUB DUP7 GT OR PUSH2 0xBBD JUMPI PUSH1 0x40 DUP6 SWAP1 MSTORE PUSH1 0xD SLOAD PUSH4 0x6902622F PUSH1 0xE1 SHL DUP7 MSTORE PUSH1 0x20 SWAP1 DUP7 SWAP1 PUSH1 0x1 PUSH1 0x1 PUSH1 0xA0 SHL SUB AND DUP2 PUSH1 0x0 PUSH2 0x1DF NOT DUP7 PUSH2 0xB09 DUP2 CALLER PUSH2 0x1E4 DUP3 ADD PUSH2 0x2C0B JUMP JUMPDEST SUB ADD SWAP3 GAS CALL DUP1 ISZERO PUSH2 0x3D5 JUMPI PUSH2 0xB8C JUMPI JUMPDEST PUSH1 0x1 PUSH1 0x1 PUSH1 0x40 SHL SUB DUP3 AND PUSH1 0x0 DUP2 DUP2 MSTORE PUSH1 0x10 PUSH1 0x20 SWAP1 DUP2 MSTORE PUSH1 0x40 DUP1 DUP4 KECCAK256 PUSH1 0x8 DUP10 DUP2 ADD SLOAD DUP6 MSTORE SWAP3 MSTORE SWAP2 DUP3 SWAP1 KECCAK256 DUP1 SLOAD PUSH1 0x6 SWAP1 SWAP2 ADD SLOAD PUSH32 0x5462399704F0E380DBCB381163C0A1404E8B14097242551B2494B16157FAA530 SWAP5 DUP10 SWAP3 PUSH2 0xB7C SWAP3 DUP11 SWAP3 SWAP1 SWAP2 SWAP1 PUSH2 0x2C3D JUMP JUMPDEST ADD SLOAD DUP2 MLOAD SWAP1 DUP2 MSTORE CALLER PUSH1 0x20 DUP3 ADD MSTORE LOG1 STOP JUMPDEST PUSH1 0x20 SWAP2 SWAP4 SWAP5 DUP3 SWAP1 RETURNDATASIZE DUP5 GT PUSH2 0xBB5 JUMPI JUMPDEST DUP2 PUSH2 0xBA5 SWAP2 PUSH2 0x2B0A JUMP JUMPDEST DUP2 ADD SUB SLT PUSH2 0x1A2 JUMPI DUP3 SWAP2 DUP5 PUSH2 0xB19 JUMP JUMPDEST RETURNDATASIZE SWAP2 POP PUSH2 0xB9B JUMP JUMPDEST PUSH4 0x4E487B71 PUSH1 0xE0 SHL PUSH1 0x0 MSTORE PUSH1 0x41 PUSH1 0x4 MSTORE PUSH1 0x24 PUSH1 0x0 REVERT JUMPDEST PUSH1 0xC DUP4 ADD DUP1 SLOAD PUSH1 0xFF NOT AND PUSH1 0x1 OR SWAP1 SSTORE PUSH2 0x9FB JUMP JUMPDEST PUSH1 0x0 SWAP5 PUSH1 0x5 SWAP1 PUSH2 0x851 JUMP JUMPDEST PUSH1 0x40 MLOAD PUSH3 0x461BCD PUSH1 0xE5 SHL DUP2 MSTORE PUSH1 0x20 PUSH1 0x4 DUP3 ADD MSTORE PUSH1 0xE PUSH1 0x24 DUP3 ADD MSTORE PUSH14 0x5469746C6520736F6C646F757421 PUSH1 0x90 SHL PUSH1 0x44 DUP3 ADD MSTORE PUSH1 0x64 SWAP1 REVERT JUMPDEST PUSH1 0x40 MLOAD PUSH3 0x461BCD PUSH1 0xE5 SHL DUP2 MSTORE PUSH1 0x20 PUSH1 0x4 DUP3 ADD MSTORE PUSH1 0x34 PUSH1 0x24 DUP3 ADD MSTORE PUSH32 0x54686973205469746C65206973206E6F7420617661696C61626C652E20436865 PUSH1 0x44 DUP3 ADD MSTORE PUSH20 0x636B20746865205469746C652073746174757321 PUSH1 0x60 SHL PUSH1 0x64 DUP3 ADD MSTORE PUSH1 0x84 SWAP1 REVERT JUMPDEST CALLVALUE PUSH2 0x1A2 JUMPI PUSH1 0x20 CALLDATASIZE PUSH1 0x3 NOT ADD SLT PUSH2 0x1A2 JUMPI PUSH2 0xCA3 PUSH2 0x2A54 JUMP JUMPDEST PUSH1 0x8 SLOAD PUSH1 0x1 PUSH1 0x1 PUSH1 0xA0 SHL SUB SWAP2 SWAP1 PUSH2 0xCBD SWAP1 DUP4 AND CALLER EQ PUSH2 0x3FA5 JUMP JUMPDEST AND PUSH1 0x0 SWAP1 DUP2 MSTORE PUSH1 0x3 PUSH1 0x20 MSTORE PUSH1 0x40 SWAP1 KECCAK256 DUP1 SLOAD PUSH1 0xFF NOT AND PUSH1 0x1 OR SWAP1 SSTORE STOP JUMPDEST CALLVALUE PUSH2 0x1A2 JUMPI PUSH1 0x20 CALLDATASIZE PUSH1 0x3 NOT ADD SLT PUSH2 0x1A2 JUMPI PUSH2 0xCF2 PUSH2 0x2A54 JUMP JUMPDEST PUSH1 0x8 SLOAD PUSH1 0x1 PUSH1 0x1 PUSH1 0xA0 SHL SUB SWAP2 SWAP1 PUSH2 0xD0C SWAP1 DUP4 AND CALLER EQ PUSH2 0x3FA5 JUMP JUMPDEST AND PUSH1 0x0 SWAP1 DUP2 MSTORE PUSH1 0x3 PUSH1 0x20 MSTORE PUSH1 0x40 SWAP1 KECCAK256 DUP1 SLOAD PUSH1 0xFF NOT AND SWAP1 SSTORE STOP JUMPDEST CALLVALUE PUSH2 0x1A2 JUMPI PUSH1 0x0 CALLDATASIZE PUSH1 0x3 NOT ADD SLT PUSH2 0x1A2 JUMPI PUSH1 0x40 MLOAD PUSH32 0x0 PUSH1 0x1 PUSH1 0x1 PUSH1 0xA0 SHL SUB AND DUP2 MSTORE PUSH1 0x20 SWAP1 RETURN JUMPDEST CALLVALUE PUSH2 0x1A2 JUMPI PUSH2 0xD78 CALLDATASIZE PUSH2 0x29F6 JUMP JUMPDEST SWAP1 PUSH1 0x0 MSTORE PUSH1 0x14 PUSH1 0x20 MSTORE PUSH1 0x40 PUSH1 0x0 KECCAK256 SWAP1 PUSH1 0x0 MSTORE PUSH1 0x20 MSTORE PUSH1 0x60 PUSH1 0x40 PUSH1 0x0 KECCAK256 PUSH1 0x1 DUP1 PUSH1 0xA0 SHL SUB DUP2 SLOAD AND SWAP1 PUSH1 0x2 PUSH1 0x1 DUP3 ADD SLOAD SWAP2 ADD SLOAD SWAP1 PUSH1 0x40 MLOAD SWAP3 DUP4 MSTORE PUSH1 0x20 DUP4 ADD MSTORE PUSH1 0x40 DUP3 ADD MSTORE RETURN JUMPDEST CALLVALUE PUSH2 0x1A2 JUMPI PUSH2 0xDCA CALLDATASIZE PUSH2 0x29F6 JUMP JUMPDEST SWAP1 PUSH1 0x0 MSTORE PUSH1 0x11 PUSH1 0x20 MSTORE PUSH1 0x40 PUSH1 0x0 KECCAK256 SWAP1 PUSH1 0x0 MSTORE PUSH1 0x20 MSTORE PUSH2 0x100 PUSH1 0x40 PUSH1 0x0 KECCAK256 DUP1 SLOAD SWAP1 PUSH1 0x1 DUP2 ADD SLOAD SWAP1 PUSH1 0x2 DUP2 ADD SLOAD PUSH1 0x3 DUP3 ADD SLOAD PUSH1 0x4 DUP4 ADD SLOAD SWAP1 PUSH1 0x5 DUP5 ADD SLOAD SWAP3 PUSH1 0x6 DUP6 ADD SLOAD SWAP5 PUSH1 0x7 PUSH1 0x1 DUP1 PUSH1 0xA0 SHL SUB SWAP2 ADD SLOAD AND SWAP6 PUSH1 0x40 MLOAD SWAP8 DUP9 MSTORE PUSH1 0x20 DUP9 ADD MSTORE PUSH1 0x40 DUP8 ADD MSTORE PUSH1 0x60 DUP7 ADD MSTORE PUSH1 0x80 DUP6 ADD MSTORE PUSH1 0xA0 DUP5 ADD MSTORE PUSH1 0xC0 DUP4 ADD MSTORE PUSH1 0xE0 DUP3 ADD MSTORE RETURN JUMPDEST CALLVALUE PUSH2 0x1A2 JUMPI PUSH1 0x20 DUP1 PUSH1 0x3 NOT CALLDATASIZE ADD SLT PUSH2 0x1A2 JUMPI PUSH1 0x4 CALLDATALOAD SWAP1 DUP2 PUSH1 0x0 MSTORE PUSH1 0xF DUP2 MSTORE PUSH1 0x40 PUSH1 0x0 KECCAK256 PUSH1 0x1 DUP1 PUSH1 0xA0 SHL SUB DUP1 PUSH1 0xB SLOAD AND SWAP1 PUSH1 0x2 DUP4 ADD SLOAD SWAP5 PUSH1 0x3 DUP5 ADD SWAP2 DUP3 SLOAD SWAP7 PUSH1 0x40 MLOAD PUSH4 0x14D80399 PUSH1 0xE1 SHL DUP2 MSTORE DUP2 PUSH1 0x4 DUP3 ADD MSTORE DUP9 PUSH1 0x24 DUP3 ADD MSTORE DUP8 DUP2 PUSH1 0x44 DUP2 DUP10 GAS STATICCALL SWAP1 DUP2 ISZERO PUSH2 0x3D5 JUMPI PUSH1 0x0 SWAP2 PUSH2 0x10A9 JUMPI JUMPDEST POP TIMESTAMP GT ISZERO PUSH2 0x106E JUMPI DUP7 SWAP1 PUSH1 0x44 PUSH1 0x40 MLOAD DUP1 SWAP8 DUP2 SWAP4 PUSH4 0x1ACB51D PUSH1 0xE3 SHL DUP4 MSTORE PUSH1 0x4 DUP4 ADD MSTORE DUP12 PUSH1 0x24 DUP4 ADD MSTORE GAS STATICCALL SWAP4 DUP5 ISZERO PUSH2 0x3D5 JUMPI PUSH1 0x0 SWAP5 PUSH2 0x103D JUMPI JUMPDEST POP PUSH1 0xC SLOAD PUSH1 0x40 MLOAD PUSH4 0xC9807D9 PUSH1 0xE2 SHL DUP2 MSTORE PUSH1 0x4 DUP2 ADD DUP5 SWAP1 MSTORE PUSH1 0x24 DUP2 ADD SWAP9 SWAP1 SWAP9 MSTORE PUSH1 0x44 DUP9 ADD DUP6 SWAP1 MSTORE DUP7 SWAP1 DUP9 SWAP1 PUSH1 0x64 SWAP1 DUP3 SWAP1 PUSH1 0x0 SWAP1 DUP7 AND GAS CALL SWAP7 DUP8 ISZERO PUSH2 0x3D5 JUMPI PUSH1 0x0 SWAP8 PUSH2 0x100E JUMPI JUMPDEST POP PUSH1 0xC DUP6 ADD SWAP7 PUSH1 0xFF NOT SWAP7 PUSH1 0x4 DUP9 DUP11 SLOAD AND OR DUP10 SSTORE DUP5 SLOAD SWAP1 PUSH1 0x40 MLOAD SWAP2 PUSH2 0x100 DUP4 ADD SWAP4 DUP4 DUP6 LT PUSH1 0x1 PUSH1 0x1 PUSH1 0x40 SHL SUB DUP7 GT OR PUSH2 0xBBD JUMPI PUSH1 0x5 SWAP9 PUSH1 0x7 SWAP6 PUSH1 0x40 MSTORE DUP8 DUP6 MSTORE DUP4 DUP6 ADD DUP4 DUP2 MSTORE PUSH1 0x40 DUP7 ADD SWAP1 TIMESTAMP DUP3 MSTORE PUSH1 0x60 DUP8 ADD SWAP3 DUP4 MSTORE PUSH1 0x80 DUP8 ADD SWAP4 DUP5 MSTORE PUSH1 0xA0 DUP8 ADD SWAP5 PUSH1 0x0 DUP7 MSTORE PUSH1 0xC0 DUP9 ADD SWAP7 PUSH1 0x0 DUP9 MSTORE PUSH1 0xE0 DUP10 ADD SWAP12 PUSH1 0x0 DUP14 MSTORE PUSH1 0x0 MSTORE PUSH1 0x11 DUP2 MSTORE PUSH1 0x40 PUSH1 0x0 KECCAK256 SWAP2 PUSH1 0x0 MSTORE MSTORE PUSH1 0x40 PUSH1 0x0 KECCAK256 SWAP7 MLOAD DUP8 SSTORE MLOAD PUSH1 0x1 DUP8 ADD SSTORE MLOAD PUSH1 0x2 DUP7 ADD SSTORE MLOAD PUSH1 0x3 DUP6 ADD SSTORE MLOAD PUSH1 0x4 DUP5 ADD SSTORE MLOAD DUP8 DUP4 ADD SSTORE MLOAD PUSH1 0x6 DUP3 ADD SSTORE ADD SWAP2 MLOAD AND PUSH1 0x1 PUSH1 0x1 PUSH1 0x60 SHL SUB PUSH1 0xA0 SHL DUP3 SLOAD AND OR SWAP1 SSTORE SLOAD SWAP2 ADD SLOAD LT PUSH2 0x1004 JUMPI STOP JUMPDEST DUP2 SLOAD AND PUSH1 0x2 OR SWAP1 SSTORE STOP JUMPDEST SWAP1 SWAP7 POP DUP6 DUP2 DUP2 RETURNDATASIZE DUP4 GT PUSH2 0x1036 JUMPI JUMPDEST PUSH2 0x1026 DUP2 DUP4 PUSH2 0x2B0A JUMP JUMPDEST DUP2 ADD SUB SLT PUSH2 0x1A2 JUMPI MLOAD SWAP6 DUP8 PUSH2 0xF32 JUMP JUMPDEST POP RETURNDATASIZE PUSH2 0x101C JUMP JUMPDEST SWAP7 SWAP4 POP DUP6 DUP8 DUP2 RETURNDATASIZE DUP4 GT PUSH2 0x1067 JUMPI JUMPDEST PUSH2 0x1055 DUP2 DUP4 PUSH2 0x2B0A JUMP JUMPDEST DUP2 ADD SUB SLT PUSH2 0x1A2 JUMPI SWAP6 MLOAD SWAP3 SWAP6 DUP6 PUSH2 0xEEC JUMP JUMPDEST POP RETURNDATASIZE PUSH2 0x104B JUMP JUMPDEST PUSH1 0x40 MLOAD PUSH3 0x461BCD PUSH1 0xE5 SHL DUP2 MSTORE PUSH1 0x4 DUP2 ADD DUP9 SWAP1 MSTORE PUSH1 0x13 PUSH1 0x24 DUP3 ADD MSTORE PUSH19 0x49736E2774207468652074696D652079657421 PUSH1 0x68 SHL PUSH1 0x44 DUP3 ADD MSTORE PUSH1 0x64 SWAP1 REVERT JUMPDEST SWAP1 POP DUP8 DUP2 DUP2 RETURNDATASIZE DUP4 GT PUSH2 0x10CF JUMPI JUMPDEST PUSH2 0x10C0 DUP2 DUP4 PUSH2 0x2B0A JUMP JUMPDEST DUP2 ADD SUB SLT PUSH2 0x1A2 JUMPI MLOAD DUP10 PUSH2 0xEB3 JUMP JUMPDEST POP RETURNDATASIZE PUSH2 0x10B6 JUMP JUMPDEST CALLVALUE PUSH2 0x1A2 JUMPI PUSH2 0x10E4 CALLDATASIZE PUSH2 0x29F6 JUMP JUMPDEST SWAP1 DUP1 PUSH1 0x0 MSTORE PUSH1 0x20 PUSH1 0x10 DUP2 MSTORE PUSH1 0x40 PUSH1 0x0 KECCAK256 DUP4 PUSH1 0x0 MSTORE DUP2 MSTORE PUSH1 0x40 PUSH1 0x0 KECCAK256 PUSH1 0x7 DUP2 ADD DUP1 SLOAD PUSH2 0x1110 DUP2 ISZERO ISZERO PUSH2 0x3BFF JUMP JUMPDEST PUSH1 0x5 DUP4 ADD SLOAD PUSH1 0x1 PUSH1 0x1 PUSH1 0xA0 SHL SUB SWAP4 SWAP1 DUP5 AND CALLER SUB PUSH2 0x126E JUMPI PUSH1 0x40 DUP1 MLOAD DUP1 DUP8 ADD DUP9 DUP2 MSTORE PUSH1 0x20 DUP2 ADD DUP11 SWAP1 MSTORE SWAP2 DUP3 ADD DUP5 SWAP1 MSTORE PUSH2 0x11E9 SWAP4 DUP8 SWAP4 SWAP1 SWAP3 PUSH1 0xB SWAP3 PUSH2 0x1160 DUP2 PUSH1 0x60 DUP5 ADD JUMPDEST SUB PUSH1 0x1F NOT DUP2 ADD DUP4 MSTORE DUP3 PUSH2 0x2B0A JUMP JUMPDEST MLOAD SWAP1 KECCAK256 SWAP3 PUSH1 0x2 PUSH1 0x40 MLOAD SWAP2 PUSH2 0x1173 DUP4 PUSH2 0x2AD4 JUMP JUMPDEST DUP12 DUP4 MSTORE DUP7 DUP4 ADD DUP14 DUP2 MSTORE PUSH1 0x40 DUP5 ADD SWAP2 DUP3 MSTORE DUP7 PUSH1 0x0 MSTORE PUSH1 0x13 DUP9 MSTORE PUSH1 0x40 PUSH1 0x0 KECCAK256 SWAP4 MLOAD DUP5 SSTORE MLOAD PUSH1 0x1 DUP5 ADD SSTORE MLOAD SWAP2 ADD SSTORE ADD SLOAD PUSH1 0x40 MLOAD SWAP2 DUP4 DUP4 ADD MSTORE PUSH1 0x40 DUP3 ADD MSTORE PUSH1 0x1 PUSH1 0x60 DUP3 ADD MSTORE PUSH1 0x60 DUP2 MSTORE PUSH2 0x11C1 DUP2 PUSH2 0x2AEF JUMP JUMPDEST DUP5 PUSH1 0xE SLOAD AND DUP6 PUSH1 0x7 SLOAD AND PUSH1 0x0 PUSH1 0x40 MLOAD DUP1 SWAP7 DUP2 SWAP6 DUP3 SWAP5 PUSH4 0xA30E377 PUSH1 0xE4 SHL DUP5 MSTORE PUSH1 0x4 DUP5 ADD PUSH2 0x3CA3 JUMP JUMPDEST SUB SWAP3 GAS CALL DUP1 ISZERO PUSH2 0x3D5 JUMPI PUSH2 0x123D JUMPI JUMPDEST PUSH32 0x28C64511BAD94645265B4AC8C503DD3B588CA95F2BFB17598135C3E6CDC4BE82 PUSH1 0x80 DUP7 DUP7 DUP7 DUP11 DUP8 SLOAD SWAP2 PUSH1 0x7 SLOAD AND SWAP3 PUSH1 0x40 MLOAD SWAP5 DUP6 MSTORE DUP5 ADD MSTORE PUSH1 0x40 DUP4 ADD MSTORE PUSH1 0x60 DUP3 ADD MSTORE LOG1 STOP JUMPDEST SWAP3 DUP1 SWAP3 SWAP2 SWAP5 SWAP4 DUP2 RETURNDATASIZE DUP4 GT PUSH2 0x1267 JUMPI JUMPDEST PUSH2 0x1256 DUP2 DUP4 PUSH2 0x2B0A JUMP JUMPDEST DUP2 ADD SUB SLT PUSH2 0x1A2 JUMPI SWAP1 SWAP2 SWAP3 DUP6 PUSH2 0x11F8 JUMP JUMPDEST POP RETURNDATASIZE PUSH2 0x124C JUMP JUMPDEST PUSH1 0x40 MLOAD PUSH3 0x461BCD PUSH1 0xE5 SHL DUP2 MSTORE PUSH1 0x4 DUP2 ADD DUP7 SWAP1 MSTORE PUSH1 0x2D PUSH1 0x24 DUP3 ADD MSTORE PUSH32 0x4F6E6C792074686520647261772077696E6E65722063616E2063726561746520 PUSH1 0x44 DUP3 ADD MSTORE PUSH13 0x61207065726D697373696F6E21 PUSH1 0x98 SHL PUSH1 0x64 DUP3 ADD MSTORE PUSH1 0x84 SWAP1 REVERT JUMPDEST CALLVALUE PUSH2 0x1A2 JUMPI PUSH1 0x20 CALLDATASIZE PUSH1 0x3 NOT ADD SLT PUSH2 0x1A2 JUMPI PUSH1 0x4 CALLDATALOAD PUSH1 0x0 MSTORE PUSH1 0xF PUSH1 0x20 MSTORE PUSH2 0x1A0 PUSH1 0x40 PUSH1 0x0 KECCAK256 DUP1 SLOAD SWAP1 PUSH1 0x1 DUP2 ADD SLOAD SWAP1 PUSH1 0x2 DUP2 ADD SLOAD PUSH1 0x3 DUP3 ADD SLOAD PUSH1 0x4 DUP4 ADD SLOAD PUSH1 0x5 DUP5 ADD SLOAD PUSH1 0x6 DUP6 ADD SLOAD PUSH1 0x7 DUP7 ADD SLOAD SWAP2 PUSH1 0x8 DUP8 ADD SLOAD SWAP4 PUSH1 0x9 DUP9 ADD SLOAD SWAP6 PUSH1 0xA DUP10 ADD SLOAD SWAP8 PUSH1 0xFF PUSH1 0xC PUSH1 0xB DUP13 ADD SLOAD SWAP12 ADD SLOAD AND SWAP11 PUSH1 0x40 MLOAD SWAP13 DUP14 MSTORE PUSH1 0x20 DUP14 ADD MSTORE PUSH1 0x40 DUP13 ADD MSTORE PUSH1 0x60 DUP12 ADD MSTORE PUSH1 0x80 DUP11 ADD MSTORE PUSH1 0xA0 DUP10 ADD MSTORE PUSH1 0xC0 DUP9 ADD MSTORE PUSH1 0xE0 DUP8 ADD MSTORE PUSH2 0x100 DUP7 ADD MSTORE PUSH2 0x120 DUP6 ADD MSTORE PUSH2 0x140 DUP5 ADD MSTORE PUSH2 0x160 DUP4 ADD MSTORE PUSH2 0x137F DUP2 PUSH2 0x2A88 JUMP JUMPDEST PUSH2 0x180 DUP3 ADD MSTORE RETURN JUMPDEST CALLVALUE PUSH2 0x1A2 JUMPI PUSH1 0x3 NOT PUSH1 0x20 CALLDATASIZE DUP3 ADD DUP2 SGT PUSH2 0x1A2 JUMPI PUSH1 0x4 CALLDATALOAD SWAP2 PUSH1 0x1 PUSH1 0x1 PUSH1 0x40 SHL SUB SWAP1 DUP2 DUP5 GT PUSH2 0x1A2 JUMPI PUSH1 0xA0 SWAP1 DUP5 CALLDATASIZE SUB ADD SLT PUSH2 0x1A2 JUMPI PUSH1 0x1 PUSH1 0x1 PUSH1 0xA0 SHL SUB PUSH32 0x0 DUP2 AND CALLER SUB PUSH2 0x17EB JUMPI PUSH1 0x40 MLOAD SWAP4 PUSH1 0xA0 DUP6 ADD DUP6 DUP2 LT DUP5 DUP3 GT OR PUSH2 0xBBD JUMPI PUSH1 0x40 MSTORE DUP1 PUSH1 0x4 ADD CALLDATALOAD DUP6 MSTORE PUSH1 0x24 SWAP4 DUP5 DUP3 ADD CALLDATALOAD SWAP5 DUP5 DUP7 AND DUP7 SUB PUSH2 0x1A2 JUMPI DUP2 DUP8 ADD SWAP6 DUP7 MSTORE PUSH1 0x44 DUP4 ADD CALLDATALOAD DUP6 DUP2 GT PUSH2 0x1A2 JUMPI PUSH2 0x143B SWAP1 PUSH1 0x4 CALLDATASIZE SWAP2 DUP7 ADD ADD PUSH2 0x2B46 JUMP JUMPDEST SWAP7 PUSH1 0x40 DUP2 ADD SWAP8 DUP9 MSTORE PUSH1 0x64 DUP5 ADD CALLDATALOAD DUP7 DUP2 GT PUSH2 0x1A2 JUMPI PUSH2 0x145F SWAP1 PUSH1 0x4 CALLDATASIZE SWAP2 DUP8 ADD ADD PUSH2 0x2B46 JUMP JUMPDEST SWAP4 PUSH1 0x60 DUP3 ADD SWAP5 DUP6 MSTORE PUSH1 0x84 DUP2 ADD CALLDATALOAD SWAP1 DUP8 DUP3 GT PUSH2 0x1A2 JUMPI ADD CALLDATASIZE PUSH1 0x23 DUP3 ADD SLT ISZERO PUSH2 0x1A2 JUMPI PUSH1 0x4 DUP2 ADD CALLDATALOAD SWAP1 PUSH2 0x148F DUP3 PUSH2 0x2B8D JUMP JUMPDEST SWAP2 PUSH2 0x149D PUSH1 0x40 MLOAD SWAP4 DUP5 PUSH2 0x2B0A JUMP JUMPDEST DUP1 DUP4 MSTORE DUP5 DUP7 DUP5 ADD SWAP2 PUSH1 0x6 SHL DUP4 ADD ADD SWAP2 CALLDATASIZE DUP4 GT PUSH2 0x1A2 JUMPI DUP6 ADD SWAP1 JUMPDEST DUP3 DUP3 LT PUSH2 0x1790 JUMPI POP POP POP PUSH1 0x80 DUP3 ADD MSTORE DUP1 MLOAD PUSH1 0x0 SSTORE DUP4 MLOAD DUP1 MLOAD DUP2 ADD SWAP1 DUP5 DUP2 DUP2 DUP5 ADD SWAP4 SUB SLT PUSH2 0x1A2 JUMPI DUP5 DUP2 ADD MLOAD SWAP1 DUP9 DUP3 GT PUSH2 0x1A2 JUMPI ADD SWAP1 DUP1 PUSH1 0x3F DUP4 ADD SLT ISZERO PUSH2 0x1A2 JUMPI DUP5 DUP3 ADD MLOAD PUSH2 0x1507 SWAP3 PUSH1 0x40 ADD PUSH2 0x33C9 JUMP JUMPDEST SWAP2 DUP3 MLOAD SWAP1 DUP8 DUP3 GT PUSH2 0x177C JUMPI POP DUP1 PUSH1 0x1 SWAP4 PUSH2 0x1521 DUP6 SLOAD PUSH2 0x3FF1 JUMP JUMPDEST PUSH1 0x1F DUP2 GT PUSH2 0x170C JUMPI JUMPDEST POP DUP6 SWAP1 PUSH1 0x1F DUP4 GT PUSH1 0x1 EQ PUSH2 0x168C JUMPI PUSH1 0x0 SWAP3 PUSH2 0x1681 JUMPI JUMPDEST POP POP PUSH1 0x0 NOT PUSH1 0x3 DUP4 SWAP1 SHL SHR NOT AND SWAP1 DUP4 SHL OR DUP3 SSTORE JUMPDEST PUSH2 0x155C PUSH2 0x402B JUMP JUMPDEST PUSH1 0x60 DUP2 DUP1 MLOAD DUP2 ADD SUB SLT PUSH2 0x1A2 JUMPI DUP1 DUP5 ADD MLOAD DUP8 SWAP4 DUP8 PUSH1 0x60 PUSH2 0x157E PUSH1 0x40 DUP7 ADD PUSH2 0x40E4 JUMP JUMPDEST SWAP5 ADD MLOAD SWAP4 AND SWAP2 PUSH1 0x0 MSTORE PUSH1 0x13 DUP7 MSTORE PUSH1 0x40 PUSH1 0x0 KECCAK256 SWAP1 DUP2 SLOAD PUSH1 0x0 MSTORE PUSH1 0x10 DUP8 MSTORE PUSH1 0x40 PUSH1 0x0 KECCAK256 SWAP2 ADD SLOAD PUSH1 0x0 MSTORE DUP6 MSTORE PUSH1 0x40 PUSH1 0x0 KECCAK256 SWAP2 DUP1 PUSH1 0x8 DUP5 ADD SSTORE PUSH1 0xA DUP4 ADD DUP3 PUSH1 0x1 PUSH1 0x1 PUSH1 0x60 SHL SUB PUSH1 0xA0 SHL DUP3 SLOAD AND OR SWAP1 SSTORE ISZERO ISZERO SWAP1 DUP2 PUSH2 0x1677 JUMPI JUMPDEST POP PUSH2 0x1663 JUMPI JUMPDEST POP MLOAD SWAP6 MLOAD AND SWAP6 MLOAD DUP2 DUP2 DUP1 MLOAD DUP2 ADD SUB SLT PUSH2 0x1A2 JUMPI DUP2 PUSH2 0x15F6 SWAP2 ADD PUSH2 0x40E4 JUMP JUMPDEST SWAP2 MLOAD SWAP1 DUP2 MLOAD DUP3 ADD DUP2 DUP4 DUP3 SUB SLT PUSH2 0x1A2 JUMPI DUP2 DUP4 ADD MLOAD SWAP6 DUP7 GT PUSH2 0x1A2 JUMPI PUSH2 0x1648 PUSH2 0x165E SWAP4 DUP4 PUSH32 0xB1E312A29937CC11967B0E4A346FEF1AE132424EBABA9DC6D90249DBA053E87C SWAP9 DUP2 PUSH1 0x40 SWAP6 ADD SWAP3 ADD ADD PUSH2 0x3400 JUMP JUMPDEST SWAP2 DUP2 MLOAD SWAP6 DUP7 SWAP6 AND DUP6 MSTORE DUP5 ADD MSTORE PUSH1 0x40 DUP4 ADD SWAP1 PUSH2 0x2A2F JUMP JUMPDEST SUB SWAP1 LOG3 STOP JUMPDEST PUSH1 0xC ADD DUP1 SLOAD PUSH1 0xFF NOT AND PUSH1 0x3 OR SWAP1 SSTORE DUP9 PUSH2 0x15D8 JUMP JUMPDEST SWAP1 POP ISZERO ISZERO DUP11 PUSH2 0x15D2 JUMP JUMPDEST ADD MLOAD SWAP1 POP DUP11 DUP1 PUSH2 0x1540 JUMP JUMPDEST SWAP1 DUP6 SWAP4 POP PUSH1 0x1F NOT DUP4 AND SWAP2 DUP5 PUSH1 0x0 MSTORE PUSH32 0xB10E2D527612073B26EECDFD717E6A320CF44B4AFAC2B0732D9FCBE2B7FA0CF6 SWAP3 PUSH1 0x0 JUMPDEST DUP10 DUP3 DUP3 LT PUSH2 0x16F6 JUMPI POP POP DUP5 GT PUSH2 0x16DD JUMPI JUMPDEST POP POP POP DUP2 SHL ADD DUP3 SSTORE PUSH2 0x1554 JUMP JUMPDEST ADD MLOAD PUSH1 0x0 NOT PUSH1 0xF8 DUP5 PUSH1 0x3 SHL AND SHR NOT AND SWAP1 SSTORE DUP11 DUP1 DUP1 PUSH2 0x16D0 JUMP JUMPDEST DUP4 DUP6 ADD MLOAD DUP7 SSTORE DUP10 SWAP8 SWAP1 SWAP6 ADD SWAP5 SWAP4 DUP5 ADD SWAP4 ADD PUSH2 0x16BF JUMP JUMPDEST SWAP1 SWAP2 POP DUP5 PUSH1 0x0 MSTORE PUSH32 0xB10E2D527612073B26EECDFD717E6A320CF44B4AFAC2B0732D9FCBE2B7FA0CF6 PUSH1 0x1F DUP5 ADD PUSH1 0x5 SHR DUP2 ADD SWAP2 DUP8 DUP6 LT PUSH2 0x1772 JUMPI JUMPDEST DUP5 SWAP4 SWAP3 SWAP2 PUSH1 0x1F DUP9 SWAP3 ADD PUSH1 0x5 SHR ADD SWAP2 JUMPDEST DUP3 DUP2 LT PUSH2 0x1763 JUMPI POP POP PUSH2 0x152A JUMP JUMPDEST PUSH1 0x0 DUP2 SSTORE DUP6 SWAP5 POP DUP8 SWAP2 ADD PUSH2 0x1755 JUMP JUMPDEST SWAP1 SWAP2 POP DUP2 SWAP1 PUSH2 0x1746 JUMP JUMPDEST PUSH4 0x4E487B71 PUSH1 0xE0 SHL PUSH1 0x0 SWAP1 DUP2 MSTORE PUSH1 0x41 PUSH1 0x4 MSTORE REVERT JUMPDEST PUSH1 0x40 DUP3 CALLDATASIZE SUB SLT PUSH2 0x1A2 JUMPI PUSH1 0x40 MLOAD SWAP1 PUSH1 0x40 DUP3 ADD DUP3 DUP2 LT DUP13 DUP3 GT OR PUSH2 0x17D6 JUMPI PUSH1 0x40 MSTORE DUP3 CALLDATALOAD SWAP1 DUP11 DUP3 AND DUP3 SUB PUSH2 0x1A2 JUMPI DUP3 DUP10 SWAP3 PUSH1 0x40 SWAP5 MSTORE DUP3 DUP6 ADD CALLDATALOAD DUP4 DUP3 ADD MSTORE DUP2 MSTORE ADD SWAP2 ADD SWAP1 PUSH2 0x14B7 JUMP JUMPDEST DUP8 PUSH4 0x4E487B71 PUSH1 0xE0 SHL PUSH1 0x0 MSTORE PUSH1 0x41 PUSH1 0x4 MSTORE PUSH1 0x0 REVERT JUMPDEST PUSH1 0x40 MLOAD PUSH4 0x35FDCCCD PUSH1 0xE2 SHL DUP2 MSTORE CALLER PUSH1 0x4 DUP3 ADD MSTORE PUSH1 0x24 SWAP1 REVERT JUMPDEST CALLVALUE PUSH2 0x1A2 JUMPI PUSH1 0x20 CALLDATASIZE PUSH1 0x3 NOT ADD SLT PUSH2 0x1A2 JUMPI PUSH1 0x1 PUSH1 0x1 PUSH1 0x40 SHL SUB PUSH2 0x1824 PUSH2 0x2ABE JUMP JUMPDEST AND PUSH1 0x0 MSTORE PUSH1 0x2 PUSH1 0x20 MSTORE PUSH1 0x20 PUSH1 0xFF PUSH1 0x40 PUSH1 0x0 KECCAK256 SLOAD AND PUSH1 0x40 MLOAD SWAP1 ISZERO ISZERO DUP2 MSTORE RETURN JUMPDEST CALLVALUE PUSH2 0x1A2 JUMPI PUSH1 0x20 CALLDATASIZE PUSH1 0x3 NOT ADD SLT PUSH2 0x1A2 JUMPI PUSH1 0x1 PUSH1 0x1 PUSH1 0xA0 SHL SUB PUSH2 0x1863 PUSH2 0x2A54 JUMP JUMPDEST AND PUSH1 0x1 PUSH1 0x1 PUSH1 0x60 SHL SUB PUSH1 0xA0 SHL PUSH1 0x7 SLOAD AND OR PUSH1 0x7 SSTORE PUSH1 0x0 DUP1 RETURN JUMPDEST CALLVALUE PUSH2 0x1A2 JUMPI PUSH2 0x188A CALLDATASIZE PUSH2 0x2A6A JUMP JUMPDEST SWAP3 DUP1 ISZERO PUSH2 0x1BCE JUMPI DUP1 DUP4 GT ISZERO PUSH2 0x1B72 JUMPI DUP2 ISZERO PUSH2 0x1B1A JUMPI PUSH2 0x18F2 SWAP2 PUSH1 0x20 DUP5 PUSH2 0x18B1 PUSH1 0x4 SLOAD PUSH2 0x2BA4 JUMP JUMPDEST DUP1 PUSH1 0x4 SSTORE DUP4 PUSH1 0x0 PUSH1 0x1 DUP1 PUSH1 0xA0 SHL SUB PUSH1 0xB SLOAD AND SWAP3 PUSH1 0x40 MLOAD SWAP9 DUP10 SWAP6 DUP7 SWAP5 DUP6 SWAP4 PUSH4 0xA529759 PUSH1 0xE3 SHL DUP6 MSTORE PUSH1 0x4 DUP6 ADD PUSH1 0x40 SWAP2 SWAP5 SWAP4 SWAP3 PUSH1 0x60 DUP3 ADD SWAP6 DUP3 MSTORE PUSH1 0x20 DUP3 ADD MSTORE ADD MSTORE JUMP JUMPDEST SUB SWAP3 GAS CALL SWAP3 DUP4 ISZERO PUSH2 0x3D5 JUMPI PUSH1 0x0 SWAP4 PUSH2 0x1AE6 JUMPI JUMPDEST POP PUSH8 0xDE0B6B3A7640000 SWAP5 DUP6 DUP2 MUL SWAP6 DUP2 DUP8 DIV EQ SWAP1 ISZERO OR ISZERO PUSH2 0x1AD0 JUMPI PUSH2 0x192A DUP2 DUP7 PUSH2 0x2BC6 JUMP JUMPDEST SWAP1 PUSH2 0x1935 DUP2 DUP8 PUSH2 0x2BC6 JUMP JUMPDEST PUSH1 0x5 DUP2 MUL SWAP1 DUP1 DUP3 DIV PUSH1 0x5 EQ SWAP1 ISZERO OR ISZERO PUSH2 0x1AD0 JUMPI PUSH1 0x40 MLOAD SWAP3 PUSH2 0x1A0 DUP5 ADD SWAP3 DUP5 DUP5 LT PUSH1 0x1 PUSH1 0x1 PUSH1 0x40 SHL SUB DUP6 GT OR PUSH2 0xBBD JUMPI PUSH32 0x89C4C2329EFCD15ED5EC8CC7DD2E4C2103EDD8B1D7E9E17E76DA38D7B83ADE67 SWAP9 PUSH1 0x80 SWAP9 PUSH2 0x1A80 SWAP8 PUSH1 0x64 SWAP7 PUSH1 0x40 MSTORE DUP8 MSTORE PUSH1 0x20 DUP8 ADD MSTORE DUP8 PUSH1 0x40 DUP8 ADD MSTORE PUSH1 0x1 PUSH1 0x60 DUP8 ADD MSTORE DUP9 DUP7 ADD MSTORE PUSH1 0xA0 DUP6 ADD MSTORE PUSH1 0xC0 DUP5 ADD MSTORE DIV PUSH1 0xE0 DUP3 ADD MSTORE PUSH1 0x0 PUSH2 0x100 DUP3 ADD MSTORE PUSH1 0x0 PUSH2 0x120 DUP3 ADD MSTORE PUSH1 0x0 PUSH2 0x140 DUP3 ADD MSTORE PUSH1 0x0 PUSH2 0x160 DUP3 ADD MSTORE PUSH1 0x4 PUSH2 0x180 DUP3 ADD MSTORE PUSH1 0x4 SLOAD PUSH1 0x0 MSTORE PUSH1 0xF PUSH1 0x20 MSTORE PUSH1 0xC PUSH2 0x180 PUSH1 0x40 PUSH1 0x0 KECCAK256 SWAP3 DUP1 MLOAD DUP5 SSTORE PUSH1 0x20 DUP2 ADD MLOAD PUSH1 0x1 DUP6 ADD SSTORE PUSH1 0x40 DUP2 ADD MLOAD PUSH1 0x2 DUP6 ADD SSTORE PUSH1 0x60 DUP2 ADD MLOAD PUSH1 0x3 DUP6 ADD SSTORE DUP7 DUP2 ADD MLOAD PUSH1 0x4 DUP6 ADD SSTORE PUSH1 0xA0 DUP2 ADD MLOAD PUSH1 0x5 DUP6 ADD SSTORE PUSH1 0xC0 DUP2 ADD MLOAD PUSH1 0x6 DUP6 ADD SSTORE PUSH1 0xE0 DUP2 ADD MLOAD PUSH1 0x7 DUP6 ADD SSTORE PUSH2 0x100 DUP2 ADD MLOAD PUSH1 0x8 DUP6 ADD SSTORE PUSH2 0x120 DUP2 ADD MLOAD PUSH1 0x9 DUP6 ADD SSTORE PUSH2 0x140 DUP2 ADD MLOAD PUSH1 0xA DUP6 ADD SSTORE PUSH2 0x160 DUP2 ADD MLOAD PUSH1 0xB DUP6 ADD SSTORE ADD MLOAD SWAP2 PUSH2 0x1A7A DUP4 PUSH2 0x2A88 JUMP JUMPDEST ADD PUSH2 0x2BE6 JUMP JUMPDEST PUSH1 0x4 SLOAD SWAP1 DUP2 PUSH1 0x0 MSTORE PUSH1 0xF PUSH1 0x20 MSTORE PUSH2 0x1AA5 PUSH1 0x40 PUSH1 0x0 KECCAK256 PUSH1 0x7 PUSH1 0x6 DUP3 ADD SLOAD SWAP2 ADD SLOAD SWAP1 PUSH2 0x2BFE JUMP JUMPDEST DUP3 PUSH1 0x0 MSTORE PUSH1 0xF PUSH1 0x20 MSTORE PUSH1 0x4 PUSH1 0x40 PUSH1 0x0 KECCAK256 ADD SLOAD SWAP2 PUSH1 0x40 MLOAD SWAP4 DUP5 MSTORE PUSH1 0x20 DUP5 ADD MSTORE PUSH1 0x40 DUP4 ADD MSTORE PUSH1 0x60 DUP3 ADD MSTORE LOG1 STOP JUMPDEST PUSH4 0x4E487B71 PUSH1 0xE0 SHL PUSH1 0x0 MSTORE PUSH1 0x11 PUSH1 0x4 MSTORE PUSH1 0x24 PUSH1 0x0 REVERT JUMPDEST SWAP1 SWAP3 POP PUSH1 0x20 DUP2 RETURNDATASIZE PUSH1 0x20 GT PUSH2 0x1B12 JUMPI JUMPDEST DUP2 PUSH2 0x1B02 PUSH1 0x20 SWAP4 DUP4 PUSH2 0x2B0A JUMP JUMPDEST DUP2 ADD SUB SLT PUSH2 0x1A2 JUMPI MLOAD SWAP2 DUP6 PUSH2 0x1905 JUMP JUMPDEST RETURNDATASIZE SWAP2 POP PUSH2 0x1AF5 JUMP JUMPDEST PUSH1 0x40 MLOAD PUSH3 0x461BCD PUSH1 0xE5 SHL DUP2 MSTORE PUSH1 0x20 PUSH1 0x4 DUP3 ADD MSTORE PUSH1 0x2A PUSH1 0x24 DUP3 ADD MSTORE PUSH32 0x4D7573742073657420746865206E756D626572206F6620746F74616C20706172 PUSH1 0x44 DUP3 ADD MSTORE PUSH10 0x7469636970616E747321 PUSH1 0xB0 SHL PUSH1 0x64 DUP3 ADD MSTORE PUSH1 0x84 SWAP1 REVERT JUMPDEST PUSH1 0x40 MLOAD PUSH3 0x461BCD PUSH1 0xE5 SHL DUP2 MSTORE PUSH1 0x20 PUSH1 0x4 DUP3 ADD MSTORE PUSH1 0x2E PUSH1 0x24 DUP3 ADD MSTORE PUSH32 0x4D7573742053656C6563742061206461746520746F2073746F7020746F207365 PUSH1 0x44 DUP3 ADD MSTORE PUSH14 0x6C6C20746865207469746C657321 PUSH1 0x90 SHL PUSH1 0x64 DUP3 ADD MSTORE PUSH1 0x84 SWAP1 REVERT JUMPDEST PUSH1 0x40 MLOAD PUSH3 0x461BCD PUSH1 0xE5 SHL DUP2 MSTORE PUSH1 0x20 PUSH1 0x4 DUP3 ADD MSTORE PUSH1 0x2F PUSH1 0x24 DUP3 ADD MSTORE PUSH32 0x4D7573742053656C6563742061206461746520746F20737461727420746F2073 PUSH1 0x44 DUP3 ADD MSTORE PUSH15 0x656C6C20746865207469746C657321 PUSH1 0x88 SHL PUSH1 0x64 DUP3 ADD MSTORE PUSH1 0x84 SWAP1 REVERT JUMPDEST CALLVALUE PUSH2 0x1A2 JUMPI PUSH2 0x243 PUSH2 0x1C3C CALLDATASIZE PUSH2 0x29F6 JUMP JUMPDEST SWAP1 PUSH2 0x3CD3 JUMP JUMPDEST CALLVALUE PUSH2 0x1A2 JUMPI PUSH1 0x60 CALLDATASIZE PUSH1 0x3 NOT ADD SLT PUSH2 0x1A2 JUMPI PUSH1 0x4 CALLDATALOAD PUSH2 0x1C5E PUSH2 0x2AA8 JUMP JUMPDEST DUP2 PUSH1 0x0 MSTORE PUSH1 0x20 SWAP1 PUSH1 0xF DUP3 MSTORE PUSH1 0x40 PUSH1 0x0 KECCAK256 SWAP1 PUSH1 0x10 DUP4 MSTORE PUSH1 0x40 PUSH1 0x0 KECCAK256 PUSH1 0x24 CALLDATALOAD PUSH1 0x0 MSTORE DUP4 MSTORE PUSH1 0x40 PUSH1 0x0 KECCAK256 SWAP4 PUSH1 0x5 DUP6 ADD SWAP4 PUSH1 0x1 DUP1 PUSH1 0xA0 SHL SUB SWAP3 DUP4 DUP7 SLOAD AND CALLER EQ DUP1 ISZERO PUSH2 0x2052 JUMPI JUMPDEST ISZERO PUSH2 0x1FE7 JUMPI DUP4 AND SWAP5 PUSH2 0x1CB3 DUP7 ISZERO ISZERO PUSH2 0x3F65 JUMP JUMPDEST PUSH1 0xC DUP8 ADD SWAP4 PUSH1 0xFF DUP6 SLOAD AND PUSH2 0x1CC6 DUP2 PUSH2 0x2A88 JUMP JUMPDEST PUSH1 0x3 DUP2 SUB PUSH2 0x1F89 JUMPI PUSH1 0x6 DUP10 ADD SLOAD SWAP1 PUSH1 0x2 DUP11 ADD SLOAD DUP3 EQ DUP1 ISZERO PUSH2 0x1F7C JUMPI JUMPDEST DUP1 ISZERO PUSH2 0x1F5F JUMPI JUMPDEST ISZERO PUSH2 0x1EF1 JUMPI POP POP PUSH1 0x0 DUP1 DUP3 PUSH1 0xB SLOAD AND PUSH1 0x24 PUSH1 0x40 MLOAD DUP1 SWAP5 DUP2 SWAP4 PUSH4 0x8C83DDD3 PUSH1 0xE0 SHL DUP4 MSTORE DUP14 PUSH1 0x4 DUP5 ADD MSTORE GAS CALL SWAP1 DUP2 ISZERO PUSH2 0x3D5 JUMPI PUSH2 0x1D32 SWAP2 PUSH1 0x1 SWAP2 PUSH1 0x0 SWAP2 PUSH2 0x1ECB JUMPI JUMPDEST POP ISZERO ISZERO EQ PUSH2 0x3473 JUMP JUMPDEST PUSH1 0x9 DUP1 SLOAD PUSH1 0x1 PUSH1 0x1 PUSH1 0xA0 SHL SUB NOT AND DUP9 OR SWAP1 SSTORE PUSH1 0x40 MLOAD PUSH4 0x70A08231 PUSH1 0xE0 SHL DUP2 MSTORE ADDRESS PUSH1 0x4 DUP3 ADD MSTORE DUP4 DUP2 PUSH1 0x24 DUP2 DUP12 GAS STATICCALL SWAP1 DUP2 ISZERO PUSH2 0x3D5 JUMPI PUSH1 0x0 SWAP2 PUSH2 0x1E9E JUMPI JUMPDEST POP PUSH1 0x1 DUP10 ADD SWAP8 DUP9 SLOAD DUP1 SWAP3 LT PUSH2 0x1A2 JUMPI DUP4 SLOAD PUSH1 0x40 MLOAD PUSH4 0xA9059CBB PUSH1 0xE0 SHL DUP2 MSTORE SWAP1 DUP5 AND PUSH1 0x1 PUSH1 0x1 PUSH1 0xA0 SHL SUB AND PUSH1 0x4 DUP3 ADD MSTORE PUSH1 0x24 DUP2 ADD SWAP3 SWAP1 SWAP3 MSTORE DUP5 SWAP1 DUP3 SWAP1 DUP2 PUSH1 0x0 DUP2 PUSH1 0x44 DUP2 ADD SUB SWAP3 GAS CALL DUP1 ISZERO PUSH2 0x3D5 JUMPI PUSH2 0x1E30 JUMPI JUMPDEST POP SWAP3 PUSH32 0xA15C2435FADA31FA58C0EB6A516D9B0DF54ED70F48F3680BA2B527955C5797C1 SWAP3 PUSH2 0x1E2C SWAP8 PUSH1 0x80 SWAP4 PUSH1 0xA SWAP9 SWAP8 SWAP7 PUSH1 0x7 DUP13 ADD SLOAD SWAP2 SLOAD AND SWAP2 SLOAD SWAP3 PUSH1 0x40 MLOAD SWAP5 DUP6 MSTORE DUP5 ADD MSTORE PUSH1 0x40 DUP4 ADD MSTORE PUSH1 0x60 DUP3 ADD MSTORE LOG1 JUMPDEST PUSH2 0x100 PUSH2 0xFF00 NOT DUP3 SLOAD AND OR SWAP1 SSTORE ADD SWAP2 PUSH1 0x1 DUP4 SLOAD SWAP2 ADD SLOAD SWAP1 PUSH2 0x2BFE JUMP JUMPDEST SWAP1 SSTORE STOP JUMPDEST SWAP2 SWAP6 SWAP5 SWAP4 SWAP1 SWAP3 DUP1 DUP4 DUP2 RETURNDATASIZE DUP4 GT PUSH2 0x1E97 JUMPI JUMPDEST PUSH2 0x1E4B DUP2 DUP4 PUSH2 0x2B0A JUMP JUMPDEST DUP2 ADD SUB SLT PUSH2 0x1A2 JUMPI PUSH2 0x1E2C SWAP8 PUSH1 0xA SWAP8 PUSH32 0xA15C2435FADA31FA58C0EB6A516D9B0DF54ED70F48F3680BA2B527955C5797C1 SWAP6 PUSH2 0x1E87 PUSH1 0x80 SWAP7 PUSH2 0x341A JUMP JUMPDEST POP SWAP4 SWAP7 SWAP8 SWAP9 POP SWAP4 POP SWAP8 POP SWAP3 PUSH2 0x1DC0 JUMP JUMPDEST POP RETURNDATASIZE PUSH2 0x1E41 JUMP JUMPDEST SWAP1 POP DUP4 DUP2 DUP2 RETURNDATASIZE DUP4 GT PUSH2 0x1EC4 JUMPI JUMPDEST PUSH2 0x1EB5 DUP2 DUP4 PUSH2 0x2B0A JUMP JUMPDEST DUP2 ADD SUB SLT PUSH2 0x1A2 JUMPI MLOAD DUP10 PUSH2 0x1D6E JUMP JUMPDEST POP RETURNDATASIZE PUSH2 0x1EAB JUMP JUMPDEST PUSH2 0x1EE8 SWAP2 POP RETURNDATASIZE DUP1 PUSH1 0x0 DUP4 RETURNDATACOPY PUSH2 0x1EE0 DUP2 DUP4 PUSH2 0x2B0A JUMP JUMPDEST DUP2 ADD SWAP1 PUSH2 0x3427 JUMP JUMPDEST SWAP2 POP POP DUP12 PUSH2 0x1D29 JUMP JUMPDEST SWAP1 SWAP2 PUSH2 0x1E2C SWAP9 POP PUSH1 0xA SWAP8 SWAP7 SWAP6 POP PUSH1 0xA0 SWAP4 POP SWAP4 PUSH32 0x9878AA34B75479DA70E37BCE4455679DAE86D7580D3CF362E48F2ABB18BAACD SWAP5 PUSH1 0x8 DUP12 ADD SLOAD DUP2 PUSH1 0x9 DUP14 ADD SLOAD AND SWAP2 DUP11 DUP14 ADD SLOAD AND SWAP3 PUSH1 0x40 MLOAD SWAP6 DUP7 MSTORE DUP6 ADD MSTORE PUSH1 0x40 DUP5 ADD MSTORE PUSH1 0x60 DUP4 ADD MSTORE PUSH2 0x1F54 DUP2 PUSH2 0x2A88 JUMP JUMPDEST PUSH1 0x80 DUP3 ADD MSTORE LOG1 PUSH2 0x1E10 JUMP JUMPDEST POP DUP3 PUSH1 0xA DUP12 ADD SLOAD AND ISZERO ISZERO DUP1 ISZERO PUSH2 0x1CE9 JUMPI POP PUSH1 0x8 DUP11 ADD SLOAD ISZERO ISZERO PUSH2 0x1CE9 JUMP JUMPDEST POP PUSH1 0x8 DUP11 ADD SLOAD ISZERO ISZERO PUSH2 0x1CE2 JUMP JUMPDEST PUSH1 0x40 MLOAD PUSH3 0x461BCD PUSH1 0xE5 SHL DUP2 MSTORE PUSH1 0x4 DUP2 ADD DUP6 SWAP1 MSTORE PUSH1 0x30 PUSH1 0x24 DUP3 ADD MSTORE PUSH32 0x54686973207469746C6520646F6E2774206861766520746865207065726D6973 PUSH1 0x44 DUP3 ADD MSTORE PUSH16 0x73696F6E20746F207769746864726177 PUSH1 0x80 SHL PUSH1 0x64 DUP3 ADD MSTORE PUSH1 0x84 SWAP1 REVERT JUMPDEST PUSH1 0x40 MLOAD PUSH3 0x461BCD PUSH1 0xE5 SHL DUP2 MSTORE PUSH1 0x4 DUP2 ADD DUP4 SWAP1 MSTORE PUSH1 0x3C PUSH1 0x24 DUP3 ADD MSTORE PUSH32 0x4D73672E73656E646572206D7573742062652074686520636F6E747261637420 PUSH1 0x44 DUP3 ADD MSTORE PUSH32 0x4F776E6572206F72207468652070726F746F636F6C206F776E65722100000000 PUSH1 0x64 DUP3 ADD MSTORE PUSH1 0x84 SWAP1 REVERT JUMPDEST POP DUP4 PUSH1 0x8 SLOAD AND CALLER EQ PUSH2 0x1CA0 JUMP JUMPDEST CALLVALUE PUSH2 0x1A2 JUMPI PUSH1 0x40 CALLDATASIZE PUSH1 0x3 NOT ADD SLT PUSH2 0x1A2 JUMPI PUSH1 0x24 CALLDATALOAD PUSH1 0x1 PUSH1 0x1 PUSH1 0xA0 SHL SUB DUP2 DUP2 AND SWAP2 DUP3 SWAP1 SUB PUSH2 0x1A2 JUMPI PUSH2 0x2095 DUP2 PUSH1 0x8 SLOAD AND CALLER EQ PUSH2 0x3FA5 JUMP JUMPDEST PUSH1 0x4 CALLDATALOAD PUSH1 0x0 MSTORE PUSH1 0x20 SWAP1 PUSH1 0xF DUP3 MSTORE PUSH1 0x40 PUSH1 0x0 KECCAK256 PUSH1 0xFF PUSH1 0xC DUP3 ADD SLOAD AND PUSH2 0x20B8 DUP2 PUSH2 0x2A88 JUMP JUMPDEST PUSH1 0x2 DUP2 EQ SWAP1 DUP2 ISZERO PUSH2 0x22A9 JUMPI JUMPDEST POP ISZERO PUSH2 0x1A2 JUMPI PUSH2 0x2104 PUSH1 0x9 PUSH2 0x20F0 PUSH2 0x20E5 PUSH1 0x8 DUP6 ADD SLOAD PUSH1 0xB DUP7 ADD SLOAD SWAP1 PUSH2 0x2C30 JUMP JUMPDEST PUSH1 0x4 DUP6 ADD SLOAD SWAP1 PUSH2 0x2BB3 JUMP JUMPDEST SWAP3 ADD SLOAD SWAP2 PUSH2 0x20FE DUP2 DUP5 PUSH2 0x2C30 JUMP JUMPDEST SWAP3 PUSH2 0x2C30 JUMP JUMPDEST DUP2 GT PUSH2 0x2256 JUMPI PUSH2 0x2115 DUP5 ISZERO ISZERO PUSH2 0x3F65 JUMP JUMPDEST PUSH1 0x0 DUP1 DUP4 PUSH1 0xB SLOAD AND PUSH1 0x24 PUSH1 0x40 MLOAD DUP1 SWAP5 DUP2 SWAP4 PUSH4 0x8C83DDD3 PUSH1 0xE0 SHL DUP4 MSTORE DUP11 PUSH1 0x4 DUP5 ADD MSTORE GAS CALL SWAP1 DUP2 ISZERO PUSH2 0x3D5 JUMPI PUSH2 0x2156 SWAP2 PUSH1 0x1 SWAP2 PUSH1 0x0 SWAP2 PUSH2 0x2238 JUMPI POP ISZERO ISZERO EQ PUSH2 0x3473 JUMP JUMPDEST PUSH1 0x9 DUP1 SLOAD PUSH1 0x1 PUSH1 0x1 PUSH1 0xA0 SHL SUB NOT AND DUP6 OR SWAP1 SSTORE PUSH1 0x40 MLOAD PUSH4 0x70A08231 PUSH1 0xE0 SHL DUP2 MSTORE ADDRESS PUSH1 0x4 DUP3 ADD MSTORE DUP4 DUP2 PUSH1 0x24 DUP2 DUP9 GAS STATICCALL DUP1 ISZERO PUSH2 0x3D5 JUMPI DUP3 SWAP2 PUSH1 0x0 SWAP2 PUSH2 0x2207 JUMPI JUMPDEST POP LT PUSH2 0x1A2 JUMPI PUSH1 0xB SLOAD PUSH1 0x40 MLOAD PUSH4 0xA9059CBB PUSH1 0xE0 SHL DUP2 MSTORE SWAP3 AND PUSH1 0x1 PUSH1 0x1 PUSH1 0xA0 SHL SUB AND PUSH1 0x4 DUP4 ADD MSTORE PUSH1 0x24 DUP3 ADD MSTORE SWAP2 DUP2 SWAP1 DUP4 SWAP1 DUP2 PUSH1 0x0 DUP2 PUSH1 0x44 DUP2 ADD SUB SWAP3 GAS CALL DUP1 ISZERO PUSH2 0x3D5 JUMPI PUSH2 0x21DB JUMPI STOP JUMPDEST DUP2 DUP2 RETURNDATASIZE DUP4 GT PUSH2 0x2200 JUMPI JUMPDEST PUSH2 0x21EF DUP2 DUP4 PUSH2 0x2B0A JUMP JUMPDEST DUP2 ADD SUB SLT PUSH2 0x1A2 JUMPI PUSH2 0x243 SWAP1 PUSH2 0x341A JUMP JUMPDEST POP RETURNDATASIZE PUSH2 0x21E5 JUMP JUMPDEST DUP1 SWAP3 POP DUP6 DUP1 SWAP3 POP RETURNDATASIZE DUP4 GT PUSH2 0x2231 JUMPI JUMPDEST PUSH2 0x2220 DUP2 DUP4 PUSH2 0x2B0A JUMP JUMPDEST DUP2 ADD SUB SLT PUSH2 0x1A2 JUMPI DUP2 SWAP1 MLOAD DUP7 PUSH2 0x2193 JUMP JUMPDEST POP RETURNDATASIZE PUSH2 0x2216 JUMP JUMPDEST PUSH2 0x224D SWAP2 POP RETURNDATASIZE DUP1 PUSH1 0x0 DUP4 RETURNDATACOPY PUSH2 0x1EE0 DUP2 DUP4 PUSH2 0x2B0A JUMP JUMPDEST SWAP2 POP POP DUP8 PUSH2 0x1D29 JUMP JUMPDEST PUSH1 0x40 MLOAD PUSH3 0x461BCD PUSH1 0xE5 SHL DUP2 MSTORE PUSH1 0x4 DUP2 ADD DUP5 SWAP1 MSTORE PUSH1 0x25 PUSH1 0x24 DUP3 ADD MSTORE PUSH32 0x5F616D6F756E742063616E27742065786365656420746865207469746C652076 PUSH1 0x44 DUP3 ADD MSTORE PUSH5 0x616C756521 PUSH1 0xD8 SHL PUSH1 0x64 DUP3 ADD MSTORE PUSH1 0x84 SWAP1 REVERT JUMPDEST SWAP1 POP PUSH2 0x22B4 DUP2 PUSH2 0x2A88 JUMP JUMPDEST ISZERO DUP6 PUSH2 0x20C4 JUMP JUMPDEST CALLVALUE PUSH2 0x1A2 JUMPI PUSH1 0x60 CALLDATASIZE PUSH1 0x3 NOT ADD SLT PUSH2 0x1A2 JUMPI PUSH1 0x4 CALLDATALOAD PUSH1 0x0 MSTORE PUSH1 0x12 PUSH1 0x20 MSTORE PUSH1 0x40 PUSH1 0x0 KECCAK256 PUSH1 0x24 CALLDATALOAD PUSH1 0x0 MSTORE PUSH1 0x20 MSTORE PUSH1 0x40 PUSH1 0x0 KECCAK256 PUSH1 0x44 CALLDATALOAD PUSH1 0x0 MSTORE PUSH1 0x20 MSTORE PUSH2 0x120 PUSH1 0x40 PUSH1 0x0 KECCAK256 DUP1 SLOAD SWAP1 PUSH1 0x1 DUP2 ADD SLOAD SWAP1 PUSH1 0x2 DUP2 ADD SLOAD PUSH1 0x1 DUP1 PUSH1 0xA0 SHL SUB DUP1 PUSH1 0x3 DUP5 ADD SLOAD AND SWAP1 PUSH1 0x4 DUP5 ADD SLOAD AND PUSH1 0x5 DUP5 ADD SLOAD SWAP2 PUSH1 0x6 DUP6 ADD SLOAD SWAP4 PUSH1 0x8 PUSH1 0xFF PUSH1 0x7 DUP9 ADD SLOAD AND SWAP7 ADD SLOAD SWAP7 PUSH1 0x40 MLOAD SWAP9 DUP10 MSTORE PUSH1 0x20 DUP10 ADD MSTORE PUSH1 0x40 DUP9 ADD MSTORE PUSH1 0x60 DUP8 ADD MSTORE PUSH1 0x80 DUP7 ADD MSTORE PUSH1 0xA0 DUP6 ADD MSTORE PUSH1 0xC0 DUP5 ADD MSTORE ISZERO ISZERO PUSH1 0xE0 DUP4 ADD MSTORE PUSH2 0x100 DUP3 ADD MSTORE RETURN JUMPDEST CALLVALUE PUSH2 0x1A2 JUMPI PUSH2 0x2379 CALLDATASIZE PUSH2 0x29F6 JUMP JUMPDEST SWAP1 PUSH1 0x0 MSTORE PUSH1 0x10 PUSH1 0x20 MSTORE PUSH1 0x40 PUSH1 0x0 KECCAK256 SWAP1 PUSH1 0x0 MSTORE PUSH1 0x20 MSTORE PUSH2 0x1C0 PUSH1 0x40 PUSH1 0x0 KECCAK256 PUSH1 0xFF DUP2 SLOAD SWAP2 PUSH1 0x1 DUP2 ADD SLOAD SWAP1 PUSH1 0x2 DUP2 ADD SLOAD PUSH1 0x3 DUP3 ADD SLOAD PUSH1 0x4 DUP4 ADD SLOAD SWAP1 PUSH1 0x1 DUP1 PUSH1 0xA0 SHL SUB SWAP2 DUP3 PUSH1 0x5 DUP7 ADD SLOAD AND PUSH1 0x6 DUP7 ADD SLOAD SWAP1 PUSH1 0x7 DUP8 ADD SLOAD SWAP3 PUSH1 0x8 DUP9 ADD SLOAD SWAP5 DUP7 PUSH1 0x9 DUP11 ADD SLOAD AND SWAP7 PUSH1 0xA DUP11 ADD SLOAD AND SWAP8 PUSH1 0xC PUSH1 0xB DUP12 ADD SLOAD SWAP11 ADD SLOAD SWAP11 PUSH1 0x20 PUSH1 0x40 MLOAD SWAP15 DUP16 SWAP1 DUP2 MSTORE ADD MSTORE PUSH1 0x40 DUP14 ADD MSTORE PUSH1 0x60 DUP13 ADD MSTORE PUSH1 0x80 DUP12 ADD MSTORE PUSH1 0xA0 DUP11 ADD MSTORE PUSH1 0xC0 DUP10 ADD MSTORE PUSH1 0xE0 DUP9 ADD MSTORE PUSH2 0x100 DUP8 ADD MSTORE PUSH2 0x120 DUP7 ADD MSTORE PUSH2 0x140 DUP6 ADD MSTORE PUSH2 0x160 DUP5 ADD MSTORE DUP2 DUP2 AND PUSH2 0x243A DUP2 PUSH2 0x2A88 JUMP JUMPDEST PUSH2 0x180 DUP5 ADD MSTORE PUSH1 0x8 SHR AND ISZERO ISZERO PUSH2 0x1A0 DUP3 ADD MSTORE RETURN JUMPDEST CALLVALUE PUSH2 0x1A2 JUMPI PUSH2 0x245C CALLDATASIZE PUSH2 0x2A6A JUMP JUMPDEST SWAP1 DUP1 PUSH1 0x0 SWAP5 SWAP4 SWAP5 MSTORE PUSH1 0x20 SWAP4 PUSH1 0x10 DUP6 MSTORE PUSH1 0x40 PUSH1 0x0 KECCAK256 DUP4 PUSH1 0x0 MSTORE DUP6 MSTORE PUSH1 0x40 PUSH1 0x0 KECCAK256 DUP5 PUSH1 0x0 MSTORE PUSH1 0x10 DUP7 MSTORE PUSH1 0x40 PUSH1 0x0 KECCAK256 DUP3 PUSH1 0x0 MSTORE DUP7 MSTORE PUSH1 0x40 PUSH1 0x0 KECCAK256 SWAP1 PUSH1 0x7 DUP3 ADD SWAP2 PUSH2 0x24A5 DUP4 SLOAD ISZERO ISZERO PUSH2 0x3BFF JUMP JUMPDEST PUSH1 0x5 DUP2 ADD SLOAD PUSH1 0x1 PUSH1 0x1 PUSH1 0xA0 SHL SUB SWAP2 SWAP1 PUSH2 0x24C1 SWAP1 DUP4 AND CALLER EQ PUSH2 0x3C4B JUMP JUMPDEST PUSH1 0x5 DUP4 ADD SWAP3 PUSH2 0x24D4 CALLER DUP5 DUP7 SLOAD AND EQ PUSH2 0x3C4B JUMP JUMPDEST PUSH1 0x1 DUP2 ADD SLOAD SWAP1 PUSH1 0xB DUP4 ADD SLOAD SWAP1 DUP2 DUP4 LT PUSH2 0x26AD JUMPI DUP1 PUSH1 0x3 PUSH1 0x6 PUSH2 0x24FB SWAP4 ADD SLOAD SWAP2 ADD SLOAD SWAP1 PUSH2 0x2BB3 JUMP JUMPDEST SWAP2 DUP2 PUSH1 0x1 SHL SWAP2 DUP1 DUP4 DIV PUSH1 0x2 EQ SWAP1 ISZERO OR ISZERO PUSH2 0x1AD0 JUMPI DUP3 EQ SWAP2 DUP3 ISZERO PUSH2 0x26A2 JUMPI JUMPDEST POP POP ISZERO PUSH2 0x25D7 JUMPI SWAP2 PUSH32 0x50243003E9D7EF147493229D55468984FE3256E1B1CF63B435C46D06331682A4 SWAP9 SWAP4 SWAP2 PUSH1 0xC PUSH1 0xA0 SWAP10 SWAP9 SWAP8 SWAP7 SWAP5 ADD PUSH1 0x3 PUSH1 0xFF NOT DUP3 SLOAD AND OR SWAP1 SSTORE PUSH1 0x40 MLOAD PUSH2 0x2566 DUP2 PUSH2 0x2AD4 JUMP JUMPDEST CALLER DUP2 MSTORE PUSH1 0x2 DUP7 DUP3 ADD SWAP3 DUP9 DUP5 MSTORE PUSH1 0x40 DUP4 ADD SWAP1 DUP11 DUP3 MSTORE DUP12 PUSH1 0x0 MSTORE PUSH1 0x14 DUP10 MSTORE PUSH1 0x40 PUSH1 0x0 KECCAK256 DUP9 PUSH1 0x0 MSTORE DUP10 MSTORE PUSH1 0x40 PUSH1 0x0 KECCAK256 SWAP4 MLOAD AND SWAP4 PUSH1 0x1 PUSH1 0x1 PUSH1 0x60 SHL SUB DUP14 SHL SWAP5 DUP6 DUP6 SLOAD AND OR DUP5 SSTORE MLOAD PUSH1 0x1 DUP5 ADD SSTORE MLOAD SWAP2 ADD SSTORE ADDRESS SWAP1 DUP3 SLOAD AND OR SWAP1 SSTORE SLOAD SWAP2 PUSH1 0x40 MLOAD SWAP6 DUP7 MSTORE DUP6 ADD MSTORE PUSH1 0x40 DUP5 ADD MSTORE PUSH1 0x60 DUP4 ADD MSTORE PUSH1 0x80 DUP3 ADD MSTORE LOG1 STOP JUMPDEST PUSH1 0x40 MLOAD PUSH3 0x461BCD PUSH1 0xE5 SHL DUP2 MSTORE PUSH1 0x4 DUP2 ADD DUP11 SWAP1 MSTORE PUSH1 0x8B PUSH1 0x24 DUP3 ADD MSTORE PUSH32 0x416C6C2074686520696E7374616C6C6D656E74732066726F6D2074686520636F PUSH1 0x44 DUP3 ADD MSTORE PUSH32 0x6C61746572616C206D7573742068617665206265656E2070616964206F722061 PUSH1 0x64 DUP3 ADD MSTORE PUSH32 0x74206C65617374207468652076616C75652070616964206D7573742062652067 PUSH1 0x84 DUP3 ADD MSTORE PUSH32 0x726561746572207468656E2074776F2074696D65732074686520656E73757265 PUSH1 0xA4 DUP3 ADD MSTORE PUSH11 0x15985B1D59539959591959 PUSH1 0xAA SHL PUSH1 0xC4 DUP3 ADD MSTORE PUSH1 0xE4 SWAP1 REVERT JUMPDEST LT ISZERO SWAP1 POP DUP11 DUP1 PUSH2 0x2519 JUMP JUMPDEST PUSH1 0x40 MLOAD PUSH3 0x461BCD PUSH1 0xE5 SHL DUP2 MSTORE PUSH1 0x4 DUP2 ADD DUP14 SWAP1 MSTORE PUSH1 0x47 PUSH1 0x24 DUP3 ADD MSTORE PUSH32 0x54686520636F6C61746572616C20746F74616C2076616C7565206D7573742062 PUSH1 0x44 DUP3 ADD MSTORE PUSH32 0x652067726561746572207468616E2074756520656E737572616E636556616C75 PUSH1 0x64 DUP3 ADD MSTORE PUSH7 0x19539959591959 PUSH1 0xCA SHL PUSH1 0x84 DUP3 ADD MSTORE PUSH1 0xA4 SWAP1 REVERT JUMPDEST CALLVALUE PUSH2 0x1A2 JUMPI PUSH1 0x20 CALLDATASIZE PUSH1 0x3 NOT ADD SLT PUSH2 0x1A2 JUMPI PUSH1 0x1 PUSH1 0x1 PUSH1 0xA0 SHL SUB PUSH2 0x2749 PUSH2 0x2A54 JUMP JUMPDEST AND PUSH1 0x0 MSTORE PUSH1 0x3 PUSH1 0x20 MSTORE PUSH1 0x20 PUSH1 0xFF PUSH1 0x40 PUSH1 0x0 KECCAK256 SLOAD AND PUSH1 0x40 MLOAD SWAP1 ISZERO ISZERO DUP2 MSTORE RETURN JUMPDEST CALLVALUE PUSH2 0x1A2 JUMPI PUSH1 0x0 CALLDATASIZE PUSH1 0x3 NOT ADD SLT PUSH2 0x1A2 JUMPI PUSH1 0x0 SLOAD PUSH2 0x2783 PUSH2 0x402B JUMP JUMPDEST SWAP1 PUSH2 0x27A0 PUSH1 0x40 MLOAD SWAP3 DUP4 SWAP3 DUP4 MSTORE PUSH1 0x40 PUSH1 0x20 DUP5 ADD MSTORE PUSH1 0x40 DUP4 ADD SWAP1 PUSH2 0x2A2F JUMP JUMPDEST SUB SWAP1 RETURN JUMPDEST CALLVALUE PUSH2 0x1A2 JUMPI PUSH2 0x27B2 CALLDATASIZE PUSH2 0x29F6 JUMP JUMPDEST DUP2 PUSH1 0x0 MSTORE PUSH1 0xF PUSH1 0x20 SWAP2 DUP2 DUP4 MSTORE PUSH1 0x40 PUSH1 0x0 KECCAK256 SWAP2 PUSH1 0x1 PUSH1 0x8 SWAP2 DUP3 DUP6 ADD SWAP6 PUSH1 0x3 DUP7 ADD SWAP3 JUMPDEST DUP8 SLOAD DUP2 LT ISZERO PUSH2 0x243 JUMPI DUP9 PUSH1 0x0 MSTORE PUSH1 0x10 SWAP1 DUP2 DUP4 MSTORE PUSH1 0x40 PUSH1 0x0 KECCAK256 DUP2 PUSH1 0x0 MSTORE DUP4 MSTORE DUP8 PUSH1 0x40 PUSH1 0x0 KECCAK256 SWAP3 DUP7 SLOAD SWAP4 DUP13 DUP7 PUSH1 0x2 SWAP7 DUP8 PUSH2 0x280F PUSH1 0x6 DUP7 ADD SLOAD DUP4 PUSH2 0x2C30 JUMP JUMPDEST LT PUSH2 0x28E1 JUMPI POP POP PUSH2 0x285B SWAP6 PUSH1 0xC SWAP2 DUP3 DUP5 ADD SWAP4 PUSH1 0xFF NOT SWAP5 DUP6 DUP2 SLOAD AND SWAP1 SSTORE PUSH1 0xB DUP1 SWAP8 ADD PUSH2 0x283A DUP2 SLOAD PUSH2 0x2BA4 JUMP JUMPDEST SWAP1 SSTORE DUP13 DUP2 ADD SLOAD ISZERO SWAP1 DUP2 ISZERO SWAP2 PUSH2 0x28BC JUMPI JUMPDEST POP PUSH2 0x2860 JUMPI JUMPDEST POP POP POP POP POP POP PUSH2 0x2BA4 JUMP JUMPDEST PUSH2 0x27D3 JUMP JUMPDEST PUSH1 0x0 MSTORE PUSH1 0x14 DUP9 MSTORE PUSH1 0x40 PUSH1 0x0 KECCAK256 DUP13 PUSH1 0x0 MSTORE DUP9 MSTORE PUSH1 0x40 PUSH1 0x0 KECCAK256 SWAP1 PUSH1 0x1 DUP3 ADD SLOAD PUSH1 0x0 MSTORE DUP10 DUP10 MSTORE PUSH1 0x40 PUSH1 0x0 KECCAK256 SWAP5 DUP10 MSTORE PUSH1 0x40 PUSH1 0x0 KECCAK256 SWAP2 ADD SLOAD PUSH1 0x0 MSTORE DUP8 MSTORE PUSH1 0x40 PUSH1 0x0 KECCAK256 ADD SWAP1 DUP2 SLOAD AND SWAP1 SSTORE ADD PUSH2 0x28AF DUP2 SLOAD PUSH2 0x2BA4 JUMP JUMPDEST SWAP1 SSTORE DUP11 DUP1 DUP1 DUP1 DUP1 DUP15 PUSH2 0x2850 JUMP JUMPDEST PUSH1 0xA ADD SLOAD PUSH1 0x1 PUSH1 0x1 PUSH1 0xA0 SHL SUB AND ISZERO ISZERO SWAP1 DUP2 PUSH2 0x28D9 JUMPI JUMPDEST POP CODESIZE PUSH2 0x284A JUMP JUMPDEST SWAP1 POP CODESIZE PUSH2 0x28D2 JUMP JUMPDEST SWAP3 SWAP5 POP SWAP3 POP POP PUSH1 0x44 PUSH1 0x1 DUP1 PUSH1 0xA0 SHL SUB PUSH1 0xB SLOAD AND SWAP6 DUP13 ADD SLOAD PUSH1 0x40 MLOAD SWAP7 DUP8 SWAP4 DUP5 SWAP3 PUSH4 0x1933C39 PUSH1 0xE6 SHL DUP5 MSTORE PUSH1 0x4 DUP5 ADD MSTORE PUSH1 0x24 DUP4 ADD MSTORE GAS STATICCALL DUP1 ISZERO PUSH2 0x3D5 JUMPI PUSH1 0x0 SWAP1 PUSH2 0x2974 JUMPI JUMPDEST PUSH2 0x285B SWAP4 POP TIMESTAMP GT PUSH2 0x2936 JUMPI JUMPDEST POP PUSH2 0x2BA4 JUMP JUMPDEST PUSH1 0xC ADD PUSH1 0x1 PUSH1 0xFF NOT DUP3 SLOAD AND OR SWAP1 SSTORE PUSH32 0x5238EEF763C91B9905201192C7B588678D655A1FEC573E5434470D30D3F975BE DUP4 PUSH1 0x40 MLOAD PUSH1 0x1 DUP2 MSTORE LOG1 DUP11 PUSH2 0x2930 JUMP JUMPDEST POP DUP4 DUP4 DUP2 RETURNDATASIZE DUP4 GT PUSH2 0x299C JUMPI JUMPDEST PUSH2 0x298A DUP2 DUP4 PUSH2 0x2B0A JUMP JUMPDEST DUP2 ADD SUB SLT PUSH2 0x1A2 JUMPI PUSH2 0x285B SWAP3 MLOAD PUSH2 0x2924 JUMP JUMPDEST POP RETURNDATASIZE PUSH2 0x2980 JUMP JUMPDEST CALLVALUE PUSH2 0x1A2 JUMPI PUSH1 0x20 CALLDATASIZE PUSH1 0x3 NOT ADD SLT PUSH2 0x1A2 JUMPI PUSH1 0x4 CALLDATALOAD SWAP1 PUSH4 0xFFFFFFFF PUSH1 0xE0 SHL DUP3 AND DUP1 SWAP3 SUB PUSH2 0x1A2 JUMPI PUSH1 0x20 SWAP2 PUSH4 0x85572FFB PUSH1 0xE0 SHL DUP2 EQ SWAP1 DUP2 ISZERO PUSH2 0x29E5 JUMPI JUMPDEST POP ISZERO ISZERO DUP2 MSTORE RETURN JUMPDEST PUSH4 0x1FFC9A7 PUSH1 0xE0 SHL EQ SWAP1 POP DUP4 PUSH2 0x29DE JUMP JUMPDEST PUSH1 0x40 SWAP1 PUSH1 0x3 NOT ADD SLT PUSH2 0x1A2 JUMPI PUSH1 0x4 CALLDATALOAD SWAP1 PUSH1 0x24 CALLDATALOAD SWAP1 JUMP JUMPDEST PUSH1 0x0 JUMPDEST DUP4 DUP2 LT PUSH2 0x2A1F JUMPI POP POP PUSH1 0x0 SWAP2 ADD MSTORE JUMP JUMPDEST DUP2 DUP2 ADD MLOAD DUP4 DUP3 ADD MSTORE PUSH1 0x20 ADD PUSH2 0x2A0F JUMP JUMPDEST SWAP1 PUSH1 0x20 SWAP2 PUSH2 0x2A48 DUP2 MLOAD DUP1 SWAP3 DUP2 DUP6 MSTORE DUP6 DUP1 DUP7 ADD SWAP2 ADD PUSH2 0x2A0C JUMP JUMPDEST PUSH1 0x1F ADD PUSH1 0x1F NOT AND ADD ADD SWAP1 JUMP JUMPDEST PUSH1 0x4 CALLDATALOAD SWAP1 PUSH1 0x1 PUSH1 0x1 PUSH1 0xA0 SHL SUB DUP3 AND DUP3 SUB PUSH2 0x1A2 JUMPI JUMP JUMPDEST PUSH1 0x80 SWAP1 PUSH1 0x3 NOT ADD SLT PUSH2 0x1A2 JUMPI PUSH1 0x4 CALLDATALOAD SWAP1 PUSH1 0x24 CALLDATALOAD SWAP1 PUSH1 0x44 CALLDATALOAD SWAP1 PUSH1 0x64 CALLDATALOAD SWAP1 JUMP JUMPDEST PUSH1 0x5 GT ISZERO PUSH2 0x2A92 JUMPI JUMP JUMPDEST PUSH4 0x4E487B71 PUSH1 0xE0 SHL PUSH1 0x0 MSTORE PUSH1 0x21 PUSH1 0x4 MSTORE PUSH1 0x24 PUSH1 0x0 REVERT JUMPDEST PUSH1 0x44 CALLDATALOAD SWAP1 PUSH1 0x1 PUSH1 0x1 PUSH1 0xA0 SHL SUB DUP3 AND DUP3 SUB PUSH2 0x1A2 JUMPI JUMP JUMPDEST PUSH1 0x4 CALLDATALOAD SWAP1 PUSH1 0x1 PUSH1 0x1 PUSH1 0x40 SHL SUB DUP3 AND DUP3 SUB PUSH2 0x1A2 JUMPI JUMP JUMPDEST PUSH1 0x60 DUP2 ADD SWAP1 DUP2 LT PUSH1 0x1 PUSH1 0x1 PUSH1 0x40 SHL SUB DUP3 GT OR PUSH2 0xBBD JUMPI PUSH1 0x40 MSTORE JUMP JUMPDEST PUSH1 0x80 DUP2 ADD SWAP1 DUP2 LT PUSH1 0x1 PUSH1 0x1 PUSH1 0x40 SHL SUB DUP3 GT OR PUSH2 0xBBD JUMPI PUSH1 0x40 MSTORE JUMP JUMPDEST SWAP1 PUSH1 0x1F DUP1 NOT SWAP2 ADD AND DUP2 ADD SWAP1 DUP2 LT PUSH1 0x1 PUSH1 0x1 PUSH1 0x40 SHL SUB DUP3 GT OR PUSH2 0xBBD JUMPI PUSH1 0x40 MSTORE JUMP JUMPDEST PUSH1 0x1 PUSH1 0x1 PUSH1 0x40 SHL SUB DUP2 GT PUSH2 0xBBD JUMPI PUSH1 0x1F ADD PUSH1 0x1F NOT AND PUSH1 0x20 ADD SWAP1 JUMP JUMPDEST DUP2 PUSH1 0x1F DUP3 ADD SLT ISZERO PUSH2 0x1A2 JUMPI DUP1 CALLDATALOAD SWAP1 PUSH2 0x2B5D DUP3 PUSH2 0x2B2B JUMP JUMPDEST SWAP3 PUSH2 0x2B6B PUSH1 0x40 MLOAD SWAP5 DUP6 PUSH2 0x2B0A JUMP JUMPDEST DUP3 DUP5 MSTORE PUSH1 0x20 DUP4 DUP4 ADD ADD GT PUSH2 0x1A2 JUMPI DUP2 PUSH1 0x0 SWAP3 PUSH1 0x20 DUP1 SWAP4 ADD DUP4 DUP7 ADD CALLDATACOPY DUP4 ADD ADD MSTORE SWAP1 JUMP JUMPDEST PUSH1 0x1 PUSH1 0x1 PUSH1 0x40 SHL SUB DUP2 GT PUSH2 0xBBD JUMPI PUSH1 0x5 SHL PUSH1 0x20 ADD SWAP1 JUMP JUMPDEST PUSH1 0x0 NOT DUP2 EQ PUSH2 0x1AD0 JUMPI PUSH1 0x1 ADD SWAP1 JUMP JUMPDEST DUP2 DUP2 MUL SWAP3 SWAP2 DUP2 ISZERO SWAP2 DUP5 DIV EQ OR ISZERO PUSH2 0x1AD0 JUMPI JUMP JUMPDEST DUP2 ISZERO PUSH2 0x2BD0 JUMPI DIV SWAP1 JUMP JUMPDEST PUSH4 0x4E487B71 PUSH1 0xE0 SHL PUSH1 0x0 MSTORE PUSH1 0x12 PUSH1 0x4 MSTORE PUSH1 0x24 PUSH1 0x0 REVERT JUMPDEST SWAP1 PUSH2 0x2BF0 DUP2 PUSH2 0x2A88 JUMP JUMPDEST PUSH1 0xFF DUP1 NOT DUP4 SLOAD AND SWAP2 AND OR SWAP1 SSTORE JUMP JUMPDEST SWAP2 SWAP1 DUP3 ADD DUP1 SWAP3 GT PUSH2 0x1AD0 JUMPI JUMP JUMPDEST PUSH1 0x1 PUSH1 0x1 PUSH1 0xA0 SHL SUB SWAP1 SWAP2 AND DUP2 MSTORE PUSH1 0x40 PUSH1 0x20 DUP3 ADD DUP2 SWAP1 MSTORE PUSH2 0x2C2D SWAP3 SWAP2 ADD SWAP1 PUSH2 0x2A2F JUMP JUMPDEST SWAP1 JUMP JUMPDEST SWAP2 SWAP1 DUP3 SUB SWAP2 DUP3 GT PUSH2 0x1AD0 JUMPI JUMP JUMPDEST SWAP1 SWAP2 PUSH1 0x0 SWAP1 DUP3 DUP3 MSTORE PUSH1 0xF PUSH1 0x20 MSTORE PUSH1 0x40 DUP3 KECCAK256 PUSH1 0x10 PUSH1 0x20 MSTORE PUSH1 0x40 DUP4 KECCAK256 DUP6 DUP5 MSTORE PUSH1 0x20 MSTORE PUSH1 0x40 DUP4 KECCAK256 SWAP6 PUSH1 0x1 PUSH1 0xFF PUSH1 0xC DUP5 ADD SLOAD AND PUSH2 0x2C75 DUP2 PUSH2 0x2A88 JUMP JUMPDEST SUB PUSH2 0x3384 JUMPI PUSH1 0x2 DUP8 ADD SWAP1 DUP4 DUP3 SLOAD LT PUSH2 0x332B JUMPI PUSH1 0xC DUP9 ADD SWAP4 PUSH1 0xFF DUP6 SLOAD AND PUSH2 0x2C9A DUP2 PUSH2 0x2A88 JUMP JUMPDEST PUSH1 0x2 DUP2 EQ SWAP1 DUP2 ISZERO PUSH2 0x3316 JUMPI JUMPDEST DUP2 ISZERO PUSH2 0x3302 JUMPI JUMPDEST POP ISZERO PUSH2 0x32FE JUMPI DUP1 PUSH2 0x32B6 JUMPI PUSH1 0x1 SWAP2 JUMPDEST PUSH1 0x1 DUP1 PUSH1 0xA0 SHL SUB PUSH1 0xB SLOAD AND PUSH1 0x20 PUSH1 0x2 DUP8 ADD SLOAD PUSH1 0x44 PUSH1 0x40 MLOAD DUP1 SWAP5 DUP2 SWAP4 PUSH4 0x1933C39 PUSH1 0xE6 SHL DUP4 MSTORE PUSH1 0x4 DUP4 ADD MSTORE DUP9 PUSH1 0x24 DUP4 ADD MSTORE GAS STATICCALL SWAP1 DUP2 ISZERO PUSH2 0x3235 JUMPI DUP9 SWAP2 PUSH2 0x3284 JUMPI JUMPDEST POP DUP1 TIMESTAMP GT PUSH1 0x0 EQ PUSH2 0x3240 JUMPI PUSH2 0x2D11 SWAP1 TIMESTAMP PUSH2 0x2C30 JUMP JUMPDEST SWAP1 DUP2 PUSH1 0x6 SSTORE DUP2 PUSH2 0x3169 JUMPI JUMPDEST POP POP JUMPDEST PUSH1 0x1 DUP1 PUSH1 0xA0 SHL SUB PUSH1 0x5 DUP11 ADD SLOAD AND SWAP6 PUSH1 0x5 SLOAD SWAP7 PUSH1 0x6 SLOAD PUSH1 0x6 DUP13 ADD SWAP9 DUP10 SLOAD SWAP3 PUSH1 0x40 MLOAD SWAP7 DUP8 PUSH2 0x120 DUP2 ADD LT PUSH1 0x1 PUSH1 0x1 PUSH1 0x40 SHL SUB PUSH2 0x120 DUP11 ADD GT OR PUSH2 0x3155 JUMPI PUSH2 0x120 DUP9 ADD PUSH1 0x40 MSTORE DUP14 DUP9 MSTORE PUSH1 0x20 DUP9 ADD MSTORE TIMESTAMP PUSH1 0x40 DUP9 ADD MSTORE CALLER PUSH1 0x60 DUP9 ADD MSTORE PUSH1 0x80 DUP8 ADD MSTORE PUSH1 0xA0 DUP7 ADD MSTORE PUSH1 0xC0 DUP6 ADD MSTORE PUSH1 0x1 PUSH1 0xE0 DUP6 ADD MSTORE DUP1 PUSH2 0x100 DUP6 ADD MSTORE PUSH1 0x3 DUP7 ADD SLOAD DUP1 SWAP2 LT ISZERO DUP1 PUSH2 0x3149 JUMPI JUMPDEST PUSH2 0x2F87 JUMPI JUMPDEST POP SWAP1 POP PUSH2 0x100 PUSH1 0x40 MLOAD SWAP3 DUP1 MLOAD PUSH1 0x20 DUP6 ADD MSTORE PUSH1 0x20 DUP2 ADD MLOAD PUSH1 0x40 DUP6 ADD MSTORE PUSH1 0x40 DUP2 ADD MLOAD PUSH1 0x60 DUP6 ADD MSTORE PUSH1 0x1 DUP1 PUSH1 0xA0 SHL SUB PUSH1 0x60 DUP3 ADD MLOAD AND PUSH1 0x80 DUP6 ADD MSTORE PUSH1 0x1 DUP1 PUSH1 0xA0 SHL SUB PUSH1 0x80 DUP3 ADD MLOAD AND PUSH1 0xA0 DUP6 ADD MSTORE PUSH1 0xA0 DUP2 ADD MLOAD PUSH1 0xC0 DUP6 ADD MSTORE PUSH1 0xC0 DUP2 ADD MLOAD PUSH1 0xE0 DUP6 ADD MSTORE PUSH1 0xE0 DUP2 ADD MLOAD ISZERO ISZERO DUP3 DUP6 ADD MSTORE ADD MLOAD PUSH2 0x120 DUP4 ADD MSTORE PUSH2 0x120 DUP3 MSTORE PUSH2 0x140 DUP3 ADD SWAP1 DUP3 DUP3 LT PUSH1 0x1 PUSH1 0x1 PUSH1 0x40 SHL SUB DUP4 GT OR PUSH2 0xBBD JUMPI PUSH1 0x40 DUP3 SWAP1 MSTORE PUSH1 0xD SLOAD PUSH4 0x6902622F PUSH1 0xE1 SHL DUP4 MSTORE PUSH1 0x20 SWAP1 DUP4 SWAP1 PUSH1 0x1 PUSH1 0x1 PUSH1 0xA0 SHL SUB AND DUP2 DUP5 PUSH2 0x13F NOT DUP9 PUSH2 0x2E6A DUP2 CALLER PUSH2 0x144 DUP3 ADD PUSH2 0x2C0B JUMP JUMPDEST SUB ADD SWAP3 GAS CALL SWAP1 DUP2 ISZERO PUSH2 0x2F7B JUMPI POP PUSH2 0x2F44 JUMPI JUMPDEST POP POP SWAP1 PUSH32 0xD6985739EC9552D19C3572FC03D8CC0F929E20DE244EAA8D01C1786D61FD177A SWAP7 DUP5 SWAP4 SWAP3 PUSH2 0x2EEE SWAP6 SLOAD SWAP1 SLOAD EQ PUSH2 0x2F1B JUMPI JUMPDEST POP PUSH1 0x3 DUP4 SLOAD SWAP2 ADD SLOAD EQ DUP1 PUSH2 0x2F04 JUMPI JUMPDEST PUSH2 0x2EF3 JUMPI JUMPDEST POP PUSH2 0x2ED0 DUP5 DUP5 PUSH2 0x3B5D JUMP JUMPDEST SLOAD PUSH1 0x40 MLOAD SWAP4 DUP5 SWAP4 DUP5 PUSH1 0x40 SWAP2 SWAP5 SWAP4 SWAP3 PUSH1 0x60 DUP3 ADD SWAP6 DUP3 MSTORE PUSH1 0x20 DUP3 ADD MSTORE ADD MSTORE JUMP JUMPDEST SUB SWAP1 LOG1 JUMP JUMPDEST DUP1 SLOAD PUSH1 0xFF NOT AND PUSH1 0x2 OR SWAP1 SSTORE CODESIZE PUSH2 0x2EC5 JUMP JUMPDEST POP PUSH1 0x1 PUSH1 0xFF DUP3 SLOAD AND PUSH2 0x2F15 DUP2 PUSH2 0x2A88 JUMP JUMPDEST EQ PUSH2 0x2EC0 JUMP JUMPDEST DUP3 SLOAD PUSH1 0xFF NOT AND PUSH1 0x3 OR DUP4 SSTORE PUSH1 0x8 ADD SLOAD PUSH2 0x2F35 JUMPI JUMPDEST CODESIZE PUSH2 0x2EB1 JUMP JUMPDEST PUSH2 0x2F3F DUP7 DUP7 PUSH2 0x3CD3 JUMP JUMPDEST PUSH2 0x2F2F JUMP JUMPDEST SWAP1 PUSH1 0x20 SWAP2 DUP3 SWAP7 SWAP6 SWAP5 SWAP4 SWAP7 SWAP1 RETURNDATASIZE DUP5 GT PUSH2 0x2F73 JUMPI JUMPDEST DUP2 PUSH2 0x2F61 SWAP2 PUSH2 0x2B0A JUMP JUMPDEST DUP2 ADD SUB SLT PUSH2 0x1A2 JUMPI SWAP1 SWAP2 SWAP3 CODESIZE DUP1 PUSH2 0x2E7C JUMP JUMPDEST RETURNDATASIZE SWAP2 POP PUSH2 0x2F57 JUMP JUMPDEST PUSH1 0x40 MLOAD SWAP1 RETURNDATASIZE SWAP1 DUP3 RETURNDATACOPY RETURNDATASIZE SWAP1 REVERT JUMPDEST PUSH1 0x1 DUP1 PUSH1 0xA0 SHL SUB PUSH1 0xB SLOAD AND SWAP1 PUSH1 0x2 DUP8 ADD SLOAD DUP3 EXTCODESIZE ISZERO PUSH2 0x3145 JUMPI SWAP1 PUSH1 0x44 DUP5 SWAP3 DUP4 PUSH1 0x40 MLOAD SWAP6 DUP7 SWAP5 DUP6 SWAP4 PUSH4 0x560337D1 PUSH1 0xE1 SHL DUP6 MSTORE PUSH1 0x4 DUP6 ADD MSTORE PUSH1 0x24 DUP5 ADD MSTORE GAS CALL DUP1 ISZERO PUSH2 0x313A JUMPI PUSH2 0x310F JUMPI JUMPDEST POP PUSH1 0xB SLOAD PUSH1 0x2 DUP7 ADD SLOAD PUSH1 0x3 DUP8 ADD SLOAD PUSH1 0x40 MLOAD PUSH4 0x1ACB51D PUSH1 0xE3 SHL DUP2 MSTORE PUSH1 0x4 DUP2 ADD SWAP3 SWAP1 SWAP3 MSTORE PUSH1 0x24 DUP3 ADD MSTORE SWAP2 SWAP3 SWAP1 PUSH1 0x20 SWAP1 DUP4 SWAP1 PUSH1 0x44 SWAP1 DUP3 SWAP1 PUSH1 0x1 PUSH1 0x1 PUSH1 0xA0 SHL SUB AND GAS STATICCALL SWAP2 DUP3 ISZERO PUSH2 0x3104 JUMPI DUP4 SWAP3 PUSH2 0x30D0 JUMPI JUMPDEST POP DUP9 DUP4 MSTORE PUSH1 0x12 PUSH1 0x20 MSTORE PUSH1 0x40 DUP4 KECCAK256 SWAP1 DUP4 MSTORE PUSH1 0x20 MSTORE PUSH1 0x40 DUP3 KECCAK256 SWAP1 DUP3 MSTORE PUSH1 0x20 MSTORE PUSH1 0x40 DUP2 KECCAK256 DUP3 MLOAD DUP2 SSTORE PUSH1 0x20 DUP4 ADD MLOAD PUSH1 0x1 DUP3 ADD SSTORE PUSH1 0x40 DUP4 ADD MLOAD PUSH1 0x2 DUP3 ADD SSTORE PUSH1 0x3 DUP2 ADD PUSH1 0x1 DUP1 PUSH1 0xA0 SHL SUB PUSH1 0x60 DUP6 ADD MLOAD AND SWAP1 PUSH1 0x1 PUSH1 0x1 PUSH1 0x60 SHL SUB PUSH1 0xA0 SHL SWAP2 DUP3 DUP3 SLOAD AND OR SWAP1 SSTORE PUSH1 0x4 DUP3 ADD SWAP1 PUSH1 0x1 DUP1 PUSH1 0xA0 SHL SUB PUSH1 0x80 DUP7 ADD MLOAD AND SWAP1 DUP3 SLOAD AND OR SWAP1 SSTORE PUSH1 0xA0 DUP4 ADD MLOAD PUSH1 0x5 DUP3 ADD SSTORE PUSH1 0xC0 DUP4 ADD MLOAD PUSH1 0x6 DUP3 ADD SSTORE PUSH1 0x7 DUP2 ADD PUSH1 0xE0 DUP5 ADD MLOAD ISZERO ISZERO PUSH1 0xFF DUP1 NOT DUP4 SLOAD AND SWAP2 AND OR SWAP1 SSTORE PUSH1 0x8 PUSH2 0x100 DUP5 ADD MLOAD SWAP2 ADD SSTORE DUP1 CODESIZE PUSH2 0x2DA7 JUMP JUMPDEST SWAP1 SWAP2 POP PUSH1 0x20 DUP2 RETURNDATASIZE PUSH1 0x20 GT PUSH2 0x30FC JUMPI JUMPDEST DUP2 PUSH2 0x30EC PUSH1 0x20 SWAP4 DUP4 PUSH2 0x2B0A JUMP JUMPDEST DUP2 ADD SUB SLT PUSH2 0x1A2 JUMPI MLOAD SWAP1 CODESIZE PUSH2 0x301C JUMP JUMPDEST RETURNDATASIZE SWAP2 POP PUSH2 0x30DF JUMP JUMPDEST PUSH1 0x40 MLOAD RETURNDATASIZE DUP6 DUP3 RETURNDATACOPY RETURNDATASIZE SWAP1 REVERT JUMPDEST PUSH1 0x1 PUSH1 0x1 PUSH1 0x40 SHL SUB DUP2 GT PUSH2 0x3126 JUMPI PUSH1 0x40 MSTORE CODESIZE PUSH2 0x2FCE JUMP JUMPDEST PUSH4 0x4E487B71 PUSH1 0xE0 SHL DUP3 MSTORE PUSH1 0x41 PUSH1 0x4 MSTORE PUSH1 0x24 DUP3 REVERT JUMPDEST PUSH1 0x40 MLOAD RETURNDATASIZE DUP5 DUP3 RETURNDATACOPY RETURNDATASIZE SWAP1 REVERT JUMPDEST DUP4 DUP1 REVERT JUMPDEST POP PUSH1 0x7 DUP12 ADD SLOAD ISZERO PUSH2 0x2DA2 JUMP JUMPDEST PUSH4 0x4E487B71 PUSH1 0xE0 SHL DUP7 MSTORE PUSH1 0x41 PUSH1 0x4 MSTORE PUSH1 0x24 DUP7 REVERT JUMPDEST PUSH1 0xB SLOAD PUSH1 0x2 DUP8 ADD SLOAD PUSH1 0x5 SLOAD PUSH1 0x40 MLOAD PUSH4 0x2B187755 PUSH1 0xE0 SHL DUP2 MSTORE PUSH1 0x4 DUP2 ADD SWAP6 SWAP1 SWAP6 MSTORE PUSH1 0x24 DUP6 ADD SWAP2 SWAP1 SWAP2 MSTORE PUSH1 0x44 DUP5 ADD MSTORE PUSH1 0x20 SWAP1 DUP4 SWAP1 PUSH1 0x64 SWAP1 DUP3 SWAP1 DUP13 SWAP1 PUSH1 0x1 PUSH1 0x1 PUSH1 0xA0 SHL SUB AND GAS CALL DUP1 ISZERO PUSH2 0x3235 JUMPI DUP9 SWAP1 PUSH2 0x31FB JUMPI JUMPDEST PUSH2 0x31F4 SWAP3 POP DUP1 PUSH1 0x5 SSTORE PUSH32 0x57D559AAA778AE17E20A31E208D5763CB05667142A48B6098AF5FB106B0CE8D9 PUSH1 0x20 PUSH1 0x40 MLOAD DUP4 DUP2 MSTORE LOG1 DUP11 DUP11 PUSH2 0x34B4 JUMP JUMPDEST CODESIZE DUP1 PUSH2 0x2D1C JUMP JUMPDEST POP SWAP1 PUSH1 0x20 DUP2 RETURNDATASIZE PUSH1 0x20 GT PUSH2 0x322D JUMPI JUMPDEST DUP2 PUSH2 0x3216 PUSH1 0x20 SWAP4 DUP4 PUSH2 0x2B0A JUMP JUMPDEST DUP2 ADD SUB SLT PUSH2 0x3229 JUMPI SWAP1 PUSH2 0x31F4 SWAP2 MLOAD PUSH2 0x31BA JUMP JUMPDEST DUP8 DUP1 REVERT JUMPDEST RETURNDATASIZE SWAP2 POP PUSH2 0x3209 JUMP JUMPDEST PUSH1 0x40 MLOAD RETURNDATASIZE DUP11 DUP3 RETURNDATACOPY RETURNDATASIZE SWAP1 REVERT JUMPDEST POP PUSH2 0x327F SWAP1 PUSH1 0x3 DUP12 ADD SLOAD DUP1 PUSH1 0x5 SSTORE PUSH32 0x57D559AAA778AE17E20A31E208D5763CB05667142A48B6098AF5FB106B0CE8D9 PUSH1 0x20 PUSH1 0x40 MLOAD DUP4 DUP2 MSTORE LOG1 DUP11 DUP11 PUSH2 0x34B4 JUMP JUMPDEST PUSH2 0x2D1F JUMP JUMPDEST SWAP1 POP PUSH1 0x20 DUP2 RETURNDATASIZE PUSH1 0x20 GT PUSH2 0x32AE JUMPI JUMPDEST DUP2 PUSH2 0x329F PUSH1 0x20 SWAP4 DUP4 PUSH2 0x2B0A JUMP JUMPDEST DUP2 ADD SUB SLT PUSH2 0x3229 JUMPI MLOAD CODESIZE PUSH2 0x2CFC JUMP JUMPDEST RETURNDATASIZE SWAP2 POP PUSH2 0x3292 JUMP JUMPDEST PUSH1 0x6 DUP10 ADD SLOAD DUP2 GT ISZERO PUSH2 0x32C9 JUMPI DUP1 SWAP2 PUSH2 0x2CBC JUMP JUMPDEST PUSH1 0x40 MLOAD PUSH3 0x461BCD PUSH1 0xE5 SHL DUP2 MSTORE PUSH1 0x20 PUSH1 0x4 DUP3 ADD MSTORE PUSH1 0xD PUSH1 0x24 DUP3 ADD MSTORE PUSH13 0x416C7265616479207061696421 PUSH1 0x98 SHL PUSH1 0x44 DUP3 ADD MSTORE PUSH1 0x64 SWAP1 REVERT JUMPDEST DUP6 DUP1 REVERT JUMPDEST PUSH1 0x3 SWAP2 POP PUSH2 0x330F DUP2 PUSH2 0x2A88 JUMP JUMPDEST EQ CODESIZE PUSH2 0x2CAD JUMP JUMPDEST SWAP1 POP PUSH2 0x3321 DUP2 PUSH2 0x2A88 JUMP JUMPDEST PUSH1 0x1 DUP2 EQ SWAP1 PUSH2 0x2CA6 JUMP JUMPDEST PUSH1 0x40 MLOAD PUSH3 0x461BCD PUSH1 0xE5 SHL DUP2 MSTORE PUSH1 0x20 PUSH1 0x4 DUP3 ADD MSTORE PUSH1 0x2B PUSH1 0x24 DUP3 ADD MSTORE PUSH32 0x596F7520646F6E2774206861766520616E7920696E7374616C6C6D656E74206C PUSH1 0x44 DUP3 ADD MSTORE PUSH11 0x65667420746F2070617921 PUSH1 0xA8 SHL PUSH1 0x64 DUP3 ADD MSTORE PUSH1 0x84 SWAP1 REVERT JUMPDEST PUSH1 0x40 MLOAD PUSH3 0x461BCD PUSH1 0xE5 SHL DUP2 MSTORE PUSH1 0x20 PUSH1 0x4 DUP3 ADD MSTORE PUSH1 0x17 PUSH1 0x24 DUP3 ADD MSTORE PUSH32 0x436865636B20746865207469746C652073746174757321000000000000000000 PUSH1 0x44 DUP3 ADD MSTORE PUSH1 0x64 SWAP1 REVERT JUMPDEST SWAP1 SWAP3 SWAP2 SWAP3 PUSH2 0x33D6 DUP2 PUSH2 0x2B2B JUMP JUMPDEST SWAP2 PUSH2 0x33E4 PUSH1 0x40 MLOAD SWAP4 DUP5 PUSH2 0x2B0A JUMP JUMPDEST DUP3 SWAP5 DUP3 DUP5 MSTORE DUP3 DUP3 ADD GT PUSH2 0x1A2 JUMPI PUSH1 0x20 PUSH2 0x33FE SWAP4 ADD SWAP1 PUSH2 0x2A0C JUMP JUMPDEST JUMP JUMPDEST SWAP1 DUP1 PUSH1 0x1F DUP4 ADD SLT ISZERO PUSH2 0x1A2 JUMPI DUP2 MLOAD PUSH2 0x2C2D SWAP3 PUSH1 0x20 ADD PUSH2 0x33C9 JUMP JUMPDEST MLOAD SWAP1 DUP2 ISZERO ISZERO DUP3 SUB PUSH2 0x1A2 JUMPI JUMP JUMPDEST SWAP1 PUSH1 0x60 DUP3 DUP3 SUB SLT PUSH2 0x1A2 JUMPI DUP2 MLOAD SWAP1 PUSH1 0x1 PUSH1 0x1 PUSH1 0x40 SHL SUB DUP3 GT PUSH2 0x1A2 JUMPI PUSH2 0x344E SWAP2 DUP4 ADD PUSH2 0x3400 JUMP JUMPDEST PUSH1 0x20 DUP3 ADD MLOAD SWAP1 SWAP3 SWAP1 PUSH1 0x1 PUSH1 0x1 PUSH1 0xA0 SHL SUB DUP2 AND DUP2 SUB PUSH2 0x1A2 JUMPI PUSH1 0x40 PUSH2 0x2C2D SWAP2 SWAP4 ADD PUSH2 0x341A JUMP JUMPDEST ISZERO PUSH2 0x347A JUMPI JUMP JUMPDEST PUSH1 0x40 MLOAD PUSH3 0x461BCD PUSH1 0xE5 SHL DUP2 MSTORE PUSH1 0x20 PUSH1 0x4 DUP3 ADD MSTORE PUSH1 0x12 PUSH1 0x24 DUP3 ADD MSTORE PUSH18 0x546F6B656E206E6F7420616C6C6F77656421 PUSH1 0x70 SHL PUSH1 0x44 DUP3 ADD MSTORE PUSH1 0x64 SWAP1 REVERT JUMPDEST SWAP3 PUSH1 0x0 SWAP2 DUP5 DUP4 MSTORE PUSH1 0x20 SWAP2 PUSH1 0x10 DUP4 MSTORE PUSH1 0x40 SWAP2 DUP3 DUP6 KECCAK256 SWAP1 DUP6 MSTORE DUP4 MSTORE DUP2 DUP5 KECCAK256 SWAP6 DUP5 MSTORE PUSH1 0xF DUP4 MSTORE DUP2 DUP5 KECCAK256 SWAP1 DUP7 SLOAD PUSH1 0x8 DUP4 ADD SLOAD LT PUSH2 0x3B07 JUMPI PUSH1 0xFF PUSH1 0xC DUP9 ADD SLOAD AND PUSH2 0x34F8 DUP2 PUSH2 0x2A88 JUMP JUMPDEST DUP1 ISZERO SWAP1 DUP2 ISZERO SWAP2 PUSH2 0x3AF2 JUMPI JUMPDEST POP ISZERO PUSH2 0x3A73 JUMPI PUSH1 0x1 PUSH1 0x1 PUSH1 0xA0 SHL SUB SWAP1 DUP2 AND DUP1 ISZERO PUSH2 0x3A37 JUMPI DUP6 DUP3 PUSH1 0xB SLOAD AND SWAP2 DUP6 MLOAD PUSH4 0x8C83DDD3 PUSH1 0xE0 SHL DUP2 MSTORE DUP3 DUP2 PUSH1 0x4 SWAP6 DUP5 DUP8 DUP4 ADD MSTORE DUP2 PUSH1 0x24 SWAP7 DUP8 SWAP3 GAS CALL SWAP1 DUP2 ISZERO PUSH2 0x39DE JUMPI PUSH2 0x355C SWAP2 PUSH1 0x1 SWAP2 DUP12 SWAP2 PUSH2 0x3A1A JUMPI POP ISZERO ISZERO EQ PUSH2 0x3473 JUMP JUMPDEST PUSH1 0x9 DUP1 SLOAD PUSH1 0x1 PUSH1 0x1 PUSH1 0xA0 SHL SUB NOT AND DUP3 OR SWAP1 SSTORE PUSH1 0x3 DUP11 ADD SLOAD DUP10 LT PUSH2 0x39E8 JUMPI DUP6 MLOAD PUSH4 0x70A08231 PUSH1 0xE0 SHL DUP2 MSTORE CALLER DUP5 DUP3 ADD MSTORE DUP8 DUP2 DUP5 DUP2 DUP6 GAS STATICCALL SWAP1 DUP2 ISZERO PUSH2 0x39DE JUMPI SWAP1 DUP11 SWAP2 DUP11 SWAP2 PUSH2 0x39A9 JUMPI JUMPDEST POP LT PUSH2 0x3970 JUMPI DUP7 PUSH1 0x44 SWAP2 DUP8 MLOAD SWAP3 DUP4 DUP1 SWAP3 PUSH4 0x6EB1769F PUSH1 0xE1 SHL DUP3 MSTORE CALLER DUP9 DUP4 ADD MSTORE ADDRESS DUP8 DUP4 ADD MSTORE GAS STATICCALL SWAP1 DUP2 ISZERO PUSH2 0x3747 JUMPI SWAP1 DUP10 SWAP2 DUP10 SWAP2 PUSH2 0x393F JUMPI JUMPDEST POP LT PUSH2 0x38E0 JUMPI POP DUP8 DUP2 ADD SLOAD PUSH2 0x3751 JUMPI PUSH1 0x9 DUP4 ADD SWAP7 DUP8 SLOAD SWAP8 PUSH1 0x6 DUP6 ADD SLOAD SWAP9 DUP10 PUSH2 0x3600 SWAP2 PUSH2 0x2BFE JUMP JUMPDEST SWAP1 SSTORE PUSH1 0x9 SLOAD DUP6 MLOAD PUSH4 0x23B872DD PUSH1 0xE0 SHL DUP1 DUP3 MSTORE CALLER DUP6 DUP4 ADD SWAP1 DUP2 MSTORE ADDRESS PUSH1 0x20 DUP3 ADD MSTORE PUSH1 0x40 DUP2 ADD SWAP12 SWAP1 SWAP12 MSTORE SWAP10 SWAP1 SWAP2 DUP9 SWAP2 DUP4 SWAP2 DUP8 AND SWAP1 DUP3 SWAP1 DUP13 SWAP1 DUP3 SWAP1 PUSH1 0x60 ADD SUB SWAP3 GAS CALL DUP1 ISZERO PUSH2 0x3747 JUMPI SWAP2 DUP9 SWAP2 DUP9 SWAP7 SWAP6 SWAP5 SWAP4 PUSH2 0x3704 JUMPI JUMPDEST POP PUSH2 0x366B SWAP1 PUSH1 0x6 DUP6 PUSH1 0x9 SLOAD AND SWAP6 PUSH1 0xB SLOAD AND SWAP7 ADD SLOAD SWAP1 PUSH2 0x2C30 JUMP JUMPDEST DUP7 MLOAD SWAP10 DUP11 MSTORE CALLER SWAP3 DUP11 ADD SWAP3 DUP4 MSTORE PUSH1 0x1 PUSH1 0x1 PUSH1 0xA0 SHL SUB SWAP1 SWAP5 AND PUSH1 0x20 DUP4 ADD MSTORE PUSH1 0x40 DUP3 ADD SWAP4 SWAP1 SWAP4 MSTORE DUP8 SWAP3 DUP4 SWAP2 DUP3 SWAP1 PUSH1 0x60 ADD SUB SWAP3 GAS CALL SWAP1 DUP2 ISZERO PUSH2 0x36FB JUMPI POP PUSH2 0x36BF JUMPI JUMPDEST POP POP POP PUSH1 0x6 SWAP1 JUMPDEST ADD PUSH2 0x36BB DUP2 SLOAD PUSH2 0x2BA4 JUMP JUMPDEST SWAP1 SSTORE JUMP JUMPDEST DUP3 DUP2 RETURNDATASIZE DUP4 GT PUSH2 0x36F4 JUMPI JUMPDEST PUSH2 0x36D3 DUP2 DUP4 PUSH2 0x2B0A JUMP JUMPDEST DUP2 ADD SUB SLT PUSH2 0x36F1 JUMPI POP SWAP1 PUSH2 0x36E8 PUSH1 0x6 SWAP3 PUSH2 0x341A JUMP JUMPDEST POP SWAP1 CODESIZE DUP1 PUSH2 0x36A9 JUMP JUMPDEST DUP1 REVERT JUMPDEST POP RETURNDATASIZE PUSH2 0x36C9 JUMP JUMPDEST MLOAD RETURNDATASIZE DUP5 DUP3 RETURNDATACOPY RETURNDATASIZE SWAP1 REVERT JUMPDEST DUP1 SWAP3 POP DUP7 SWAP2 SWAP4 SWAP5 SWAP6 SWAP7 RETURNDATASIZE DUP4 GT PUSH2 0x3740 JUMPI JUMPDEST PUSH2 0x371F DUP2 DUP4 PUSH2 0x2B0A JUMP JUMPDEST DUP2 ADD SUB SLT PUSH2 0x3229 JUMPI PUSH2 0x366B DUP8 SWAP6 SWAP5 SWAP4 SWAP3 PUSH2 0x3739 DUP11 SWAP4 PUSH2 0x341A JUMP JUMPDEST POP SWAP1 PUSH2 0x3651 JUMP JUMPDEST POP RETURNDATASIZE PUSH2 0x3715 JUMP JUMPDEST DUP7 MLOAD RETURNDATASIZE DUP11 DUP3 RETURNDATACOPY RETURNDATASIZE SWAP1 REVERT JUMPDEST PUSH2 0x3774 PUSH1 0x9 DUP5 ADD SWAP4 PUSH1 0x6 DUP6 SLOAD SWAP2 ADD SWAP5 PUSH2 0x376C DUP7 SLOAD DUP1 SWAP4 PUSH2 0x2BFE JUMP JUMPDEST SWAP1 SSTORE DUP9 PUSH2 0x2C30 JUMP JUMPDEST ISZERO PUSH2 0x38A7 JUMPI PUSH1 0x9 SLOAD DUP4 SLOAD DUP6 MLOAD PUSH4 0x23B872DD PUSH1 0xE0 SHL DUP1 DUP3 MSTORE CALLER DUP6 DUP4 ADD SWAP1 DUP2 MSTORE ADDRESS PUSH1 0x20 DUP3 ADD MSTORE PUSH1 0x40 DUP2 ADD SWAP4 SWAP1 SWAP4 MSTORE SWAP10 SWAP3 SWAP1 SWAP2 DUP9 SWAP2 DUP4 SWAP2 DUP3 SWAP1 SUB PUSH1 0x60 ADD SWAP1 DUP3 SWAP1 DUP13 SWAP1 DUP10 AND GAS CALL DUP1 ISZERO PUSH2 0x3747 JUMPI SWAP2 DUP9 SWAP2 DUP9 SWAP7 SWAP6 SWAP5 SWAP4 PUSH2 0x3864 JUMPI JUMPDEST POP PUSH2 0x37E1 SWAP1 DUP5 PUSH1 0x9 SLOAD AND SWAP5 PUSH1 0xB SLOAD AND SWAP6 SLOAD SWAP1 PUSH2 0x2C30 JUMP JUMPDEST DUP7 MLOAD SWAP10 DUP11 MSTORE CALLER SWAP3 DUP11 ADD SWAP3 DUP4 MSTORE PUSH1 0x1 PUSH1 0x1 PUSH1 0xA0 SHL SUB SWAP1 SWAP5 AND PUSH1 0x20 DUP4 ADD MSTORE PUSH1 0x40 DUP3 ADD SWAP4 SWAP1 SWAP4 MSTORE DUP8 SWAP3 DUP4 SWAP2 DUP3 SWAP1 PUSH1 0x60 ADD JUMPDEST SUB SWAP3 GAS CALL SWAP1 DUP2 ISZERO PUSH2 0x36FB JUMPI POP PUSH2 0x382B JUMPI JUMPDEST POP POP POP PUSH1 0x6 SWAP1 PUSH2 0x36B0 JUMP JUMPDEST DUP3 DUP2 RETURNDATASIZE DUP4 GT PUSH2 0x385D JUMPI JUMPDEST PUSH2 0x383F DUP2 DUP4 PUSH2 0x2B0A JUMP JUMPDEST DUP2 ADD SUB SLT PUSH2 0x36F1 JUMPI POP SWAP1 PUSH2 0x3854 PUSH1 0x6 SWAP3 PUSH2 0x341A JUMP JUMPDEST POP SWAP1 CODESIZE DUP1 PUSH2 0x3820 JUMP JUMPDEST POP RETURNDATASIZE PUSH2 0x3835 JUMP JUMPDEST DUP1 SWAP3 POP DUP7 SWAP2 SWAP4 SWAP5 SWAP6 SWAP7 RETURNDATASIZE DUP4 GT PUSH2 0x38A0 JUMPI JUMPDEST PUSH2 0x387F DUP2 DUP4 PUSH2 0x2B0A JUMP JUMPDEST DUP2 ADD SUB SLT PUSH2 0x3229 JUMPI PUSH2 0x37E1 DUP8 SWAP6 SWAP5 SWAP4 SWAP3 PUSH2 0x3899 DUP11 SWAP4 PUSH2 0x341A JUMP JUMPDEST POP SWAP1 PUSH2 0x37CA JUMP JUMPDEST POP RETURNDATASIZE PUSH2 0x3875 JUMP JUMPDEST PUSH1 0x9 SLOAD DUP5 MLOAD PUSH4 0x23B872DD PUSH1 0xE0 SHL DUP2 MSTORE CALLER SWAP3 DUP2 ADD SWAP3 DUP4 MSTORE ADDRESS PUSH1 0x20 DUP5 ADD MSTORE PUSH1 0x40 DUP4 ADD SWAP9 SWAP1 SWAP9 MSTORE DUP6 SWAP4 POP DUP8 SWAP3 AND SWAP1 DUP3 SWAP1 DUP8 SWAP1 DUP3 SWAP1 PUSH1 0x60 ADD PUSH2 0x380F JUMP JUMPDEST DUP5 MLOAD PUSH3 0x461BCD PUSH1 0xE5 SHL DUP2 MSTORE SWAP2 DUP3 ADD DUP7 SWAP1 MSTORE PUSH1 0x34 SWAP1 DUP3 ADD MSTORE PUSH32 0x596F75206D75737420617070726F76652074686520636F6E747261637420746F PUSH1 0x44 DUP3 ADD MSTORE PUSH20 0x207472616E736665722074686520746F6B656E73 PUSH1 0x60 SHL PUSH1 0x64 DUP3 ADD MSTORE PUSH1 0x84 SWAP1 REVERT JUMPDEST DUP1 SWAP3 POP DUP9 DUP1 SWAP3 POP RETURNDATASIZE DUP4 GT PUSH2 0x3969 JUMPI JUMPDEST PUSH2 0x3958 DUP2 DUP4 PUSH2 0x2B0A JUMP JUMPDEST DUP2 ADD SUB SLT PUSH2 0x3229 JUMPI DUP9 SWAP1 MLOAD CODESIZE PUSH2 0x35D9 JUMP JUMPDEST POP RETURNDATASIZE PUSH2 0x394E JUMP JUMPDEST DUP6 MLOAD PUSH3 0x461BCD PUSH1 0xE5 SHL DUP2 MSTORE DUP1 DUP5 ADD DUP9 SWAP1 MSTORE PUSH1 0x14 DUP2 DUP5 ADD MSTORE PUSH20 0x496E73756666696369656E742062616C616E6365 PUSH1 0x60 SHL PUSH1 0x44 DUP3 ADD MSTORE PUSH1 0x64 SWAP1 REVERT JUMPDEST DUP1 SWAP3 POP DUP10 DUP1 SWAP3 POP RETURNDATASIZE DUP4 GT PUSH2 0x39D7 JUMPI JUMPDEST PUSH2 0x39C2 DUP2 DUP4 PUSH2 0x2B0A JUMP JUMPDEST DUP2 ADD SUB SLT PUSH2 0x39D3 JUMPI DUP10 SWAP1 MLOAD CODESIZE PUSH2 0x35A2 JUMP JUMPDEST DUP9 DUP1 REVERT JUMPDEST POP RETURNDATASIZE PUSH2 0x39B8 JUMP JUMPDEST DUP8 MLOAD RETURNDATASIZE DUP12 DUP3 RETURNDATACOPY RETURNDATASIZE SWAP1 REVERT JUMPDEST DUP6 MLOAD PUSH3 0x461BCD PUSH1 0xE5 SHL DUP2 MSTORE DUP1 DUP5 ADD DUP9 SWAP1 MSTORE PUSH1 0xD DUP2 DUP5 ADD MSTORE PUSH13 0x57726F6E672076616C75652121 PUSH1 0x98 SHL PUSH1 0x44 DUP3 ADD MSTORE PUSH1 0x64 SWAP1 REVERT JUMPDEST PUSH2 0x3A2E SWAP2 POP RETURNDATASIZE DUP1 DUP14 DUP4 RETURNDATACOPY PUSH2 0x1EE0 DUP2 DUP4 PUSH2 0x2B0A JUMP JUMPDEST SWAP2 POP POP CODESIZE PUSH2 0x1D29 JUMP JUMPDEST DUP4 MLOAD PUSH3 0x461BCD PUSH1 0xE5 SHL DUP2 MSTORE PUSH1 0x4 DUP2 ADD DUP7 SWAP1 MSTORE PUSH1 0x15 PUSH1 0x24 DUP3 ADD MSTORE PUSH21 0x456E746572206120746F6B656E2061646472657373 PUSH1 0x58 SHL PUSH1 0x44 DUP3 ADD MSTORE PUSH1 0x64 SWAP1 REVERT JUMPDEST DUP3 MLOAD PUSH3 0x461BCD PUSH1 0xE5 SHL DUP2 MSTORE PUSH1 0x4 DUP2 ADD DUP6 SWAP1 MSTORE PUSH1 0x4C PUSH1 0x24 DUP3 ADD MSTORE PUSH32 0x796F7572207469746C6520616C72656164792068617665206265656E2066696E PUSH1 0x44 DUP3 ADD MSTORE PUSH32 0x616C697A6564206F722063616E63656C65642E20506C6561736520636865636B PUSH1 0x64 DUP3 ADD MSTORE PUSH12 0x103A34329039BA30BA3AB997 PUSH1 0xA1 SHL PUSH1 0x84 DUP3 ADD MSTORE PUSH1 0xA4 SWAP1 REVERT JUMPDEST PUSH1 0x4 SWAP2 POP PUSH2 0x3AFF DUP2 PUSH2 0x2A88 JUMP JUMPDEST EQ ISZERO CODESIZE PUSH2 0x3503 JUMP JUMPDEST DUP3 MLOAD PUSH3 0x461BCD PUSH1 0xE5 SHL DUP2 MSTORE PUSH1 0x4 DUP2 ADD DUP6 SWAP1 MSTORE PUSH1 0x29 PUSH1 0x24 DUP3 ADD MSTORE PUSH32 0x456E74657220612076616C696420636F6E747261637420496420666F72207468 PUSH1 0x44 DUP3 ADD MSTORE PUSH9 0x6973205469746C6521 PUSH1 0xB8 SHL PUSH1 0x64 DUP3 ADD MSTORE PUSH1 0x84 SWAP1 REVERT JUMPDEST SWAP1 PUSH32 0x612A8A5548125C3DB9F13B41025DF2C888D69F8A0351889CD94BD21A45DD34B SWAP2 PUSH2 0x2EEE PUSH1 0xB PUSH1 0x0 DUP4 DUP2 MSTORE PUSH1 0xF PUSH1 0x20 MSTORE PUSH1 0x40 DUP2 KECCAK256 SWAP1 PUSH1 0x10 PUSH1 0x20 MSTORE PUSH1 0x40 DUP2 KECCAK256 DUP7 DUP3 MSTORE PUSH1 0x20 MSTORE PUSH2 0x3BBA PUSH1 0x40 DUP3 KECCAK256 SWAP3 PUSH1 0x6 DUP1 DUP6 ADD SLOAD SWAP2 ADD SLOAD SWAP1 PUSH2 0x2BB3 JUMP JUMPDEST PUSH1 0x1 DUP4 ADD SLOAD DUP1 DUP3 LT PUSH2 0x3BEC JUMPI POP POP DUP3 DUP3 ADD SSTORE JUMPDEST ADD SLOAD PUSH1 0x40 MLOAD SWAP4 DUP5 SWAP4 DUP5 PUSH1 0x40 SWAP2 SWAP5 SWAP4 SWAP3 PUSH1 0x60 DUP3 ADD SWAP6 DUP3 MSTORE PUSH1 0x20 DUP3 ADD MSTORE ADD MSTORE JUMP JUMPDEST PUSH2 0x3BF6 SWAP3 POP PUSH2 0x2C30 JUMP JUMPDEST DUP3 DUP3 ADD SSTORE PUSH2 0x3BCD JUMP JUMPDEST ISZERO PUSH2 0x3C06 JUMPI JUMP JUMPDEST PUSH1 0x40 MLOAD PUSH3 0x461BCD PUSH1 0xE5 SHL DUP2 MSTORE PUSH1 0x20 PUSH1 0x4 DUP3 ADD MSTORE PUSH1 0x1E PUSH1 0x24 DUP3 ADD MSTORE PUSH32 0x596F7520686176656E2774206265656E2073656C656374656420796574210000 PUSH1 0x44 DUP3 ADD MSTORE PUSH1 0x64 SWAP1 REVERT JUMPDEST ISZERO PUSH2 0x3C52 JUMPI JUMP JUMPDEST PUSH1 0x40 MLOAD PUSH3 0x461BCD PUSH1 0xE5 SHL DUP2 MSTORE PUSH1 0x20 PUSH1 0x4 DUP3 ADD MSTORE PUSH1 0x23 PUSH1 0x24 DUP3 ADD MSTORE PUSH32 0x4F6E6C7920746865206F776E65722063616E20616464206120636F6C61746572 PUSH1 0x44 DUP3 ADD MSTORE PUSH3 0x616C21 PUSH1 0xE8 SHL PUSH1 0x64 DUP3 ADD MSTORE PUSH1 0x84 SWAP1 REVERT JUMPDEST PUSH8 0xCCF0A31A221F3C9B DUP2 MSTORE PUSH1 0x1 PUSH1 0x1 PUSH1 0xA0 SHL SUB SWAP1 SWAP2 AND PUSH1 0x20 DUP3 ADD MSTORE PUSH1 0x60 PUSH1 0x40 DUP3 ADD DUP2 SWAP1 MSTORE PUSH2 0x2C2D SWAP3 SWAP2 ADD SWAP1 PUSH2 0x2A2F JUMP JUMPDEST SWAP1 PUSH1 0x0 SWAP1 DUP3 DUP3 MSTORE PUSH1 0x20 SWAP1 PUSH1 0x10 DUP3 MSTORE PUSH1 0x40 SWAP1 DUP2 DUP5 KECCAK256 DUP2 DUP6 MSTORE DUP4 MSTORE DUP2 DUP5 KECCAK256 SWAP1 PUSH1 0x6 DUP3 ADD SLOAD PUSH1 0x2 DUP4 ADD SLOAD EQ DUP1 ISZERO PUSH2 0x3F0F JUMPI PUSH1 0xC DUP4 ADD SWAP1 PUSH1 0x1 PUSH1 0xFF DUP4 SLOAD PUSH1 0x8 SHR AND ISZERO ISZERO SUB PUSH2 0x3EAD JUMPI DUP1 DUP1 PUSH2 0x3E97 JUMPI JUMPDEST ISZERO PUSH2 0x3DEF JUMPI POP POP SWAP1 PUSH1 0xB DUP5 SWAP6 SWAP7 PUSH2 0x3DAC SWAP6 SWAP4 PUSH2 0x3D5B PUSH1 0x7 DUP6 ADD SLOAD SWAP2 PUSH2 0x1152 DUP9 MLOAD SWAP4 DUP5 SWAP3 DUP10 DUP5 ADD SWAP7 DUP8 SWAP2 PUSH1 0x60 SWAP4 SWAP2 DUP4 MSTORE PUSH1 0x20 DUP4 ADD MSTORE PUSH1 0x40 DUP3 ADD MSTORE ADD SWAP1 JUMP JUMPDEST MLOAD SWAP1 KECCAK256 SWAP2 ADD SLOAD DUP4 MLOAD SWAP2 DUP4 DUP4 ADD MSTORE DUP4 DUP3 ADD MSTORE DUP6 PUSH1 0x60 DUP3 ADD MSTORE PUSH1 0x60 DUP2 MSTORE PUSH2 0x3D7F DUP2 PUSH2 0x2AEF JUMP JUMPDEST PUSH1 0x1 DUP1 PUSH1 0xA0 SHL SUB DUP1 PUSH1 0xE SLOAD AND SWAP1 PUSH1 0x7 SLOAD AND DUP8 DUP6 MLOAD DUP1 SWAP8 DUP2 SWAP6 DUP3 SWAP5 PUSH4 0xA30E377 PUSH1 0xE4 SHL DUP5 MSTORE PUSH1 0x4 DUP5 ADD PUSH2 0x3CA3 JUMP JUMPDEST SUB SWAP3 GAS CALL SWAP1 DUP2 ISZERO PUSH2 0x3DE6 JUMPI POP PUSH2 0x3DC1 JUMPI POP POP POP JUMP JUMPDEST DUP2 RETURNDATASIZE DUP4 GT PUSH2 0x3DDF JUMPI JUMPDEST PUSH2 0x3DD4 DUP2 DUP4 PUSH2 0x2B0A JUMP JUMPDEST DUP2 ADD SUB SLT PUSH2 0x36F1 JUMPI POP JUMP JUMPDEST POP RETURNDATASIZE PUSH2 0x3DCA JUMP JUMPDEST MLOAD RETURNDATASIZE DUP6 DUP3 RETURNDATACOPY RETURNDATASIZE SWAP1 REVERT JUMPDEST SWAP1 SWAP7 SWAP5 SWAP4 SWAP3 DUP2 PUSH2 0x3E89 JUMPI JUMPDEST POP PUSH2 0x3E08 JUMPI JUMPDEST POP POP POP POP POP POP JUMP JUMPDEST PUSH1 0x5 SWAP4 DUP6 MSTORE PUSH1 0x14 DUP4 MSTORE DUP2 DUP6 KECCAK256 SWAP1 DUP6 MSTORE DUP3 MSTORE DUP1 DUP5 KECCAK256 SWAP4 DUP2 MLOAD SWAP5 PUSH2 0x3E29 DUP7 PUSH2 0x2AD4 JUMP JUMPDEST PUSH1 0x1 DUP1 PUSH1 0xA0 SHL SUB SWAP4 DUP5 DUP3 SLOAD AND DUP8 MSTORE PUSH1 0x2 PUSH1 0x1 DUP4 ADD SLOAD SWAP3 DUP4 DUP4 DUP11 ADD MSTORE ADD SLOAD SWAP2 DUP5 DUP9 ADD SWAP3 DUP4 MSTORE DUP4 MSTORE PUSH1 0x10 DUP2 MSTORE DUP4 DUP4 KECCAK256 SWAP2 MLOAD DUP4 MSTORE MSTORE KECCAK256 SWAP3 MLOAD AND SWAP2 ADD SWAP1 PUSH1 0x1 PUSH1 0x1 PUSH1 0x60 SHL SUB PUSH1 0xA0 SHL DUP3 SLOAD AND OR SWAP1 SSTORE PUSH1 0x4 PUSH1 0xFF NOT DUP3 SLOAD AND OR SWAP1 SSTORE CODESIZE DUP1 DUP1 DUP1 DUP1 DUP1 PUSH2 0x3E00 JUMP JUMPDEST PUSH1 0x8 SWAP2 POP ADD SLOAD ISZERO ISZERO CODESIZE PUSH2 0x3DFA JUMP JUMPDEST POP PUSH1 0xA DUP5 ADD SLOAD PUSH1 0x1 PUSH1 0x1 PUSH1 0xA0 SHL SUB AND ISZERO ISZERO PUSH2 0x3D1E JUMP JUMPDEST DUP5 MLOAD PUSH3 0x461BCD PUSH1 0xE5 SHL DUP2 MSTORE PUSH1 0x4 DUP2 ADD DUP8 SWAP1 MSTORE PUSH1 0x35 PUSH1 0x24 DUP3 ADD MSTORE PUSH32 0x596F752063616E27742072657472696576652074686520636F6C61746572616C PUSH1 0x44 DUP3 ADD MSTORE PUSH21 0x206265666F72652074686520776974686472617721 PUSH1 0x58 SHL PUSH1 0x64 DUP3 ADD MSTORE PUSH1 0x84 SWAP1 REVERT JUMPDEST DUP4 MLOAD PUSH3 0x461BCD PUSH1 0xE5 SHL DUP2 MSTORE PUSH1 0x4 DUP2 ADD DUP7 SWAP1 MSTORE PUSH1 0x29 PUSH1 0x24 DUP3 ADD MSTORE PUSH32 0x416C6C2074686520696E7374616C6C6D656E7473206D75737420686176652062 PUSH1 0x44 DUP3 ADD MSTORE PUSH9 0x65656E207061696421 PUSH1 0xB8 SHL PUSH1 0x64 DUP3 ADD MSTORE PUSH1 0x84 SWAP1 REVERT JUMPDEST ISZERO PUSH2 0x3F6C JUMPI JUMP JUMPDEST PUSH1 0x40 MLOAD PUSH3 0x461BCD PUSH1 0xE5 SHL DUP2 MSTORE PUSH1 0x20 PUSH1 0x4 DUP3 ADD MSTORE PUSH1 0x11 PUSH1 0x24 DUP3 ADD MSTORE PUSH17 0x151BDAD95B881B9BDD08185B1B1BDDD959 PUSH1 0x7A SHL PUSH1 0x44 DUP3 ADD MSTORE PUSH1 0x64 SWAP1 REVERT JUMPDEST ISZERO PUSH2 0x3FAC JUMPI JUMP JUMPDEST PUSH1 0x40 MLOAD PUSH3 0x461BCD PUSH1 0xE5 SHL DUP2 MSTORE PUSH1 0x20 PUSH1 0x4 DUP3 ADD MSTORE PUSH1 0x1D PUSH1 0x24 DUP3 ADD MSTORE PUSH32 0x5468652063616C6C6572206D75737420626520746865206F776E657221000000 PUSH1 0x44 DUP3 ADD MSTORE PUSH1 0x64 SWAP1 REVERT JUMPDEST SWAP1 PUSH1 0x1 DUP3 DUP2 SHR SWAP3 AND DUP1 ISZERO PUSH2 0x4021 JUMPI JUMPDEST PUSH1 0x20 DUP4 LT EQ PUSH2 0x400B JUMPI JUMP JUMPDEST PUSH4 0x4E487B71 PUSH1 0xE0 SHL PUSH1 0x0 MSTORE PUSH1 0x22 PUSH1 0x4 MSTORE PUSH1 0x24 PUSH1 0x0 REVERT JUMPDEST SWAP2 PUSH1 0x7F AND SWAP2 PUSH2 0x4000 JUMP JUMPDEST PUSH1 0x40 MLOAD SWAP1 PUSH1 0x0 DUP3 PUSH1 0x1 SWAP2 DUP3 SLOAD SWAP3 PUSH2 0x4041 DUP5 PUSH2 0x3FF1 JUMP JUMPDEST DUP1 DUP5 MSTORE SWAP4 DUP2 DUP2 AND SWAP1 DUP2 ISZERO PUSH2 0x40C2 JUMPI POP PUSH1 0x1 EQ PUSH2 0x4065 JUMPI JUMPDEST POP PUSH2 0x33FE SWAP3 POP SUB DUP4 PUSH2 0x2B0A JUMP JUMPDEST PUSH1 0x0 DUP2 DUP2 MSTORE SWAP2 POP PUSH32 0xB10E2D527612073B26EECDFD717E6A320CF44B4AFAC2B0732D9FCBE2B7FA0CF6 JUMPDEST DUP5 DUP4 LT PUSH2 0x40A7 JUMPI POP PUSH2 0x33FE SWAP4 POP POP DUP2 ADD PUSH1 0x20 ADD CODESIZE PUSH2 0x4058 JUMP JUMPDEST DUP2 SWAP4 POP SWAP1 DUP2 PUSH1 0x20 SWAP3 SLOAD DUP4 DUP6 DUP11 ADD ADD MSTORE ADD SWAP2 ADD SWAP1 SWAP2 DUP6 SWAP3 PUSH2 0x408E JUMP JUMPDEST SWAP1 POP PUSH1 0x20 SWAP3 POP PUSH2 0x33FE SWAP5 SWAP2 POP PUSH1 0xFF NOT AND DUP3 DUP5 ADD MSTORE ISZERO ISZERO PUSH1 0x5 SHL DUP3 ADD ADD CODESIZE PUSH2 0x4058 JUMP JUMPDEST MLOAD SWAP1 PUSH1 0x1 PUSH1 0x1 PUSH1 0xA0 SHL SUB DUP3 AND DUP3 SUB PUSH2 0x1A2 JUMPI JUMP INVALID LOG2 PUSH5 0x6970667358 0x22 SLT KECCAK256 NOT SLT AND PUSH1 0x5B EXTCODEHASH 0x1E 0xB3 0xF8 PUSH28 0x92CB8DA3061CECBB4E6EFEAFD666834FB5D18587FA4E64736F6C6343 STOP ADDMOD EQ STOP CALLER "},"gasEstimates":{"creation":{"codeDepositCost":"3337200","executionCost":"infinite","totalCost":"infinite"},"external":{"addRWAColateral(uint256,uint256)":"infinite","addReceiver(address)":"24703","addSender(address)":"27137","addSourceChain(uint64)":"27206","addTitleAsColateral(uint256,uint256,uint256,uint256)":"infinite","allTitles(uint256)":"28206","buyTitle(uint64,bool,address)":"infinite","ccipReceive((bytes32,uint64,bytes,bytes,(address,uint256)[]))":"infinite","colateralInfos(uint256,uint256)":"7100","createTitle(uint256,uint256,uint256,uint256)":"infinite","drawInfos(uint256,uint256)":"17710","getLastReceivedMessageDetails()":"infinite","getRouter()":"infinite","monthlyVRFWinner(uint256)":"infinite","payInstallment(uint256,uint256,uint256,address)":"infinite","protocolWithdraw(uint256,address)":"infinite","receiveVRFRandomNumber(uint256)":"infinite","refundColateral(uint256,uint256)":"infinite","removeSender(address)":"27109","removelistSourceChain(uint64)":"27263","selectorVRF(uint256,uint256,uint256)":"19637","supportsInterface(bytes4)":"271","titleSoldInfos(uint256,uint256)":"28184","updateTitleStatus(uint256)":"infinite","verifyLatePayments(uint256,uint256)":"infinite","whitelistedSenders(address)":"2487","whitelistedSourceChains(uint64)":"2685","winnerWithdraw(uint256,uint256,address)":"infinite"},"internal":{"_ccipReceive(struct Client.Any2EVMMessage memory)":"infinite","receiveInstallment(uint256,uint256,uint256,contract IERC20)":"infinite","updateValueOfEnsurance(uint256,uint256)":"infinite"}},"methodIdentifiers":{"addRWAColateral(uint256,uint256)":"8f9fce70","addReceiver(address)":"69d83ed1","addSender(address)":"b697f531","addSourceChain(uint64)":"c5ec1c7a","addTitleAsColateral(uint256,uint256,uint256,uint256)":"2d7c0b7f","allTitles(uint256)":"8a12312c","buyTitle(uint64,bool,address)":"ba658a44","ccipReceive((bytes32,uint64,bytes,bytes,(address,uint256)[]))":"85572ffb","colateralInfos(uint256,uint256)":"ad3b6da3","createTitle(uint256,uint256,uint256,uint256)":"643233e5","drawInfos(uint256,uint256)":"ab922631","getLastReceivedMessageDetails()":"263596a5","getRouter()":"b0f479a1","monthlyVRFWinner(uint256)":"9beaf731","payInstallment(uint256,uint256,uint256,address)":"c39622f8","protocolWithdraw(uint256,address)":"4c67469c","receiveVRFRandomNumber(uint256)":"d0ade9d5","refundColateral(uint256,uint256)":"58a15a2e","removeSender(address)":"b2f87643","removelistSourceChain(uint64)":"ff46ed53","selectorVRF(uint256,uint256,uint256)":"4991126d","supportsInterface(bytes4)":"01ffc9a7","titleSoldInfos(uint256,uint256)":"31ae0df6","updateTitleStatus(uint256)":"d762a160","verifyLatePayments(uint256,uint256)":"23478654","whitelistedSenders(address)":"272efc69","whitelistedSourceChains(uint64)":"7dc91a02","winnerWithdraw(uint256,uint256,address)":"4facbacb"}},"storageLayout":{"storage":[{"astId":3661,"contract":"contracts/Horizon.sol:Horizon","label":"lastReceivedMessageId","offset":0,"slot":"0","type":"t_bytes32"},{"astId":3663,"contract":"contracts/Horizon.sol:Horizon","label":"lastReceivedText","offset":0,"slot":"1","type":"t_bytes_storage"},{"astId":3667,"contract":"contracts/Horizon.sol:Horizon","label":"whitelistedSourceChains","offset":0,"slot":"2","type":"t_mapping(t_uint64,t_bool)"},{"astId":3671,"contract":"contracts/Horizon.sol:Horizon","label":"whitelistedSenders","offset":0,"slot":"3","type":"t_mapping(t_address,t_bool)"},{"astId":3674,"contract":"contracts/Horizon.sol:Horizon","label":"titleId","offset":0,"slot":"4","type":"t_uint256"},{"astId":3676,"contract":"contracts/Horizon.sol:Horizon","label":"amountToPay","offset":0,"slot":"5","type":"t_uint256"},{"astId":3678,"contract":"contracts/Horizon.sol:Horizon","label":"paymentDelay","offset":0,"slot":"6","type":"t_uint256"},{"astId":3680,"contract":"contracts/Horizon.sol:Horizon","label":"fujiReceiver","offset":0,"slot":"7","type":"t_address"},{"astId":3682,"contract":"contracts/Horizon.sol:Horizon","label":"owner","offset":0,"slot":"8","type":"t_address"},{"astId":3847,"contract":"contracts/Horizon.sol:Horizon","label":"status","offset":20,"slot":"8","type":"t_enum(TitleStatus)3844"},{"astId":3856,"contract":"contracts/Horizon.sol:Horizon","label":"myTitleStatus","offset":21,"slot":"8","type":"t_enum(MyTitleWithdraw)3853"},{"astId":3967,"contract":"contracts/Horizon.sol:Horizon","label":"stablecoin","offset":0,"slot":"9","type":"t_contract(IERC20)827"},{"astId":3970,"contract":"contracts/Horizon.sol:Horizon","label":"nftToken","offset":0,"slot":"10","type":"t_contract(IERC721)1953"},{"astId":3976,"contract":"contracts/Horizon.sol:Horizon","label":"staff","offset":0,"slot":"11","type":"t_contract(HorizonStaff)7750"},{"astId":3982,"contract":"contracts/Horizon.sol:Horizon","label":"vrfv2consumer","offset":0,"slot":"12","type":"t_contract(HorizonVRF)8040"},{"astId":3988,"contract":"contracts/Horizon.sol:Horizon","label":"receipt","offset":0,"slot":"13","type":"t_contract(HorizonReceipt)6417"},{"astId":3997,"contract":"contracts/Horizon.sol:Horizon","label":"sender","offset":0,"slot":"14","type":"t_contract(HorizonS)6966"},{"astId":4002,"contract":"contracts/Horizon.sol:Horizon","label":"allTitles","offset":0,"slot":"15","type":"t_mapping(t_uint256,t_struct(Titles)3884_storage)"},{"astId":4009,"contract":"contracts/Horizon.sol:Horizon","label":"titleSoldInfos","offset":0,"slot":"16","type":"t_mapping(t_uint256,t_mapping(t_uint256,t_struct(TitlesSold)3914_storage))"},{"astId":4016,"contract":"contracts/Horizon.sol:Horizon","label":"drawInfos","offset":0,"slot":"17","type":"t_mapping(t_uint256,t_mapping(t_uint256,t_struct(Draw)3950_storage))"},{"astId":4025,"contract":"contracts/Horizon.sol:Horizon","label":"selectorVRF","offset":0,"slot":"18","type":"t_mapping(t_uint256,t_mapping(t_uint256,t_mapping(t_uint256,t_struct(TitleRecord)3933_storage)))"},{"astId":4030,"contract":"contracts/Horizon.sol:Horizon","label":"permissionInfo","offset":0,"slot":"19","type":"t_mapping(t_bytes32,t_struct(FujiPermissions)3964_storage)"},{"astId":4037,"contract":"contracts/Horizon.sol:Horizon","label":"colateralInfos","offset":0,"slot":"20","type":"t_mapping(t_uint256,t_mapping(t_uint256,t_struct(ColateralTitles)3957_storage))"}],"types":{"t_address":{"encoding":"inplace","label":"address","numberOfBytes":"20"},"t_bool":{"encoding":"inplace","label":"bool","numberOfBytes":"1"},"t_bytes32":{"encoding":"inplace","label":"bytes32","numberOfBytes":"32"},"t_bytes_storage":{"encoding":"bytes","label":"bytes","numberOfBytes":"32"},"t_contract(HorizonReceipt)6417":{"encoding":"inplace","label":"contract HorizonReceipt","numberOfBytes":"20"},"t_contract(HorizonS)6966":{"encoding":"inplace","label":"contract HorizonS","numberOfBytes":"20"},"t_contract(HorizonStaff)7750":{"encoding":"inplace","label":"contract HorizonStaff","numberOfBytes":"20"},"t_contract(HorizonVRF)8040":{"encoding":"inplace","label":"contract HorizonVRF","numberOfBytes":"20"},"t_contract(IERC20)827":{"encoding":"inplace","label":"contract IERC20","numberOfBytes":"20"},"t_contract(IERC721)1953":{"encoding":"inplace","label":"contract IERC721","numberOfBytes":"20"},"t_enum(MyTitleWithdraw)3853":{"encoding":"inplace","label":"enum Horizon.MyTitleWithdraw","numberOfBytes":"1"},"t_enum(TitleStatus)3844":{"encoding":"inplace","label":"enum Horizon.TitleStatus","numberOfBytes":"1"},"t_mapping(t_address,t_bool)":{"encoding":"mapping","key":"t_address","label":"mapping(address => bool)","numberOfBytes":"32","value":"t_bool"},"t_mapping(t_bytes32,t_struct(FujiPermissions)3964_storage)":{"encoding":"mapping","key":"t_bytes32","label":"mapping(bytes32 => struct Horizon.FujiPermissions)","numberOfBytes":"32","value":"t_struct(FujiPermissions)3964_storage"},"t_mapping(t_uint256,t_mapping(t_uint256,t_mapping(t_uint256,t_struct(TitleRecord)3933_storage)))":{"encoding":"mapping","key":"t_uint256","label":"mapping(uint256 => mapping(uint256 => mapping(uint256 => struct Horizon.TitleRecord)))","numberOfBytes":"32","value":"t_mapping(t_uint256,t_mapping(t_uint256,t_struct(TitleRecord)3933_storage))"},"t_mapping(t_uint256,t_mapping(t_uint256,t_struct(ColateralTitles)3957_storage))":{"encoding":"mapping","key":"t_uint256","label":"mapping(uint256 => mapping(uint256 => struct Horizon.ColateralTitles))","numberOfBytes":"32","value":"t_mapping(t_uint256,t_struct(ColateralTitles)3957_storage)"},"t_mapping(t_uint256,t_mapping(t_uint256,t_struct(Draw)3950_storage))":{"encoding":"mapping","key":"t_uint256","label":"mapping(uint256 => mapping(uint256 => struct Horizon.Draw))","numberOfBytes":"32","value":"t_mapping(t_uint256,t_struct(Draw)3950_storage)"},"t_mapping(t_uint256,t_mapping(t_uint256,t_struct(TitleRecord)3933_storage))":{"encoding":"mapping","key":"t_uint256","label":"mapping(uint256 => mapping(uint256 => struct Horizon.TitleRecord))","numberOfBytes":"32","value":"t_mapping(t_uint256,t_struct(TitleRecord)3933_storage)"},"t_mapping(t_uint256,t_mapping(t_uint256,t_struct(TitlesSold)3914_storage))":{"encoding":"mapping","key":"t_uint256","label":"mapping(uint256 => mapping(uint256 => struct Horizon.TitlesSold))","numberOfBytes":"32","value":"t_mapping(t_uint256,t_struct(TitlesSold)3914_storage)"},"t_mapping(t_uint256,t_struct(ColateralTitles)3957_storage)":{"encoding":"mapping","key":"t_uint256","label":"mapping(uint256 => struct Horizon.ColateralTitles)","numberOfBytes":"32","value":"t_struct(ColateralTitles)3957_storage"},"t_mapping(t_uint256,t_struct(Draw)3950_storage)":{"encoding":"mapping","key":"t_uint256","label":"mapping(uint256 => struct Horizon.Draw)","numberOfBytes":"32","value":"t_struct(Draw)3950_storage"},"t_mapping(t_uint256,t_struct(TitleRecord)3933_storage)":{"encoding":"mapping","key":"t_uint256","label":"mapping(uint256 => struct Horizon.TitleRecord)","numberOfBytes":"32","value":"t_struct(TitleRecord)3933_storage"},"t_mapping(t_uint256,t_struct(Titles)3884_storage)":{"encoding":"mapping","key":"t_uint256","label":"mapping(uint256 => struct Horizon.Titles)","numberOfBytes":"32","value":"t_struct(Titles)3884_storage"},"t_mapping(t_uint256,t_struct(TitlesSold)3914_storage)":{"encoding":"mapping","key":"t_uint256","label":"mapping(uint256 => struct Horizon.TitlesSold)","numberOfBytes":"32","value":"t_struct(TitlesSold)3914_storage"},"t_mapping(t_uint64,t_bool)":{"encoding":"mapping","key":"t_uint64","label":"mapping(uint64 => bool)","numberOfBytes":"32","value":"t_bool"},"t_struct(ColateralTitles)3957_storage":{"encoding":"inplace","label":"struct Horizon.ColateralTitles","members":[{"astId":3952,"contract":"contracts/Horizon.sol:Horizon","label":"colateralOwner","offset":0,"slot":"0","type":"t_address"},{"astId":3954,"contract":"contracts/Horizon.sol:Horizon","label":"titleIdOfColateral","offset":0,"slot":"1","type":"t_uint256"},{"astId":3956,"contract":"contracts/Horizon.sol:Horizon","label":"contractIdOfColateral","offset":0,"slot":"2","type":"t_uint256"}],"numberOfBytes":"96"},"t_struct(Draw)3950_storage":{"encoding":"inplace","label":"struct Horizon.Draw","members":[{"astId":3935,"contract":"contracts/Horizon.sol:Horizon","label":"idTitle","offset":0,"slot":"0","type":"t_uint256"},{"astId":3937,"contract":"contracts/Horizon.sol:Horizon","label":"drawNumber","offset":0,"slot":"1","type":"t_uint256"},{"astId":3939,"contract":"contracts/Horizon.sol:Horizon","label":"drawDate","offset":0,"slot":"2","type":"t_uint256"},{"astId":3941,"contract":"contracts/Horizon.sol:Horizon","label":"totalParticipants","offset":0,"slot":"3","type":"t_uint256"},{"astId":3943,"contract":"contracts/Horizon.sol:Horizon","label":"requestId","offset":0,"slot":"4","type":"t_uint256"},{"astId":3945,"contract":"contracts/Horizon.sol:Horizon","label":"randomNumberVRF","offset":0,"slot":"5","type":"t_uint256"},{"astId":3947,"contract":"contracts/Horizon.sol:Horizon","label":"selectedContractID","offset":0,"slot":"6","type":"t_uint256"},{"astId":3949,"contract":"contracts/Horizon.sol:Horizon","label":"winner","offset":0,"slot":"7","type":"t_address"}],"numberOfBytes":"256"},"t_struct(FujiPermissions)3964_storage":{"encoding":"inplace","label":"struct Horizon.FujiPermissions","members":[{"astId":3959,"contract":"contracts/Horizon.sol:Horizon","label":"idTitle","offset":0,"slot":"0","type":"t_uint256"},{"astId":3961,"contract":"contracts/Horizon.sol:Horizon","label":"contractId","offset":0,"slot":"1","type":"t_uint256"},{"astId":3963,"contract":"contracts/Horizon.sol:Horizon","label":"drawNumber","offset":0,"slot":"2","type":"t_uint256"}],"numberOfBytes":"96"},"t_struct(TitleRecord)3933_storage":{"encoding":"inplace","label":"struct Horizon.TitleRecord","members":[{"astId":3916,"contract":"contracts/Horizon.sol:Horizon","label":"contractId","offset":0,"slot":"0","type":"t_uint256"},{"astId":3918,"contract":"contracts/Horizon.sol:Horizon","label":"installmentNumber","offset":0,"slot":"1","type":"t_uint256"},{"astId":3920,"contract":"contracts/Horizon.sol:Horizon","label":"paymentDate","offset":0,"slot":"2","type":"t_uint256"},{"astId":3922,"contract":"contracts/Horizon.sol:Horizon","label":"payerAddress","offset":0,"slot":"3","type":"t_address"},{"astId":3924,"contract":"contracts/Horizon.sol:Horizon","label":"user","offset":0,"slot":"4","type":"t_address"},{"astId":3926,"contract":"contracts/Horizon.sol:Horizon","label":"amount","offset":0,"slot":"5","type":"t_uint256"},{"astId":3928,"contract":"contracts/Horizon.sol:Horizon","label":"paymentDelay","offset":0,"slot":"6","type":"t_uint256"},{"astId":3930,"contract":"contracts/Horizon.sol:Horizon","label":"paid","offset":0,"slot":"7","type":"t_bool"},{"astId":3932,"contract":"contracts/Horizon.sol:Horizon","label":"installmentsPaid","offset":0,"slot":"8","type":"t_uint256"}],"numberOfBytes":"288"},"t_struct(Titles)3884_storage":{"encoding":"inplace","label":"struct Horizon.Titles","members":[{"astId":3858,"contract":"contracts/Horizon.sol:Horizon","label":"openSellingDate","offset":0,"slot":"0","type":"t_uint256"},{"astId":3860,"contract":"contracts/Horizon.sol:Horizon","label":"closeSellingDate","offset":0,"slot":"1","type":"t_uint256"},{"astId":3862,"contract":"contracts/Horizon.sol:Horizon","label":"paymentSchedule","offset":0,"slot":"2","type":"t_uint256"},{"astId":3864,"contract":"contracts/Horizon.sol:Horizon","label":"nextDrawNumber","offset":0,"slot":"3","type":"t_uint256"},{"astId":3866,"contract":"contracts/Horizon.sol:Horizon","label":"titleValue","offset":0,"slot":"4","type":"t_uint256"},{"astId":3868,"contract":"contracts/Horizon.sol:Horizon","label":"installments","offset":0,"slot":"5","type":"t_uint256"},{"astId":3870,"contract":"contracts/Horizon.sol:Horizon","label":"monthlyInvestiment","offset":0,"slot":"6","type":"t_uint256"},{"astId":3872,"contract":"contracts/Horizon.sol:Horizon","label":"protocolFee","offset":0,"slot":"7","type":"t_uint256"},{"astId":3874,"contract":"contracts/Horizon.sol:Horizon","label":"numberOfTitlesSold","offset":0,"slot":"8","type":"t_uint256"},{"astId":3876,"contract":"contracts/Horizon.sol:Horizon","label":"totalValueReceived","offset":0,"slot":"9","type":"t_uint256"},{"astId":3878,"contract":"contracts/Horizon.sol:Horizon","label":"totalValuePaid","offset":0,"slot":"10","type":"t_uint256"},{"astId":3880,"contract":"contracts/Horizon.sol:Horizon","label":"titleCanceled","offset":0,"slot":"11","type":"t_uint256"},{"astId":3883,"contract":"contracts/Horizon.sol:Horizon","label":"status","offset":0,"slot":"12","type":"t_enum(TitleStatus)3844"}],"numberOfBytes":"416"},"t_struct(TitlesSold)3914_storage":{"encoding":"inplace","label":"struct Horizon.TitlesSold","members":[{"astId":3886,"contract":"contracts/Horizon.sol:Horizon","label":"contractId","offset":0,"slot":"0","type":"t_uint256"},{"astId":3888,"contract":"contracts/Horizon.sol:Horizon","label":"titleValue","offset":0,"slot":"1","type":"t_uint256"},{"astId":3890,"contract":"contracts/Horizon.sol:Horizon","label":"installments","offset":0,"slot":"2","type":"t_uint256"},{"astId":3892,"contract":"contracts/Horizon.sol:Horizon","label":"monthlyValue","offset":0,"slot":"3","type":"t_uint256"},{"astId":3894,"contract":"contracts/Horizon.sol:Horizon","label":"periodLocked","offset":0,"slot":"4","type":"t_uint256"},{"astId":3896,"contract":"contracts/Horizon.sol:Horizon","label":"titleOwner","offset":0,"slot":"5","type":"t_address"},{"astId":3898,"contract":"contracts/Horizon.sol:Horizon","label":"installmentsPaid","offset":0,"slot":"6","type":"t_uint256"},{"astId":3900,"contract":"contracts/Horizon.sol:Horizon","label":"drawSelected","offset":0,"slot":"7","type":"t_uint256"},{"astId":3902,"contract":"contracts/Horizon.sol:Horizon","label":"colateralId","offset":0,"slot":"8","type":"t_uint256"},{"astId":3904,"contract":"contracts/Horizon.sol:Horizon","label":"colateralTitleAddress","offset":0,"slot":"9","type":"t_address"},{"astId":3906,"contract":"contracts/Horizon.sol:Horizon","label":"colateralRWAAddress","offset":0,"slot":"10","type":"t_address"},{"astId":3908,"contract":"contracts/Horizon.sol:Horizon","label":"valueOfEnsuranceNeeded","offset":0,"slot":"11","type":"t_uint256"},{"astId":3911,"contract":"contracts/Horizon.sol:Horizon","label":"myTitleStatus","offset":0,"slot":"12","type":"t_enum(MyTitleWithdraw)3853"},{"astId":3913,"contract":"contracts/Horizon.sol:Horizon","label":"paid","offset":1,"slot":"12","type":"t_bool"}],"numberOfBytes":"416"},"t_uint256":{"encoding":"inplace","label":"uint256","numberOfBytes":"32"},"t_uint64":{"encoding":"inplace","label":"uint64","numberOfBytes":"8"}}},"userdoc":{"kind":"user","methods":{"ccipReceive((bytes32,uint64,bytes,bytes,(address,uint256)[]))":{"notice":"Called by the Router to deliver a message. If this reverts, any token transfers also revert. The message will move to a FAILED state and become available for manual execution."},"getRouter()":{"notice":"Return the current router"},"supportsInterface(bytes4)":{"notice":"IERC165 supports an interfaceId"}},"version":1}}}}