{"contracts/HorizonFujiAssistant.sol":{"HorizonFujiAssistant":{"abi":[{"inputs":[{"internalType":"string","name":"s","type":"string"}],"name":"stringToUint","outputs":[{"internalType":"uint256","name":"","type":"uint256"}],"stateMutability":"pure","type":"function"}],"devdoc":{"kind":"dev","methods":{},"version":1},"evm":{"bytecode":{"linkReferences":{},"object":"60808060405234610016576103ad908161001c8239f35b600080fdfe60806004908136101561001157600080fd5b6000803560e01c631bd951551461002757600080fd5b34610324576020928360031936011261032757803567ffffffffffffffff928382116103245736602383011215610324578183013584811161031157601f8101601f19908116603f01168601948511868610176103115760409485528086526024923684838301011161030d57818392858a9301838a0137870101529182908180805b88518210156102ff576001600160f81b0319602960f91b816100cc858d610350565b51161480156102e6575b80156102cd575b80156102b4575b6102a957600b60fa1b816100f8858d610350565b51161461029a57600360fc1b8161010f858d610350565b51161015908161027f575b501561023d57600a9081810291818304149015171561021857602f19610140838b610350565b5160f81c0160ff9081811161022b5716810180911161021857908661016f575b6101699061032b565b906100aa565b916101799061032b565b9160028310610160575095965093909192935b6002811061019e575b87868851908152f35b600181036101db575050600a840293808504600a14901517156101cb57505050905b903880808080610195565b634e487b7160e01b825260119052fd5b159081610210575b506101f2575b505050906101c0565b6064840293808504606414901517156101cb575050503880806101e9565b9050386101e3565b5050634e487b7160e01b83525060119052fd5b634e487b7160e01b8752601186528787fd5b875162461bcd60e51b81528085018b9052601a818801527f54686174206973206e6f7420612076616c696420737472696e670000000000006044820152606490fd5b603960f81b9150610290848c610350565b511611153861011a565b5090955061016960019661032b565b50906101699061032b565b50600160fd1b816102c5858d610350565b5116146100e4565b50601760f91b816102de858d610350565b5116146100dd565b50600960fa1b816102f7858d610350565b5116146100d6565b96975050939091929361018c565b8280fd5b634e487b7160e01b825260418452602482fd5b80fd5b5080fd5b600019811461033a5760010190565b634e487b7160e01b600052601160045260246000fd5b908151811015610361570160200190565b634e487b7160e01b600052603260045260246000fdfea2646970667358221220cac90a1ca0eeb3e1300c7bd5e14b8f16862af9038b9a11363db1383c3a218d0f64736f6c63430008140033","opcodes":"PUSH1 0x80 DUP1 PUSH1 0x40 MSTORE CALLVALUE PUSH2 0x16 JUMPI PUSH2 0x3AD SWAP1 DUP2 PUSH2 0x1C DUP3 CODECOPY RETURN JUMPDEST PUSH1 0x0 DUP1 REVERT INVALID PUSH1 0x80 PUSH1 0x4 SWAP1 DUP2 CALLDATASIZE LT ISZERO PUSH2 0x11 JUMPI PUSH1 0x0 DUP1 REVERT JUMPDEST PUSH1 0x0 DUP1 CALLDATALOAD PUSH1 0xE0 SHR PUSH4 0x1BD95155 EQ PUSH2 0x27 JUMPI PUSH1 0x0 DUP1 REVERT JUMPDEST CALLVALUE PUSH2 0x324 JUMPI PUSH1 0x20 SWAP3 DUP4 PUSH1 0x3 NOT CALLDATASIZE ADD SLT PUSH2 0x327 JUMPI DUP1 CALLDATALOAD PUSH8 0xFFFFFFFFFFFFFFFF SWAP3 DUP4 DUP3 GT PUSH2 0x324 JUMPI CALLDATASIZE PUSH1 0x23 DUP4 ADD SLT ISZERO PUSH2 0x324 JUMPI DUP2 DUP4 ADD CALLDATALOAD DUP5 DUP2 GT PUSH2 0x311 JUMPI PUSH1 0x1F DUP2 ADD PUSH1 0x1F NOT SWAP1 DUP2 AND PUSH1 0x3F ADD AND DUP7 ADD SWAP5 DUP6 GT DUP7 DUP7 LT OR PUSH2 0x311 JUMPI PUSH1 0x40 SWAP5 DUP6 MSTORE DUP1 DUP7 MSTORE PUSH1 0x24 SWAP3 CALLDATASIZE DUP5 DUP4 DUP4 ADD ADD GT PUSH2 0x30D JUMPI DUP2 DUP4 SWAP3 DUP6 DUP11 SWAP4 ADD DUP4 DUP11 ADD CALLDATACOPY DUP8 ADD ADD MSTORE SWAP2 DUP3 SWAP1 DUP2 DUP1 DUP1 JUMPDEST DUP9 MLOAD DUP3 LT ISZERO PUSH2 0x2FF JUMPI PUSH1 0x1 PUSH1 0x1 PUSH1 0xF8 SHL SUB NOT PUSH1 0x29 PUSH1 0xF9 SHL DUP2 PUSH2 0xCC DUP6 DUP14 PUSH2 0x350 JUMP JUMPDEST MLOAD AND EQ DUP1 ISZERO PUSH2 0x2E6 JUMPI JUMPDEST DUP1 ISZERO PUSH2 0x2CD JUMPI JUMPDEST DUP1 ISZERO PUSH2 0x2B4 JUMPI JUMPDEST PUSH2 0x2A9 JUMPI PUSH1 0xB PUSH1 0xFA SHL DUP2 PUSH2 0xF8 DUP6 DUP14 PUSH2 0x350 JUMP JUMPDEST MLOAD AND EQ PUSH2 0x29A JUMPI PUSH1 0x3 PUSH1 0xFC SHL DUP2 PUSH2 0x10F DUP6 DUP14 PUSH2 0x350 JUMP JUMPDEST MLOAD AND LT ISZERO SWAP1 DUP2 PUSH2 0x27F JUMPI JUMPDEST POP ISZERO PUSH2 0x23D JUMPI PUSH1 0xA SWAP1 DUP2 DUP2 MUL SWAP2 DUP2 DUP4 DIV EQ SWAP1 ISZERO OR ISZERO PUSH2 0x218 JUMPI PUSH1 0x2F NOT PUSH2 0x140 DUP4 DUP12 PUSH2 0x350 JUMP JUMPDEST MLOAD PUSH1 0xF8 SHR ADD PUSH1 0xFF SWAP1 DUP2 DUP2 GT PUSH2 0x22B JUMPI AND DUP2 ADD DUP1 SWAP2 GT PUSH2 0x218 JUMPI SWAP1 DUP7 PUSH2 0x16F JUMPI JUMPDEST PUSH2 0x169 SWAP1 PUSH2 0x32B JUMP JUMPDEST SWAP1 PUSH2 0xAA JUMP JUMPDEST SWAP2 PUSH2 0x179 SWAP1 PUSH2 0x32B JUMP JUMPDEST SWAP2 PUSH1 0x2 DUP4 LT PUSH2 0x160 JUMPI POP SWAP6 SWAP7 POP SWAP4 SWAP1 SWAP2 SWAP3 SWAP4 JUMPDEST PUSH1 0x2 DUP2 LT PUSH2 0x19E JUMPI JUMPDEST DUP8 DUP7 DUP9 MLOAD SWAP1 DUP2 MSTORE RETURN JUMPDEST PUSH1 0x1 DUP2 SUB PUSH2 0x1DB JUMPI POP POP PUSH1 0xA DUP5 MUL SWAP4 DUP1 DUP6 DIV PUSH1 0xA EQ SWAP1 ISZERO OR ISZERO PUSH2 0x1CB JUMPI POP POP POP SWAP1 JUMPDEST SWAP1 CODESIZE DUP1 DUP1 DUP1 DUP1 PUSH2 0x195 JUMP JUMPDEST PUSH4 0x4E487B71 PUSH1 0xE0 SHL DUP3 MSTORE PUSH1 0x11 SWAP1 MSTORE REVERT JUMPDEST ISZERO SWAP1 DUP2 PUSH2 0x210 JUMPI JUMPDEST POP PUSH2 0x1F2 JUMPI JUMPDEST POP POP POP SWAP1 PUSH2 0x1C0 JUMP JUMPDEST PUSH1 0x64 DUP5 MUL SWAP4 DUP1 DUP6 DIV PUSH1 0x64 EQ SWAP1 ISZERO OR ISZERO PUSH2 0x1CB JUMPI POP POP POP CODESIZE DUP1 DUP1 PUSH2 0x1E9 JUMP JUMPDEST SWAP1 POP CODESIZE PUSH2 0x1E3 JUMP JUMPDEST POP POP PUSH4 0x4E487B71 PUSH1 0xE0 SHL DUP4 MSTORE POP PUSH1 0x11 SWAP1 MSTORE REVERT JUMPDEST PUSH4 0x4E487B71 PUSH1 0xE0 SHL DUP8 MSTORE PUSH1 0x11 DUP7 MSTORE DUP8 DUP8 REVERT JUMPDEST DUP8 MLOAD PUSH3 0x461BCD PUSH1 0xE5 SHL DUP2 MSTORE DUP1 DUP6 ADD DUP12 SWAP1 MSTORE PUSH1 0x1A DUP2 DUP9 ADD MSTORE PUSH32 0x54686174206973206E6F7420612076616C696420737472696E67000000000000 PUSH1 0x44 DUP3 ADD MSTORE PUSH1 0x64 SWAP1 REVERT JUMPDEST PUSH1 0x39 PUSH1 0xF8 SHL SWAP2 POP PUSH2 0x290 DUP5 DUP13 PUSH2 0x350 JUMP JUMPDEST MLOAD AND GT ISZERO CODESIZE PUSH2 0x11A JUMP JUMPDEST POP SWAP1 SWAP6 POP PUSH2 0x169 PUSH1 0x1 SWAP7 PUSH2 0x32B JUMP JUMPDEST POP SWAP1 PUSH2 0x169 SWAP1 PUSH2 0x32B JUMP JUMPDEST POP PUSH1 0x1 PUSH1 0xFD SHL DUP2 PUSH2 0x2C5 DUP6 DUP14 PUSH2 0x350 JUMP JUMPDEST MLOAD AND EQ PUSH2 0xE4 JUMP JUMPDEST POP PUSH1 0x17 PUSH1 0xF9 SHL DUP2 PUSH2 0x2DE DUP6 DUP14 PUSH2 0x350 JUMP JUMPDEST MLOAD AND EQ PUSH2 0xDD JUMP JUMPDEST POP PUSH1 0x9 PUSH1 0xFA SHL DUP2 PUSH2 0x2F7 DUP6 DUP14 PUSH2 0x350 JUMP JUMPDEST MLOAD AND EQ PUSH2 0xD6 JUMP JUMPDEST SWAP7 SWAP8 POP POP SWAP4 SWAP1 SWAP2 SWAP3 SWAP4 PUSH2 0x18C JUMP JUMPDEST DUP3 DUP1 REVERT JUMPDEST PUSH4 0x4E487B71 PUSH1 0xE0 SHL DUP3 MSTORE PUSH1 0x41 DUP5 MSTORE PUSH1 0x24 DUP3 REVERT JUMPDEST DUP1 REVERT JUMPDEST POP DUP1 REVERT JUMPDEST PUSH1 0x0 NOT DUP2 EQ PUSH2 0x33A JUMPI PUSH1 0x1 ADD SWAP1 JUMP JUMPDEST PUSH4 0x4E487B71 PUSH1 0xE0 SHL PUSH1 0x0 MSTORE PUSH1 0x11 PUSH1 0x4 MSTORE PUSH1 0x24 PUSH1 0x0 REVERT JUMPDEST SWAP1 DUP2 MLOAD DUP2 LT ISZERO PUSH2 0x361 JUMPI ADD PUSH1 0x20 ADD SWAP1 JUMP JUMPDEST PUSH4 0x4E487B71 PUSH1 0xE0 SHL PUSH1 0x0 MSTORE PUSH1 0x32 PUSH1 0x4 MSTORE PUSH1 0x24 PUSH1 0x0 REVERT INVALID LOG2 PUSH5 0x6970667358 0x22 SLT KECCAK256 0xCA 0xC9 EXP SHR LOG0 0xEE 0xB3 0xE1 ADDRESS 0xC PUSH28 0xD5E14B8F16862AF9038B9A11363DB1383C3A218D0F64736F6C634300 ADDMOD EQ STOP CALLER "},"gasEstimates":{"creation":{"codeDepositCost":"188200","executionCost":"239","totalCost":"188439"},"external":{"stringToUint(string)":"infinite"}},"methodIdentifiers":{"stringToUint(string)":"1bd95155"}},"storageLayout":{"storage":[],"types":null},"userdoc":{"kind":"user","methods":{},"version":1}}}}