{"@chainlink/contracts-ccip/src/v0.8/ccip/libraries/Client.sol":{"Client":{"abi":[{"inputs":[],"name":"EVM_EXTRA_ARGS_V1_TAG","outputs":[{"internalType":"bytes4","name":"","type":"bytes4"}],"stateMutability":"view","type":"function"}],"devdoc":{"kind":"dev","methods":{},"version":1},"evm":{"bytecode":{"linkReferences":{},"object":"60808060405234601857607b908161001e823930815050f35b600080fdfe6080806040526004361015601257600080fd5b60003560e01c633ab8c0d014602657600080fd5b60003660031901126040576397a657c960e01b8152602090f35b600080fdfea2646970667358221220115d398666361c1bc66c462a34635093b8601b12c382ece9aa150cff80bf251364736f6c63430008140033","opcodes":"PUSH1 0x80 DUP1 PUSH1 0x40 MSTORE CALLVALUE PUSH1 0x18 JUMPI PUSH1 0x7B SWAP1 DUP2 PUSH2 0x1E DUP3 CODECOPY ADDRESS DUP2 POP POP RETURN JUMPDEST PUSH1 0x0 DUP1 REVERT INVALID PUSH1 0x80 DUP1 PUSH1 0x40 MSTORE PUSH1 0x4 CALLDATASIZE LT ISZERO PUSH1 0x12 JUMPI PUSH1 0x0 DUP1 REVERT JUMPDEST PUSH1 0x0 CALLDATALOAD PUSH1 0xE0 SHR PUSH4 0x3AB8C0D0 EQ PUSH1 0x26 JUMPI PUSH1 0x0 DUP1 REVERT JUMPDEST PUSH1 0x0 CALLDATASIZE PUSH1 0x3 NOT ADD SLT PUSH1 0x40 JUMPI PUSH4 0x97A657C9 PUSH1 0xE0 SHL DUP2 MSTORE PUSH1 0x20 SWAP1 RETURN JUMPDEST PUSH1 0x0 DUP1 REVERT INVALID LOG2 PUSH5 0x6970667358 0x22 SLT KECCAK256 GT 0x5D CODECOPY DUP7 PUSH7 0x361C1BC66C462A CALLVALUE PUSH4 0x5093B860 SHL SLT 0xC3 DUP3 0xEC 0xE9 0xAA ISZERO 0xC SELFDESTRUCT DUP1 0xBF 0x25 SGT PUSH5 0x736F6C6343 STOP ADDMOD EQ STOP CALLER "},"gasEstimates":{"creation":{"codeDepositCost":"24600","executionCost":"infinite","totalCost":"infinite"},"external":{"EVM_EXTRA_ARGS_V1_TAG()":"135"},"internal":{"_argsToBytes(struct Client.EVMExtraArgsV1 memory)":"infinite"}},"methodIdentifiers":{"EVM_EXTRA_ARGS_V1_TAG()":"3ab8c0d0"}},"storageLayout":{"storage":[],"types":null},"userdoc":{"kind":"user","methods":{},"version":1}}}}