{"contracts/HorizonFunctions.sol":{"HorizonFunctions":{"abi":[{"inputs":[{"internalType":"uint64","name":"_subscriptionId","type":"uint64"},{"internalType":"address","name":"_routerFunctions","type":"address"},{"internalType":"uint32","name":"_gasLimit","type":"uint32"},{"internalType":"bytes32","name":"_donID","type":"bytes32"}],"stateMutability":"nonpayable","type":"constructor"},{"inputs":[],"name":"EmptyArgs","type":"error"},{"inputs":[],"name":"EmptySource","type":"error"},{"inputs":[],"name":"NoInlineSecrets","type":"error"},{"inputs":[],"name":"OnlyRouterCanFulfill","type":"error"},{"inputs":[{"internalType":"bytes32","name":"requestId","type":"bytes32"}],"name":"UnexpectedRequestID","type":"error"},{"anonymous":false,"inputs":[{"indexed":true,"internalType":"bytes32","name":"id","type":"bytes32"}],"name":"RequestFulfilled","type":"event"},{"anonymous":false,"inputs":[{"indexed":true,"internalType":"bytes32","name":"id","type":"bytes32"}],"name":"RequestSent","type":"event"},{"anonymous":false,"inputs":[{"indexed":true,"internalType":"bytes32","name":"requestId","type":"bytes32"},{"indexed":false,"internalType":"bytes","name":"response","type":"bytes"},{"indexed":false,"internalType":"bytes","name":"err","type":"bytes"}],"name":"Response","type":"event"},{"inputs":[{"internalType":"bytes32","name":"requestId","type":"bytes32"},{"internalType":"bytes","name":"response","type":"bytes"},{"internalType":"bytes","name":"err","type":"bytes"}],"name":"handleOracleFulfillment","outputs":[],"stateMutability":"nonpayable","type":"function"},{"inputs":[{"internalType":"bytes32","name":"requestId","type":"bytes32"}],"name":"returnFunctionsInfo","outputs":[{"internalType":"uint256","name":"","type":"uint256"},{"internalType":"uint256","name":"","type":"uint256"}],"stateMutability":"view","type":"function"},{"inputs":[],"name":"s_lastRequestId","outputs":[{"internalType":"bytes32","name":"","type":"bytes32"}],"stateMutability":"view","type":"function"},{"inputs":[{"internalType":"string[]","name":"args","type":"string[]"}],"name":"sendRequest","outputs":[{"internalType":"bytes32","name":"requestId","type":"bytes32"}],"stateMutability":"nonpayable","type":"function"},{"inputs":[{"internalType":"bytes32","name":"requestId","type":"bytes32"}],"name":"vehicleDataMapping","outputs":[{"internalType":"string","name":"value","type":"string"},{"internalType":"uint256","name":"uintValue","type":"uint256"},{"internalType":"uint256","name":"requestTime","type":"uint256"},{"internalType":"uint256","name":"responseTime","type":"uint256"},{"internalType":"bytes","name":"lastResponse","type":"bytes"},{"internalType":"bytes","name":"lastError","type":"bytes"},{"internalType":"bool","name":"isRequest","type":"bool"}],"stateMutability":"view","type":"function"}],"devdoc":{"kind":"dev","methods":{"handleOracleFulfillment(bytes32,bytes,bytes)":{"details":"Either response or error parameter will be set, but never both.","params":{"err":"Aggregated error either from the request's source code or from the execution pipeline.","requestId":"The requestId returned by FunctionsClient.sendRequest().","response":"Aggregated response from the request's source code."}}},"version":1},"evm":{"bytecode":{"linkReferences":{},"object":"60a0346200036a576001600160401b03601f62001e9b38819003918201601f1916840191838311858410176200036f578085926080946040528339810103126200036a5781519081168091036200036a5760208201516001600160a01b038116929091908383036200036a5760408101519063ffffffff821682036200036a57606001519360805260048054906001918281811c911680156200035f575b60208210146200034a57601f811162000318575b507f6f6465537472696e6728646174612e56616c6f72293b00000000000000000000917f6169742046756e6374696f6e732e6d616b654874747052657175657374287b758261032d600c9455806000527f6e73742069644d61726361203d20617267735b315d3b636f6e73742069644d6f6020600020937f636f6e7374207469706f4175746f6d6f76656c203d20617267735b305d3b636f85558401557f64656c6f203d20617267735b325d3b636f6e737420646174614d6f64656c6f2060028401557f3d20617267735b335d3b636f6e737420617069526573706f6e7365203d20617760038401558201557f726c3a206068747470733a2f2f706172616c6c656c756d2e636f6d2e62722f6660058201557f6970652f6170692f76312f247b7469706f4175746f6d6f76656c7d2f6d61726360068201557f61732f247b69644d617263617d2f6d6f64656c6f732f247b69644d6f64656c6f60078201557f7d2f616e6f732f247b646174614d6f64656c6f7d607d293b696620286170695260088201557f6573706f6e73652e6572726f7229207b7468726f77204572726f72282752657160098201557f75657374206661696c656427293b7d636f6e7374207b2064617461207d203d20600a8201557f617069526573706f6e73653b72657475726e2046756e6374696f6e732e656e63600b8201550155735fa769922a6428758fb44453815e2c436c57c3c760018060a01b0319600554161760055563ffffffff60e01b9060e01b169168010000000000000000600160e01b039060401b161717600255600355604051611b15908162000386823960805181818160ba0152610bd80152f35b81600052600d601f6020600020920160051c820191015b8181106200033e5750620000b1565b6000815583016200032f565b602282634e487b7160e01b6000525260246000fd5b90607f16906200009d565b600080fd5b634e487b7160e01b600052604160045260246000fdfe608060405260048036101561001357600080fd5b6000803560e01c9182630ca761751461006c57505080634c8f60a314610067578063b1e2174914610062578063c972ebb61461005d5763e6ee90201461005857600080fd5b6106b3565b6103b3565b610395565b610328565b34610245576060366003190112610245578035906001600160401b036024358181116102415761009f903690840161030a565b90604435908111610241576100b7903690840161030a565b907f00000000000000000000000000000000000000000000000000000000000000006001600160a01b03163303610230576100fc846000526001602052604060002090565b9261010b600685015460ff1690565b15610214579060208483610125846101699796840161087f565b610132856005840161087f565b61013c848361087f565b4260038301556005546001600160a01b031690604051809781948293631bd9515560e01b84528301611aa9565b03915afa93841561020f576001600587967f7873807bf6ddc50401cd3d29bbe0decee23fd4d68d273f4b5eb83cded4d2f172968a916101e1575b50049101556101b760405192839283611aba565b0390a27f85e1543bf2f84fe80c6badbce3648c8539ad1df4d2b3d822938ca0538be727e68280a280f35b610202915060203d8111610208575b6101fa818361027f565b810190610b65565b8a6101a3565b503d6101f0565b610b74565b60405163d068bf5b60e01b815290810185815281906020010390fd5b60405163c6829f8360e01b81528390fd5b8480fd5b5080fd5b634e487b7160e01b600052604160045260246000fd5b604081019081106001600160401b0382111761027a57604052565b610249565b90601f801991011681019081106001600160401b0382111761027a57604052565b6040519060e082018281106001600160401b0382111761027a57604052565b9291926001600160401b03821161027a57604051916102e8601f8201601f19166020018461027f565b829481845281830111610305578281602093846000960137010152565b600080fd5b9080601f8301121561030557816020610325933591016102bf565b90565b34610305576020366003190112610305576001600160401b036004358181116103055736602382011215610305578060040135918211610305573660248360051b83010111610305576103919160246103819201610a92565b6040519081529081906020820190565b0390f35b34610305576000366003190112610305576020600054604051908152f35b346103055760203660031901126103055760043560005260016020526040806000206003600182015491015482519182526020820152f35b90600182811c9216801561041b575b602083101461040557565b634e487b7160e01b600052602260045260246000fd5b91607f16916103fa565b6040519060008260045491610439836103eb565b808352926001908181169081156104c15750600114610462575b506104609250038361027f565b565b6004600090815291507f8a35acfbc15ff81a39ae7d344fd709f28e8600b4aa8c65c6b64bfe7fe36bd19b5b8483106104a65750610460935050810160200138610453565b81935090816020925483858a0101520191019091859261048d565b90506020925061046094915060ff191682840152151560051b82010138610453565b90604051918260008254926104f7846103eb565b9081845260019485811690816000146105645750600114610521575b50506104609250038361027f565b9093915060005260209081600020936000915b81831061054c57505061046093508201013880610513565b85548884018501529485019487945091830191610534565b91505061046094506020925060ff191682840152151560051b8201013880610513565b9060009291805491610598836103eb565b9182825260019384811690816000146105fa57506001146105ba575b50505050565b90919394506000526020928360002092846000945b8386106105e65750505050010190388080806105b4565b8054858701830152940193859082016105cf565b9294505050602093945060ff191683830152151560051b010190388080806105b4565b919082519283825260005b848110610649575050826000602080949584010152601f8019910116010190565b602081830181015184830182015201610628565b9592946106ab9460c09661068061069d95949b9a9b60e08b5260e08b019061061d565b9360208a015260408901526060880152868203608088015261061d565b9084820360a086015261061d565b931515910152565b3461030557602036600319011261030557600435600052600160205260406000206106dd816104e3565b61039160018301549260028101549060038101546040519061070d826107068160048701610587565b038361027f565b60ff60066040519461072d866107268160058501610587565b038761027f565b015416936040519788978861065d565b6040519060e082018281106001600160401b0382111761027a57604052606060c08360008152600060208201526000604082015282808201528260808201528260a08201520152565b929190926001600160401b039182851161027a578460051b60405193602080956107b28285018261027f565b8098815201918401938385116103055780925b8584106107d55750505050505050565b833583811161030557820185601f820112156103055787916107fd87838580953591016102bf565b8152019301926107c5565b60405190602082018281106001600160401b0382111761027a5760405260008252565b90601f811161083957505050565b600091825260208220906020601f850160051c83019410610875575b601f0160051c01915b82811061086a57505050565b81815560010161085e565b9092508290610855565b91909182516001600160401b03811161027a576108a6816108a084546103eb565b8461082b565b602080601f83116001146108e25750819293946000926108d7575b50508160011b916000199060031b1c1916179055565b0151905038806108c1565b90601f198316956108f885600052602060002090565b926000905b8882106109355750508360019596971061091c575b505050811b019055565b015160001960f88460031b161c19169055388080610912565b806001859682949686015181550195019301906108fd565b91909182519283516001600160401b03811161027a576109778161097185546103eb565b8561082b565b6020948590601f8311600114610a1857926104609596836109fa9460c094600697600092610a0d575b50508160011b916000199060031b1c19161786555b810151600186015560408101516002860155606081015160038601556109e260808201516004870161087f565b6109f360a08201516005870161087f565b0151151590565b91019060ff801983541691151516179055565b0151905038806109a0565b90601f19831691610a2e86600052602060002090565b9260005b818110610a7b57508460c094600697946104609a9b946109fa9860019510610a62575b505050811b0186556109b5565b015160001960f88460031b161c19169055388080610a55565b929389600181928786015181550195019301610a32565b610ac4610b4392610adf92610aa561073d565b91610ab7610ab1610425565b84610fb0565b80610b49575b5050610ddd565b600254600354916001600160401b038260e01c921690610b80565b80600055610b3e610aee6102a0565b91610af7610808565b83526000602084015242604084015260006060840152610b15610808565b6080840152610b22610808565b60a0840152600160c08401526000526001602052604060002090565b61094d565b60005490565b610b5e91610b58913691610786565b82610fd9565b3880610abd565b90816020910312610305575190565b6040513d6000823e3d90fd5b92906020926001600160401b039263ffffffff610bbf604051978896879663230e93b160e11b885216600487015260a0602487015260a486019061061d565b60016044860152921660648401526084830152038160007f00000000000000000000000000000000000000000000000000000000000000006001600160a01b03165af190811561020f57600091610c3b575b50807f1131472297a800fee664d1d89cfa8f7676ff07189ecc53f80bbb5f4969099db8600080a290565b610c53915060203d8111610208576101fa818361027f565b38610c11565b60405190610c668261025f565b600c82526b31b7b232a637b1b0ba34b7b760a11b6020830152565b634e487b7160e01b600052602160045260246000fd5b60031115610ca157565b610c81565b60405190610cb38261025f565b60088252676c616e677561676560c01b6020830152565b60011115610ca157565b60405190610ce18261025f565b6006825265736f7572636560d01b6020830152565b60405190610d038261025f565b60048252636172677360e01b6020830152565b634e487b7160e01b600052601160045260246000fd5b6000198114610d3b5760010190565b610d16565b8051821015610d545760209160051b010190565b634e487b7160e01b600052603260045260246000fd5b60405190610d778261025f565b600f82526e39b2b1b932ba39a637b1b0ba34b7b760891b6020830152565b60405190610da28261025f565b60078252667365637265747360c81b6020830152565b60405190610dc58261025f565b600982526862797465734172677360b81b6020830152565b610de5611012565b90610df7610df1610c59565b8361176a565b610e148151610e0581610c97565b610e0e81610c97565b836110de565b610e1f610df1610ca6565b610e396040820151610e3081610cca565b610e0e81610cca565b610e44610df1610cd4565b610e5260608201518361176a565b60a08101805151610f57575b506080810190815151610ed7575b60c0915001805151610e7f575b50515190565b91610e8b610df1610db8565b610e94826117ee565b60005b83518051821015610ec45790610eba610eb382610ebf94610d40565b51856116b5565b610d2c565b610e97565b50509150610ed18161187a565b38610e79565b602081018051610ee681610c97565b610eef81610c97565b15610f455760c092610f28610f4092610f0f610f09610d6a565b8861176a565b51610f1981610c97565b610f2281610c97565b866110de565b610f39610f33610d95565b8661176a565b51846116b5565b610e6c565b60405163a80d31f760e01b8152600490fd5b92610f69610f63610cf6565b8461176a565b610f72836117ee565b60005b84518051821015610f9d5790610eba610f9182610f9894610d40565b518661176a565b610f75565b50509250610faa8261187a565b38610e5e565b815115610fc7576000808252604082015260600152565b6040516322ce3edd60e01b8152600490fd5b815115610fe65760a00152565b60405163fe936cb760e01b8152600490fd5b604051906110058261025f565b6000602083606081520152565b60405161101e8161025f565b611026610ff8565b8082526020820160008152611039610ff8565b506101006020830152604051809252600082526101208201918210610305576000916040525290565b601f19810191908211610d3b57565b9060208201809211610d3b57565b91908201809211610d3b57565b90611095610ff8565b50601f8116806110c4575b50806020830152604051908183526000825281016020019081106103055760405290565b60200360208111610d3b578101809111610d3b57386110a0565b908151916110ea610ff8565b508251516001810190818111610d3b576020850151811015611143575b60c26020610460965192830101538051821161113b575b5050604051916020830152602082526111368261025f565b6116b5565b52388061111e565b8160011b9482860460021483151715610d3b576020816111756104609861116e60c29551918461108c565b50826115fd565b5096505050611107565b908160011b9180830460021490151715610d3b57565b61119d610ff8565b508051516001810190818111610d3b5760208301518110156111d6575b605b602084519283010153805182116111d257505090565b5290565b8160011b82810460021483151715610d3b576111ff906111f88551918661108c565b50846115fd565b506111ba565b61120d610ff8565b508051516001810190818111610d3b576020830151811015611242575b605a602084519283010153805182116111d257505090565b8160011b82810460021483151715610d3b57611264906111f88551918661108c565b5061122a565b611272610ff8565b508051516001810190818111610d3b5760208301518110156112a7575b6059602084519283010153805182116111d257505090565b8160011b82810460021483151715610d3b576112c9906111f88551918661108c565b5061128f565b6112d7610ff8565b508051516001810190818111610d3b57602083015181101561130c575b6058602084519283010153805182116111d257505090565b8160011b82810460021483151715610d3b5761132e906111f88551918661108c565b506112f4565b61133c610ff8565b508051516001810190818111610d3b576020830151811015611371575b607b602084519283010153805182116111d257505090565b8160011b82810460021483151715610d3b57611393906111f88551918661108c565b50611359565b6113a1610ff8565b508051516001810190818111610d3b5760208301518110156113d6575b607a602084519283010153805182116111d257505090565b8160011b82810460021483151715610d3b576113f8906111f88551918661108c565b506113be565b611406610ff8565b508051516001810190818111610d3b57602083015181101561143b575b6079602084519283010153805182116111d257505090565b8160011b82810460021483151715610d3b5761145d906111f88551918661108c565b50611423565b61146b610ff8565b508051516001810190818111610d3b5760208301518110156114a0575b6078602084519283010153805182116111d257505090565b8160011b82810460021483151715610d3b576114c2906111f88551918661108c565b50611488565b906114d1610ff8565b508151516001810191828211610d3b576020840151821015611504575b602084519283010153805182116111d257505090565b8260011b83810460021484151715610d3b5761152d906115268651918761108c565b50856115fd565b506114ee565b906115408251918361108c565b50611549610ff8565b50805190611555610ff8565b5061156381518311156116ae565b82515192611571838561107f565b9160209282848094015182116115e6575b51838151978201019682116115de575b505001915b818110156115b85760001991036101000a0190811990511690825116179052565b91926115d36115cd6115d99286518152611071565b94611071565b92611062565b611597565b523880611592565b6115f86115f28361117f565b82611533565b611582565b90611606610ff8565b508051611611610ff8565b5061161f82518211156116ae565b8251519161162d828461107f565b6020918291828701518111611697575b86518381519782010196821161168f575b505001915b818110156116755760001991036101000a019081199051169082511617905290565b91926115d36115cd61168a9286518152611071565b611653565b52388061164e565b6116a96116a38261117f565b88611533565b61163d565b1561030557565b81516116ec9291906001600160401b03811690601782116116ef576116e49150604060ff8451921617906114c8565b505b516115fd565b50565b5060ff81116117145761170e9061170683516112cf565b508251611a43565b506116e6565b61ffff81116117335761170e9061172b835161126a565b5082516119dc565b63ffffffff81116117545761170e9061174c8351611205565b508251611973565b61170e906117628351611195565b508251611907565b81516116ec9291906001600160401b0381169060178211611799576116e49150606060ff8451921617906114c8565b5060ff81116117b05761170e906117068351611463565b61ffff81116117c75761170e9061172b83516113fe565b63ffffffff81116117e05761170e9061174c8351611399565b61170e906117628351611334565b8051906117f9610ff8565b508151516001810190818111610d3b576020840151811015611847575b609f602080955192830101538051821161183f575b50500180519060018201809211610d3b5752565b52388061182b565b8160011b9382850460021483151715610d3b57602081611870829761116e609f9551918461108c565b5095505050611816565b805190611885610ff8565b508151516001810190818111610d3b5760208401518110156118d4575b60ff60208095519283010153805182116118cc575b5050018051600019810191908211610d3b5752565b5238806118b7565b8160011b9382850460021483151715610d3b576020816118fd829761116e60ff9551918461108c565b50955050506118a2565b90611910610ff8565b50815151806008019182600811610d3b5760208401518311611952575b6008845192830101906001600160401b0319825116179052805182116111d257505090565b8260011b83810460021484151715610d3b5761196e9085611533565b61192d565b9061197c610ff8565b50815151806004019182600411610d3b57602084015183116119bb575b60048451928301019063ffffffff19825116179052805182116111d257505090565b8260011b83810460021484151715610d3b576119d79085611533565b611999565b906119e5610ff8565b50815151806002019182600211610d3b5760208401518311611a22575b60028451928301019061ffff19825116179052805182116111d257505090565b8260011b83810460021484151715610d3b57611a3e9085611533565b611a02565b90611a4c610ff8565b50815151806001019182600111610d3b5760208401518311611a88575b60018451928301019060ff19825116179052805182116111d257505090565b8260011b83810460021484151715610d3b57611aa49085611533565b611a69565b906020610325928181520190610587565b9091611ad16103259360408452604084019061061d565b91602081840391015261061d56fea264697066735822122011a6e5ca1f84d78c439355f75ec4c25dd9ebef1a12423aebe1000f22582ba59464736f6c63430008140033","opcodes":"PUSH1 0xA0 CALLVALUE PUSH3 0x36A JUMPI PUSH1 0x1 PUSH1 0x1 PUSH1 0x40 SHL SUB PUSH1 0x1F PUSH3 0x1E9B CODESIZE DUP2 SWAP1 SUB SWAP2 DUP3 ADD PUSH1 0x1F NOT AND DUP5 ADD SWAP2 DUP4 DUP4 GT DUP6 DUP5 LT OR PUSH3 0x36F JUMPI DUP1 DUP6 SWAP3 PUSH1 0x80 SWAP5 PUSH1 0x40 MSTORE DUP4 CODECOPY DUP2 ADD SUB SLT PUSH3 0x36A JUMPI DUP2 MLOAD SWAP1 DUP2 AND DUP1 SWAP2 SUB PUSH3 0x36A JUMPI PUSH1 0x20 DUP3 ADD MLOAD PUSH1 0x1 PUSH1 0x1 PUSH1 0xA0 SHL SUB DUP2 AND SWAP3 SWAP1 SWAP2 SWAP1 DUP4 DUP4 SUB PUSH3 0x36A JUMPI PUSH1 0x40 DUP2 ADD MLOAD SWAP1 PUSH4 0xFFFFFFFF DUP3 AND DUP3 SUB PUSH3 0x36A JUMPI PUSH1 0x60 ADD MLOAD SWAP4 PUSH1 0x80 MSTORE PUSH1 0x4 DUP1 SLOAD SWAP1 PUSH1 0x1 SWAP2 DUP3 DUP2 DUP2 SHR SWAP2 AND DUP1 ISZERO PUSH3 0x35F JUMPI JUMPDEST PUSH1 0x20 DUP3 LT EQ PUSH3 0x34A JUMPI PUSH1 0x1F DUP2 GT PUSH3 0x318 JUMPI JUMPDEST POP PUSH32 0x6F6465537472696E6728646174612E56616C6F72293B00000000000000000000 SWAP2 PUSH32 0x6169742046756E6374696F6E732E6D616B654874747052657175657374287B75 DUP3 PUSH2 0x32D PUSH1 0xC SWAP5 SSTORE DUP1 PUSH1 0x0 MSTORE PUSH32 0x6E73742069644D61726361203D20617267735B315D3B636F6E73742069644D6F PUSH1 0x20 PUSH1 0x0 KECCAK256 SWAP4 PUSH32 0x636F6E7374207469706F4175746F6D6F76656C203D20617267735B305D3B636F DUP6 SSTORE DUP5 ADD SSTORE PUSH32 0x64656C6F203D20617267735B325D3B636F6E737420646174614D6F64656C6F20 PUSH1 0x2 DUP5 ADD SSTORE PUSH32 0x3D20617267735B335D3B636F6E737420617069526573706F6E7365203D206177 PUSH1 0x3 DUP5 ADD SSTORE DUP3 ADD SSTORE PUSH32 0x726C3A206068747470733A2F2F706172616C6C656C756D2E636F6D2E62722F66 PUSH1 0x5 DUP3 ADD SSTORE PUSH32 0x6970652F6170692F76312F247B7469706F4175746F6D6F76656C7D2F6D617263 PUSH1 0x6 DUP3 ADD SSTORE PUSH32 0x61732F247B69644D617263617D2F6D6F64656C6F732F247B69644D6F64656C6F PUSH1 0x7 DUP3 ADD SSTORE PUSH32 0x7D2F616E6F732F247B646174614D6F64656C6F7D607D293B6966202861706952 PUSH1 0x8 DUP3 ADD SSTORE PUSH32 0x6573706F6E73652E6572726F7229207B7468726F77204572726F722827526571 PUSH1 0x9 DUP3 ADD SSTORE PUSH32 0x75657374206661696C656427293B7D636F6E7374207B2064617461207D203D20 PUSH1 0xA DUP3 ADD SSTORE PUSH32 0x617069526573706F6E73653B72657475726E2046756E6374696F6E732E656E63 PUSH1 0xB DUP3 ADD SSTORE ADD SSTORE PUSH20 0x5FA769922A6428758FB44453815E2C436C57C3C7 PUSH1 0x1 DUP1 PUSH1 0xA0 SHL SUB NOT PUSH1 0x5 SLOAD AND OR PUSH1 0x5 SSTORE PUSH4 0xFFFFFFFF PUSH1 0xE0 SHL SWAP1 PUSH1 0xE0 SHL AND SWAP2 PUSH9 0x10000000000000000 PUSH1 0x1 PUSH1 0xE0 SHL SUB SWAP1 PUSH1 0x40 SHL AND OR OR PUSH1 0x2 SSTORE PUSH1 0x3 SSTORE PUSH1 0x40 MLOAD PUSH2 0x1B15 SWAP1 DUP2 PUSH3 0x386 DUP3 CODECOPY PUSH1 0x80 MLOAD DUP2 DUP2 DUP2 PUSH1 0xBA ADD MSTORE PUSH2 0xBD8 ADD MSTORE RETURN JUMPDEST DUP2 PUSH1 0x0 MSTORE PUSH1 0xD PUSH1 0x1F PUSH1 0x20 PUSH1 0x0 KECCAK256 SWAP3 ADD PUSH1 0x5 SHR DUP3 ADD SWAP2 ADD JUMPDEST DUP2 DUP2 LT PUSH3 0x33E JUMPI POP PUSH3 0xB1 JUMP JUMPDEST PUSH1 0x0 DUP2 SSTORE DUP4 ADD PUSH3 0x32F JUMP JUMPDEST PUSH1 0x22 DUP3 PUSH4 0x4E487B71 PUSH1 0xE0 SHL PUSH1 0x0 MSTORE MSTORE PUSH1 0x24 PUSH1 0x0 REVERT JUMPDEST SWAP1 PUSH1 0x7F AND SWAP1 PUSH3 0x9D JUMP JUMPDEST PUSH1 0x0 DUP1 REVERT JUMPDEST PUSH4 0x4E487B71 PUSH1 0xE0 SHL PUSH1 0x0 MSTORE PUSH1 0x41 PUSH1 0x4 MSTORE PUSH1 0x24 PUSH1 0x0 REVERT INVALID PUSH1 0x80 PUSH1 0x40 MSTORE PUSH1 0x4 DUP1 CALLDATASIZE LT ISZERO PUSH2 0x13 JUMPI PUSH1 0x0 DUP1 REVERT JUMPDEST PUSH1 0x0 DUP1 CALLDATALOAD PUSH1 0xE0 SHR SWAP2 DUP3 PUSH4 0xCA76175 EQ PUSH2 0x6C JUMPI POP POP DUP1 PUSH4 0x4C8F60A3 EQ PUSH2 0x67 JUMPI DUP1 PUSH4 0xB1E21749 EQ PUSH2 0x62 JUMPI DUP1 PUSH4 0xC972EBB6 EQ PUSH2 0x5D JUMPI PUSH4 0xE6EE9020 EQ PUSH2 0x58 JUMPI PUSH1 0x0 DUP1 REVERT JUMPDEST PUSH2 0x6B3 JUMP JUMPDEST PUSH2 0x3B3 JUMP JUMPDEST PUSH2 0x395 JUMP JUMPDEST PUSH2 0x328 JUMP JUMPDEST CALLVALUE PUSH2 0x245 JUMPI PUSH1 0x60 CALLDATASIZE PUSH1 0x3 NOT ADD SLT PUSH2 0x245 JUMPI DUP1 CALLDATALOAD SWAP1 PUSH1 0x1 PUSH1 0x1 PUSH1 0x40 SHL SUB PUSH1 0x24 CALLDATALOAD DUP2 DUP2 GT PUSH2 0x241 JUMPI PUSH2 0x9F SWAP1 CALLDATASIZE SWAP1 DUP5 ADD PUSH2 0x30A JUMP JUMPDEST SWAP1 PUSH1 0x44 CALLDATALOAD SWAP1 DUP2 GT PUSH2 0x241 JUMPI PUSH2 0xB7 SWAP1 CALLDATASIZE SWAP1 DUP5 ADD PUSH2 0x30A JUMP JUMPDEST SWAP1 PUSH32 0x0 PUSH1 0x1 PUSH1 0x1 PUSH1 0xA0 SHL SUB AND CALLER SUB PUSH2 0x230 JUMPI PUSH2 0xFC DUP5 PUSH1 0x0 MSTORE PUSH1 0x1 PUSH1 0x20 MSTORE PUSH1 0x40 PUSH1 0x0 KECCAK256 SWAP1 JUMP JUMPDEST SWAP3 PUSH2 0x10B PUSH1 0x6 DUP6 ADD SLOAD PUSH1 0xFF AND SWAP1 JUMP JUMPDEST ISZERO PUSH2 0x214 JUMPI SWAP1 PUSH1 0x20 DUP5 DUP4 PUSH2 0x125 DUP5 PUSH2 0x169 SWAP8 SWAP7 DUP5 ADD PUSH2 0x87F JUMP JUMPDEST PUSH2 0x132 DUP6 PUSH1 0x5 DUP5 ADD PUSH2 0x87F JUMP JUMPDEST PUSH2 0x13C DUP5 DUP4 PUSH2 0x87F JUMP JUMPDEST TIMESTAMP PUSH1 0x3 DUP4 ADD SSTORE PUSH1 0x5 SLOAD PUSH1 0x1 PUSH1 0x1 PUSH1 0xA0 SHL SUB AND SWAP1 PUSH1 0x40 MLOAD DUP1 SWAP8 DUP2 SWAP5 DUP3 SWAP4 PUSH4 0x1BD95155 PUSH1 0xE0 SHL DUP5 MSTORE DUP4 ADD PUSH2 0x1AA9 JUMP JUMPDEST SUB SWAP2 GAS STATICCALL SWAP4 DUP5 ISZERO PUSH2 0x20F JUMPI PUSH1 0x1 PUSH1 0x5 DUP8 SWAP7 PUSH32 0x7873807BF6DDC50401CD3D29BBE0DECEE23FD4D68D273F4B5EB83CDED4D2F172 SWAP7 DUP11 SWAP2 PUSH2 0x1E1 JUMPI JUMPDEST POP DIV SWAP2 ADD SSTORE PUSH2 0x1B7 PUSH1 0x40 MLOAD SWAP3 DUP4 SWAP3 DUP4 PUSH2 0x1ABA JUMP JUMPDEST SUB SWAP1 LOG2 PUSH32 0x85E1543BF2F84FE80C6BADBCE3648C8539AD1DF4D2B3D822938CA0538BE727E6 DUP3 DUP1 LOG2 DUP1 RETURN JUMPDEST PUSH2 0x202 SWAP2 POP PUSH1 0x20 RETURNDATASIZE DUP2 GT PUSH2 0x208 JUMPI JUMPDEST PUSH2 0x1FA DUP2 DUP4 PUSH2 0x27F JUMP JUMPDEST DUP2 ADD SWAP1 PUSH2 0xB65 JUMP JUMPDEST DUP11 PUSH2 0x1A3 JUMP JUMPDEST POP RETURNDATASIZE PUSH2 0x1F0 JUMP JUMPDEST PUSH2 0xB74 JUMP JUMPDEST PUSH1 0x40 MLOAD PUSH4 0xD068BF5B PUSH1 0xE0 SHL DUP2 MSTORE SWAP1 DUP2 ADD DUP6 DUP2 MSTORE DUP2 SWAP1 PUSH1 0x20 ADD SUB SWAP1 REVERT JUMPDEST PUSH1 0x40 MLOAD PUSH4 0xC6829F83 PUSH1 0xE0 SHL DUP2 MSTORE DUP4 SWAP1 REVERT JUMPDEST DUP5 DUP1 REVERT JUMPDEST POP DUP1 REVERT JUMPDEST PUSH4 0x4E487B71 PUSH1 0xE0 SHL PUSH1 0x0 MSTORE PUSH1 0x41 PUSH1 0x4 MSTORE PUSH1 0x24 PUSH1 0x0 REVERT JUMPDEST PUSH1 0x40 DUP2 ADD SWAP1 DUP2 LT PUSH1 0x1 PUSH1 0x1 PUSH1 0x40 SHL SUB DUP3 GT OR PUSH2 0x27A JUMPI PUSH1 0x40 MSTORE JUMP JUMPDEST PUSH2 0x249 JUMP JUMPDEST SWAP1 PUSH1 0x1F DUP1 NOT SWAP2 ADD AND DUP2 ADD SWAP1 DUP2 LT PUSH1 0x1 PUSH1 0x1 PUSH1 0x40 SHL SUB DUP3 GT OR PUSH2 0x27A JUMPI PUSH1 0x40 MSTORE JUMP JUMPDEST PUSH1 0x40 MLOAD SWAP1 PUSH1 0xE0 DUP3 ADD DUP3 DUP2 LT PUSH1 0x1 PUSH1 0x1 PUSH1 0x40 SHL SUB DUP3 GT OR PUSH2 0x27A JUMPI PUSH1 0x40 MSTORE JUMP JUMPDEST SWAP3 SWAP2 SWAP3 PUSH1 0x1 PUSH1 0x1 PUSH1 0x40 SHL SUB DUP3 GT PUSH2 0x27A JUMPI PUSH1 0x40 MLOAD SWAP2 PUSH2 0x2E8 PUSH1 0x1F DUP3 ADD PUSH1 0x1F NOT AND PUSH1 0x20 ADD DUP5 PUSH2 0x27F JUMP JUMPDEST DUP3 SWAP5 DUP2 DUP5 MSTORE DUP2 DUP4 ADD GT PUSH2 0x305 JUMPI DUP3 DUP2 PUSH1 0x20 SWAP4 DUP5 PUSH1 0x0 SWAP7 ADD CALLDATACOPY ADD ADD MSTORE JUMP JUMPDEST PUSH1 0x0 DUP1 REVERT JUMPDEST SWAP1 DUP1 PUSH1 0x1F DUP4 ADD SLT ISZERO PUSH2 0x305 JUMPI DUP2 PUSH1 0x20 PUSH2 0x325 SWAP4 CALLDATALOAD SWAP2 ADD PUSH2 0x2BF JUMP JUMPDEST SWAP1 JUMP JUMPDEST CALLVALUE PUSH2 0x305 JUMPI PUSH1 0x20 CALLDATASIZE PUSH1 0x3 NOT ADD SLT PUSH2 0x305 JUMPI PUSH1 0x1 PUSH1 0x1 PUSH1 0x40 SHL SUB PUSH1 0x4 CALLDATALOAD DUP2 DUP2 GT PUSH2 0x305 JUMPI CALLDATASIZE PUSH1 0x23 DUP3 ADD SLT ISZERO PUSH2 0x305 JUMPI DUP1 PUSH1 0x4 ADD CALLDATALOAD SWAP2 DUP3 GT PUSH2 0x305 JUMPI CALLDATASIZE PUSH1 0x24 DUP4 PUSH1 0x5 SHL DUP4 ADD ADD GT PUSH2 0x305 JUMPI PUSH2 0x391 SWAP2 PUSH1 0x24 PUSH2 0x381 SWAP3 ADD PUSH2 0xA92 JUMP JUMPDEST PUSH1 0x40 MLOAD SWAP1 DUP2 MSTORE SWAP1 DUP2 SWAP1 PUSH1 0x20 DUP3 ADD SWAP1 JUMP JUMPDEST SUB SWAP1 RETURN JUMPDEST CALLVALUE PUSH2 0x305 JUMPI PUSH1 0x0 CALLDATASIZE PUSH1 0x3 NOT ADD SLT PUSH2 0x305 JUMPI PUSH1 0x20 PUSH1 0x0 SLOAD PUSH1 0x40 MLOAD SWAP1 DUP2 MSTORE RETURN JUMPDEST CALLVALUE PUSH2 0x305 JUMPI PUSH1 0x20 CALLDATASIZE PUSH1 0x3 NOT ADD SLT PUSH2 0x305 JUMPI PUSH1 0x4 CALLDATALOAD PUSH1 0x0 MSTORE PUSH1 0x1 PUSH1 0x20 MSTORE PUSH1 0x40 DUP1 PUSH1 0x0 KECCAK256 PUSH1 0x3 PUSH1 0x1 DUP3 ADD SLOAD SWAP2 ADD SLOAD DUP3 MLOAD SWAP2 DUP3 MSTORE PUSH1 0x20 DUP3 ADD MSTORE RETURN JUMPDEST SWAP1 PUSH1 0x1 DUP3 DUP2 SHR SWAP3 AND DUP1 ISZERO PUSH2 0x41B JUMPI JUMPDEST PUSH1 0x20 DUP4 LT EQ PUSH2 0x405 JUMPI JUMP JUMPDEST PUSH4 0x4E487B71 PUSH1 0xE0 SHL PUSH1 0x0 MSTORE PUSH1 0x22 PUSH1 0x4 MSTORE PUSH1 0x24 PUSH1 0x0 REVERT JUMPDEST SWAP2 PUSH1 0x7F AND SWAP2 PUSH2 0x3FA JUMP JUMPDEST PUSH1 0x40 MLOAD SWAP1 PUSH1 0x0 DUP3 PUSH1 0x4 SLOAD SWAP2 PUSH2 0x439 DUP4 PUSH2 0x3EB JUMP JUMPDEST DUP1 DUP4 MSTORE SWAP3 PUSH1 0x1 SWAP1 DUP2 DUP2 AND SWAP1 DUP2 ISZERO PUSH2 0x4C1 JUMPI POP PUSH1 0x1 EQ PUSH2 0x462 JUMPI JUMPDEST POP PUSH2 0x460 SWAP3 POP SUB DUP4 PUSH2 0x27F JUMP JUMPDEST JUMP JUMPDEST PUSH1 0x4 PUSH1 0x0 SWAP1 DUP2 MSTORE SWAP2 POP PUSH32 0x8A35ACFBC15FF81A39AE7D344FD709F28E8600B4AA8C65C6B64BFE7FE36BD19B JUMPDEST DUP5 DUP4 LT PUSH2 0x4A6 JUMPI POP PUSH2 0x460 SWAP4 POP POP DUP2 ADD PUSH1 0x20 ADD CODESIZE PUSH2 0x453 JUMP JUMPDEST DUP2 SWAP4 POP SWAP1 DUP2 PUSH1 0x20 SWAP3 SLOAD DUP4 DUP6 DUP11 ADD ADD MSTORE ADD SWAP2 ADD SWAP1 SWAP2 DUP6 SWAP3 PUSH2 0x48D JUMP JUMPDEST SWAP1 POP PUSH1 0x20 SWAP3 POP PUSH2 0x460 SWAP5 SWAP2 POP PUSH1 0xFF NOT AND DUP3 DUP5 ADD MSTORE ISZERO ISZERO PUSH1 0x5 SHL DUP3 ADD ADD CODESIZE PUSH2 0x453 JUMP JUMPDEST SWAP1 PUSH1 0x40 MLOAD SWAP2 DUP3 PUSH1 0x0 DUP3 SLOAD SWAP3 PUSH2 0x4F7 DUP5 PUSH2 0x3EB JUMP JUMPDEST SWAP1 DUP2 DUP5 MSTORE PUSH1 0x1 SWAP5 DUP6 DUP2 AND SWAP1 DUP2 PUSH1 0x0 EQ PUSH2 0x564 JUMPI POP PUSH1 0x1 EQ PUSH2 0x521 JUMPI JUMPDEST POP POP PUSH2 0x460 SWAP3 POP SUB DUP4 PUSH2 0x27F JUMP JUMPDEST SWAP1 SWAP4 SWAP2 POP PUSH1 0x0 MSTORE PUSH1 0x20 SWAP1 DUP2 PUSH1 0x0 KECCAK256 SWAP4 PUSH1 0x0 SWAP2 JUMPDEST DUP2 DUP4 LT PUSH2 0x54C JUMPI POP POP PUSH2 0x460 SWAP4 POP DUP3 ADD ADD CODESIZE DUP1 PUSH2 0x513 JUMP JUMPDEST DUP6 SLOAD DUP9 DUP5 ADD DUP6 ADD MSTORE SWAP5 DUP6 ADD SWAP5 DUP8 SWAP5 POP SWAP2 DUP4 ADD SWAP2 PUSH2 0x534 JUMP JUMPDEST SWAP2 POP POP PUSH2 0x460 SWAP5 POP PUSH1 0x20 SWAP3 POP PUSH1 0xFF NOT AND DUP3 DUP5 ADD MSTORE ISZERO ISZERO PUSH1 0x5 SHL DUP3 ADD ADD CODESIZE DUP1 PUSH2 0x513 JUMP JUMPDEST SWAP1 PUSH1 0x0 SWAP3 SWAP2 DUP1 SLOAD SWAP2 PUSH2 0x598 DUP4 PUSH2 0x3EB JUMP JUMPDEST SWAP2 DUP3 DUP3 MSTORE PUSH1 0x1 SWAP4 DUP5 DUP2 AND SWAP1 DUP2 PUSH1 0x0 EQ PUSH2 0x5FA JUMPI POP PUSH1 0x1 EQ PUSH2 0x5BA JUMPI JUMPDEST POP POP POP POP JUMP JUMPDEST SWAP1 SWAP2 SWAP4 SWAP5 POP PUSH1 0x0 MSTORE PUSH1 0x20 SWAP3 DUP4 PUSH1 0x0 KECCAK256 SWAP3 DUP5 PUSH1 0x0 SWAP5 JUMPDEST DUP4 DUP7 LT PUSH2 0x5E6 JUMPI POP POP POP POP ADD ADD SWAP1 CODESIZE DUP1 DUP1 DUP1 PUSH2 0x5B4 JUMP JUMPDEST DUP1 SLOAD DUP6 DUP8 ADD DUP4 ADD MSTORE SWAP5 ADD SWAP4 DUP6 SWAP1 DUP3 ADD PUSH2 0x5CF JUMP JUMPDEST SWAP3 SWAP5 POP POP POP PUSH1 0x20 SWAP4 SWAP5 POP PUSH1 0xFF NOT AND DUP4 DUP4 ADD MSTORE ISZERO ISZERO PUSH1 0x5 SHL ADD ADD SWAP1 CODESIZE DUP1 DUP1 DUP1 PUSH2 0x5B4 JUMP JUMPDEST SWAP2 SWAP1 DUP3 MLOAD SWAP3 DUP4 DUP3 MSTORE PUSH1 0x0 JUMPDEST DUP5 DUP2 LT PUSH2 0x649 JUMPI POP POP DUP3 PUSH1 0x0 PUSH1 0x20 DUP1 SWAP5 SWAP6 DUP5 ADD ADD MSTORE PUSH1 0x1F DUP1 NOT SWAP2 ADD AND ADD ADD SWAP1 JUMP JUMPDEST PUSH1 0x20 DUP2 DUP4 ADD DUP2 ADD MLOAD DUP5 DUP4 ADD DUP3 ADD MSTORE ADD PUSH2 0x628 JUMP JUMPDEST SWAP6 SWAP3 SWAP5 PUSH2 0x6AB SWAP5 PUSH1 0xC0 SWAP7 PUSH2 0x680 PUSH2 0x69D SWAP6 SWAP5 SWAP12 SWAP11 SWAP12 PUSH1 0xE0 DUP12 MSTORE PUSH1 0xE0 DUP12 ADD SWAP1 PUSH2 0x61D JUMP JUMPDEST SWAP4 PUSH1 0x20 DUP11 ADD MSTORE PUSH1 0x40 DUP10 ADD MSTORE PUSH1 0x60 DUP9 ADD MSTORE DUP7 DUP3 SUB PUSH1 0x80 DUP9 ADD MSTORE PUSH2 0x61D JUMP JUMPDEST SWAP1 DUP5 DUP3 SUB PUSH1 0xA0 DUP7 ADD MSTORE PUSH2 0x61D JUMP JUMPDEST SWAP4 ISZERO ISZERO SWAP2 ADD MSTORE JUMP JUMPDEST CALLVALUE PUSH2 0x305 JUMPI PUSH1 0x20 CALLDATASIZE PUSH1 0x3 NOT ADD SLT PUSH2 0x305 JUMPI PUSH1 0x4 CALLDATALOAD PUSH1 0x0 MSTORE PUSH1 0x1 PUSH1 0x20 MSTORE PUSH1 0x40 PUSH1 0x0 KECCAK256 PUSH2 0x6DD DUP2 PUSH2 0x4E3 JUMP JUMPDEST PUSH2 0x391 PUSH1 0x1 DUP4 ADD SLOAD SWAP3 PUSH1 0x2 DUP2 ADD SLOAD SWAP1 PUSH1 0x3 DUP2 ADD SLOAD PUSH1 0x40 MLOAD SWAP1 PUSH2 0x70D DUP3 PUSH2 0x706 DUP2 PUSH1 0x4 DUP8 ADD PUSH2 0x587 JUMP JUMPDEST SUB DUP4 PUSH2 0x27F JUMP JUMPDEST PUSH1 0xFF PUSH1 0x6 PUSH1 0x40 MLOAD SWAP5 PUSH2 0x72D DUP7 PUSH2 0x726 DUP2 PUSH1 0x5 DUP6 ADD PUSH2 0x587 JUMP JUMPDEST SUB DUP8 PUSH2 0x27F JUMP JUMPDEST ADD SLOAD AND SWAP4 PUSH1 0x40 MLOAD SWAP8 DUP9 SWAP8 DUP9 PUSH2 0x65D JUMP JUMPDEST PUSH1 0x40 MLOAD SWAP1 PUSH1 0xE0 DUP3 ADD DUP3 DUP2 LT PUSH1 0x1 PUSH1 0x1 PUSH1 0x40 SHL SUB DUP3 GT OR PUSH2 0x27A JUMPI PUSH1 0x40 MSTORE PUSH1 0x60 PUSH1 0xC0 DUP4 PUSH1 0x0 DUP2 MSTORE PUSH1 0x0 PUSH1 0x20 DUP3 ADD MSTORE PUSH1 0x0 PUSH1 0x40 DUP3 ADD MSTORE DUP3 DUP1 DUP3 ADD MSTORE DUP3 PUSH1 0x80 DUP3 ADD MSTORE DUP3 PUSH1 0xA0 DUP3 ADD MSTORE ADD MSTORE JUMP JUMPDEST SWAP3 SWAP2 SWAP1 SWAP3 PUSH1 0x1 PUSH1 0x1 PUSH1 0x40 SHL SUB SWAP2 DUP3 DUP6 GT PUSH2 0x27A JUMPI DUP5 PUSH1 0x5 SHL PUSH1 0x40 MLOAD SWAP4 PUSH1 0x20 DUP1 SWAP6 PUSH2 0x7B2 DUP3 DUP6 ADD DUP3 PUSH2 0x27F JUMP JUMPDEST DUP1 SWAP9 DUP2 MSTORE ADD SWAP2 DUP5 ADD SWAP4 DUP4 DUP6 GT PUSH2 0x305 JUMPI DUP1 SWAP3 JUMPDEST DUP6 DUP5 LT PUSH2 0x7D5 JUMPI POP POP POP POP POP POP POP JUMP JUMPDEST DUP4 CALLDATALOAD DUP4 DUP2 GT PUSH2 0x305 JUMPI DUP3 ADD DUP6 PUSH1 0x1F DUP3 ADD SLT ISZERO PUSH2 0x305 JUMPI DUP8 SWAP2 PUSH2 0x7FD DUP8 DUP4 DUP6 DUP1 SWAP6 CALLDATALOAD SWAP2 ADD PUSH2 0x2BF JUMP JUMPDEST DUP2 MSTORE ADD SWAP4 ADD SWAP3 PUSH2 0x7C5 JUMP JUMPDEST PUSH1 0x40 MLOAD SWAP1 PUSH1 0x20 DUP3 ADD DUP3 DUP2 LT PUSH1 0x1 PUSH1 0x1 PUSH1 0x40 SHL SUB DUP3 GT OR PUSH2 0x27A JUMPI PUSH1 0x40 MSTORE PUSH1 0x0 DUP3 MSTORE JUMP JUMPDEST SWAP1 PUSH1 0x1F DUP2 GT PUSH2 0x839 JUMPI POP POP POP JUMP JUMPDEST PUSH1 0x0 SWAP2 DUP3 MSTORE PUSH1 0x20 DUP3 KECCAK256 SWAP1 PUSH1 0x20 PUSH1 0x1F DUP6 ADD PUSH1 0x5 SHR DUP4 ADD SWAP5 LT PUSH2 0x875 JUMPI JUMPDEST PUSH1 0x1F ADD PUSH1 0x5 SHR ADD SWAP2 JUMPDEST DUP3 DUP2 LT PUSH2 0x86A JUMPI POP POP POP JUMP JUMPDEST DUP2 DUP2 SSTORE PUSH1 0x1 ADD PUSH2 0x85E JUMP JUMPDEST SWAP1 SWAP3 POP DUP3 SWAP1 PUSH2 0x855 JUMP JUMPDEST SWAP2 SWAP1 SWAP2 DUP3 MLOAD PUSH1 0x1 PUSH1 0x1 PUSH1 0x40 SHL SUB DUP2 GT PUSH2 0x27A JUMPI PUSH2 0x8A6 DUP2 PUSH2 0x8A0 DUP5 SLOAD PUSH2 0x3EB JUMP JUMPDEST DUP5 PUSH2 0x82B JUMP JUMPDEST PUSH1 0x20 DUP1 PUSH1 0x1F DUP4 GT PUSH1 0x1 EQ PUSH2 0x8E2 JUMPI POP DUP2 SWAP3 SWAP4 SWAP5 PUSH1 0x0 SWAP3 PUSH2 0x8D7 JUMPI JUMPDEST POP POP DUP2 PUSH1 0x1 SHL SWAP2 PUSH1 0x0 NOT SWAP1 PUSH1 0x3 SHL SHR NOT AND OR SWAP1 SSTORE JUMP JUMPDEST ADD MLOAD SWAP1 POP CODESIZE DUP1 PUSH2 0x8C1 JUMP JUMPDEST SWAP1 PUSH1 0x1F NOT DUP4 AND SWAP6 PUSH2 0x8F8 DUP6 PUSH1 0x0 MSTORE PUSH1 0x20 PUSH1 0x0 KECCAK256 SWAP1 JUMP JUMPDEST SWAP3 PUSH1 0x0 SWAP1 JUMPDEST DUP9 DUP3 LT PUSH2 0x935 JUMPI POP POP DUP4 PUSH1 0x1 SWAP6 SWAP7 SWAP8 LT PUSH2 0x91C JUMPI JUMPDEST POP POP POP DUP2 SHL ADD SWAP1 SSTORE JUMP JUMPDEST ADD MLOAD PUSH1 0x0 NOT PUSH1 0xF8 DUP5 PUSH1 0x3 SHL AND SHR NOT AND SWAP1 SSTORE CODESIZE DUP1 DUP1 PUSH2 0x912 JUMP JUMPDEST DUP1 PUSH1 0x1 DUP6 SWAP7 DUP3 SWAP5 SWAP7 DUP7 ADD MLOAD DUP2 SSTORE ADD SWAP6 ADD SWAP4 ADD SWAP1 PUSH2 0x8FD JUMP JUMPDEST SWAP2 SWAP1 SWAP2 DUP3 MLOAD SWAP3 DUP4 MLOAD PUSH1 0x1 PUSH1 0x1 PUSH1 0x40 SHL SUB DUP2 GT PUSH2 0x27A JUMPI PUSH2 0x977 DUP2 PUSH2 0x971 DUP6 SLOAD PUSH2 0x3EB JUMP JUMPDEST DUP6 PUSH2 0x82B JUMP JUMPDEST PUSH1 0x20 SWAP5 DUP6 SWAP1 PUSH1 0x1F DUP4 GT PUSH1 0x1 EQ PUSH2 0xA18 JUMPI SWAP3 PUSH2 0x460 SWAP6 SWAP7 DUP4 PUSH2 0x9FA SWAP5 PUSH1 0xC0 SWAP5 PUSH1 0x6 SWAP8 PUSH1 0x0 SWAP3 PUSH2 0xA0D JUMPI JUMPDEST POP POP DUP2 PUSH1 0x1 SHL SWAP2 PUSH1 0x0 NOT SWAP1 PUSH1 0x3 SHL SHR NOT AND OR DUP7 SSTORE JUMPDEST DUP2 ADD MLOAD PUSH1 0x1 DUP7 ADD SSTORE PUSH1 0x40 DUP2 ADD MLOAD PUSH1 0x2 DUP7 ADD SSTORE PUSH1 0x60 DUP2 ADD MLOAD PUSH1 0x3 DUP7 ADD SSTORE PUSH2 0x9E2 PUSH1 0x80 DUP3 ADD MLOAD PUSH1 0x4 DUP8 ADD PUSH2 0x87F JUMP JUMPDEST PUSH2 0x9F3 PUSH1 0xA0 DUP3 ADD MLOAD PUSH1 0x5 DUP8 ADD PUSH2 0x87F JUMP JUMPDEST ADD MLOAD ISZERO ISZERO SWAP1 JUMP JUMPDEST SWAP2 ADD SWAP1 PUSH1 0xFF DUP1 NOT DUP4 SLOAD AND SWAP2 ISZERO ISZERO AND OR SWAP1 SSTORE JUMP JUMPDEST ADD MLOAD SWAP1 POP CODESIZE DUP1 PUSH2 0x9A0 JUMP JUMPDEST SWAP1 PUSH1 0x1F NOT DUP4 AND SWAP2 PUSH2 0xA2E DUP7 PUSH1 0x0 MSTORE PUSH1 0x20 PUSH1 0x0 KECCAK256 SWAP1 JUMP JUMPDEST SWAP3 PUSH1 0x0 JUMPDEST DUP2 DUP2 LT PUSH2 0xA7B JUMPI POP DUP5 PUSH1 0xC0 SWAP5 PUSH1 0x6 SWAP8 SWAP5 PUSH2 0x460 SWAP11 SWAP12 SWAP5 PUSH2 0x9FA SWAP9 PUSH1 0x1 SWAP6 LT PUSH2 0xA62 JUMPI JUMPDEST POP POP POP DUP2 SHL ADD DUP7 SSTORE PUSH2 0x9B5 JUMP JUMPDEST ADD MLOAD PUSH1 0x0 NOT PUSH1 0xF8 DUP5 PUSH1 0x3 SHL AND SHR NOT AND SWAP1 SSTORE CODESIZE DUP1 DUP1 PUSH2 0xA55 JUMP JUMPDEST SWAP3 SWAP4 DUP10 PUSH1 0x1 DUP2 SWAP3 DUP8 DUP7 ADD MLOAD DUP2 SSTORE ADD SWAP6 ADD SWAP4 ADD PUSH2 0xA32 JUMP JUMPDEST PUSH2 0xAC4 PUSH2 0xB43 SWAP3 PUSH2 0xADF SWAP3 PUSH2 0xAA5 PUSH2 0x73D JUMP JUMPDEST SWAP2 PUSH2 0xAB7 PUSH2 0xAB1 PUSH2 0x425 JUMP JUMPDEST DUP5 PUSH2 0xFB0 JUMP JUMPDEST DUP1 PUSH2 0xB49 JUMPI JUMPDEST POP POP PUSH2 0xDDD JUMP JUMPDEST PUSH1 0x2 SLOAD PUSH1 0x3 SLOAD SWAP2 PUSH1 0x1 PUSH1 0x1 PUSH1 0x40 SHL SUB DUP3 PUSH1 0xE0 SHR SWAP3 AND SWAP1 PUSH2 0xB80 JUMP JUMPDEST DUP1 PUSH1 0x0 SSTORE PUSH2 0xB3E PUSH2 0xAEE PUSH2 0x2A0 JUMP JUMPDEST SWAP2 PUSH2 0xAF7 PUSH2 0x808 JUMP JUMPDEST DUP4 MSTORE PUSH1 0x0 PUSH1 0x20 DUP5 ADD MSTORE TIMESTAMP PUSH1 0x40 DUP5 ADD MSTORE PUSH1 0x0 PUSH1 0x60 DUP5 ADD MSTORE PUSH2 0xB15 PUSH2 0x808 JUMP JUMPDEST PUSH1 0x80 DUP5 ADD MSTORE PUSH2 0xB22 PUSH2 0x808 JUMP JUMPDEST PUSH1 0xA0 DUP5 ADD MSTORE PUSH1 0x1 PUSH1 0xC0 DUP5 ADD MSTORE PUSH1 0x0 MSTORE PUSH1 0x1 PUSH1 0x20 MSTORE PUSH1 0x40 PUSH1 0x0 KECCAK256 SWAP1 JUMP JUMPDEST PUSH2 0x94D JUMP JUMPDEST PUSH1 0x0 SLOAD SWAP1 JUMP JUMPDEST PUSH2 0xB5E SWAP2 PUSH2 0xB58 SWAP2 CALLDATASIZE SWAP2 PUSH2 0x786 JUMP JUMPDEST DUP3 PUSH2 0xFD9 JUMP JUMPDEST CODESIZE DUP1 PUSH2 0xABD JUMP JUMPDEST SWAP1 DUP2 PUSH1 0x20 SWAP2 SUB SLT PUSH2 0x305 JUMPI MLOAD SWAP1 JUMP JUMPDEST PUSH1 0x40 MLOAD RETURNDATASIZE PUSH1 0x0 DUP3 RETURNDATACOPY RETURNDATASIZE SWAP1 REVERT JUMPDEST SWAP3 SWAP1 PUSH1 0x20 SWAP3 PUSH1 0x1 PUSH1 0x1 PUSH1 0x40 SHL SUB SWAP3 PUSH4 0xFFFFFFFF PUSH2 0xBBF PUSH1 0x40 MLOAD SWAP8 DUP9 SWAP7 DUP8 SWAP7 PUSH4 0x230E93B1 PUSH1 0xE1 SHL DUP9 MSTORE AND PUSH1 0x4 DUP8 ADD MSTORE PUSH1 0xA0 PUSH1 0x24 DUP8 ADD MSTORE PUSH1 0xA4 DUP7 ADD SWAP1 PUSH2 0x61D JUMP JUMPDEST PUSH1 0x1 PUSH1 0x44 DUP7 ADD MSTORE SWAP3 AND PUSH1 0x64 DUP5 ADD MSTORE PUSH1 0x84 DUP4 ADD MSTORE SUB DUP2 PUSH1 0x0 PUSH32 0x0 PUSH1 0x1 PUSH1 0x1 PUSH1 0xA0 SHL SUB AND GAS CALL SWAP1 DUP2 ISZERO PUSH2 0x20F JUMPI PUSH1 0x0 SWAP2 PUSH2 0xC3B JUMPI JUMPDEST POP DUP1 PUSH32 0x1131472297A800FEE664D1D89CFA8F7676FF07189ECC53F80BBB5F4969099DB8 PUSH1 0x0 DUP1 LOG2 SWAP1 JUMP JUMPDEST PUSH2 0xC53 SWAP2 POP PUSH1 0x20 RETURNDATASIZE DUP2 GT PUSH2 0x208 JUMPI PUSH2 0x1FA DUP2 DUP4 PUSH2 0x27F JUMP JUMPDEST CODESIZE PUSH2 0xC11 JUMP JUMPDEST PUSH1 0x40 MLOAD SWAP1 PUSH2 0xC66 DUP3 PUSH2 0x25F JUMP JUMPDEST PUSH1 0xC DUP3 MSTORE PUSH12 0x31B7B232A637B1B0BA34B7B7 PUSH1 0xA1 SHL PUSH1 0x20 DUP4 ADD MSTORE JUMP JUMPDEST PUSH4 0x4E487B71 PUSH1 0xE0 SHL PUSH1 0x0 MSTORE PUSH1 0x21 PUSH1 0x4 MSTORE PUSH1 0x24 PUSH1 0x0 REVERT JUMPDEST PUSH1 0x3 GT ISZERO PUSH2 0xCA1 JUMPI JUMP JUMPDEST PUSH2 0xC81 JUMP JUMPDEST PUSH1 0x40 MLOAD SWAP1 PUSH2 0xCB3 DUP3 PUSH2 0x25F JUMP JUMPDEST PUSH1 0x8 DUP3 MSTORE PUSH8 0x6C616E6775616765 PUSH1 0xC0 SHL PUSH1 0x20 DUP4 ADD MSTORE JUMP JUMPDEST PUSH1 0x1 GT ISZERO PUSH2 0xCA1 JUMPI JUMP JUMPDEST PUSH1 0x40 MLOAD SWAP1 PUSH2 0xCE1 DUP3 PUSH2 0x25F JUMP JUMPDEST PUSH1 0x6 DUP3 MSTORE PUSH6 0x736F75726365 PUSH1 0xD0 SHL PUSH1 0x20 DUP4 ADD MSTORE JUMP JUMPDEST PUSH1 0x40 MLOAD SWAP1 PUSH2 0xD03 DUP3 PUSH2 0x25F JUMP JUMPDEST PUSH1 0x4 DUP3 MSTORE PUSH4 0x61726773 PUSH1 0xE0 SHL PUSH1 0x20 DUP4 ADD MSTORE JUMP JUMPDEST PUSH4 0x4E487B71 PUSH1 0xE0 SHL PUSH1 0x0 MSTORE PUSH1 0x11 PUSH1 0x4 MSTORE PUSH1 0x24 PUSH1 0x0 REVERT JUMPDEST PUSH1 0x0 NOT DUP2 EQ PUSH2 0xD3B JUMPI PUSH1 0x1 ADD SWAP1 JUMP JUMPDEST PUSH2 0xD16 JUMP JUMPDEST DUP1 MLOAD DUP3 LT ISZERO PUSH2 0xD54 JUMPI PUSH1 0x20 SWAP2 PUSH1 0x5 SHL ADD ADD SWAP1 JUMP JUMPDEST PUSH4 0x4E487B71 PUSH1 0xE0 SHL PUSH1 0x0 MSTORE PUSH1 0x32 PUSH1 0x4 MSTORE PUSH1 0x24 PUSH1 0x0 REVERT JUMPDEST PUSH1 0x40 MLOAD SWAP1 PUSH2 0xD77 DUP3 PUSH2 0x25F JUMP JUMPDEST PUSH1 0xF DUP3 MSTORE PUSH15 0x39B2B1B932BA39A637B1B0BA34B7B7 PUSH1 0x89 SHL PUSH1 0x20 DUP4 ADD MSTORE JUMP JUMPDEST PUSH1 0x40 MLOAD SWAP1 PUSH2 0xDA2 DUP3 PUSH2 0x25F JUMP JUMPDEST PUSH1 0x7 DUP3 MSTORE PUSH7 0x73656372657473 PUSH1 0xC8 SHL PUSH1 0x20 DUP4 ADD MSTORE JUMP JUMPDEST PUSH1 0x40 MLOAD SWAP1 PUSH2 0xDC5 DUP3 PUSH2 0x25F JUMP JUMPDEST PUSH1 0x9 DUP3 MSTORE PUSH9 0x627974657341726773 PUSH1 0xB8 SHL PUSH1 0x20 DUP4 ADD MSTORE JUMP JUMPDEST PUSH2 0xDE5 PUSH2 0x1012 JUMP JUMPDEST SWAP1 PUSH2 0xDF7 PUSH2 0xDF1 PUSH2 0xC59 JUMP JUMPDEST DUP4 PUSH2 0x176A JUMP JUMPDEST PUSH2 0xE14 DUP2 MLOAD PUSH2 0xE05 DUP2 PUSH2 0xC97 JUMP JUMPDEST PUSH2 0xE0E DUP2 PUSH2 0xC97 JUMP JUMPDEST DUP4 PUSH2 0x10DE JUMP JUMPDEST PUSH2 0xE1F PUSH2 0xDF1 PUSH2 0xCA6 JUMP JUMPDEST PUSH2 0xE39 PUSH1 0x40 DUP3 ADD MLOAD PUSH2 0xE30 DUP2 PUSH2 0xCCA JUMP JUMPDEST PUSH2 0xE0E DUP2 PUSH2 0xCCA JUMP JUMPDEST PUSH2 0xE44 PUSH2 0xDF1 PUSH2 0xCD4 JUMP JUMPDEST PUSH2 0xE52 PUSH1 0x60 DUP3 ADD MLOAD DUP4 PUSH2 0x176A JUMP JUMPDEST PUSH1 0xA0 DUP2 ADD DUP1 MLOAD MLOAD PUSH2 0xF57 JUMPI JUMPDEST POP PUSH1 0x80 DUP2 ADD SWAP1 DUP2 MLOAD MLOAD PUSH2 0xED7 JUMPI JUMPDEST PUSH1 0xC0 SWAP2 POP ADD DUP1 MLOAD MLOAD PUSH2 0xE7F JUMPI JUMPDEST POP MLOAD MLOAD SWAP1 JUMP JUMPDEST SWAP2 PUSH2 0xE8B PUSH2 0xDF1 PUSH2 0xDB8 JUMP JUMPDEST PUSH2 0xE94 DUP3 PUSH2 0x17EE JUMP JUMPDEST PUSH1 0x0 JUMPDEST DUP4 MLOAD DUP1 MLOAD DUP3 LT ISZERO PUSH2 0xEC4 JUMPI SWAP1 PUSH2 0xEBA PUSH2 0xEB3 DUP3 PUSH2 0xEBF SWAP5 PUSH2 0xD40 JUMP JUMPDEST MLOAD DUP6 PUSH2 0x16B5 JUMP JUMPDEST PUSH2 0xD2C JUMP JUMPDEST PUSH2 0xE97 JUMP JUMPDEST POP POP SWAP2 POP PUSH2 0xED1 DUP2 PUSH2 0x187A JUMP JUMPDEST CODESIZE PUSH2 0xE79 JUMP JUMPDEST PUSH1 0x20 DUP2 ADD DUP1 MLOAD PUSH2 0xEE6 DUP2 PUSH2 0xC97 JUMP JUMPDEST PUSH2 0xEEF DUP2 PUSH2 0xC97 JUMP JUMPDEST ISZERO PUSH2 0xF45 JUMPI PUSH1 0xC0 SWAP3 PUSH2 0xF28 PUSH2 0xF40 SWAP3 PUSH2 0xF0F PUSH2 0xF09 PUSH2 0xD6A JUMP JUMPDEST DUP9 PUSH2 0x176A JUMP JUMPDEST MLOAD PUSH2 0xF19 DUP2 PUSH2 0xC97 JUMP JUMPDEST PUSH2 0xF22 DUP2 PUSH2 0xC97 JUMP JUMPDEST DUP7 PUSH2 0x10DE JUMP JUMPDEST PUSH2 0xF39 PUSH2 0xF33 PUSH2 0xD95 JUMP JUMPDEST DUP7 PUSH2 0x176A JUMP JUMPDEST MLOAD DUP5 PUSH2 0x16B5 JUMP JUMPDEST PUSH2 0xE6C JUMP JUMPDEST PUSH1 0x40 MLOAD PUSH4 0xA80D31F7 PUSH1 0xE0 SHL DUP2 MSTORE PUSH1 0x4 SWAP1 REVERT JUMPDEST SWAP3 PUSH2 0xF69 PUSH2 0xF63 PUSH2 0xCF6 JUMP JUMPDEST DUP5 PUSH2 0x176A JUMP JUMPDEST PUSH2 0xF72 DUP4 PUSH2 0x17EE JUMP JUMPDEST PUSH1 0x0 JUMPDEST DUP5 MLOAD DUP1 MLOAD DUP3 LT ISZERO PUSH2 0xF9D JUMPI SWAP1 PUSH2 0xEBA PUSH2 0xF91 DUP3 PUSH2 0xF98 SWAP5 PUSH2 0xD40 JUMP JUMPDEST MLOAD DUP7 PUSH2 0x176A JUMP JUMPDEST PUSH2 0xF75 JUMP JUMPDEST POP POP SWAP3 POP PUSH2 0xFAA DUP3 PUSH2 0x187A JUMP JUMPDEST CODESIZE PUSH2 0xE5E JUMP JUMPDEST DUP2 MLOAD ISZERO PUSH2 0xFC7 JUMPI PUSH1 0x0 DUP1 DUP3 MSTORE PUSH1 0x40 DUP3 ADD MSTORE PUSH1 0x60 ADD MSTORE JUMP JUMPDEST PUSH1 0x40 MLOAD PUSH4 0x22CE3EDD PUSH1 0xE0 SHL DUP2 MSTORE PUSH1 0x4 SWAP1 REVERT JUMPDEST DUP2 MLOAD ISZERO PUSH2 0xFE6 JUMPI PUSH1 0xA0 ADD MSTORE JUMP JUMPDEST PUSH1 0x40 MLOAD PUSH4 0xFE936CB7 PUSH1 0xE0 SHL DUP2 MSTORE PUSH1 0x4 SWAP1 REVERT JUMPDEST PUSH1 0x40 MLOAD SWAP1 PUSH2 0x1005 DUP3 PUSH2 0x25F JUMP JUMPDEST PUSH1 0x0 PUSH1 0x20 DUP4 PUSH1 0x60 DUP2 MSTORE ADD MSTORE JUMP JUMPDEST PUSH1 0x40 MLOAD PUSH2 0x101E DUP2 PUSH2 0x25F JUMP JUMPDEST PUSH2 0x1026 PUSH2 0xFF8 JUMP JUMPDEST DUP1 DUP3 MSTORE PUSH1 0x20 DUP3 ADD PUSH1 0x0 DUP2 MSTORE PUSH2 0x1039 PUSH2 0xFF8 JUMP JUMPDEST POP PUSH2 0x100 PUSH1 0x20 DUP4 ADD MSTORE PUSH1 0x40 MLOAD DUP1 SWAP3 MSTORE PUSH1 0x0 DUP3 MSTORE PUSH2 0x120 DUP3 ADD SWAP2 DUP3 LT PUSH2 0x305 JUMPI PUSH1 0x0 SWAP2 PUSH1 0x40 MSTORE MSTORE SWAP1 JUMP JUMPDEST PUSH1 0x1F NOT DUP2 ADD SWAP2 SWAP1 DUP3 GT PUSH2 0xD3B JUMPI JUMP JUMPDEST SWAP1 PUSH1 0x20 DUP3 ADD DUP1 SWAP3 GT PUSH2 0xD3B JUMPI JUMP JUMPDEST SWAP2 SWAP1 DUP3 ADD DUP1 SWAP3 GT PUSH2 0xD3B JUMPI JUMP JUMPDEST SWAP1 PUSH2 0x1095 PUSH2 0xFF8 JUMP JUMPDEST POP PUSH1 0x1F DUP2 AND DUP1 PUSH2 0x10C4 JUMPI JUMPDEST POP DUP1 PUSH1 0x20 DUP4 ADD MSTORE PUSH1 0x40 MLOAD SWAP1 DUP2 DUP4 MSTORE PUSH1 0x0 DUP3 MSTORE DUP2 ADD PUSH1 0x20 ADD SWAP1 DUP2 LT PUSH2 0x305 JUMPI PUSH1 0x40 MSTORE SWAP1 JUMP JUMPDEST PUSH1 0x20 SUB PUSH1 0x20 DUP2 GT PUSH2 0xD3B JUMPI DUP2 ADD DUP1 SWAP2 GT PUSH2 0xD3B JUMPI CODESIZE PUSH2 0x10A0 JUMP JUMPDEST SWAP1 DUP2 MLOAD SWAP2 PUSH2 0x10EA PUSH2 0xFF8 JUMP JUMPDEST POP DUP3 MLOAD MLOAD PUSH1 0x1 DUP2 ADD SWAP1 DUP2 DUP2 GT PUSH2 0xD3B JUMPI PUSH1 0x20 DUP6 ADD MLOAD DUP2 LT ISZERO PUSH2 0x1143 JUMPI JUMPDEST PUSH1 0xC2 PUSH1 0x20 PUSH2 0x460 SWAP7 MLOAD SWAP3 DUP4 ADD ADD MSTORE8 DUP1 MLOAD DUP3 GT PUSH2 0x113B JUMPI JUMPDEST POP POP PUSH1 0x40 MLOAD SWAP2 PUSH1 0x20 DUP4 ADD MSTORE PUSH1 0x20 DUP3 MSTORE PUSH2 0x1136 DUP3 PUSH2 0x25F JUMP JUMPDEST PUSH2 0x16B5 JUMP JUMPDEST MSTORE CODESIZE DUP1 PUSH2 0x111E JUMP JUMPDEST DUP2 PUSH1 0x1 SHL SWAP5 DUP3 DUP7 DIV PUSH1 0x2 EQ DUP4 ISZERO OR ISZERO PUSH2 0xD3B JUMPI PUSH1 0x20 DUP2 PUSH2 0x1175 PUSH2 0x460 SWAP9 PUSH2 0x116E PUSH1 0xC2 SWAP6 MLOAD SWAP2 DUP5 PUSH2 0x108C JUMP JUMPDEST POP DUP3 PUSH2 0x15FD JUMP JUMPDEST POP SWAP7 POP POP POP PUSH2 0x1107 JUMP JUMPDEST SWAP1 DUP2 PUSH1 0x1 SHL SWAP2 DUP1 DUP4 DIV PUSH1 0x2 EQ SWAP1 ISZERO OR ISZERO PUSH2 0xD3B JUMPI JUMP JUMPDEST PUSH2 0x119D PUSH2 0xFF8 JUMP JUMPDEST POP DUP1 MLOAD MLOAD PUSH1 0x1 DUP2 ADD SWAP1 DUP2 DUP2 GT PUSH2 0xD3B JUMPI PUSH1 0x20 DUP4 ADD MLOAD DUP2 LT ISZERO PUSH2 0x11D6 JUMPI JUMPDEST PUSH1 0x5B PUSH1 0x20 DUP5 MLOAD SWAP3 DUP4 ADD ADD MSTORE8 DUP1 MLOAD DUP3 GT PUSH2 0x11D2 JUMPI POP POP SWAP1 JUMP JUMPDEST MSTORE SWAP1 JUMP JUMPDEST DUP2 PUSH1 0x1 SHL DUP3 DUP2 DIV PUSH1 0x2 EQ DUP4 ISZERO OR ISZERO PUSH2 0xD3B JUMPI PUSH2 0x11FF SWAP1 PUSH2 0x11F8 DUP6 MLOAD SWAP2 DUP7 PUSH2 0x108C JUMP JUMPDEST POP DUP5 PUSH2 0x15FD JUMP JUMPDEST POP PUSH2 0x11BA JUMP JUMPDEST PUSH2 0x120D PUSH2 0xFF8 JUMP JUMPDEST POP DUP1 MLOAD MLOAD PUSH1 0x1 DUP2 ADD SWAP1 DUP2 DUP2 GT PUSH2 0xD3B JUMPI PUSH1 0x20 DUP4 ADD MLOAD DUP2 LT ISZERO PUSH2 0x1242 JUMPI JUMPDEST PUSH1 0x5A PUSH1 0x20 DUP5 MLOAD SWAP3 DUP4 ADD ADD MSTORE8 DUP1 MLOAD DUP3 GT PUSH2 0x11D2 JUMPI POP POP SWAP1 JUMP JUMPDEST DUP2 PUSH1 0x1 SHL DUP3 DUP2 DIV PUSH1 0x2 EQ DUP4 ISZERO OR ISZERO PUSH2 0xD3B JUMPI PUSH2 0x1264 SWAP1 PUSH2 0x11F8 DUP6 MLOAD SWAP2 DUP7 PUSH2 0x108C JUMP JUMPDEST POP PUSH2 0x122A JUMP JUMPDEST PUSH2 0x1272 PUSH2 0xFF8 JUMP JUMPDEST POP DUP1 MLOAD MLOAD PUSH1 0x1 DUP2 ADD SWAP1 DUP2 DUP2 GT PUSH2 0xD3B JUMPI PUSH1 0x20 DUP4 ADD MLOAD DUP2 LT ISZERO PUSH2 0x12A7 JUMPI JUMPDEST PUSH1 0x59 PUSH1 0x20 DUP5 MLOAD SWAP3 DUP4 ADD ADD MSTORE8 DUP1 MLOAD DUP3 GT PUSH2 0x11D2 JUMPI POP POP SWAP1 JUMP JUMPDEST DUP2 PUSH1 0x1 SHL DUP3 DUP2 DIV PUSH1 0x2 EQ DUP4 ISZERO OR ISZERO PUSH2 0xD3B JUMPI PUSH2 0x12C9 SWAP1 PUSH2 0x11F8 DUP6 MLOAD SWAP2 DUP7 PUSH2 0x108C JUMP JUMPDEST POP PUSH2 0x128F JUMP JUMPDEST PUSH2 0x12D7 PUSH2 0xFF8 JUMP JUMPDEST POP DUP1 MLOAD MLOAD PUSH1 0x1 DUP2 ADD SWAP1 DUP2 DUP2 GT PUSH2 0xD3B JUMPI PUSH1 0x20 DUP4 ADD MLOAD DUP2 LT ISZERO PUSH2 0x130C JUMPI JUMPDEST PUSH1 0x58 PUSH1 0x20 DUP5 MLOAD SWAP3 DUP4 ADD ADD MSTORE8 DUP1 MLOAD DUP3 GT PUSH2 0x11D2 JUMPI POP POP SWAP1 JUMP JUMPDEST DUP2 PUSH1 0x1 SHL DUP3 DUP2 DIV PUSH1 0x2 EQ DUP4 ISZERO OR ISZERO PUSH2 0xD3B JUMPI PUSH2 0x132E SWAP1 PUSH2 0x11F8 DUP6 MLOAD SWAP2 DUP7 PUSH2 0x108C JUMP JUMPDEST POP PUSH2 0x12F4 JUMP JUMPDEST PUSH2 0x133C PUSH2 0xFF8 JUMP JUMPDEST POP DUP1 MLOAD MLOAD PUSH1 0x1 DUP2 ADD SWAP1 DUP2 DUP2 GT PUSH2 0xD3B JUMPI PUSH1 0x20 DUP4 ADD MLOAD DUP2 LT ISZERO PUSH2 0x1371 JUMPI JUMPDEST PUSH1 0x7B PUSH1 0x20 DUP5 MLOAD SWAP3 DUP4 ADD ADD MSTORE8 DUP1 MLOAD DUP3 GT PUSH2 0x11D2 JUMPI POP POP SWAP1 JUMP JUMPDEST DUP2 PUSH1 0x1 SHL DUP3 DUP2 DIV PUSH1 0x2 EQ DUP4 ISZERO OR ISZERO PUSH2 0xD3B JUMPI PUSH2 0x1393 SWAP1 PUSH2 0x11F8 DUP6 MLOAD SWAP2 DUP7 PUSH2 0x108C JUMP JUMPDEST POP PUSH2 0x1359 JUMP JUMPDEST PUSH2 0x13A1 PUSH2 0xFF8 JUMP JUMPDEST POP DUP1 MLOAD MLOAD PUSH1 0x1 DUP2 ADD SWAP1 DUP2 DUP2 GT PUSH2 0xD3B JUMPI PUSH1 0x20 DUP4 ADD MLOAD DUP2 LT ISZERO PUSH2 0x13D6 JUMPI JUMPDEST PUSH1 0x7A PUSH1 0x20 DUP5 MLOAD SWAP3 DUP4 ADD ADD MSTORE8 DUP1 MLOAD DUP3 GT PUSH2 0x11D2 JUMPI POP POP SWAP1 JUMP JUMPDEST DUP2 PUSH1 0x1 SHL DUP3 DUP2 DIV PUSH1 0x2 EQ DUP4 ISZERO OR ISZERO PUSH2 0xD3B JUMPI PUSH2 0x13F8 SWAP1 PUSH2 0x11F8 DUP6 MLOAD SWAP2 DUP7 PUSH2 0x108C JUMP JUMPDEST POP PUSH2 0x13BE JUMP JUMPDEST PUSH2 0x1406 PUSH2 0xFF8 JUMP JUMPDEST POP DUP1 MLOAD MLOAD PUSH1 0x1 DUP2 ADD SWAP1 DUP2 DUP2 GT PUSH2 0xD3B JUMPI PUSH1 0x20 DUP4 ADD MLOAD DUP2 LT ISZERO PUSH2 0x143B JUMPI JUMPDEST PUSH1 0x79 PUSH1 0x20 DUP5 MLOAD SWAP3 DUP4 ADD ADD MSTORE8 DUP1 MLOAD DUP3 GT PUSH2 0x11D2 JUMPI POP POP SWAP1 JUMP JUMPDEST DUP2 PUSH1 0x1 SHL DUP3 DUP2 DIV PUSH1 0x2 EQ DUP4 ISZERO OR ISZERO PUSH2 0xD3B JUMPI PUSH2 0x145D SWAP1 PUSH2 0x11F8 DUP6 MLOAD SWAP2 DUP7 PUSH2 0x108C JUMP JUMPDEST POP PUSH2 0x1423 JUMP JUMPDEST PUSH2 0x146B PUSH2 0xFF8 JUMP JUMPDEST POP DUP1 MLOAD MLOAD PUSH1 0x1 DUP2 ADD SWAP1 DUP2 DUP2 GT PUSH2 0xD3B JUMPI PUSH1 0x20 DUP4 ADD MLOAD DUP2 LT ISZERO PUSH2 0x14A0 JUMPI JUMPDEST PUSH1 0x78 PUSH1 0x20 DUP5 MLOAD SWAP3 DUP4 ADD ADD MSTORE8 DUP1 MLOAD DUP3 GT PUSH2 0x11D2 JUMPI POP POP SWAP1 JUMP JUMPDEST DUP2 PUSH1 0x1 SHL DUP3 DUP2 DIV PUSH1 0x2 EQ DUP4 ISZERO OR ISZERO PUSH2 0xD3B JUMPI PUSH2 0x14C2 SWAP1 PUSH2 0x11F8 DUP6 MLOAD SWAP2 DUP7 PUSH2 0x108C JUMP JUMPDEST POP PUSH2 0x1488 JUMP JUMPDEST SWAP1 PUSH2 0x14D1 PUSH2 0xFF8 JUMP JUMPDEST POP DUP2 MLOAD MLOAD PUSH1 0x1 DUP2 ADD SWAP2 DUP3 DUP3 GT PUSH2 0xD3B JUMPI PUSH1 0x20 DUP5 ADD MLOAD DUP3 LT ISZERO PUSH2 0x1504 JUMPI JUMPDEST PUSH1 0x20 DUP5 MLOAD SWAP3 DUP4 ADD ADD MSTORE8 DUP1 MLOAD DUP3 GT PUSH2 0x11D2 JUMPI POP POP SWAP1 JUMP JUMPDEST DUP3 PUSH1 0x1 SHL DUP4 DUP2 DIV PUSH1 0x2 EQ DUP5 ISZERO OR ISZERO PUSH2 0xD3B JUMPI PUSH2 0x152D SWAP1 PUSH2 0x1526 DUP7 MLOAD SWAP2 DUP8 PUSH2 0x108C JUMP JUMPDEST POP DUP6 PUSH2 0x15FD JUMP JUMPDEST POP PUSH2 0x14EE JUMP JUMPDEST SWAP1 PUSH2 0x1540 DUP3 MLOAD SWAP2 DUP4 PUSH2 0x108C JUMP JUMPDEST POP PUSH2 0x1549 PUSH2 0xFF8 JUMP JUMPDEST POP DUP1 MLOAD SWAP1 PUSH2 0x1555 PUSH2 0xFF8 JUMP JUMPDEST POP PUSH2 0x1563 DUP2 MLOAD DUP4 GT ISZERO PUSH2 0x16AE JUMP JUMPDEST DUP3 MLOAD MLOAD SWAP3 PUSH2 0x1571 DUP4 DUP6 PUSH2 0x107F JUMP JUMPDEST SWAP2 PUSH1 0x20 SWAP3 DUP3 DUP5 DUP1 SWAP5 ADD MLOAD DUP3 GT PUSH2 0x15E6 JUMPI JUMPDEST MLOAD DUP4 DUP2 MLOAD SWAP8 DUP3 ADD ADD SWAP7 DUP3 GT PUSH2 0x15DE JUMPI JUMPDEST POP POP ADD SWAP2 JUMPDEST DUP2 DUP2 LT ISZERO PUSH2 0x15B8 JUMPI PUSH1 0x0 NOT SWAP2 SUB PUSH2 0x100 EXP ADD SWAP1 DUP2 NOT SWAP1 MLOAD AND SWAP1 DUP3 MLOAD AND OR SWAP1 MSTORE JUMP JUMPDEST SWAP2 SWAP3 PUSH2 0x15D3 PUSH2 0x15CD PUSH2 0x15D9 SWAP3 DUP7 MLOAD DUP2 MSTORE PUSH2 0x1071 JUMP JUMPDEST SWAP5 PUSH2 0x1071 JUMP JUMPDEST SWAP3 PUSH2 0x1062 JUMP JUMPDEST PUSH2 0x1597 JUMP JUMPDEST MSTORE CODESIZE DUP1 PUSH2 0x1592 JUMP JUMPDEST PUSH2 0x15F8 PUSH2 0x15F2 DUP4 PUSH2 0x117F JUMP JUMPDEST DUP3 PUSH2 0x1533 JUMP JUMPDEST PUSH2 0x1582 JUMP JUMPDEST SWAP1 PUSH2 0x1606 PUSH2 0xFF8 JUMP JUMPDEST POP DUP1 MLOAD PUSH2 0x1611 PUSH2 0xFF8 JUMP JUMPDEST POP PUSH2 0x161F DUP3 MLOAD DUP3 GT ISZERO PUSH2 0x16AE JUMP JUMPDEST DUP3 MLOAD MLOAD SWAP2 PUSH2 0x162D DUP3 DUP5 PUSH2 0x107F JUMP JUMPDEST PUSH1 0x20 SWAP2 DUP3 SWAP2 DUP3 DUP8 ADD MLOAD DUP2 GT PUSH2 0x1697 JUMPI JUMPDEST DUP7 MLOAD DUP4 DUP2 MLOAD SWAP8 DUP3 ADD ADD SWAP7 DUP3 GT PUSH2 0x168F JUMPI JUMPDEST POP POP ADD SWAP2 JUMPDEST DUP2 DUP2 LT ISZERO PUSH2 0x1675 JUMPI PUSH1 0x0 NOT SWAP2 SUB PUSH2 0x100 EXP ADD SWAP1 DUP2 NOT SWAP1 MLOAD AND SWAP1 DUP3 MLOAD AND OR SWAP1 MSTORE SWAP1 JUMP JUMPDEST SWAP2 SWAP3 PUSH2 0x15D3 PUSH2 0x15CD PUSH2 0x168A SWAP3 DUP7 MLOAD DUP2 MSTORE PUSH2 0x1071 JUMP JUMPDEST PUSH2 0x1653 JUMP JUMPDEST MSTORE CODESIZE DUP1 PUSH2 0x164E JUMP JUMPDEST PUSH2 0x16A9 PUSH2 0x16A3 DUP3 PUSH2 0x117F JUMP JUMPDEST DUP9 PUSH2 0x1533 JUMP JUMPDEST PUSH2 0x163D JUMP JUMPDEST ISZERO PUSH2 0x305 JUMPI JUMP JUMPDEST DUP2 MLOAD PUSH2 0x16EC SWAP3 SWAP2 SWAP1 PUSH1 0x1 PUSH1 0x1 PUSH1 0x40 SHL SUB DUP2 AND SWAP1 PUSH1 0x17 DUP3 GT PUSH2 0x16EF JUMPI PUSH2 0x16E4 SWAP2 POP PUSH1 0x40 PUSH1 0xFF DUP5 MLOAD SWAP3 AND OR SWAP1 PUSH2 0x14C8 JUMP JUMPDEST POP JUMPDEST MLOAD PUSH2 0x15FD JUMP JUMPDEST POP JUMP JUMPDEST POP PUSH1 0xFF DUP2 GT PUSH2 0x1714 JUMPI PUSH2 0x170E SWAP1 PUSH2 0x1706 DUP4 MLOAD PUSH2 0x12CF JUMP JUMPDEST POP DUP3 MLOAD PUSH2 0x1A43 JUMP JUMPDEST POP PUSH2 0x16E6 JUMP JUMPDEST PUSH2 0xFFFF DUP2 GT PUSH2 0x1733 JUMPI PUSH2 0x170E SWAP1 PUSH2 0x172B DUP4 MLOAD PUSH2 0x126A JUMP JUMPDEST POP DUP3 MLOAD PUSH2 0x19DC JUMP JUMPDEST PUSH4 0xFFFFFFFF DUP2 GT PUSH2 0x1754 JUMPI PUSH2 0x170E SWAP1 PUSH2 0x174C DUP4 MLOAD PUSH2 0x1205 JUMP JUMPDEST POP DUP3 MLOAD PUSH2 0x1973 JUMP JUMPDEST PUSH2 0x170E SWAP1 PUSH2 0x1762 DUP4 MLOAD PUSH2 0x1195 JUMP JUMPDEST POP DUP3 MLOAD PUSH2 0x1907 JUMP JUMPDEST DUP2 MLOAD PUSH2 0x16EC SWAP3 SWAP2 SWAP1 PUSH1 0x1 PUSH1 0x1 PUSH1 0x40 SHL SUB DUP2 AND SWAP1 PUSH1 0x17 DUP3 GT PUSH2 0x1799 JUMPI PUSH2 0x16E4 SWAP2 POP PUSH1 0x60 PUSH1 0xFF DUP5 MLOAD SWAP3 AND OR SWAP1 PUSH2 0x14C8 JUMP JUMPDEST POP PUSH1 0xFF DUP2 GT PUSH2 0x17B0 JUMPI PUSH2 0x170E SWAP1 PUSH2 0x1706 DUP4 MLOAD PUSH2 0x1463 JUMP JUMPDEST PUSH2 0xFFFF DUP2 GT PUSH2 0x17C7 JUMPI PUSH2 0x170E SWAP1 PUSH2 0x172B DUP4 MLOAD PUSH2 0x13FE JUMP JUMPDEST PUSH4 0xFFFFFFFF DUP2 GT PUSH2 0x17E0 JUMPI PUSH2 0x170E SWAP1 PUSH2 0x174C DUP4 MLOAD PUSH2 0x1399 JUMP JUMPDEST PUSH2 0x170E SWAP1 PUSH2 0x1762 DUP4 MLOAD PUSH2 0x1334 JUMP JUMPDEST DUP1 MLOAD SWAP1 PUSH2 0x17F9 PUSH2 0xFF8 JUMP JUMPDEST POP DUP2 MLOAD MLOAD PUSH1 0x1 DUP2 ADD SWAP1 DUP2 DUP2 GT PUSH2 0xD3B JUMPI PUSH1 0x20 DUP5 ADD MLOAD DUP2 LT ISZERO PUSH2 0x1847 JUMPI JUMPDEST PUSH1 0x9F PUSH1 0x20 DUP1 SWAP6 MLOAD SWAP3 DUP4 ADD ADD MSTORE8 DUP1 MLOAD DUP3 GT PUSH2 0x183F JUMPI JUMPDEST POP POP ADD DUP1 MLOAD SWAP1 PUSH1 0x1 DUP3 ADD DUP1 SWAP3 GT PUSH2 0xD3B JUMPI MSTORE JUMP JUMPDEST MSTORE CODESIZE DUP1 PUSH2 0x182B JUMP JUMPDEST DUP2 PUSH1 0x1 SHL SWAP4 DUP3 DUP6 DIV PUSH1 0x2 EQ DUP4 ISZERO OR ISZERO PUSH2 0xD3B JUMPI PUSH1 0x20 DUP2 PUSH2 0x1870 DUP3 SWAP8 PUSH2 0x116E PUSH1 0x9F SWAP6 MLOAD SWAP2 DUP5 PUSH2 0x108C JUMP JUMPDEST POP SWAP6 POP POP POP PUSH2 0x1816 JUMP JUMPDEST DUP1 MLOAD SWAP1 PUSH2 0x1885 PUSH2 0xFF8 JUMP JUMPDEST POP DUP2 MLOAD MLOAD PUSH1 0x1 DUP2 ADD SWAP1 DUP2 DUP2 GT PUSH2 0xD3B JUMPI PUSH1 0x20 DUP5 ADD MLOAD DUP2 LT ISZERO PUSH2 0x18D4 JUMPI JUMPDEST PUSH1 0xFF PUSH1 0x20 DUP1 SWAP6 MLOAD SWAP3 DUP4 ADD ADD MSTORE8 DUP1 MLOAD DUP3 GT PUSH2 0x18CC JUMPI JUMPDEST POP POP ADD DUP1 MLOAD PUSH1 0x0 NOT DUP2 ADD SWAP2 SWAP1 DUP3 GT PUSH2 0xD3B JUMPI MSTORE JUMP JUMPDEST MSTORE CODESIZE DUP1 PUSH2 0x18B7 JUMP JUMPDEST DUP2 PUSH1 0x1 SHL SWAP4 DUP3 DUP6 DIV PUSH1 0x2 EQ DUP4 ISZERO OR ISZERO PUSH2 0xD3B JUMPI PUSH1 0x20 DUP2 PUSH2 0x18FD DUP3 SWAP8 PUSH2 0x116E PUSH1 0xFF SWAP6 MLOAD SWAP2 DUP5 PUSH2 0x108C JUMP JUMPDEST POP SWAP6 POP POP POP PUSH2 0x18A2 JUMP JUMPDEST SWAP1 PUSH2 0x1910 PUSH2 0xFF8 JUMP JUMPDEST POP DUP2 MLOAD MLOAD DUP1 PUSH1 0x8 ADD SWAP2 DUP3 PUSH1 0x8 GT PUSH2 0xD3B JUMPI PUSH1 0x20 DUP5 ADD MLOAD DUP4 GT PUSH2 0x1952 JUMPI JUMPDEST PUSH1 0x8 DUP5 MLOAD SWAP3 DUP4 ADD ADD SWAP1 PUSH1 0x1 PUSH1 0x1 PUSH1 0x40 SHL SUB NOT DUP3 MLOAD AND OR SWAP1 MSTORE DUP1 MLOAD DUP3 GT PUSH2 0x11D2 JUMPI POP POP SWAP1 JUMP JUMPDEST DUP3 PUSH1 0x1 SHL DUP4 DUP2 DIV PUSH1 0x2 EQ DUP5 ISZERO OR ISZERO PUSH2 0xD3B JUMPI PUSH2 0x196E SWAP1 DUP6 PUSH2 0x1533 JUMP JUMPDEST PUSH2 0x192D JUMP JUMPDEST SWAP1 PUSH2 0x197C PUSH2 0xFF8 JUMP JUMPDEST POP DUP2 MLOAD MLOAD DUP1 PUSH1 0x4 ADD SWAP2 DUP3 PUSH1 0x4 GT PUSH2 0xD3B JUMPI PUSH1 0x20 DUP5 ADD MLOAD DUP4 GT PUSH2 0x19BB JUMPI JUMPDEST PUSH1 0x4 DUP5 MLOAD SWAP3 DUP4 ADD ADD SWAP1 PUSH4 0xFFFFFFFF NOT DUP3 MLOAD AND OR SWAP1 MSTORE DUP1 MLOAD DUP3 GT PUSH2 0x11D2 JUMPI POP POP SWAP1 JUMP JUMPDEST DUP3 PUSH1 0x1 SHL DUP4 DUP2 DIV PUSH1 0x2 EQ DUP5 ISZERO OR ISZERO PUSH2 0xD3B JUMPI PUSH2 0x19D7 SWAP1 DUP6 PUSH2 0x1533 JUMP JUMPDEST PUSH2 0x1999 JUMP JUMPDEST SWAP1 PUSH2 0x19E5 PUSH2 0xFF8 JUMP JUMPDEST POP DUP2 MLOAD MLOAD DUP1 PUSH1 0x2 ADD SWAP2 DUP3 PUSH1 0x2 GT PUSH2 0xD3B JUMPI PUSH1 0x20 DUP5 ADD MLOAD DUP4 GT PUSH2 0x1A22 JUMPI JUMPDEST PUSH1 0x2 DUP5 MLOAD SWAP3 DUP4 ADD ADD SWAP1 PUSH2 0xFFFF NOT DUP3 MLOAD AND OR SWAP1 MSTORE DUP1 MLOAD DUP3 GT PUSH2 0x11D2 JUMPI POP POP SWAP1 JUMP JUMPDEST DUP3 PUSH1 0x1 SHL DUP4 DUP2 DIV PUSH1 0x2 EQ DUP5 ISZERO OR ISZERO PUSH2 0xD3B JUMPI PUSH2 0x1A3E SWAP1 DUP6 PUSH2 0x1533 JUMP JUMPDEST PUSH2 0x1A02 JUMP JUMPDEST SWAP1 PUSH2 0x1A4C PUSH2 0xFF8 JUMP JUMPDEST POP DUP2 MLOAD MLOAD DUP1 PUSH1 0x1 ADD SWAP2 DUP3 PUSH1 0x1 GT PUSH2 0xD3B JUMPI PUSH1 0x20 DUP5 ADD MLOAD DUP4 GT PUSH2 0x1A88 JUMPI JUMPDEST PUSH1 0x1 DUP5 MLOAD SWAP3 DUP4 ADD ADD SWAP1 PUSH1 0xFF NOT DUP3 MLOAD AND OR SWAP1 MSTORE DUP1 MLOAD DUP3 GT PUSH2 0x11D2 JUMPI POP POP SWAP1 JUMP JUMPDEST DUP3 PUSH1 0x1 SHL DUP4 DUP2 DIV PUSH1 0x2 EQ DUP5 ISZERO OR ISZERO PUSH2 0xD3B JUMPI PUSH2 0x1AA4 SWAP1 DUP6 PUSH2 0x1533 JUMP JUMPDEST PUSH2 0x1A69 JUMP JUMPDEST SWAP1 PUSH1 0x20 PUSH2 0x325 SWAP3 DUP2 DUP2 MSTORE ADD SWAP1 PUSH2 0x587 JUMP JUMPDEST SWAP1 SWAP2 PUSH2 0x1AD1 PUSH2 0x325 SWAP4 PUSH1 0x40 DUP5 MSTORE PUSH1 0x40 DUP5 ADD SWAP1 PUSH2 0x61D JUMP JUMPDEST SWAP2 PUSH1 0x20 DUP2 DUP5 SUB SWAP2 ADD MSTORE PUSH2 0x61D JUMP INVALID LOG2 PUSH5 0x6970667358 0x22 SLT KECCAK256 GT 0xA6 0xE5 0xCA 0x1F DUP5 0xD7 DUP13 NUMBER SWAP4 SSTORE 0xF7 0x5E 0xC4 0xC2 0x5D 0xD9 0xEB 0xEF BYTE SLT TIMESTAMP GASPRICE 0xEB 0xE1 STOP 0xF 0x22 PC 0x2B 0xA5 SWAP5 PUSH5 0x736F6C6343 STOP ADDMOD EQ STOP CALLER "},"gasEstimates":{"creation":{"codeDepositCost":"1386600","executionCost":"infinite","totalCost":"infinite"},"external":{"handleOracleFulfillment(bytes32,bytes,bytes)":"infinite","returnFunctionsInfo(bytes32)":"4540","s_lastRequestId()":"2319","sendRequest(string[])":"infinite","vehicleDataMapping(bytes32)":"infinite"},"internal":{"fulfillRequest(bytes32,bytes memory,bytes memory)":"infinite"}},"methodIdentifiers":{"handleOracleFulfillment(bytes32,bytes,bytes)":"0ca76175","returnFunctionsInfo(bytes32)":"c972ebb6","s_lastRequestId()":"b1e21749","sendRequest(string[])":"4c8f60a3","vehicleDataMapping(bytes32)":"e6ee9020"}},"storageLayout":{"storage":[{"astId":7191,"contract":"contracts/HorizonFunctions.sol:HorizonFunctions","label":"s_lastRequestId","offset":0,"slot":"0","type":"t_bytes32"},{"astId":7223,"contract":"contracts/HorizonFunctions.sol:HorizonFunctions","label":"vehicleDataMapping","offset":0,"slot":"1","type":"t_mapping(t_bytes32,t_struct(VehicleData)7218_storage)"},{"astId":7225,"contract":"contracts/HorizonFunctions.sol:HorizonFunctions","label":"subscriptionId","offset":0,"slot":"2","type":"t_uint64"},{"astId":7227,"contract":"contracts/HorizonFunctions.sol:HorizonFunctions","label":"router","offset":8,"slot":"2","type":"t_address"},{"astId":7229,"contract":"contracts/HorizonFunctions.sol:HorizonFunctions","label":"gasLimit","offset":28,"slot":"2","type":"t_uint32"},{"astId":7231,"contract":"contracts/HorizonFunctions.sol:HorizonFunctions","label":"donID","offset":0,"slot":"3","type":"t_bytes32"},{"astId":7234,"contract":"contracts/HorizonFunctions.sol:HorizonFunctions","label":"source","offset":0,"slot":"4","type":"t_string_storage"},{"astId":7243,"contract":"contracts/HorizonFunctions.sol:HorizonFunctions","label":"assistant","offset":0,"slot":"5","type":"t_contract(HorizonFujiAssistant)5606"}],"types":{"t_address":{"encoding":"inplace","label":"address","numberOfBytes":"20"},"t_bool":{"encoding":"inplace","label":"bool","numberOfBytes":"1"},"t_bytes32":{"encoding":"inplace","label":"bytes32","numberOfBytes":"32"},"t_bytes_storage":{"encoding":"bytes","label":"bytes","numberOfBytes":"32"},"t_contract(HorizonFujiAssistant)5606":{"encoding":"inplace","label":"contract HorizonFujiAssistant","numberOfBytes":"20"},"t_mapping(t_bytes32,t_struct(VehicleData)7218_storage)":{"encoding":"mapping","key":"t_bytes32","label":"mapping(bytes32 => struct HorizonFunctions.VehicleData)","numberOfBytes":"32","value":"t_struct(VehicleData)7218_storage"},"t_string_storage":{"encoding":"bytes","label":"string","numberOfBytes":"32"},"t_struct(VehicleData)7218_storage":{"encoding":"inplace","label":"struct HorizonFunctions.VehicleData","members":[{"astId":7205,"contract":"contracts/HorizonFunctions.sol:HorizonFunctions","label":"value","offset":0,"slot":"0","type":"t_string_storage"},{"astId":7207,"contract":"contracts/HorizonFunctions.sol:HorizonFunctions","label":"uintValue","offset":0,"slot":"1","type":"t_uint256"},{"astId":7209,"contract":"contracts/HorizonFunctions.sol:HorizonFunctions","label":"requestTime","offset":0,"slot":"2","type":"t_uint256"},{"astId":7211,"contract":"contracts/HorizonFunctions.sol:HorizonFunctions","label":"responseTime","offset":0,"slot":"3","type":"t_uint256"},{"astId":7213,"contract":"contracts/HorizonFunctions.sol:HorizonFunctions","label":"lastResponse","offset":0,"slot":"4","type":"t_bytes_storage"},{"astId":7215,"contract":"contracts/HorizonFunctions.sol:HorizonFunctions","label":"lastError","offset":0,"slot":"5","type":"t_bytes_storage"},{"astId":7217,"contract":"contracts/HorizonFunctions.sol:HorizonFunctions","label":"isRequest","offset":0,"slot":"6","type":"t_bool"}],"numberOfBytes":"224"},"t_uint256":{"encoding":"inplace","label":"uint256","numberOfBytes":"32"},"t_uint32":{"encoding":"inplace","label":"uint32","numberOfBytes":"4"},"t_uint64":{"encoding":"inplace","label":"uint64","numberOfBytes":"8"}}},"userdoc":{"kind":"user","methods":{"handleOracleFulfillment(bytes32,bytes,bytes)":{"notice":"Chainlink Functions response handler called by the Functions Router during fullilment from the designated transmitter node in an OCR round."}},"version":1}}}}