{"contracts/HorizonFujiS.sol":{"HorizonFujiS":{"abi":[{"inputs":[{"internalType":"address","name":"_router","type":"address"},{"internalType":"address","name":"_linkToken","type":"address"}],"stateMutability":"nonpayable","type":"constructor"},{"inputs":[{"internalType":"uint64","name":"destinationChainSelector","type":"uint64"}],"name":"DestinationChainNotWhitelisted","type":"error"},{"inputs":[{"internalType":"address","name":"owner","type":"address"},{"internalType":"address","name":"target","type":"address"},{"internalType":"uint256","name":"value","type":"uint256"}],"name":"FailedToWithdrawEth","type":"error"},{"inputs":[{"internalType":"address","name":"router","type":"address"}],"name":"InvalidRouter","type":"error"},{"inputs":[{"internalType":"uint256","name":"currentBalance","type":"uint256"},{"internalType":"uint256","name":"calculatedFees","type":"uint256"}],"name":"NotEnoughBalance","type":"error"},{"inputs":[],"name":"NothingToWithdraw","type":"error"},{"anonymous":false,"inputs":[{"indexed":false,"internalType":"string","name":"_blockchainName","type":"string"},{"indexed":false,"internalType":"address","name":"_receiverAddress","type":"address"}],"name":"CCIPReceiverAdded","type":"event"},{"anonymous":false,"inputs":[{"indexed":false,"internalType":"address","name":"_receiverAddress","type":"address"}],"name":"CCIPReceiverRemoved","type":"event"},{"anonymous":false,"inputs":[{"indexed":true,"internalType":"bytes32","name":"messageId","type":"bytes32"},{"indexed":true,"internalType":"uint64","name":"sourceChainSelector","type":"uint64"},{"indexed":false,"internalType":"address","name":"sender","type":"address"},{"indexed":false,"internalType":"string","name":"text","type":"string"},{"indexed":false,"internalType":"address","name":"token","type":"address"},{"indexed":false,"internalType":"uint256","name":"tokenAmount","type":"uint256"}],"name":"MessageReceived","type":"event"},{"anonymous":false,"inputs":[{"indexed":true,"internalType":"bytes32","name":"messageId","type":"bytes32"},{"indexed":true,"internalType":"uint64","name":"destinationChainSelector","type":"uint64"},{"indexed":false,"internalType":"address","name":"receiver","type":"address"},{"indexed":false,"internalType":"bytes","name":"_data","type":"bytes"},{"indexed":false,"internalType":"address","name":"feeToken","type":"address"},{"indexed":false,"internalType":"uint256","name":"fees","type":"uint256"}],"name":"MessageSent","type":"event"},{"inputs":[{"internalType":"string","name":"_blockchainName","type":"string"},{"internalType":"address","name":"_receiverAddress","type":"address"}],"name":"addReceiver","outputs":[],"stateMutability":"nonpayable","type":"function"},{"inputs":[{"internalType":"address","name":"receiverAddress","type":"address"}],"name":"ccipReceicers","outputs":[{"internalType":"string","name":"blockchainName","type":"string"},{"internalType":"address","name":"receiverAddress","type":"address"},{"internalType":"bool","name":"isReceiver","type":"bool"}],"stateMutability":"view","type":"function"},{"inputs":[{"components":[{"internalType":"bytes32","name":"messageId","type":"bytes32"},{"internalType":"uint64","name":"sourceChainSelector","type":"uint64"},{"internalType":"bytes","name":"sender","type":"bytes"},{"internalType":"bytes","name":"data","type":"bytes"},{"components":[{"internalType":"address","name":"token","type":"address"},{"internalType":"uint256","name":"amount","type":"uint256"}],"internalType":"struct Client.EVMTokenAmount[]","name":"destTokenAmounts","type":"tuple[]"}],"internalType":"struct Client.Any2EVMMessage","name":"message","type":"tuple"}],"name":"ccipReceive","outputs":[],"stateMutability":"nonpayable","type":"function"},{"inputs":[{"internalType":"uint64","name":"_destinationChainSelector","type":"uint64"}],"name":"denylistDestinationChain","outputs":[],"stateMutability":"nonpayable","type":"function"},{"inputs":[],"name":"getRouter","outputs":[{"internalType":"address","name":"","type":"address"}],"stateMutability":"view","type":"function"},{"inputs":[{"internalType":"address","name":"_receiverAddress","type":"address"}],"name":"removeReceiver","outputs":[],"stateMutability":"nonpayable","type":"function"},{"inputs":[{"internalType":"uint64","name":"_destinationChainSelector","type":"uint64"},{"internalType":"address","name":"_receiver","type":"address"},{"internalType":"bytes","name":"_data","type":"bytes"}],"name":"sendMessagePayLINK","outputs":[{"internalType":"bytes32","name":"messageId","type":"bytes32"}],"stateMutability":"nonpayable","type":"function"},{"inputs":[{"internalType":"bytes4","name":"interfaceId","type":"bytes4"}],"name":"supportsInterface","outputs":[{"internalType":"bool","name":"","type":"bool"}],"stateMutability":"pure","type":"function"},{"inputs":[{"internalType":"uint64","name":"_destinationChainSelector","type":"uint64"}],"name":"whitelistDestinationChain","outputs":[],"stateMutability":"nonpayable","type":"function"},{"inputs":[{"internalType":"uint64","name":"","type":"uint64"}],"name":"whitelistedDestinationChains","outputs":[{"internalType":"bool","name":"","type":"bool"}],"stateMutability":"view","type":"function"},{"inputs":[{"internalType":"address","name":"_beneficiary","type":"address"}],"name":"withdraw","outputs":[],"stateMutability":"nonpayable","type":"function"},{"inputs":[{"internalType":"address","name":"_beneficiary","type":"address"},{"internalType":"address","name":"_token","type":"address"}],"name":"withdrawToken","outputs":[],"stateMutability":"nonpayable","type":"function"},{"stateMutability":"payable","type":"receive"}],"devdoc":{"kind":"dev","methods":{"ccipReceive((bytes32,uint64,bytes,bytes,(address,uint256)[]))":{"details":"Note ensure you check the msg.sender is the OffRampRouter","params":{"message":"CCIP Message"}},"denylistDestinationChain(uint64)":{"details":"Denylists a chain for transactions.","params":{"_destinationChainSelector":"The selector of the destination chain to be denylisted."}},"getRouter()":{"returns":{"_0":"i_router address"}},"supportsInterface(bytes4)":{"params":{"interfaceId":"The interfaceId to check"},"returns":{"_0":"true if the interfaceId is supported"}},"whitelistDestinationChain(uint64)":{"details":"Whitelists a chain for transactions.","params":{"_destinationChainSelector":"The selector of the destination chain to be whitelisted."}}},"version":1},"evm":{"bytecode":{"linkReferences":{},"object":"60a0346100bb57601f6115e538819003918201601f19168301916001600160401b038311848410176100c05780849260409485528339810103126100bb57610052602061004b836100d6565b92016100d6565b906001600160a01b0390818116156100a25760805260018060a01b03199116816006541617600655339060035416176003556040516114fa90816100eb823960805181818160c401526106db0152f35b6040516335fdcccd60e21b815260006004820152602490fd5b600080fd5b634e487b7160e01b600052604160045260246000fd5b51906001600160a01b03821682036100bb5756fe608080604052600436101561001d575b50361561001b57600080fd5b005b60003560e01c90816301ffc9a7146110ca575080631d5e294714610e3f5780631f27166d14610d505780633aeac4e114610c7057806351cff8d914610bcf5780636552d8b414610aef57806373645cff14610aa05780637898d18414610a4e578063835b347c14610a0f57806385572ffb1461069e578063a30e3770146100f85763b0f479a1146100ae573861000f565b346100f35760003660031901126100f3576040517f00000000000000000000000000000000000000000000000000000000000000006001600160a01b03168152602090f35b600080fd5b346100f35760603660031901126100f357610111611274565b6101196111c6565b6044356001600160401b0381116100f35761013890369060040161128a565b6001600160a01b0382811660009081526005602052604090206001015491939116156106595760018060a01b0382166000526005602052600160ff816040600020015460a01c161515036106065760018060a01b038216600052600560205260018060a01b03600160406000200154169160018060a01b036006541691606060806040516101c58161111d565b8281528260208201528260408201526000838201520152604051936020850152602084526101f284611138565b60405160208082015261021a8161020c604082018961124f565b03601f198101835282611153565b60405190602082018281106001600160401b038211176105f057604052600082526040519561024887611138565b620c350087526020870160008152604051976397a657c960e01b60208a01525160248901525115156044880152604487528660808101106001600160401b036080890111176105f057608087016040526102a46080880161111d565b608087015260a086015260c08501528260e0850152836101008101526040519263b0f479a160e01b8452602084600481305afa93841561048e576000946105ac575b506040516320487ded60e01b8152936020858061030a60808a018760048401611362565b03816001600160a01b0385165afa94851561048e57600095610578575b506040516370a0823160e01b8152306004820152602081602481865afa90811561048e57600091610546575b5085116104c75760405163095ea7b360e01b81526001600160a01b03821660048201526024810186905291602090839060449082906000905af190811561048e576103c49660209360809361049a575b5060006040518099819582946396f4e9f960e01b8452018860048401611362565b03926001600160a01b03165af193841561048e57600094610457575b5060209484926001600160401b037f3d8a9f055772202d2c3c1fddbad930d3dbe588d8692b75b84cee0719462829119360018060a01b03600654169661043f60405195869560018060a01b0316865260808c870152608086019061124f565b976040850152606084015216940390a3604051908152f35b909193506020813d602011610486575b8161047460209383611153565b810103126100f35751929060206103e0565b3d9150610467565b6040513d6000823e3d90fd5b6104b990853d87116104c0575b6104b18183611153565b81019061142b565b50896103a3565b503d6104a7565b6040516370a0823160e01b815230600482015285602082602481875afa90811561048e57600091610511575b6044925060405191634787a10360e11b835260048301526024820152fd5b90506020823d60201161053e575b8161052c60209383611153565b810103126100f35760449151906104f3565b3d915061051f565b90506020813d602011610570575b8161056160209383611153565b810103126100f3575188610353565b3d9150610554565b9094506020813d6020116105a4575b8161059460209383611153565b810103126100f357519387610327565b3d9150610587565b9093506020813d6020116105e8575b816105c860209383611153565b810103126100f357516001600160a01b03811681036100f35792866102e6565b3d91506105bb565b634e487b7160e01b600052604160045260246000fd5b60405162461bcd60e51b815260206004820152602560248201527f54686973207265636569766572206973206e6f742077686974656c6973746564604482015264207965742160d81b6064820152608490fd5b60405162461bcd60e51b815260206004820152601f60248201527f456e74657220612076616c6964207265636569766572206164647265737321006044820152606490fd5b346100f357600319602036820181136100f3576004356001600160401b03928382116100f35760a09082360301126100f3576001600160a01b03917f0000000000000000000000000000000000000000000000000000000000000000831633036109f7576040519261070f8461111d565b8260040135845260248301359385851685036100f35782810194855260448401358681116100f357610747906004369187010161128a565b956040820196875260648501358181116100f35761076b906004369188010161128a565b94606083019586526084810135908282116100f3570191366023840112156100f3576004830135928284116105f057604051936107ad878260051b0186611153565b80855260248786019160061b830101913683116100f357602401905b8282106109ba575050506080810192835280516000556107f28651868082518301019101611443565b80518381116105f0578060019261080984546111f2565b601f8111610962575b508890601f83116001146108e2576000926108d7575b5050600019600383901b1c191690821b1790555b51955116955183818051810103126100f357830151918083168093036100f3576108c7846108ac6108977f90ec910a8f80bb04e184a806e2ae6f8786ef2ae898859a3180f953397edc12019851838082518301019101611443565b936108a286516114a1565b51511694516114a1565b5101519160806040519687968752860152608085019061124f565b91604084015260608301520390a3005b015190508b80610828565b90849350601f19831691846000527fb10e2d527612073b26eecdfd717e6a320cf44b4afac2b0732d9fcbe2b7fa0cf69260005b8c82821061094c5750508411610933575b505050811b01905561083c565b015160001960f88460031b161c191690558b8080610926565b8385015186558897909501949384019301610915565b6109aa90856000527fb10e2d527612073b26eecdfd717e6a320cf44b4afac2b0732d9fcbe2b7fa0cf6601f850160051c8101918c86106109b0575b601f0160051c019061134b565b8c610812565b909150819061099d565b6040823603126100f357604051906109d182611138565b82359088821682036100f357828a926040945282850135838201528152019101906107c9565b6040516335fdcccd60e21b8152336004820152602490fd5b346100f35760203660031901126100f3576001600160401b03610a30611274565b166000526004602052602060ff604060002054166040519015158152f35b346100f35760203660031901126100f3576001600160401b03610a6f611274565b610a8460018060a01b036003541633146112a8565b166000908152600460205260409020805460ff19166001179055005b346100f35760203660031901126100f3576001600160401b03610ac1611274565b610ad660018060a01b036003541633146112a8565b166000908152600460205260409020805460ff19169055005b346100f35760203660031901126100f3577fc98322fddcb9467a648bda840e8c0844a6a420e0a62af038077f0de932e729666020610b2b6111dc565b6003546001600160a01b039190610b4590831633146112a8565b168060005260058252610b69600160ff816040600020015460a01c161515146112ff565b80600052600582526000600160408220610b8381546111f2565b80610b95575b500155604051908152a1005b601f81118314610baa57508281555b86610b89565b8390828252610bc6601f888420920160051c820185830161134b565b81835555610ba4565b346100f35760203660031901126100f357610be86111dc565b47908115610c5e57600080808085855af13d15610c59573d610c0981611174565b90610c176040519283611153565b8152600060203d92013e5b15610c2957005b604051639d11f56360e01b81523360048201526001600160a01b0390911660248201526044810191909152606490fd5b610c22565b604051630686827b60e51b8152600490fd5b346100f35760403660031901126100f357610c896111dc565b6001600160a01b03610c996111c6565b16604051916370a0823160e01b83523060048401526020928381602481865afa90811561048e57600091610d23575b508015610c5e5760405163a9059cbb60e01b81526001600160a01b039290921660048301526024820152908290829060449082906000905af1801561048e57610d0d57005b8161001b92903d106104c0576104b18183611153565b90508381813d8311610d49575b610d3a8183611153565b810103126100f3575184610cc8565b503d610d30565b346100f3576020806003193601126100f3576001600160a01b0380610d736111dc565b166000526005825260406000209060405191600090805491610d94836111f2565b808652600193808516908115610e235750600114610def575b5091610dd99591610dc28660ff950387611153565b01549060405195869560608752606087019061124f565b9382169085015260a01c16151560408301520390f35b60008381528781209092505b818310610e1057505084018501610dd9610dad565b8054878401890152918701918401610dfb565b60ff19168789015250151560051b850186019050610dd9610dad565b346100f35760403660031901126100f3576001600160401b036004358181116100f357366023820112156100f357610e8190369060248160040135910161118f565b610e896111c6565b6003546001600160a01b03918291610ea490831633146112a8565b16801561108c578060005260209160058352600190610ed060ff836040600020015460a01c16156112ff565b6040519060608201828110888211176105f0576040528582528482019284845260408301928184528560005260058752604060002090519889519081116105f057610f1b82546111f2565b601f811161105c575b5087601f8211600114610fce579080610fba9a99989796959493927f619facc3344a864638bdf6b94faebe32fea796eccc10ab263d90da8b44c42be49c600092610fc3575b5050600019600383901b1c191690831b1781555b0192511682549160ff60a01b9051151560a01b16916affffffffffffffffffffff60a81b161717905560405193849360408552604085019061124f565b918301520390a1005b015190508c80610f69565b601f1982169083600052896000209160005b81811061104757509183917f619facc3344a864638bdf6b94faebe32fea796eccc10ab263d90da8b44c42be49d879695610fba9e9d9c9b9a9998951061102e575b505050811b018155610f7d565b015160001960f88460031b161c191690558c8080611021565b8d830151845592860192918b01918b01610fe0565b611086908360005289600020601f840160051c8101918b85106109b057601f0160051c019061134b565b8a610f24565b60405162461bcd60e51b8152602060048201526016602482015275456e74657220612076616c696420616464726573732160501b6044820152606490fd5b346100f35760203660031901126100f3576004359063ffffffff60e01b82168092036100f3576020916385572ffb60e01b811490811561110c575b5015158152f35b6301ffc9a760e01b14905083611105565b60a081019081106001600160401b038211176105f057604052565b604081019081106001600160401b038211176105f057604052565b90601f801991011681019081106001600160401b038211176105f057604052565b6001600160401b0381116105f057601f01601f191660200190565b92919261119b82611174565b916111a96040519384611153565b8294818452818301116100f3578281602093846000960137010152565b602435906001600160a01b03821682036100f357565b600435906001600160a01b03821682036100f357565b90600182811c92168015611222575b602083101461120c57565b634e487b7160e01b600052602260045260246000fd5b91607f1691611201565b60005b83811061123f5750506000910152565b818101518382015260200161122f565b906020916112688151809281855285808601910161122c565b601f01601f1916010190565b600435906001600160401b03821682036100f357565b9080601f830112156100f3578160206112a59335910161118f565b90565b156112af57565b60405162461bcd60e51b815260206004820152602260248201527f4f6e6c79204f776e65722063616e2063616c6c20746869732066756e6374696f6044820152616e2160f01b6064820152608490fd5b1561130657565b60405162461bcd60e51b815260206004820152601f60248201527f526563656976657220697320616c7265616479207265676973746572656421006044820152606490fd5b818110611356575050565b6000815560010161134b565b906001600160401b039093929316815260406020918183820152611391855160a08484015260e083019061124f565b916113ad8487015193603f19948585830301606086015261124f565b8187015194848483030160808501528080875193848152019601926000905b83821061140257505050505060c060806112a5959660018060a01b0360608201511660a08501520151928285030191015261124f565b845180516001600160a01b031689528301518884015296870196938201936001909101906113cc565b908160209103126100f3575180151581036100f35790565b6020818303126100f3578051906001600160401b0382116100f3570181601f820112156100f357805161147581611174565b926114836040519485611153565b818452602082840101116100f3576112a5916020808501910161122c565b8051156114ae5760200190565b634e487b7160e01b600052603260045260246000fdfea2646970667358221220f0128c6531ca8be5d1ba7f2efabdaf97c63d582fb74a9a9422ff2b3e6a2edc0764736f6c63430008140033","opcodes":"PUSH1 0xA0 CALLVALUE PUSH2 0xBB JUMPI PUSH1 0x1F PUSH2 0x15E5 CODESIZE DUP2 SWAP1 SUB SWAP2 DUP3 ADD PUSH1 0x1F NOT AND DUP4 ADD SWAP2 PUSH1 0x1 PUSH1 0x1 PUSH1 0x40 SHL SUB DUP4 GT DUP5 DUP5 LT OR PUSH2 0xC0 JUMPI DUP1 DUP5 SWAP3 PUSH1 0x40 SWAP5 DUP6 MSTORE DUP4 CODECOPY DUP2 ADD SUB SLT PUSH2 0xBB JUMPI PUSH2 0x52 PUSH1 0x20 PUSH2 0x4B DUP4 PUSH2 0xD6 JUMP JUMPDEST SWAP3 ADD PUSH2 0xD6 JUMP JUMPDEST SWAP1 PUSH1 0x1 PUSH1 0x1 PUSH1 0xA0 SHL SUB SWAP1 DUP2 DUP2 AND ISZERO PUSH2 0xA2 JUMPI PUSH1 0x80 MSTORE PUSH1 0x1 DUP1 PUSH1 0xA0 SHL SUB NOT SWAP2 AND DUP2 PUSH1 0x6 SLOAD AND OR PUSH1 0x6 SSTORE CALLER SWAP1 PUSH1 0x3 SLOAD AND OR PUSH1 0x3 SSTORE PUSH1 0x40 MLOAD PUSH2 0x14FA SWAP1 DUP2 PUSH2 0xEB DUP3 CODECOPY PUSH1 0x80 MLOAD DUP2 DUP2 DUP2 PUSH1 0xC4 ADD MSTORE PUSH2 0x6DB ADD MSTORE RETURN JUMPDEST PUSH1 0x40 MLOAD PUSH4 0x35FDCCCD PUSH1 0xE2 SHL DUP2 MSTORE PUSH1 0x0 PUSH1 0x4 DUP3 ADD MSTORE PUSH1 0x24 SWAP1 REVERT JUMPDEST PUSH1 0x0 DUP1 REVERT JUMPDEST PUSH4 0x4E487B71 PUSH1 0xE0 SHL PUSH1 0x0 MSTORE PUSH1 0x41 PUSH1 0x4 MSTORE PUSH1 0x24 PUSH1 0x0 REVERT JUMPDEST MLOAD SWAP1 PUSH1 0x1 PUSH1 0x1 PUSH1 0xA0 SHL SUB DUP3 AND DUP3 SUB PUSH2 0xBB JUMPI JUMP INVALID PUSH1 0x80 DUP1 PUSH1 0x40 MSTORE PUSH1 0x4 CALLDATASIZE LT ISZERO PUSH2 0x1D JUMPI JUMPDEST POP CALLDATASIZE ISZERO PUSH2 0x1B JUMPI PUSH1 0x0 DUP1 REVERT JUMPDEST STOP JUMPDEST PUSH1 0x0 CALLDATALOAD PUSH1 0xE0 SHR SWAP1 DUP2 PUSH4 0x1FFC9A7 EQ PUSH2 0x10CA JUMPI POP DUP1 PUSH4 0x1D5E2947 EQ PUSH2 0xE3F JUMPI DUP1 PUSH4 0x1F27166D EQ PUSH2 0xD50 JUMPI DUP1 PUSH4 0x3AEAC4E1 EQ PUSH2 0xC70 JUMPI DUP1 PUSH4 0x51CFF8D9 EQ PUSH2 0xBCF JUMPI DUP1 PUSH4 0x6552D8B4 EQ PUSH2 0xAEF JUMPI DUP1 PUSH4 0x73645CFF EQ PUSH2 0xAA0 JUMPI DUP1 PUSH4 0x7898D184 EQ PUSH2 0xA4E JUMPI DUP1 PUSH4 0x835B347C EQ PUSH2 0xA0F JUMPI DUP1 PUSH4 0x85572FFB EQ PUSH2 0x69E JUMPI DUP1 PUSH4 0xA30E3770 EQ PUSH2 0xF8 JUMPI PUSH4 0xB0F479A1 EQ PUSH2 0xAE JUMPI CODESIZE PUSH2 0xF JUMP JUMPDEST CALLVALUE PUSH2 0xF3 JUMPI PUSH1 0x0 CALLDATASIZE PUSH1 0x3 NOT ADD SLT PUSH2 0xF3 JUMPI PUSH1 0x40 MLOAD PUSH32 0x0 PUSH1 0x1 PUSH1 0x1 PUSH1 0xA0 SHL SUB AND DUP2 MSTORE PUSH1 0x20 SWAP1 RETURN JUMPDEST PUSH1 0x0 DUP1 REVERT JUMPDEST CALLVALUE PUSH2 0xF3 JUMPI PUSH1 0x60 CALLDATASIZE PUSH1 0x3 NOT ADD SLT PUSH2 0xF3 JUMPI PUSH2 0x111 PUSH2 0x1274 JUMP JUMPDEST PUSH2 0x119 PUSH2 0x11C6 JUMP JUMPDEST PUSH1 0x44 CALLDATALOAD PUSH1 0x1 PUSH1 0x1 PUSH1 0x40 SHL SUB DUP2 GT PUSH2 0xF3 JUMPI PUSH2 0x138 SWAP1 CALLDATASIZE SWAP1 PUSH1 0x4 ADD PUSH2 0x128A JUMP JUMPDEST PUSH1 0x1 PUSH1 0x1 PUSH1 0xA0 SHL SUB DUP3 DUP2 AND PUSH1 0x0 SWAP1 DUP2 MSTORE PUSH1 0x5 PUSH1 0x20 MSTORE PUSH1 0x40 SWAP1 KECCAK256 PUSH1 0x1 ADD SLOAD SWAP2 SWAP4 SWAP2 AND ISZERO PUSH2 0x659 JUMPI PUSH1 0x1 DUP1 PUSH1 0xA0 SHL SUB DUP3 AND PUSH1 0x0 MSTORE PUSH1 0x5 PUSH1 0x20 MSTORE PUSH1 0x1 PUSH1 0xFF DUP2 PUSH1 0x40 PUSH1 0x0 KECCAK256 ADD SLOAD PUSH1 0xA0 SHR AND ISZERO ISZERO SUB PUSH2 0x606 JUMPI PUSH1 0x1 DUP1 PUSH1 0xA0 SHL SUB DUP3 AND PUSH1 0x0 MSTORE PUSH1 0x5 PUSH1 0x20 MSTORE PUSH1 0x1 DUP1 PUSH1 0xA0 SHL SUB PUSH1 0x1 PUSH1 0x40 PUSH1 0x0 KECCAK256 ADD SLOAD AND SWAP2 PUSH1 0x1 DUP1 PUSH1 0xA0 SHL SUB PUSH1 0x6 SLOAD AND SWAP2 PUSH1 0x60 PUSH1 0x80 PUSH1 0x40 MLOAD PUSH2 0x1C5 DUP2 PUSH2 0x111D JUMP JUMPDEST DUP3 DUP2 MSTORE DUP3 PUSH1 0x20 DUP3 ADD MSTORE DUP3 PUSH1 0x40 DUP3 ADD MSTORE PUSH1 0x0 DUP4 DUP3 ADD MSTORE ADD MSTORE PUSH1 0x40 MLOAD SWAP4 PUSH1 0x20 DUP6 ADD MSTORE PUSH1 0x20 DUP5 MSTORE PUSH2 0x1F2 DUP5 PUSH2 0x1138 JUMP JUMPDEST PUSH1 0x40 MLOAD PUSH1 0x20 DUP1 DUP3 ADD MSTORE PUSH2 0x21A DUP2 PUSH2 0x20C PUSH1 0x40 DUP3 ADD DUP10 PUSH2 0x124F JUMP JUMPDEST SUB PUSH1 0x1F NOT DUP2 ADD DUP4 MSTORE DUP3 PUSH2 0x1153 JUMP JUMPDEST PUSH1 0x40 MLOAD SWAP1 PUSH1 0x20 DUP3 ADD DUP3 DUP2 LT PUSH1 0x1 PUSH1 0x1 PUSH1 0x40 SHL SUB DUP3 GT OR PUSH2 0x5F0 JUMPI PUSH1 0x40 MSTORE PUSH1 0x0 DUP3 MSTORE PUSH1 0x40 MLOAD SWAP6 PUSH2 0x248 DUP8 PUSH2 0x1138 JUMP JUMPDEST PUSH3 0xC3500 DUP8 MSTORE PUSH1 0x20 DUP8 ADD PUSH1 0x0 DUP2 MSTORE PUSH1 0x40 MLOAD SWAP8 PUSH4 0x97A657C9 PUSH1 0xE0 SHL PUSH1 0x20 DUP11 ADD MSTORE MLOAD PUSH1 0x24 DUP10 ADD MSTORE MLOAD ISZERO ISZERO PUSH1 0x44 DUP9 ADD MSTORE PUSH1 0x44 DUP8 MSTORE DUP7 PUSH1 0x80 DUP2 ADD LT PUSH1 0x1 PUSH1 0x1 PUSH1 0x40 SHL SUB PUSH1 0x80 DUP10 ADD GT OR PUSH2 0x5F0 JUMPI PUSH1 0x80 DUP8 ADD PUSH1 0x40 MSTORE PUSH2 0x2A4 PUSH1 0x80 DUP9 ADD PUSH2 0x111D JUMP JUMPDEST PUSH1 0x80 DUP8 ADD MSTORE PUSH1 0xA0 DUP7 ADD MSTORE PUSH1 0xC0 DUP6 ADD MSTORE DUP3 PUSH1 0xE0 DUP6 ADD MSTORE DUP4 PUSH2 0x100 DUP2 ADD MSTORE PUSH1 0x40 MLOAD SWAP3 PUSH4 0xB0F479A1 PUSH1 0xE0 SHL DUP5 MSTORE PUSH1 0x20 DUP5 PUSH1 0x4 DUP2 ADDRESS GAS STATICCALL SWAP4 DUP5 ISZERO PUSH2 0x48E JUMPI PUSH1 0x0 SWAP5 PUSH2 0x5AC JUMPI JUMPDEST POP PUSH1 0x40 MLOAD PUSH4 0x20487DED PUSH1 0xE0 SHL DUP2 MSTORE SWAP4 PUSH1 0x20 DUP6 DUP1 PUSH2 0x30A PUSH1 0x80 DUP11 ADD DUP8 PUSH1 0x4 DUP5 ADD PUSH2 0x1362 JUMP JUMPDEST SUB DUP2 PUSH1 0x1 PUSH1 0x1 PUSH1 0xA0 SHL SUB DUP6 AND GAS STATICCALL SWAP5 DUP6 ISZERO PUSH2 0x48E JUMPI PUSH1 0x0 SWAP6 PUSH2 0x578 JUMPI JUMPDEST POP PUSH1 0x40 MLOAD PUSH4 0x70A08231 PUSH1 0xE0 SHL DUP2 MSTORE ADDRESS PUSH1 0x4 DUP3 ADD MSTORE PUSH1 0x20 DUP2 PUSH1 0x24 DUP2 DUP7 GAS STATICCALL SWAP1 DUP2 ISZERO PUSH2 0x48E JUMPI PUSH1 0x0 SWAP2 PUSH2 0x546 JUMPI JUMPDEST POP DUP6 GT PUSH2 0x4C7 JUMPI PUSH1 0x40 MLOAD PUSH4 0x95EA7B3 PUSH1 0xE0 SHL DUP2 MSTORE PUSH1 0x1 PUSH1 0x1 PUSH1 0xA0 SHL SUB DUP3 AND PUSH1 0x4 DUP3 ADD MSTORE PUSH1 0x24 DUP2 ADD DUP7 SWAP1 MSTORE SWAP2 PUSH1 0x20 SWAP1 DUP4 SWAP1 PUSH1 0x44 SWAP1 DUP3 SWAP1 PUSH1 0x0 SWAP1 GAS CALL SWAP1 DUP2 ISZERO PUSH2 0x48E JUMPI PUSH2 0x3C4 SWAP7 PUSH1 0x20 SWAP4 PUSH1 0x80 SWAP4 PUSH2 0x49A JUMPI JUMPDEST POP PUSH1 0x0 PUSH1 0x40 MLOAD DUP1 SWAP10 DUP2 SWAP6 DUP3 SWAP5 PUSH4 0x96F4E9F9 PUSH1 0xE0 SHL DUP5 MSTORE ADD DUP9 PUSH1 0x4 DUP5 ADD PUSH2 0x1362 JUMP JUMPDEST SUB SWAP3 PUSH1 0x1 PUSH1 0x1 PUSH1 0xA0 SHL SUB AND GAS CALL SWAP4 DUP5 ISZERO PUSH2 0x48E JUMPI PUSH1 0x0 SWAP5 PUSH2 0x457 JUMPI JUMPDEST POP PUSH1 0x20 SWAP5 DUP5 SWAP3 PUSH1 0x1 PUSH1 0x1 PUSH1 0x40 SHL SUB PUSH32 0x3D8A9F055772202D2C3C1FDDBAD930D3DBE588D8692B75B84CEE071946282911 SWAP4 PUSH1 0x1 DUP1 PUSH1 0xA0 SHL SUB PUSH1 0x6 SLOAD AND SWAP7 PUSH2 0x43F PUSH1 0x40 MLOAD SWAP6 DUP7 SWAP6 PUSH1 0x1 DUP1 PUSH1 0xA0 SHL SUB AND DUP7 MSTORE PUSH1 0x80 DUP13 DUP8 ADD MSTORE PUSH1 0x80 DUP7 ADD SWAP1 PUSH2 0x124F JUMP JUMPDEST SWAP8 PUSH1 0x40 DUP6 ADD MSTORE PUSH1 0x60 DUP5 ADD MSTORE AND SWAP5 SUB SWAP1 LOG3 PUSH1 0x40 MLOAD SWAP1 DUP2 MSTORE RETURN JUMPDEST SWAP1 SWAP2 SWAP4 POP PUSH1 0x20 DUP2 RETURNDATASIZE PUSH1 0x20 GT PUSH2 0x486 JUMPI JUMPDEST DUP2 PUSH2 0x474 PUSH1 0x20 SWAP4 DUP4 PUSH2 0x1153 JUMP JUMPDEST DUP2 ADD SUB SLT PUSH2 0xF3 JUMPI MLOAD SWAP3 SWAP1 PUSH1 0x20 PUSH2 0x3E0 JUMP JUMPDEST RETURNDATASIZE SWAP2 POP PUSH2 0x467 JUMP JUMPDEST PUSH1 0x40 MLOAD RETURNDATASIZE PUSH1 0x0 DUP3 RETURNDATACOPY RETURNDATASIZE SWAP1 REVERT JUMPDEST PUSH2 0x4B9 SWAP1 DUP6 RETURNDATASIZE DUP8 GT PUSH2 0x4C0 JUMPI JUMPDEST PUSH2 0x4B1 DUP2 DUP4 PUSH2 0x1153 JUMP JUMPDEST DUP2 ADD SWAP1 PUSH2 0x142B JUMP JUMPDEST POP DUP10 PUSH2 0x3A3 JUMP JUMPDEST POP RETURNDATASIZE PUSH2 0x4A7 JUMP JUMPDEST PUSH1 0x40 MLOAD PUSH4 0x70A08231 PUSH1 0xE0 SHL DUP2 MSTORE ADDRESS PUSH1 0x4 DUP3 ADD MSTORE DUP6 PUSH1 0x20 DUP3 PUSH1 0x24 DUP2 DUP8 GAS STATICCALL SWAP1 DUP2 ISZERO PUSH2 0x48E JUMPI PUSH1 0x0 SWAP2 PUSH2 0x511 JUMPI JUMPDEST PUSH1 0x44 SWAP3 POP PUSH1 0x40 MLOAD SWAP2 PUSH4 0x4787A103 PUSH1 0xE1 SHL DUP4 MSTORE PUSH1 0x4 DUP4 ADD MSTORE PUSH1 0x24 DUP3 ADD MSTORE REVERT JUMPDEST SWAP1 POP PUSH1 0x20 DUP3 RETURNDATASIZE PUSH1 0x20 GT PUSH2 0x53E JUMPI JUMPDEST DUP2 PUSH2 0x52C PUSH1 0x20 SWAP4 DUP4 PUSH2 0x1153 JUMP JUMPDEST DUP2 ADD SUB SLT PUSH2 0xF3 JUMPI PUSH1 0x44 SWAP2 MLOAD SWAP1 PUSH2 0x4F3 JUMP JUMPDEST RETURNDATASIZE SWAP2 POP PUSH2 0x51F JUMP JUMPDEST SWAP1 POP PUSH1 0x20 DUP2 RETURNDATASIZE PUSH1 0x20 GT PUSH2 0x570 JUMPI JUMPDEST DUP2 PUSH2 0x561 PUSH1 0x20 SWAP4 DUP4 PUSH2 0x1153 JUMP JUMPDEST DUP2 ADD SUB SLT PUSH2 0xF3 JUMPI MLOAD DUP9 PUSH2 0x353 JUMP JUMPDEST RETURNDATASIZE SWAP2 POP PUSH2 0x554 JUMP JUMPDEST SWAP1 SWAP5 POP PUSH1 0x20 DUP2 RETURNDATASIZE PUSH1 0x20 GT PUSH2 0x5A4 JUMPI JUMPDEST DUP2 PUSH2 0x594 PUSH1 0x20 SWAP4 DUP4 PUSH2 0x1153 JUMP JUMPDEST DUP2 ADD SUB SLT PUSH2 0xF3 JUMPI MLOAD SWAP4 DUP8 PUSH2 0x327 JUMP JUMPDEST RETURNDATASIZE SWAP2 POP PUSH2 0x587 JUMP JUMPDEST SWAP1 SWAP4 POP PUSH1 0x20 DUP2 RETURNDATASIZE PUSH1 0x20 GT PUSH2 0x5E8 JUMPI JUMPDEST DUP2 PUSH2 0x5C8 PUSH1 0x20 SWAP4 DUP4 PUSH2 0x1153 JUMP JUMPDEST DUP2 ADD SUB SLT PUSH2 0xF3 JUMPI MLOAD PUSH1 0x1 PUSH1 0x1 PUSH1 0xA0 SHL SUB DUP2 AND DUP2 SUB PUSH2 0xF3 JUMPI SWAP3 DUP7 PUSH2 0x2E6 JUMP JUMPDEST RETURNDATASIZE SWAP2 POP PUSH2 0x5BB JUMP JUMPDEST PUSH4 0x4E487B71 PUSH1 0xE0 SHL PUSH1 0x0 MSTORE PUSH1 0x41 PUSH1 0x4 MSTORE PUSH1 0x24 PUSH1 0x0 REVERT JUMPDEST PUSH1 0x40 MLOAD PUSH3 0x461BCD PUSH1 0xE5 SHL DUP2 MSTORE PUSH1 0x20 PUSH1 0x4 DUP3 ADD MSTORE PUSH1 0x25 PUSH1 0x24 DUP3 ADD MSTORE PUSH32 0x54686973207265636569766572206973206E6F742077686974656C6973746564 PUSH1 0x44 DUP3 ADD MSTORE PUSH5 0x2079657421 PUSH1 0xD8 SHL PUSH1 0x64 DUP3 ADD MSTORE PUSH1 0x84 SWAP1 REVERT JUMPDEST PUSH1 0x40 MLOAD PUSH3 0x461BCD PUSH1 0xE5 SHL DUP2 MSTORE PUSH1 0x20 PUSH1 0x4 DUP3 ADD MSTORE PUSH1 0x1F PUSH1 0x24 DUP3 ADD MSTORE PUSH32 0x456E74657220612076616C696420726563656976657220616464726573732100 PUSH1 0x44 DUP3 ADD MSTORE PUSH1 0x64 SWAP1 REVERT JUMPDEST CALLVALUE PUSH2 0xF3 JUMPI PUSH1 0x3 NOT PUSH1 0x20 CALLDATASIZE DUP3 ADD DUP2 SGT PUSH2 0xF3 JUMPI PUSH1 0x4 CALLDATALOAD PUSH1 0x1 PUSH1 0x1 PUSH1 0x40 SHL SUB SWAP3 DUP4 DUP3 GT PUSH2 0xF3 JUMPI PUSH1 0xA0 SWAP1 DUP3 CALLDATASIZE SUB ADD SLT PUSH2 0xF3 JUMPI PUSH1 0x1 PUSH1 0x1 PUSH1 0xA0 SHL SUB SWAP2 PUSH32 0x0 DUP4 AND CALLER SUB PUSH2 0x9F7 JUMPI PUSH1 0x40 MLOAD SWAP3 PUSH2 0x70F DUP5 PUSH2 0x111D JUMP JUMPDEST DUP3 PUSH1 0x4 ADD CALLDATALOAD DUP5 MSTORE PUSH1 0x24 DUP4 ADD CALLDATALOAD SWAP4 DUP6 DUP6 AND DUP6 SUB PUSH2 0xF3 JUMPI DUP3 DUP2 ADD SWAP5 DUP6 MSTORE PUSH1 0x44 DUP5 ADD CALLDATALOAD DUP7 DUP2 GT PUSH2 0xF3 JUMPI PUSH2 0x747 SWAP1 PUSH1 0x4 CALLDATASIZE SWAP2 DUP8 ADD ADD PUSH2 0x128A JUMP JUMPDEST SWAP6 PUSH1 0x40 DUP3 ADD SWAP7 DUP8 MSTORE PUSH1 0x64 DUP6 ADD CALLDATALOAD DUP2 DUP2 GT PUSH2 0xF3 JUMPI PUSH2 0x76B SWAP1 PUSH1 0x4 CALLDATASIZE SWAP2 DUP9 ADD ADD PUSH2 0x128A JUMP JUMPDEST SWAP5 PUSH1 0x60 DUP4 ADD SWAP6 DUP7 MSTORE PUSH1 0x84 DUP2 ADD CALLDATALOAD SWAP1 DUP3 DUP3 GT PUSH2 0xF3 JUMPI ADD SWAP2 CALLDATASIZE PUSH1 0x23 DUP5 ADD SLT ISZERO PUSH2 0xF3 JUMPI PUSH1 0x4 DUP4 ADD CALLDATALOAD SWAP3 DUP3 DUP5 GT PUSH2 0x5F0 JUMPI PUSH1 0x40 MLOAD SWAP4 PUSH2 0x7AD DUP8 DUP3 PUSH1 0x5 SHL ADD DUP7 PUSH2 0x1153 JUMP JUMPDEST DUP1 DUP6 MSTORE PUSH1 0x24 DUP8 DUP7 ADD SWAP2 PUSH1 0x6 SHL DUP4 ADD ADD SWAP2 CALLDATASIZE DUP4 GT PUSH2 0xF3 JUMPI PUSH1 0x24 ADD SWAP1 JUMPDEST DUP3 DUP3 LT PUSH2 0x9BA JUMPI POP POP POP PUSH1 0x80 DUP2 ADD SWAP3 DUP4 MSTORE DUP1 MLOAD PUSH1 0x0 SSTORE PUSH2 0x7F2 DUP7 MLOAD DUP7 DUP1 DUP3 MLOAD DUP4 ADD ADD SWAP2 ADD PUSH2 0x1443 JUMP JUMPDEST DUP1 MLOAD DUP4 DUP2 GT PUSH2 0x5F0 JUMPI DUP1 PUSH1 0x1 SWAP3 PUSH2 0x809 DUP5 SLOAD PUSH2 0x11F2 JUMP JUMPDEST PUSH1 0x1F DUP2 GT PUSH2 0x962 JUMPI JUMPDEST POP DUP9 SWAP1 PUSH1 0x1F DUP4 GT PUSH1 0x1 EQ PUSH2 0x8E2 JUMPI PUSH1 0x0 SWAP3 PUSH2 0x8D7 JUMPI JUMPDEST POP POP PUSH1 0x0 NOT PUSH1 0x3 DUP4 SWAP1 SHL SHR NOT AND SWAP1 DUP3 SHL OR SWAP1 SSTORE JUMPDEST MLOAD SWAP6 MLOAD AND SWAP6 MLOAD DUP4 DUP2 DUP1 MLOAD DUP2 ADD SUB SLT PUSH2 0xF3 JUMPI DUP4 ADD MLOAD SWAP2 DUP1 DUP4 AND DUP1 SWAP4 SUB PUSH2 0xF3 JUMPI PUSH2 0x8C7 DUP5 PUSH2 0x8AC PUSH2 0x897 PUSH32 0x90EC910A8F80BB04E184A806E2AE6F8786EF2AE898859A3180F953397EDC1201 SWAP9 MLOAD DUP4 DUP1 DUP3 MLOAD DUP4 ADD ADD SWAP2 ADD PUSH2 0x1443 JUMP JUMPDEST SWAP4 PUSH2 0x8A2 DUP7 MLOAD PUSH2 0x14A1 JUMP JUMPDEST MLOAD MLOAD AND SWAP5 MLOAD PUSH2 0x14A1 JUMP JUMPDEST MLOAD ADD MLOAD SWAP2 PUSH1 0x80 PUSH1 0x40 MLOAD SWAP7 DUP8 SWAP7 DUP8 MSTORE DUP7 ADD MSTORE PUSH1 0x80 DUP6 ADD SWAP1 PUSH2 0x124F JUMP JUMPDEST SWAP2 PUSH1 0x40 DUP5 ADD MSTORE PUSH1 0x60 DUP4 ADD MSTORE SUB SWAP1 LOG3 STOP JUMPDEST ADD MLOAD SWAP1 POP DUP12 DUP1 PUSH2 0x828 JUMP JUMPDEST SWAP1 DUP5 SWAP4 POP PUSH1 0x1F NOT DUP4 AND SWAP2 DUP5 PUSH1 0x0 MSTORE PUSH32 0xB10E2D527612073B26EECDFD717E6A320CF44B4AFAC2B0732D9FCBE2B7FA0CF6 SWAP3 PUSH1 0x0 JUMPDEST DUP13 DUP3 DUP3 LT PUSH2 0x94C JUMPI POP POP DUP5 GT PUSH2 0x933 JUMPI JUMPDEST POP POP POP DUP2 SHL ADD SWAP1 SSTORE PUSH2 0x83C JUMP JUMPDEST ADD MLOAD PUSH1 0x0 NOT PUSH1 0xF8 DUP5 PUSH1 0x3 SHL AND SHR NOT AND SWAP1 SSTORE DUP12 DUP1 DUP1 PUSH2 0x926 JUMP JUMPDEST DUP4 DUP6 ADD MLOAD DUP7 SSTORE DUP9 SWAP8 SWAP1 SWAP6 ADD SWAP5 SWAP4 DUP5 ADD SWAP4 ADD PUSH2 0x915 JUMP JUMPDEST PUSH2 0x9AA SWAP1 DUP6 PUSH1 0x0 MSTORE PUSH32 0xB10E2D527612073B26EECDFD717E6A320CF44B4AFAC2B0732D9FCBE2B7FA0CF6 PUSH1 0x1F DUP6 ADD PUSH1 0x5 SHR DUP2 ADD SWAP2 DUP13 DUP7 LT PUSH2 0x9B0 JUMPI JUMPDEST PUSH1 0x1F ADD PUSH1 0x5 SHR ADD SWAP1 PUSH2 0x134B JUMP JUMPDEST DUP13 PUSH2 0x812 JUMP JUMPDEST SWAP1 SWAP2 POP DUP2 SWAP1 PUSH2 0x99D JUMP JUMPDEST PUSH1 0x40 DUP3 CALLDATASIZE SUB SLT PUSH2 0xF3 JUMPI PUSH1 0x40 MLOAD SWAP1 PUSH2 0x9D1 DUP3 PUSH2 0x1138 JUMP JUMPDEST DUP3 CALLDATALOAD SWAP1 DUP9 DUP3 AND DUP3 SUB PUSH2 0xF3 JUMPI DUP3 DUP11 SWAP3 PUSH1 0x40 SWAP5 MSTORE DUP3 DUP6 ADD CALLDATALOAD DUP4 DUP3 ADD MSTORE DUP2 MSTORE ADD SWAP2 ADD SWAP1 PUSH2 0x7C9 JUMP JUMPDEST PUSH1 0x40 MLOAD PUSH4 0x35FDCCCD PUSH1 0xE2 SHL DUP2 MSTORE CALLER PUSH1 0x4 DUP3 ADD MSTORE PUSH1 0x24 SWAP1 REVERT JUMPDEST CALLVALUE PUSH2 0xF3 JUMPI PUSH1 0x20 CALLDATASIZE PUSH1 0x3 NOT ADD SLT PUSH2 0xF3 JUMPI PUSH1 0x1 PUSH1 0x1 PUSH1 0x40 SHL SUB PUSH2 0xA30 PUSH2 0x1274 JUMP JUMPDEST AND PUSH1 0x0 MSTORE PUSH1 0x4 PUSH1 0x20 MSTORE PUSH1 0x20 PUSH1 0xFF PUSH1 0x40 PUSH1 0x0 KECCAK256 SLOAD AND PUSH1 0x40 MLOAD SWAP1 ISZERO ISZERO DUP2 MSTORE RETURN JUMPDEST CALLVALUE PUSH2 0xF3 JUMPI PUSH1 0x20 CALLDATASIZE PUSH1 0x3 NOT ADD SLT PUSH2 0xF3 JUMPI PUSH1 0x1 PUSH1 0x1 PUSH1 0x40 SHL SUB PUSH2 0xA6F PUSH2 0x1274 JUMP JUMPDEST PUSH2 0xA84 PUSH1 0x1 DUP1 PUSH1 0xA0 SHL SUB PUSH1 0x3 SLOAD AND CALLER EQ PUSH2 0x12A8 JUMP JUMPDEST AND PUSH1 0x0 SWAP1 DUP2 MSTORE PUSH1 0x4 PUSH1 0x20 MSTORE PUSH1 0x40 SWAP1 KECCAK256 DUP1 SLOAD PUSH1 0xFF NOT AND PUSH1 0x1 OR SWAP1 SSTORE STOP JUMPDEST CALLVALUE PUSH2 0xF3 JUMPI PUSH1 0x20 CALLDATASIZE PUSH1 0x3 NOT ADD SLT PUSH2 0xF3 JUMPI PUSH1 0x1 PUSH1 0x1 PUSH1 0x40 SHL SUB PUSH2 0xAC1 PUSH2 0x1274 JUMP JUMPDEST PUSH2 0xAD6 PUSH1 0x1 DUP1 PUSH1 0xA0 SHL SUB PUSH1 0x3 SLOAD AND CALLER EQ PUSH2 0x12A8 JUMP JUMPDEST AND PUSH1 0x0 SWAP1 DUP2 MSTORE PUSH1 0x4 PUSH1 0x20 MSTORE PUSH1 0x40 SWAP1 KECCAK256 DUP1 SLOAD PUSH1 0xFF NOT AND SWAP1 SSTORE STOP JUMPDEST CALLVALUE PUSH2 0xF3 JUMPI PUSH1 0x20 CALLDATASIZE PUSH1 0x3 NOT ADD SLT PUSH2 0xF3 JUMPI PUSH32 0xC98322FDDCB9467A648BDA840E8C0844A6A420E0A62AF038077F0DE932E72966 PUSH1 0x20 PUSH2 0xB2B PUSH2 0x11DC JUMP JUMPDEST PUSH1 0x3 SLOAD PUSH1 0x1 PUSH1 0x1 PUSH1 0xA0 SHL SUB SWAP2 SWAP1 PUSH2 0xB45 SWAP1 DUP4 AND CALLER EQ PUSH2 0x12A8 JUMP JUMPDEST AND DUP1 PUSH1 0x0 MSTORE PUSH1 0x5 DUP3 MSTORE PUSH2 0xB69 PUSH1 0x1 PUSH1 0xFF DUP2 PUSH1 0x40 PUSH1 0x0 KECCAK256 ADD SLOAD PUSH1 0xA0 SHR AND ISZERO ISZERO EQ PUSH2 0x12FF JUMP JUMPDEST DUP1 PUSH1 0x0 MSTORE PUSH1 0x5 DUP3 MSTORE PUSH1 0x0 PUSH1 0x1 PUSH1 0x40 DUP3 KECCAK256 PUSH2 0xB83 DUP2 SLOAD PUSH2 0x11F2 JUMP JUMPDEST DUP1 PUSH2 0xB95 JUMPI JUMPDEST POP ADD SSTORE PUSH1 0x40 MLOAD SWAP1 DUP2 MSTORE LOG1 STOP JUMPDEST PUSH1 0x1F DUP2 GT DUP4 EQ PUSH2 0xBAA JUMPI POP DUP3 DUP2 SSTORE JUMPDEST DUP7 PUSH2 0xB89 JUMP JUMPDEST DUP4 SWAP1 DUP3 DUP3 MSTORE PUSH2 0xBC6 PUSH1 0x1F DUP9 DUP5 KECCAK256 SWAP3 ADD PUSH1 0x5 SHR DUP3 ADD DUP6 DUP4 ADD PUSH2 0x134B JUMP JUMPDEST DUP2 DUP4 SSTORE SSTORE PUSH2 0xBA4 JUMP JUMPDEST CALLVALUE PUSH2 0xF3 JUMPI PUSH1 0x20 CALLDATASIZE PUSH1 0x3 NOT ADD SLT PUSH2 0xF3 JUMPI PUSH2 0xBE8 PUSH2 0x11DC JUMP JUMPDEST SELFBALANCE SWAP1 DUP2 ISZERO PUSH2 0xC5E JUMPI PUSH1 0x0 DUP1 DUP1 DUP1 DUP6 DUP6 GAS CALL RETURNDATASIZE ISZERO PUSH2 0xC59 JUMPI RETURNDATASIZE PUSH2 0xC09 DUP2 PUSH2 0x1174 JUMP JUMPDEST SWAP1 PUSH2 0xC17 PUSH1 0x40 MLOAD SWAP3 DUP4 PUSH2 0x1153 JUMP JUMPDEST DUP2 MSTORE PUSH1 0x0 PUSH1 0x20 RETURNDATASIZE SWAP3 ADD RETURNDATACOPY JUMPDEST ISZERO PUSH2 0xC29 JUMPI STOP JUMPDEST PUSH1 0x40 MLOAD PUSH4 0x9D11F563 PUSH1 0xE0 SHL DUP2 MSTORE CALLER PUSH1 0x4 DUP3 ADD MSTORE PUSH1 0x1 PUSH1 0x1 PUSH1 0xA0 SHL SUB SWAP1 SWAP2 AND PUSH1 0x24 DUP3 ADD MSTORE PUSH1 0x44 DUP2 ADD SWAP2 SWAP1 SWAP2 MSTORE PUSH1 0x64 SWAP1 REVERT JUMPDEST PUSH2 0xC22 JUMP JUMPDEST PUSH1 0x40 MLOAD PUSH4 0x686827B PUSH1 0xE5 SHL DUP2 MSTORE PUSH1 0x4 SWAP1 REVERT JUMPDEST CALLVALUE PUSH2 0xF3 JUMPI PUSH1 0x40 CALLDATASIZE PUSH1 0x3 NOT ADD SLT PUSH2 0xF3 JUMPI PUSH2 0xC89 PUSH2 0x11DC JUMP JUMPDEST PUSH1 0x1 PUSH1 0x1 PUSH1 0xA0 SHL SUB PUSH2 0xC99 PUSH2 0x11C6 JUMP JUMPDEST AND PUSH1 0x40 MLOAD SWAP2 PUSH4 0x70A08231 PUSH1 0xE0 SHL DUP4 MSTORE ADDRESS PUSH1 0x4 DUP5 ADD MSTORE PUSH1 0x20 SWAP3 DUP4 DUP2 PUSH1 0x24 DUP2 DUP7 GAS STATICCALL SWAP1 DUP2 ISZERO PUSH2 0x48E JUMPI PUSH1 0x0 SWAP2 PUSH2 0xD23 JUMPI JUMPDEST POP DUP1 ISZERO PUSH2 0xC5E JUMPI PUSH1 0x40 MLOAD PUSH4 0xA9059CBB PUSH1 0xE0 SHL DUP2 MSTORE PUSH1 0x1 PUSH1 0x1 PUSH1 0xA0 SHL SUB SWAP3 SWAP1 SWAP3 AND PUSH1 0x4 DUP4 ADD MSTORE PUSH1 0x24 DUP3 ADD MSTORE SWAP1 DUP3 SWAP1 DUP3 SWAP1 PUSH1 0x44 SWAP1 DUP3 SWAP1 PUSH1 0x0 SWAP1 GAS CALL DUP1 ISZERO PUSH2 0x48E JUMPI PUSH2 0xD0D JUMPI STOP JUMPDEST DUP2 PUSH2 0x1B SWAP3 SWAP1 RETURNDATASIZE LT PUSH2 0x4C0 JUMPI PUSH2 0x4B1 DUP2 DUP4 PUSH2 0x1153 JUMP JUMPDEST SWAP1 POP DUP4 DUP2 DUP2 RETURNDATASIZE DUP4 GT PUSH2 0xD49 JUMPI JUMPDEST PUSH2 0xD3A DUP2 DUP4 PUSH2 0x1153 JUMP JUMPDEST DUP2 ADD SUB SLT PUSH2 0xF3 JUMPI MLOAD DUP5 PUSH2 0xCC8 JUMP JUMPDEST POP RETURNDATASIZE PUSH2 0xD30 JUMP JUMPDEST CALLVALUE PUSH2 0xF3 JUMPI PUSH1 0x20 DUP1 PUSH1 0x3 NOT CALLDATASIZE ADD SLT PUSH2 0xF3 JUMPI PUSH1 0x1 PUSH1 0x1 PUSH1 0xA0 SHL SUB DUP1 PUSH2 0xD73 PUSH2 0x11DC JUMP JUMPDEST AND PUSH1 0x0 MSTORE PUSH1 0x5 DUP3 MSTORE PUSH1 0x40 PUSH1 0x0 KECCAK256 SWAP1 PUSH1 0x40 MLOAD SWAP2 PUSH1 0x0 SWAP1 DUP1 SLOAD SWAP2 PUSH2 0xD94 DUP4 PUSH2 0x11F2 JUMP JUMPDEST DUP1 DUP7 MSTORE PUSH1 0x1 SWAP4 DUP1 DUP6 AND SWAP1 DUP2 ISZERO PUSH2 0xE23 JUMPI POP PUSH1 0x1 EQ PUSH2 0xDEF JUMPI JUMPDEST POP SWAP2 PUSH2 0xDD9 SWAP6 SWAP2 PUSH2 0xDC2 DUP7 PUSH1 0xFF SWAP6 SUB DUP8 PUSH2 0x1153 JUMP JUMPDEST ADD SLOAD SWAP1 PUSH1 0x40 MLOAD SWAP6 DUP7 SWAP6 PUSH1 0x60 DUP8 MSTORE PUSH1 0x60 DUP8 ADD SWAP1 PUSH2 0x124F JUMP JUMPDEST SWAP4 DUP3 AND SWAP1 DUP6 ADD MSTORE PUSH1 0xA0 SHR AND ISZERO ISZERO PUSH1 0x40 DUP4 ADD MSTORE SUB SWAP1 RETURN JUMPDEST PUSH1 0x0 DUP4 DUP2 MSTORE DUP8 DUP2 KECCAK256 SWAP1 SWAP3 POP JUMPDEST DUP2 DUP4 LT PUSH2 0xE10 JUMPI POP POP DUP5 ADD DUP6 ADD PUSH2 0xDD9 PUSH2 0xDAD JUMP JUMPDEST DUP1 SLOAD DUP8 DUP5 ADD DUP10 ADD MSTORE SWAP2 DUP8 ADD SWAP2 DUP5 ADD PUSH2 0xDFB JUMP JUMPDEST PUSH1 0xFF NOT AND DUP8 DUP10 ADD MSTORE POP ISZERO ISZERO PUSH1 0x5 SHL DUP6 ADD DUP7 ADD SWAP1 POP PUSH2 0xDD9 PUSH2 0xDAD JUMP JUMPDEST CALLVALUE PUSH2 0xF3 JUMPI PUSH1 0x40 CALLDATASIZE PUSH1 0x3 NOT ADD SLT PUSH2 0xF3 JUMPI PUSH1 0x1 PUSH1 0x1 PUSH1 0x40 SHL SUB PUSH1 0x4 CALLDATALOAD DUP2 DUP2 GT PUSH2 0xF3 JUMPI CALLDATASIZE PUSH1 0x23 DUP3 ADD SLT ISZERO PUSH2 0xF3 JUMPI PUSH2 0xE81 SWAP1 CALLDATASIZE SWAP1 PUSH1 0x24 DUP2 PUSH1 0x4 ADD CALLDATALOAD SWAP2 ADD PUSH2 0x118F JUMP JUMPDEST PUSH2 0xE89 PUSH2 0x11C6 JUMP JUMPDEST PUSH1 0x3 SLOAD PUSH1 0x1 PUSH1 0x1 PUSH1 0xA0 SHL SUB SWAP2 DUP3 SWAP2 PUSH2 0xEA4 SWAP1 DUP4 AND CALLER EQ PUSH2 0x12A8 JUMP JUMPDEST AND DUP1 ISZERO PUSH2 0x108C JUMPI DUP1 PUSH1 0x0 MSTORE PUSH1 0x20 SWAP2 PUSH1 0x5 DUP4 MSTORE PUSH1 0x1 SWAP1 PUSH2 0xED0 PUSH1 0xFF DUP4 PUSH1 0x40 PUSH1 0x0 KECCAK256 ADD SLOAD PUSH1 0xA0 SHR AND ISZERO PUSH2 0x12FF JUMP JUMPDEST PUSH1 0x40 MLOAD SWAP1 PUSH1 0x60 DUP3 ADD DUP3 DUP2 LT DUP9 DUP3 GT OR PUSH2 0x5F0 JUMPI PUSH1 0x40 MSTORE DUP6 DUP3 MSTORE DUP5 DUP3 ADD SWAP3 DUP5 DUP5 MSTORE PUSH1 0x40 DUP4 ADD SWAP3 DUP2 DUP5 MSTORE DUP6 PUSH1 0x0 MSTORE PUSH1 0x5 DUP8 MSTORE PUSH1 0x40 PUSH1 0x0 KECCAK256 SWAP1 MLOAD SWAP9 DUP10 MLOAD SWAP1 DUP2 GT PUSH2 0x5F0 JUMPI PUSH2 0xF1B DUP3 SLOAD PUSH2 0x11F2 JUMP JUMPDEST PUSH1 0x1F DUP2 GT PUSH2 0x105C JUMPI JUMPDEST POP DUP8 PUSH1 0x1F DUP3 GT PUSH1 0x1 EQ PUSH2 0xFCE JUMPI SWAP1 DUP1 PUSH2 0xFBA SWAP11 SWAP10 SWAP9 SWAP8 SWAP7 SWAP6 SWAP5 SWAP4 SWAP3 PUSH32 0x619FACC3344A864638BDF6B94FAEBE32FEA796ECCC10AB263D90DA8B44C42BE4 SWAP13 PUSH1 0x0 SWAP3 PUSH2 0xFC3 JUMPI JUMPDEST POP POP PUSH1 0x0 NOT PUSH1 0x3 DUP4 SWAP1 SHL SHR NOT AND SWAP1 DUP4 SHL OR DUP2 SSTORE JUMPDEST ADD SWAP3 MLOAD AND DUP3 SLOAD SWAP2 PUSH1 0xFF PUSH1 0xA0 SHL SWAP1 MLOAD ISZERO ISZERO PUSH1 0xA0 SHL AND SWAP2 PUSH11 0xFFFFFFFFFFFFFFFFFFFFFF PUSH1 0xA8 SHL AND OR OR SWAP1 SSTORE PUSH1 0x40 MLOAD SWAP4 DUP5 SWAP4 PUSH1 0x40 DUP6 MSTORE PUSH1 0x40 DUP6 ADD SWAP1 PUSH2 0x124F JUMP JUMPDEST SWAP2 DUP4 ADD MSTORE SUB SWAP1 LOG1 STOP JUMPDEST ADD MLOAD SWAP1 POP DUP13 DUP1 PUSH2 0xF69 JUMP JUMPDEST PUSH1 0x1F NOT DUP3 AND SWAP1 DUP4 PUSH1 0x0 MSTORE DUP10 PUSH1 0x0 KECCAK256 SWAP2 PUSH1 0x0 JUMPDEST DUP2 DUP2 LT PUSH2 0x1047 JUMPI POP SWAP2 DUP4 SWAP2 PUSH32 0x619FACC3344A864638BDF6B94FAEBE32FEA796ECCC10AB263D90DA8B44C42BE4 SWAP14 DUP8 SWAP7 SWAP6 PUSH2 0xFBA SWAP15 SWAP14 SWAP13 SWAP12 SWAP11 SWAP10 SWAP9 SWAP6 LT PUSH2 0x102E JUMPI JUMPDEST POP POP POP DUP2 SHL ADD DUP2 SSTORE PUSH2 0xF7D JUMP JUMPDEST ADD MLOAD PUSH1 0x0 NOT PUSH1 0xF8 DUP5 PUSH1 0x3 SHL AND SHR NOT AND SWAP1 SSTORE DUP13 DUP1 DUP1 PUSH2 0x1021 JUMP JUMPDEST DUP14 DUP4 ADD MLOAD DUP5 SSTORE SWAP3 DUP7 ADD SWAP3 SWAP2 DUP12 ADD SWAP2 DUP12 ADD PUSH2 0xFE0 JUMP JUMPDEST PUSH2 0x1086 SWAP1 DUP4 PUSH1 0x0 MSTORE DUP10 PUSH1 0x0 KECCAK256 PUSH1 0x1F DUP5 ADD PUSH1 0x5 SHR DUP2 ADD SWAP2 DUP12 DUP6 LT PUSH2 0x9B0 JUMPI PUSH1 0x1F ADD PUSH1 0x5 SHR ADD SWAP1 PUSH2 0x134B JUMP JUMPDEST DUP11 PUSH2 0xF24 JUMP JUMPDEST PUSH1 0x40 MLOAD PUSH3 0x461BCD PUSH1 0xE5 SHL DUP2 MSTORE PUSH1 0x20 PUSH1 0x4 DUP3 ADD MSTORE PUSH1 0x16 PUSH1 0x24 DUP3 ADD MSTORE PUSH22 0x456E74657220612076616C6964206164647265737321 PUSH1 0x50 SHL PUSH1 0x44 DUP3 ADD MSTORE PUSH1 0x64 SWAP1 REVERT JUMPDEST CALLVALUE PUSH2 0xF3 JUMPI PUSH1 0x20 CALLDATASIZE PUSH1 0x3 NOT ADD SLT PUSH2 0xF3 JUMPI PUSH1 0x4 CALLDATALOAD SWAP1 PUSH4 0xFFFFFFFF PUSH1 0xE0 SHL DUP3 AND DUP1 SWAP3 SUB PUSH2 0xF3 JUMPI PUSH1 0x20 SWAP2 PUSH4 0x85572FFB PUSH1 0xE0 SHL DUP2 EQ SWAP1 DUP2 ISZERO PUSH2 0x110C JUMPI JUMPDEST POP ISZERO ISZERO DUP2 MSTORE RETURN JUMPDEST PUSH4 0x1FFC9A7 PUSH1 0xE0 SHL EQ SWAP1 POP DUP4 PUSH2 0x1105 JUMP JUMPDEST PUSH1 0xA0 DUP2 ADD SWAP1 DUP2 LT PUSH1 0x1 PUSH1 0x1 PUSH1 0x40 SHL SUB DUP3 GT OR PUSH2 0x5F0 JUMPI PUSH1 0x40 MSTORE JUMP JUMPDEST PUSH1 0x40 DUP2 ADD SWAP1 DUP2 LT PUSH1 0x1 PUSH1 0x1 PUSH1 0x40 SHL SUB DUP3 GT OR PUSH2 0x5F0 JUMPI PUSH1 0x40 MSTORE JUMP JUMPDEST SWAP1 PUSH1 0x1F DUP1 NOT SWAP2 ADD AND DUP2 ADD SWAP1 DUP2 LT PUSH1 0x1 PUSH1 0x1 PUSH1 0x40 SHL SUB DUP3 GT OR PUSH2 0x5F0 JUMPI PUSH1 0x40 MSTORE JUMP JUMPDEST PUSH1 0x1 PUSH1 0x1 PUSH1 0x40 SHL SUB DUP2 GT PUSH2 0x5F0 JUMPI PUSH1 0x1F ADD PUSH1 0x1F NOT AND PUSH1 0x20 ADD SWAP1 JUMP JUMPDEST SWAP3 SWAP2 SWAP3 PUSH2 0x119B DUP3 PUSH2 0x1174 JUMP JUMPDEST SWAP2 PUSH2 0x11A9 PUSH1 0x40 MLOAD SWAP4 DUP5 PUSH2 0x1153 JUMP JUMPDEST DUP3 SWAP5 DUP2 DUP5 MSTORE DUP2 DUP4 ADD GT PUSH2 0xF3 JUMPI DUP3 DUP2 PUSH1 0x20 SWAP4 DUP5 PUSH1 0x0 SWAP7 ADD CALLDATACOPY ADD ADD MSTORE JUMP JUMPDEST PUSH1 0x24 CALLDATALOAD SWAP1 PUSH1 0x1 PUSH1 0x1 PUSH1 0xA0 SHL SUB DUP3 AND DUP3 SUB PUSH2 0xF3 JUMPI JUMP JUMPDEST PUSH1 0x4 CALLDATALOAD SWAP1 PUSH1 0x1 PUSH1 0x1 PUSH1 0xA0 SHL SUB DUP3 AND DUP3 SUB PUSH2 0xF3 JUMPI JUMP JUMPDEST SWAP1 PUSH1 0x1 DUP3 DUP2 SHR SWAP3 AND DUP1 ISZERO PUSH2 0x1222 JUMPI JUMPDEST PUSH1 0x20 DUP4 LT EQ PUSH2 0x120C JUMPI JUMP JUMPDEST PUSH4 0x4E487B71 PUSH1 0xE0 SHL PUSH1 0x0 MSTORE PUSH1 0x22 PUSH1 0x4 MSTORE PUSH1 0x24 PUSH1 0x0 REVERT JUMPDEST SWAP2 PUSH1 0x7F AND SWAP2 PUSH2 0x1201 JUMP JUMPDEST PUSH1 0x0 JUMPDEST DUP4 DUP2 LT PUSH2 0x123F JUMPI POP POP PUSH1 0x0 SWAP2 ADD MSTORE JUMP JUMPDEST DUP2 DUP2 ADD MLOAD DUP4 DUP3 ADD MSTORE PUSH1 0x20 ADD PUSH2 0x122F JUMP JUMPDEST SWAP1 PUSH1 0x20 SWAP2 PUSH2 0x1268 DUP2 MLOAD DUP1 SWAP3 DUP2 DUP6 MSTORE DUP6 DUP1 DUP7 ADD SWAP2 ADD PUSH2 0x122C JUMP JUMPDEST PUSH1 0x1F ADD PUSH1 0x1F NOT AND ADD ADD SWAP1 JUMP JUMPDEST PUSH1 0x4 CALLDATALOAD SWAP1 PUSH1 0x1 PUSH1 0x1 PUSH1 0x40 SHL SUB DUP3 AND DUP3 SUB PUSH2 0xF3 JUMPI JUMP JUMPDEST SWAP1 DUP1 PUSH1 0x1F DUP4 ADD SLT ISZERO PUSH2 0xF3 JUMPI DUP2 PUSH1 0x20 PUSH2 0x12A5 SWAP4 CALLDATALOAD SWAP2 ADD PUSH2 0x118F JUMP JUMPDEST SWAP1 JUMP JUMPDEST ISZERO PUSH2 0x12AF JUMPI JUMP JUMPDEST PUSH1 0x40 MLOAD PUSH3 0x461BCD PUSH1 0xE5 SHL DUP2 MSTORE PUSH1 0x20 PUSH1 0x4 DUP3 ADD MSTORE PUSH1 0x22 PUSH1 0x24 DUP3 ADD MSTORE PUSH32 0x4F6E6C79204F776E65722063616E2063616C6C20746869732066756E6374696F PUSH1 0x44 DUP3 ADD MSTORE PUSH2 0x6E21 PUSH1 0xF0 SHL PUSH1 0x64 DUP3 ADD MSTORE PUSH1 0x84 SWAP1 REVERT JUMPDEST ISZERO PUSH2 0x1306 JUMPI JUMP JUMPDEST PUSH1 0x40 MLOAD PUSH3 0x461BCD PUSH1 0xE5 SHL DUP2 MSTORE PUSH1 0x20 PUSH1 0x4 DUP3 ADD MSTORE PUSH1 0x1F PUSH1 0x24 DUP3 ADD MSTORE PUSH32 0x526563656976657220697320616C726561647920726567697374657265642100 PUSH1 0x44 DUP3 ADD MSTORE PUSH1 0x64 SWAP1 REVERT JUMPDEST DUP2 DUP2 LT PUSH2 0x1356 JUMPI POP POP JUMP JUMPDEST PUSH1 0x0 DUP2 SSTORE PUSH1 0x1 ADD PUSH2 0x134B JUMP JUMPDEST SWAP1 PUSH1 0x1 PUSH1 0x1 PUSH1 0x40 SHL SUB SWAP1 SWAP4 SWAP3 SWAP4 AND DUP2 MSTORE PUSH1 0x40 PUSH1 0x20 SWAP2 DUP2 DUP4 DUP3 ADD MSTORE PUSH2 0x1391 DUP6 MLOAD PUSH1 0xA0 DUP5 DUP5 ADD MSTORE PUSH1 0xE0 DUP4 ADD SWAP1 PUSH2 0x124F JUMP JUMPDEST SWAP2 PUSH2 0x13AD DUP5 DUP8 ADD MLOAD SWAP4 PUSH1 0x3F NOT SWAP5 DUP6 DUP6 DUP4 SUB ADD PUSH1 0x60 DUP7 ADD MSTORE PUSH2 0x124F JUMP JUMPDEST DUP2 DUP8 ADD MLOAD SWAP5 DUP5 DUP5 DUP4 SUB ADD PUSH1 0x80 DUP6 ADD MSTORE DUP1 DUP1 DUP8 MLOAD SWAP4 DUP5 DUP2 MSTORE ADD SWAP7 ADD SWAP3 PUSH1 0x0 SWAP1 JUMPDEST DUP4 DUP3 LT PUSH2 0x1402 JUMPI POP POP POP POP POP PUSH1 0xC0 PUSH1 0x80 PUSH2 0x12A5 SWAP6 SWAP7 PUSH1 0x1 DUP1 PUSH1 0xA0 SHL SUB PUSH1 0x60 DUP3 ADD MLOAD AND PUSH1 0xA0 DUP6 ADD MSTORE ADD MLOAD SWAP3 DUP3 DUP6 SUB ADD SWAP2 ADD MSTORE PUSH2 0x124F JUMP JUMPDEST DUP5 MLOAD DUP1 MLOAD PUSH1 0x1 PUSH1 0x1 PUSH1 0xA0 SHL SUB AND DUP10 MSTORE DUP4 ADD MLOAD DUP9 DUP5 ADD MSTORE SWAP7 DUP8 ADD SWAP7 SWAP4 DUP3 ADD SWAP4 PUSH1 0x1 SWAP1 SWAP2 ADD SWAP1 PUSH2 0x13CC JUMP JUMPDEST SWAP1 DUP2 PUSH1 0x20 SWAP2 SUB SLT PUSH2 0xF3 JUMPI MLOAD DUP1 ISZERO ISZERO DUP2 SUB PUSH2 0xF3 JUMPI SWAP1 JUMP JUMPDEST PUSH1 0x20 DUP2 DUP4 SUB SLT PUSH2 0xF3 JUMPI DUP1 MLOAD SWAP1 PUSH1 0x1 PUSH1 0x1 PUSH1 0x40 SHL SUB DUP3 GT PUSH2 0xF3 JUMPI ADD DUP2 PUSH1 0x1F DUP3 ADD SLT ISZERO PUSH2 0xF3 JUMPI DUP1 MLOAD PUSH2 0x1475 DUP2 PUSH2 0x1174 JUMP JUMPDEST SWAP3 PUSH2 0x1483 PUSH1 0x40 MLOAD SWAP5 DUP6 PUSH2 0x1153 JUMP JUMPDEST DUP2 DUP5 MSTORE PUSH1 0x20 DUP3 DUP5 ADD ADD GT PUSH2 0xF3 JUMPI PUSH2 0x12A5 SWAP2 PUSH1 0x20 DUP1 DUP6 ADD SWAP2 ADD PUSH2 0x122C JUMP JUMPDEST DUP1 MLOAD ISZERO PUSH2 0x14AE JUMPI PUSH1 0x20 ADD SWAP1 JUMP JUMPDEST PUSH4 0x4E487B71 PUSH1 0xE0 SHL PUSH1 0x0 MSTORE PUSH1 0x32 PUSH1 0x4 MSTORE PUSH1 0x24 PUSH1 0x0 REVERT INVALID LOG2 PUSH5 0x6970667358 0x22 SLT KECCAK256 CREATE SLT DUP13 PUSH6 0x31CA8BE5D1BA PUSH32 0x2EFABDAF97C63D582FB74A9A9422FF2B3E6A2EDC0764736F6C63430008140033 "},"gasEstimates":{"creation":{"codeDepositCost":"1074000","executionCost":"infinite","totalCost":"infinite"},"external":{"addReceiver(string,address)":"infinite","ccipReceicers(address)":"infinite","ccipReceive((bytes32,uint64,bytes,bytes,(address,uint256)[]))":"infinite","denylistDestinationChain(uint64)":"26804","getRouter()":"infinite","removeReceiver(address)":"infinite","sendMessagePayLINK(uint64,address,bytes)":"infinite","supportsInterface(bytes4)":"271","whitelistDestinationChain(uint64)":"26832","whitelistedDestinationChains(uint64)":"2597","withdraw(address)":"infinite","withdrawToken(address,address)":"infinite"},"internal":{"_buildCCIPMessage(address,bytes memory,address)":"infinite","_ccipReceive(struct Client.Any2EVMMessage memory)":"infinite"}},"methodIdentifiers":{"addReceiver(string,address)":"1d5e2947","ccipReceicers(address)":"1f27166d","ccipReceive((bytes32,uint64,bytes,bytes,(address,uint256)[]))":"85572ffb","denylistDestinationChain(uint64)":"73645cff","getRouter()":"b0f479a1","removeReceiver(address)":"6552d8b4","sendMessagePayLINK(uint64,address,bytes)":"a30e3770","supportsInterface(bytes4)":"01ffc9a7","whitelistDestinationChain(uint64)":"7898d184","whitelistedDestinationChains(uint64)":"835b347c","withdraw(address)":"51cff8d9","withdrawToken(address,address)":"3aeac4e1"}},"storageLayout":{"storage":[{"astId":6689,"contract":"contracts/HorizonFujiS.sol:HorizonFujiS","label":"lastReceivedMessageId","offset":0,"slot":"0","type":"t_bytes32"},{"astId":6691,"contract":"contracts/HorizonFujiS.sol:HorizonFujiS","label":"lastReceivedText","offset":0,"slot":"1","type":"t_string_storage"},{"astId":6693,"contract":"contracts/HorizonFujiS.sol:HorizonFujiS","label":"destinationChainSelector","offset":0,"slot":"2","type":"t_uint256"},{"astId":6695,"contract":"contracts/HorizonFujiS.sol:HorizonFujiS","label":"owner","offset":0,"slot":"3","type":"t_address"},{"astId":6706,"contract":"contracts/HorizonFujiS.sol:HorizonFujiS","label":"whitelistedDestinationChains","offset":0,"slot":"4","type":"t_mapping(t_uint64,t_bool)"},{"astId":6711,"contract":"contracts/HorizonFujiS.sol:HorizonFujiS","label":"ccipReceicers","offset":0,"slot":"5","type":"t_mapping(t_address,t_struct(ReceiverInfo)6702_storage)"},{"astId":6714,"contract":"contracts/HorizonFujiS.sol:HorizonFujiS","label":"linkToken","offset":0,"slot":"6","type":"t_contract(LinkTokenInterface)1390"}],"types":{"t_address":{"encoding":"inplace","label":"address","numberOfBytes":"20"},"t_bool":{"encoding":"inplace","label":"bool","numberOfBytes":"1"},"t_bytes32":{"encoding":"inplace","label":"bytes32","numberOfBytes":"32"},"t_contract(LinkTokenInterface)1390":{"encoding":"inplace","label":"contract LinkTokenInterface","numberOfBytes":"20"},"t_mapping(t_address,t_struct(ReceiverInfo)6702_storage)":{"encoding":"mapping","key":"t_address","label":"mapping(address => struct HorizonFujiS.ReceiverInfo)","numberOfBytes":"32","value":"t_struct(ReceiverInfo)6702_storage"},"t_mapping(t_uint64,t_bool)":{"encoding":"mapping","key":"t_uint64","label":"mapping(uint64 => bool)","numberOfBytes":"32","value":"t_bool"},"t_string_storage":{"encoding":"bytes","label":"string","numberOfBytes":"32"},"t_struct(ReceiverInfo)6702_storage":{"encoding":"inplace","label":"struct HorizonFujiS.ReceiverInfo","members":[{"astId":6697,"contract":"contracts/HorizonFujiS.sol:HorizonFujiS","label":"blockchainName","offset":0,"slot":"0","type":"t_string_storage"},{"astId":6699,"contract":"contracts/HorizonFujiS.sol:HorizonFujiS","label":"receiverAddress","offset":0,"slot":"1","type":"t_address"},{"astId":6701,"contract":"contracts/HorizonFujiS.sol:HorizonFujiS","label":"isReceiver","offset":20,"slot":"1","type":"t_bool"}],"numberOfBytes":"64"},"t_uint256":{"encoding":"inplace","label":"uint256","numberOfBytes":"32"},"t_uint64":{"encoding":"inplace","label":"uint64","numberOfBytes":"8"}}},"userdoc":{"kind":"user","methods":{"ccipReceive((bytes32,uint64,bytes,bytes,(address,uint256)[]))":{"notice":"Called by the Router to deliver a message. If this reverts, any token transfers also revert. The message will move to a FAILED state and become available for manual execution."},"denylistDestinationChain(uint64)":{"notice":"This function can only be called by the owner."},"getRouter()":{"notice":"Return the current router"},"supportsInterface(bytes4)":{"notice":"IERC165 supports an interfaceId"},"whitelistDestinationChain(uint64)":{"notice":"This function can only be called by the owner."}},"version":1}}}}