{"@chainlink/contracts/src/v0.8/functions/dev/v1_0_0/libraries/FunctionsRequest.sol":{"FunctionsRequest":{"abi":[{"inputs":[],"name":"EmptyArgs","type":"error"},{"inputs":[],"name":"EmptySecrets","type":"error"},{"inputs":[],"name":"EmptySource","type":"error"},{"inputs":[],"name":"NoInlineSecrets","type":"error"},{"inputs":[],"name":"REQUEST_DATA_VERSION","outputs":[{"internalType":"uint16","name":"","type":"uint16"}],"stateMutability":"view","type":"function"}],"devdoc":{"kind":"dev","methods":{},"title":"Library for encoding the input data of a Functions request into CBOR","version":1},"evm":{"bytecode":{"linkReferences":{},"object":"608080604052346018576075908161001e823930815050f35b600080fdfe6080806040526004361015601257600080fd5b60003560e01c635d641dfc14602657600080fd5b6000366003190112603a5780600160209252f35b600080fdfea264697066735822122090cb4ec279128aeb33bdbaeda4794d59e11d1cf27534803e6aa73590f4d22ced64736f6c63430008140033","opcodes":"PUSH1 0x80 DUP1 PUSH1 0x40 MSTORE CALLVALUE PUSH1 0x18 JUMPI PUSH1 0x75 SWAP1 DUP2 PUSH2 0x1E DUP3 CODECOPY ADDRESS DUP2 POP POP RETURN JUMPDEST PUSH1 0x0 DUP1 REVERT INVALID PUSH1 0x80 DUP1 PUSH1 0x40 MSTORE PUSH1 0x4 CALLDATASIZE LT ISZERO PUSH1 0x12 JUMPI PUSH1 0x0 DUP1 REVERT JUMPDEST PUSH1 0x0 CALLDATALOAD PUSH1 0xE0 SHR PUSH4 0x5D641DFC EQ PUSH1 0x26 JUMPI PUSH1 0x0 DUP1 REVERT JUMPDEST PUSH1 0x0 CALLDATASIZE PUSH1 0x3 NOT ADD SLT PUSH1 0x3A JUMPI DUP1 PUSH1 0x1 PUSH1 0x20 SWAP3 MSTORE RETURN JUMPDEST PUSH1 0x0 DUP1 REVERT INVALID LOG2 PUSH5 0x6970667358 0x22 SLT KECCAK256 SWAP1 0xCB 0x4E 0xC2 PUSH26 0x128AEB33BDBAEDA4794D59E11D1CF27534803E6AA73590F4D22C 0xED PUSH5 0x736F6C6343 STOP ADDMOD EQ STOP CALLER "},"gasEstimates":{"creation":{"codeDepositCost":"23400","executionCost":"infinite","totalCost":"infinite"},"external":{"REQUEST_DATA_VERSION()":"129"},"internal":{"addDONHostedSecrets(struct FunctionsRequest.Request memory,uint8,uint64)":"infinite","addSecretsReference(struct FunctionsRequest.Request memory,bytes memory)":"infinite","encodeCBOR(struct FunctionsRequest.Request memory)":"infinite","initializeRequest(struct FunctionsRequest.Request memory,enum FunctionsRequest.Location,enum FunctionsRequest.CodeLanguage,string memory)":"infinite","initializeRequestForInlineJavaScript(struct FunctionsRequest.Request memory,string memory)":"infinite","setArgs(struct FunctionsRequest.Request memory,string memory[] memory)":"infinite","setBytesArgs(struct FunctionsRequest.Request memory,bytes memory[] memory)":"infinite"}},"methodIdentifiers":{"REQUEST_DATA_VERSION()":"5d641dfc"}},"storageLayout":{"storage":[],"types":null},"userdoc":{"kind":"user","methods":{},"version":1}}}}