{"contracts/HorizonFujiR.sol":{"HorizonFujiR":{"abi":[{"inputs":[{"internalType":"address","name":"_linkToken","type":"address"},{"internalType":"address","name":"_routerCCIP","type":"address"}],"stateMutability":"nonpayable","type":"constructor"},{"inputs":[{"internalType":"address","name":"owner","type":"address"},{"internalType":"address","name":"target","type":"address"},{"internalType":"uint256","name":"value","type":"uint256"}],"name":"FailedToWithdrawEth","type":"error"},{"inputs":[{"internalType":"address","name":"router","type":"address"}],"name":"InvalidRouter","type":"error"},{"inputs":[],"name":"NothingToWithdraw","type":"error"},{"anonymous":false,"inputs":[{"indexed":false,"internalType":"address","name":"provisoryOwner","type":"address"},{"indexed":false,"internalType":"uint256","name":"_rwaId","type":"uint256"},{"indexed":false,"internalType":"uint256","name":"_titleId","type":"uint256"},{"indexed":false,"internalType":"uint256","name":"_drawNumber","type":"uint256"}],"name":"EnsuranceAdd","type":"event"},{"anonymous":false,"inputs":[{"indexed":true,"internalType":"bytes32","name":"messageId","type":"bytes32"},{"indexed":true,"internalType":"uint64","name":"sourceChainSelector","type":"uint64"},{"indexed":false,"internalType":"address","name":"sender","type":"address"},{"indexed":false,"internalType":"string","name":"text","type":"string"}],"name":"MessageReceived","type":"event"},{"anonymous":false,"inputs":[{"indexed":false,"internalType":"uint256","name":"_contractId","type":"uint256"},{"indexed":false,"internalType":"uint256","name":"_rwaValue","type":"uint256"},{"indexed":false,"internalType":"uint256","name":"_referenceValue","type":"uint256"}],"name":"PriceLowEvent","type":"event"},{"anonymous":false,"inputs":[{"indexed":false,"internalType":"uint256","name":"_contractId","type":"uint256"},{"indexed":false,"internalType":"uint256","name":"_rwaValue","type":"uint256"},{"indexed":false,"internalType":"uint256","name":"_referenceValue","type":"uint256"}],"name":"RWAPriceAtMoment","type":"event"},{"anonymous":false,"inputs":[{"indexed":false,"internalType":"uint256","name":"_titleId","type":"uint256"},{"indexed":false,"internalType":"uint256","name":"_drawNumber","type":"uint256"},{"indexed":false,"internalType":"address","name":"_rwaOwner","type":"address"},{"indexed":false,"internalType":"uint256","name":"_colateralId","type":"uint256"}],"name":"RWARefunded","type":"event"},{"anonymous":false,"inputs":[{"indexed":false,"internalType":"uint256","name":"_rwaId","type":"uint256"},{"indexed":false,"internalType":"uint256","name":"_rwaValue","type":"uint256"}],"name":"TheRwaValueIsLessThanTheMinimumNeeded","type":"event"},{"anonymous":false,"inputs":[{"indexed":false,"internalType":"uint256","name":"_contractId","type":"uint256"},{"indexed":false,"internalType":"uint256","name":"_rwaValue","type":"uint256"},{"indexed":false,"internalType":"uint256","name":"rwaValue","type":"uint256"}],"name":"TitleCancelledTheRWAWillBeSold","type":"event"},{"anonymous":false,"inputs":[{"indexed":false,"internalType":"uint256","name":"_rwaId","type":"uint256"},{"indexed":false,"internalType":"string[]","name":"args","type":"string[]"}],"name":"VerifyingRwaValue","type":"event"},{"inputs":[{"internalType":"uint256","name":"_titleId","type":"uint256"},{"internalType":"uint256","name":"_contractId","type":"uint256"},{"internalType":"uint256","name":"_drawNumber","type":"uint256"},{"internalType":"uint256","name":"_rwaId","type":"uint256"}],"name":"addCollateral","outputs":[],"stateMutability":"nonpayable","type":"function"},{"inputs":[{"internalType":"address","name":"_receiverAddress","type":"address"}],"name":"addReceiver","outputs":[],"stateMutability":"nonpayable","type":"function"},{"inputs":[{"internalType":"address","name":"_sender","type":"address"}],"name":"addSender","outputs":[],"stateMutability":"nonpayable","type":"function"},{"inputs":[{"internalType":"uint64","name":"_sourceChainSelector","type":"uint64"}],"name":"addSourceChain","outputs":[],"stateMutability":"nonpayable","type":"function"},{"inputs":[{"components":[{"internalType":"bytes32","name":"messageId","type":"bytes32"},{"internalType":"uint64","name":"sourceChainSelector","type":"uint64"},{"internalType":"bytes","name":"sender","type":"bytes"},{"internalType":"bytes","name":"data","type":"bytes"},{"components":[{"internalType":"address","name":"token","type":"address"},{"internalType":"uint256","name":"amount","type":"uint256"}],"internalType":"struct Client.EVMTokenAmount[]","name":"destTokenAmounts","type":"tuple[]"}],"internalType":"struct Client.Any2EVMMessage","name":"message","type":"tuple"}],"name":"ccipReceive","outputs":[],"stateMutability":"nonpayable","type":"function"},{"inputs":[],"name":"getLastReceivedMessageDetails","outputs":[{"internalType":"bytes32","name":"messageId","type":"bytes32"},{"internalType":"bytes","name":"text","type":"bytes"}],"stateMutability":"view","type":"function"},{"inputs":[],"name":"getRouter","outputs":[{"internalType":"address","name":"","type":"address"}],"stateMutability":"view","type":"function"},{"inputs":[{"internalType":"bytes32","name":"","type":"bytes32"}],"name":"permissionsInfo","outputs":[{"internalType":"uint256","name":"idTitle","type":"uint256"},{"internalType":"uint256","name":"drawNumber","type":"uint256"},{"internalType":"uint256","name":"contractId","type":"uint256"},{"internalType":"address","name":"rwaOwner","type":"address"},{"internalType":"uint256","name":"ensuranceValueNeeded","type":"uint256"},{"internalType":"uint256","name":"ensureValueNow","type":"uint256"},{"internalType":"uint256","name":"colateralId","type":"uint256"},{"internalType":"bytes32","name":"lastRequestId","type":"bytes32"},{"internalType":"uint256","name":"lastRequestTime","type":"uint256"},{"internalType":"uint256","name":"lastResponseTime","type":"uint256"},{"internalType":"bool","name":"colateralLocked","type":"bool"},{"internalType":"bool","name":"isPermission","type":"bool"}],"stateMutability":"view","type":"function"},{"inputs":[{"internalType":"address","name":"_sender","type":"address"}],"name":"removeSender","outputs":[],"stateMutability":"nonpayable","type":"function"},{"inputs":[{"internalType":"uint64","name":"_sourceChainSelector","type":"uint64"}],"name":"removelistSourceChain","outputs":[],"stateMutability":"nonpayable","type":"function"},{"inputs":[{"internalType":"bytes4","name":"interfaceId","type":"bytes4"}],"name":"supportsInterface","outputs":[{"internalType":"bool","name":"","type":"bool"}],"stateMutability":"pure","type":"function"},{"inputs":[{"internalType":"uint256","name":"_titleId","type":"uint256"},{"internalType":"uint256","name":"_contractId","type":"uint256"},{"internalType":"uint256","name":"_drawNumber","type":"uint256"},{"internalType":"uint256","name":"_rwaId","type":"uint256"},{"internalType":"string[]","name":"args","type":"string[]"}],"name":"verifyColateralValue","outputs":[],"stateMutability":"nonpayable","type":"function"},{"inputs":[{"internalType":"address","name":"","type":"address"}],"name":"whitelistedSenders","outputs":[{"internalType":"bool","name":"","type":"bool"}],"stateMutability":"view","type":"function"},{"inputs":[{"internalType":"uint64","name":"","type":"uint64"}],"name":"whitelistedSourceChains","outputs":[{"internalType":"bool","name":"","type":"bool"}],"stateMutability":"view","type":"function"},{"inputs":[{"internalType":"address","name":"_beneficiary","type":"address"}],"name":"withdraw","outputs":[],"stateMutability":"nonpayable","type":"function"},{"inputs":[{"internalType":"address","name":"_beneficiary","type":"address"},{"internalType":"address","name":"_token","type":"address"}],"name":"withdrawToken","outputs":[],"stateMutability":"nonpayable","type":"function"},{"stateMutability":"payable","type":"receive"}],"devdoc":{"kind":"dev","methods":{"addSender(address)":{"details":"Whitelists a sender.","params":{"_sender":"The address of the sender."}},"addSourceChain(uint64)":{"details":"Whitelists a chain for transactions.","params":{"_sourceChainSelector":"The selector of the source chain to be whitelisted."}},"ccipReceive((bytes32,uint64,bytes,bytes,(address,uint256)[]))":{"details":"Note ensure you check the msg.sender is the OffRampRouter","params":{"message":"CCIP Message"}},"getRouter()":{"returns":{"_0":"i_router address"}},"removeSender(address)":{"details":"Denylists a sender.","params":{"_sender":"The address of the sender."}},"removelistSourceChain(uint64)":{"details":"Denylists a chain for transactions.","params":{"_sourceChainSelector":"The selector of the source chain to be denylisted."}},"supportsInterface(bytes4)":{"params":{"interfaceId":"The interfaceId to check"},"returns":{"_0":"true if the interfaceId is supported"}}},"version":1},"evm":{"bytecode":{"linkReferences":{},"object":"60a034620000e057601f62001da138819003918201601f19168301916001600160401b03831184841017620000e5578084926040948552833981010312620000e057602081620000536200005b93620000fb565b5001620000fb565b6001600160a01b03811615620000c757608052735fa769922a6428758fb44453815e2c436c57c3c760018060a01b03198181600a541617600a558181600b541617600b55600c541617600c55604051611c90908162000111823960805181818161028d0152610bd80152f35b6040516335fdcccd60e21b815260006004820152602490fd5b600080fd5b634e487b7160e01b600052604160045260246000fd5b51906001600160a01b0382168203620000e05756fe608080604052600436101561001d575b50361561001b57600080fd5b005b600090813560e01c90816301ffc9a71461177857508063263596a51461173d578063272efc69146116fe5780633aeac4e11461160357806351cff8d91461156057806369d83ed1146115275780637dc91a02146114ea57806385572ffb14610ba457806392365ce41461074357806395871c8f146102bc578063b0f479a114610277578063b2f876431461023e578063b697f53114610202578063c5ec1c7a146101c6578063e9982c39146101115763ff46ed530361000f573461010e57602036600319011261010e576001600160401b036100f761182b565b168152600860205260408120805460ff1916905580f35b80fd5b503461010e57602036600319011261010e57604061018091600435815260076020522060ff815491600181015490600281015460018060a01b0360038301541660048301546005840154600685015491600886015493600987015495600b600a890154980154986040519b8c5260208c015260408b015260608a0152608089015260a088015260c087015260e0860152610100850152610120840152818116151561014084015260081c161515610160820152f35b503461010e57602036600319011261010e576001600160401b036101e861182b565b168152600860205260408120805460ff1916600117905580f35b503461010e57602036600319011261010e576001600160a01b03610224611815565b168152600960205260408120805460ff1916600117905580f35b503461010e57602036600319011261010e576001600160a01b03610260611815565b168152600960205260408120805460ff1916905580f35b503461010e578060031936011261010e576040517f00000000000000000000000000000000000000000000000000000000000000006001600160a01b03168152602090f35b503461010e57608036600319011261010e57600435604435906064359060405191602080840160249461031481610306898935898791606093918352602083015260408201520190565b03601f19810183528261186a565b51902080875260078252604087209061033b600160ff600b85015460081c16151514611b05565b600b546008830154604080516364b975db60e11b815260048101929092526001600160a01b0394919283908a90829088165afa908115610738578a928b926106fa575b506004810154831092836106bf576005820155600a0155610644578782600c5416803b15610640576040516323b872dd60e01b8152336004820152306024820152604481018790529082908290606490829084905af180156106355761061d575b5050858383600c5416604051988980926331a9108f60e11b82528960048301525afa9687156105945789976105ee575b506040516001600160401b03919060608101838111828210176105d957604052868152858101848152604082019060018252600654600160401b8110156105c6578060016104609201600655611c09565b9390936105b3579160029161048f949351845551600184015551151591019060ff801983541691151516179055565b83600c5416604051938685015260408401528560608401526060835260808301918383109083111761059f575080604052838184600a54168560025416630a30e37760e41b835267adecc60412ce25a5608487015260a4860152606060c4860152818c607f198761050360e48201826117f0565b0301925af1801561059457610556575b50509160809493917f93bffd1bde7afe8c47a27012597f0dc2c5ccea5fc1323d424e13c21065d594e896936040519516855284015260408301526060820152a180f35b90839794929695939182903d841161058c575b816105739161186a565b810103126105875791949092933880610513565b600080fd5b3d9150610569565b6040513d8b823e3d90fd5b634e487b7160e01b60009081526041600452fd5b634e487b7160e01b8e5260048e9052848efd5b634e487b7160e01b8e526041600452848efd5b82634e487b7160e01b60005260416004526000fd5b61060f919750843d8611610616575b610607818361186a565b810190611b51565b953861040f565b503d6105fd565b61062690611841565b6106315787386103df565b8780fd5b6040513d84823e3d90fd5b5080fd5b60405162461bcd60e51b8152600481018490526048818801527f54686520656e737572616e6365206d7573742068617665206174206c6561737460448201527f2031302074696d6573207468652076616c7565206f66207468652076616c7565606482015267206e65656465642160c01b608482015260a490fd5b96975050505050507f90d31678ec129d3863be095922ef7b97386bcca9b61e15d2d53347cddceeb0a79450604080945051928352820152a180f35b925090506040823d604011610730575b816107176040938361186a565b8101031261072c57848251920151903861037e565b8980fd5b3d915061070a565b6040513d8c823e3d90fd5b503461010e5760a036600319011261010e576001600160401b036084351161010e5736602360843501121561010e576001600160401b03608435600401351161010e573660246084356004013560051b60843501011161010e5760405160208101906107cb816103066044356024356004358791606093918352602083015260408201520190565b51902080825260076020526107f1600160ff600b60408620015460081c16151514611b05565b600c546040516331a9108f60e11b8152606435600482015290602090829060249082906001600160a01b03165afa908115610b99578391610b7a575b506001600160a01b03163303610b2257815260076020526040812060043581556024356002820155604435600182015560038101336001600160601b0360a01b825416179055606435600682015561088e6084356004013560078301611a75565b60246084350190816007820184526020842084915b6084356004013583106109b65750505060018060a01b03600b54169060206040518093634c8f60a360e01b82528260048301528187816108ed60248201608435600401358b611b70565b03925af19182156109ab578492610955575b509161094f9160087fcc6833fd9787745c083edfcc3ae70e4cd35ab78cf84f127388a790fd6ed17fbb94015560405191829160643583526040602084015260408301906084356004013590611b70565b0390a180f35b9150916020823d6020116109a3575b816109716020938361186a565b8101031261058757905190917fcc6833fd9787745c083edfcc3ae70e4cd35ab78cf84f127388a790fd6ed17fbb6108ff565b3d9150610964565b6040513d86823e3d90fd5b60843536036042190181351215610b1e576001600160401b036024823560843501013511610b1e5760843581350160248101353603604490910113610b1e57610a1260248235608435010135610a0c8454611924565b84611975565b85601f6024833560843501013511600114610a805760206001928392899060248335608435010135610a6d575b5060001960843583350160240135600381901b9190911c1990911690841b1785555b019201920191906108a3565b6044915082356084350101013538610a3f565b8287526020872090875b60843584350160240135601f19168110610afe5750600192839260209260843583350160240135601f19811610610ad3575b50508260248235608435010135811b018555610a61565b604460001960f86024863560843501013560031b161c19918435608435010101351690553880610abc565b909160206001819260448688356084350101013581550193019101610a8a565b8580fd5b60405162461bcd60e51b815260206004820152602a60248201527f596f75206d75737420626520746865206f776e6572206f662074686520696e666044820152696f726d6564205257412160b01b6064820152608490fd5b610b93915060203d60201161061657610607818361186a565b3861082d565b6040513d85823e3d90fd5b503461010e576003199060203683011261010e57600435916001600160401b0383116106405760a090833603011261010e577f00000000000000000000000000000000000000000000000000000000000000006001600160a01b031633036114d2576040519160a083018381106001600160401b03821117611466576040528060040135835260248101356001600160401b03811681036112fc57602084015260448101356001600160401b0381116112fc57610c6790600436918401016118a6565b604084015260648101356001600160401b0381116112fc57610c8f90600436918401016118a6565b60608401526084810135906001600160401b0382116112fc5701366023820112156106405760048101356001600160401b0381116114665760405191610cdb60208360051b018461186a565b8183526024602084019260061b8201019036821161104d57602401915b81831061147e57505050608083015281518155606082015180518101906020818184019303126112fc576020810151906001600160401b03821161147a570181603f820112156112fc576020810151610d5492916040016118ed565b9182516001600160401b03811161146657610d70600154611924565b601f811161140d575b506020601f821160011461138c57839482939492611381575b50508160011b916000199060031b1c1916176001555b610db06119af565b6060818051810103126112fc576020810151610dd3606060408401519301611a68565b6040518060208101106001600160401b0360208301111761136d5760208101604052858152836005810204600514841517156113595760405193846101a08101106001600160401b036101a087011117611345576005906101a086016040528786528760208701528760408701528760608701520260808501528560a08501528560c085015260e08401528461010084015284610120840152846101408401528015156101608401526001610180840152600181151514600014611144575083526007602052604083208151815560208201516001820155604082015160028201556003810160018060a01b036060840151166001600160601b0360a01b8254161790556080820151600482015560a0820151600582015560c082015160068201556007810160e0830151906020825192610f0e8484611a75565b019086526020862086915b8383106110515750505050600b6101809161010084015160088201556101208401516009820155610140840151600a8201550191610f6a6101608201511515849060ff801983541691151516179055565b0151815461ff00191690151560081b61ff00161790555b80516001600160401b0360208301511691604081015160208180518101031261104d57602001516001600160a01b038116919082900361104d5760600151908151820191602081818501940312610b1e576020810151906001600160401b038211611049570182603f82011215610b1e577fb1e312a29937cc11967b0e4a346fef1ae132424ebaba9dc6d90249dba053e87c92816040602061102694015191016118ed565b9061104360405192839283526040602084015260408301906117f0565b0390a380f35b8680fd5b8480fd5b80518051906001600160401b03821161113057611078826110728654611924565b86611975565b6020908a601f84116001146110c3579280602093600196938796926110b8575b5050600019600383901b1c191690841b1785555b01920192019190610f19565b015190503880611098565b85905260208b2091908b5b601f1985168110611118575083602093600196938796938794601f198116106110ff575b505050811b0185556110ac565b015160001960f88460031b161c191690553880806110f2565b919260206001819286850151815501940192016110ce565b634e487b7160e01b8a52604160045260248afd5b90915092919215611157575b5090610f81565b8082526007602052600160ff600b60408520015460081c161515036113005780825260076020526040822092825b82600161119183611c09565b500154146111ed578260016111a583611c09565b500154146111d3575b60001981146111bf57600101611185565b634e487b7160e01b84526011600452602484fd5b60026111de82611c09565b5001805460ff191690556111ae565b509192905060018060a01b03600c5416600382019060018060a01b03825416856006850192835490803b156112fc57604051632142170760e11b81523060048201526001600160a01b0394909416602485015260448401919091528290606490829084905af180156112f1576112b7575b50916080917fe9c6e81492bc93fe089982a07565c4a3a6e0c968c5c00b0cd69a8dac9bf37b4993600183549301549160018060a01b03905416905491604051938452602084015260408301526060820152a19038611150565b917fe9c6e81492bc93fe089982a07565c4a3a6e0c968c5c00b0cd69a8dac9bf37b499391956112e7608094611841565b959193509161125e565b6040513d88823e3d90fd5b8280fd5b60405162461bcd60e51b815260206004820152601d60248201527f54686973207065726d697373696f6e206469646e7420657869737473210000006044820152606490fd5b634e487b7160e01b87526041600452602487fd5b634e487b7160e01b86526011600452602486fd5b634e487b7160e01b86526041600452602486fd5b015190503880610d92565b600184527fb10e2d527612073b26eecdfd717e6a320cf44b4afac2b0732d9fcbe2b7fa0cf690601f198316855b8181106113f5575095836001959697106113dc575b505050811b01600155610da8565b015160001960f88460031b161c191690553880806113ce565b9192602060018192868b0151815501940192016113b9565b61145690600185527fb10e2d527612073b26eecdfd717e6a320cf44b4afac2b0732d9fcbe2b7fa0cf6601f840160051c8101916020851061145c575b601f0160051c019061195e565b38610d79565b9091508190611449565b634e487b7160e01b83526041600452602483fd5b8380fd5b60408336031261104d57604051604081018181106001600160401b038211176113455760405283356001600160a01b0381168103611049579181604093602093528286013583820152815201920191610cf8565b6040516335fdcccd60e21b8152336004820152602490fd5b503461010e57602036600319011261010e5760ff60406020926001600160401b0361151361182b565b168152600884522054166040519015158152f35b503461010e57602036600319011261010e576001600160a01b03611549611815565b166001600160601b0360a01b600254161760025580f35b503461010e57602036600319011261010e5761157a611815565b479081156115f1578280808085855af13d156115ec573d61159a8161188b565b906115a8604051928361186a565b81528460203d92013e5b156115bb578280f35b604051639d11f56360e01b81523360048201526001600160a01b039190911660248201526044810191909152606490fd5b6115b2565b604051630686827b60e51b8152600490fd5b503461010e57604036600319011261010e5761161d611815565b6001600160a01b0390602435828116919082900361147a576040516370a0823160e01b8152306004820152926020928385602481845afa9485156112f15786956116cf575b5084156115f157839286604492604051978895869463a9059cbb60e01b865216600485015260248401525af18015610b995761169c578280f35b81813d83116116c8575b6116b0818361186a565b81010312610640576116c190611a68565b5038808280f35b503d6116a6565b9094508381813d83116116f7575b6116e7818361186a565b81010312610b1e57519338611662565b503d6116dd565b503461010e57602036600319011261010e5760209060ff906040906001600160a01b03611729611815565b168152600984522054166040519015158152f35b503461010e578060031936011261010e57546117576119af565b9061177460405192839283526040602084015260408301906117f0565b0390f35b9050346106405760203660031901126106405760043563ffffffff60e01b81168091036112fc57602092506385572ffb60e01b81149081156117bc575b5015158152f35b6301ffc9a760e01b149050386117b5565b60005b8381106117e05750506000910152565b81810151838201526020016117d0565b90602091611809815180928185528580860191016117cd565b601f01601f1916010190565b600435906001600160a01b038216820361058757565b600435906001600160401b038216820361058757565b6001600160401b03811161185457604052565b634e487b7160e01b600052604160045260246000fd5b90601f801991011681019081106001600160401b0382111761185457604052565b6001600160401b03811161185457601f01601f191660200190565b81601f82011215610587578035906118bd8261188b565b926118cb604051948561186a565b8284526020838301011161058757816000926020809301838601378301015290565b909291926118fa8161188b565b91611908604051938461186a565b8294828452828201116105875760206119229301906117cd565b565b90600182811c92168015611954575b602083101461193e57565b634e487b7160e01b600052602260045260246000fd5b91607f1691611933565b818110611969575050565b6000815560010161195e565b9190601f811161198457505050565b611922926000526020600020906020601f840160051c8301931061145c57601f0160051c019061195e565b604051906000826001918254926119c584611924565b80845293818116908115611a4657506001146119e9575b506119229250038361186a565b600081815291507fb10e2d527612073b26eecdfd717e6a320cf44b4afac2b0732d9fcbe2b7fa0cf65b848310611a2b57506119229350508101602001386119dc565b81935090816020925483858a01015201910190918592611a12565b90506020925061192294915060ff191682840152151560051b820101386119dc565b5190811515820361058757565b600160401b821161185457805491808255828110611a9257505050565b600091825260209081832093840193015b838110611ab05750505050565b8083611abe60019354611924565b80611acc575b505001611aa3565b601f8082118514611ae357505081555b8338611ac4565b611afc90848452868420920160051c820185830161195e565b81835555611adc565b15611b0c57565b60405162461bcd60e51b815260206004820152601e60248201527f54686973207065726d697373696f6e206469646e2774206578697374732100006044820152606490fd5b9081602091031261058757516001600160a01b03811681036105875790565b8183526020600583901b84018101939192906000818401855b848310611b9a575050505050505090565b90919293949596601f19808883030184528835601e198436030181121561058757830186810190356001600160401b03811161058757803603821361058757838893601f83808796879660019a5286860137600085828601015201160101990193019301919594939290611b89565b600654811015611c44576003906006600052027ff652222313e28459528d920b65115c16c04f3efc82aaedc97be59f3f377c0d3f0190600090565b634e487b7160e01b600052603260045260246000fdfea2646970667358221220e58d55a14bde75421ec57699e8b4a3fae48abf6e7b1da20ac91cf55afa7558a664736f6c63430008140033","opcodes":"PUSH1 0xA0 CALLVALUE PUSH3 0xE0 JUMPI PUSH1 0x1F PUSH3 0x1DA1 CODESIZE DUP2 SWAP1 SUB SWAP2 DUP3 ADD PUSH1 0x1F NOT AND DUP4 ADD SWAP2 PUSH1 0x1 PUSH1 0x1 PUSH1 0x40 SHL SUB DUP4 GT DUP5 DUP5 LT OR PUSH3 0xE5 JUMPI DUP1 DUP5 SWAP3 PUSH1 0x40 SWAP5 DUP6 MSTORE DUP4 CODECOPY DUP2 ADD SUB SLT PUSH3 0xE0 JUMPI PUSH1 0x20 DUP2 PUSH3 0x53 PUSH3 0x5B SWAP4 PUSH3 0xFB JUMP JUMPDEST POP ADD PUSH3 0xFB JUMP JUMPDEST PUSH1 0x1 PUSH1 0x1 PUSH1 0xA0 SHL SUB DUP2 AND ISZERO PUSH3 0xC7 JUMPI PUSH1 0x80 MSTORE PUSH20 0x5FA769922A6428758FB44453815E2C436C57C3C7 PUSH1 0x1 DUP1 PUSH1 0xA0 SHL SUB NOT DUP2 DUP2 PUSH1 0xA SLOAD AND OR PUSH1 0xA SSTORE DUP2 DUP2 PUSH1 0xB SLOAD AND OR PUSH1 0xB SSTORE PUSH1 0xC SLOAD AND OR PUSH1 0xC SSTORE PUSH1 0x40 MLOAD PUSH2 0x1C90 SWAP1 DUP2 PUSH3 0x111 DUP3 CODECOPY PUSH1 0x80 MLOAD DUP2 DUP2 DUP2 PUSH2 0x28D ADD MSTORE PUSH2 0xBD8 ADD MSTORE RETURN JUMPDEST PUSH1 0x40 MLOAD PUSH4 0x35FDCCCD PUSH1 0xE2 SHL DUP2 MSTORE PUSH1 0x0 PUSH1 0x4 DUP3 ADD MSTORE PUSH1 0x24 SWAP1 REVERT JUMPDEST PUSH1 0x0 DUP1 REVERT JUMPDEST PUSH4 0x4E487B71 PUSH1 0xE0 SHL PUSH1 0x0 MSTORE PUSH1 0x41 PUSH1 0x4 MSTORE PUSH1 0x24 PUSH1 0x0 REVERT JUMPDEST MLOAD SWAP1 PUSH1 0x1 PUSH1 0x1 PUSH1 0xA0 SHL SUB DUP3 AND DUP3 SUB PUSH3 0xE0 JUMPI JUMP INVALID PUSH1 0x80 DUP1 PUSH1 0x40 MSTORE PUSH1 0x4 CALLDATASIZE LT ISZERO PUSH2 0x1D JUMPI JUMPDEST POP CALLDATASIZE ISZERO PUSH2 0x1B JUMPI PUSH1 0x0 DUP1 REVERT JUMPDEST STOP JUMPDEST PUSH1 0x0 SWAP1 DUP2 CALLDATALOAD PUSH1 0xE0 SHR SWAP1 DUP2 PUSH4 0x1FFC9A7 EQ PUSH2 0x1778 JUMPI POP DUP1 PUSH4 0x263596A5 EQ PUSH2 0x173D JUMPI DUP1 PUSH4 0x272EFC69 EQ PUSH2 0x16FE JUMPI DUP1 PUSH4 0x3AEAC4E1 EQ PUSH2 0x1603 JUMPI DUP1 PUSH4 0x51CFF8D9 EQ PUSH2 0x1560 JUMPI DUP1 PUSH4 0x69D83ED1 EQ PUSH2 0x1527 JUMPI DUP1 PUSH4 0x7DC91A02 EQ PUSH2 0x14EA JUMPI DUP1 PUSH4 0x85572FFB EQ PUSH2 0xBA4 JUMPI DUP1 PUSH4 0x92365CE4 EQ PUSH2 0x743 JUMPI DUP1 PUSH4 0x95871C8F EQ PUSH2 0x2BC JUMPI DUP1 PUSH4 0xB0F479A1 EQ PUSH2 0x277 JUMPI DUP1 PUSH4 0xB2F87643 EQ PUSH2 0x23E JUMPI DUP1 PUSH4 0xB697F531 EQ PUSH2 0x202 JUMPI DUP1 PUSH4 0xC5EC1C7A EQ PUSH2 0x1C6 JUMPI DUP1 PUSH4 0xE9982C39 EQ PUSH2 0x111 JUMPI PUSH4 0xFF46ED53 SUB PUSH2 0xF JUMPI CALLVALUE PUSH2 0x10E JUMPI PUSH1 0x20 CALLDATASIZE PUSH1 0x3 NOT ADD SLT PUSH2 0x10E JUMPI PUSH1 0x1 PUSH1 0x1 PUSH1 0x40 SHL SUB PUSH2 0xF7 PUSH2 0x182B JUMP JUMPDEST AND DUP2 MSTORE PUSH1 0x8 PUSH1 0x20 MSTORE PUSH1 0x40 DUP2 KECCAK256 DUP1 SLOAD PUSH1 0xFF NOT AND SWAP1 SSTORE DUP1 RETURN JUMPDEST DUP1 REVERT JUMPDEST POP CALLVALUE PUSH2 0x10E JUMPI PUSH1 0x20 CALLDATASIZE PUSH1 0x3 NOT ADD SLT PUSH2 0x10E JUMPI PUSH1 0x40 PUSH2 0x180 SWAP2 PUSH1 0x4 CALLDATALOAD DUP2 MSTORE PUSH1 0x7 PUSH1 0x20 MSTORE KECCAK256 PUSH1 0xFF DUP2 SLOAD SWAP2 PUSH1 0x1 DUP2 ADD SLOAD SWAP1 PUSH1 0x2 DUP2 ADD SLOAD PUSH1 0x1 DUP1 PUSH1 0xA0 SHL SUB PUSH1 0x3 DUP4 ADD SLOAD AND PUSH1 0x4 DUP4 ADD SLOAD PUSH1 0x5 DUP5 ADD SLOAD PUSH1 0x6 DUP6 ADD SLOAD SWAP2 PUSH1 0x8 DUP7 ADD SLOAD SWAP4 PUSH1 0x9 DUP8 ADD SLOAD SWAP6 PUSH1 0xB PUSH1 0xA DUP10 ADD SLOAD SWAP9 ADD SLOAD SWAP9 PUSH1 0x40 MLOAD SWAP12 DUP13 MSTORE PUSH1 0x20 DUP13 ADD MSTORE PUSH1 0x40 DUP12 ADD MSTORE PUSH1 0x60 DUP11 ADD MSTORE PUSH1 0x80 DUP10 ADD MSTORE PUSH1 0xA0 DUP9 ADD MSTORE PUSH1 0xC0 DUP8 ADD MSTORE PUSH1 0xE0 DUP7 ADD MSTORE PUSH2 0x100 DUP6 ADD MSTORE PUSH2 0x120 DUP5 ADD MSTORE DUP2 DUP2 AND ISZERO ISZERO PUSH2 0x140 DUP5 ADD MSTORE PUSH1 0x8 SHR AND ISZERO ISZERO PUSH2 0x160 DUP3 ADD MSTORE RETURN JUMPDEST POP CALLVALUE PUSH2 0x10E JUMPI PUSH1 0x20 CALLDATASIZE PUSH1 0x3 NOT ADD SLT PUSH2 0x10E JUMPI PUSH1 0x1 PUSH1 0x1 PUSH1 0x40 SHL SUB PUSH2 0x1E8 PUSH2 0x182B JUMP JUMPDEST AND DUP2 MSTORE PUSH1 0x8 PUSH1 0x20 MSTORE PUSH1 0x40 DUP2 KECCAK256 DUP1 SLOAD PUSH1 0xFF NOT AND PUSH1 0x1 OR SWAP1 SSTORE DUP1 RETURN JUMPDEST POP CALLVALUE PUSH2 0x10E JUMPI PUSH1 0x20 CALLDATASIZE PUSH1 0x3 NOT ADD SLT PUSH2 0x10E JUMPI PUSH1 0x1 PUSH1 0x1 PUSH1 0xA0 SHL SUB PUSH2 0x224 PUSH2 0x1815 JUMP JUMPDEST AND DUP2 MSTORE PUSH1 0x9 PUSH1 0x20 MSTORE PUSH1 0x40 DUP2 KECCAK256 DUP1 SLOAD PUSH1 0xFF NOT AND PUSH1 0x1 OR SWAP1 SSTORE DUP1 RETURN JUMPDEST POP CALLVALUE PUSH2 0x10E JUMPI PUSH1 0x20 CALLDATASIZE PUSH1 0x3 NOT ADD SLT PUSH2 0x10E JUMPI PUSH1 0x1 PUSH1 0x1 PUSH1 0xA0 SHL SUB PUSH2 0x260 PUSH2 0x1815 JUMP JUMPDEST AND DUP2 MSTORE PUSH1 0x9 PUSH1 0x20 MSTORE PUSH1 0x40 DUP2 KECCAK256 DUP1 SLOAD PUSH1 0xFF NOT AND SWAP1 SSTORE DUP1 RETURN JUMPDEST POP CALLVALUE PUSH2 0x10E JUMPI DUP1 PUSH1 0x3 NOT CALLDATASIZE ADD SLT PUSH2 0x10E JUMPI PUSH1 0x40 MLOAD PUSH32 0x0 PUSH1 0x1 PUSH1 0x1 PUSH1 0xA0 SHL SUB AND DUP2 MSTORE PUSH1 0x20 SWAP1 RETURN JUMPDEST POP CALLVALUE PUSH2 0x10E JUMPI PUSH1 0x80 CALLDATASIZE PUSH1 0x3 NOT ADD SLT PUSH2 0x10E JUMPI PUSH1 0x4 CALLDATALOAD PUSH1 0x44 CALLDATALOAD SWAP1 PUSH1 0x64 CALLDATALOAD SWAP1 PUSH1 0x40 MLOAD SWAP2 PUSH1 0x20 DUP1 DUP5 ADD PUSH1 0x24 SWAP5 PUSH2 0x314 DUP2 PUSH2 0x306 DUP10 DUP10 CALLDATALOAD DUP10 DUP8 SWAP2 PUSH1 0x60 SWAP4 SWAP2 DUP4 MSTORE PUSH1 0x20 DUP4 ADD MSTORE PUSH1 0x40 DUP3 ADD MSTORE ADD SWAP1 JUMP JUMPDEST SUB PUSH1 0x1F NOT DUP2 ADD DUP4 MSTORE DUP3 PUSH2 0x186A JUMP JUMPDEST MLOAD SWAP1 KECCAK256 DUP1 DUP8 MSTORE PUSH1 0x7 DUP3 MSTORE PUSH1 0x40 DUP8 KECCAK256 SWAP1 PUSH2 0x33B PUSH1 0x1 PUSH1 0xFF PUSH1 0xB DUP6 ADD SLOAD PUSH1 0x8 SHR AND ISZERO ISZERO EQ PUSH2 0x1B05 JUMP JUMPDEST PUSH1 0xB SLOAD PUSH1 0x8 DUP4 ADD SLOAD PUSH1 0x40 DUP1 MLOAD PUSH4 0x64B975DB PUSH1 0xE1 SHL DUP2 MSTORE PUSH1 0x4 DUP2 ADD SWAP3 SWAP1 SWAP3 MSTORE PUSH1 0x1 PUSH1 0x1 PUSH1 0xA0 SHL SUB SWAP5 SWAP2 SWAP3 DUP4 SWAP1 DUP11 SWAP1 DUP3 SWAP1 DUP9 AND GAS STATICCALL SWAP1 DUP2 ISZERO PUSH2 0x738 JUMPI DUP11 SWAP3 DUP12 SWAP3 PUSH2 0x6FA JUMPI JUMPDEST POP PUSH1 0x4 DUP2 ADD SLOAD DUP4 LT SWAP3 DUP4 PUSH2 0x6BF JUMPI PUSH1 0x5 DUP3 ADD SSTORE PUSH1 0xA ADD SSTORE PUSH2 0x644 JUMPI DUP8 DUP3 PUSH1 0xC SLOAD AND DUP1 EXTCODESIZE ISZERO PUSH2 0x640 JUMPI PUSH1 0x40 MLOAD PUSH4 0x23B872DD PUSH1 0xE0 SHL DUP2 MSTORE CALLER PUSH1 0x4 DUP3 ADD MSTORE ADDRESS PUSH1 0x24 DUP3 ADD MSTORE PUSH1 0x44 DUP2 ADD DUP8 SWAP1 MSTORE SWAP1 DUP3 SWAP1 DUP3 SWAP1 PUSH1 0x64 SWAP1 DUP3 SWAP1 DUP5 SWAP1 GAS CALL DUP1 ISZERO PUSH2 0x635 JUMPI PUSH2 0x61D JUMPI JUMPDEST POP POP DUP6 DUP4 DUP4 PUSH1 0xC SLOAD AND PUSH1 0x40 MLOAD SWAP9 DUP10 DUP1 SWAP3 PUSH4 0x31A9108F PUSH1 0xE1 SHL DUP3 MSTORE DUP10 PUSH1 0x4 DUP4 ADD MSTORE GAS STATICCALL SWAP7 DUP8 ISZERO PUSH2 0x594 JUMPI DUP10 SWAP8 PUSH2 0x5EE JUMPI JUMPDEST POP PUSH1 0x40 MLOAD PUSH1 0x1 PUSH1 0x1 PUSH1 0x40 SHL SUB SWAP2 SWAP1 PUSH1 0x60 DUP2 ADD DUP4 DUP2 GT DUP3 DUP3 LT OR PUSH2 0x5D9 JUMPI PUSH1 0x40 MSTORE DUP7 DUP2 MSTORE DUP6 DUP2 ADD DUP5 DUP2 MSTORE PUSH1 0x40 DUP3 ADD SWAP1 PUSH1 0x1 DUP3 MSTORE PUSH1 0x6 SLOAD PUSH1 0x1 PUSH1 0x40 SHL DUP2 LT ISZERO PUSH2 0x5C6 JUMPI DUP1 PUSH1 0x1 PUSH2 0x460 SWAP3 ADD PUSH1 0x6 SSTORE PUSH2 0x1C09 JUMP JUMPDEST SWAP4 SWAP1 SWAP4 PUSH2 0x5B3 JUMPI SWAP2 PUSH1 0x2 SWAP2 PUSH2 0x48F SWAP5 SWAP4 MLOAD DUP5 SSTORE MLOAD PUSH1 0x1 DUP5 ADD SSTORE MLOAD ISZERO ISZERO SWAP2 ADD SWAP1 PUSH1 0xFF DUP1 NOT DUP4 SLOAD AND SWAP2 ISZERO ISZERO AND OR SWAP1 SSTORE JUMP JUMPDEST DUP4 PUSH1 0xC SLOAD AND PUSH1 0x40 MLOAD SWAP4 DUP7 DUP6 ADD MSTORE PUSH1 0x40 DUP5 ADD MSTORE DUP6 PUSH1 0x60 DUP5 ADD MSTORE PUSH1 0x60 DUP4 MSTORE PUSH1 0x80 DUP4 ADD SWAP2 DUP4 DUP4 LT SWAP1 DUP4 GT OR PUSH2 0x59F JUMPI POP DUP1 PUSH1 0x40 MSTORE DUP4 DUP2 DUP5 PUSH1 0xA SLOAD AND DUP6 PUSH1 0x2 SLOAD AND PUSH4 0xA30E377 PUSH1 0xE4 SHL DUP4 MSTORE PUSH8 0xADECC60412CE25A5 PUSH1 0x84 DUP8 ADD MSTORE PUSH1 0xA4 DUP7 ADD MSTORE PUSH1 0x60 PUSH1 0xC4 DUP7 ADD MSTORE DUP2 DUP13 PUSH1 0x7F NOT DUP8 PUSH2 0x503 PUSH1 0xE4 DUP3 ADD DUP3 PUSH2 0x17F0 JUMP JUMPDEST SUB ADD SWAP3 GAS CALL DUP1 ISZERO PUSH2 0x594 JUMPI PUSH2 0x556 JUMPI JUMPDEST POP POP SWAP2 PUSH1 0x80 SWAP5 SWAP4 SWAP2 PUSH32 0x93BFFD1BDE7AFE8C47A27012597F0DC2C5CCEA5FC1323D424E13C21065D594E8 SWAP7 SWAP4 PUSH1 0x40 MLOAD SWAP6 AND DUP6 MSTORE DUP5 ADD MSTORE PUSH1 0x40 DUP4 ADD MSTORE PUSH1 0x60 DUP3 ADD MSTORE LOG1 DUP1 RETURN JUMPDEST SWAP1 DUP4 SWAP8 SWAP5 SWAP3 SWAP7 SWAP6 SWAP4 SWAP2 DUP3 SWAP1 RETURNDATASIZE DUP5 GT PUSH2 0x58C JUMPI JUMPDEST DUP2 PUSH2 0x573 SWAP2 PUSH2 0x186A JUMP JUMPDEST DUP2 ADD SUB SLT PUSH2 0x587 JUMPI SWAP2 SWAP5 SWAP1 SWAP3 SWAP4 CODESIZE DUP1 PUSH2 0x513 JUMP JUMPDEST PUSH1 0x0 DUP1 REVERT JUMPDEST RETURNDATASIZE SWAP2 POP PUSH2 0x569 JUMP JUMPDEST PUSH1 0x40 MLOAD RETURNDATASIZE DUP12 DUP3 RETURNDATACOPY RETURNDATASIZE SWAP1 REVERT JUMPDEST PUSH4 0x4E487B71 PUSH1 0xE0 SHL PUSH1 0x0 SWAP1 DUP2 MSTORE PUSH1 0x41 PUSH1 0x4 MSTORE REVERT JUMPDEST PUSH4 0x4E487B71 PUSH1 0xE0 SHL DUP15 MSTORE PUSH1 0x4 DUP15 SWAP1 MSTORE DUP5 DUP15 REVERT JUMPDEST PUSH4 0x4E487B71 PUSH1 0xE0 SHL DUP15 MSTORE PUSH1 0x41 PUSH1 0x4 MSTORE DUP5 DUP15 REVERT JUMPDEST DUP3 PUSH4 0x4E487B71 PUSH1 0xE0 SHL PUSH1 0x0 MSTORE PUSH1 0x41 PUSH1 0x4 MSTORE PUSH1 0x0 REVERT JUMPDEST PUSH2 0x60F SWAP2 SWAP8 POP DUP5 RETURNDATASIZE DUP7 GT PUSH2 0x616 JUMPI JUMPDEST PUSH2 0x607 DUP2 DUP4 PUSH2 0x186A JUMP JUMPDEST DUP2 ADD SWAP1 PUSH2 0x1B51 JUMP JUMPDEST SWAP6 CODESIZE PUSH2 0x40F JUMP JUMPDEST POP RETURNDATASIZE PUSH2 0x5FD JUMP JUMPDEST PUSH2 0x626 SWAP1 PUSH2 0x1841 JUMP JUMPDEST PUSH2 0x631 JUMPI DUP8 CODESIZE PUSH2 0x3DF JUMP JUMPDEST DUP8 DUP1 REVERT JUMPDEST PUSH1 0x40 MLOAD RETURNDATASIZE DUP5 DUP3 RETURNDATACOPY RETURNDATASIZE SWAP1 REVERT JUMPDEST POP DUP1 REVERT JUMPDEST PUSH1 0x40 MLOAD PUSH3 0x461BCD PUSH1 0xE5 SHL DUP2 MSTORE PUSH1 0x4 DUP2 ADD DUP5 SWAP1 MSTORE PUSH1 0x48 DUP2 DUP9 ADD MSTORE PUSH32 0x54686520656E737572616E6365206D7573742068617665206174206C65617374 PUSH1 0x44 DUP3 ADD MSTORE PUSH32 0x2031302074696D6573207468652076616C7565206F66207468652076616C7565 PUSH1 0x64 DUP3 ADD MSTORE PUSH8 0x206E656564656421 PUSH1 0xC0 SHL PUSH1 0x84 DUP3 ADD MSTORE PUSH1 0xA4 SWAP1 REVERT JUMPDEST SWAP7 SWAP8 POP POP POP POP POP POP PUSH32 0x90D31678EC129D3863BE095922EF7B97386BCCA9B61E15D2D53347CDDCEEB0A7 SWAP5 POP PUSH1 0x40 DUP1 SWAP5 POP MLOAD SWAP3 DUP4 MSTORE DUP3 ADD MSTORE LOG1 DUP1 RETURN JUMPDEST SWAP3 POP SWAP1 POP PUSH1 0x40 DUP3 RETURNDATASIZE PUSH1 0x40 GT PUSH2 0x730 JUMPI JUMPDEST DUP2 PUSH2 0x717 PUSH1 0x40 SWAP4 DUP4 PUSH2 0x186A JUMP JUMPDEST DUP2 ADD SUB SLT PUSH2 0x72C JUMPI DUP5 DUP3 MLOAD SWAP3 ADD MLOAD SWAP1 CODESIZE PUSH2 0x37E JUMP JUMPDEST DUP10 DUP1 REVERT JUMPDEST RETURNDATASIZE SWAP2 POP PUSH2 0x70A JUMP JUMPDEST PUSH1 0x40 MLOAD RETURNDATASIZE DUP13 DUP3 RETURNDATACOPY RETURNDATASIZE SWAP1 REVERT JUMPDEST POP CALLVALUE PUSH2 0x10E JUMPI PUSH1 0xA0 CALLDATASIZE PUSH1 0x3 NOT ADD SLT PUSH2 0x10E JUMPI PUSH1 0x1 PUSH1 0x1 PUSH1 0x40 SHL SUB PUSH1 0x84 CALLDATALOAD GT PUSH2 0x10E JUMPI CALLDATASIZE PUSH1 0x23 PUSH1 0x84 CALLDATALOAD ADD SLT ISZERO PUSH2 0x10E JUMPI PUSH1 0x1 PUSH1 0x1 PUSH1 0x40 SHL SUB PUSH1 0x84 CALLDATALOAD PUSH1 0x4 ADD CALLDATALOAD GT PUSH2 0x10E JUMPI CALLDATASIZE PUSH1 0x24 PUSH1 0x84 CALLDATALOAD PUSH1 0x4 ADD CALLDATALOAD PUSH1 0x5 SHL PUSH1 0x84 CALLDATALOAD ADD ADD GT PUSH2 0x10E JUMPI PUSH1 0x40 MLOAD PUSH1 0x20 DUP2 ADD SWAP1 PUSH2 0x7CB DUP2 PUSH2 0x306 PUSH1 0x44 CALLDATALOAD PUSH1 0x24 CALLDATALOAD PUSH1 0x4 CALLDATALOAD DUP8 SWAP2 PUSH1 0x60 SWAP4 SWAP2 DUP4 MSTORE PUSH1 0x20 DUP4 ADD MSTORE PUSH1 0x40 DUP3 ADD MSTORE ADD SWAP1 JUMP JUMPDEST MLOAD SWAP1 KECCAK256 DUP1 DUP3 MSTORE PUSH1 0x7 PUSH1 0x20 MSTORE PUSH2 0x7F1 PUSH1 0x1 PUSH1 0xFF PUSH1 0xB PUSH1 0x40 DUP7 KECCAK256 ADD SLOAD PUSH1 0x8 SHR AND ISZERO ISZERO EQ PUSH2 0x1B05 JUMP JUMPDEST PUSH1 0xC SLOAD PUSH1 0x40 MLOAD PUSH4 0x31A9108F PUSH1 0xE1 SHL DUP2 MSTORE PUSH1 0x64 CALLDATALOAD PUSH1 0x4 DUP3 ADD MSTORE SWAP1 PUSH1 0x20 SWAP1 DUP3 SWAP1 PUSH1 0x24 SWAP1 DUP3 SWAP1 PUSH1 0x1 PUSH1 0x1 PUSH1 0xA0 SHL SUB AND GAS STATICCALL SWAP1 DUP2 ISZERO PUSH2 0xB99 JUMPI DUP4 SWAP2 PUSH2 0xB7A JUMPI JUMPDEST POP PUSH1 0x1 PUSH1 0x1 PUSH1 0xA0 SHL SUB AND CALLER SUB PUSH2 0xB22 JUMPI DUP2 MSTORE PUSH1 0x7 PUSH1 0x20 MSTORE PUSH1 0x40 DUP2 KECCAK256 PUSH1 0x4 CALLDATALOAD DUP2 SSTORE PUSH1 0x24 CALLDATALOAD PUSH1 0x2 DUP3 ADD SSTORE PUSH1 0x44 CALLDATALOAD PUSH1 0x1 DUP3 ADD SSTORE PUSH1 0x3 DUP2 ADD CALLER PUSH1 0x1 PUSH1 0x1 PUSH1 0x60 SHL SUB PUSH1 0xA0 SHL DUP3 SLOAD AND OR SWAP1 SSTORE PUSH1 0x64 CALLDATALOAD PUSH1 0x6 DUP3 ADD SSTORE PUSH2 0x88E PUSH1 0x84 CALLDATALOAD PUSH1 0x4 ADD CALLDATALOAD PUSH1 0x7 DUP4 ADD PUSH2 0x1A75 JUMP JUMPDEST PUSH1 0x24 PUSH1 0x84 CALLDATALOAD ADD SWAP1 DUP2 PUSH1 0x7 DUP3 ADD DUP5 MSTORE PUSH1 0x20 DUP5 KECCAK256 DUP5 SWAP2 JUMPDEST PUSH1 0x84 CALLDATALOAD PUSH1 0x4 ADD CALLDATALOAD DUP4 LT PUSH2 0x9B6 JUMPI POP POP POP PUSH1 0x1 DUP1 PUSH1 0xA0 SHL SUB PUSH1 0xB SLOAD AND SWAP1 PUSH1 0x20 PUSH1 0x40 MLOAD DUP1 SWAP4 PUSH4 0x4C8F60A3 PUSH1 0xE0 SHL DUP3 MSTORE DUP3 PUSH1 0x4 DUP4 ADD MSTORE DUP2 DUP8 DUP2 PUSH2 0x8ED PUSH1 0x24 DUP3 ADD PUSH1 0x84 CALLDATALOAD PUSH1 0x4 ADD CALLDATALOAD DUP12 PUSH2 0x1B70 JUMP JUMPDEST SUB SWAP3 GAS CALL SWAP2 DUP3 ISZERO PUSH2 0x9AB JUMPI DUP5 SWAP3 PUSH2 0x955 JUMPI JUMPDEST POP SWAP2 PUSH2 0x94F SWAP2 PUSH1 0x8 PUSH32 0xCC6833FD9787745C083EDFCC3AE70E4CD35AB78CF84F127388A790FD6ED17FBB SWAP5 ADD SSTORE PUSH1 0x40 MLOAD SWAP2 DUP3 SWAP2 PUSH1 0x64 CALLDATALOAD DUP4 MSTORE PUSH1 0x40 PUSH1 0x20 DUP5 ADD MSTORE PUSH1 0x40 DUP4 ADD SWAP1 PUSH1 0x84 CALLDATALOAD PUSH1 0x4 ADD CALLDATALOAD SWAP1 PUSH2 0x1B70 JUMP JUMPDEST SUB SWAP1 LOG1 DUP1 RETURN JUMPDEST SWAP2 POP SWAP2 PUSH1 0x20 DUP3 RETURNDATASIZE PUSH1 0x20 GT PUSH2 0x9A3 JUMPI JUMPDEST DUP2 PUSH2 0x971 PUSH1 0x20 SWAP4 DUP4 PUSH2 0x186A JUMP JUMPDEST DUP2 ADD SUB SLT PUSH2 0x587 JUMPI SWAP1 MLOAD SWAP1 SWAP2 PUSH32 0xCC6833FD9787745C083EDFCC3AE70E4CD35AB78CF84F127388A790FD6ED17FBB PUSH2 0x8FF JUMP JUMPDEST RETURNDATASIZE SWAP2 POP PUSH2 0x964 JUMP JUMPDEST PUSH1 0x40 MLOAD RETURNDATASIZE DUP7 DUP3 RETURNDATACOPY RETURNDATASIZE SWAP1 REVERT JUMPDEST PUSH1 0x84 CALLDATALOAD CALLDATASIZE SUB PUSH1 0x42 NOT ADD DUP2 CALLDATALOAD SLT ISZERO PUSH2 0xB1E JUMPI PUSH1 0x1 PUSH1 0x1 PUSH1 0x40 SHL SUB PUSH1 0x24 DUP3 CALLDATALOAD PUSH1 0x84 CALLDATALOAD ADD ADD CALLDATALOAD GT PUSH2 0xB1E JUMPI PUSH1 0x84 CALLDATALOAD DUP2 CALLDATALOAD ADD PUSH1 0x24 DUP2 ADD CALLDATALOAD CALLDATASIZE SUB PUSH1 0x44 SWAP1 SWAP2 ADD SGT PUSH2 0xB1E JUMPI PUSH2 0xA12 PUSH1 0x24 DUP3 CALLDATALOAD PUSH1 0x84 CALLDATALOAD ADD ADD CALLDATALOAD PUSH2 0xA0C DUP5 SLOAD PUSH2 0x1924 JUMP JUMPDEST DUP5 PUSH2 0x1975 JUMP JUMPDEST DUP6 PUSH1 0x1F PUSH1 0x24 DUP4 CALLDATALOAD PUSH1 0x84 CALLDATALOAD ADD ADD CALLDATALOAD GT PUSH1 0x1 EQ PUSH2 0xA80 JUMPI PUSH1 0x20 PUSH1 0x1 SWAP3 DUP4 SWAP3 DUP10 SWAP1 PUSH1 0x24 DUP4 CALLDATALOAD PUSH1 0x84 CALLDATALOAD ADD ADD CALLDATALOAD PUSH2 0xA6D JUMPI JUMPDEST POP PUSH1 0x0 NOT PUSH1 0x84 CALLDATALOAD DUP4 CALLDATALOAD ADD PUSH1 0x24 ADD CALLDATALOAD PUSH1 0x3 DUP2 SWAP1 SHL SWAP2 SWAP1 SWAP2 SHR NOT SWAP1 SWAP2 AND SWAP1 DUP5 SHL OR DUP6 SSTORE JUMPDEST ADD SWAP3 ADD SWAP3 ADD SWAP2 SWAP1 PUSH2 0x8A3 JUMP JUMPDEST PUSH1 0x44 SWAP2 POP DUP3 CALLDATALOAD PUSH1 0x84 CALLDATALOAD ADD ADD ADD CALLDATALOAD CODESIZE PUSH2 0xA3F JUMP JUMPDEST DUP3 DUP8 MSTORE PUSH1 0x20 DUP8 KECCAK256 SWAP1 DUP8 JUMPDEST PUSH1 0x84 CALLDATALOAD DUP5 CALLDATALOAD ADD PUSH1 0x24 ADD CALLDATALOAD PUSH1 0x1F NOT AND DUP2 LT PUSH2 0xAFE JUMPI POP PUSH1 0x1 SWAP3 DUP4 SWAP3 PUSH1 0x20 SWAP3 PUSH1 0x84 CALLDATALOAD DUP4 CALLDATALOAD ADD PUSH1 0x24 ADD CALLDATALOAD PUSH1 0x1F NOT DUP2 AND LT PUSH2 0xAD3 JUMPI JUMPDEST POP POP DUP3 PUSH1 0x24 DUP3 CALLDATALOAD PUSH1 0x84 CALLDATALOAD ADD ADD CALLDATALOAD DUP2 SHL ADD DUP6 SSTORE PUSH2 0xA61 JUMP JUMPDEST PUSH1 0x44 PUSH1 0x0 NOT PUSH1 0xF8 PUSH1 0x24 DUP7 CALLDATALOAD PUSH1 0x84 CALLDATALOAD ADD ADD CALLDATALOAD PUSH1 0x3 SHL AND SHR NOT SWAP2 DUP5 CALLDATALOAD PUSH1 0x84 CALLDATALOAD ADD ADD ADD CALLDATALOAD AND SWAP1 SSTORE CODESIZE DUP1 PUSH2 0xABC JUMP JUMPDEST SWAP1 SWAP2 PUSH1 0x20 PUSH1 0x1 DUP2 SWAP3 PUSH1 0x44 DUP7 DUP9 CALLDATALOAD PUSH1 0x84 CALLDATALOAD ADD ADD ADD CALLDATALOAD DUP2 SSTORE ADD SWAP4 ADD SWAP2 ADD PUSH2 0xA8A JUMP JUMPDEST DUP6 DUP1 REVERT JUMPDEST PUSH1 0x40 MLOAD PUSH3 0x461BCD PUSH1 0xE5 SHL DUP2 MSTORE PUSH1 0x20 PUSH1 0x4 DUP3 ADD MSTORE PUSH1 0x2A PUSH1 0x24 DUP3 ADD MSTORE PUSH32 0x596F75206D75737420626520746865206F776E6572206F662074686520696E66 PUSH1 0x44 DUP3 ADD MSTORE PUSH10 0x6F726D65642052574121 PUSH1 0xB0 SHL PUSH1 0x64 DUP3 ADD MSTORE PUSH1 0x84 SWAP1 REVERT JUMPDEST PUSH2 0xB93 SWAP2 POP PUSH1 0x20 RETURNDATASIZE PUSH1 0x20 GT PUSH2 0x616 JUMPI PUSH2 0x607 DUP2 DUP4 PUSH2 0x186A JUMP JUMPDEST CODESIZE PUSH2 0x82D JUMP JUMPDEST PUSH1 0x40 MLOAD RETURNDATASIZE DUP6 DUP3 RETURNDATACOPY RETURNDATASIZE SWAP1 REVERT JUMPDEST POP CALLVALUE PUSH2 0x10E JUMPI PUSH1 0x3 NOT SWAP1 PUSH1 0x20 CALLDATASIZE DUP4 ADD SLT PUSH2 0x10E JUMPI PUSH1 0x4 CALLDATALOAD SWAP2 PUSH1 0x1 PUSH1 0x1 PUSH1 0x40 SHL SUB DUP4 GT PUSH2 0x640 JUMPI PUSH1 0xA0 SWAP1 DUP4 CALLDATASIZE SUB ADD SLT PUSH2 0x10E JUMPI PUSH32 0x0 PUSH1 0x1 PUSH1 0x1 PUSH1 0xA0 SHL SUB AND CALLER SUB PUSH2 0x14D2 JUMPI PUSH1 0x40 MLOAD SWAP2 PUSH1 0xA0 DUP4 ADD DUP4 DUP2 LT PUSH1 0x1 PUSH1 0x1 PUSH1 0x40 SHL SUB DUP3 GT OR PUSH2 0x1466 JUMPI PUSH1 0x40 MSTORE DUP1 PUSH1 0x4 ADD CALLDATALOAD DUP4 MSTORE PUSH1 0x24 DUP2 ADD CALLDATALOAD PUSH1 0x1 PUSH1 0x1 PUSH1 0x40 SHL SUB DUP2 AND DUP2 SUB PUSH2 0x12FC JUMPI PUSH1 0x20 DUP5 ADD MSTORE PUSH1 0x44 DUP2 ADD CALLDATALOAD PUSH1 0x1 PUSH1 0x1 PUSH1 0x40 SHL SUB DUP2 GT PUSH2 0x12FC JUMPI PUSH2 0xC67 SWAP1 PUSH1 0x4 CALLDATASIZE SWAP2 DUP5 ADD ADD PUSH2 0x18A6 JUMP JUMPDEST PUSH1 0x40 DUP5 ADD MSTORE PUSH1 0x64 DUP2 ADD CALLDATALOAD PUSH1 0x1 PUSH1 0x1 PUSH1 0x40 SHL SUB DUP2 GT PUSH2 0x12FC JUMPI PUSH2 0xC8F SWAP1 PUSH1 0x4 CALLDATASIZE SWAP2 DUP5 ADD ADD PUSH2 0x18A6 JUMP JUMPDEST PUSH1 0x60 DUP5 ADD MSTORE PUSH1 0x84 DUP2 ADD CALLDATALOAD SWAP1 PUSH1 0x1 PUSH1 0x1 PUSH1 0x40 SHL SUB DUP3 GT PUSH2 0x12FC JUMPI ADD CALLDATASIZE PUSH1 0x23 DUP3 ADD SLT ISZERO PUSH2 0x640 JUMPI PUSH1 0x4 DUP2 ADD CALLDATALOAD PUSH1 0x1 PUSH1 0x1 PUSH1 0x40 SHL SUB DUP2 GT PUSH2 0x1466 JUMPI PUSH1 0x40 MLOAD SWAP2 PUSH2 0xCDB PUSH1 0x20 DUP4 PUSH1 0x5 SHL ADD DUP5 PUSH2 0x186A JUMP JUMPDEST DUP2 DUP4 MSTORE PUSH1 0x24 PUSH1 0x20 DUP5 ADD SWAP3 PUSH1 0x6 SHL DUP3 ADD ADD SWAP1 CALLDATASIZE DUP3 GT PUSH2 0x104D JUMPI PUSH1 0x24 ADD SWAP2 JUMPDEST DUP2 DUP4 LT PUSH2 0x147E JUMPI POP POP POP PUSH1 0x80 DUP4 ADD MSTORE DUP2 MLOAD DUP2 SSTORE PUSH1 0x60 DUP3 ADD MLOAD DUP1 MLOAD DUP2 ADD SWAP1 PUSH1 0x20 DUP2 DUP2 DUP5 ADD SWAP4 SUB SLT PUSH2 0x12FC JUMPI PUSH1 0x20 DUP2 ADD MLOAD SWAP1 PUSH1 0x1 PUSH1 0x1 PUSH1 0x40 SHL SUB DUP3 GT PUSH2 0x147A JUMPI ADD DUP2 PUSH1 0x3F DUP3 ADD SLT ISZERO PUSH2 0x12FC JUMPI PUSH1 0x20 DUP2 ADD MLOAD PUSH2 0xD54 SWAP3 SWAP2 PUSH1 0x40 ADD PUSH2 0x18ED JUMP JUMPDEST SWAP2 DUP3 MLOAD PUSH1 0x1 PUSH1 0x1 PUSH1 0x40 SHL SUB DUP2 GT PUSH2 0x1466 JUMPI PUSH2 0xD70 PUSH1 0x1 SLOAD PUSH2 0x1924 JUMP JUMPDEST PUSH1 0x1F DUP2 GT PUSH2 0x140D JUMPI JUMPDEST POP PUSH1 0x20 PUSH1 0x1F DUP3 GT PUSH1 0x1 EQ PUSH2 0x138C JUMPI DUP4 SWAP5 DUP3 SWAP4 SWAP5 SWAP3 PUSH2 0x1381 JUMPI JUMPDEST POP POP DUP2 PUSH1 0x1 SHL SWAP2 PUSH1 0x0 NOT SWAP1 PUSH1 0x3 SHL SHR NOT AND OR PUSH1 0x1 SSTORE JUMPDEST PUSH2 0xDB0 PUSH2 0x19AF JUMP JUMPDEST PUSH1 0x60 DUP2 DUP1 MLOAD DUP2 ADD SUB SLT PUSH2 0x12FC JUMPI PUSH1 0x20 DUP2 ADD MLOAD PUSH2 0xDD3 PUSH1 0x60 PUSH1 0x40 DUP5 ADD MLOAD SWAP4 ADD PUSH2 0x1A68 JUMP JUMPDEST PUSH1 0x40 MLOAD DUP1 PUSH1 0x20 DUP2 ADD LT PUSH1 0x1 PUSH1 0x1 PUSH1 0x40 SHL SUB PUSH1 0x20 DUP4 ADD GT OR PUSH2 0x136D JUMPI PUSH1 0x20 DUP2 ADD PUSH1 0x40 MSTORE DUP6 DUP2 MSTORE DUP4 PUSH1 0x5 DUP2 MUL DIV PUSH1 0x5 EQ DUP5 ISZERO OR ISZERO PUSH2 0x1359 JUMPI PUSH1 0x40 MLOAD SWAP4 DUP5 PUSH2 0x1A0 DUP2 ADD LT PUSH1 0x1 PUSH1 0x1 PUSH1 0x40 SHL SUB PUSH2 0x1A0 DUP8 ADD GT OR PUSH2 0x1345 JUMPI PUSH1 0x5 SWAP1 PUSH2 0x1A0 DUP7 ADD PUSH1 0x40 MSTORE DUP8 DUP7 MSTORE DUP8 PUSH1 0x20 DUP8 ADD MSTORE DUP8 PUSH1 0x40 DUP8 ADD MSTORE DUP8 PUSH1 0x60 DUP8 ADD MSTORE MUL PUSH1 0x80 DUP6 ADD MSTORE DUP6 PUSH1 0xA0 DUP6 ADD MSTORE DUP6 PUSH1 0xC0 DUP6 ADD MSTORE PUSH1 0xE0 DUP5 ADD MSTORE DUP5 PUSH2 0x100 DUP5 ADD MSTORE DUP5 PUSH2 0x120 DUP5 ADD MSTORE DUP5 PUSH2 0x140 DUP5 ADD MSTORE DUP1 ISZERO ISZERO PUSH2 0x160 DUP5 ADD MSTORE PUSH1 0x1 PUSH2 0x180 DUP5 ADD MSTORE PUSH1 0x1 DUP2 ISZERO ISZERO EQ PUSH1 0x0 EQ PUSH2 0x1144 JUMPI POP DUP4 MSTORE PUSH1 0x7 PUSH1 0x20 MSTORE PUSH1 0x40 DUP4 KECCAK256 DUP2 MLOAD DUP2 SSTORE PUSH1 0x20 DUP3 ADD MLOAD PUSH1 0x1 DUP3 ADD SSTORE PUSH1 0x40 DUP3 ADD MLOAD PUSH1 0x2 DUP3 ADD SSTORE PUSH1 0x3 DUP2 ADD PUSH1 0x1 DUP1 PUSH1 0xA0 SHL SUB PUSH1 0x60 DUP5 ADD MLOAD AND PUSH1 0x1 PUSH1 0x1 PUSH1 0x60 SHL SUB PUSH1 0xA0 SHL DUP3 SLOAD AND OR SWAP1 SSTORE PUSH1 0x80 DUP3 ADD MLOAD PUSH1 0x4 DUP3 ADD SSTORE PUSH1 0xA0 DUP3 ADD MLOAD PUSH1 0x5 DUP3 ADD SSTORE PUSH1 0xC0 DUP3 ADD MLOAD PUSH1 0x6 DUP3 ADD SSTORE PUSH1 0x7 DUP2 ADD PUSH1 0xE0 DUP4 ADD MLOAD SWAP1 PUSH1 0x20 DUP3 MLOAD SWAP3 PUSH2 0xF0E DUP5 DUP5 PUSH2 0x1A75 JUMP JUMPDEST ADD SWAP1 DUP7 MSTORE PUSH1 0x20 DUP7 KECCAK256 DUP7 SWAP2 JUMPDEST DUP4 DUP4 LT PUSH2 0x1051 JUMPI POP POP POP POP PUSH1 0xB PUSH2 0x180 SWAP2 PUSH2 0x100 DUP5 ADD MLOAD PUSH1 0x8 DUP3 ADD SSTORE PUSH2 0x120 DUP5 ADD MLOAD PUSH1 0x9 DUP3 ADD SSTORE PUSH2 0x140 DUP5 ADD MLOAD PUSH1 0xA DUP3 ADD SSTORE ADD SWAP2 PUSH2 0xF6A PUSH2 0x160 DUP3 ADD MLOAD ISZERO ISZERO DUP5 SWAP1 PUSH1 0xFF DUP1 NOT DUP4 SLOAD AND SWAP2 ISZERO ISZERO AND OR SWAP1 SSTORE JUMP JUMPDEST ADD MLOAD DUP2 SLOAD PUSH2 0xFF00 NOT AND SWAP1 ISZERO ISZERO PUSH1 0x8 SHL PUSH2 0xFF00 AND OR SWAP1 SSTORE JUMPDEST DUP1 MLOAD PUSH1 0x1 PUSH1 0x1 PUSH1 0x40 SHL SUB PUSH1 0x20 DUP4 ADD MLOAD AND SWAP2 PUSH1 0x40 DUP2 ADD MLOAD PUSH1 0x20 DUP2 DUP1 MLOAD DUP2 ADD SUB SLT PUSH2 0x104D JUMPI PUSH1 0x20 ADD MLOAD PUSH1 0x1 PUSH1 0x1 PUSH1 0xA0 SHL SUB DUP2 AND SWAP2 SWAP1 DUP3 SWAP1 SUB PUSH2 0x104D JUMPI PUSH1 0x60 ADD MLOAD SWAP1 DUP2 MLOAD DUP3 ADD SWAP2 PUSH1 0x20 DUP2 DUP2 DUP6 ADD SWAP5 SUB SLT PUSH2 0xB1E JUMPI PUSH1 0x20 DUP2 ADD MLOAD SWAP1 PUSH1 0x1 PUSH1 0x1 PUSH1 0x40 SHL SUB DUP3 GT PUSH2 0x1049 JUMPI ADD DUP3 PUSH1 0x3F DUP3 ADD SLT ISZERO PUSH2 0xB1E JUMPI PUSH32 0xB1E312A29937CC11967B0E4A346FEF1AE132424EBABA9DC6D90249DBA053E87C SWAP3 DUP2 PUSH1 0x40 PUSH1 0x20 PUSH2 0x1026 SWAP5 ADD MLOAD SWAP2 ADD PUSH2 0x18ED JUMP JUMPDEST SWAP1 PUSH2 0x1043 PUSH1 0x40 MLOAD SWAP3 DUP4 SWAP3 DUP4 MSTORE PUSH1 0x40 PUSH1 0x20 DUP5 ADD MSTORE PUSH1 0x40 DUP4 ADD SWAP1 PUSH2 0x17F0 JUMP JUMPDEST SUB SWAP1 LOG3 DUP1 RETURN JUMPDEST DUP7 DUP1 REVERT JUMPDEST DUP5 DUP1 REVERT JUMPDEST DUP1 MLOAD DUP1 MLOAD SWAP1 PUSH1 0x1 PUSH1 0x1 PUSH1 0x40 SHL SUB DUP3 GT PUSH2 0x1130 JUMPI PUSH2 0x1078 DUP3 PUSH2 0x1072 DUP7 SLOAD PUSH2 0x1924 JUMP JUMPDEST DUP7 PUSH2 0x1975 JUMP JUMPDEST PUSH1 0x20 SWAP1 DUP11 PUSH1 0x1F DUP5 GT PUSH1 0x1 EQ PUSH2 0x10C3 JUMPI SWAP3 DUP1 PUSH1 0x20 SWAP4 PUSH1 0x1 SWAP7 SWAP4 DUP8 SWAP7 SWAP3 PUSH2 0x10B8 JUMPI JUMPDEST POP POP PUSH1 0x0 NOT PUSH1 0x3 DUP4 SWAP1 SHL SHR NOT AND SWAP1 DUP5 SHL OR DUP6 SSTORE JUMPDEST ADD SWAP3 ADD SWAP3 ADD SWAP2 SWAP1 PUSH2 0xF19 JUMP JUMPDEST ADD MLOAD SWAP1 POP CODESIZE DUP1 PUSH2 0x1098 JUMP JUMPDEST DUP6 SWAP1 MSTORE PUSH1 0x20 DUP12 KECCAK256 SWAP2 SWAP1 DUP12 JUMPDEST PUSH1 0x1F NOT DUP6 AND DUP2 LT PUSH2 0x1118 JUMPI POP DUP4 PUSH1 0x20 SWAP4 PUSH1 0x1 SWAP7 SWAP4 DUP8 SWAP7 SWAP4 DUP8 SWAP5 PUSH1 0x1F NOT DUP2 AND LT PUSH2 0x10FF JUMPI JUMPDEST POP POP POP DUP2 SHL ADD DUP6 SSTORE PUSH2 0x10AC JUMP JUMPDEST ADD MLOAD PUSH1 0x0 NOT PUSH1 0xF8 DUP5 PUSH1 0x3 SHL AND SHR NOT AND SWAP1 SSTORE CODESIZE DUP1 DUP1 PUSH2 0x10F2 JUMP JUMPDEST SWAP2 SWAP3 PUSH1 0x20 PUSH1 0x1 DUP2 SWAP3 DUP7 DUP6 ADD MLOAD DUP2 SSTORE ADD SWAP5 ADD SWAP3 ADD PUSH2 0x10CE JUMP JUMPDEST PUSH4 0x4E487B71 PUSH1 0xE0 SHL DUP11 MSTORE PUSH1 0x41 PUSH1 0x4 MSTORE PUSH1 0x24 DUP11 REVERT JUMPDEST SWAP1 SWAP2 POP SWAP3 SWAP2 SWAP3 ISZERO PUSH2 0x1157 JUMPI JUMPDEST POP SWAP1 PUSH2 0xF81 JUMP JUMPDEST DUP1 DUP3 MSTORE PUSH1 0x7 PUSH1 0x20 MSTORE PUSH1 0x1 PUSH1 0xFF PUSH1 0xB PUSH1 0x40 DUP6 KECCAK256 ADD SLOAD PUSH1 0x8 SHR AND ISZERO ISZERO SUB PUSH2 0x1300 JUMPI DUP1 DUP3 MSTORE PUSH1 0x7 PUSH1 0x20 MSTORE PUSH1 0x40 DUP3 KECCAK256 SWAP3 DUP3 JUMPDEST DUP3 PUSH1 0x1 PUSH2 0x1191 DUP4 PUSH2 0x1C09 JUMP JUMPDEST POP ADD SLOAD EQ PUSH2 0x11ED JUMPI DUP3 PUSH1 0x1 PUSH2 0x11A5 DUP4 PUSH2 0x1C09 JUMP JUMPDEST POP ADD SLOAD EQ PUSH2 0x11D3 JUMPI JUMPDEST PUSH1 0x0 NOT DUP2 EQ PUSH2 0x11BF JUMPI PUSH1 0x1 ADD PUSH2 0x1185 JUMP JUMPDEST PUSH4 0x4E487B71 PUSH1 0xE0 SHL DUP5 MSTORE PUSH1 0x11 PUSH1 0x4 MSTORE PUSH1 0x24 DUP5 REVERT JUMPDEST PUSH1 0x2 PUSH2 0x11DE DUP3 PUSH2 0x1C09 JUMP JUMPDEST POP ADD DUP1 SLOAD PUSH1 0xFF NOT AND SWAP1 SSTORE PUSH2 0x11AE JUMP JUMPDEST POP SWAP2 SWAP3 SWAP1 POP PUSH1 0x1 DUP1 PUSH1 0xA0 SHL SUB PUSH1 0xC SLOAD AND PUSH1 0x3 DUP3 ADD SWAP1 PUSH1 0x1 DUP1 PUSH1 0xA0 SHL SUB DUP3 SLOAD AND DUP6 PUSH1 0x6 DUP6 ADD SWAP3 DUP4 SLOAD SWAP1 DUP1 EXTCODESIZE ISZERO PUSH2 0x12FC JUMPI PUSH1 0x40 MLOAD PUSH4 0x21421707 PUSH1 0xE1 SHL DUP2 MSTORE ADDRESS PUSH1 0x4 DUP3 ADD MSTORE PUSH1 0x1 PUSH1 0x1 PUSH1 0xA0 SHL SUB SWAP5 SWAP1 SWAP5 AND PUSH1 0x24 DUP6 ADD MSTORE PUSH1 0x44 DUP5 ADD SWAP2 SWAP1 SWAP2 MSTORE DUP3 SWAP1 PUSH1 0x64 SWAP1 DUP3 SWAP1 DUP5 SWAP1 GAS CALL DUP1 ISZERO PUSH2 0x12F1 JUMPI PUSH2 0x12B7 JUMPI JUMPDEST POP SWAP2 PUSH1 0x80 SWAP2 PUSH32 0xE9C6E81492BC93FE089982A07565C4A3A6E0C968C5C00B0CD69A8DAC9BF37B49 SWAP4 PUSH1 0x1 DUP4 SLOAD SWAP4 ADD SLOAD SWAP2 PUSH1 0x1 DUP1 PUSH1 0xA0 SHL SUB SWAP1 SLOAD AND SWAP1 SLOAD SWAP2 PUSH1 0x40 MLOAD SWAP4 DUP5 MSTORE PUSH1 0x20 DUP5 ADD MSTORE PUSH1 0x40 DUP4 ADD MSTORE PUSH1 0x60 DUP3 ADD MSTORE LOG1 SWAP1 CODESIZE PUSH2 0x1150 JUMP JUMPDEST SWAP2 PUSH32 0xE9C6E81492BC93FE089982A07565C4A3A6E0C968C5C00B0CD69A8DAC9BF37B49 SWAP4 SWAP2 SWAP6 PUSH2 0x12E7 PUSH1 0x80 SWAP5 PUSH2 0x1841 JUMP JUMPDEST SWAP6 SWAP2 SWAP4 POP SWAP2 PUSH2 0x125E JUMP JUMPDEST PUSH1 0x40 MLOAD RETURNDATASIZE DUP9 DUP3 RETURNDATACOPY RETURNDATASIZE SWAP1 REVERT JUMPDEST DUP3 DUP1 REVERT JUMPDEST PUSH1 0x40 MLOAD PUSH3 0x461BCD PUSH1 0xE5 SHL DUP2 MSTORE PUSH1 0x20 PUSH1 0x4 DUP3 ADD MSTORE PUSH1 0x1D PUSH1 0x24 DUP3 ADD MSTORE PUSH32 0x54686973207065726D697373696F6E206469646E742065786973747321000000 PUSH1 0x44 DUP3 ADD MSTORE PUSH1 0x64 SWAP1 REVERT JUMPDEST PUSH4 0x4E487B71 PUSH1 0xE0 SHL DUP8 MSTORE PUSH1 0x41 PUSH1 0x4 MSTORE PUSH1 0x24 DUP8 REVERT JUMPDEST PUSH4 0x4E487B71 PUSH1 0xE0 SHL DUP7 MSTORE PUSH1 0x11 PUSH1 0x4 MSTORE PUSH1 0x24 DUP7 REVERT JUMPDEST PUSH4 0x4E487B71 PUSH1 0xE0 SHL DUP7 MSTORE PUSH1 0x41 PUSH1 0x4 MSTORE PUSH1 0x24 DUP7 REVERT JUMPDEST ADD MLOAD SWAP1 POP CODESIZE DUP1 PUSH2 0xD92 JUMP JUMPDEST PUSH1 0x1 DUP5 MSTORE PUSH32 0xB10E2D527612073B26EECDFD717E6A320CF44B4AFAC2B0732D9FCBE2B7FA0CF6 SWAP1 PUSH1 0x1F NOT DUP4 AND DUP6 JUMPDEST DUP2 DUP2 LT PUSH2 0x13F5 JUMPI POP SWAP6 DUP4 PUSH1 0x1 SWAP6 SWAP7 SWAP8 LT PUSH2 0x13DC JUMPI JUMPDEST POP POP POP DUP2 SHL ADD PUSH1 0x1 SSTORE PUSH2 0xDA8 JUMP JUMPDEST ADD MLOAD PUSH1 0x0 NOT PUSH1 0xF8 DUP5 PUSH1 0x3 SHL AND SHR NOT AND SWAP1 SSTORE CODESIZE DUP1 DUP1 PUSH2 0x13CE JUMP JUMPDEST SWAP2 SWAP3 PUSH1 0x20 PUSH1 0x1 DUP2 SWAP3 DUP7 DUP12 ADD MLOAD DUP2 SSTORE ADD SWAP5 ADD SWAP3 ADD PUSH2 0x13B9 JUMP JUMPDEST PUSH2 0x1456 SWAP1 PUSH1 0x1 DUP6 MSTORE PUSH32 0xB10E2D527612073B26EECDFD717E6A320CF44B4AFAC2B0732D9FCBE2B7FA0CF6 PUSH1 0x1F DUP5 ADD PUSH1 0x5 SHR DUP2 ADD SWAP2 PUSH1 0x20 DUP6 LT PUSH2 0x145C JUMPI JUMPDEST PUSH1 0x1F ADD PUSH1 0x5 SHR ADD SWAP1 PUSH2 0x195E JUMP JUMPDEST CODESIZE PUSH2 0xD79 JUMP JUMPDEST SWAP1 SWAP2 POP DUP2 SWAP1 PUSH2 0x1449 JUMP JUMPDEST PUSH4 0x4E487B71 PUSH1 0xE0 SHL DUP4 MSTORE PUSH1 0x41 PUSH1 0x4 MSTORE PUSH1 0x24 DUP4 REVERT JUMPDEST DUP4 DUP1 REVERT JUMPDEST PUSH1 0x40 DUP4 CALLDATASIZE SUB SLT PUSH2 0x104D JUMPI PUSH1 0x40 MLOAD PUSH1 0x40 DUP2 ADD DUP2 DUP2 LT PUSH1 0x1 PUSH1 0x1 PUSH1 0x40 SHL SUB DUP3 GT OR PUSH2 0x1345 JUMPI PUSH1 0x40 MSTORE DUP4 CALLDATALOAD PUSH1 0x1 PUSH1 0x1 PUSH1 0xA0 SHL SUB DUP2 AND DUP2 SUB PUSH2 0x1049 JUMPI SWAP2 DUP2 PUSH1 0x40 SWAP4 PUSH1 0x20 SWAP4 MSTORE DUP3 DUP7 ADD CALLDATALOAD DUP4 DUP3 ADD MSTORE DUP2 MSTORE ADD SWAP3 ADD SWAP2 PUSH2 0xCF8 JUMP JUMPDEST PUSH1 0x40 MLOAD PUSH4 0x35FDCCCD PUSH1 0xE2 SHL DUP2 MSTORE CALLER PUSH1 0x4 DUP3 ADD MSTORE PUSH1 0x24 SWAP1 REVERT JUMPDEST POP CALLVALUE PUSH2 0x10E JUMPI PUSH1 0x20 CALLDATASIZE PUSH1 0x3 NOT ADD SLT PUSH2 0x10E JUMPI PUSH1 0xFF PUSH1 0x40 PUSH1 0x20 SWAP3 PUSH1 0x1 PUSH1 0x1 PUSH1 0x40 SHL SUB PUSH2 0x1513 PUSH2 0x182B JUMP JUMPDEST AND DUP2 MSTORE PUSH1 0x8 DUP5 MSTORE KECCAK256 SLOAD AND PUSH1 0x40 MLOAD SWAP1 ISZERO ISZERO DUP2 MSTORE RETURN JUMPDEST POP CALLVALUE PUSH2 0x10E JUMPI PUSH1 0x20 CALLDATASIZE PUSH1 0x3 NOT ADD SLT PUSH2 0x10E JUMPI PUSH1 0x1 PUSH1 0x1 PUSH1 0xA0 SHL SUB PUSH2 0x1549 PUSH2 0x1815 JUMP JUMPDEST AND PUSH1 0x1 PUSH1 0x1 PUSH1 0x60 SHL SUB PUSH1 0xA0 SHL PUSH1 0x2 SLOAD AND OR PUSH1 0x2 SSTORE DUP1 RETURN JUMPDEST POP CALLVALUE PUSH2 0x10E JUMPI PUSH1 0x20 CALLDATASIZE PUSH1 0x3 NOT ADD SLT PUSH2 0x10E JUMPI PUSH2 0x157A PUSH2 0x1815 JUMP JUMPDEST SELFBALANCE SWAP1 DUP2 ISZERO PUSH2 0x15F1 JUMPI DUP3 DUP1 DUP1 DUP1 DUP6 DUP6 GAS CALL RETURNDATASIZE ISZERO PUSH2 0x15EC JUMPI RETURNDATASIZE PUSH2 0x159A DUP2 PUSH2 0x188B JUMP JUMPDEST SWAP1 PUSH2 0x15A8 PUSH1 0x40 MLOAD SWAP3 DUP4 PUSH2 0x186A JUMP JUMPDEST DUP2 MSTORE DUP5 PUSH1 0x20 RETURNDATASIZE SWAP3 ADD RETURNDATACOPY JUMPDEST ISZERO PUSH2 0x15BB JUMPI DUP3 DUP1 RETURN JUMPDEST PUSH1 0x40 MLOAD PUSH4 0x9D11F563 PUSH1 0xE0 SHL DUP2 MSTORE CALLER PUSH1 0x4 DUP3 ADD MSTORE PUSH1 0x1 PUSH1 0x1 PUSH1 0xA0 SHL SUB SWAP2 SWAP1 SWAP2 AND PUSH1 0x24 DUP3 ADD MSTORE PUSH1 0x44 DUP2 ADD SWAP2 SWAP1 SWAP2 MSTORE PUSH1 0x64 SWAP1 REVERT JUMPDEST PUSH2 0x15B2 JUMP JUMPDEST PUSH1 0x40 MLOAD PUSH4 0x686827B PUSH1 0xE5 SHL DUP2 MSTORE PUSH1 0x4 SWAP1 REVERT JUMPDEST POP CALLVALUE PUSH2 0x10E JUMPI PUSH1 0x40 CALLDATASIZE PUSH1 0x3 NOT ADD SLT PUSH2 0x10E JUMPI PUSH2 0x161D PUSH2 0x1815 JUMP JUMPDEST PUSH1 0x1 PUSH1 0x1 PUSH1 0xA0 SHL SUB SWAP1 PUSH1 0x24 CALLDATALOAD DUP3 DUP2 AND SWAP2 SWAP1 DUP3 SWAP1 SUB PUSH2 0x147A JUMPI PUSH1 0x40 MLOAD PUSH4 0x70A08231 PUSH1 0xE0 SHL DUP2 MSTORE ADDRESS PUSH1 0x4 DUP3 ADD MSTORE SWAP3 PUSH1 0x20 SWAP3 DUP4 DUP6 PUSH1 0x24 DUP2 DUP5 GAS STATICCALL SWAP5 DUP6 ISZERO PUSH2 0x12F1 JUMPI DUP7 SWAP6 PUSH2 0x16CF JUMPI JUMPDEST POP DUP5 ISZERO PUSH2 0x15F1 JUMPI DUP4 SWAP3 DUP7 PUSH1 0x44 SWAP3 PUSH1 0x40 MLOAD SWAP8 DUP9 SWAP6 DUP7 SWAP5 PUSH4 0xA9059CBB PUSH1 0xE0 SHL DUP7 MSTORE AND PUSH1 0x4 DUP6 ADD MSTORE PUSH1 0x24 DUP5 ADD MSTORE GAS CALL DUP1 ISZERO PUSH2 0xB99 JUMPI PUSH2 0x169C JUMPI DUP3 DUP1 RETURN JUMPDEST DUP2 DUP2 RETURNDATASIZE DUP4 GT PUSH2 0x16C8 JUMPI JUMPDEST PUSH2 0x16B0 DUP2 DUP4 PUSH2 0x186A JUMP JUMPDEST DUP2 ADD SUB SLT PUSH2 0x640 JUMPI PUSH2 0x16C1 SWAP1 PUSH2 0x1A68 JUMP JUMPDEST POP CODESIZE DUP1 DUP3 DUP1 RETURN JUMPDEST POP RETURNDATASIZE PUSH2 0x16A6 JUMP JUMPDEST SWAP1 SWAP5 POP DUP4 DUP2 DUP2 RETURNDATASIZE DUP4 GT PUSH2 0x16F7 JUMPI JUMPDEST PUSH2 0x16E7 DUP2 DUP4 PUSH2 0x186A JUMP JUMPDEST DUP2 ADD SUB SLT PUSH2 0xB1E JUMPI MLOAD SWAP4 CODESIZE PUSH2 0x1662 JUMP JUMPDEST POP RETURNDATASIZE PUSH2 0x16DD JUMP JUMPDEST POP CALLVALUE PUSH2 0x10E JUMPI PUSH1 0x20 CALLDATASIZE PUSH1 0x3 NOT ADD SLT PUSH2 0x10E JUMPI PUSH1 0x20 SWAP1 PUSH1 0xFF SWAP1 PUSH1 0x40 SWAP1 PUSH1 0x1 PUSH1 0x1 PUSH1 0xA0 SHL SUB PUSH2 0x1729 PUSH2 0x1815 JUMP JUMPDEST AND DUP2 MSTORE PUSH1 0x9 DUP5 MSTORE KECCAK256 SLOAD AND PUSH1 0x40 MLOAD SWAP1 ISZERO ISZERO DUP2 MSTORE RETURN JUMPDEST POP CALLVALUE PUSH2 0x10E JUMPI DUP1 PUSH1 0x3 NOT CALLDATASIZE ADD SLT PUSH2 0x10E JUMPI SLOAD PUSH2 0x1757 PUSH2 0x19AF JUMP JUMPDEST SWAP1 PUSH2 0x1774 PUSH1 0x40 MLOAD SWAP3 DUP4 SWAP3 DUP4 MSTORE PUSH1 0x40 PUSH1 0x20 DUP5 ADD MSTORE PUSH1 0x40 DUP4 ADD SWAP1 PUSH2 0x17F0 JUMP JUMPDEST SUB SWAP1 RETURN JUMPDEST SWAP1 POP CALLVALUE PUSH2 0x640 JUMPI PUSH1 0x20 CALLDATASIZE PUSH1 0x3 NOT ADD SLT PUSH2 0x640 JUMPI PUSH1 0x4 CALLDATALOAD PUSH4 0xFFFFFFFF PUSH1 0xE0 SHL DUP2 AND DUP1 SWAP2 SUB PUSH2 0x12FC JUMPI PUSH1 0x20 SWAP3 POP PUSH4 0x85572FFB PUSH1 0xE0 SHL DUP2 EQ SWAP1 DUP2 ISZERO PUSH2 0x17BC JUMPI JUMPDEST POP ISZERO ISZERO DUP2 MSTORE RETURN JUMPDEST PUSH4 0x1FFC9A7 PUSH1 0xE0 SHL EQ SWAP1 POP CODESIZE PUSH2 0x17B5 JUMP JUMPDEST PUSH1 0x0 JUMPDEST DUP4 DUP2 LT PUSH2 0x17E0 JUMPI POP POP PUSH1 0x0 SWAP2 ADD MSTORE JUMP JUMPDEST DUP2 DUP2 ADD MLOAD DUP4 DUP3 ADD MSTORE PUSH1 0x20 ADD PUSH2 0x17D0 JUMP JUMPDEST SWAP1 PUSH1 0x20 SWAP2 PUSH2 0x1809 DUP2 MLOAD DUP1 SWAP3 DUP2 DUP6 MSTORE DUP6 DUP1 DUP7 ADD SWAP2 ADD PUSH2 0x17CD JUMP JUMPDEST PUSH1 0x1F ADD PUSH1 0x1F NOT AND ADD ADD SWAP1 JUMP JUMPDEST PUSH1 0x4 CALLDATALOAD SWAP1 PUSH1 0x1 PUSH1 0x1 PUSH1 0xA0 SHL SUB DUP3 AND DUP3 SUB PUSH2 0x587 JUMPI JUMP JUMPDEST PUSH1 0x4 CALLDATALOAD SWAP1 PUSH1 0x1 PUSH1 0x1 PUSH1 0x40 SHL SUB DUP3 AND DUP3 SUB PUSH2 0x587 JUMPI JUMP JUMPDEST PUSH1 0x1 PUSH1 0x1 PUSH1 0x40 SHL SUB DUP2 GT PUSH2 0x1854 JUMPI PUSH1 0x40 MSTORE JUMP JUMPDEST PUSH4 0x4E487B71 PUSH1 0xE0 SHL PUSH1 0x0 MSTORE PUSH1 0x41 PUSH1 0x4 MSTORE PUSH1 0x24 PUSH1 0x0 REVERT JUMPDEST SWAP1 PUSH1 0x1F DUP1 NOT SWAP2 ADD AND DUP2 ADD SWAP1 DUP2 LT PUSH1 0x1 PUSH1 0x1 PUSH1 0x40 SHL SUB DUP3 GT OR PUSH2 0x1854 JUMPI PUSH1 0x40 MSTORE JUMP JUMPDEST PUSH1 0x1 PUSH1 0x1 PUSH1 0x40 SHL SUB DUP2 GT PUSH2 0x1854 JUMPI PUSH1 0x1F ADD PUSH1 0x1F NOT AND PUSH1 0x20 ADD SWAP1 JUMP JUMPDEST DUP2 PUSH1 0x1F DUP3 ADD SLT ISZERO PUSH2 0x587 JUMPI DUP1 CALLDATALOAD SWAP1 PUSH2 0x18BD DUP3 PUSH2 0x188B JUMP JUMPDEST SWAP3 PUSH2 0x18CB PUSH1 0x40 MLOAD SWAP5 DUP6 PUSH2 0x186A JUMP JUMPDEST DUP3 DUP5 MSTORE PUSH1 0x20 DUP4 DUP4 ADD ADD GT PUSH2 0x587 JUMPI DUP2 PUSH1 0x0 SWAP3 PUSH1 0x20 DUP1 SWAP4 ADD DUP4 DUP7 ADD CALLDATACOPY DUP4 ADD ADD MSTORE SWAP1 JUMP JUMPDEST SWAP1 SWAP3 SWAP2 SWAP3 PUSH2 0x18FA DUP2 PUSH2 0x188B JUMP JUMPDEST SWAP2 PUSH2 0x1908 PUSH1 0x40 MLOAD SWAP4 DUP5 PUSH2 0x186A JUMP JUMPDEST DUP3 SWAP5 DUP3 DUP5 MSTORE DUP3 DUP3 ADD GT PUSH2 0x587 JUMPI PUSH1 0x20 PUSH2 0x1922 SWAP4 ADD SWAP1 PUSH2 0x17CD JUMP JUMPDEST JUMP JUMPDEST SWAP1 PUSH1 0x1 DUP3 DUP2 SHR SWAP3 AND DUP1 ISZERO PUSH2 0x1954 JUMPI JUMPDEST PUSH1 0x20 DUP4 LT EQ PUSH2 0x193E JUMPI JUMP JUMPDEST PUSH4 0x4E487B71 PUSH1 0xE0 SHL PUSH1 0x0 MSTORE PUSH1 0x22 PUSH1 0x4 MSTORE PUSH1 0x24 PUSH1 0x0 REVERT JUMPDEST SWAP2 PUSH1 0x7F AND SWAP2 PUSH2 0x1933 JUMP JUMPDEST DUP2 DUP2 LT PUSH2 0x1969 JUMPI POP POP JUMP JUMPDEST PUSH1 0x0 DUP2 SSTORE PUSH1 0x1 ADD PUSH2 0x195E JUMP JUMPDEST SWAP2 SWAP1 PUSH1 0x1F DUP2 GT PUSH2 0x1984 JUMPI POP POP POP JUMP JUMPDEST PUSH2 0x1922 SWAP3 PUSH1 0x0 MSTORE PUSH1 0x20 PUSH1 0x0 KECCAK256 SWAP1 PUSH1 0x20 PUSH1 0x1F DUP5 ADD PUSH1 0x5 SHR DUP4 ADD SWAP4 LT PUSH2 0x145C JUMPI PUSH1 0x1F ADD PUSH1 0x5 SHR ADD SWAP1 PUSH2 0x195E JUMP JUMPDEST PUSH1 0x40 MLOAD SWAP1 PUSH1 0x0 DUP3 PUSH1 0x1 SWAP2 DUP3 SLOAD SWAP3 PUSH2 0x19C5 DUP5 PUSH2 0x1924 JUMP JUMPDEST DUP1 DUP5 MSTORE SWAP4 DUP2 DUP2 AND SWAP1 DUP2 ISZERO PUSH2 0x1A46 JUMPI POP PUSH1 0x1 EQ PUSH2 0x19E9 JUMPI JUMPDEST POP PUSH2 0x1922 SWAP3 POP SUB DUP4 PUSH2 0x186A JUMP JUMPDEST PUSH1 0x0 DUP2 DUP2 MSTORE SWAP2 POP PUSH32 0xB10E2D527612073B26EECDFD717E6A320CF44B4AFAC2B0732D9FCBE2B7FA0CF6 JUMPDEST DUP5 DUP4 LT PUSH2 0x1A2B JUMPI POP PUSH2 0x1922 SWAP4 POP POP DUP2 ADD PUSH1 0x20 ADD CODESIZE PUSH2 0x19DC JUMP JUMPDEST DUP2 SWAP4 POP SWAP1 DUP2 PUSH1 0x20 SWAP3 SLOAD DUP4 DUP6 DUP11 ADD ADD MSTORE ADD SWAP2 ADD SWAP1 SWAP2 DUP6 SWAP3 PUSH2 0x1A12 JUMP JUMPDEST SWAP1 POP PUSH1 0x20 SWAP3 POP PUSH2 0x1922 SWAP5 SWAP2 POP PUSH1 0xFF NOT AND DUP3 DUP5 ADD MSTORE ISZERO ISZERO PUSH1 0x5 SHL DUP3 ADD ADD CODESIZE PUSH2 0x19DC JUMP JUMPDEST MLOAD SWAP1 DUP2 ISZERO ISZERO DUP3 SUB PUSH2 0x587 JUMPI JUMP JUMPDEST PUSH1 0x1 PUSH1 0x40 SHL DUP3 GT PUSH2 0x1854 JUMPI DUP1 SLOAD SWAP2 DUP1 DUP3 SSTORE DUP3 DUP2 LT PUSH2 0x1A92 JUMPI POP POP POP JUMP JUMPDEST PUSH1 0x0 SWAP2 DUP3 MSTORE PUSH1 0x20 SWAP1 DUP2 DUP4 KECCAK256 SWAP4 DUP5 ADD SWAP4 ADD JUMPDEST DUP4 DUP2 LT PUSH2 0x1AB0 JUMPI POP POP POP POP JUMP JUMPDEST DUP1 DUP4 PUSH2 0x1ABE PUSH1 0x1 SWAP4 SLOAD PUSH2 0x1924 JUMP JUMPDEST DUP1 PUSH2 0x1ACC JUMPI JUMPDEST POP POP ADD PUSH2 0x1AA3 JUMP JUMPDEST PUSH1 0x1F DUP1 DUP3 GT DUP6 EQ PUSH2 0x1AE3 JUMPI POP POP DUP2 SSTORE JUMPDEST DUP4 CODESIZE PUSH2 0x1AC4 JUMP JUMPDEST PUSH2 0x1AFC SWAP1 DUP5 DUP5 MSTORE DUP7 DUP5 KECCAK256 SWAP3 ADD PUSH1 0x5 SHR DUP3 ADD DUP6 DUP4 ADD PUSH2 0x195E JUMP JUMPDEST DUP2 DUP4 SSTORE SSTORE PUSH2 0x1ADC JUMP JUMPDEST ISZERO PUSH2 0x1B0C JUMPI JUMP JUMPDEST PUSH1 0x40 MLOAD PUSH3 0x461BCD PUSH1 0xE5 SHL DUP2 MSTORE PUSH1 0x20 PUSH1 0x4 DUP3 ADD MSTORE PUSH1 0x1E PUSH1 0x24 DUP3 ADD MSTORE PUSH32 0x54686973207065726D697373696F6E206469646E277420657869737473210000 PUSH1 0x44 DUP3 ADD MSTORE PUSH1 0x64 SWAP1 REVERT JUMPDEST SWAP1 DUP2 PUSH1 0x20 SWAP2 SUB SLT PUSH2 0x587 JUMPI MLOAD PUSH1 0x1 PUSH1 0x1 PUSH1 0xA0 SHL SUB DUP2 AND DUP2 SUB PUSH2 0x587 JUMPI SWAP1 JUMP JUMPDEST DUP2 DUP4 MSTORE PUSH1 0x20 PUSH1 0x5 DUP4 SWAP1 SHL DUP5 ADD DUP2 ADD SWAP4 SWAP2 SWAP3 SWAP1 PUSH1 0x0 DUP2 DUP5 ADD DUP6 JUMPDEST DUP5 DUP4 LT PUSH2 0x1B9A JUMPI POP POP POP POP POP POP POP SWAP1 JUMP JUMPDEST SWAP1 SWAP2 SWAP3 SWAP4 SWAP5 SWAP6 SWAP7 PUSH1 0x1F NOT DUP1 DUP9 DUP4 SUB ADD DUP5 MSTORE DUP9 CALLDATALOAD PUSH1 0x1E NOT DUP5 CALLDATASIZE SUB ADD DUP2 SLT ISZERO PUSH2 0x587 JUMPI DUP4 ADD DUP7 DUP2 ADD SWAP1 CALLDATALOAD PUSH1 0x1 PUSH1 0x1 PUSH1 0x40 SHL SUB DUP2 GT PUSH2 0x587 JUMPI DUP1 CALLDATASIZE SUB DUP3 SGT PUSH2 0x587 JUMPI DUP4 DUP9 SWAP4 PUSH1 0x1F DUP4 DUP1 DUP8 SWAP7 DUP8 SWAP7 PUSH1 0x1 SWAP11 MSTORE DUP7 DUP7 ADD CALLDATACOPY PUSH1 0x0 DUP6 DUP3 DUP7 ADD ADD MSTORE ADD AND ADD ADD SWAP10 ADD SWAP4 ADD SWAP4 ADD SWAP2 SWAP6 SWAP5 SWAP4 SWAP3 SWAP1 PUSH2 0x1B89 JUMP JUMPDEST PUSH1 0x6 SLOAD DUP2 LT ISZERO PUSH2 0x1C44 JUMPI PUSH1 0x3 SWAP1 PUSH1 0x6 PUSH1 0x0 MSTORE MUL PUSH32 0xF652222313E28459528D920B65115C16C04F3EFC82AAEDC97BE59F3F377C0D3F ADD SWAP1 PUSH1 0x0 SWAP1 JUMP JUMPDEST PUSH4 0x4E487B71 PUSH1 0xE0 SHL PUSH1 0x0 MSTORE PUSH1 0x32 PUSH1 0x4 MSTORE PUSH1 0x24 PUSH1 0x0 REVERT INVALID LOG2 PUSH5 0x6970667358 0x22 SLT KECCAK256 0xE5 DUP14 SSTORE LOG1 0x4B 0xDE PUSH22 0x421EC57699E8B4A3FAE48ABF6E7B1DA20AC91CF55AFA PUSH22 0x58A664736F6C63430008140033000000000000000000 "},"gasEstimates":{"creation":{"codeDepositCost":"1462400","executionCost":"infinite","totalCost":"infinite"},"external":{"addCollateral(uint256,uint256,uint256,uint256)":"infinite","addReceiver(address)":"24576","addSender(address)":"24781","addSourceChain(uint64)":"24803","ccipReceive((bytes32,uint64,bytes,bytes,(address,uint256)[]))":"infinite","getLastReceivedMessageDetails()":"infinite","getRouter()":"infinite","permissionsInfo(bytes32)":"23967","removeSender(address)":"24753","removelistSourceChain(uint64)":"24835","supportsInterface(bytes4)":"280","verifyColateralValue(uint256,uint256,uint256,uint256,string[])":"infinite","whitelistedSenders(address)":"2479","whitelistedSourceChains(uint64)":"2561","withdraw(address)":"infinite","withdrawToken(address,address)":"infinite"},"internal":{"_ccipReceive(struct Client.Any2EVMMessage memory)":"infinite","checkColateralPrice()":"infinite","handlePermission(bytes32,uint256,bool)":"infinite","sendRwaBackToOwner(bytes32)":"infinite"}},"methodIdentifiers":{"addCollateral(uint256,uint256,uint256,uint256)":"95871c8f","addReceiver(address)":"69d83ed1","addSender(address)":"b697f531","addSourceChain(uint64)":"c5ec1c7a","ccipReceive((bytes32,uint64,bytes,bytes,(address,uint256)[]))":"85572ffb","getLastReceivedMessageDetails()":"263596a5","getRouter()":"b0f479a1","permissionsInfo(bytes32)":"e9982c39","removeSender(address)":"b2f87643","removelistSourceChain(uint64)":"ff46ed53","supportsInterface(bytes4)":"01ffc9a7","verifyColateralValue(uint256,uint256,uint256,uint256,string[])":"92365ce4","whitelistedSenders(address)":"272efc69","whitelistedSourceChains(uint64)":"7dc91a02","withdraw(address)":"51cff8d9","withdrawToken(address,address)":"3aeac4e1"}},"storageLayout":{"storage":[{"astId":5720,"contract":"contracts/HorizonFujiR.sol:HorizonFujiR","label":"lastReceivedMessageId","offset":0,"slot":"0","type":"t_bytes32"},{"astId":5722,"contract":"contracts/HorizonFujiR.sol:HorizonFujiR","label":"lastReceivedText","offset":0,"slot":"1","type":"t_bytes_storage"},{"astId":5724,"contract":"contracts/HorizonFujiR.sol:HorizonFujiR","label":"horizonR","offset":0,"slot":"2","type":"t_address"},{"astId":5726,"contract":"contracts/HorizonFujiR.sol:HorizonFujiR","label":"subscriptionId","offset":20,"slot":"2","type":"t_uint64"},{"astId":5728,"contract":"contracts/HorizonFujiR.sol:HorizonFujiR","label":"router","offset":0,"slot":"3","type":"t_address"},{"astId":5730,"contract":"contracts/HorizonFujiR.sol:HorizonFujiR","label":"gasLimit","offset":20,"slot":"3","type":"t_uint32"},{"astId":5732,"contract":"contracts/HorizonFujiR.sol:HorizonFujiR","label":"donID","offset":0,"slot":"4","type":"t_bytes32"},{"astId":5735,"contract":"contracts/HorizonFujiR.sol:HorizonFujiR","label":"linkToken","offset":0,"slot":"5","type":"t_contract(LinkTokenInterface)1390"},{"astId":5774,"contract":"contracts/HorizonFujiR.sol:HorizonFujiR","label":"rwaMonitors","offset":0,"slot":"6","type":"t_array(t_struct(RwaMonitor)5770_storage)dyn_storage"},{"astId":5779,"contract":"contracts/HorizonFujiR.sol:HorizonFujiR","label":"permissionsInfo","offset":0,"slot":"7","type":"t_mapping(t_bytes32,t_struct(Permissions)5763_storage)"},{"astId":5783,"contract":"contracts/HorizonFujiR.sol:HorizonFujiR","label":"whitelistedSourceChains","offset":0,"slot":"8","type":"t_mapping(t_uint64,t_bool)"},{"astId":5787,"contract":"contracts/HorizonFujiR.sol:HorizonFujiR","label":"whitelistedSenders","offset":0,"slot":"9","type":"t_mapping(t_address,t_bool)"},{"astId":5796,"contract":"contracts/HorizonFujiR.sol:HorizonFujiR","label":"sender","offset":0,"slot":"10","type":"t_contract(HorizonFujiS)7177"},{"astId":5805,"contract":"contracts/HorizonFujiR.sol:HorizonFujiR","label":"functions","offset":0,"slot":"11","type":"t_contract(HorizonFunctions)7450"},{"astId":5814,"contract":"contracts/HorizonFujiR.sol:HorizonFujiR","label":"rwa","offset":0,"slot":"12","type":"t_contract(ERC721)3817"}],"types":{"t_address":{"encoding":"inplace","label":"address","numberOfBytes":"20"},"t_array(t_string_storage)dyn_storage":{"base":"t_string_storage","encoding":"dynamic_array","label":"string[]","numberOfBytes":"32"},"t_array(t_struct(RwaMonitor)5770_storage)dyn_storage":{"base":"t_struct(RwaMonitor)5770_storage","encoding":"dynamic_array","label":"struct HorizonFujiR.RwaMonitor[]","numberOfBytes":"32"},"t_bool":{"encoding":"inplace","label":"bool","numberOfBytes":"1"},"t_bytes32":{"encoding":"inplace","label":"bytes32","numberOfBytes":"32"},"t_bytes_storage":{"encoding":"bytes","label":"bytes","numberOfBytes":"32"},"t_contract(ERC721)3817":{"encoding":"inplace","label":"contract ERC721","numberOfBytes":"20"},"t_contract(HorizonFujiS)7177":{"encoding":"inplace","label":"contract HorizonFujiS","numberOfBytes":"20"},"t_contract(HorizonFunctions)7450":{"encoding":"inplace","label":"contract HorizonFunctions","numberOfBytes":"20"},"t_contract(LinkTokenInterface)1390":{"encoding":"inplace","label":"contract LinkTokenInterface","numberOfBytes":"20"},"t_mapping(t_address,t_bool)":{"encoding":"mapping","key":"t_address","label":"mapping(address => bool)","numberOfBytes":"32","value":"t_bool"},"t_mapping(t_bytes32,t_struct(Permissions)5763_storage)":{"encoding":"mapping","key":"t_bytes32","label":"mapping(bytes32 => struct HorizonFujiR.Permissions)","numberOfBytes":"32","value":"t_struct(Permissions)5763_storage"},"t_mapping(t_uint64,t_bool)":{"encoding":"mapping","key":"t_uint64","label":"mapping(uint64 => bool)","numberOfBytes":"32","value":"t_bool"},"t_string_storage":{"encoding":"bytes","label":"string","numberOfBytes":"32"},"t_struct(Permissions)5763_storage":{"encoding":"inplace","label":"struct HorizonFujiR.Permissions","members":[{"astId":5737,"contract":"contracts/HorizonFujiR.sol:HorizonFujiR","label":"idTitle","offset":0,"slot":"0","type":"t_uint256"},{"astId":5739,"contract":"contracts/HorizonFujiR.sol:HorizonFujiR","label":"drawNumber","offset":0,"slot":"1","type":"t_uint256"},{"astId":5741,"contract":"contracts/HorizonFujiR.sol:HorizonFujiR","label":"contractId","offset":0,"slot":"2","type":"t_uint256"},{"astId":5743,"contract":"contracts/HorizonFujiR.sol:HorizonFujiR","label":"rwaOwner","offset":0,"slot":"3","type":"t_address"},{"astId":5745,"contract":"contracts/HorizonFujiR.sol:HorizonFujiR","label":"ensuranceValueNeeded","offset":0,"slot":"4","type":"t_uint256"},{"astId":5747,"contract":"contracts/HorizonFujiR.sol:HorizonFujiR","label":"ensureValueNow","offset":0,"slot":"5","type":"t_uint256"},{"astId":5749,"contract":"contracts/HorizonFujiR.sol:HorizonFujiR","label":"colateralId","offset":0,"slot":"6","type":"t_uint256"},{"astId":5752,"contract":"contracts/HorizonFujiR.sol:HorizonFujiR","label":"args","offset":0,"slot":"7","type":"t_array(t_string_storage)dyn_storage"},{"astId":5754,"contract":"contracts/HorizonFujiR.sol:HorizonFujiR","label":"lastRequestId","offset":0,"slot":"8","type":"t_bytes32"},{"astId":5756,"contract":"contracts/HorizonFujiR.sol:HorizonFujiR","label":"lastRequestTime","offset":0,"slot":"9","type":"t_uint256"},{"astId":5758,"contract":"contracts/HorizonFujiR.sol:HorizonFujiR","label":"lastResponseTime","offset":0,"slot":"10","type":"t_uint256"},{"astId":5760,"contract":"contracts/HorizonFujiR.sol:HorizonFujiR","label":"colateralLocked","offset":0,"slot":"11","type":"t_bool"},{"astId":5762,"contract":"contracts/HorizonFujiR.sol:HorizonFujiR","label":"isPermission","offset":1,"slot":"11","type":"t_bool"}],"numberOfBytes":"384"},"t_struct(RwaMonitor)5770_storage":{"encoding":"inplace","label":"struct HorizonFujiR.RwaMonitor","members":[{"astId":5765,"contract":"contracts/HorizonFujiR.sol:HorizonFujiR","label":"rwaId","offset":0,"slot":"0","type":"t_uint256"},{"astId":5767,"contract":"contracts/HorizonFujiR.sol:HorizonFujiR","label":"hashPermission","offset":0,"slot":"1","type":"t_bytes32"},{"astId":5769,"contract":"contracts/HorizonFujiR.sol:HorizonFujiR","label":"isActive","offset":0,"slot":"2","type":"t_bool"}],"numberOfBytes":"96"},"t_uint256":{"encoding":"inplace","label":"uint256","numberOfBytes":"32"},"t_uint32":{"encoding":"inplace","label":"uint32","numberOfBytes":"4"},"t_uint64":{"encoding":"inplace","label":"uint64","numberOfBytes":"8"}}},"userdoc":{"kind":"user","methods":{"addSender(address)":{"notice":"This function can only be called by the owner."},"addSourceChain(uint64)":{"notice":"This function can only be called by the owner."},"ccipReceive((bytes32,uint64,bytes,bytes,(address,uint256)[]))":{"notice":"Called by the Router to deliver a message. If this reverts, any token transfers also revert. The message will move to a FAILED state and become available for manual execution."},"getRouter()":{"notice":"Return the current router"},"removeSender(address)":{"notice":"This function can only be called by the owner."},"removelistSourceChain(uint64)":{"notice":"This function can only be called by the owner."},"supportsInterface(bytes4)":{"notice":"IERC165 supports an interfaceId"}},"version":1}}}}