{
  "_format": "hh-sol-artifact-1",
  "contractName": "HorizonFujiAssistant",
  "sourceName": "contracts/HorizonFujiAssistant.sol",
  "abi": [
    {
      "inputs": [
        {
          "internalType": "string",
          "name": "s",
          "type": "string"
        }
      ],
      "name": "stringToUint",
      "outputs": [
        {
          "internalType": "uint256",
          "name": "",
          "type": "uint256"
        }
      ],
      "stateMutability": "pure",
      "type": "function"
    }
  ],
  "bytecode": "0x60808060405234610016576103ad908161001c8239f35b600080fdfe60806004908136101561001157600080fd5b6000803560e01c631bd951551461002757600080fd5b34610324576020928360031936011261032757803567ffffffffffffffff928382116103245736602383011215610324578183013584811161031157601f8101601f19908116603f01168601948511868610176103115760409485528086526024923684838301011161030d57818392858a9301838a0137870101529182908180805b88518210156102ff576001600160f81b0319602960f91b816100cc858d610350565b51161480156102e6575b80156102cd575b80156102b4575b6102a957600b60fa1b816100f8858d610350565b51161461029a57600360fc1b8161010f858d610350565b51161015908161027f575b501561023d57600a9081810291818304149015171561021857602f19610140838b610350565b5160f81c0160ff9081811161022b5716810180911161021857908661016f575b6101699061032b565b906100aa565b916101799061032b565b9160028310610160575095965093909192935b6002811061019e575b87868851908152f35b600181036101db575050600a840293808504600a14901517156101cb57505050905b903880808080610195565b634e487b7160e01b825260119052fd5b159081610210575b506101f2575b505050906101c0565b6064840293808504606414901517156101cb575050503880806101e9565b9050386101e3565b5050634e487b7160e01b83525060119052fd5b634e487b7160e01b8752601186528787fd5b875162461bcd60e51b81528085018b9052601a818801527f54686174206973206e6f7420612076616c696420737472696e670000000000006044820152606490fd5b603960f81b9150610290848c610350565b511611153861011a565b5090955061016960019661032b565b50906101699061032b565b50600160fd1b816102c5858d610350565b5116146100e4565b50601760f91b816102de858d610350565b5116146100dd565b50600960fa1b816102f7858d610350565b5116146100d6565b96975050939091929361018c565b8280fd5b634e487b7160e01b825260418452602482fd5b80fd5b5080fd5b600019811461033a5760010190565b634e487b7160e01b600052601160045260246000fd5b908151811015610361570160200190565b634e487b7160e01b600052603260045260246000fdfea2646970667358221220cac90a1ca0eeb3e1300c7bd5e14b8f16862af9038b9a11363db1383c3a218d0f64736f6c63430008140033",
  "linkReferences": {},
  "deployedLinkReferences": {}
}