{
  "_format": "hh-sol-artifact-1",
  "contractName": "HorizonStaff",
  "sourceName": "contracts/HorizonStaff.sol",
  "abi": [
    {
      "inputs": [],
      "stateMutability": "nonpayable",
      "type": "constructor"
    },
    {
      "inputs": [],
      "name": "NothingToWithdraw",
      "type": "error"
    },
    {
      "anonymous": false,
      "inputs": [
        {
          "indexed": true,
          "internalType": "address",
          "name": "_wallet",
          "type": "address"
        }
      ],
      "name": "AdminADD",
      "type": "event"
    },
    {
      "anonymous": false,
      "inputs": [
        {
          "indexed": true,
          "internalType": "address",
          "name": "_wallet",
          "type": "address"
        }
      ],
      "name": "AdminRemoved",
      "type": "event"
    },
    {
      "anonymous": false,
      "inputs": [
        {
          "indexed": false,
          "internalType": "uint256",
          "name": "_installmentNumber",
          "type": "uint256"
        },
        {
          "indexed": false,
          "internalType": "uint256",
          "name": "_dateOfPayment",
          "type": "uint256"
        }
      ],
      "name": "InstallmentDateUpdated",
      "type": "event"
    },
    {
      "anonymous": false,
      "inputs": [
        {
          "indexed": false,
          "internalType": "uint256",
          "name": "currentInterestRate",
          "type": "uint256"
        },
        {
          "indexed": false,
          "internalType": "uint256",
          "name": "amountToPay",
          "type": "uint256"
        }
      ],
      "name": "PaymentIsLate",
      "type": "event"
    },
    {
      "anonymous": false,
      "inputs": [
        {
          "indexed": false,
          "internalType": "uint256",
          "name": "_amountToPay",
          "type": "uint256"
        }
      ],
      "name": "TheInstallmentIsOneDayLate",
      "type": "event"
    },
    {
      "anonymous": false,
      "inputs": [
        {
          "indexed": false,
          "internalType": "uint256",
          "name": "_paymentDelay",
          "type": "uint256"
        }
      ],
      "name": "TheInstallmenteIsOnTime",
      "type": "event"
    },
    {
      "anonymous": false,
      "inputs": [
        {
          "indexed": false,
          "internalType": "uint256",
          "name": "currentInterestRate",
          "type": "uint256"
        },
        {
          "indexed": false,
          "internalType": "uint256",
          "name": "amountToPay",
          "type": "uint256"
        }
      ],
      "name": "TheTitleIsCloseToBeCanceled",
      "type": "event"
    },
    {
      "anonymous": false,
      "inputs": [
        {
          "indexed": false,
          "internalType": "contract IERC20",
          "name": "tokenAddress",
          "type": "address"
        },
        {
          "indexed": false,
          "internalType": "string",
          "name": "symbol",
          "type": "string"
        }
      ],
      "name": "TokenAdded",
      "type": "event"
    },
    {
      "anonymous": false,
      "inputs": [
        {
          "indexed": false,
          "internalType": "string",
          "name": "symbol",
          "type": "string"
        },
        {
          "indexed": false,
          "internalType": "address",
          "name": "_stablecoin",
          "type": "address"
        }
      ],
      "name": "TokenRemoved",
      "type": "event"
    },
    {
      "inputs": [
        {
          "internalType": "address",
          "name": "_wallet",
          "type": "address"
        }
      ],
      "name": "addAdmin",
      "outputs": [],
      "stateMutability": "nonpayable",
      "type": "function"
    },
    {
      "inputs": [
        {
          "internalType": "uint256",
          "name": "_scheduleId",
          "type": "uint256"
        },
        {
          "internalType": "uint256",
          "name": "_drawNumber",
          "type": "uint256"
        }
      ],
      "name": "addParticipantsToDraw",
      "outputs": [],
      "stateMutability": "nonpayable",
      "type": "function"
    },
    {
      "inputs": [
        {
          "internalType": "contract IERC20",
          "name": "_stablecoin",
          "type": "address"
        },
        {
          "internalType": "string",
          "name": "_tokenSymbol",
          "type": "string"
        }
      ],
      "name": "addToken",
      "outputs": [],
      "stateMutability": "nonpayable",
      "type": "function"
    },
    {
      "inputs": [
        {
          "internalType": "contract IERC20",
          "name": "coinAddress",
          "type": "address"
        }
      ],
      "name": "allowedCrypto",
      "outputs": [
        {
          "internalType": "string",
          "name": "tokenSymbol",
          "type": "string"
        },
        {
          "internalType": "contract IERC20",
          "name": "stablecoin",
          "type": "address"
        },
        {
          "internalType": "bool",
          "name": "isStable",
          "type": "bool"
        }
      ],
      "stateMutability": "view",
      "type": "function"
    },
    {
      "inputs": [],
      "name": "baseInterestRate",
      "outputs": [
        {
          "internalType": "uint256",
          "name": "",
          "type": "uint256"
        }
      ],
      "stateMutability": "view",
      "type": "function"
    },
    {
      "inputs": [
        {
          "internalType": "uint256",
          "name": "_paymentDelay",
          "type": "uint256"
        },
        {
          "internalType": "uint256",
          "name": "_scheduleId",
          "type": "uint256"
        },
        {
          "internalType": "uint256",
          "name": "_inicialInstallment",
          "type": "uint256"
        }
      ],
      "name": "calculateDelayedPayment",
      "outputs": [
        {
          "internalType": "uint256",
          "name": "",
          "type": "uint256"
        }
      ],
      "stateMutability": "nonpayable",
      "type": "function"
    },
    {
      "inputs": [
        {
          "internalType": "uint256",
          "name": "_titleId",
          "type": "uint256"
        },
        {
          "internalType": "uint256",
          "name": "_numPayments",
          "type": "uint256"
        },
        {
          "internalType": "uint256",
          "name": "_closing",
          "type": "uint256"
        }
      ],
      "name": "createSchedule",
      "outputs": [
        {
          "internalType": "uint256",
          "name": "_scheduleId",
          "type": "uint256"
        }
      ],
      "stateMutability": "nonpayable",
      "type": "function"
    },
    {
      "inputs": [],
      "name": "dailyInterestRate",
      "outputs": [
        {
          "internalType": "uint256",
          "name": "",
          "type": "uint256"
        }
      ],
      "stateMutability": "view",
      "type": "function"
    },
    {
      "inputs": [
        {
          "internalType": "address",
          "name": "_wallet",
          "type": "address"
        }
      ],
      "name": "removeAdmin",
      "outputs": [],
      "stateMutability": "nonpayable",
      "type": "function"
    },
    {
      "inputs": [
        {
          "internalType": "contract IERC20",
          "name": "_stablecoin",
          "type": "address"
        }
      ],
      "name": "removeToken",
      "outputs": [],
      "stateMutability": "nonpayable",
      "type": "function"
    },
    {
      "inputs": [
        {
          "internalType": "contract IERC20",
          "name": "_stablecoin",
          "type": "address"
        }
      ],
      "name": "returnAvailableStablecoin",
      "outputs": [
        {
          "internalType": "string",
          "name": "",
          "type": "string"
        },
        {
          "internalType": "contract IERC20",
          "name": "",
          "type": "address"
        },
        {
          "internalType": "bool",
          "name": "",
          "type": "bool"
        }
      ],
      "stateMutability": "nonpayable",
      "type": "function"
    },
    {
      "inputs": [
        {
          "internalType": "uint256",
          "name": "_scheduleId",
          "type": "uint256"
        },
        {
          "internalType": "uint256",
          "name": "_installmentNumber",
          "type": "uint256"
        }
      ],
      "name": "returnDrawDate",
      "outputs": [
        {
          "internalType": "uint256",
          "name": "",
          "type": "uint256"
        }
      ],
      "stateMutability": "view",
      "type": "function"
    },
    {
      "inputs": [
        {
          "internalType": "uint256",
          "name": "_scheduleId",
          "type": "uint256"
        },
        {
          "internalType": "uint256",
          "name": "_drawNumber",
          "type": "uint256"
        }
      ],
      "name": "returnDrawParticipants",
      "outputs": [
        {
          "internalType": "uint256",
          "name": "",
          "type": "uint256"
        }
      ],
      "stateMutability": "view",
      "type": "function"
    },
    {
      "inputs": [
        {
          "internalType": "uint256",
          "name": "_scheduleId",
          "type": "uint256"
        },
        {
          "internalType": "uint256",
          "name": "_installmentNumber",
          "type": "uint256"
        }
      ],
      "name": "returnPaymentDeadline",
      "outputs": [
        {
          "internalType": "uint256",
          "name": "",
          "type": "uint256"
        }
      ],
      "stateMutability": "view",
      "type": "function"
    },
    {
      "inputs": [
        {
          "internalType": "address",
          "name": "adminWallet",
          "type": "address"
        }
      ],
      "name": "staff",
      "outputs": [
        {
          "internalType": "address",
          "name": "wallet",
          "type": "address"
        },
        {
          "internalType": "bool",
          "name": "isAdmin",
          "type": "bool"
        }
      ],
      "stateMutability": "view",
      "type": "function"
    },
    {
      "inputs": [
        {
          "internalType": "uint256",
          "name": "_baseRate",
          "type": "uint256"
        },
        {
          "internalType": "uint256",
          "name": "_dailyRate",
          "type": "uint256"
        }
      ],
      "name": "updateInterest",
      "outputs": [],
      "stateMutability": "nonpayable",
      "type": "function"
    },
    {
      "inputs": [
        {
          "internalType": "uint256",
          "name": "_scheduleId",
          "type": "uint256"
        },
        {
          "internalType": "uint256",
          "name": "_installmentNumber",
          "type": "uint256"
        },
        {
          "internalType": "uint256",
          "name": "_dateOfPayment",
          "type": "uint256"
        }
      ],
      "name": "updatePaymentDate",
      "outputs": [],
      "stateMutability": "nonpayable",
      "type": "function"
    },
    {
      "inputs": [
        {
          "internalType": "contract IERC20",
          "name": "_tokenAddress",
          "type": "address"
        }
      ],
      "name": "withdrawProtocolFee",
      "outputs": [],
      "stateMutability": "nonpayable",
      "type": "function"
    }
  ],
  "bytecode": "0x6080806040523461003b576001600055600a6001556003600255603c6003553360018060a01b031960045416176004556113e490816100418239f35b600080fdfe60806040908082526004918236101561001757600080fd5b600092833560e01c9283630d65a8e8146110bc57508383631785f53c146110465750826329b00732146110305782632b18775514610ee25782632c8da56014610bf15782634f83158a14610ba65782635294bac81461096b578263559006c21461071f5782635fa7b5841461058557826364cf0e4014610556578263668fb6dc1461037c5782637048027514610252575081637c4c4b89146101fb5781637fca631f146101dc5781638c83ddd314610163578163ac066fa21461012d578163afd927621461010a575063b4f9a7e0146100ef57600080fd5b34610107576100fd366110e9565b9060015560025580f35b80fd5b9050346101295781600319360112610129576020906001549051908152f35b5080fd5b90503461012957600190610140366110e9565b908452600660205281842090845260205282200161015e815461139f565b905580f35b8234610107576020366003190112610107576001600160a01b03916101d89060ff6001828661019061111e565b169586815260056020526101a58282206111a6565b968152600560205220019485541694856001600160601b0360a01b60085416176008555460a01c1690519384938461128c565b0390f35b9050346101295781600319360112610129576020906002549051908152f35b8234610107576020366003190112610107576001600160a01b03906101d89083908361022561111e565b16815260056020522092600161023a856111a6565b940154905193849360ff8360a01c169216908461128c565b838234610129576020366003190112610129576001600160a01b0383358181169290839003610378576102868315156112ba565b828452600760205260ff8185205460a01c166103365780519181830183811067ffffffffffffffff821117610323578252838352600160208085019182528587526007905291852092518354925160ff60a01b90151560a01b166001600160a81b0319909316911660ff60a01b1916171790559091507fda51e137fbd273174ffcac81ca558daee6ff0b24569cb9bc7086453e280dca278280a280f35b634e487b7160e01b865260418752602486fd5b5162461bcd60e51b8152602081860152601860248201527f41646d696e20616c7265616479207265676973746572656400000000000000006044820152606490fd5b8380fd5b91503461055257602090816003193601126103785761039961111e565b83546001600160a01b03908116913383900361050f57811680875260058552600160ff81868a20015460a01c161515036104d857865260058452600183872001541693846001600160601b0360a01b60085416176008558251946370a0823160e01b865230828701528486602481845afa9586156104ce57879661049b575b50851561048c57849291876044928651988995869463a9059cbb60e01b865285015260248401525af19081156104835750610451578280f35b81813d831161047c575b6104658183611134565b810103126101295751801515036101075738808280f35b503d61045b565b513d85823e3d90fd5b508251630686827b60e51b8152fd5b9095508481813d83116104c7575b6104b38183611134565b810103126104c357519438610418565b8680fd5b503d6104a9565b84513d89823e3d90fd5b835162461bcd60e51b81528087018690526011602482015270151bdad95b881b9bdd08185b1b1bddd959607a1b6044820152606490fd5b835162461bcd60e51b8152808701869052601c60248201527f5468652063616c6c6572206d75737420626520746865206f776e6572000000006044820152606490fd5b8280fd5b8382346101295760028160209361056c366110e9565b9082526006865282822090825285522001549051908152f35b50823461010757602080600319360112610129576001600160a01b0390816105ab61111e565b16908184526005815260019283868620015416916105ca831515611306565b84526005815284842094846105df875461116c565b806106e6575b5084870155805193818552859680546105fd8161116c565b8094880152828116908160001461069e5750600114610647575b867f1adb68f0a540855cafa9d341c1e94a36fa13b8a15ff602507addfe49c0f018d187808b89898301520390a180f35b865282862092965085925b82841061068a57505050820160600193817f1adb68f0a540855cafa9d341c1e94a36fa13b8a15ff602507addfe49c0f018d184610617565b805486850160600152928701928101610652565b60ff191660608881019190915293151560051b870190930197508492507f1adb68f0a540855cafa9d341c1e94a36fa13b8a15ff602507addfe49c0f018d19150859050610617565b601f81116001146106fc575086555b84876105e5565b878252610716601f858420920160051c8201878301611352565b818855556106f5565b8382346101295761072f36611104565b90918215610912578085526020956006875284862084875287528385872054036108cf578186526006875284862084875287526002858720015483111561088157603c8302838104603c148415171561085b5782875260068852858720600019860186811161086e578852885260028688200154810390811161085b5761012c10156107fc57509484957ffc0b6df00175009634ee8493748db715994ef6a2da308acd70658b3b4f3222b1955260068152838620838752815281600285882001558351928352820152a180f35b845162461bcd60e51b8152908101879052603360248201527f4d7573742068617665206120706572696f64206f662033302064617973206265604482015272747765656e20696e7374616c6c6d656e74732160681b6064820152608490fd5b634e487b7160e01b875260118252602487fd5b634e487b7160e01b895260118452602489fd5b845162461bcd60e51b8152908101879052602260248201527f596f752063616e206f6e6c7920706f7374706f6e6520746865207061796d656e604482015261742160f01b6064820152608490fd5b845162461bcd60e51b8152908101879052601e60248201527f496e7374616c6c6d656e74206e756d626572206d7573742065786973742100006044820152606490fd5b835162461bcd60e51b8152602081880152602d60248201527f496e7374616c6c6d656e74206e756d626572206d75737420626520677265617460448201526c6572207468616e207a65726f2160981b6064820152608490fd5b8382346101295761097b36611104565b90918215610b505742821115610af15761012c91828101809111610ade5760019283915b858511156109bf57602088888154916109b78361139f565b905551908152f35b42811115610a8f5781810190818111610a7c5783546002908154918a519360c0850185811067ffffffffffffffff821117610a6757610a6196959492600594928f8f8e918e958252828a52602092838b0193828552838c0195865260608c01978d895260808d01998a5260a08d019a8b52835260068152838320918352522097518855518b8801555190860155516003850155518d840155519101559461139f565b9361099f565b5050634e487b7160e01b8c5260418d5260248cfd5b634e487b7160e01b895260118a52602489fd5b865162461bcd60e51b81526020818b0152602360248201527f5061796d656e742064617465206d75737420626520696e20746865206675747560448201526272652160e81b6064820152608490fd5b634e487b7160e01b865260118752602486fd5b835162461bcd60e51b8152602081880152603360248201527f54686520636c6f73696e67206f66207469746c652073656c6c696e67206d75736044820152727420626520696e20746865206675747572652160681b6064820152608490fd5b835162461bcd60e51b8152602081880152602a60248201527f4e756d626572206f66207061796d656e7473206d7573742062652067726561746044820152696572207468616e20302160b01b6064820152608490fd5b839034610129576020366003190112610129576001600160a01b03919035828116908190036101295781849160ff9352600760205220548351928116835260a01c1615156020820152f35b839034610129578260031936011261012957610c0b61111e565b90602480359167ffffffffffffffff91828411610ede5736602385011215610ede578382013594838611610ecc57875193602096601f1996610c548989601f8501160188611134565b81875236858383010111610ec857818a92868b9301838a0137870101526001600160a01b0391821695610c88871515611306565b8689526005885260019183838c8c20015416610e90578a51916060830183811083821117610e7e578c52878352898301968988528c8401968588528a8d5260058c528d8d209451918251948511610e6d5750508b8b610ce7865461116c565b601f8111610e33575b5050508a91601f8411600114610da757509282610d839693610d969a9996938e9f99967f7afee0f1b802cc0f66c67890e26b4566251859cf2cd8de79b86aed7251d9756a9f92610d9c575b5050600019600383901b1c191690831b1781555b019251166001600160601b0360a01b83541617825551151581549060ff60a01b90151560a01b169060ff60a01b1916179055565b808051958695865285015283019061124c565b0390a180f35b015190508f80610d3b565b848d528b8d2092919084168d5b818110610e1e57509386937f7afee0f1b802cc0f66c67890e26b4566251859cf2cd8de79b86aed7251d9756a9e9f999693610d969c9b989383610d839b9810610e05575b505050811b018155610d4f565b015160001960f88460031b161c191690558f8080610df8565b82840151855593870193928d01928d01610db4565b818388610e5b95522090601f870160051c8201928710610e63575b601f0160051c0190611352565b8b8b8f610cf0565b9091508190610e4e565b634e487b7160e01b8e52604190528cfd5b634e487b7160e01b8c5260418852868cfd5b8a5162461bcd60e51b81528087018a905260138187015272151bdad95b88185b1c9958591e481859191959606a1b6044820152606490fd5b8980fd5b50634e487b7160e01b86526041825285fd5b8580fd5b90833461010757610ef236611104565b60035490939281811015610f5f575050610f286020958584606494610f2f97965260068952818120868252895220015483611369565b0490611392565b907f1323840bbd6e53af646a0046b72ff8ea4144b0492c4f6d3614f8ce899804fd04838251848152a15b51908152f35b9091839594955260066020528383208584526020526005848420015492821561101d575060209550610fae92610fa192610f999204611369565b600154611392565b926064610f288583611369565b91816028821115610feb577f7882c1a4f360824e9d02cee7d2b40d77bf44368aae126f3af401776bf5e824839181519081528486820152a1610f59565b7f43df8b22d3686d15a6e74163ca342c850bc01d74db643db1d546d2bd2a93c9ec9181519081528486820152a1610f59565b634e487b7160e01b815260128752602490fd5b8382346101295760038160209361056c366110e9565b9192503461012957602036600319011261012957356001600160a01b0381169290839003610129576110798315156112ba565b82825260076020528120600160ff825460a01c1615150361012957557fa3b62bc36326052d97ea62d63c3d60308ed4c3ea8ac079dd8499f1e9c4f80c0f8280a280f35b92505034610552576001906020936110d3366110e9565b9082526006865282822090825285522001548152f35b60409060031901126110ff576004359060243590565b600080fd5b60609060031901126110ff57600435906024359060443590565b600435906001600160a01b03821682036110ff57565b90601f8019910116810190811067ffffffffffffffff82111761115657604052565b634e487b7160e01b600052604160045260246000fd5b90600182811c9216801561119c575b602083101461118657565b634e487b7160e01b600052602260045260246000fd5b91607f169161117b565b90604051918260008254926111ba8461116c565b90818452600194858116908160001461122957506001146111e6575b50506111e492500383611134565b565b9093915060005260209081600020936000915b8183106112115750506111e4935082010138806111d6565b855488840185015294850194879450918301916111f9565b9150506111e494506020925060ff191682840152151560051b82010138806111d6565b919082519283825260005b848110611278575050826000602080949584010152601f8019910116010190565b602081830181015184830182015201611257565b9193926112a360409260608552606085019061124c565b6001600160a01b0390951660208401521515910152565b156112c157565b60405162461bcd60e51b815260206004820152601c60248201527f41646d696e2077616c6c65742063616e277420626520656d70747921000000006044820152606490fd5b1561130d57565b60405162461bcd60e51b815260206004820152601c60248201527f546f6b656e20616464726573732063616e6e6f74206265207a65726f000000006044820152606490fd5b81811061135d575050565b60008155600101611352565b8181029291811591840414171561137c57565b634e487b7160e01b600052601160045260246000fd5b9190820180921161137c57565b600019811461137c576001019056fea2646970667358221220205b31180486fc9f8eb5619fc43793a49620863a45493c12b4e750fb83a8194264736f6c63430008140033",
  "linkReferences": {},
  "deployedLinkReferences": {}
}