{
  "_format": "hh-sol-artifact-1",
  "contractName": "HorizonFujiS",
  "sourceName": "contracts/HorizonFujiS.sol",
  "abi": [
    {
      "inputs": [
        {
          "internalType": "address",
          "name": "_router",
          "type": "address"
        },
        {
          "internalType": "address",
          "name": "_linkToken",
          "type": "address"
        }
      ],
      "stateMutability": "nonpayable",
      "type": "constructor"
    },
    {
      "inputs": [
        {
          "internalType": "uint64",
          "name": "destinationChainSelector",
          "type": "uint64"
        }
      ],
      "name": "DestinationChainNotWhitelisted",
      "type": "error"
    },
    {
      "inputs": [
        {
          "internalType": "address",
          "name": "owner",
          "type": "address"
        },
        {
          "internalType": "address",
          "name": "target",
          "type": "address"
        },
        {
          "internalType": "uint256",
          "name": "value",
          "type": "uint256"
        }
      ],
      "name": "FailedToWithdrawEth",
      "type": "error"
    },
    {
      "inputs": [
        {
          "internalType": "address",
          "name": "router",
          "type": "address"
        }
      ],
      "name": "InvalidRouter",
      "type": "error"
    },
    {
      "inputs": [
        {
          "internalType": "uint256",
          "name": "currentBalance",
          "type": "uint256"
        },
        {
          "internalType": "uint256",
          "name": "calculatedFees",
          "type": "uint256"
        }
      ],
      "name": "NotEnoughBalance",
      "type": "error"
    },
    {
      "inputs": [],
      "name": "NothingToWithdraw",
      "type": "error"
    },
    {
      "anonymous": false,
      "inputs": [
        {
          "indexed": true,
          "internalType": "bytes32",
          "name": "messageId",
          "type": "bytes32"
        },
        {
          "indexed": true,
          "internalType": "uint64",
          "name": "sourceChainSelector",
          "type": "uint64"
        },
        {
          "indexed": false,
          "internalType": "address",
          "name": "sender",
          "type": "address"
        },
        {
          "indexed": false,
          "internalType": "string",
          "name": "text",
          "type": "string"
        },
        {
          "indexed": false,
          "internalType": "address",
          "name": "token",
          "type": "address"
        },
        {
          "indexed": false,
          "internalType": "uint256",
          "name": "tokenAmount",
          "type": "uint256"
        }
      ],
      "name": "MessageReceived",
      "type": "event"
    },
    {
      "anonymous": false,
      "inputs": [
        {
          "indexed": true,
          "internalType": "bytes32",
          "name": "messageId",
          "type": "bytes32"
        },
        {
          "indexed": true,
          "internalType": "uint64",
          "name": "destinationChainSelector",
          "type": "uint64"
        },
        {
          "indexed": false,
          "internalType": "address",
          "name": "receiver",
          "type": "address"
        },
        {
          "indexed": false,
          "internalType": "bytes",
          "name": "_data",
          "type": "bytes"
        },
        {
          "indexed": false,
          "internalType": "address",
          "name": "feeToken",
          "type": "address"
        },
        {
          "indexed": false,
          "internalType": "uint256",
          "name": "fees",
          "type": "uint256"
        }
      ],
      "name": "MessageSent",
      "type": "event"
    },
    {
      "inputs": [
        {
          "components": [
            {
              "internalType": "bytes32",
              "name": "messageId",
              "type": "bytes32"
            },
            {
              "internalType": "uint64",
              "name": "sourceChainSelector",
              "type": "uint64"
            },
            {
              "internalType": "bytes",
              "name": "sender",
              "type": "bytes"
            },
            {
              "internalType": "bytes",
              "name": "data",
              "type": "bytes"
            },
            {
              "components": [
                {
                  "internalType": "address",
                  "name": "token",
                  "type": "address"
                },
                {
                  "internalType": "uint256",
                  "name": "amount",
                  "type": "uint256"
                }
              ],
              "internalType": "struct Client.EVMTokenAmount[]",
              "name": "destTokenAmounts",
              "type": "tuple[]"
            }
          ],
          "internalType": "struct Client.Any2EVMMessage",
          "name": "message",
          "type": "tuple"
        }
      ],
      "name": "ccipReceive",
      "outputs": [],
      "stateMutability": "nonpayable",
      "type": "function"
    },
    {
      "inputs": [
        {
          "internalType": "uint64",
          "name": "_destinationChainSelector",
          "type": "uint64"
        }
      ],
      "name": "denylistDestinationChain",
      "outputs": [],
      "stateMutability": "nonpayable",
      "type": "function"
    },
    {
      "inputs": [],
      "name": "getRouter",
      "outputs": [
        {
          "internalType": "address",
          "name": "",
          "type": "address"
        }
      ],
      "stateMutability": "view",
      "type": "function"
    },
    {
      "inputs": [
        {
          "internalType": "uint64",
          "name": "_destinationChainSelector",
          "type": "uint64"
        },
        {
          "internalType": "address",
          "name": "_receiver",
          "type": "address"
        },
        {
          "internalType": "bytes",
          "name": "_data",
          "type": "bytes"
        }
      ],
      "name": "sendMessagePayLINK",
      "outputs": [
        {
          "internalType": "bytes32",
          "name": "messageId",
          "type": "bytes32"
        }
      ],
      "stateMutability": "nonpayable",
      "type": "function"
    },
    {
      "inputs": [
        {
          "internalType": "bytes4",
          "name": "interfaceId",
          "type": "bytes4"
        }
      ],
      "name": "supportsInterface",
      "outputs": [
        {
          "internalType": "bool",
          "name": "",
          "type": "bool"
        }
      ],
      "stateMutability": "pure",
      "type": "function"
    },
    {
      "inputs": [
        {
          "internalType": "uint64",
          "name": "_destinationChainSelector",
          "type": "uint64"
        }
      ],
      "name": "whitelistDestinationChain",
      "outputs": [],
      "stateMutability": "nonpayable",
      "type": "function"
    },
    {
      "inputs": [
        {
          "internalType": "uint64",
          "name": "",
          "type": "uint64"
        }
      ],
      "name": "whitelistedDestinationChains",
      "outputs": [
        {
          "internalType": "bool",
          "name": "",
          "type": "bool"
        }
      ],
      "stateMutability": "view",
      "type": "function"
    },
    {
      "inputs": [
        {
          "internalType": "address",
          "name": "_beneficiary",
          "type": "address"
        }
      ],
      "name": "withdraw",
      "outputs": [],
      "stateMutability": "nonpayable",
      "type": "function"
    },
    {
      "inputs": [
        {
          "internalType": "address",
          "name": "_beneficiary",
          "type": "address"
        },
        {
          "internalType": "address",
          "name": "_token",
          "type": "address"
        }
      ],
      "name": "withdrawToken",
      "outputs": [],
      "stateMutability": "nonpayable",
      "type": "function"
    },
    {
      "stateMutability": "payable",
      "type": "receive"
    }
  ],
  "bytecode": "0x60a0346100bb57601f61102d38819003918201601f19168301916001600160401b038311848410176100c05780849260409485528339810103126100bb57610052602061004b836100d6565b92016100d6565b906001600160a01b0390818116156100a25760805260018060a01b0319911681600554161760055533906003541617600355604051610f4290816100eb823960805181818160a301526105b40152f35b6040516335fdcccd60e21b815260006004820152602490fd5b600080fd5b634e487b7160e01b600052604160045260246000fd5b51906001600160a01b03821682036100bb5756fe608080604052600436101561001d575b50361561001b57600080fd5b005b60003560e01c90816301ffc9a714610bba575080633aeac4e114610ada57806351cff8d914610a3957806373645cff146109ea5780637898d18414610998578063835b347c1461095957806385572ffb14610577578063a30e3770146100d75763b0f479a11461008d573861000f565b346100d25760003660031901126100d2576040517f00000000000000000000000000000000000000000000000000000000000000006001600160a01b03168152602090f35b600080fd5b346100d25760603660031901126100d2576100f0610c39565b6100f8610c23565b6044356001600160401b0381116100d257610117903690600401610cc1565b9160018060a01b0360055416906060608060405161013481610c4f565b82815282602082015282604082015260008382015201526040519260018060a01b0316908160208501526020845261016b84610c6a565b604051602080820152610193816101856040820189610d82565b03601f198101835282610c85565b60405190602082018281106001600160401b038211176105615760405260008252604051956101c187610c6a565b620c350087526020870160008152604051976397a657c960e01b60208a01525160248901525115156044880152604487528660808101106001600160401b03608089011117610561576080870160405261021d60808801610c4f565b608087015260a086015260c08501528260e0850152836101008101526040519263b0f479a160e01b8452602084600481305afa9384156103ff5760009461051d575b506040516320487ded60e01b8152936020858061028360808a018760048401610da7565b03816001600160a01b0385165afa9485156103ff576000956104e9575b506040516370a0823160e01b8152306004820152602081602481865afa9081156103ff576000916104b7575b5085116104385760405163095ea7b360e01b81526001600160a01b03821660048201526024810186905291602090839060449082906000905af19081156103ff5761033d9660209360809361040b575b5060006040518099819582946396f4e9f960e01b8452018860048401610da7565b03926001600160a01b03165af19384156103ff576000946103c8575b5060209484926001600160401b037f3d8a9f055772202d2c3c1fddbad930d3dbe588d8692b75b84cee0719462829119360018060a01b0360055416966103b0604051958695865260808c8701526080860190610d82565b976040850152606084015216940390a3604051908152f35b909193506020813d6020116103f7575b816103e560209383610c85565b810103126100d2575192906020610359565b3d91506103d8565b6040513d6000823e3d90fd5b61042a90853d8711610431575b6104228183610c85565b810190610e73565b508961031c565b503d610418565b6040516370a0823160e01b815230600482015285602082602481875afa9081156103ff57600091610482575b6044925060405191634787a10360e11b835260048301526024820152fd5b90506020823d6020116104af575b8161049d60209383610c85565b810103126100d2576044915190610464565b3d9150610490565b90506020813d6020116104e1575b816104d260209383610c85565b810103126100d25751886102cc565b3d91506104c5565b9094506020813d602011610515575b8161050560209383610c85565b810103126100d2575193876102a0565b3d91506104f8565b9093506020813d602011610559575b8161053960209383610c85565b810103126100d257516001600160a01b03811681036100d257928661025f565b3d915061052c565b634e487b7160e01b600052604160045260246000fd5b346100d257602060031981813601126100d2576004356001600160401b03918282116100d25760a09082360301126100d2576001600160a01b03927f00000000000000000000000000000000000000000000000000000000000000008416330361094157604051936105e885610c4f565b826004013585526024808401359480861686036100d25783870195865260448501358181116100d2576106219060043691880101610cc1565b966040810197885260648601358281116100d2576106459060043691890101610cc1565b95606082019687526084810135908382116100d2570192366023850112156100d25760048401359383851161092c5760405194610687888260051b0187610c85565b808652828887019160061b830101913683116100d2578301905b8282106108ef575050506080820193845281516000556106ca8751878082518301019101610e8b565b8051908482116108da576001928354908482811c921680156108d0575b8a8310146108bc57509081601f84931161084c575b508890601f83116001146107cc576000926107c1575b5050600019600383901b1c191690821b1790555b51955116955183818051810103126100d257830151918083168093036100d2576107b1846107966107817f90ec910a8f80bb04e184a806e2ae6f8786ef2ae898859a3180f953397edc12019851838082518301019101610e8b565b9361078c8651610ee9565b5151169451610ee9565b51015191608060405196879687528601526080850190610d82565b91604084015260608301520390a3005b015190508b80610712565b90849350601f19831691846000527fb10e2d527612073b26eecdfd717e6a320cf44b4afac2b0732d9fcbe2b7fa0cf69260005b8c828210610836575050841161081d575b505050811b019055610726565b015160001960f88460031b161c191690558b8080610810565b83850151865588979095019493840193016107ff565b909150836000527fb10e2d527612073b26eecdfd717e6a320cf44b4afac2b0732d9fcbe2b7fa0cf6601f840160051c8101918a85106108b2575b84939291601f87920160051c01915b8281106108a35750506106fc565b60008155859450869101610895565b9091508190610886565b634e487b7160e01b60009081526022600452fd5b91607f16916106e7565b82634e487b7160e01b60005260416004526000fd5b6040823603126100d2576040519061090682610c6a565b82359089821682036100d257828b926040945282850135838201528152019101906106a1565b50634e487b7160e01b60009081526041600452fd5b6040516335fdcccd60e21b8152336004820152602490fd5b346100d25760203660031901126100d2576001600160401b0361097a610c39565b166000526004602052602060ff604060002054166040519015158152f35b346100d25760203660031901126100d2576001600160401b036109b9610c39565b6109ce60018060a01b03600354163314610d08565b166000908152600460205260409020805460ff19166001179055005b346100d25760203660031901126100d2576001600160401b03610a0b610c39565b610a2060018060a01b03600354163314610d08565b166000908152600460205260409020805460ff19169055005b346100d25760203660031901126100d257610a52610c0d565b47908115610ac857600080808085855af13d15610ac3573d610a7381610ca6565b90610a816040519283610c85565b8152600060203d92013e5b15610a9357005b604051639d11f56360e01b81523360048201526001600160a01b0390911660248201526044810191909152606490fd5b610a8c565b604051630686827b60e51b8152600490fd5b346100d25760403660031901126100d257610af3610c0d565b6001600160a01b03610b03610c23565b16604051916370a0823160e01b83523060048401526020928381602481865afa9081156103ff57600091610b8d575b508015610ac85760405163a9059cbb60e01b81526001600160a01b039290921660048301526024820152908290829060449082906000905af180156103ff57610b7757005b8161001b92903d10610431576104228183610c85565b90508381813d8311610bb3575b610ba48183610c85565b810103126100d2575184610b32565b503d610b9a565b346100d25760203660031901126100d2576004359063ffffffff60e01b82168092036100d2576020916385572ffb60e01b8114908115610bfc575b5015158152f35b6301ffc9a760e01b14905083610bf5565b600435906001600160a01b03821682036100d257565b602435906001600160a01b03821682036100d257565b600435906001600160401b03821682036100d257565b60a081019081106001600160401b0382111761056157604052565b604081019081106001600160401b0382111761056157604052565b90601f801991011681019081106001600160401b0382111761056157604052565b6001600160401b03811161056157601f01601f191660200190565b81601f820112156100d257803590610cd882610ca6565b92610ce66040519485610c85565b828452602083830101116100d257816000926020809301838601378301015290565b15610d0f57565b60405162461bcd60e51b815260206004820152602260248201527f4f6e6c79204f776e65722063616e2063616c6c20746869732066756e6374696f6044820152616e2160f01b6064820152608490fd5b60005b838110610d725750506000910152565b8181015183820152602001610d62565b90602091610d9b81518092818552858086019101610d5f565b601f01601f1916010190565b906001600160401b039093929316815260406020918183820152610dd6855160a08484015260e0830190610d82565b91610df28487015193603f199485858303016060860152610d82565b8187015194848483030160808501528080875193848152019601926000905b838210610e4a57505050505060c06080610e47959660018060a01b0360608201511660a085015201519282850301910152610d82565b90565b845180516001600160a01b03168952830151888401529687019693820193600190910190610e11565b908160209103126100d2575180151581036100d25790565b6020818303126100d2578051906001600160401b0382116100d2570181601f820112156100d2578051610ebd81610ca6565b92610ecb6040519485610c85565b818452602082840101116100d257610e479160208085019101610d5f565b805115610ef65760200190565b634e487b7160e01b600052603260045260246000fdfea264697066735822122053d784c7b8b0502db2209a590e69a6853b5069b51b934a81bb02eb828f6606c264736f6c63430008140033",
  "linkReferences": {},
  "deployedLinkReferences": {}
}