{
  "_format": "hh-sol-artifact-1",
  "contractName": "HorizonFujiS",
  "sourceName": "contracts/HorizonFujiS.sol",
  "abi": [
    {
      "inputs": [
        {
          "internalType": "address",
          "name": "_router",
          "type": "address"
        },
        {
          "internalType": "address",
          "name": "_linkToken",
          "type": "address"
        }
      ],
      "stateMutability": "nonpayable",
      "type": "constructor"
    },
    {
      "inputs": [
        {
          "internalType": "uint64",
          "name": "destinationChainSelector",
          "type": "uint64"
        }
      ],
      "name": "DestinationChainNotWhitelisted",
      "type": "error"
    },
    {
      "inputs": [
        {
          "internalType": "address",
          "name": "owner",
          "type": "address"
        },
        {
          "internalType": "address",
          "name": "target",
          "type": "address"
        },
        {
          "internalType": "uint256",
          "name": "value",
          "type": "uint256"
        }
      ],
      "name": "FailedToWithdrawEth",
      "type": "error"
    },
    {
      "inputs": [
        {
          "internalType": "address",
          "name": "router",
          "type": "address"
        }
      ],
      "name": "InvalidRouter",
      "type": "error"
    },
    {
      "inputs": [
        {
          "internalType": "uint256",
          "name": "currentBalance",
          "type": "uint256"
        },
        {
          "internalType": "uint256",
          "name": "calculatedFees",
          "type": "uint256"
        }
      ],
      "name": "NotEnoughBalance",
      "type": "error"
    },
    {
      "inputs": [],
      "name": "NothingToWithdraw",
      "type": "error"
    },
    {
      "anonymous": false,
      "inputs": [
        {
          "indexed": false,
          "internalType": "string",
          "name": "_blockchainName",
          "type": "string"
        },
        {
          "indexed": false,
          "internalType": "address",
          "name": "_receiverAddress",
          "type": "address"
        }
      ],
      "name": "CCIPReceiverAdded",
      "type": "event"
    },
    {
      "anonymous": false,
      "inputs": [
        {
          "indexed": false,
          "internalType": "address",
          "name": "_receiverAddress",
          "type": "address"
        }
      ],
      "name": "CCIPReceiverRemoved",
      "type": "event"
    },
    {
      "anonymous": false,
      "inputs": [
        {
          "indexed": true,
          "internalType": "bytes32",
          "name": "messageId",
          "type": "bytes32"
        },
        {
          "indexed": true,
          "internalType": "uint64",
          "name": "sourceChainSelector",
          "type": "uint64"
        },
        {
          "indexed": false,
          "internalType": "address",
          "name": "sender",
          "type": "address"
        },
        {
          "indexed": false,
          "internalType": "string",
          "name": "text",
          "type": "string"
        },
        {
          "indexed": false,
          "internalType": "address",
          "name": "token",
          "type": "address"
        },
        {
          "indexed": false,
          "internalType": "uint256",
          "name": "tokenAmount",
          "type": "uint256"
        }
      ],
      "name": "MessageReceived",
      "type": "event"
    },
    {
      "anonymous": false,
      "inputs": [
        {
          "indexed": true,
          "internalType": "bytes32",
          "name": "messageId",
          "type": "bytes32"
        },
        {
          "indexed": true,
          "internalType": "uint64",
          "name": "destinationChainSelector",
          "type": "uint64"
        },
        {
          "indexed": false,
          "internalType": "address",
          "name": "receiver",
          "type": "address"
        },
        {
          "indexed": false,
          "internalType": "bytes",
          "name": "_data",
          "type": "bytes"
        },
        {
          "indexed": false,
          "internalType": "address",
          "name": "feeToken",
          "type": "address"
        },
        {
          "indexed": false,
          "internalType": "uint256",
          "name": "fees",
          "type": "uint256"
        }
      ],
      "name": "MessageSent",
      "type": "event"
    },
    {
      "inputs": [
        {
          "internalType": "string",
          "name": "_blockchainName",
          "type": "string"
        },
        {
          "internalType": "address",
          "name": "_receiverAddress",
          "type": "address"
        }
      ],
      "name": "addReceiver",
      "outputs": [],
      "stateMutability": "nonpayable",
      "type": "function"
    },
    {
      "inputs": [
        {
          "internalType": "address",
          "name": "receiverAddress",
          "type": "address"
        }
      ],
      "name": "ccipReceicers",
      "outputs": [
        {
          "internalType": "string",
          "name": "blockchainName",
          "type": "string"
        },
        {
          "internalType": "address",
          "name": "receiverAddress",
          "type": "address"
        },
        {
          "internalType": "bool",
          "name": "isReceiver",
          "type": "bool"
        }
      ],
      "stateMutability": "view",
      "type": "function"
    },
    {
      "inputs": [
        {
          "components": [
            {
              "internalType": "bytes32",
              "name": "messageId",
              "type": "bytes32"
            },
            {
              "internalType": "uint64",
              "name": "sourceChainSelector",
              "type": "uint64"
            },
            {
              "internalType": "bytes",
              "name": "sender",
              "type": "bytes"
            },
            {
              "internalType": "bytes",
              "name": "data",
              "type": "bytes"
            },
            {
              "components": [
                {
                  "internalType": "address",
                  "name": "token",
                  "type": "address"
                },
                {
                  "internalType": "uint256",
                  "name": "amount",
                  "type": "uint256"
                }
              ],
              "internalType": "struct Client.EVMTokenAmount[]",
              "name": "destTokenAmounts",
              "type": "tuple[]"
            }
          ],
          "internalType": "struct Client.Any2EVMMessage",
          "name": "message",
          "type": "tuple"
        }
      ],
      "name": "ccipReceive",
      "outputs": [],
      "stateMutability": "nonpayable",
      "type": "function"
    },
    {
      "inputs": [
        {
          "internalType": "uint64",
          "name": "_destinationChainSelector",
          "type": "uint64"
        }
      ],
      "name": "denylistDestinationChain",
      "outputs": [],
      "stateMutability": "nonpayable",
      "type": "function"
    },
    {
      "inputs": [],
      "name": "getRouter",
      "outputs": [
        {
          "internalType": "address",
          "name": "",
          "type": "address"
        }
      ],
      "stateMutability": "view",
      "type": "function"
    },
    {
      "inputs": [
        {
          "internalType": "address",
          "name": "_receiverAddress",
          "type": "address"
        }
      ],
      "name": "removeReceiver",
      "outputs": [],
      "stateMutability": "nonpayable",
      "type": "function"
    },
    {
      "inputs": [
        {
          "internalType": "uint64",
          "name": "_destinationChainSelector",
          "type": "uint64"
        },
        {
          "internalType": "address",
          "name": "_receiver",
          "type": "address"
        },
        {
          "internalType": "bytes",
          "name": "_data",
          "type": "bytes"
        }
      ],
      "name": "sendMessagePayLINK",
      "outputs": [
        {
          "internalType": "bytes32",
          "name": "messageId",
          "type": "bytes32"
        }
      ],
      "stateMutability": "nonpayable",
      "type": "function"
    },
    {
      "inputs": [
        {
          "internalType": "bytes4",
          "name": "interfaceId",
          "type": "bytes4"
        }
      ],
      "name": "supportsInterface",
      "outputs": [
        {
          "internalType": "bool",
          "name": "",
          "type": "bool"
        }
      ],
      "stateMutability": "pure",
      "type": "function"
    },
    {
      "inputs": [
        {
          "internalType": "uint64",
          "name": "_destinationChainSelector",
          "type": "uint64"
        }
      ],
      "name": "whitelistDestinationChain",
      "outputs": [],
      "stateMutability": "nonpayable",
      "type": "function"
    },
    {
      "inputs": [
        {
          "internalType": "uint64",
          "name": "",
          "type": "uint64"
        }
      ],
      "name": "whitelistedDestinationChains",
      "outputs": [
        {
          "internalType": "bool",
          "name": "",
          "type": "bool"
        }
      ],
      "stateMutability": "view",
      "type": "function"
    },
    {
      "inputs": [
        {
          "internalType": "address",
          "name": "_beneficiary",
          "type": "address"
        }
      ],
      "name": "withdraw",
      "outputs": [],
      "stateMutability": "nonpayable",
      "type": "function"
    },
    {
      "inputs": [
        {
          "internalType": "address",
          "name": "_beneficiary",
          "type": "address"
        },
        {
          "internalType": "address",
          "name": "_token",
          "type": "address"
        }
      ],
      "name": "withdrawToken",
      "outputs": [],
      "stateMutability": "nonpayable",
      "type": "function"
    },
    {
      "stateMutability": "payable",
      "type": "receive"
    }
  ],
  "bytecode": "0x60a0346100bb57601f6115e538819003918201601f19168301916001600160401b038311848410176100c05780849260409485528339810103126100bb57610052602061004b836100d6565b92016100d6565b906001600160a01b0390818116156100a25760805260018060a01b03199116816006541617600655339060035416176003556040516114fa90816100eb823960805181818160c401526106db0152f35b6040516335fdcccd60e21b815260006004820152602490fd5b600080fd5b634e487b7160e01b600052604160045260246000fd5b51906001600160a01b03821682036100bb5756fe608080604052600436101561001d575b50361561001b57600080fd5b005b60003560e01c90816301ffc9a7146110ca575080631d5e294714610e3f5780631f27166d14610d505780633aeac4e114610c7057806351cff8d914610bcf5780636552d8b414610aef57806373645cff14610aa05780637898d18414610a4e578063835b347c14610a0f57806385572ffb1461069e578063a30e3770146100f85763b0f479a1146100ae573861000f565b346100f35760003660031901126100f3576040517f00000000000000000000000000000000000000000000000000000000000000006001600160a01b03168152602090f35b600080fd5b346100f35760603660031901126100f357610111611274565b6101196111c6565b6044356001600160401b0381116100f35761013890369060040161128a565b6001600160a01b0382811660009081526005602052604090206001015491939116156106595760018060a01b0382166000526005602052600160ff816040600020015460a01c161515036106065760018060a01b038216600052600560205260018060a01b03600160406000200154169160018060a01b036006541691606060806040516101c58161111d565b8281528260208201528260408201526000838201520152604051936020850152602084526101f284611138565b60405160208082015261021a8161020c604082018961124f565b03601f198101835282611153565b60405190602082018281106001600160401b038211176105f057604052600082526040519561024887611138565b620c350087526020870160008152604051976397a657c960e01b60208a01525160248901525115156044880152604487528660808101106001600160401b036080890111176105f057608087016040526102a46080880161111d565b608087015260a086015260c08501528260e0850152836101008101526040519263b0f479a160e01b8452602084600481305afa93841561048e576000946105ac575b506040516320487ded60e01b8152936020858061030a60808a018760048401611362565b03816001600160a01b0385165afa94851561048e57600095610578575b506040516370a0823160e01b8152306004820152602081602481865afa90811561048e57600091610546575b5085116104c75760405163095ea7b360e01b81526001600160a01b03821660048201526024810186905291602090839060449082906000905af190811561048e576103c49660209360809361049a575b5060006040518099819582946396f4e9f960e01b8452018860048401611362565b03926001600160a01b03165af193841561048e57600094610457575b5060209484926001600160401b037f3d8a9f055772202d2c3c1fddbad930d3dbe588d8692b75b84cee0719462829119360018060a01b03600654169661043f60405195869560018060a01b0316865260808c870152608086019061124f565b976040850152606084015216940390a3604051908152f35b909193506020813d602011610486575b8161047460209383611153565b810103126100f35751929060206103e0565b3d9150610467565b6040513d6000823e3d90fd5b6104b990853d87116104c0575b6104b18183611153565b81019061142b565b50896103a3565b503d6104a7565b6040516370a0823160e01b815230600482015285602082602481875afa90811561048e57600091610511575b6044925060405191634787a10360e11b835260048301526024820152fd5b90506020823d60201161053e575b8161052c60209383611153565b810103126100f35760449151906104f3565b3d915061051f565b90506020813d602011610570575b8161056160209383611153565b810103126100f3575188610353565b3d9150610554565b9094506020813d6020116105a4575b8161059460209383611153565b810103126100f357519387610327565b3d9150610587565b9093506020813d6020116105e8575b816105c860209383611153565b810103126100f357516001600160a01b03811681036100f35792866102e6565b3d91506105bb565b634e487b7160e01b600052604160045260246000fd5b60405162461bcd60e51b815260206004820152602560248201527f54686973207265636569766572206973206e6f742077686974656c6973746564604482015264207965742160d81b6064820152608490fd5b60405162461bcd60e51b815260206004820152601f60248201527f456e74657220612076616c6964207265636569766572206164647265737321006044820152606490fd5b346100f357600319602036820181136100f3576004356001600160401b03928382116100f35760a09082360301126100f3576001600160a01b03917f0000000000000000000000000000000000000000000000000000000000000000831633036109f7576040519261070f8461111d565b8260040135845260248301359385851685036100f35782810194855260448401358681116100f357610747906004369187010161128a565b956040820196875260648501358181116100f35761076b906004369188010161128a565b94606083019586526084810135908282116100f3570191366023840112156100f3576004830135928284116105f057604051936107ad878260051b0186611153565b80855260248786019160061b830101913683116100f357602401905b8282106109ba575050506080810192835280516000556107f28651868082518301019101611443565b80518381116105f0578060019261080984546111f2565b601f8111610962575b508890601f83116001146108e2576000926108d7575b5050600019600383901b1c191690821b1790555b51955116955183818051810103126100f357830151918083168093036100f3576108c7846108ac6108977f90ec910a8f80bb04e184a806e2ae6f8786ef2ae898859a3180f953397edc12019851838082518301019101611443565b936108a286516114a1565b51511694516114a1565b5101519160806040519687968752860152608085019061124f565b91604084015260608301520390a3005b015190508b80610828565b90849350601f19831691846000527fb10e2d527612073b26eecdfd717e6a320cf44b4afac2b0732d9fcbe2b7fa0cf69260005b8c82821061094c5750508411610933575b505050811b01905561083c565b015160001960f88460031b161c191690558b8080610926565b8385015186558897909501949384019301610915565b6109aa90856000527fb10e2d527612073b26eecdfd717e6a320cf44b4afac2b0732d9fcbe2b7fa0cf6601f850160051c8101918c86106109b0575b601f0160051c019061134b565b8c610812565b909150819061099d565b6040823603126100f357604051906109d182611138565b82359088821682036100f357828a926040945282850135838201528152019101906107c9565b6040516335fdcccd60e21b8152336004820152602490fd5b346100f35760203660031901126100f3576001600160401b03610a30611274565b166000526004602052602060ff604060002054166040519015158152f35b346100f35760203660031901126100f3576001600160401b03610a6f611274565b610a8460018060a01b036003541633146112a8565b166000908152600460205260409020805460ff19166001179055005b346100f35760203660031901126100f3576001600160401b03610ac1611274565b610ad660018060a01b036003541633146112a8565b166000908152600460205260409020805460ff19169055005b346100f35760203660031901126100f3577fc98322fddcb9467a648bda840e8c0844a6a420e0a62af038077f0de932e729666020610b2b6111dc565b6003546001600160a01b039190610b4590831633146112a8565b168060005260058252610b69600160ff816040600020015460a01c161515146112ff565b80600052600582526000600160408220610b8381546111f2565b80610b95575b500155604051908152a1005b601f81118314610baa57508281555b86610b89565b8390828252610bc6601f888420920160051c820185830161134b565b81835555610ba4565b346100f35760203660031901126100f357610be86111dc565b47908115610c5e57600080808085855af13d15610c59573d610c0981611174565b90610c176040519283611153565b8152600060203d92013e5b15610c2957005b604051639d11f56360e01b81523360048201526001600160a01b0390911660248201526044810191909152606490fd5b610c22565b604051630686827b60e51b8152600490fd5b346100f35760403660031901126100f357610c896111dc565b6001600160a01b03610c996111c6565b16604051916370a0823160e01b83523060048401526020928381602481865afa90811561048e57600091610d23575b508015610c5e5760405163a9059cbb60e01b81526001600160a01b039290921660048301526024820152908290829060449082906000905af1801561048e57610d0d57005b8161001b92903d106104c0576104b18183611153565b90508381813d8311610d49575b610d3a8183611153565b810103126100f3575184610cc8565b503d610d30565b346100f3576020806003193601126100f3576001600160a01b0380610d736111dc565b166000526005825260406000209060405191600090805491610d94836111f2565b808652600193808516908115610e235750600114610def575b5091610dd99591610dc28660ff950387611153565b01549060405195869560608752606087019061124f565b9382169085015260a01c16151560408301520390f35b60008381528781209092505b818310610e1057505084018501610dd9610dad565b8054878401890152918701918401610dfb565b60ff19168789015250151560051b850186019050610dd9610dad565b346100f35760403660031901126100f3576001600160401b036004358181116100f357366023820112156100f357610e8190369060248160040135910161118f565b610e896111c6565b6003546001600160a01b03918291610ea490831633146112a8565b16801561108c578060005260209160058352600190610ed060ff836040600020015460a01c16156112ff565b6040519060608201828110888211176105f0576040528582528482019284845260408301928184528560005260058752604060002090519889519081116105f057610f1b82546111f2565b601f811161105c575b5087601f8211600114610fce579080610fba9a99989796959493927f619facc3344a864638bdf6b94faebe32fea796eccc10ab263d90da8b44c42be49c600092610fc3575b5050600019600383901b1c191690831b1781555b0192511682549160ff60a01b9051151560a01b16916affffffffffffffffffffff60a81b161717905560405193849360408552604085019061124f565b918301520390a1005b015190508c80610f69565b601f1982169083600052896000209160005b81811061104757509183917f619facc3344a864638bdf6b94faebe32fea796eccc10ab263d90da8b44c42be49d879695610fba9e9d9c9b9a9998951061102e575b505050811b018155610f7d565b015160001960f88460031b161c191690558c8080611021565b8d830151845592860192918b01918b01610fe0565b611086908360005289600020601f840160051c8101918b85106109b057601f0160051c019061134b565b8a610f24565b60405162461bcd60e51b8152602060048201526016602482015275456e74657220612076616c696420616464726573732160501b6044820152606490fd5b346100f35760203660031901126100f3576004359063ffffffff60e01b82168092036100f3576020916385572ffb60e01b811490811561110c575b5015158152f35b6301ffc9a760e01b14905083611105565b60a081019081106001600160401b038211176105f057604052565b604081019081106001600160401b038211176105f057604052565b90601f801991011681019081106001600160401b038211176105f057604052565b6001600160401b0381116105f057601f01601f191660200190565b92919261119b82611174565b916111a96040519384611153565b8294818452818301116100f3578281602093846000960137010152565b602435906001600160a01b03821682036100f357565b600435906001600160a01b03821682036100f357565b90600182811c92168015611222575b602083101461120c57565b634e487b7160e01b600052602260045260246000fd5b91607f1691611201565b60005b83811061123f5750506000910152565b818101518382015260200161122f565b906020916112688151809281855285808601910161122c565b601f01601f1916010190565b600435906001600160401b03821682036100f357565b9080601f830112156100f3578160206112a59335910161118f565b90565b156112af57565b60405162461bcd60e51b815260206004820152602260248201527f4f6e6c79204f776e65722063616e2063616c6c20746869732066756e6374696f6044820152616e2160f01b6064820152608490fd5b1561130657565b60405162461bcd60e51b815260206004820152601f60248201527f526563656976657220697320616c7265616479207265676973746572656421006044820152606490fd5b818110611356575050565b6000815560010161134b565b906001600160401b039093929316815260406020918183820152611391855160a08484015260e083019061124f565b916113ad8487015193603f19948585830301606086015261124f565b8187015194848483030160808501528080875193848152019601926000905b83821061140257505050505060c060806112a5959660018060a01b0360608201511660a08501520151928285030191015261124f565b845180516001600160a01b031689528301518884015296870196938201936001909101906113cc565b908160209103126100f3575180151581036100f35790565b6020818303126100f3578051906001600160401b0382116100f3570181601f820112156100f357805161147581611174565b926114836040519485611153565b818452602082840101116100f3576112a5916020808501910161122c565b8051156114ae5760200190565b634e487b7160e01b600052603260045260246000fdfea2646970667358221220f0128c6531ca8be5d1ba7f2efabdaf97c63d582fb74a9a9422ff2b3e6a2edc0764736f6c63430008140033",
  "linkReferences": {},
  "deployedLinkReferences": {}
}