{
  "_format": "hh-sol-artifact-1",
  "contractName": "HorizonReceipt",
  "sourceName": "contracts/HorizonReceipt.sol",
  "abi": [
    {
      "inputs": [
        {
          "internalType": "address",
          "name": "initialOwner",
          "type": "address"
        }
      ],
      "stateMutability": "nonpayable",
      "type": "constructor"
    },
    {
      "inputs": [
        {
          "internalType": "address",
          "name": "sender",
          "type": "address"
        },
        {
          "internalType": "uint256",
          "name": "tokenId",
          "type": "uint256"
        },
        {
          "internalType": "address",
          "name": "owner",
          "type": "address"
        }
      ],
      "name": "ERC721IncorrectOwner",
      "type": "error"
    },
    {
      "inputs": [
        {
          "internalType": "address",
          "name": "operator",
          "type": "address"
        },
        {
          "internalType": "uint256",
          "name": "tokenId",
          "type": "uint256"
        }
      ],
      "name": "ERC721InsufficientApproval",
      "type": "error"
    },
    {
      "inputs": [
        {
          "internalType": "address",
          "name": "approver",
          "type": "address"
        }
      ],
      "name": "ERC721InvalidApprover",
      "type": "error"
    },
    {
      "inputs": [
        {
          "internalType": "address",
          "name": "operator",
          "type": "address"
        }
      ],
      "name": "ERC721InvalidOperator",
      "type": "error"
    },
    {
      "inputs": [
        {
          "internalType": "address",
          "name": "owner",
          "type": "address"
        }
      ],
      "name": "ERC721InvalidOwner",
      "type": "error"
    },
    {
      "inputs": [
        {
          "internalType": "address",
          "name": "receiver",
          "type": "address"
        }
      ],
      "name": "ERC721InvalidReceiver",
      "type": "error"
    },
    {
      "inputs": [
        {
          "internalType": "address",
          "name": "sender",
          "type": "address"
        }
      ],
      "name": "ERC721InvalidSender",
      "type": "error"
    },
    {
      "inputs": [
        {
          "internalType": "uint256",
          "name": "tokenId",
          "type": "uint256"
        }
      ],
      "name": "ERC721NonexistentToken",
      "type": "error"
    },
    {
      "inputs": [
        {
          "internalType": "address",
          "name": "owner",
          "type": "address"
        }
      ],
      "name": "OwnableInvalidOwner",
      "type": "error"
    },
    {
      "inputs": [
        {
          "internalType": "address",
          "name": "account",
          "type": "address"
        }
      ],
      "name": "OwnableUnauthorizedAccount",
      "type": "error"
    },
    {
      "anonymous": false,
      "inputs": [
        {
          "indexed": true,
          "internalType": "address",
          "name": "owner",
          "type": "address"
        },
        {
          "indexed": true,
          "internalType": "address",
          "name": "approved",
          "type": "address"
        },
        {
          "indexed": true,
          "internalType": "uint256",
          "name": "tokenId",
          "type": "uint256"
        }
      ],
      "name": "Approval",
      "type": "event"
    },
    {
      "anonymous": false,
      "inputs": [
        {
          "indexed": true,
          "internalType": "address",
          "name": "owner",
          "type": "address"
        },
        {
          "indexed": true,
          "internalType": "address",
          "name": "operator",
          "type": "address"
        },
        {
          "indexed": false,
          "internalType": "bool",
          "name": "approved",
          "type": "bool"
        }
      ],
      "name": "ApprovalForAll",
      "type": "event"
    },
    {
      "anonymous": false,
      "inputs": [
        {
          "indexed": false,
          "internalType": "uint256",
          "name": "_fromTokenId",
          "type": "uint256"
        },
        {
          "indexed": false,
          "internalType": "uint256",
          "name": "_toTokenId",
          "type": "uint256"
        }
      ],
      "name": "BatchMetadataUpdate",
      "type": "event"
    },
    {
      "anonymous": false,
      "inputs": [
        {
          "indexed": false,
          "internalType": "uint256",
          "name": "_tokenId",
          "type": "uint256"
        }
      ],
      "name": "MetadataUpdate",
      "type": "event"
    },
    {
      "anonymous": false,
      "inputs": [
        {
          "indexed": true,
          "internalType": "address",
          "name": "previousOwner",
          "type": "address"
        },
        {
          "indexed": true,
          "internalType": "address",
          "name": "newOwner",
          "type": "address"
        }
      ],
      "name": "OwnershipTransferred",
      "type": "event"
    },
    {
      "anonymous": false,
      "inputs": [
        {
          "indexed": true,
          "internalType": "address",
          "name": "from",
          "type": "address"
        },
        {
          "indexed": true,
          "internalType": "address",
          "name": "to",
          "type": "address"
        },
        {
          "indexed": true,
          "internalType": "uint256",
          "name": "tokenId",
          "type": "uint256"
        }
      ],
      "name": "Transfer",
      "type": "event"
    },
    {
      "inputs": [
        {
          "internalType": "address",
          "name": "to",
          "type": "address"
        },
        {
          "internalType": "uint256",
          "name": "tokenId",
          "type": "uint256"
        }
      ],
      "name": "approve",
      "outputs": [],
      "stateMutability": "nonpayable",
      "type": "function"
    },
    {
      "inputs": [
        {
          "internalType": "address",
          "name": "owner",
          "type": "address"
        }
      ],
      "name": "balanceOf",
      "outputs": [
        {
          "internalType": "uint256",
          "name": "",
          "type": "uint256"
        }
      ],
      "stateMutability": "view",
      "type": "function"
    },
    {
      "inputs": [
        {
          "internalType": "uint256",
          "name": "tokenId",
          "type": "uint256"
        }
      ],
      "name": "burn",
      "outputs": [],
      "stateMutability": "nonpayable",
      "type": "function"
    },
    {
      "inputs": [
        {
          "internalType": "uint256",
          "name": "tokenId",
          "type": "uint256"
        }
      ],
      "name": "getApproved",
      "outputs": [
        {
          "internalType": "address",
          "name": "",
          "type": "address"
        }
      ],
      "stateMutability": "view",
      "type": "function"
    },
    {
      "inputs": [
        {
          "internalType": "address",
          "name": "owner",
          "type": "address"
        },
        {
          "internalType": "address",
          "name": "operator",
          "type": "address"
        }
      ],
      "name": "isApprovedForAll",
      "outputs": [
        {
          "internalType": "bool",
          "name": "",
          "type": "bool"
        }
      ],
      "stateMutability": "view",
      "type": "function"
    },
    {
      "inputs": [],
      "name": "name",
      "outputs": [
        {
          "internalType": "string",
          "name": "",
          "type": "string"
        }
      ],
      "stateMutability": "view",
      "type": "function"
    },
    {
      "inputs": [],
      "name": "owner",
      "outputs": [
        {
          "internalType": "address",
          "name": "",
          "type": "address"
        }
      ],
      "stateMutability": "view",
      "type": "function"
    },
    {
      "inputs": [
        {
          "internalType": "uint256",
          "name": "tokenId",
          "type": "uint256"
        }
      ],
      "name": "ownerOf",
      "outputs": [
        {
          "internalType": "address",
          "name": "",
          "type": "address"
        }
      ],
      "stateMutability": "view",
      "type": "function"
    },
    {
      "inputs": [],
      "name": "renounceOwnership",
      "outputs": [],
      "stateMutability": "nonpayable",
      "type": "function"
    },
    {
      "inputs": [
        {
          "internalType": "address",
          "name": "to",
          "type": "address"
        },
        {
          "internalType": "string",
          "name": "uri",
          "type": "string"
        }
      ],
      "name": "safeMint",
      "outputs": [
        {
          "internalType": "uint256",
          "name": "",
          "type": "uint256"
        }
      ],
      "stateMutability": "nonpayable",
      "type": "function"
    },
    {
      "inputs": [
        {
          "internalType": "address",
          "name": "from",
          "type": "address"
        },
        {
          "internalType": "address",
          "name": "to",
          "type": "address"
        },
        {
          "internalType": "uint256",
          "name": "tokenId",
          "type": "uint256"
        }
      ],
      "name": "safeTransferFrom",
      "outputs": [],
      "stateMutability": "nonpayable",
      "type": "function"
    },
    {
      "inputs": [
        {
          "internalType": "address",
          "name": "from",
          "type": "address"
        },
        {
          "internalType": "address",
          "name": "to",
          "type": "address"
        },
        {
          "internalType": "uint256",
          "name": "tokenId",
          "type": "uint256"
        },
        {
          "internalType": "bytes",
          "name": "data",
          "type": "bytes"
        }
      ],
      "name": "safeTransferFrom",
      "outputs": [],
      "stateMutability": "nonpayable",
      "type": "function"
    },
    {
      "inputs": [
        {
          "internalType": "address",
          "name": "operator",
          "type": "address"
        },
        {
          "internalType": "bool",
          "name": "approved",
          "type": "bool"
        }
      ],
      "name": "setApprovalForAll",
      "outputs": [],
      "stateMutability": "nonpayable",
      "type": "function"
    },
    {
      "inputs": [
        {
          "internalType": "bytes4",
          "name": "interfaceId",
          "type": "bytes4"
        }
      ],
      "name": "supportsInterface",
      "outputs": [
        {
          "internalType": "bool",
          "name": "",
          "type": "bool"
        }
      ],
      "stateMutability": "view",
      "type": "function"
    },
    {
      "inputs": [],
      "name": "symbol",
      "outputs": [
        {
          "internalType": "string",
          "name": "",
          "type": "string"
        }
      ],
      "stateMutability": "view",
      "type": "function"
    },
    {
      "inputs": [
        {
          "internalType": "uint256",
          "name": "tokenId",
          "type": "uint256"
        }
      ],
      "name": "tokenURI",
      "outputs": [
        {
          "internalType": "string",
          "name": "",
          "type": "string"
        }
      ],
      "stateMutability": "view",
      "type": "function"
    },
    {
      "inputs": [
        {
          "internalType": "address",
          "name": "from",
          "type": "address"
        },
        {
          "internalType": "address",
          "name": "to",
          "type": "address"
        },
        {
          "internalType": "uint256",
          "name": "tokenId",
          "type": "uint256"
        }
      ],
      "name": "transferFrom",
      "outputs": [],
      "stateMutability": "nonpayable",
      "type": "function"
    },
    {
      "inputs": [
        {
          "internalType": "address",
          "name": "newOwner",
          "type": "address"
        }
      ],
      "name": "transferOwnership",
      "outputs": [],
      "stateMutability": "nonpayable",
      "type": "function"
    }
  ],
  "bytecode": "0x608034620003b957601f906001600160401b0390601f1990620016d1388190038581018416830185811184821017620003a357839282916040528339602092839181010312620003b957516001600160a01b03948582169491859003620003b9576200006a620003be565b92600e84526d121bdc9a5e9bdb949958d95a5c1d60921b818501526200008f620003be565b906003825262242d2960e91b81830152845195848711620003a3576000968754966001978881811c9116801562000398575b85821014620003845790818784931162000331575b508490878311600114620002d0578a92620002c4575b5050600019600383901b1c191690871b1787555b8251948511620002b05785548681811c91168015620002a5575b83821014620002915790818587969594931162000238575b5081938511600114620001d35750508592620001c7575b5050600019600383901b1c191690821b1790555b8115620001af57600780546001600160a01b0319811684179091556040519316907f8be0079c531659141344cd1fd0a4f28419497f9722a3daafe3b4186f6b6457e09080a36112f29081620003df8239f35b60249060405190631e4fbdf760e01b82526004820152fd5b01519050388062000149565b869593929193168588528388209388905b8282106200021e575050841162000204575b505050811b0190556200015d565b015160001960f88460031b161c19169055388080620001f6565b8484015186558897909501949384019390810190620001e4565b9091929394508688528288208580880160051c82019285891062000287575b9188978a9297969594930160051c01915b8281106200027857505062000132565b8a815588975089910162000268565b9250819262000257565b634e487b7160e01b88526022600452602488fd5b90607f16906200011a565b634e487b7160e01b87526041600452602487fd5b015190503880620000ec565b90848a9416918b8052868c20928c5b888282106200031a575050841162000300575b505050811b01875562000100565b015160001960f88460031b161c19169055388080620002f2565b8385015186558d97909501949384019301620002df565b909150898052848a208780850160051c8201928786106200037a575b918b91869594930160051c01915b8281106200036b575050620000d6565b8c81558594508b91016200035b565b925081926200034d565b634e487b7160e01b8a52602260045260248afd5b90607f1690620000c1565b634e487b7160e01b600052604160045260246000fd5b600080fd5b60408051919082016001600160401b03811183821017620003a35760405256fe6080806040526004908136101561001557600080fd5b60003560e01c90816301ffc9a714610d685750806306fdde0314610cc5578063081812fc14610c89578063095ea7b314610b9b57806323b872dd14610b8457806342842e0e14610b5657806342966c68146109fb5780636352211e146109cb57806370a0823114610970578063715018a6146109135780638da5cb5b146108ea57806395d89b411461080b578063a22cb46514610765578063b88d4fde146106f9578063c87b56dd14610607578063d204c45e146101d0578063e985e9c51461017a5763f2fde38b146100e757600080fd5b3461017557602036600319011261017557610100610e2c565b610108610f34565b6001600160a01b0390811691821561015d5750600754826bffffffffffffffffffffffff60a01b821617600755167f8be0079c531659141344cd1fd0a4f28419497f9722a3daafe3b4186f6b6457e0600080a3005b602490600060405191631e4fbdf760e01b8352820152fd5b600080fd5b3461017557604036600319011261017557610193610e2c565b61019b610e42565b9060018060a01b03809116600052600560205260406000209116600052602052602060ff604060002054166040519015158152f35b5034610175576040366003190112610175576101ea610e2c565b67ffffffffffffffff919060243583811161017557366023820112156101755761021d9036906024818601359101610efd565b91610226610f34565b6008549160001983146105f2576001830160085560405161024681610e8d565b600081526001600160a01b038216156105da576000848152600260205260409020546001600160a01b0316806105a3575b6001600160a01b0383166000818152600360209081526040808320805460010190558883526002909152812080546001600160a01b0319168317905586919083907fddf252ad1be2c89b69c2b068fc378daa952ba7f163c4a11628f55a4df523b3ef9080a461058b57813b610445575b50508160005260066020526040600020908351948511610430575061030c8154610f60565b93601f85116103e8575b602094508493601f821160011461038557938192939460009261037a575b50508160011b916000199060031b1c19161790555b7ff8e1a15aba9398e019f0b49df1a4fde98ee17ae345cb5f6b5e2c27f5033e8ce782604051838152a1604051908152f35b015190503880610334565b601f1982169483600052866000209160005b8781106103d15750836001959697106103b8575b505050811b019055610349565b015160001960f88460031b161c191690553880806103ab565b919288600181928685015181550194019201610397565b816000526020600020601f820160051c81019560208310610426575b601f0160051c01945b85811061041a5750610316565b6000815560010161040d565b9095508590610404565b604190634e487b7160e01b6000525260246000fd5b60409593919492955160208180610484630a85bd0160e11b95868352338c84015260006024840152876044840152608060648401526084830190610dec565b038160006001600160a01b038b165af160009181610546575b506105055786863d156104fd573d916104b583610ee1565b926104c36040519485610ebf565b83523d6000602085013e5b825192836104f657604051633250574960e11b81526001600160a01b03841681840152602490fd5b8390602001fd5b6060916104ce565b9395929491936001600160e01b03191603610522575038806102e7565b604051633250574960e11b81526001600160a01b0390911691810191909152602490fd5b9091506020813d602011610583575b8161056260209383610ebf565b8101031261017557516001600160e01b03198116810361017557903861049d565b3d9150610555565b6040516339e3563760e11b8152600081850152602490fd5b600085815260046020526040902080546001600160a01b031916905580600052600360205260406000206000198154019055610277565b604051633250574960e11b8152600081850152602490fd5b601182634e487b7160e01b6000525260246000fd5b50346101755760209081600319360112610175573561062581611139565b506000526006815260406000209060405191826000825461064581610f60565b938484526001918683821691826000146106d7575050600114610698575b505061067192500383610ebf565b600060405161067f81610e8d565b52610694604051928284938452830190610dec565b0390f35b85925060005281600020906000915b8583106106bf57505061067193508201013880610663565b805483890185015287945086939092019181016106a7565b925093505061067194915060ff191682840152151560051b8201013880610663565b503461017557608036600319011261017557610713610e2c565b61071b610e42565b6044359060643567ffffffffffffffff81116101755736602382011215610175576107639481602461075293369301359101610efd565b9261075e838383610f9a565b611174565b005b50346101755760403660031901126101755761077f610e2c565b60243590811515809203610175576001600160a01b03169182156107f35750336000526005602052604060002082600052602052604060002060ff1981541660ff83161790556040519081527f17307eab39ab6107e8899845ad3d59bd9653f200f220920489ca2b5937696c3160203392a3005b604051630b61174360e31b8152908101839052602490fd5b34610175576000366003190112610175576040516000600180549061082f82610f60565b808552918181169081156108c3575060011461086a575b6106948461085681860382610ebf565b604051918291602083526020830190610dec565b600081815292507fb10e2d527612073b26eecdfd717e6a320cf44b4afac2b0732d9fcbe2b7fa0cf65b8284106108ab57505050810160200161085682610846565b80546020858701810191909152909301928101610893565b60ff191660208087019190915292151560051b850190920192506108569150839050610846565b34610175576000366003190112610175576007546040516001600160a01b039091168152602090f35b346101755760003660031901126101755761092c610f34565b600780546001600160a01b031981169091556000906001600160a01b03167f8be0079c531659141344cd1fd0a4f28419497f9722a3daafe3b4186f6b6457e08280a3005b5034610175576020366003190112610175576001600160a01b03610992610e2c565b169081156109b3575060005260036020526020604060002054604051908152f35b6024906000604051916322718ad960e21b8352820152fd5b5034610175576020366003190112610175576109e960209135611139565b6040516001600160a01b039091168152f35b503461017557602080600319360112610175578135600081815260028352604090205490926001600160a01b03918216913315159081610ab3575b505050600260009282610a80575b848452526040822080546001600160a01b03191690557fddf252ad1be2c89b69c2b068fc378daa952ba7f163c4a11628f55a4df523b3ef8280a4005b600085815260046020526040902080546001600160a01b0319169055828452600381526040842084198154019055610a44565b81610aff575b5015610ac6578080610a36565b9150610ae25760249160405191637e27328960e01b8352820152fd5b6044916040519163177e802f60e01b835233908301526024820152fd5b33841491508115610b32575b8115610b19575b5038610ab9565b9050846000528184523390604060002054161438610b12565b90508260005260058452604060002033600052845260ff6040600020541690610b0b565b3461017557610763610b6736610e58565b9060405192610b7584610e8d565b6000845261075e838383610f9a565b3461017557610763610b9536610e58565b91610f9a565b503461017557604036600319011261017557610bb5610e2c565b90602435610bc281611139565b33151580610c76575b80610c49575b610c32576001600160a01b039384169382918591167f8c5be1e5ebec7d5bd14f71427d1e84f3dd0314c0f7b2291e5b200ac8c7c3b925600080a46000526020526040600020906bffffffffffffffffffffffff60a01b825416179055600080f35b60405163a9fbf51f60e01b81523381850152602490fd5b5060018060a01b038116600052600560205260406000203360005260205260ff6040600020541615610bd1565b506001600160a01b038116331415610bcb565b5034610175576020366003190112610175578035610ca681611139565b50600052602052602060018060a01b0360406000205416604051908152f35b346101755760003660031901126101755760405160008054610ce681610f60565b808452906001908181169081156108c35750600114610d0f576106948461085681860382610ebf565b600080805292507f290decd9548b62a8d60345a988386fc84ba6bc95484008f6362f93160ef3e5635b828410610d5057505050810160200161085682610846565b80546020858701810191909152909301928101610d38565b823461017557602036600319011261017557359063ffffffff60e01b821680920361017557602091632483248360e11b8114908115610da9575b5015158152f35b6380ac58cd60e01b811491508115610ddb575b8115610dca575b5083610da2565b6301ffc9a760e01b14905083610dc3565b635b5e139f60e01b81149150610dbc565b919082519283825260005b848110610e18575050826000602080949584010152601f8019910116010190565b602081830181015184830182015201610df7565b600435906001600160a01b038216820361017557565b602435906001600160a01b038216820361017557565b6060906003190112610175576001600160a01b0390600435828116810361017557916024359081168103610175579060443590565b6020810190811067ffffffffffffffff821117610ea957604052565b634e487b7160e01b600052604160045260246000fd5b90601f8019910116810190811067ffffffffffffffff821117610ea957604052565b67ffffffffffffffff8111610ea957601f01601f191660200190565b929192610f0982610ee1565b91610f176040519384610ebf565b829481845281830111610175578281602093846000960137010152565b6007546001600160a01b03163303610f4857565b60405163118cdaa760e01b8152336004820152602490fd5b90600182811c92168015610f90575b6020831014610f7a57565b634e487b7160e01b600052602260045260246000fd5b91607f1691610f6f565b6001600160a01b0391821692909183156111205760009282845282602095600287526040968488882054169687913315158061108a575b509060027fddf252ad1be2c89b69c2b068fc378daa952ba7f163c4a11628f55a4df523b3ef9284611057575b858352600381528b8320805460010190558683525289812080546001600160a01b0319168517905580a416928383036110365750505050565b6064945051926364283d7b60e01b8452600484015260248301526044820152fd5b600087815260046020526040902080546001600160a01b0319169055848352600381528b83208054600019019055610ffd565b919394509150806110df575b156110a657859291879138610fd1565b8786886110c3576024915190637e27328960e01b82526004820152fd5b604491519063177e802f60e01b82523360048301526024820152fd5b503387148015611104575b806110965750858252600481523385898420541614611096565b5086825260058152878220338352815260ff88832054166110ea565b604051633250574960e11b815260006004820152602490fd5b6000818152600260205260409020546001600160a01b031690811561115c575090565b60249060405190637e27328960e01b82526004820152fd5b813b611181575b50505050565b604051630a85bd0160e11b8082523360048301526001600160a01b039283166024830152604482019490945260806064820152602095929091169390929083906111cf906084830190610dec565b039285816000958187895af1849181611278575b50611243575050503d60001461123b573d6111fd81610ee1565b9061120b6040519283610ebf565b81528091843d92013e5b8051928361123657604051633250574960e11b815260048101849052602490fd5b019050fd5b506060611215565b919450915063ffffffff60e01b160361126057503880808061117b565b60249060405190633250574960e11b82526004820152fd5b9091508681813d83116112b5575b6112908183610ebf565b810103126112b157516001600160e01b0319811681036112b15790386111e3565b8480fd5b503d61128656fea264697066735822122026a33884bf544719404d307c538aaf3607c9e0159719fd2e086e5506b98782fb64736f6c63430008140033",
  "linkReferences": {},
  "deployedLinkReferences": {}
}