{
  "_format": "hh-sol-artifact-1",
  "contractName": "HorizonReceipt",
  "sourceName": "contracts/HorizonReceipt.sol",
  "abi": [
    {
      "inputs": [],
      "stateMutability": "nonpayable",
      "type": "constructor"
    },
    {
      "inputs": [
        {
          "internalType": "address",
          "name": "sender",
          "type": "address"
        },
        {
          "internalType": "uint256",
          "name": "tokenId",
          "type": "uint256"
        },
        {
          "internalType": "address",
          "name": "owner",
          "type": "address"
        }
      ],
      "name": "ERC721IncorrectOwner",
      "type": "error"
    },
    {
      "inputs": [
        {
          "internalType": "address",
          "name": "operator",
          "type": "address"
        },
        {
          "internalType": "uint256",
          "name": "tokenId",
          "type": "uint256"
        }
      ],
      "name": "ERC721InsufficientApproval",
      "type": "error"
    },
    {
      "inputs": [
        {
          "internalType": "address",
          "name": "approver",
          "type": "address"
        }
      ],
      "name": "ERC721InvalidApprover",
      "type": "error"
    },
    {
      "inputs": [
        {
          "internalType": "address",
          "name": "operator",
          "type": "address"
        }
      ],
      "name": "ERC721InvalidOperator",
      "type": "error"
    },
    {
      "inputs": [
        {
          "internalType": "address",
          "name": "owner",
          "type": "address"
        }
      ],
      "name": "ERC721InvalidOwner",
      "type": "error"
    },
    {
      "inputs": [
        {
          "internalType": "address",
          "name": "receiver",
          "type": "address"
        }
      ],
      "name": "ERC721InvalidReceiver",
      "type": "error"
    },
    {
      "inputs": [
        {
          "internalType": "address",
          "name": "sender",
          "type": "address"
        }
      ],
      "name": "ERC721InvalidSender",
      "type": "error"
    },
    {
      "inputs": [
        {
          "internalType": "uint256",
          "name": "tokenId",
          "type": "uint256"
        }
      ],
      "name": "ERC721NonexistentToken",
      "type": "error"
    },
    {
      "anonymous": false,
      "inputs": [
        {
          "indexed": true,
          "internalType": "address",
          "name": "owner",
          "type": "address"
        },
        {
          "indexed": true,
          "internalType": "address",
          "name": "approved",
          "type": "address"
        },
        {
          "indexed": true,
          "internalType": "uint256",
          "name": "tokenId",
          "type": "uint256"
        }
      ],
      "name": "Approval",
      "type": "event"
    },
    {
      "anonymous": false,
      "inputs": [
        {
          "indexed": true,
          "internalType": "address",
          "name": "owner",
          "type": "address"
        },
        {
          "indexed": true,
          "internalType": "address",
          "name": "operator",
          "type": "address"
        },
        {
          "indexed": false,
          "internalType": "bool",
          "name": "approved",
          "type": "bool"
        }
      ],
      "name": "ApprovalForAll",
      "type": "event"
    },
    {
      "anonymous": false,
      "inputs": [
        {
          "indexed": false,
          "internalType": "uint256",
          "name": "_fromTokenId",
          "type": "uint256"
        },
        {
          "indexed": false,
          "internalType": "uint256",
          "name": "_toTokenId",
          "type": "uint256"
        }
      ],
      "name": "BatchMetadataUpdate",
      "type": "event"
    },
    {
      "anonymous": false,
      "inputs": [
        {
          "indexed": false,
          "internalType": "uint256",
          "name": "_tokenId",
          "type": "uint256"
        }
      ],
      "name": "MetadataUpdate",
      "type": "event"
    },
    {
      "anonymous": false,
      "inputs": [
        {
          "indexed": true,
          "internalType": "address",
          "name": "from",
          "type": "address"
        },
        {
          "indexed": true,
          "internalType": "address",
          "name": "to",
          "type": "address"
        },
        {
          "indexed": true,
          "internalType": "uint256",
          "name": "tokenId",
          "type": "uint256"
        }
      ],
      "name": "Transfer",
      "type": "event"
    },
    {
      "inputs": [
        {
          "internalType": "address",
          "name": "to",
          "type": "address"
        },
        {
          "internalType": "uint256",
          "name": "tokenId",
          "type": "uint256"
        }
      ],
      "name": "approve",
      "outputs": [],
      "stateMutability": "nonpayable",
      "type": "function"
    },
    {
      "inputs": [
        {
          "internalType": "address",
          "name": "owner",
          "type": "address"
        }
      ],
      "name": "balanceOf",
      "outputs": [
        {
          "internalType": "uint256",
          "name": "",
          "type": "uint256"
        }
      ],
      "stateMutability": "view",
      "type": "function"
    },
    {
      "inputs": [
        {
          "internalType": "uint256",
          "name": "tokenId",
          "type": "uint256"
        }
      ],
      "name": "burn",
      "outputs": [],
      "stateMutability": "nonpayable",
      "type": "function"
    },
    {
      "inputs": [
        {
          "internalType": "uint256",
          "name": "tokenId",
          "type": "uint256"
        }
      ],
      "name": "getApproved",
      "outputs": [
        {
          "internalType": "address",
          "name": "",
          "type": "address"
        }
      ],
      "stateMutability": "view",
      "type": "function"
    },
    {
      "inputs": [
        {
          "internalType": "address",
          "name": "owner",
          "type": "address"
        },
        {
          "internalType": "address",
          "name": "operator",
          "type": "address"
        }
      ],
      "name": "isApprovedForAll",
      "outputs": [
        {
          "internalType": "bool",
          "name": "",
          "type": "bool"
        }
      ],
      "stateMutability": "view",
      "type": "function"
    },
    {
      "inputs": [],
      "name": "name",
      "outputs": [
        {
          "internalType": "string",
          "name": "",
          "type": "string"
        }
      ],
      "stateMutability": "view",
      "type": "function"
    },
    {
      "inputs": [
        {
          "internalType": "uint256",
          "name": "tokenId",
          "type": "uint256"
        }
      ],
      "name": "ownerOf",
      "outputs": [
        {
          "internalType": "address",
          "name": "",
          "type": "address"
        }
      ],
      "stateMutability": "view",
      "type": "function"
    },
    {
      "inputs": [
        {
          "internalType": "address",
          "name": "to",
          "type": "address"
        },
        {
          "internalType": "string",
          "name": "uri",
          "type": "string"
        }
      ],
      "name": "safeMint",
      "outputs": [
        {
          "internalType": "uint256",
          "name": "",
          "type": "uint256"
        }
      ],
      "stateMutability": "nonpayable",
      "type": "function"
    },
    {
      "inputs": [
        {
          "internalType": "address",
          "name": "from",
          "type": "address"
        },
        {
          "internalType": "address",
          "name": "to",
          "type": "address"
        },
        {
          "internalType": "uint256",
          "name": "tokenId",
          "type": "uint256"
        }
      ],
      "name": "safeTransferFrom",
      "outputs": [],
      "stateMutability": "nonpayable",
      "type": "function"
    },
    {
      "inputs": [
        {
          "internalType": "address",
          "name": "from",
          "type": "address"
        },
        {
          "internalType": "address",
          "name": "to",
          "type": "address"
        },
        {
          "internalType": "uint256",
          "name": "tokenId",
          "type": "uint256"
        },
        {
          "internalType": "bytes",
          "name": "data",
          "type": "bytes"
        }
      ],
      "name": "safeTransferFrom",
      "outputs": [],
      "stateMutability": "nonpayable",
      "type": "function"
    },
    {
      "inputs": [
        {
          "internalType": "address",
          "name": "operator",
          "type": "address"
        },
        {
          "internalType": "bool",
          "name": "approved",
          "type": "bool"
        }
      ],
      "name": "setApprovalForAll",
      "outputs": [],
      "stateMutability": "nonpayable",
      "type": "function"
    },
    {
      "inputs": [
        {
          "internalType": "bytes4",
          "name": "interfaceId",
          "type": "bytes4"
        }
      ],
      "name": "supportsInterface",
      "outputs": [
        {
          "internalType": "bool",
          "name": "",
          "type": "bool"
        }
      ],
      "stateMutability": "view",
      "type": "function"
    },
    {
      "inputs": [],
      "name": "symbol",
      "outputs": [
        {
          "internalType": "string",
          "name": "",
          "type": "string"
        }
      ],
      "stateMutability": "view",
      "type": "function"
    },
    {
      "inputs": [
        {
          "internalType": "uint256",
          "name": "tokenId",
          "type": "uint256"
        }
      ],
      "name": "tokenURI",
      "outputs": [
        {
          "internalType": "string",
          "name": "",
          "type": "string"
        }
      ],
      "stateMutability": "view",
      "type": "function"
    },
    {
      "inputs": [
        {
          "internalType": "address",
          "name": "from",
          "type": "address"
        },
        {
          "internalType": "address",
          "name": "to",
          "type": "address"
        },
        {
          "internalType": "uint256",
          "name": "tokenId",
          "type": "uint256"
        }
      ],
      "name": "transferFrom",
      "outputs": [],
      "stateMutability": "nonpayable",
      "type": "function"
    }
  ],
  "bytecode": "0x60803462000311576001600160401b039060409080820183811182821017620002fb578252600e81526020926d121bdc9a5e9bdb949958d95a5c1d60921b84830152825183810181811083821117620002fb5784526003815262242d2960e91b85820152825190828211620002fb5760008054926001958685811c95168015620002f0575b89861014620002dc578190601f9586811162000289575b5089908683116001146200022557849262000219575b5050600019600383901b1c191690861b1781555b8151938411620002055784548581811c91168015620001fa575b88821014620001e6578381116200019e575b508692841160011462000138578394959650926200012c575b5050600019600383901b1c191690821b1790555b516111809081620003178239f35b0151905038806200010a565b9190601f1984169685845280842093905b8882106200018657505083859697106200016c575b505050811b0190556200011e565b015160001960f88460031b161c191690553880806200015e565b80878596829496860151815501950193019062000149565b8582528782208480870160051c8201928a8810620001dc575b0160051c019086905b828110620001d0575050620000f1565b838155018690620001c0565b92508192620001b7565b634e487b7160e01b82526022600452602482fd5b90607f1690620000df565b634e487b7160e01b81526041600452602490fd5b015190503880620000b1565b8480528a85208994509190601f198416865b8d82821062000272575050841162000258575b505050811b018155620000c5565b015160001960f88460031b161c191690553880806200024a565b8385015186558c9790950194938401930162000237565b9091508380528984208680850160051c8201928c8610620002d2575b918a91869594930160051c01915b828110620002c35750506200009b565b8681558594508a9101620002b3565b92508192620002a5565b634e487b7160e01b83526022600452602483fd5b94607f169462000084565b634e487b7160e01b600052604160045260246000fd5b600080fdfe60808060405260048036101561001457600080fd5b60003560e01c91826301ffc9a714610c225750816306fdde0314610b7f578163081812fc14610b44578163095ea7b314610a5757816323b872dd14610a4057816342842e0e14610a1257816342966c68146108b85781636352211e1461088957816370a082311461082f57816395d89b4114610750578163a22cb465146106ab578163b88d4fde14610640578163c87b56dd1461054f578163d204c45e14610121575063e985e9c5146100c657600080fd5b3461011c57604036600319011261011c576100df610ce6565b6100e7610cfc565b9060018060a01b03809116600052600560205260406000209116600052602052602060ff604060002054166040519015158152f35b600080fd5b3461011c57604036600319011261011c5761013a610ce6565b67ffffffffffffffff919060243583811161011c573660238201121561011c5761016d9036906024818601359101610db7565b9160075491600019831461053a576001830160075560405161018e81610d47565b600081526001600160a01b03821615610522576000848152600260205260409020546001600160a01b0316806104eb575b6001600160a01b0383166000818152600360209081526040808320805460010190558883526002909152812080546001600160a01b0319168317905586919083907fddf252ad1be2c89b69c2b068fc378daa952ba7f163c4a11628f55a4df523b3ef9080a46104d357813b61038d575b5050816000526006602052604060002090835194851161037857506102548154610dee565b93601f8511610330575b602094508493601f82116001146102cd5793819293946000926102c2575b50508160011b916000199060031b1c19161790555b7ff8e1a15aba9398e019f0b49df1a4fde98ee17ae345cb5f6b5e2c27f5033e8ce782604051838152a1604051908152f35b01519050858061027c565b601f1982169483600052866000209160005b878110610319575083600195969710610300575b505050811b019055610291565b015160001960f88460031b161c191690558580806102f3565b9192886001819286850151815501940192016102df565b816000526020600020601f820160051c8101956020831061036e575b601f0160051c01945b858110610362575061025e565b60008155600101610355565b909550859061034c565b604190634e487b7160e01b6000525260246000fd5b604095939194929551602081806103cc630a85bd0160e11b95868352338c84015260006024840152876044840152608060648401526084830190610ca6565b038160006001600160a01b038b165af16000918161048e575b5061044d5786863d15610445573d916103fd83610d9b565b9261040b6040519485610d79565b83523d6000602085013e5b8251928361043e57604051633250574960e11b81526001600160a01b03841681840152602490fd5b8390602001fd5b606091610416565b9395929491936001600160e01b0319160361046a5750848061022f565b604051633250574960e11b81526001600160a01b0390911691810191909152602490fd5b9091506020813d6020116104cb575b816104aa60209383610d79565b8101031261011c57516001600160e01b03198116810361011c5790886103e5565b3d915061049d565b6040516339e3563760e11b8152600081850152602490fd5b600085815260046020526040902080546001600160a01b0319169055806000526003602052604060002060001981540190556101bf565b604051633250574960e11b8152600081850152602490fd5b601182634e487b7160e01b6000525260246000fd5b3461011c576020908160031936011261011c573561056c81610fc7565b506000526006815260406000209060405191826000825461058c81610dee565b9384845260019186838216918260001461061e5750506001146105df575b50506105b892500383610d79565b60006040516105c681610d47565b526105db604051928284938452830190610ca6565b0390f35b85925060005281600020906000915b8583106106065750506105b8935082010185806105aa565b805483890185015287945086939092019181016105ee565b92509350506105b894915060ff191682840152151560051b82010185806105aa565b3461011c57608036600319011261011c57610659610ce6565b610661610cfc565b6044359060643567ffffffffffffffff811161011c573660238201121561011c576106a99481602461069893369301359101610db7565b926106a4838383610e28565b611002565b005b3461011c57604036600319011261011c576106c4610ce6565b6024359081151580920361011c576001600160a01b03169182156107385750336000526005602052604060002082600052602052604060002060ff1981541660ff83161790556040519081527f17307eab39ab6107e8899845ad3d59bd9653f200f220920489ca2b5937696c3160203392a3005b604051630b61174360e31b8152908101839052602490fd5b3461011c57600036600319011261011c576040516000600180549061077482610dee565b8085529181811690811561080857506001146107af575b6105db8461079b81860382610d79565b604051918291602083526020830190610ca6565b600081815292507fb10e2d527612073b26eecdfd717e6a320cf44b4afac2b0732d9fcbe2b7fa0cf65b8284106107f057505050810160200161079b8261078b565b805460208587018101919091529093019281016107d8565b60ff191660208087019190915292151560051b8501909201925061079b915083905061078b565b3461011c57602036600319011261011c576001600160a01b03610850610ce6565b16908115610871575060005260036020526020604060002054604051908152f35b6024906000604051916322718ad960e21b8352820152fd5b3461011c57602036600319011261011c576108a660209135610fc7565b6040516001600160a01b039091168152f35b3461011c5760208060031936011261011c578135600081815260028352604090205490926001600160a01b0391821691331515908161096f575b50505060026000928261093c575b848452526040822080546001600160a01b03191690557fddf252ad1be2c89b69c2b068fc378daa952ba7f163c4a11628f55a4df523b3ef8280a4005b600085815260046020526040902080546001600160a01b0319169055828452600381526040842084198154019055610900565b816109bb575b50156109825780806108f2565b915061099e5760249160405191637e27328960e01b8352820152fd5b6044916040519163177e802f60e01b835233908301526024820152fd5b338414915081156109ee575b81156109d5575b5085610975565b90508460005281845233906040600020541614856109ce565b90508260005260058452604060002033600052845260ff60406000205416906109c7565b3461011c576106a9610a2336610d12565b9060405192610a3184610d47565b600084526106a4838383610e28565b3461011c576106a9610a5136610d12565b91610e28565b3461011c57604036600319011261011c57610a70610ce6565b90602435610a7d81610fc7565b33151580610b31575b80610b04575b610aed576001600160a01b039384169382918591167f8c5be1e5ebec7d5bd14f71427d1e84f3dd0314c0f7b2291e5b200ac8c7c3b925600080a46000526020526040600020906bffffffffffffffffffffffff60a01b825416179055600080f35b60405163a9fbf51f60e01b81523381850152602490fd5b5060018060a01b038116600052600560205260406000203360005260205260ff6040600020541615610a8c565b506001600160a01b038116331415610a86565b3461011c57602036600319011261011c578035610b6081610fc7565b50600052602052602060018060a01b0360406000205416604051908152f35b3461011c57600036600319011261011c5760405160008054610ba081610dee565b808452906001908181169081156108085750600114610bc9576105db8461079b81860382610d79565b600080805292507f290decd9548b62a8d60345a988386fc84ba6bc95484008f6362f93160ef3e5635b828410610c0a57505050810160200161079b8261078b565b80546020858701810191909152909301928101610bf2565b903461011c57602036600319011261011c57359063ffffffff60e01b821680920361011c57602091632483248360e11b8114908115610c63575b5015158152f35b6380ac58cd60e01b811491508115610c95575b8115610c84575b5083610c5c565b6301ffc9a760e01b14905083610c7d565b635b5e139f60e01b81149150610c76565b919082519283825260005b848110610cd2575050826000602080949584010152601f8019910116010190565b602081830181015184830182015201610cb1565b600435906001600160a01b038216820361011c57565b602435906001600160a01b038216820361011c57565b606090600319011261011c576001600160a01b0390600435828116810361011c5791602435908116810361011c579060443590565b6020810190811067ffffffffffffffff821117610d6357604052565b634e487b7160e01b600052604160045260246000fd5b90601f8019910116810190811067ffffffffffffffff821117610d6357604052565b67ffffffffffffffff8111610d6357601f01601f191660200190565b929192610dc382610d9b565b91610dd16040519384610d79565b82948184528183011161011c578281602093846000960137010152565b90600182811c92168015610e1e575b6020831014610e0857565b634e487b7160e01b600052602260045260246000fd5b91607f1691610dfd565b6001600160a01b039182169290918315610fae57600092828452826020956002875260409684888820541696879133151580610f18575b509060027fddf252ad1be2c89b69c2b068fc378daa952ba7f163c4a11628f55a4df523b3ef9284610ee5575b858352600381528b8320805460010190558683525289812080546001600160a01b0319168517905580a41692838303610ec45750505050565b6064945051926364283d7b60e01b8452600484015260248301526044820152fd5b600087815260046020526040902080546001600160a01b0319169055848352600381528b83208054600019019055610e8b565b91939450915080610f6d575b15610f3457859291879138610e5f565b878688610f51576024915190637e27328960e01b82526004820152fd5b604491519063177e802f60e01b82523360048301526024820152fd5b503387148015610f92575b80610f245750858252600481523385898420541614610f24565b5086825260058152878220338352815260ff8883205416610f78565b604051633250574960e11b815260006004820152602490fd5b6000818152600260205260409020546001600160a01b0316908115610fea575090565b60249060405190637e27328960e01b82526004820152fd5b813b61100f575b50505050565b604051630a85bd0160e11b8082523360048301526001600160a01b0392831660248301526044820194909452608060648201526020959290911693909290839061105d906084830190610ca6565b039285816000958187895af1849181611106575b506110d1575050503d6000146110c9573d61108b81610d9b565b906110996040519283610d79565b81528091843d92013e5b805192836110c457604051633250574960e11b815260048101849052602490fd5b019050fd5b5060606110a3565b919450915063ffffffff60e01b16036110ee575038808080611009565b60249060405190633250574960e11b82526004820152fd5b9091508681813d8311611143575b61111e8183610d79565b8101031261113f57516001600160e01b03198116810361113f579038611071565b8480fd5b503d61111456fea2646970667358221220b89fd5179a19270bcdf17cb957f0c0c9bd5c4221f0f5431a6c5fef1dedcf0d6964736f6c63430008140033",
  "linkReferences": {},
  "deployedLinkReferences": {}
}