{
  "_format": "hh-sol-artifact-1",
  "contractName": "HorizonFunctions",
  "sourceName": "contracts/HorizonFunctions.sol",
  "abi": [
    {
      "inputs": [
        {
          "internalType": "uint64",
          "name": "_subscriptionId",
          "type": "uint64"
        },
        {
          "internalType": "address",
          "name": "_routerFunctions",
          "type": "address"
        },
        {
          "internalType": "uint32",
          "name": "_gasLimit",
          "type": "uint32"
        },
        {
          "internalType": "bytes32",
          "name": "_donID",
          "type": "bytes32"
        }
      ],
      "stateMutability": "nonpayable",
      "type": "constructor"
    },
    {
      "inputs": [],
      "name": "EmptyArgs",
      "type": "error"
    },
    {
      "inputs": [],
      "name": "EmptySource",
      "type": "error"
    },
    {
      "inputs": [],
      "name": "NoInlineSecrets",
      "type": "error"
    },
    {
      "inputs": [],
      "name": "OnlyRouterCanFulfill",
      "type": "error"
    },
    {
      "inputs": [
        {
          "internalType": "bytes32",
          "name": "requestId",
          "type": "bytes32"
        }
      ],
      "name": "UnexpectedRequestID",
      "type": "error"
    },
    {
      "anonymous": false,
      "inputs": [
        {
          "indexed": true,
          "internalType": "bytes32",
          "name": "id",
          "type": "bytes32"
        }
      ],
      "name": "RequestFulfilled",
      "type": "event"
    },
    {
      "anonymous": false,
      "inputs": [
        {
          "indexed": true,
          "internalType": "bytes32",
          "name": "id",
          "type": "bytes32"
        }
      ],
      "name": "RequestSent",
      "type": "event"
    },
    {
      "anonymous": false,
      "inputs": [
        {
          "indexed": true,
          "internalType": "bytes32",
          "name": "requestId",
          "type": "bytes32"
        },
        {
          "indexed": false,
          "internalType": "bytes",
          "name": "response",
          "type": "bytes"
        },
        {
          "indexed": false,
          "internalType": "bytes",
          "name": "err",
          "type": "bytes"
        }
      ],
      "name": "Response",
      "type": "event"
    },
    {
      "inputs": [
        {
          "internalType": "bytes32",
          "name": "requestId",
          "type": "bytes32"
        },
        {
          "internalType": "bytes",
          "name": "response",
          "type": "bytes"
        },
        {
          "internalType": "bytes",
          "name": "err",
          "type": "bytes"
        }
      ],
      "name": "handleOracleFulfillment",
      "outputs": [],
      "stateMutability": "nonpayable",
      "type": "function"
    },
    {
      "inputs": [
        {
          "internalType": "bytes32",
          "name": "requestId",
          "type": "bytes32"
        }
      ],
      "name": "returnFunctionsInfo",
      "outputs": [
        {
          "internalType": "uint256",
          "name": "",
          "type": "uint256"
        },
        {
          "internalType": "uint256",
          "name": "",
          "type": "uint256"
        }
      ],
      "stateMutability": "view",
      "type": "function"
    },
    {
      "inputs": [],
      "name": "s_lastRequestId",
      "outputs": [
        {
          "internalType": "bytes32",
          "name": "",
          "type": "bytes32"
        }
      ],
      "stateMutability": "view",
      "type": "function"
    },
    {
      "inputs": [
        {
          "internalType": "string[]",
          "name": "args",
          "type": "string[]"
        }
      ],
      "name": "sendRequest",
      "outputs": [
        {
          "internalType": "bytes32",
          "name": "requestId",
          "type": "bytes32"
        }
      ],
      "stateMutability": "nonpayable",
      "type": "function"
    },
    {
      "inputs": [
        {
          "internalType": "bytes32",
          "name": "requestId",
          "type": "bytes32"
        }
      ],
      "name": "vehicleDataMapping",
      "outputs": [
        {
          "internalType": "string",
          "name": "value",
          "type": "string"
        },
        {
          "internalType": "uint256",
          "name": "uintValue",
          "type": "uint256"
        },
        {
          "internalType": "uint256",
          "name": "requestTime",
          "type": "uint256"
        },
        {
          "internalType": "uint256",
          "name": "responseTime",
          "type": "uint256"
        },
        {
          "internalType": "bytes",
          "name": "lastResponse",
          "type": "bytes"
        },
        {
          "internalType": "bytes",
          "name": "lastError",
          "type": "bytes"
        },
        {
          "internalType": "bool",
          "name": "isRequest",
          "type": "bool"
        }
      ],
      "stateMutability": "view",
      "type": "function"
    }
  ],
  "bytecode": "0x60a0346200036d576001600160401b03601f62001ebf38819003918201601f19168401918383118584101762000372578085926080946040528339810103126200036d5781519081168091036200036d5760208201516001600160a01b038116929091908383036200036d5760408101519063ffffffff821682036200036d5760600151608094909452600480546001600160a01b03191673f5a428c3e5dd31d6474f58bb64f779216c11a11c179055600580546001919080831c908316801562000362575b60208210146200034c57601f81116200031b575b507f636f6465537472696e6728646174612e56616c6f72293b000000000000000000917f726c3a206068747470733a2f2f706172616c6c656c756d2e636f6d2e62722f668261032f600c9455806000527f6e73742069644d61726361203d20617267735b315d3b636f6e73742069644d6f6020600020937f636f6e7374207469706f4175746f6d6f76656c203d20617267735b305d3b636f85558401557f64656c6f203d20617267735b325d3b636f6e737420646174614d6f64656c6f2060028401557f3d20617267735b335d3b636f6e737420617069526573706f6e7365203d20617760038401557f6169742046756e6374696f6e732e6d616b654874747052657175657374287b7560048401558201557f6970652f6170692f76312f247b7469706f4175746f6d6f76656c7d2f6d61726360068201557f61732f247b69644d617263617d2f6d6f64656c6f732f247b69644d6f64656c6f60078201557f7d2f616e6f732f247b646174614d6f64656c6f7d602c7d293b6966202861706960088201557f526573706f6e73652e6572726f7229207b7468726f77204572726f722827526560098201557f7175657374206661696c656427293b7d636f6e7374207b2064617461207d203d600a8201557f20617069526573706f6e73653b72657475726e2046756e6374696f6e732e656e600b820155015563ffffffff60e01b9060e01b169168010000000000000000600160e01b039060401b161717600255600355604051611b36908162000389823960805181818160b90152610bdd0152f35b81600052600d601f60206000209201831c820191015b818110620003405750620000d9565b60008155830162000331565b634e487b7160e01b600052602260045260246000fd5b90607f1690620000c5565b600080fd5b634e487b7160e01b600052604160045260246000fdfe608060405260048036101561001357600080fd5b600090813560e01c9182630ca761751461006d57505080634c8f60a314610068578063b1e2174914610063578063c972ebb61461005e5763e6ee90201461005957600080fd5b6106b8565b6103b8565b61039a565b61032d565b3461024b57606036600319011261024b5781356001600160401b036024358181116102475761009f903690860161030f565b90604435908111610247576100b7903690860161030f565b7f00000000000000000000000000000000000000000000000000000000000000006001600160a01b03163303610236576100fb836000526001602052604060002090565b9161010a600684015460ff1690565b1561021a57602083876101248461016798999a8401610884565b6101318560058401610884565b61013b8483610884565b42600383015580546001600160a01b031690604051809881948293631bd9515560e01b84528301611aca565b03915afa9283156102155760016101ab60057f7873807bf6ddc50401cd3d29bbe0decee23fd4d68d273f4b5eb83cded4d2f1729689988b916101e7575b5004611184565b9101556101bd60405192839283611adb565b0390a27f85e1543bf2f84fe80c6badbce3648c8539ad1df4d2b3d822938ca0538be727e68280a280f35b610208915060203d811161020e575b6102008183610284565b810190610b6a565b8b6101a4565b503d6101f6565b610b79565b60405163d068bf5b60e01b815280870185815281906020010390fd5b60405163c6829f8360e01b81528590fd5b8380fd5b80fd5b634e487b7160e01b600052604160045260246000fd5b604081019081106001600160401b0382111761027f57604052565b61024e565b90601f801991011681019081106001600160401b0382111761027f57604052565b6040519060e082018281106001600160401b0382111761027f57604052565b9291926001600160401b03821161027f57604051916102ed601f8201601f191660200184610284565b82948184528183011161030a578281602093846000960137010152565b600080fd5b9080601f8301121561030a5781602061032a933591016102c4565b90565b3461030a57602036600319011261030a576001600160401b0360043581811161030a573660238201121561030a57806004013591821161030a573660248360051b8301011161030a576103969160246103869201610a97565b6040519081529081906020820190565b0390f35b3461030a57600036600319011261030a576020600054604051908152f35b3461030a57602036600319011261030a5760043560005260016020526040806000206003600182015491015482519182526020820152f35b90600182811c92168015610420575b602083101461040a57565b634e487b7160e01b600052602260045260246000fd5b91607f16916103ff565b604051906000826005549161043e836103f0565b808352926001908181169081156104c65750600114610467575b5061046592500383610284565b565b6005600090815291507f036b6384b5eca791c62761152d0c79bb0604c104a5fb6f4eb0703f3154bb3db05b8483106104ab5750610465935050810160200138610458565b81935090816020925483858a01015201910190918592610492565b90506020925061046594915060ff191682840152151560051b82010138610458565b90604051918260008254926104fc846103f0565b9081845260019485811690816000146105695750600114610526575b505061046592500383610284565b9093915060005260209081600020936000915b81831061055157505061046593508201013880610518565b85548884018501529485019487945091830191610539565b91505061046594506020925060ff191682840152151560051b8201013880610518565b906000929180549161059d836103f0565b9182825260019384811690816000146105ff57506001146105bf575b50505050565b90919394506000526020928360002092846000945b8386106105eb5750505050010190388080806105b9565b8054858701830152940193859082016105d4565b9294505050602093945060ff191683830152151560051b010190388080806105b9565b919082519283825260005b84811061064e575050826000602080949584010152601f8019910116010190565b60208183018101518483018201520161062d565b9592946106b09460c0966106856106a295949b9a9b60e08b5260e08b0190610622565b9360208a0152604089015260608801528682036080880152610622565b9084820360a0860152610622565b931515910152565b3461030a57602036600319011261030a57600435600052600160205260406000206106e2816104e8565b6103966001830154926002810154906003810154604051906107128261070b816004870161058c565b0383610284565b60ff6006604051946107328661072b816005850161058c565b0387610284565b0154169360405197889788610662565b6040519060e082018281106001600160401b0382111761027f57604052606060c08360008152600060208201526000604082015282808201528260808201528260a08201520152565b929190926001600160401b039182851161027f578460051b60405193602080956107b782850182610284565b80988152019184019383851161030a5780925b8584106107da5750505050505050565b833583811161030a57820185601f8201121561030a57879161080287838580953591016102c4565b8152019301926107ca565b60405190602082018281106001600160401b0382111761027f5760405260008252565b90601f811161083e57505050565b600091825260208220906020601f850160051c8301941061087a575b601f0160051c01915b82811061086f57505050565b818155600101610863565b909250829061085a565b91909182516001600160401b03811161027f576108ab816108a584546103f0565b84610830565b602080601f83116001146108e75750819293946000926108dc575b50508160011b916000199060031b1c1916179055565b0151905038806108c6565b90601f198316956108fd85600052602060002090565b926000905b88821061093a57505083600195969710610921575b505050811b019055565b015160001960f88460031b161c19169055388080610917565b80600185968294968601518155019501930190610902565b91909182519283516001600160401b03811161027f5761097c8161097685546103f0565b85610830565b6020948590601f8311600114610a1d57926104659596836109ff9460c094600697600092610a12575b50508160011b916000199060031b1c19161786555b810151600186015560408101516002860155606081015160038601556109e7608082015160048701610884565b6109f860a082015160058701610884565b0151151590565b91019060ff801983541691151516179055565b0151905038806109a5565b90601f19831691610a3386600052602060002090565b9260005b818110610a8057508460c094600697946104659a9b946109ff9860019510610a67575b505050811b0186556109ba565b015160001960f88460031b161c19169055388080610a5a565b929389600181928786015181550195019301610a37565b610ac9610b4892610ae492610aaa610742565b91610abc610ab661042a565b84610fb5565b80610b4e575b5050610de2565b600254600354916001600160401b038260e01c921690610b85565b80600055610b43610af36102a5565b91610afc61080d565b83526000602084015242604084015260006060840152610b1a61080d565b6080840152610b2761080d565b60a0840152600160c08401526000526001602052604060002090565b610952565b60005490565b610b6391610b5d91369161078b565b82610fde565b3880610ac2565b9081602091031261030a575190565b6040513d6000823e3d90fd5b92906020926001600160401b039263ffffffff610bc4604051978896879663230e93b160e11b885216600487015260a0602487015260a4860190610622565b60016044860152921660648401526084830152038160007f00000000000000000000000000000000000000000000000000000000000000006001600160a01b03165af190811561021557600091610c40575b50807f1131472297a800fee664d1d89cfa8f7676ff07189ecc53f80bbb5f4969099db8600080a290565b610c58915060203d811161020e576102008183610284565b38610c16565b60405190610c6b82610264565b600c82526b31b7b232a637b1b0ba34b7b760a11b6020830152565b634e487b7160e01b600052602160045260246000fd5b60031115610ca657565b610c86565b60405190610cb882610264565b60088252676c616e677561676560c01b6020830152565b60011115610ca657565b60405190610ce682610264565b6006825265736f7572636560d01b6020830152565b60405190610d0882610264565b60048252636172677360e01b6020830152565b634e487b7160e01b600052601160045260246000fd5b6000198114610d405760010190565b610d1b565b8051821015610d595760209160051b010190565b634e487b7160e01b600052603260045260246000fd5b60405190610d7c82610264565b600f82526e39b2b1b932ba39a637b1b0ba34b7b760891b6020830152565b60405190610da782610264565b60078252667365637265747360c81b6020830152565b60405190610dca82610264565b600982526862797465734172677360b81b6020830152565b610dea611017565b90610dfc610df6610c5e565b8361178b565b610e198151610e0a81610c9c565b610e1381610c9c565b836110e3565b610e24610df6610cab565b610e3e6040820151610e3581610ccf565b610e1381610ccf565b610e49610df6610cd9565b610e5760608201518361178b565b60a08101805151610f5c575b506080810190815151610edc575b60c0915001805151610e84575b50515190565b91610e90610df6610dbd565b610e998261180f565b60005b83518051821015610ec95790610ebf610eb882610ec494610d45565b51856116d6565b610d31565b610e9c565b50509150610ed68161189b565b38610e7e565b602081018051610eeb81610c9c565b610ef481610c9c565b15610f4a5760c092610f2d610f4592610f14610f0e610d6f565b8861178b565b51610f1e81610c9c565b610f2781610c9c565b866110e3565b610f3e610f38610d9a565b8661178b565b51846116d6565b610e71565b60405163a80d31f760e01b8152600490fd5b92610f6e610f68610cfb565b8461178b565b610f778361180f565b60005b84518051821015610fa25790610ebf610f9682610f9d94610d45565b518661178b565b610f7a565b50509250610faf8261189b565b38610e63565b815115610fcc576000808252604082015260600152565b6040516322ce3edd60e01b8152600490fd5b815115610feb5760a00152565b60405163fe936cb760e01b8152600490fd5b6040519061100a82610264565b6000602083606081520152565b60405161102381610264565b61102b610ffd565b808252602082016000815261103e610ffd565b50610100602083015260405180925260008252610120820191821061030a576000916040525290565b601f19810191908211610d4057565b9060208201809211610d4057565b91908201809211610d4057565b9061109a610ffd565b50601f8116806110c9575b508060208301526040519081835260008252810160200190811061030a5760405290565b60200360208111610d40578101809111610d4057386110a5565b908151916110ef610ffd565b508251516001810190818111610d40576020850151811015611148575b60c260206104659651928301015380518211611140575b50506040519160208301526020825261113b82610264565b6116d6565b523880611123565b8160011b9482860460021483151715610d405760208161117a6104659861117360c295519184611091565b508261161e565b509650505061110c565b90662386f26fc1000091828102928184041490151715610d4057565b908160011b9180830460021490151715610d4057565b6111be610ffd565b508051516001810190818111610d405760208301518110156111f7575b605b602084519283010153805182116111f357505090565b5290565b8160011b82810460021483151715610d40576112209061121985519186611091565b508461161e565b506111db565b61122e610ffd565b508051516001810190818111610d40576020830151811015611263575b605a602084519283010153805182116111f357505090565b8160011b82810460021483151715610d40576112859061121985519186611091565b5061124b565b611293610ffd565b508051516001810190818111610d405760208301518110156112c8575b6059602084519283010153805182116111f357505090565b8160011b82810460021483151715610d40576112ea9061121985519186611091565b506112b0565b6112f8610ffd565b508051516001810190818111610d4057602083015181101561132d575b6058602084519283010153805182116111f357505090565b8160011b82810460021483151715610d405761134f9061121985519186611091565b50611315565b61135d610ffd565b508051516001810190818111610d40576020830151811015611392575b607b602084519283010153805182116111f357505090565b8160011b82810460021483151715610d40576113b49061121985519186611091565b5061137a565b6113c2610ffd565b508051516001810190818111610d405760208301518110156113f7575b607a602084519283010153805182116111f357505090565b8160011b82810460021483151715610d40576114199061121985519186611091565b506113df565b611427610ffd565b508051516001810190818111610d4057602083015181101561145c575b6079602084519283010153805182116111f357505090565b8160011b82810460021483151715610d405761147e9061121985519186611091565b50611444565b61148c610ffd565b508051516001810190818111610d405760208301518110156114c1575b6078602084519283010153805182116111f357505090565b8160011b82810460021483151715610d40576114e39061121985519186611091565b506114a9565b906114f2610ffd565b508151516001810191828211610d40576020840151821015611525575b602084519283010153805182116111f357505090565b8260011b83810460021484151715610d405761154e9061154786519187611091565b508561161e565b5061150f565b9061156182519183611091565b5061156a610ffd565b50805190611576610ffd565b5061158481518311156116cf565b825151926115928385611084565b916020928284809401518211611607575b51838151978201019682116115ff575b505001915b818110156115d95760001991036101000a0190811990511690825116179052565b91926115f46115ee6115fa9286518152611076565b94611076565b92611067565b6115b8565b5238806115b3565b611619611613836111a0565b82611554565b6115a3565b90611627610ffd565b508051611632610ffd565b5061164082518211156116cf565b8251519161164e8284611084565b60209182918287015181116116b8575b8651838151978201019682116116b0575b505001915b818110156116965760001991036101000a019081199051169082511617905290565b91926115f46115ee6116ab9286518152611076565b611674565b52388061166f565b6116ca6116c4826111a0565b88611554565b61165e565b1561030a57565b815161170d9291906001600160401b0381169060178211611710576117059150604060ff8451921617906114e9565b505b5161161e565b50565b5060ff81116117355761172f9061172783516112f0565b508251611a64565b50611707565b61ffff81116117545761172f9061174c835161128b565b5082516119fd565b63ffffffff81116117755761172f9061176d8351611226565b508251611994565b61172f9061178383516111b6565b508251611928565b815161170d9291906001600160401b03811690601782116117ba576117059150606060ff8451921617906114e9565b5060ff81116117d15761172f906117278351611484565b61ffff81116117e85761172f9061174c835161141f565b63ffffffff81116118015761172f9061176d83516113ba565b61172f906117838351611355565b80519061181a610ffd565b508151516001810190818111610d40576020840151811015611868575b609f6020809551928301015380518211611860575b50500180519060018201809211610d405752565b52388061184c565b8160011b9382850460021483151715610d40576020816118918297611173609f95519184611091565b5095505050611837565b8051906118a6610ffd565b508151516001810190818111610d405760208401518110156118f5575b60ff60208095519283010153805182116118ed575b5050018051600019810191908211610d405752565b5238806118d8565b8160011b9382850460021483151715610d405760208161191e829761117360ff95519184611091565b50955050506118c3565b90611931610ffd565b50815151806008019182600811610d405760208401518311611973575b6008845192830101906001600160401b0319825116179052805182116111f357505090565b8260011b83810460021484151715610d405761198f9085611554565b61194e565b9061199d610ffd565b50815151806004019182600411610d4057602084015183116119dc575b60048451928301019063ffffffff19825116179052805182116111f357505090565b8260011b83810460021484151715610d40576119f89085611554565b6119ba565b90611a06610ffd565b50815151806002019182600211610d405760208401518311611a43575b60028451928301019061ffff19825116179052805182116111f357505090565b8260011b83810460021484151715610d4057611a5f9085611554565b611a23565b90611a6d610ffd565b50815151806001019182600111610d405760208401518311611aa9575b60018451928301019060ff19825116179052805182116111f357505090565b8260011b83810460021484151715610d4057611ac59085611554565b611a8a565b90602061032a92818152019061058c565b9091611af261032a93604084526040840190610622565b91602081840391015261062256fea264697066735822122077c8d2757981ff117802326836e89512603ca293b579ef95e839e36a8de9d02964736f6c63430008140033",
  "linkReferences": {},
  "deployedLinkReferences": {}
}