{
  "_format": "hh-sol-artifact-1",
  "contractName": "HorizonFunctions",
  "sourceName": "contracts/HorizonFunctions.sol",
  "abi": [
    {
      "inputs": [
        {
          "internalType": "uint64",
          "name": "_subscriptionId",
          "type": "uint64"
        },
        {
          "internalType": "address",
          "name": "_routerFunctions",
          "type": "address"
        },
        {
          "internalType": "uint32",
          "name": "_gasLimit",
          "type": "uint32"
        },
        {
          "internalType": "bytes32",
          "name": "_donID",
          "type": "bytes32"
        }
      ],
      "stateMutability": "nonpayable",
      "type": "constructor"
    },
    {
      "inputs": [],
      "name": "EmptyArgs",
      "type": "error"
    },
    {
      "inputs": [],
      "name": "EmptySource",
      "type": "error"
    },
    {
      "inputs": [],
      "name": "NoInlineSecrets",
      "type": "error"
    },
    {
      "inputs": [],
      "name": "OnlyRouterCanFulfill",
      "type": "error"
    },
    {
      "inputs": [
        {
          "internalType": "bytes32",
          "name": "requestId",
          "type": "bytes32"
        }
      ],
      "name": "UnexpectedRequestID",
      "type": "error"
    },
    {
      "anonymous": false,
      "inputs": [
        {
          "indexed": true,
          "internalType": "address",
          "name": "from",
          "type": "address"
        },
        {
          "indexed": true,
          "internalType": "address",
          "name": "to",
          "type": "address"
        }
      ],
      "name": "OwnershipTransferRequested",
      "type": "event"
    },
    {
      "anonymous": false,
      "inputs": [
        {
          "indexed": true,
          "internalType": "address",
          "name": "from",
          "type": "address"
        },
        {
          "indexed": true,
          "internalType": "address",
          "name": "to",
          "type": "address"
        }
      ],
      "name": "OwnershipTransferred",
      "type": "event"
    },
    {
      "anonymous": false,
      "inputs": [
        {
          "indexed": true,
          "internalType": "bytes32",
          "name": "id",
          "type": "bytes32"
        }
      ],
      "name": "RequestFulfilled",
      "type": "event"
    },
    {
      "anonymous": false,
      "inputs": [
        {
          "indexed": true,
          "internalType": "bytes32",
          "name": "id",
          "type": "bytes32"
        }
      ],
      "name": "RequestSent",
      "type": "event"
    },
    {
      "anonymous": false,
      "inputs": [
        {
          "indexed": true,
          "internalType": "bytes32",
          "name": "requestId",
          "type": "bytes32"
        },
        {
          "indexed": false,
          "internalType": "bytes",
          "name": "response",
          "type": "bytes"
        },
        {
          "indexed": false,
          "internalType": "bytes",
          "name": "err",
          "type": "bytes"
        }
      ],
      "name": "Response",
      "type": "event"
    },
    {
      "inputs": [],
      "name": "acceptOwnership",
      "outputs": [],
      "stateMutability": "nonpayable",
      "type": "function"
    },
    {
      "inputs": [
        {
          "internalType": "bytes32",
          "name": "requestId",
          "type": "bytes32"
        },
        {
          "internalType": "bytes",
          "name": "response",
          "type": "bytes"
        },
        {
          "internalType": "bytes",
          "name": "err",
          "type": "bytes"
        }
      ],
      "name": "handleOracleFulfillment",
      "outputs": [],
      "stateMutability": "nonpayable",
      "type": "function"
    },
    {
      "inputs": [],
      "name": "owner",
      "outputs": [
        {
          "internalType": "address",
          "name": "",
          "type": "address"
        }
      ],
      "stateMutability": "view",
      "type": "function"
    },
    {
      "inputs": [
        {
          "internalType": "bytes32",
          "name": "requestId",
          "type": "bytes32"
        }
      ],
      "name": "returnFunctionsInfo",
      "outputs": [
        {
          "internalType": "uint256",
          "name": "",
          "type": "uint256"
        },
        {
          "internalType": "uint256",
          "name": "",
          "type": "uint256"
        }
      ],
      "stateMutability": "view",
      "type": "function"
    },
    {
      "inputs": [],
      "name": "s_lastRequestId",
      "outputs": [
        {
          "internalType": "bytes32",
          "name": "",
          "type": "bytes32"
        }
      ],
      "stateMutability": "view",
      "type": "function"
    },
    {
      "inputs": [
        {
          "internalType": "string[]",
          "name": "args",
          "type": "string[]"
        }
      ],
      "name": "sendRequest",
      "outputs": [
        {
          "internalType": "bytes32",
          "name": "requestId",
          "type": "bytes32"
        }
      ],
      "stateMutability": "nonpayable",
      "type": "function"
    },
    {
      "inputs": [
        {
          "internalType": "address",
          "name": "to",
          "type": "address"
        }
      ],
      "name": "transferOwnership",
      "outputs": [],
      "stateMutability": "nonpayable",
      "type": "function"
    },
    {
      "inputs": [
        {
          "internalType": "bytes32",
          "name": "requestId",
          "type": "bytes32"
        }
      ],
      "name": "vehicleDataMapping",
      "outputs": [
        {
          "internalType": "string",
          "name": "value",
          "type": "string"
        },
        {
          "internalType": "uint256",
          "name": "uintValue",
          "type": "uint256"
        },
        {
          "internalType": "uint256",
          "name": "requestTime",
          "type": "uint256"
        },
        {
          "internalType": "uint256",
          "name": "responseTime",
          "type": "uint256"
        },
        {
          "internalType": "bytes",
          "name": "lastResponse",
          "type": "bytes"
        },
        {
          "internalType": "bytes",
          "name": "lastError",
          "type": "bytes"
        },
        {
          "internalType": "bool",
          "name": "isRequest",
          "type": "bool"
        }
      ],
      "stateMutability": "view",
      "type": "function"
    }
  ],
  "bytecode": "0x60a0346200053657601f6200229a38819003918201601f1916830192916001600160401b0391828511848610176200053b57816080928592604097885283398101031262000536578151908116809103620005365760208201516001600160a01b039290919083831683036200053657848101519063ffffffff8216820362000536576060015193600454861c166080523315620004f257600080546001600160a01b031990811633178255600654909160019180831c9083168015620004e7575b6020821014620004d357601f81116200047c575b5061032d600690815590527f636f6e7374207469706f4175746f6d6f76656c203d20617267735b305d3b636f6000805160206200227a8339815191529081557f6e73742069644d61726361203d20617267735b315d3b636f6e73742069644d6f9101557f64656c6f203d20617267735b325d3b636f6e737420646174614d6f64656c6f207ff652222313e28459528d920b65115c16c04f3efc82aaedc97be59f3f377c0d41557f3d20617267735b335d3b636f6e737420617069526573706f6e7365203d2061777ff652222313e28459528d920b65115c16c04f3efc82aaedc97be59f3f377c0d42557f6169742046756e6374696f6e732e6d616b654874747052657175657374287b757ff652222313e28459528d920b65115c16c04f3efc82aaedc97be59f3f377c0d43557f726c3a206068747470733a2f2f706172616c6c656c756d2e636f6d2e62722f667ff652222313e28459528d920b65115c16c04f3efc82aaedc97be59f3f377c0d44557f6970652f6170692f76312f247b7469706f4175746f6d6f76656c7d2f6d6172637ff652222313e28459528d920b65115c16c04f3efc82aaedc97be59f3f377c0d45557f61732f247b69644d617263617d2f6d6f64656c6f732f247b69644d6f64656c6f7ff652222313e28459528d920b65115c16c04f3efc82aaedc97be59f3f377c0d46557f7d2f616e6f732f247b646174614d6f64656c6f7d607d293b69662028617069527ff652222313e28459528d920b65115c16c04f3efc82aaedc97be59f3f377c0d47557f6573706f6e73652e6572726f7229207b7468726f77204572726f7228275265717ff652222313e28459528d920b65115c16c04f3efc82aaedc97be59f3f377c0d48557f75657374206661696c656427293b7d636f6e7374207b2064617461207d203d207ff652222313e28459528d920b65115c16c04f3efc82aaedc97be59f3f377c0d49557f617069526573706f6e73653b72657475726e2046756e6374696f6e732e656e637ff652222313e28459528d920b65115c16c04f3efc82aaedc97be59f3f377c0d4a557f6f6465537472696e6728646174612e56616c6f72293b000000000000000000007ff652222313e28459528d920b65115c16c04f3efc82aaedc97be59f3f377c0d4b5560078054909116735fa769922a6428758fb44453815e2c436c57c3c717905591841b600160401b600160e01b03161760e09190911b6001600160e01b0319161760045560055551611d28908162000552823960805181818160ea0152610deb0152f35b60068252601f0160051c6000805160206200227a833981519152017ff652222313e28459528d920b65115c16c04f3efc82aaedc97be59f3f377c0d4c5b818110620004c85750620000d5565b8281558301620004b9565b634e487b7160e01b82526022600452602482fd5b90607f1690620000c1565b845162461bcd60e51b815260206004820152601860248201527f43616e6e6f7420736574206f776e657220746f207a65726f00000000000000006044820152606490fd5b600080fd5b634e487b7160e01b600052604160045260246000fdfe608060405260048036101561001357600080fd5b6000803560e01c9182630ca761751461009c57505080634c8f60a31461009757806379ba5097146100925780638da5cb5b1461008d578063b1e2174914610088578063c972ebb614610083578063e6ee90201461007e5763f2fde38b1461007957600080fd5b610855565b6107cb565b6104cb565b6104ad565b610484565b6103c5565b610358565b34610275576060366003190112610275578035906001600160401b03602435818111610271576100cf903690840161033a565b90604435908111610271576100e7903690840161033a565b907f00000000000000000000000000000000000000000000000000000000000000006001600160a01b031633036102605761012c846000526003602052604060002090565b9261013b600685015460ff1690565b156102445790602084836101558461019997968401610a8c565b6101628560058401610a8c565b61016c8483610a8c565b4260038301556007546001600160a01b031690604051809781948293631bd9515560e01b84528301611cbc565b03915afa93841561023f576001600587967f7873807bf6ddc50401cd3d29bbe0decee23fd4d68d273f4b5eb83cded4d2f172968a91610211575b50049101556101e760405192839283611ccd565b0390a27f85e1543bf2f84fe80c6badbce3648c8539ad1df4d2b3d822938ca0538be727e68280a280f35b610232915060203d8111610238575b61022a81836102af565b810190610d78565b8a6101d3565b503d610220565b610d87565b60405163d068bf5b60e01b815290810185815281906020010390fd5b60405163c6829f8360e01b81528390fd5b8480fd5b5080fd5b634e487b7160e01b600052604160045260246000fd5b604081019081106001600160401b038211176102aa57604052565b610279565b90601f801991011681019081106001600160401b038211176102aa57604052565b6040519060e082018281106001600160401b038211176102aa57604052565b9291926001600160401b0382116102aa5760405191610318601f8201601f1916602001846102af565b829481845281830111610335578281602093846000960137010152565b600080fd5b9080601f8301121561033557816020610355933591016102ef565b90565b34610335576020366003190112610335576001600160401b036004358181116103355736602382011215610335578060040135918211610335573660248360051b83010111610335576103c19160246103b19201610c9f565b6040519081529081906020820190565b0390f35b3461033557600080600319360112610481576001546001600160a01b0390811633036104435781546001600160a01b0316600080546001600160a01b0319163317905590600180546001600160a01b03191690553391167f8be0079c531659141344cd1fd0a4f28419497f9722a3daafe3b4186f6b6457e08380a380f35b60405162461bcd60e51b815260206004820152601660248201527526bab9ba10313290383937b837b9b2b21037bbb732b960511b6044820152606490fd5b80fd5b34610335576000366003190112610335576000546040516001600160a01b039091168152602090f35b34610335576000366003190112610335576020600254604051908152f35b346103355760203660031901126103355760043560005260036020526040806000206003600182015491015482519182526020820152f35b90600182811c92168015610533575b602083101461051d57565b634e487b7160e01b600052602260045260246000fd5b91607f1691610512565b604051906000826006549161055183610503565b808352926001908181169081156105d9575060011461057a575b50610578925003836102af565b565b6006600090815291507ff652222313e28459528d920b65115c16c04f3efc82aaedc97be59f3f377c0d3f5b8483106105be575061057893505081016020013861056b565b81935090816020925483858a010152019101909185926105a5565b90506020925061057894915060ff191682840152151560051b8201013861056b565b906040519182600082549261060f84610503565b90818452600194858116908160001461067c5750600114610639575b5050610578925003836102af565b9093915060005260209081600020936000915b8183106106645750506105789350820101388061062b565b8554888401850152948501948794509183019161064c565b91505061057894506020925060ff191682840152151560051b820101388061062b565b90600092918054916106b083610503565b91828252600193848116908160001461071257506001146106d2575b50505050565b90919394506000526020928360002092846000945b8386106106fe5750505050010190388080806106cc565b8054858701830152940193859082016106e7565b9294505050602093945060ff191683830152151560051b010190388080806106cc565b919082519283825260005b848110610761575050826000602080949584010152601f8019910116010190565b602081830181015184830182015201610740565b9592946107c39460c0966107986107b595949b9a9b60e08b5260e08b0190610735565b9360208a0152604089015260608801528682036080880152610735565b9084820360a0860152610735565b931515910152565b3461033557602036600319011261033557600435600052600360205260406000206107f5816105fb565b6103c16001830154926002810154906003810154604051906108258261081e816004870161069f565b03836102af565b60ff6006604051946108458661083e816005850161069f565b03876102af565b0154169360405197889788610775565b34610335576020366003190112610335576004356001600160a01b0381811691829003610335576000541680330361090c573382146108c757600180546001600160a01b031916831790557fed8889f560326eb138920d842192f0eb3dd22b4f139c87a2c57538e05bae1278600080a3005b60405162461bcd60e51b815260206004820152601760248201527f43616e6e6f74207472616e7366657220746f2073656c660000000000000000006044820152606490fd5b60405162461bcd60e51b815260206004820152601660248201527527b7363c9031b0b63630b1363290313c9037bbb732b960511b6044820152606490fd5b6040519060e082018281106001600160401b038211176102aa57604052606060c08360008152600060208201526000604082015282808201528260808201528260a08201520152565b929190926001600160401b03918285116102aa578460051b60405193602080956109bf828501826102af565b8098815201918401938385116103355780925b8584106109e25750505050505050565b833583811161033557820185601f82011215610335578791610a0a87838580953591016102ef565b8152019301926109d2565b60405190602082018281106001600160401b038211176102aa5760405260008252565b90601f8111610a4657505050565b600091825260208220906020601f850160051c83019410610a82575b601f0160051c01915b828110610a7757505050565b818155600101610a6b565b9092508290610a62565b91909182516001600160401b0381116102aa57610ab381610aad8454610503565b84610a38565b602080601f8311600114610aef575081929394600092610ae4575b50508160011b916000199060031b1c1916179055565b015190503880610ace565b90601f19831695610b0585600052602060002090565b926000905b888210610b4257505083600195969710610b29575b505050811b019055565b015160001960f88460031b161c19169055388080610b1f565b80600185968294968601518155019501930190610b0a565b91909182519283516001600160401b0381116102aa57610b8481610b7e8554610503565b85610a38565b6020948590601f8311600114610c255792610578959683610c079460c094600697600092610c1a575b50508160011b916000199060031b1c19161786555b81015160018601556040810151600286015560608101516003860155610bef608082015160048701610a8c565b610c0060a082015160058701610a8c565b0151151590565b91019060ff801983541691151516179055565b015190503880610bad565b90601f19831691610c3b86600052602060002090565b9260005b818110610c8857508460c094600697946105789a9b94610c079860019510610c6f575b505050811b018655610bc2565b015160001960f88460031b161c19169055388080610c62565b929389600181928786015181550195019301610c3f565b610cd1610cf192610cec92610cb261094a565b91610cc4610cbe61053d565b846111c3565b80610d5c575b5050610ff0565b600454600554916001600160401b038260e01c921690610d93565b600255565b610d56610cfc6102d0565b610d04610a15565b81526000602082015242604082015260006060820152610d22610a15565b6080820152610d2f610a15565b60a0820152600160c0820152610d516002546000526003602052604060002090565b610b5a565b60025490565b610d7191610d6b913691610993565b826111ec565b3880610cca565b90816020910312610335575190565b6040513d6000823e3d90fd5b92906020926001600160401b039263ffffffff610dd2604051978896879663230e93b160e11b885216600487015260a0602487015260a4860190610735565b60016044860152921660648401526084830152038160007f00000000000000000000000000000000000000000000000000000000000000006001600160a01b03165af190811561023f57600091610e4e575b50807f1131472297a800fee664d1d89cfa8f7676ff07189ecc53f80bbb5f4969099db8600080a290565b610e66915060203d81116102385761022a81836102af565b38610e24565b60405190610e798261028f565b600c82526b31b7b232a637b1b0ba34b7b760a11b6020830152565b634e487b7160e01b600052602160045260246000fd5b60031115610eb457565b610e94565b60405190610ec68261028f565b60088252676c616e677561676560c01b6020830152565b60011115610eb457565b60405190610ef48261028f565b6006825265736f7572636560d01b6020830152565b60405190610f168261028f565b60048252636172677360e01b6020830152565b634e487b7160e01b600052601160045260246000fd5b6000198114610f4e5760010190565b610f29565b8051821015610f675760209160051b010190565b634e487b7160e01b600052603260045260246000fd5b60405190610f8a8261028f565b600f82526e39b2b1b932ba39a637b1b0ba34b7b760891b6020830152565b60405190610fb58261028f565b60078252667365637265747360c81b6020830152565b60405190610fd88261028f565b600982526862797465734172677360b81b6020830152565b610ff8611225565b9061100a611004610e6c565b8361197d565b611027815161101881610eaa565b61102181610eaa565b836112f1565b611032611004610eb9565b61104c604082015161104381610edd565b61102181610edd565b611057611004610ee7565b61106560608201518361197d565b60a0810180515161116a575b5060808101908151516110ea575b60c0915001805151611092575b50515190565b9161109e611004610fcb565b6110a782611a01565b60005b835180518210156110d757906110cd6110c6826110d294610f53565b51856118c8565b610f3f565b6110aa565b505091506110e481611a8d565b3861108c565b6020810180516110f981610eaa565b61110281610eaa565b156111585760c09261113b6111539261112261111c610f7d565b8861197d565b5161112c81610eaa565b61113581610eaa565b866112f1565b61114c611146610fa8565b8661197d565b51846118c8565b61107f565b60405163a80d31f760e01b8152600490fd5b9261117c611176610f09565b8461197d565b61118583611a01565b60005b845180518210156111b057906110cd6111a4826111ab94610f53565b518661197d565b611188565b505092506111bd82611a8d565b38611071565b8151156111da576000808252604082015260600152565b6040516322ce3edd60e01b8152600490fd5b8151156111f95760a00152565b60405163fe936cb760e01b8152600490fd5b604051906112188261028f565b6000602083606081520152565b6040516112318161028f565b61123961120b565b808252602082016000815261124c61120b565b506101006020830152604051809252600082526101208201918210610335576000916040525290565b601f19810191908211610f4e57565b9060208201809211610f4e57565b91908201809211610f4e57565b906112a861120b565b50601f8116806112d7575b50806020830152604051908183526000825281016020019081106103355760405290565b60200360208111610f4e578101809111610f4e57386112b3565b908151916112fd61120b565b508251516001810190818111610f4e576020850151811015611356575b60c26020610578965192830101538051821161134e575b5050604051916020830152602082526113498261028f565b6118c8565b523880611331565b8160011b9482860460021483151715610f4e576020816113886105789861138160c29551918461129f565b5082611810565b509650505061131a565b908160011b9180830460021490151715610f4e57565b6113b061120b565b508051516001810190818111610f4e5760208301518110156113e9575b605b602084519283010153805182116113e557505090565b5290565b8160011b82810460021483151715610f4e576114129061140b8551918661129f565b5084611810565b506113cd565b61142061120b565b508051516001810190818111610f4e576020830151811015611455575b605a602084519283010153805182116113e557505090565b8160011b82810460021483151715610f4e576114779061140b8551918661129f565b5061143d565b61148561120b565b508051516001810190818111610f4e5760208301518110156114ba575b6059602084519283010153805182116113e557505090565b8160011b82810460021483151715610f4e576114dc9061140b8551918661129f565b506114a2565b6114ea61120b565b508051516001810190818111610f4e57602083015181101561151f575b6058602084519283010153805182116113e557505090565b8160011b82810460021483151715610f4e576115419061140b8551918661129f565b50611507565b61154f61120b565b508051516001810190818111610f4e576020830151811015611584575b607b602084519283010153805182116113e557505090565b8160011b82810460021483151715610f4e576115a69061140b8551918661129f565b5061156c565b6115b461120b565b508051516001810190818111610f4e5760208301518110156115e9575b607a602084519283010153805182116113e557505090565b8160011b82810460021483151715610f4e5761160b9061140b8551918661129f565b506115d1565b61161961120b565b508051516001810190818111610f4e57602083015181101561164e575b6079602084519283010153805182116113e557505090565b8160011b82810460021483151715610f4e576116709061140b8551918661129f565b50611636565b61167e61120b565b508051516001810190818111610f4e5760208301518110156116b3575b6078602084519283010153805182116113e557505090565b8160011b82810460021483151715610f4e576116d59061140b8551918661129f565b5061169b565b906116e461120b565b508151516001810191828211610f4e576020840151821015611717575b602084519283010153805182116113e557505090565b8260011b83810460021484151715610f4e57611740906117398651918761129f565b5085611810565b50611701565b906117538251918361129f565b5061175c61120b565b5080519061176861120b565b5061177681518311156118c1565b825151926117848385611292565b9160209282848094015182116117f9575b51838151978201019682116117f1575b505001915b818110156117cb5760001991036101000a0190811990511690825116179052565b91926117e66117e06117ec9286518152611284565b94611284565b92611275565b6117aa565b5238806117a5565b61180b61180583611392565b82611746565b611795565b9061181961120b565b50805161182461120b565b5061183282518211156118c1565b825151916118408284611292565b60209182918287015181116118aa575b8651838151978201019682116118a2575b505001915b818110156118885760001991036101000a019081199051169082511617905290565b91926117e66117e061189d9286518152611284565b611866565b523880611861565b6118bc6118b682611392565b88611746565b611850565b1561033557565b81516118ff9291906001600160401b0381169060178211611902576118f79150604060ff8451921617906116db565b505b51611810565b50565b5060ff8111611927576119219061191983516114e2565b508251611c56565b506118f9565b61ffff8111611946576119219061193e835161147d565b508251611bef565b63ffffffff8111611967576119219061195f8351611418565b508251611b86565b6119219061197583516113a8565b508251611b1a565b81516118ff9291906001600160401b03811690601782116119ac576118f79150606060ff8451921617906116db565b5060ff81116119c357611921906119198351611676565b61ffff81116119da576119219061193e8351611611565b63ffffffff81116119f3576119219061195f83516115ac565b611921906119758351611547565b805190611a0c61120b565b508151516001810190818111610f4e576020840151811015611a5a575b609f6020809551928301015380518211611a52575b50500180519060018201809211610f4e5752565b523880611a3e565b8160011b9382850460021483151715610f4e57602081611a838297611381609f9551918461129f565b5095505050611a29565b805190611a9861120b565b508151516001810190818111610f4e576020840151811015611ae7575b60ff6020809551928301015380518211611adf575b5050018051600019810191908211610f4e5752565b523880611aca565b8160011b9382850460021483151715610f4e57602081611b10829761138160ff9551918461129f565b5095505050611ab5565b90611b2361120b565b50815151806008019182600811610f4e5760208401518311611b65575b6008845192830101906001600160401b0319825116179052805182116113e557505090565b8260011b83810460021484151715610f4e57611b819085611746565b611b40565b90611b8f61120b565b50815151806004019182600411610f4e5760208401518311611bce575b60048451928301019063ffffffff19825116179052805182116113e557505090565b8260011b83810460021484151715610f4e57611bea9085611746565b611bac565b90611bf861120b565b50815151806002019182600211610f4e5760208401518311611c35575b60028451928301019061ffff19825116179052805182116113e557505090565b8260011b83810460021484151715610f4e57611c519085611746565b611c15565b90611c5f61120b565b50815151806001019182600111610f4e5760208401518311611c9b575b60018451928301019060ff19825116179052805182116113e557505090565b8260011b83810460021484151715610f4e57611cb79085611746565b611c7c565b90602061035592818152019061069f565b9091611ce461035593604084526040840190610735565b91602081840391015261073556fea264697066735822122039a0046313da97a2ea78c4ce6a7fc3be6dd98c722a48c7eed81f52ebfbb3165c64736f6c63430008140033f652222313e28459528d920b65115c16c04f3efc82aaedc97be59f3f377c0d3f",
  "linkReferences": {},
  "deployedLinkReferences": {}
}