{
  "_format": "hh-sol-artifact-1",
  "contractName": "HorizonFunctions",
  "sourceName": "contracts/HorizonFunctions.sol",
  "abi": [
    {
      "inputs": [
        {
          "internalType": "uint64",
          "name": "_subscriptionId",
          "type": "uint64"
        },
        {
          "internalType": "address",
          "name": "_routerFunctions",
          "type": "address"
        },
        {
          "internalType": "uint32",
          "name": "_gasLimit",
          "type": "uint32"
        },
        {
          "internalType": "bytes32",
          "name": "_donID",
          "type": "bytes32"
        }
      ],
      "stateMutability": "nonpayable",
      "type": "constructor"
    },
    {
      "inputs": [],
      "name": "EmptyArgs",
      "type": "error"
    },
    {
      "inputs": [],
      "name": "EmptySource",
      "type": "error"
    },
    {
      "inputs": [],
      "name": "NoInlineSecrets",
      "type": "error"
    },
    {
      "inputs": [],
      "name": "OnlyRouterCanFulfill",
      "type": "error"
    },
    {
      "inputs": [
        {
          "internalType": "bytes32",
          "name": "requestId",
          "type": "bytes32"
        }
      ],
      "name": "UnexpectedRequestID",
      "type": "error"
    },
    {
      "anonymous": false,
      "inputs": [
        {
          "indexed": true,
          "internalType": "bytes32",
          "name": "id",
          "type": "bytes32"
        }
      ],
      "name": "RequestFulfilled",
      "type": "event"
    },
    {
      "anonymous": false,
      "inputs": [
        {
          "indexed": true,
          "internalType": "bytes32",
          "name": "id",
          "type": "bytes32"
        }
      ],
      "name": "RequestSent",
      "type": "event"
    },
    {
      "anonymous": false,
      "inputs": [
        {
          "indexed": true,
          "internalType": "bytes32",
          "name": "requestId",
          "type": "bytes32"
        },
        {
          "indexed": false,
          "internalType": "bytes",
          "name": "response",
          "type": "bytes"
        },
        {
          "indexed": false,
          "internalType": "bytes",
          "name": "err",
          "type": "bytes"
        }
      ],
      "name": "Response",
      "type": "event"
    },
    {
      "inputs": [
        {
          "internalType": "bytes32",
          "name": "requestId",
          "type": "bytes32"
        },
        {
          "internalType": "bytes",
          "name": "response",
          "type": "bytes"
        },
        {
          "internalType": "bytes",
          "name": "err",
          "type": "bytes"
        }
      ],
      "name": "handleOracleFulfillment",
      "outputs": [],
      "stateMutability": "nonpayable",
      "type": "function"
    },
    {
      "inputs": [
        {
          "internalType": "bytes32",
          "name": "requestId",
          "type": "bytes32"
        }
      ],
      "name": "returnFunctionsInfo",
      "outputs": [
        {
          "internalType": "uint256",
          "name": "",
          "type": "uint256"
        },
        {
          "internalType": "uint256",
          "name": "",
          "type": "uint256"
        }
      ],
      "stateMutability": "view",
      "type": "function"
    },
    {
      "inputs": [],
      "name": "s_lastRequestId",
      "outputs": [
        {
          "internalType": "bytes32",
          "name": "",
          "type": "bytes32"
        }
      ],
      "stateMutability": "view",
      "type": "function"
    },
    {
      "inputs": [
        {
          "internalType": "string[]",
          "name": "args",
          "type": "string[]"
        }
      ],
      "name": "sendRequest",
      "outputs": [
        {
          "internalType": "bytes32",
          "name": "requestId",
          "type": "bytes32"
        }
      ],
      "stateMutability": "nonpayable",
      "type": "function"
    },
    {
      "inputs": [
        {
          "internalType": "bytes32",
          "name": "requestId",
          "type": "bytes32"
        }
      ],
      "name": "vehicleDataMapping",
      "outputs": [
        {
          "internalType": "string",
          "name": "value",
          "type": "string"
        },
        {
          "internalType": "uint256",
          "name": "uintValue",
          "type": "uint256"
        },
        {
          "internalType": "uint256",
          "name": "requestTime",
          "type": "uint256"
        },
        {
          "internalType": "uint256",
          "name": "responseTime",
          "type": "uint256"
        },
        {
          "internalType": "bytes",
          "name": "lastResponse",
          "type": "bytes"
        },
        {
          "internalType": "bytes",
          "name": "lastError",
          "type": "bytes"
        },
        {
          "internalType": "bool",
          "name": "isRequest",
          "type": "bool"
        }
      ],
      "stateMutability": "view",
      "type": "function"
    }
  ],
  "bytecode": "0x60a0346200036a576001600160401b03601f62001e9b38819003918201601f1916840191838311858410176200036f578085926080946040528339810103126200036a5781519081168091036200036a5760208201516001600160a01b038116929091908383036200036a5760408101519063ffffffff821682036200036a57606001519360805260048054906001918281811c911680156200035f575b60208210146200034a57601f811162000318575b507f6f6465537472696e6728646174612e56616c6f72293b00000000000000000000917f6169742046756e6374696f6e732e6d616b654874747052657175657374287b758261032d600c9455806000527f6e73742069644d61726361203d20617267735b315d3b636f6e73742069644d6f6020600020937f636f6e7374207469706f4175746f6d6f76656c203d20617267735b305d3b636f85558401557f64656c6f203d20617267735b325d3b636f6e737420646174614d6f64656c6f2060028401557f3d20617267735b335d3b636f6e737420617069526573706f6e7365203d20617760038401558201557f726c3a206068747470733a2f2f706172616c6c656c756d2e636f6d2e62722f6660058201557f6970652f6170692f76312f247b7469706f4175746f6d6f76656c7d2f6d61726360068201557f61732f247b69644d617263617d2f6d6f64656c6f732f247b69644d6f64656c6f60078201557f7d2f616e6f732f247b646174614d6f64656c6f7d607d293b696620286170695260088201557f6573706f6e73652e6572726f7229207b7468726f77204572726f72282752657160098201557f75657374206661696c656427293b7d636f6e7374207b2064617461207d203d20600a8201557f617069526573706f6e73653b72657475726e2046756e6374696f6e732e656e63600b8201550155735fa769922a6428758fb44453815e2c436c57c3c760018060a01b0319600554161760055563ffffffff60e01b9060e01b169168010000000000000000600160e01b039060401b161717600255600355604051611b15908162000386823960805181818160ba0152610bd80152f35b81600052600d601f6020600020920160051c820191015b8181106200033e5750620000b1565b6000815583016200032f565b602282634e487b7160e01b6000525260246000fd5b90607f16906200009d565b600080fd5b634e487b7160e01b600052604160045260246000fdfe608060405260048036101561001357600080fd5b6000803560e01c9182630ca761751461006c57505080634c8f60a314610067578063b1e2174914610062578063c972ebb61461005d5763e6ee90201461005857600080fd5b6106b3565b6103b3565b610395565b610328565b34610245576060366003190112610245578035906001600160401b036024358181116102415761009f903690840161030a565b90604435908111610241576100b7903690840161030a565b907f00000000000000000000000000000000000000000000000000000000000000006001600160a01b03163303610230576100fc846000526001602052604060002090565b9261010b600685015460ff1690565b15610214579060208483610125846101699796840161087f565b610132856005840161087f565b61013c848361087f565b4260038301556005546001600160a01b031690604051809781948293631bd9515560e01b84528301611aa9565b03915afa93841561020f576001600587967f7873807bf6ddc50401cd3d29bbe0decee23fd4d68d273f4b5eb83cded4d2f172968a916101e1575b50049101556101b760405192839283611aba565b0390a27f85e1543bf2f84fe80c6badbce3648c8539ad1df4d2b3d822938ca0538be727e68280a280f35b610202915060203d8111610208575b6101fa818361027f565b810190610b65565b8a6101a3565b503d6101f0565b610b74565b60405163d068bf5b60e01b815290810185815281906020010390fd5b60405163c6829f8360e01b81528390fd5b8480fd5b5080fd5b634e487b7160e01b600052604160045260246000fd5b604081019081106001600160401b0382111761027a57604052565b610249565b90601f801991011681019081106001600160401b0382111761027a57604052565b6040519060e082018281106001600160401b0382111761027a57604052565b9291926001600160401b03821161027a57604051916102e8601f8201601f19166020018461027f565b829481845281830111610305578281602093846000960137010152565b600080fd5b9080601f8301121561030557816020610325933591016102bf565b90565b34610305576020366003190112610305576001600160401b036004358181116103055736602382011215610305578060040135918211610305573660248360051b83010111610305576103919160246103819201610a92565b6040519081529081906020820190565b0390f35b34610305576000366003190112610305576020600054604051908152f35b346103055760203660031901126103055760043560005260016020526040806000206003600182015491015482519182526020820152f35b90600182811c9216801561041b575b602083101461040557565b634e487b7160e01b600052602260045260246000fd5b91607f16916103fa565b6040519060008260045491610439836103eb565b808352926001908181169081156104c15750600114610462575b506104609250038361027f565b565b6004600090815291507f8a35acfbc15ff81a39ae7d344fd709f28e8600b4aa8c65c6b64bfe7fe36bd19b5b8483106104a65750610460935050810160200138610453565b81935090816020925483858a0101520191019091859261048d565b90506020925061046094915060ff191682840152151560051b82010138610453565b90604051918260008254926104f7846103eb565b9081845260019485811690816000146105645750600114610521575b50506104609250038361027f565b9093915060005260209081600020936000915b81831061054c57505061046093508201013880610513565b85548884018501529485019487945091830191610534565b91505061046094506020925060ff191682840152151560051b8201013880610513565b9060009291805491610598836103eb565b9182825260019384811690816000146105fa57506001146105ba575b50505050565b90919394506000526020928360002092846000945b8386106105e65750505050010190388080806105b4565b8054858701830152940193859082016105cf565b9294505050602093945060ff191683830152151560051b010190388080806105b4565b919082519283825260005b848110610649575050826000602080949584010152601f8019910116010190565b602081830181015184830182015201610628565b9592946106ab9460c09661068061069d95949b9a9b60e08b5260e08b019061061d565b9360208a015260408901526060880152868203608088015261061d565b9084820360a086015261061d565b931515910152565b3461030557602036600319011261030557600435600052600160205260406000206106dd816104e3565b61039160018301549260028101549060038101546040519061070d826107068160048701610587565b038361027f565b60ff60066040519461072d866107268160058501610587565b038761027f565b015416936040519788978861065d565b6040519060e082018281106001600160401b0382111761027a57604052606060c08360008152600060208201526000604082015282808201528260808201528260a08201520152565b929190926001600160401b039182851161027a578460051b60405193602080956107b28285018261027f565b8098815201918401938385116103055780925b8584106107d55750505050505050565b833583811161030557820185601f820112156103055787916107fd87838580953591016102bf565b8152019301926107c5565b60405190602082018281106001600160401b0382111761027a5760405260008252565b90601f811161083957505050565b600091825260208220906020601f850160051c83019410610875575b601f0160051c01915b82811061086a57505050565b81815560010161085e565b9092508290610855565b91909182516001600160401b03811161027a576108a6816108a084546103eb565b8461082b565b602080601f83116001146108e25750819293946000926108d7575b50508160011b916000199060031b1c1916179055565b0151905038806108c1565b90601f198316956108f885600052602060002090565b926000905b8882106109355750508360019596971061091c575b505050811b019055565b015160001960f88460031b161c19169055388080610912565b806001859682949686015181550195019301906108fd565b91909182519283516001600160401b03811161027a576109778161097185546103eb565b8561082b565b6020948590601f8311600114610a1857926104609596836109fa9460c094600697600092610a0d575b50508160011b916000199060031b1c19161786555b810151600186015560408101516002860155606081015160038601556109e260808201516004870161087f565b6109f360a08201516005870161087f565b0151151590565b91019060ff801983541691151516179055565b0151905038806109a0565b90601f19831691610a2e86600052602060002090565b9260005b818110610a7b57508460c094600697946104609a9b946109fa9860019510610a62575b505050811b0186556109b5565b015160001960f88460031b161c19169055388080610a55565b929389600181928786015181550195019301610a32565b610ac4610b4392610adf92610aa561073d565b91610ab7610ab1610425565b84610fb0565b80610b49575b5050610ddd565b600254600354916001600160401b038260e01c921690610b80565b80600055610b3e610aee6102a0565b91610af7610808565b83526000602084015242604084015260006060840152610b15610808565b6080840152610b22610808565b60a0840152600160c08401526000526001602052604060002090565b61094d565b60005490565b610b5e91610b58913691610786565b82610fd9565b3880610abd565b90816020910312610305575190565b6040513d6000823e3d90fd5b92906020926001600160401b039263ffffffff610bbf604051978896879663230e93b160e11b885216600487015260a0602487015260a486019061061d565b60016044860152921660648401526084830152038160007f00000000000000000000000000000000000000000000000000000000000000006001600160a01b03165af190811561020f57600091610c3b575b50807f1131472297a800fee664d1d89cfa8f7676ff07189ecc53f80bbb5f4969099db8600080a290565b610c53915060203d8111610208576101fa818361027f565b38610c11565b60405190610c668261025f565b600c82526b31b7b232a637b1b0ba34b7b760a11b6020830152565b634e487b7160e01b600052602160045260246000fd5b60031115610ca157565b610c81565b60405190610cb38261025f565b60088252676c616e677561676560c01b6020830152565b60011115610ca157565b60405190610ce18261025f565b6006825265736f7572636560d01b6020830152565b60405190610d038261025f565b60048252636172677360e01b6020830152565b634e487b7160e01b600052601160045260246000fd5b6000198114610d3b5760010190565b610d16565b8051821015610d545760209160051b010190565b634e487b7160e01b600052603260045260246000fd5b60405190610d778261025f565b600f82526e39b2b1b932ba39a637b1b0ba34b7b760891b6020830152565b60405190610da28261025f565b60078252667365637265747360c81b6020830152565b60405190610dc58261025f565b600982526862797465734172677360b81b6020830152565b610de5611012565b90610df7610df1610c59565b8361176a565b610e148151610e0581610c97565b610e0e81610c97565b836110de565b610e1f610df1610ca6565b610e396040820151610e3081610cca565b610e0e81610cca565b610e44610df1610cd4565b610e5260608201518361176a565b60a08101805151610f57575b506080810190815151610ed7575b60c0915001805151610e7f575b50515190565b91610e8b610df1610db8565b610e94826117ee565b60005b83518051821015610ec45790610eba610eb382610ebf94610d40565b51856116b5565b610d2c565b610e97565b50509150610ed18161187a565b38610e79565b602081018051610ee681610c97565b610eef81610c97565b15610f455760c092610f28610f4092610f0f610f09610d6a565b8861176a565b51610f1981610c97565b610f2281610c97565b866110de565b610f39610f33610d95565b8661176a565b51846116b5565b610e6c565b60405163a80d31f760e01b8152600490fd5b92610f69610f63610cf6565b8461176a565b610f72836117ee565b60005b84518051821015610f9d5790610eba610f9182610f9894610d40565b518661176a565b610f75565b50509250610faa8261187a565b38610e5e565b815115610fc7576000808252604082015260600152565b6040516322ce3edd60e01b8152600490fd5b815115610fe65760a00152565b60405163fe936cb760e01b8152600490fd5b604051906110058261025f565b6000602083606081520152565b60405161101e8161025f565b611026610ff8565b8082526020820160008152611039610ff8565b506101006020830152604051809252600082526101208201918210610305576000916040525290565b601f19810191908211610d3b57565b9060208201809211610d3b57565b91908201809211610d3b57565b90611095610ff8565b50601f8116806110c4575b50806020830152604051908183526000825281016020019081106103055760405290565b60200360208111610d3b578101809111610d3b57386110a0565b908151916110ea610ff8565b508251516001810190818111610d3b576020850151811015611143575b60c26020610460965192830101538051821161113b575b5050604051916020830152602082526111368261025f565b6116b5565b52388061111e565b8160011b9482860460021483151715610d3b576020816111756104609861116e60c29551918461108c565b50826115fd565b5096505050611107565b908160011b9180830460021490151715610d3b57565b61119d610ff8565b508051516001810190818111610d3b5760208301518110156111d6575b605b602084519283010153805182116111d257505090565b5290565b8160011b82810460021483151715610d3b576111ff906111f88551918661108c565b50846115fd565b506111ba565b61120d610ff8565b508051516001810190818111610d3b576020830151811015611242575b605a602084519283010153805182116111d257505090565b8160011b82810460021483151715610d3b57611264906111f88551918661108c565b5061122a565b611272610ff8565b508051516001810190818111610d3b5760208301518110156112a7575b6059602084519283010153805182116111d257505090565b8160011b82810460021483151715610d3b576112c9906111f88551918661108c565b5061128f565b6112d7610ff8565b508051516001810190818111610d3b57602083015181101561130c575b6058602084519283010153805182116111d257505090565b8160011b82810460021483151715610d3b5761132e906111f88551918661108c565b506112f4565b61133c610ff8565b508051516001810190818111610d3b576020830151811015611371575b607b602084519283010153805182116111d257505090565b8160011b82810460021483151715610d3b57611393906111f88551918661108c565b50611359565b6113a1610ff8565b508051516001810190818111610d3b5760208301518110156113d6575b607a602084519283010153805182116111d257505090565b8160011b82810460021483151715610d3b576113f8906111f88551918661108c565b506113be565b611406610ff8565b508051516001810190818111610d3b57602083015181101561143b575b6079602084519283010153805182116111d257505090565b8160011b82810460021483151715610d3b5761145d906111f88551918661108c565b50611423565b61146b610ff8565b508051516001810190818111610d3b5760208301518110156114a0575b6078602084519283010153805182116111d257505090565b8160011b82810460021483151715610d3b576114c2906111f88551918661108c565b50611488565b906114d1610ff8565b508151516001810191828211610d3b576020840151821015611504575b602084519283010153805182116111d257505090565b8260011b83810460021484151715610d3b5761152d906115268651918761108c565b50856115fd565b506114ee565b906115408251918361108c565b50611549610ff8565b50805190611555610ff8565b5061156381518311156116ae565b82515192611571838561107f565b9160209282848094015182116115e6575b51838151978201019682116115de575b505001915b818110156115b85760001991036101000a0190811990511690825116179052565b91926115d36115cd6115d99286518152611071565b94611071565b92611062565b611597565b523880611592565b6115f86115f28361117f565b82611533565b611582565b90611606610ff8565b508051611611610ff8565b5061161f82518211156116ae565b8251519161162d828461107f565b6020918291828701518111611697575b86518381519782010196821161168f575b505001915b818110156116755760001991036101000a019081199051169082511617905290565b91926115d36115cd61168a9286518152611071565b611653565b52388061164e565b6116a96116a38261117f565b88611533565b61163d565b1561030557565b81516116ec9291906001600160401b03811690601782116116ef576116e49150604060ff8451921617906114c8565b505b516115fd565b50565b5060ff81116117145761170e9061170683516112cf565b508251611a43565b506116e6565b61ffff81116117335761170e9061172b835161126a565b5082516119dc565b63ffffffff81116117545761170e9061174c8351611205565b508251611973565b61170e906117628351611195565b508251611907565b81516116ec9291906001600160401b0381169060178211611799576116e49150606060ff8451921617906114c8565b5060ff81116117b05761170e906117068351611463565b61ffff81116117c75761170e9061172b83516113fe565b63ffffffff81116117e05761170e9061174c8351611399565b61170e906117628351611334565b8051906117f9610ff8565b508151516001810190818111610d3b576020840151811015611847575b609f602080955192830101538051821161183f575b50500180519060018201809211610d3b5752565b52388061182b565b8160011b9382850460021483151715610d3b57602081611870829761116e609f9551918461108c565b5095505050611816565b805190611885610ff8565b508151516001810190818111610d3b5760208401518110156118d4575b60ff60208095519283010153805182116118cc575b5050018051600019810191908211610d3b5752565b5238806118b7565b8160011b9382850460021483151715610d3b576020816118fd829761116e60ff9551918461108c565b50955050506118a2565b90611910610ff8565b50815151806008019182600811610d3b5760208401518311611952575b6008845192830101906001600160401b0319825116179052805182116111d257505090565b8260011b83810460021484151715610d3b5761196e9085611533565b61192d565b9061197c610ff8565b50815151806004019182600411610d3b57602084015183116119bb575b60048451928301019063ffffffff19825116179052805182116111d257505090565b8260011b83810460021484151715610d3b576119d79085611533565b611999565b906119e5610ff8565b50815151806002019182600211610d3b5760208401518311611a22575b60028451928301019061ffff19825116179052805182116111d257505090565b8260011b83810460021484151715610d3b57611a3e9085611533565b611a02565b90611a4c610ff8565b50815151806001019182600111610d3b5760208401518311611a88575b60018451928301019060ff19825116179052805182116111d257505090565b8260011b83810460021484151715610d3b57611aa49085611533565b611a69565b906020610325928181520190610587565b9091611ad16103259360408452604084019061061d565b91602081840391015261061d56fea264697066735822122011a6e5ca1f84d78c439355f75ec4c25dd9ebef1a12423aebe1000f22582ba59464736f6c63430008140033",
  "linkReferences": {},
  "deployedLinkReferences": {}
}