{
  "_format": "hh-sol-artifact-1",
  "contractName": "HorizonVRF",
  "sourceName": "contracts/HorizonVRF.sol",
  "abi": [
    {
      "inputs": [
        {
          "internalType": "address",
          "name": "_vrfCoordinator",
          "type": "address"
        },
        {
          "internalType": "bytes32",
          "name": "_keyHash",
          "type": "bytes32"
        },
        {
          "internalType": "uint64",
          "name": "_subscriptionId",
          "type": "uint64"
        },
        {
          "internalType": "uint32",
          "name": "_callbackGasLimit",
          "type": "uint32"
        },
        {
          "internalType": "uint16",
          "name": "_requestConfirmations",
          "type": "uint16"
        },
        {
          "internalType": "uint32",
          "name": "_numWords",
          "type": "uint32"
        }
      ],
      "stateMutability": "nonpayable",
      "type": "constructor"
    },
    {
      "inputs": [
        {
          "internalType": "address",
          "name": "have",
          "type": "address"
        },
        {
          "internalType": "address",
          "name": "want",
          "type": "address"
        }
      ],
      "name": "OnlyCoordinatorCanFulfill",
      "type": "error"
    },
    {
      "anonymous": false,
      "inputs": [
        {
          "indexed": false,
          "internalType": "uint256",
          "name": "randomValue",
          "type": "uint256"
        }
      ],
      "name": "RandomValueUpdated",
      "type": "event"
    },
    {
      "anonymous": false,
      "inputs": [
        {
          "indexed": false,
          "internalType": "uint256",
          "name": "requestId",
          "type": "uint256"
        },
        {
          "indexed": false,
          "internalType": "uint256[]",
          "name": "randomWords",
          "type": "uint256[]"
        },
        {
          "indexed": false,
          "internalType": "uint256",
          "name": "randomValue",
          "type": "uint256"
        }
      ],
      "name": "RequestFulfilled",
      "type": "event"
    },
    {
      "anonymous": false,
      "inputs": [
        {
          "indexed": false,
          "internalType": "uint256",
          "name": "requestId",
          "type": "uint256"
        },
        {
          "indexed": false,
          "internalType": "uint32",
          "name": "numWords",
          "type": "uint32"
        },
        {
          "indexed": false,
          "internalType": "uint256",
          "name": "_titleId",
          "type": "uint256"
        },
        {
          "indexed": false,
          "internalType": "uint256",
          "name": "_drawNumber",
          "type": "uint256"
        },
        {
          "indexed": false,
          "internalType": "uint256",
          "name": "_totalPlayersAvailable",
          "type": "uint256"
        }
      ],
      "name": "RequestSent",
      "type": "event"
    },
    {
      "inputs": [
        {
          "internalType": "uint256",
          "name": "_requestId",
          "type": "uint256"
        }
      ],
      "name": "getRequestStatus",
      "outputs": [
        {
          "internalType": "bool",
          "name": "fulfilled",
          "type": "bool"
        },
        {
          "internalType": "uint256[]",
          "name": "randomWords",
          "type": "uint256[]"
        },
        {
          "internalType": "uint256",
          "name": "_randomValue",
          "type": "uint256"
        }
      ],
      "stateMutability": "view",
      "type": "function"
    },
    {
      "inputs": [],
      "name": "lastRequestId",
      "outputs": [
        {
          "internalType": "uint256",
          "name": "",
          "type": "uint256"
        }
      ],
      "stateMutability": "view",
      "type": "function"
    },
    {
      "inputs": [],
      "name": "owner",
      "outputs": [
        {
          "internalType": "address",
          "name": "",
          "type": "address"
        }
      ],
      "stateMutability": "view",
      "type": "function"
    },
    {
      "inputs": [
        {
          "internalType": "uint256",
          "name": "requestId",
          "type": "uint256"
        },
        {
          "internalType": "uint256[]",
          "name": "randomWords",
          "type": "uint256[]"
        }
      ],
      "name": "rawFulfillRandomWords",
      "outputs": [],
      "stateMutability": "nonpayable",
      "type": "function"
    },
    {
      "inputs": [
        {
          "internalType": "uint256",
          "name": "",
          "type": "uint256"
        }
      ],
      "name": "requestIds",
      "outputs": [
        {
          "internalType": "uint256",
          "name": "",
          "type": "uint256"
        }
      ],
      "stateMutability": "view",
      "type": "function"
    },
    {
      "inputs": [
        {
          "internalType": "uint256",
          "name": "_titleId",
          "type": "uint256"
        },
        {
          "internalType": "uint256",
          "name": "_drawNumber",
          "type": "uint256"
        },
        {
          "internalType": "uint256",
          "name": "_totalPlayersAvailable",
          "type": "uint256"
        }
      ],
      "name": "requestRandomWords",
      "outputs": [
        {
          "internalType": "uint256",
          "name": "requestId",
          "type": "uint256"
        }
      ],
      "stateMutability": "nonpayable",
      "type": "function"
    },
    {
      "inputs": [
        {
          "internalType": "uint256",
          "name": "requestId",
          "type": "uint256"
        }
      ],
      "name": "s_draw",
      "outputs": [
        {
          "internalType": "uint256",
          "name": "titleId",
          "type": "uint256"
        },
        {
          "internalType": "uint256",
          "name": "drawNumber",
          "type": "uint256"
        },
        {
          "internalType": "uint256",
          "name": "totalPlayersAvailable",
          "type": "uint256"
        }
      ],
      "stateMutability": "view",
      "type": "function"
    },
    {
      "inputs": [
        {
          "internalType": "uint256",
          "name": "requestId",
          "type": "uint256"
        }
      ],
      "name": "s_requests",
      "outputs": [
        {
          "internalType": "bool",
          "name": "fulfilled",
          "type": "bool"
        },
        {
          "internalType": "bool",
          "name": "exists",
          "type": "bool"
        },
        {
          "internalType": "uint256",
          "name": "randomValue",
          "type": "uint256"
        }
      ],
      "stateMutability": "view",
      "type": "function"
    }
  ],
  "bytecode": "0x60a03461010c576001600160401b0390601f610a1c38819003918201601f1916830191848311848410176101115780849260c09460405283398101031261010c578051916001600160a01b0383169081840361010c57602083015192604081015191821680920361010c5761007660608201610127565b9160808201519461ffff8616860361010c576dffff000000000000000000000000946100b160a06bffffffff00000000000000009501610127565b9760805260018060a01b031960065416176006556008556009549563ffffffff60701b9060701b169560018060901b031916179160401b16179160601b1617176009556040516108e390816101398239608051816105b80152f35b600080fd5b634e487b7160e01b600052604160045260246000fd5b519063ffffffff8216820361010c5756fe60c060408181526004918236101561001657600080fd5b600092833560e01c9182631fe543e31461053c5750816332601f64146102605781638796ba8c146102255781638da5cb5b146101fc578163a168fa89146101b7578163cbc1c02114610179578163d8a4676f1461009e575063fc2a88c31461007d57600080fd5b3461009a578160031936011261009a576020906005549051908152f35b5080fd5b83833461009a576020928360031936011261017557358083528284526100cc60ff8385205460081c1661086d565b82528183528082208151906100e082610798565b60ff81548181161515845260081c16151585830152600193848201845191829687938984549182815201938352898320925b8a82821061015f57868a8a61015760028c61012f868d03876107ca565b8585850152015491826060820152511515936060845196879687528601526060850190610839565b918301520390f35b845486528a965090940193928201928201610112565b8280fd5b905034610175576020366003190112610175576060928291358152600160205220805491600260018301549201549181519384526020840152820152f35b905034610175576020366003190112610175576060928291358152806020522090600282549201549060ff8151938181161515855260081c1615156020840152820152f35b50503461009a578160031936011261009a5760035490516001600160a01b039091168152602090f35b82843461025d57602036600319011261025d578235925483101561025d575061024f6020926107ec565b91905490519160031b1c8152f35b80fd5b9050823461025d57606036600319011261025d5760018060a01b036006541691600854600954908551906305d3b1d360e41b82528382015267ffffffffffffffff906024958284168783015261ffff8460601c16604483015263ffffffff848180968b1c16606485015260701c16608483015260206080528160a48188608051945af18015610532578560a0526104fb575b50855192608051840184811083821117610485578752848452865161031681610798565b858152608051810190600195868352898201908152606082019288845260a051895288608051528a8920925115159060ff61ff0085549251151560081b1692169061ffff191617178255519182518581116104e957600160401b938482116104d7578884019081548383558084106104ab575b5060805101908a526080518a20898b5b848110610497575050505050600290519101558154908110156104855780856103c4920183556107ec565b81549060031b9060a051821b91600019901b191617905560a0516005558651916060830190838210908211176104855791600260a09694927ffe311bf598a14a250b990be603a26cfc8f34a235e618e79c51aacc47c0d74ac69896948a52359586835260805183019035948582528a8401918b604435988985528b5181528360805152209451855551908401555191015560095460701c1692865193855185526080518501528684015260608301526080820152a15160a051815260805190f35b634e487b7160e01b8652604182528686fd5b835193608051019381840155018a90610399565b828c526080518c20908b8583018e5b83850182106104cc5750505050610389565b8155018c908e6104ba565b634e487b7160e01b8a52604186528a8afd5b634e487b7160e01b8952604185528989fd5b6080513d811161052b575b61051081836107ca565b816080519181010312610527575160a052866102f2565b8480fd5b503d610506565b87513d87823e3d90fd5b8482853461017557806003193601126101755781359060249283359367ffffffffffffffff918286116107945736602387011215610794578581013595838711610782578660051b906020976105948984018c6107ca565b8a52878a018481938301019136831161077e57858a9101915b83831061076e5750507f00000000000000000000000000000000000000000000000000000000000000006001600160a01b031691505033819003610752575085885287875261060460ff868a205460081c1661086d565b85885287875284882093600180958160ff19825416178155018a5191821161074057600160401b8211610740578054828255808310610719575b5082908a52888a20868b5b8481106107075750505050508851156106f55751858852838752600285892001549081156106e357069283018093116106d25750506106c88596847f147eb1ff0c82f87f2b03e2c43f5a36488ff63ec6b730195fde4605f612f8db519752878652826002858a2001556060845196879687528601526060850190610839565b918301520390a180f35b634e487b7160e01b87526011905285fd5b634e487b7160e01b8952601283528389fd5b50634e487b7160e01b87526032905285fd5b8b845194019381840155018790610649565b818b5286838b8d2092830192015b82811061073557505061063e565b8c8155018790610727565b634e487b7160e01b8a5260418452848afd5b905060449285519263073e64fd60e21b84523390840152820152fd5b82358152918101918a91016105ad565b8a80fd5b50634e487b7160e01b87526041905285fd5b8680fd5b6080810190811067ffffffffffffffff8211176107b457604052565b634e487b7160e01b600052604160045260246000fd5b90601f8019910116810190811067ffffffffffffffff8211176107b457604052565b6004548110156108235760046000527f8a35acfbc15ff81a39ae7d344fd709f28e8600b4aa8c65c6b64bfe7fe36bd19b0190600090565b634e487b7160e01b600052603260045260246000fd5b90815180825260208080930193019160005b828110610859575050505090565b83518552938101939281019260010161084b565b1561087457565b60405162461bcd60e51b81526020600482015260116024820152701c995c5d595cdd081b9bdd08199bdd5b99607a1b6044820152606490fdfea26469706673582212205ba1b422964075ddc3b123e6400a9a5375994823fa5eaa4567770dcb58a0387f64736f6c63430008140033",
  "linkReferences": {},
  "deployedLinkReferences": {}
}