{
  "_format": "hh-sol-artifact-1",
  "contractName": "FakeRWA",
  "sourceName": "contracts/FakeRWA.sol",
  "abi": [
    {
      "inputs": [
        {
          "internalType": "address",
          "name": "initialOwner",
          "type": "address"
        }
      ],
      "stateMutability": "nonpayable",
      "type": "constructor"
    },
    {
      "inputs": [
        {
          "internalType": "address",
          "name": "sender",
          "type": "address"
        },
        {
          "internalType": "uint256",
          "name": "tokenId",
          "type": "uint256"
        },
        {
          "internalType": "address",
          "name": "owner",
          "type": "address"
        }
      ],
      "name": "ERC721IncorrectOwner",
      "type": "error"
    },
    {
      "inputs": [
        {
          "internalType": "address",
          "name": "operator",
          "type": "address"
        },
        {
          "internalType": "uint256",
          "name": "tokenId",
          "type": "uint256"
        }
      ],
      "name": "ERC721InsufficientApproval",
      "type": "error"
    },
    {
      "inputs": [
        {
          "internalType": "address",
          "name": "approver",
          "type": "address"
        }
      ],
      "name": "ERC721InvalidApprover",
      "type": "error"
    },
    {
      "inputs": [
        {
          "internalType": "address",
          "name": "operator",
          "type": "address"
        }
      ],
      "name": "ERC721InvalidOperator",
      "type": "error"
    },
    {
      "inputs": [
        {
          "internalType": "address",
          "name": "owner",
          "type": "address"
        }
      ],
      "name": "ERC721InvalidOwner",
      "type": "error"
    },
    {
      "inputs": [
        {
          "internalType": "address",
          "name": "receiver",
          "type": "address"
        }
      ],
      "name": "ERC721InvalidReceiver",
      "type": "error"
    },
    {
      "inputs": [
        {
          "internalType": "address",
          "name": "sender",
          "type": "address"
        }
      ],
      "name": "ERC721InvalidSender",
      "type": "error"
    },
    {
      "inputs": [
        {
          "internalType": "uint256",
          "name": "tokenId",
          "type": "uint256"
        }
      ],
      "name": "ERC721NonexistentToken",
      "type": "error"
    },
    {
      "inputs": [
        {
          "internalType": "address",
          "name": "owner",
          "type": "address"
        }
      ],
      "name": "OwnableInvalidOwner",
      "type": "error"
    },
    {
      "inputs": [
        {
          "internalType": "address",
          "name": "account",
          "type": "address"
        }
      ],
      "name": "OwnableUnauthorizedAccount",
      "type": "error"
    },
    {
      "anonymous": false,
      "inputs": [
        {
          "indexed": true,
          "internalType": "address",
          "name": "owner",
          "type": "address"
        },
        {
          "indexed": true,
          "internalType": "address",
          "name": "approved",
          "type": "address"
        },
        {
          "indexed": true,
          "internalType": "uint256",
          "name": "tokenId",
          "type": "uint256"
        }
      ],
      "name": "Approval",
      "type": "event"
    },
    {
      "anonymous": false,
      "inputs": [
        {
          "indexed": true,
          "internalType": "address",
          "name": "owner",
          "type": "address"
        },
        {
          "indexed": true,
          "internalType": "address",
          "name": "operator",
          "type": "address"
        },
        {
          "indexed": false,
          "internalType": "bool",
          "name": "approved",
          "type": "bool"
        }
      ],
      "name": "ApprovalForAll",
      "type": "event"
    },
    {
      "anonymous": false,
      "inputs": [
        {
          "indexed": false,
          "internalType": "uint256",
          "name": "_fromTokenId",
          "type": "uint256"
        },
        {
          "indexed": false,
          "internalType": "uint256",
          "name": "_toTokenId",
          "type": "uint256"
        }
      ],
      "name": "BatchMetadataUpdate",
      "type": "event"
    },
    {
      "anonymous": false,
      "inputs": [
        {
          "indexed": false,
          "internalType": "uint256",
          "name": "_tokenId",
          "type": "uint256"
        }
      ],
      "name": "MetadataUpdate",
      "type": "event"
    },
    {
      "anonymous": false,
      "inputs": [
        {
          "indexed": true,
          "internalType": "address",
          "name": "previousOwner",
          "type": "address"
        },
        {
          "indexed": true,
          "internalType": "address",
          "name": "newOwner",
          "type": "address"
        }
      ],
      "name": "OwnershipTransferred",
      "type": "event"
    },
    {
      "anonymous": false,
      "inputs": [
        {
          "indexed": true,
          "internalType": "address",
          "name": "from",
          "type": "address"
        },
        {
          "indexed": true,
          "internalType": "address",
          "name": "to",
          "type": "address"
        },
        {
          "indexed": true,
          "internalType": "uint256",
          "name": "tokenId",
          "type": "uint256"
        }
      ],
      "name": "Transfer",
      "type": "event"
    },
    {
      "inputs": [
        {
          "internalType": "address",
          "name": "to",
          "type": "address"
        },
        {
          "internalType": "uint256",
          "name": "tokenId",
          "type": "uint256"
        }
      ],
      "name": "approve",
      "outputs": [],
      "stateMutability": "nonpayable",
      "type": "function"
    },
    {
      "inputs": [
        {
          "internalType": "address",
          "name": "owner",
          "type": "address"
        }
      ],
      "name": "balanceOf",
      "outputs": [
        {
          "internalType": "uint256",
          "name": "",
          "type": "uint256"
        }
      ],
      "stateMutability": "view",
      "type": "function"
    },
    {
      "inputs": [
        {
          "internalType": "uint256",
          "name": "tokenId",
          "type": "uint256"
        }
      ],
      "name": "burn",
      "outputs": [],
      "stateMutability": "nonpayable",
      "type": "function"
    },
    {
      "inputs": [
        {
          "internalType": "uint256",
          "name": "tokenId",
          "type": "uint256"
        }
      ],
      "name": "getApproved",
      "outputs": [
        {
          "internalType": "address",
          "name": "",
          "type": "address"
        }
      ],
      "stateMutability": "view",
      "type": "function"
    },
    {
      "inputs": [
        {
          "internalType": "address",
          "name": "owner",
          "type": "address"
        },
        {
          "internalType": "address",
          "name": "operator",
          "type": "address"
        }
      ],
      "name": "isApprovedForAll",
      "outputs": [
        {
          "internalType": "bool",
          "name": "",
          "type": "bool"
        }
      ],
      "stateMutability": "view",
      "type": "function"
    },
    {
      "inputs": [],
      "name": "name",
      "outputs": [
        {
          "internalType": "string",
          "name": "",
          "type": "string"
        }
      ],
      "stateMutability": "view",
      "type": "function"
    },
    {
      "inputs": [],
      "name": "owner",
      "outputs": [
        {
          "internalType": "address",
          "name": "",
          "type": "address"
        }
      ],
      "stateMutability": "view",
      "type": "function"
    },
    {
      "inputs": [
        {
          "internalType": "uint256",
          "name": "tokenId",
          "type": "uint256"
        }
      ],
      "name": "ownerOf",
      "outputs": [
        {
          "internalType": "address",
          "name": "",
          "type": "address"
        }
      ],
      "stateMutability": "view",
      "type": "function"
    },
    {
      "inputs": [],
      "name": "renounceOwnership",
      "outputs": [],
      "stateMutability": "nonpayable",
      "type": "function"
    },
    {
      "inputs": [
        {
          "internalType": "address",
          "name": "to",
          "type": "address"
        },
        {
          "internalType": "string",
          "name": "uri",
          "type": "string"
        }
      ],
      "name": "safeMint",
      "outputs": [],
      "stateMutability": "nonpayable",
      "type": "function"
    },
    {
      "inputs": [
        {
          "internalType": "address",
          "name": "from",
          "type": "address"
        },
        {
          "internalType": "address",
          "name": "to",
          "type": "address"
        },
        {
          "internalType": "uint256",
          "name": "tokenId",
          "type": "uint256"
        }
      ],
      "name": "safeTransferFrom",
      "outputs": [],
      "stateMutability": "nonpayable",
      "type": "function"
    },
    {
      "inputs": [
        {
          "internalType": "address",
          "name": "from",
          "type": "address"
        },
        {
          "internalType": "address",
          "name": "to",
          "type": "address"
        },
        {
          "internalType": "uint256",
          "name": "tokenId",
          "type": "uint256"
        },
        {
          "internalType": "bytes",
          "name": "data",
          "type": "bytes"
        }
      ],
      "name": "safeTransferFrom",
      "outputs": [],
      "stateMutability": "nonpayable",
      "type": "function"
    },
    {
      "inputs": [
        {
          "internalType": "address",
          "name": "operator",
          "type": "address"
        },
        {
          "internalType": "bool",
          "name": "approved",
          "type": "bool"
        }
      ],
      "name": "setApprovalForAll",
      "outputs": [],
      "stateMutability": "nonpayable",
      "type": "function"
    },
    {
      "inputs": [
        {
          "internalType": "bytes4",
          "name": "interfaceId",
          "type": "bytes4"
        }
      ],
      "name": "supportsInterface",
      "outputs": [
        {
          "internalType": "bool",
          "name": "",
          "type": "bool"
        }
      ],
      "stateMutability": "view",
      "type": "function"
    },
    {
      "inputs": [],
      "name": "symbol",
      "outputs": [
        {
          "internalType": "string",
          "name": "",
          "type": "string"
        }
      ],
      "stateMutability": "view",
      "type": "function"
    },
    {
      "inputs": [
        {
          "internalType": "uint256",
          "name": "tokenId",
          "type": "uint256"
        }
      ],
      "name": "tokenURI",
      "outputs": [
        {
          "internalType": "string",
          "name": "",
          "type": "string"
        }
      ],
      "stateMutability": "view",
      "type": "function"
    },
    {
      "inputs": [
        {
          "internalType": "address",
          "name": "from",
          "type": "address"
        },
        {
          "internalType": "address",
          "name": "to",
          "type": "address"
        },
        {
          "internalType": "uint256",
          "name": "tokenId",
          "type": "uint256"
        }
      ],
      "name": "transferFrom",
      "outputs": [],
      "stateMutability": "nonpayable",
      "type": "function"
    },
    {
      "inputs": [
        {
          "internalType": "address",
          "name": "newOwner",
          "type": "address"
        }
      ],
      "name": "transferOwnership",
      "outputs": [],
      "stateMutability": "nonpayable",
      "type": "function"
    }
  ],
  "bytecode": "0x608034620003b257601f906001600160401b0390601f1990620017963881900385810184168301858111848210176200039c57839282916040528339602092839181010312620003b257516001600160a01b03948582169491859003620003b2576200006a620003b7565b92600784526646616b6552574160c81b8185015262000088620003b7565b90600382526252574160e81b818301528451958487116200039c576000968754966001978881811c9116801562000391575b858210146200037d579081878493116200032a575b508490878311600114620002c9578a92620002bd575b5050600019600383901b1c191690871b1787555b8251948511620002a95785548681811c911680156200029e575b838210146200028a5790818587969594931162000231575b5081938511600114620001cc5750508592620001c0575b5050600019600383901b1c191690821b1790555b8115620001a857600780546001600160a01b0319811684179091556040519316907f8be0079c531659141344cd1fd0a4f28419497f9722a3daafe3b4186f6b6457e09080a36113be9081620003d88239f35b60249060405190631e4fbdf760e01b82526004820152fd5b01519050388062000142565b869593929193168588528388209388905b828210620002175750508411620001fd575b505050811b01905562000156565b015160001960f88460031b161c19169055388080620001ef565b8484015186558897909501949384019390810190620001dd565b9091929394508688528288208580880160051c82019285891062000280575b9188978a9297969594930160051c01915b828110620002715750506200012b565b8a815588975089910162000261565b9250819262000250565b634e487b7160e01b88526022600452602488fd5b90607f169062000113565b634e487b7160e01b87526041600452602487fd5b015190503880620000e5565b90848a9416918b8052868c20928c5b88828210620003135750508411620002f9575b505050811b018755620000f9565b015160001960f88460031b161c19169055388080620002eb565b8385015186558d97909501949384019301620002d8565b909150898052848a208780850160051c82019287861062000373575b918b91869594930160051c01915b82811062000364575050620000cf565b8c81558594508b910162000354565b9250819262000346565b634e487b7160e01b8a52602260045260248afd5b90607f1690620000ba565b634e487b7160e01b600052604160045260246000fd5b600080fd5b60408051919082016001600160401b038111838210176200039c5760405256fe61012060a0604081528160405260048036101561001b57600080fd5b600092608093808552803560e01c91826301ffc9a714610e2f575050806306fdde0314610d7e578063081812fc14610d3e578063095ea7b314610c5057806323b872dd14610c3857806342842e0e14610c0757806342966c6814610a975780636352211e14610a6557806370a0823114610a09578063715018a6146109a35780638da5cb5b1461097757806395d89b4114610888578063a22cb465146107df578063b88d4fde1461076c578063c87b56dd14610669578063d204c45e146101ec578063e985e9c51461018b5763f2fde38b146100f657600080fd5b346101865760203660031901126101865761010f610ef3565b90610118611000565b6001600160a01b0391821692831561016c57505060075492826001600160601b0360a01b8516176007555192167f8be0079c531659141344cd1fd0a4f28419497f9722a3daafe3b4186f6b6457e08380a380f35b5151631e4fbdf760e01b8152845191810191909152602490fd5b825180fd5b5050346101e75780513660031901126101e7579060ff6020926101ac610ef3565b6101b4610f0e565b84516001600160a01b03928316905260058652825185519081209290911690528452519151829020549151911615158152f35b505180fd5b50823461066557825136600319011261066557610207610ef3565b9260249081359367ffffffffffffffff9485811161066057366023820112156106605761023c90369085818501359101610fc9565b92610245611000565b6008549361010094808652600019908160e0521461064b5760019182865101600855845151986102748a610f59565b87518a526001600160a01b0399818b169182156106345789888a85819d9e9f60029d5185515260c09d8e916020835281602052855187512054169182151595866105f5575b848851526003825152518d88519182209081540190558551905251527fddf252ad1be2c89b69c2b068fc378daa952ba7f163c4a11628f55a4df523b3ef8d51955193868520846001600160601b0360a01b825416179055519380a46105e057503b6104a6575b50508651885152600686515284519388519485209483519a8b116104945750505061034a835461102c565b601f8111610446575b50865190855191601f8a116001146103c057509780928192899a7ff8e1a15aba9398e019f0b49df1a4fde98ee17ae345cb5f6b5e2c27f5033e8ce79a51946103b5575b50501b9160e0519060031b1c19161790555b5151915182525190a15180f35b015192508a80610396565b989184601f1984169a5286519189519280842093905b8c821061042f575050837ff8e1a15aba9398e019f0b49df1a4fde98ee17ae345cb5f6b5e2c27f5033e8ce79a9b10610416575b505050811b0190556103a8565b015160e05160f88460031b161c19169055888080610409565b8087859682949686015181550195019301906103d6565b8388515285519088519082822090601f8c0160051c8201938c1061048a575b601f0160051c019184905b83811061047f57505050610353565b828155018490610470565b9092508290610465565b634e487b7160e01b9052604190528751fd5b8697969a94929a999599989391985151630a85bd0160e11b91828252338c83015287518d8301528551604483015287606483015281806104ec8b51936084830190610eb3565b03818d8b51905af187519181610598575b5061055e5750503d15935061055692505050573d9061051b82610fad565b916105298551519384610f8b565b8252813d9151908451013e5b8051918261055257505050515191633250574960e11b8352820152fd5b5101fd5b506060610535565b63ffffffff60e09c94969c9b979b9a93959a9998991b16036105825750898061031f565b855151633250574960e11b815280860191909152fd5b90915088513d81116105d9575b6105af8183610f8b565b818a5191810103126105d457516001600160e01b0319811681036105d457908d6104fd565b875180fd5b503d6105a5565b516339e3563760e11b81528b51818901528490fd5b6106198651600052600460205260406000206001600160601b0360a01b8154169055565b838851526003825152805188512060e05181540190556102b9565b875151633250574960e11b81528a51818901528490fd5b508451634e487b7160e01b9052601182528451fd5b845180fd5b5180fd5b5090346101865760209182600319360112610767573561068881611205565b5083515260068252805192805184812094519485919080546106a98161102c565b918285526001918883821691826000146107405750506001146106ff575b5050506106fb9392916106db910386610f8b565b815151906106e882610f59565b5190525151928284938452830190610eb3565b0390f35b8793508592919251528451918383205b82841061072857505050820101816106db6106fb6106c7565b8054848b01860152899550889490930192810161070f565b60ff19168782015293151560051b860190930193508492506106db91506106fb90506106c7565b835180fd5b8382346101e757816003193601126101e757610786610ef3565b61078e610f0e565b6044359060643567ffffffffffffffff81116107da57366023820112156107da576107d6948160246107c593369301359101610fc9565b926107d1838383611066565b611240565b5180f35b855180fd5b50346101865781519182600319360112610767576107fb610ef3565b91602435928315158094036107da576001600160a01b031693841561087257505033845152600560205280518385519182209152602052518084512060ff1981541660ff8416179055519081527f17307eab39ab6107e8899845ad3d59bd9653f200f220920489ca2b5937696c3160203392a35180f35b51630b61174360e31b8152908101849052602490fd5b5050346101e7578151908160031936011261097357805151919260018054916108b08361102c565b8086529282811690811561094b57506001146108ec575b5050506108d9826106fb940383610f8b565b5151918291602083526020830190610eb3565b80518290525194507fb10e2d527612073b26eecdfd717e6a320cf44b4afac2b0732d9fcbe2b7fa0cf65b828610610933575050506108d98260206106fb95820101946108c7565b80546020878701810191909152909501948101610916565b6106fb9750869350602092506108d994915060ff191682840152151560051b820101946108c7565b5080fd5b82843461066557519081600319360112610973576007549051516001600160a01b039091168152602090f35b833461066557805180600319360112610a0657506109bf611000565b600780546001600160a01b0319811690915590519081906001600160a01b03167f8be0079c531659141344cd1fd0a4f28419497f9722a3daafe3b4186f6b6457e08280a380f35b80fd5b509190346101e75760203660031901126101e7576001600160a01b03610a2d610ef3565b16928315610a4d5750602092825152600383525180915120549051908152f35b9051516322718ad960e21b8152915190820152602490fd5b5091346106655760203660031901126106655750610a8560209235611205565b9051516001600160a01b039091168152f35b50913461066557602091826003193601126101e757833592838351526002815281519483519560018060a01b03809188205416963315159182610b5c575b5050505060029085610b26575b848451525251905192839182206001600160601b0360a01b81541690557fddf252ad1be2c89b69c2b068fc378daa952ba7f163c4a11628f55a4df523b3ef8280a480f35b600085815260046020526040902080546001600160a01b0319169055858451526003815282518451206000198154019055610ae2565b82610baa575b505015610b7157808080610ad5565b90508385610b8e57602492515191637e27328960e01b8352820152fd5b60449251519163177e802f60e01b835233908301526024820152fd5b90915087338114928315610be3575b50508115610bca575b503880610b62565b9050858551528183523390845186512054161438610bc2565b52600584528451865190812033909152845284518651205460ff1691508738610bb9565b5050346101e7576107d690610c1b36610f24565b9192515192610c2984610f59565b855184526107d1838383611066565b8334610665576107d6610c4a36610f24565b91611066565b50903461018657805136600319011261018657610c6b610ef3565b91602435610c7881611205565b33151580610d2b575b80610cf9575b610ce25785516001600160a01b0395861695909183918791167f8c5be1e5ebec7d5bd14f71427d1e84f3dd0314c0f7b2291e5b200ac8c7c3b9258480a45260205251915191822080546001600160a01b031916909117905580f35b83515163a9fbf51f60e01b81523381850152602490fd5b5085516001600160a01b0382169052600560209081528451875190812033909152905283518651205460ff1615610c87565b506001600160a01b038116331415610c81565b509190346101e75760203660031901126101e7578260209335610d6081611205565b5083515283525190518190205490516001600160a01b039091168152f35b8284346106655780519182600319360112610e2b57805151918354610da28161102c565b8085529160019180831690811561094b5750600114610dcd575050506108d9826106fb940383610f8b565b805180525194507f290decd9548b62a8d60345a988386fc84ba6bc95484008f6362f93160ef3e5635b828610610e13575050506108d98260206106fb95820101946108c7565b80546020878701810191909152909501948101610df6565b8280fd5b8334610e2b576020366003190112610e2b573563ffffffff60e01b8116809103610e2b5760209250632483248360e11b8114908115610e70575b5015158152f35b6380ac58cd60e01b811491508115610ea2575b8115610e91575b5083610e69565b6301ffc9a760e01b14905083610e8a565b635b5e139f60e01b81149150610e83565b919082519283825260005b848110610edf575050826000602080949584010152601f8019910116010190565b602081830181015184830182015201610ebe565b600435906001600160a01b0382168203610f0957565b600080fd5b602435906001600160a01b0382168203610f0957565b6060906003190112610f09576001600160a01b03906004358281168103610f0957916024359081168103610f09579060443590565b6020810190811067ffffffffffffffff821117610f7557604052565b634e487b7160e01b600052604160045260246000fd5b90601f8019910116810190811067ffffffffffffffff821117610f7557604052565b67ffffffffffffffff8111610f7557601f01601f191660200190565b929192610fd582610fad565b91610fe36040519384610f8b565b829481845281830111610f09578281602093846000960137010152565b6007546001600160a01b0316330361101457565b60405163118cdaa760e01b8152336004820152602490fd5b90600182811c9216801561105c575b602083101461104657565b634e487b7160e01b600052602260045260246000fd5b91607f169161103b565b6001600160a01b0391821692909183156111ec57600092828452826020956002875260409684888820541696879133151580611156575b509060027fddf252ad1be2c89b69c2b068fc378daa952ba7f163c4a11628f55a4df523b3ef9284611123575b858352600381528b8320805460010190558683525289812080546001600160a01b0319168517905580a416928383036111025750505050565b6064945051926364283d7b60e01b8452600484015260248301526044820152fd5b600087815260046020526040902080546001600160a01b0319169055848352600381528b832080546000190190556110c9565b919394509150806111ab575b156111725785929187913861109d565b87868861118f576024915190637e27328960e01b82526004820152fd5b604491519063177e802f60e01b82523360048301526024820152fd5b5033871480156111d0575b806111625750858252600481523385898420541614611162565b5086825260058152878220338352815260ff88832054166111b6565b604051633250574960e11b815260006004820152602490fd5b6000818152600260205260409020546001600160a01b0316908115611228575090565b60249060405190637e27328960e01b82526004820152fd5b813b61124d575b50505050565b604051630a85bd0160e11b8082523360048301526001600160a01b0392831660248301526044820194909452608060648201526020959290911693909290839061129b906084830190610eb3565b039285816000958187895af1849181611344575b5061130f575050503d600014611307573d6112c981610fad565b906112d76040519283610f8b565b81528091843d92013e5b8051928361130257604051633250574960e11b815260048101849052602490fd5b019050fd5b5060606112e1565b919450915063ffffffff60e01b160361132c575038808080611247565b60249060405190633250574960e11b82526004820152fd5b9091508681813d8311611381575b61135c8183610f8b565b8101031261137d57516001600160e01b03198116810361137d5790386112af565b8480fd5b503d61135256fea2646970667358221220256fad8913a13fa47a68ca5f7c7c7fcf611d0f2307554ef58734b97f224cbb4564736f6c63430008140033",
  "linkReferences": {},
  "deployedLinkReferences": {}
}