{
  "_format": "hh-sol-artifact-1",
  "contractName": "FakeRWA",
  "sourceName": "contracts/FakeRWA.sol",
  "abi": [
    {
      "inputs": [],
      "stateMutability": "nonpayable",
      "type": "constructor"
    },
    {
      "inputs": [
        {
          "internalType": "address",
          "name": "sender",
          "type": "address"
        },
        {
          "internalType": "uint256",
          "name": "tokenId",
          "type": "uint256"
        },
        {
          "internalType": "address",
          "name": "owner",
          "type": "address"
        }
      ],
      "name": "ERC721IncorrectOwner",
      "type": "error"
    },
    {
      "inputs": [
        {
          "internalType": "address",
          "name": "operator",
          "type": "address"
        },
        {
          "internalType": "uint256",
          "name": "tokenId",
          "type": "uint256"
        }
      ],
      "name": "ERC721InsufficientApproval",
      "type": "error"
    },
    {
      "inputs": [
        {
          "internalType": "address",
          "name": "approver",
          "type": "address"
        }
      ],
      "name": "ERC721InvalidApprover",
      "type": "error"
    },
    {
      "inputs": [
        {
          "internalType": "address",
          "name": "operator",
          "type": "address"
        }
      ],
      "name": "ERC721InvalidOperator",
      "type": "error"
    },
    {
      "inputs": [
        {
          "internalType": "address",
          "name": "owner",
          "type": "address"
        }
      ],
      "name": "ERC721InvalidOwner",
      "type": "error"
    },
    {
      "inputs": [
        {
          "internalType": "address",
          "name": "receiver",
          "type": "address"
        }
      ],
      "name": "ERC721InvalidReceiver",
      "type": "error"
    },
    {
      "inputs": [
        {
          "internalType": "address",
          "name": "sender",
          "type": "address"
        }
      ],
      "name": "ERC721InvalidSender",
      "type": "error"
    },
    {
      "inputs": [
        {
          "internalType": "uint256",
          "name": "tokenId",
          "type": "uint256"
        }
      ],
      "name": "ERC721NonexistentToken",
      "type": "error"
    },
    {
      "anonymous": false,
      "inputs": [
        {
          "indexed": true,
          "internalType": "address",
          "name": "owner",
          "type": "address"
        },
        {
          "indexed": true,
          "internalType": "address",
          "name": "approved",
          "type": "address"
        },
        {
          "indexed": true,
          "internalType": "uint256",
          "name": "tokenId",
          "type": "uint256"
        }
      ],
      "name": "Approval",
      "type": "event"
    },
    {
      "anonymous": false,
      "inputs": [
        {
          "indexed": true,
          "internalType": "address",
          "name": "owner",
          "type": "address"
        },
        {
          "indexed": true,
          "internalType": "address",
          "name": "operator",
          "type": "address"
        },
        {
          "indexed": false,
          "internalType": "bool",
          "name": "approved",
          "type": "bool"
        }
      ],
      "name": "ApprovalForAll",
      "type": "event"
    },
    {
      "anonymous": false,
      "inputs": [
        {
          "indexed": false,
          "internalType": "uint256",
          "name": "_fromTokenId",
          "type": "uint256"
        },
        {
          "indexed": false,
          "internalType": "uint256",
          "name": "_toTokenId",
          "type": "uint256"
        }
      ],
      "name": "BatchMetadataUpdate",
      "type": "event"
    },
    {
      "anonymous": false,
      "inputs": [
        {
          "indexed": false,
          "internalType": "uint256",
          "name": "_tokenId",
          "type": "uint256"
        }
      ],
      "name": "MetadataUpdate",
      "type": "event"
    },
    {
      "anonymous": false,
      "inputs": [
        {
          "indexed": true,
          "internalType": "address",
          "name": "from",
          "type": "address"
        },
        {
          "indexed": true,
          "internalType": "address",
          "name": "to",
          "type": "address"
        },
        {
          "indexed": true,
          "internalType": "uint256",
          "name": "tokenId",
          "type": "uint256"
        }
      ],
      "name": "Transfer",
      "type": "event"
    },
    {
      "inputs": [
        {
          "internalType": "address",
          "name": "to",
          "type": "address"
        },
        {
          "internalType": "uint256",
          "name": "tokenId",
          "type": "uint256"
        }
      ],
      "name": "approve",
      "outputs": [],
      "stateMutability": "nonpayable",
      "type": "function"
    },
    {
      "inputs": [
        {
          "internalType": "address",
          "name": "owner",
          "type": "address"
        }
      ],
      "name": "balanceOf",
      "outputs": [
        {
          "internalType": "uint256",
          "name": "",
          "type": "uint256"
        }
      ],
      "stateMutability": "view",
      "type": "function"
    },
    {
      "inputs": [
        {
          "internalType": "uint256",
          "name": "tokenId",
          "type": "uint256"
        }
      ],
      "name": "burn",
      "outputs": [],
      "stateMutability": "nonpayable",
      "type": "function"
    },
    {
      "inputs": [
        {
          "internalType": "uint256",
          "name": "tokenId",
          "type": "uint256"
        }
      ],
      "name": "getApproved",
      "outputs": [
        {
          "internalType": "address",
          "name": "",
          "type": "address"
        }
      ],
      "stateMutability": "view",
      "type": "function"
    },
    {
      "inputs": [
        {
          "internalType": "address",
          "name": "owner",
          "type": "address"
        },
        {
          "internalType": "address",
          "name": "operator",
          "type": "address"
        }
      ],
      "name": "isApprovedForAll",
      "outputs": [
        {
          "internalType": "bool",
          "name": "",
          "type": "bool"
        }
      ],
      "stateMutability": "view",
      "type": "function"
    },
    {
      "inputs": [],
      "name": "name",
      "outputs": [
        {
          "internalType": "string",
          "name": "",
          "type": "string"
        }
      ],
      "stateMutability": "view",
      "type": "function"
    },
    {
      "inputs": [
        {
          "internalType": "uint256",
          "name": "tokenId",
          "type": "uint256"
        }
      ],
      "name": "ownerOf",
      "outputs": [
        {
          "internalType": "address",
          "name": "",
          "type": "address"
        }
      ],
      "stateMutability": "view",
      "type": "function"
    },
    {
      "inputs": [
        {
          "internalType": "address",
          "name": "to",
          "type": "address"
        },
        {
          "internalType": "string",
          "name": "uri",
          "type": "string"
        }
      ],
      "name": "safeMint",
      "outputs": [],
      "stateMutability": "nonpayable",
      "type": "function"
    },
    {
      "inputs": [
        {
          "internalType": "address",
          "name": "from",
          "type": "address"
        },
        {
          "internalType": "address",
          "name": "to",
          "type": "address"
        },
        {
          "internalType": "uint256",
          "name": "tokenId",
          "type": "uint256"
        }
      ],
      "name": "safeTransferFrom",
      "outputs": [],
      "stateMutability": "nonpayable",
      "type": "function"
    },
    {
      "inputs": [
        {
          "internalType": "address",
          "name": "from",
          "type": "address"
        },
        {
          "internalType": "address",
          "name": "to",
          "type": "address"
        },
        {
          "internalType": "uint256",
          "name": "tokenId",
          "type": "uint256"
        },
        {
          "internalType": "bytes",
          "name": "data",
          "type": "bytes"
        }
      ],
      "name": "safeTransferFrom",
      "outputs": [],
      "stateMutability": "nonpayable",
      "type": "function"
    },
    {
      "inputs": [
        {
          "internalType": "address",
          "name": "operator",
          "type": "address"
        },
        {
          "internalType": "bool",
          "name": "approved",
          "type": "bool"
        }
      ],
      "name": "setApprovalForAll",
      "outputs": [],
      "stateMutability": "nonpayable",
      "type": "function"
    },
    {
      "inputs": [
        {
          "internalType": "bytes4",
          "name": "interfaceId",
          "type": "bytes4"
        }
      ],
      "name": "supportsInterface",
      "outputs": [
        {
          "internalType": "bool",
          "name": "",
          "type": "bool"
        }
      ],
      "stateMutability": "view",
      "type": "function"
    },
    {
      "inputs": [],
      "name": "symbol",
      "outputs": [
        {
          "internalType": "string",
          "name": "",
          "type": "string"
        }
      ],
      "stateMutability": "view",
      "type": "function"
    },
    {
      "inputs": [
        {
          "internalType": "uint256",
          "name": "tokenId",
          "type": "uint256"
        }
      ],
      "name": "tokenURI",
      "outputs": [
        {
          "internalType": "string",
          "name": "",
          "type": "string"
        }
      ],
      "stateMutability": "view",
      "type": "function"
    },
    {
      "inputs": [
        {
          "internalType": "address",
          "name": "from",
          "type": "address"
        },
        {
          "internalType": "address",
          "name": "to",
          "type": "address"
        },
        {
          "internalType": "uint256",
          "name": "tokenId",
          "type": "uint256"
        }
      ],
      "name": "transferFrom",
      "outputs": [],
      "stateMutability": "nonpayable",
      "type": "function"
    }
  ],
  "bytecode": "0x6080346200030a576001600160401b039060409080820183811182821017620002f4578252600781526020926646616b6552574160c81b84830152825183810181811083821117620002f4578452600381526252574160e81b85820152825190828211620002f45760008054926001958685811c95168015620002e9575b89861014620002d5578190601f9586811162000282575b5089908683116001146200021e57849262000212575b5050600019600383901b1c191690861b1781555b8151938411620001fe5784548581811c91168015620001f3575b88821014620001df5783811162000197575b5086928411600114620001315783949596509262000125575b5050600019600383901b1c191690821b1790555b5161124a9081620003108239f35b01519050388062000103565b9190601f1984169685845280842093905b8882106200017f575050838596971062000165575b505050811b01905562000117565b015160001960f88460031b161c1916905538808062000157565b80878596829496860151815501950193019062000142565b8582528782208480870160051c8201928a8810620001d5575b0160051c019086905b828110620001c9575050620000ea565b838155018690620001b9565b92508192620001b0565b634e487b7160e01b82526022600452602482fd5b90607f1690620000d8565b634e487b7160e01b81526041600452602490fd5b015190503880620000aa565b8480528a85208994509190601f198416865b8d8282106200026b575050841162000251575b505050811b018155620000be565b015160001960f88460031b161c1916905538808062000243565b8385015186558c9790950194938401930162000230565b9091508380528984208680850160051c8201928c8610620002cb575b918a91869594930160051c01915b828110620002bc57505062000094565b8681558594508a9101620002ac565b925081926200029e565b634e487b7160e01b83526022600452602483fd5b94607f16946200007d565b634e487b7160e01b600052604160045260246000fd5b600080fdfe61012060c060408152816040526004918236101561001c57600080fd5b60009260e0938085528035851c92836301ffc9a714610ce7575050816306fdde0314610c36578163081812fc14610bf7578163095ea7b314610b0857816323b872dd14610af057816342842e0e14610abf57816342966c681461094f5781636352211e1461091d57816370a08231146108c257816395d89b41146107d3578163a22cb46514610729578163b88d4fde146106b5578163c87b56dd146105ac578163d204c45e14610135575063e985e9c5146100d657600080fd5b34610130578051366003190112610130579060ff6020926100f5610dab565b6100fd610dc6565b84516001600160a01b03928316905260058652825185519081209290911690528452519151829020549151911615158152f35b505180fd5b905082346105a85782513660031901126105a857610151610dab565b9260249081359367ffffffffffffffff948581116105a357366023820112156105a35761018690369085818501359101610e81565b92600754936101009480865260001990816080521461058e5760019182865101600755845151986101b68a610e11565b87518a526001600160a01b0399818b169182156105775789888a85819d9e9f60029d5185515260a09d8e91602083528160205285518751205416918215159586610538575b848851526003825152518d88519182209081540190558551905251527fddf252ad1be2c89b69c2b068fc378daa952ba7f163c4a11628f55a4df523b3ef8d51955193868520846001600160601b0360a01b825416179055519380a461052357503b6103e8575b50508651885152600686515284519388519485209483519a8b116103d65750505061028c8354610eb8565b601f8111610388575b50865190855191601f8a1160011461030257509780928192899a7ff8e1a15aba9398e019f0b49df1a4fde98ee17ae345cb5f6b5e2c27f5033e8ce79a51946102f7575b50501b916080519060031b1c19161790555b5151915182525190a15180f35b015192508a806102d8565b989184601f1984169a5286519189519280842093905b8c8210610371575050837ff8e1a15aba9398e019f0b49df1a4fde98ee17ae345cb5f6b5e2c27f5033e8ce79a9b10610358575b505050811b0190556102ea565b015160805160f88460031b161c1916905588808061034b565b808785968294968601518155019501930190610318565b8388515285519088519082822090601f8c0160051c8201938c106103cc575b601f0160051c019184905b8381106103c157505050610295565b8281550184906103b2565b90925082906103a7565b634e487b7160e01b9052604190528751fd5b8697969a94929a999599989391985151630a85bd0160e11b91828252338c83015287518d8301528551604483015260806064830152818061042f8b51936084830190610d6b565b03818d8b51905af1875191816104db575b506104a15750503d15935061049992505050573d9061045e82610e65565b9161046c8551519384610e43565b8252813d9151908451013e5b8051918261049557505050515191633250574960e11b8352820152fd5b5101fd5b506060610478565b63ffffffff60e09c94969c9b979b9a93959a9998991b16036104c557508980610261565b855151633250574960e11b815280860191909152fd5b90915088513d811161051c575b6104f28183610e43565b818a51918101031261051757516001600160e01b03198116810361051757908d610440565b875180fd5b503d6104e8565b516339e3563760e11b81528b51818901528490fd5b61055c8651600052600460205260406000206001600160601b0360a01b8154169055565b838851526003825152805188512060805181540190556101fb565b875151633250574960e11b81528a51818901528490fd5b508451634e487b7160e01b9052601182528451fd5b845180fd5b5180fd5b919050346106b057602091826003193601126106ab57356105cc81611091565b5083515260068252805192805184812094519485919080546105ed81610eb8565b91828552600191888382169182600014610684575050600114610643575b50505061063f93929161061f910386610e43565b8151519061062c82610e11565b5190525151928284938452830190610d6b565b0390f35b8793508592919251528451918383205b82841061066c575050508201018161061f61063f61060b565b8054848b018601528995508894909301928101610653565b60ff19168782015293151560051b8601909301935084925061061f915061063f905061060b565b835180fd5b825180fd5b839034610130576080366003190112610130576106d0610dab565b6106d8610dc6565b6044359060643567ffffffffffffffff81116107245736602382011215610724576107209481602461070f93369301359101610e81565b9261071b838383610ef2565b6110cc565b5180f35b855180fd5b9050346106b057815191826003193601126106ab57610746610dab565b9160243592831515809403610724576001600160a01b03169384156107bd57505033845152600560205280518385519182209152602052518084512060ff1981541660ff8416179055519081527f17307eab39ab6107e8899845ad3d59bd9653f200f220920489ca2b5937696c3160203392a35180f35b51630b61174360e31b8152908101849052602490fd5b50503461013057815190816003193601126108be57805151919260018054916107fb83610eb8565b808652928281169081156108965750600114610837575b5050506108248261063f940383610e43565b5151918291602083526020830190610d6b565b80518290525194507fb10e2d527612073b26eecdfd717e6a320cf44b4afac2b0732d9fcbe2b7fa0cf65b82861061087e5750505061082482602061063f9582010194610812565b80546020878701810191909152909501948101610861565b61063f97508693506020925061082494915060ff191682840152151560051b82010194610812565b5080fd5b838334610130576020366003190112610130576001600160a01b036108e5610dab565b169283156109055750602092825152600383525180915120549051908152f35b9051516322718ad960e21b8152915190820152602490fd5b8284346105a85760203660031901126105a8575061093d60209235611091565b9051516001600160a01b039091168152f35b8284346105a8576020918260031936011261013057833592838351526002815281519483519560018060a01b03809188205416963315159182610a14575b50505050600290856109de575b848451525251905192839182206001600160601b0360a01b81541690557fddf252ad1be2c89b69c2b068fc378daa952ba7f163c4a11628f55a4df523b3ef8280a480f35b600085815260046020526040902080546001600160a01b031916905585845152600381528251845120600019815401905561099a565b82610a62575b505015610a295780808061098d565b90508385610a4657602492515191637e27328960e01b8352820152fd5b60449251519163177e802f60e01b835233908301526024820152fd5b90915087338114928315610a9b575b50508115610a82575b508780610a1a565b9050858551528183523390845186512054161487610a7a565b52600584528451865190812033909152845284518651205460ff1691508789610a71565b5050346101305761072090610ad336610ddc565b9192515192610ae184610e11565b8551845261071b838383610ef2565b83346105a857610720610b0236610ddc565b91610ef2565b919050346106b05780513660031901126106b057610b24610dab565b91602435610b3181611091565b33151580610be4575b80610bb2575b610b9b5785516001600160a01b0395861695909183918791167f8c5be1e5ebec7d5bd14f71427d1e84f3dd0314c0f7b2291e5b200ac8c7c3b9258480a45260205251915191822080546001600160a01b031916909117905580f35b83515163a9fbf51f60e01b81523381850152602490fd5b5085516001600160a01b0382169052600560209081528451875190812033909152905283518651205460ff1615610b40565b506001600160a01b038116331415610b3a565b838334610130576020366003190112610130578260209335610c1881611091565b5083515283525190518190205490516001600160a01b039091168152f35b8284346105a85780519182600319360112610ce357805151918354610c5a81610eb8565b808552916001918083169081156108965750600114610c85575050506108248261063f940383610e43565b805180525194507f290decd9548b62a8d60345a988386fc84ba6bc95484008f6362f93160ef3e5635b828610610ccb5750505061082482602061063f9582010194610812565b80546020878701810191909152909501948101610cae565b8280fd5b8234610ce3576020366003190112610ce3573563ffffffff60e01b8116809103610ce35760209250632483248360e11b8114908115610d28575b5015158152f35b6380ac58cd60e01b811491508115610d5a575b8115610d49575b5083610d21565b6301ffc9a760e01b14905083610d42565b635b5e139f60e01b81149150610d3b565b919082519283825260005b848110610d97575050826000602080949584010152601f8019910116010190565b602081830181015184830182015201610d76565b600435906001600160a01b0382168203610dc157565b600080fd5b602435906001600160a01b0382168203610dc157565b6060906003190112610dc1576001600160a01b03906004358281168103610dc157916024359081168103610dc1579060443590565b6020810190811067ffffffffffffffff821117610e2d57604052565b634e487b7160e01b600052604160045260246000fd5b90601f8019910116810190811067ffffffffffffffff821117610e2d57604052565b67ffffffffffffffff8111610e2d57601f01601f191660200190565b929192610e8d82610e65565b91610e9b6040519384610e43565b829481845281830111610dc1578281602093846000960137010152565b90600182811c92168015610ee8575b6020831014610ed257565b634e487b7160e01b600052602260045260246000fd5b91607f1691610ec7565b6001600160a01b03918216929091831561107857600092828452826020956002875260409684888820541696879133151580610fe2575b509060027fddf252ad1be2c89b69c2b068fc378daa952ba7f163c4a11628f55a4df523b3ef9284610faf575b858352600381528b8320805460010190558683525289812080546001600160a01b0319168517905580a41692838303610f8e5750505050565b6064945051926364283d7b60e01b8452600484015260248301526044820152fd5b600087815260046020526040902080546001600160a01b0319169055848352600381528b83208054600019019055610f55565b91939450915080611037575b15610ffe57859291879138610f29565b87868861101b576024915190637e27328960e01b82526004820152fd5b604491519063177e802f60e01b82523360048301526024820152fd5b50338714801561105c575b80610fee5750858252600481523385898420541614610fee565b5086825260058152878220338352815260ff8883205416611042565b604051633250574960e11b815260006004820152602490fd5b6000818152600260205260409020546001600160a01b03169081156110b4575090565b60249060405190637e27328960e01b82526004820152fd5b813b6110d9575b50505050565b604051630a85bd0160e11b8082523360048301526001600160a01b03928316602483015260448201949094526080606482015260209592909116939092908390611127906084830190610d6b565b039285816000958187895af18491816111d0575b5061119b575050503d600014611193573d61115581610e65565b906111636040519283610e43565b81528091843d92013e5b8051928361118e57604051633250574960e11b815260048101849052602490fd5b019050fd5b50606061116d565b919450915063ffffffff60e01b16036111b85750388080806110d3565b60249060405190633250574960e11b82526004820152fd5b9091508681813d831161120d575b6111e88183610e43565b8101031261120957516001600160e01b03198116810361120957903861113b565b8480fd5b503d6111de56fea26469706673582212206fa2a645d5e0d38ad43a7604db924df579cf9a33667ac8760f662dbeac3ac3ce64736f6c63430008140033",
  "linkReferences": {},
  "deployedLinkReferences": {}
}