{
  "_format": "hh-sol-artifact-1",
  "contractName": "HorizonS",
  "sourceName": "contracts/HorizonS.sol",
  "abi": [
    {
      "inputs": [
        {
          "internalType": "address",
          "name": "_router",
          "type": "address"
        },
        {
          "internalType": "address",
          "name": "_linkToken",
          "type": "address"
        }
      ],
      "stateMutability": "nonpayable",
      "type": "constructor"
    },
    {
      "inputs": [
        {
          "internalType": "uint64",
          "name": "destinationChainSelector",
          "type": "uint64"
        }
      ],
      "name": "DestinationChainNotWhitelisted",
      "type": "error"
    },
    {
      "inputs": [
        {
          "internalType": "address",
          "name": "owner",
          "type": "address"
        },
        {
          "internalType": "address",
          "name": "target",
          "type": "address"
        },
        {
          "internalType": "uint256",
          "name": "value",
          "type": "uint256"
        }
      ],
      "name": "FailedToWithdrawEth",
      "type": "error"
    },
    {
      "inputs": [
        {
          "internalType": "address",
          "name": "router",
          "type": "address"
        }
      ],
      "name": "InvalidRouter",
      "type": "error"
    },
    {
      "inputs": [
        {
          "internalType": "uint256",
          "name": "currentBalance",
          "type": "uint256"
        },
        {
          "internalType": "uint256",
          "name": "calculatedFees",
          "type": "uint256"
        }
      ],
      "name": "NotEnoughBalance",
      "type": "error"
    },
    {
      "inputs": [],
      "name": "NothingToWithdraw",
      "type": "error"
    },
    {
      "anonymous": false,
      "inputs": [
        {
          "indexed": false,
          "internalType": "string",
          "name": "blockchainName",
          "type": "string"
        },
        {
          "indexed": false,
          "internalType": "address",
          "name": "receiverAddress",
          "type": "address"
        }
      ],
      "name": "CCIPReceiverAdded",
      "type": "event"
    },
    {
      "anonymous": false,
      "inputs": [
        {
          "indexed": false,
          "internalType": "address",
          "name": "_receiverAddress",
          "type": "address"
        }
      ],
      "name": "CCIPReceiverRemoved",
      "type": "event"
    },
    {
      "anonymous": false,
      "inputs": [
        {
          "indexed": true,
          "internalType": "bytes32",
          "name": "messageId",
          "type": "bytes32"
        },
        {
          "indexed": true,
          "internalType": "uint64",
          "name": "sourceChainSelector",
          "type": "uint64"
        },
        {
          "indexed": false,
          "internalType": "address",
          "name": "sender",
          "type": "address"
        },
        {
          "indexed": false,
          "internalType": "string",
          "name": "text",
          "type": "string"
        },
        {
          "indexed": false,
          "internalType": "address",
          "name": "token",
          "type": "address"
        },
        {
          "indexed": false,
          "internalType": "uint256",
          "name": "tokenAmount",
          "type": "uint256"
        }
      ],
      "name": "MessageReceived",
      "type": "event"
    },
    {
      "anonymous": false,
      "inputs": [
        {
          "indexed": true,
          "internalType": "bytes32",
          "name": "messageId",
          "type": "bytes32"
        },
        {
          "indexed": true,
          "internalType": "uint64",
          "name": "destinationChainSelector",
          "type": "uint64"
        },
        {
          "indexed": false,
          "internalType": "address",
          "name": "receiver",
          "type": "address"
        },
        {
          "indexed": false,
          "internalType": "bytes",
          "name": "text",
          "type": "bytes"
        },
        {
          "indexed": false,
          "internalType": "address",
          "name": "feeToken",
          "type": "address"
        },
        {
          "indexed": false,
          "internalType": "uint256",
          "name": "fees",
          "type": "uint256"
        }
      ],
      "name": "MessageSent",
      "type": "event"
    },
    {
      "inputs": [
        {
          "internalType": "string",
          "name": "_blockchainName",
          "type": "string"
        },
        {
          "internalType": "address",
          "name": "_receiverAddress",
          "type": "address"
        }
      ],
      "name": "addReceiver",
      "outputs": [],
      "stateMutability": "nonpayable",
      "type": "function"
    },
    {
      "inputs": [
        {
          "internalType": "address",
          "name": "receiverAddress",
          "type": "address"
        }
      ],
      "name": "ccipReceicers",
      "outputs": [
        {
          "internalType": "string",
          "name": "blockchainName",
          "type": "string"
        },
        {
          "internalType": "address",
          "name": "receiverAddress",
          "type": "address"
        },
        {
          "internalType": "bool",
          "name": "isReceiver",
          "type": "bool"
        }
      ],
      "stateMutability": "view",
      "type": "function"
    },
    {
      "inputs": [
        {
          "components": [
            {
              "internalType": "bytes32",
              "name": "messageId",
              "type": "bytes32"
            },
            {
              "internalType": "uint64",
              "name": "sourceChainSelector",
              "type": "uint64"
            },
            {
              "internalType": "bytes",
              "name": "sender",
              "type": "bytes"
            },
            {
              "internalType": "bytes",
              "name": "data",
              "type": "bytes"
            },
            {
              "components": [
                {
                  "internalType": "address",
                  "name": "token",
                  "type": "address"
                },
                {
                  "internalType": "uint256",
                  "name": "amount",
                  "type": "uint256"
                }
              ],
              "internalType": "struct Client.EVMTokenAmount[]",
              "name": "destTokenAmounts",
              "type": "tuple[]"
            }
          ],
          "internalType": "struct Client.Any2EVMMessage",
          "name": "message",
          "type": "tuple"
        }
      ],
      "name": "ccipReceive",
      "outputs": [],
      "stateMutability": "nonpayable",
      "type": "function"
    },
    {
      "inputs": [
        {
          "internalType": "uint64",
          "name": "_destinationChainSelector",
          "type": "uint64"
        }
      ],
      "name": "denylistDestinationChain",
      "outputs": [],
      "stateMutability": "nonpayable",
      "type": "function"
    },
    {
      "inputs": [],
      "name": "getRouter",
      "outputs": [
        {
          "internalType": "address",
          "name": "",
          "type": "address"
        }
      ],
      "stateMutability": "view",
      "type": "function"
    },
    {
      "inputs": [
        {
          "internalType": "address",
          "name": "_receiverAddress",
          "type": "address"
        }
      ],
      "name": "removeReceiver",
      "outputs": [],
      "stateMutability": "nonpayable",
      "type": "function"
    },
    {
      "inputs": [
        {
          "internalType": "uint64",
          "name": "_destinationChainSelector",
          "type": "uint64"
        },
        {
          "internalType": "address",
          "name": "_receiverAddress",
          "type": "address"
        },
        {
          "internalType": "bytes",
          "name": "_data",
          "type": "bytes"
        }
      ],
      "name": "sendMessagePayLINK",
      "outputs": [
        {
          "internalType": "bytes32",
          "name": "messageId",
          "type": "bytes32"
        }
      ],
      "stateMutability": "nonpayable",
      "type": "function"
    },
    {
      "inputs": [
        {
          "internalType": "bytes4",
          "name": "interfaceId",
          "type": "bytes4"
        }
      ],
      "name": "supportsInterface",
      "outputs": [
        {
          "internalType": "bool",
          "name": "",
          "type": "bool"
        }
      ],
      "stateMutability": "pure",
      "type": "function"
    },
    {
      "inputs": [
        {
          "internalType": "uint64",
          "name": "_destinationChainSelector",
          "type": "uint64"
        }
      ],
      "name": "whitelistDestinationChain",
      "outputs": [],
      "stateMutability": "nonpayable",
      "type": "function"
    },
    {
      "inputs": [
        {
          "internalType": "uint64",
          "name": "",
          "type": "uint64"
        }
      ],
      "name": "whitelistedDestinationChains",
      "outputs": [
        {
          "internalType": "bool",
          "name": "",
          "type": "bool"
        }
      ],
      "stateMutability": "view",
      "type": "function"
    },
    {
      "inputs": [
        {
          "internalType": "address",
          "name": "_beneficiary",
          "type": "address"
        }
      ],
      "name": "withdraw",
      "outputs": [],
      "stateMutability": "nonpayable",
      "type": "function"
    },
    {
      "inputs": [
        {
          "internalType": "address",
          "name": "_beneficiary",
          "type": "address"
        },
        {
          "internalType": "address",
          "name": "_token",
          "type": "address"
        }
      ],
      "name": "withdrawToken",
      "outputs": [],
      "stateMutability": "nonpayable",
      "type": "function"
    },
    {
      "stateMutability": "payable",
      "type": "receive"
    }
  ],
  "bytecode": "0x60a0346100bb57601f6115ca38819003918201601f19168301916001600160401b038311848410176100c05780849260409485528339810103126100bb57610052602061004b836100d6565b92016100d6565b6001600160a01b0391808316156100a25760805260018060a01b0319918260065416911617600655339060035416176003556040516114df90816100eb823960805181818160c401526106c00152f35b6040516335fdcccd60e21b815260006004820152602490fd5b600080fd5b634e487b7160e01b600052604160045260246000fd5b51906001600160a01b03821682036100bb5756fe608080604052600436101561001d575b50361561001b57600080fd5b005b60003560e01c90816301ffc9a7146110af575080631d5e294714610e245780631f27166d14610d355780633aeac4e114610c5557806351cff8d914610bb45780636552d8b414610ad457806373645cff14610a855780637898d18414610a33578063835b347c146109f457806385572ffb14610683578063a30e3770146100f85763b0f479a1146100ae573861000f565b346100f35760003660031901126100f3576040517f00000000000000000000000000000000000000000000000000000000000000006001600160a01b03168152602090f35b600080fd5b346100f3576060806003193601126100f357610112611259565b61011a6111ab565b916044356001600160401b0381116100f35761013a90369060040161126f565b6001600160a01b03848116600090815260056020526040902060010154161561063e5760018060a01b0384166000526005602052600160ff816040600020015460a01c161515036105eb5760018060a01b038416600052600560205260018060a01b03600160406000200154169260018060a01b03600654168360806040516101c281611102565b8281528260208201528260408201526000838201520152604051946020860152602085526101ef8561111d565b604051602080820152610217816102096040820187611234565b03601f198101835282611138565b60405190602082018281106001600160401b038211176105d55760405260008252604051966102458861111d565b620c350088526020880160008152604051986397a657c960e01b60208b01525160248a01525115156044890152604488528760808101106001600160401b0360808a0111176105d557608088016040526102a160808901611102565b608088015260a087015260c08601528060e08601528461010081015260405163b0f479a160e01b8152602081600481305afa90811561047c57600091610593575b506040516320487ded60e01b815291906001600160a01b03166020838061031060808b018860048401611347565b0381845afa92831561047c5760009361055f575b506040516370a0823160e01b80825230600483015290602081602481875afa90811561047c5760009161052d575b5084116104b5575060405163095ea7b360e01b81526001600160a01b03821660048201526024810184905291602090839060449082906000905af190811561047c576103c497602093608093610488575b506000604051809a819582946396f4e9f960e01b8452018960048401611347565b03925af194851561047c57600095610443575b50916020956001600160401b037f3d8a9f055772202d2c3c1fddbad930d3dbe588d8692b75b84cee07194628291193879561042b60405195869560018060a01b0316865260808c8701526080860190611234565b976000604086015284015216940390a3604051908152f35b919450916020823d602011610474575b8161046060209383611138565b810103126100f357905193909160206103d7565b3d9150610453565b6040513d6000823e3d90fd5b6104a790853d87116104ae575b61049f8183611138565b810190611410565b508a6103a3565b503d610495565b60405190815230600482015283602082602481875afa90811561047c576000916104f8575b6044925060405191634787a10360e11b835260048301526024820152fd5b90506020823d602011610525575b8161051360209383611138565b810103126100f35760449151906104da565b3d9150610506565b90506020813d602011610557575b8161054860209383611138565b810103126100f357518a610352565b3d915061053b565b9092506020813d60201161058b575b8161057b60209383611138565b810103126100f357519188610324565b3d915061056e565b90506020813d6020116105cd575b816105ae60209383611138565b810103126100f357516001600160a01b03811681036100f357876102e2565b3d91506105a1565b634e487b7160e01b600052604160045260246000fd5b60405162461bcd60e51b815260206004820152602560248201527f54686973207265636569766572206973206e6f742077686974656c6973746564604482015264207965742160d81b6064820152608490fd5b60405162461bcd60e51b815260206004820152601f60248201527f456e74657220612076616c6964207265636569766572206164647265737321006044820152606490fd5b346100f357600319602036820181136100f3576004356001600160401b03928382116100f35760a09082360301126100f3576001600160a01b03917f0000000000000000000000000000000000000000000000000000000000000000831633036109dc57604051926106f484611102565b8260040135845260248301359385851685036100f35782810194855260448401358681116100f35761072c906004369187010161126f565b956040820196875260648501358181116100f357610750906004369188010161126f565b94606083019586526084810135908282116100f3570191366023840112156100f3576004830135928284116105d55760405193610792878260051b0186611138565b80855260248786019160061b830101913683116100f357602401905b82821061099f575050506080810192835280516000556107d78651868082518301019101611428565b80518381116105d557806001926107ee84546111d7565b601f8111610947575b508890601f83116001146108c7576000926108bc575b5050600019600383901b1c191690821b1790555b51955116955183818051810103126100f357830151918083168093036100f3576108ac8461089161087c7f90ec910a8f80bb04e184a806e2ae6f8786ef2ae898859a3180f953397edc12019851838082518301019101611428565b936108878651611486565b5151169451611486565b51015191608060405196879687528601526080850190611234565b91604084015260608301520390a3005b015190508b8061080d565b90849350601f19831691846000527fb10e2d527612073b26eecdfd717e6a320cf44b4afac2b0732d9fcbe2b7fa0cf69260005b8c8282106109315750508411610918575b505050811b019055610821565b015160001960f88460031b161c191690558b808061090b565b83850151865588979095019493840193016108fa565b61098f90856000527fb10e2d527612073b26eecdfd717e6a320cf44b4afac2b0732d9fcbe2b7fa0cf6601f850160051c8101918c8610610995575b601f0160051c0190611330565b8c6107f7565b9091508190610982565b6040823603126100f357604051906109b68261111d565b82359088821682036100f357828a926040945282850135838201528152019101906107ae565b6040516335fdcccd60e21b8152336004820152602490fd5b346100f35760203660031901126100f3576001600160401b03610a15611259565b166000526004602052602060ff604060002054166040519015158152f35b346100f35760203660031901126100f3576001600160401b03610a54611259565b610a6960018060a01b0360035416331461128d565b166000908152600460205260409020805460ff19166001179055005b346100f35760203660031901126100f3576001600160401b03610aa6611259565b610abb60018060a01b0360035416331461128d565b166000908152600460205260409020805460ff19169055005b346100f35760203660031901126100f3577fc98322fddcb9467a648bda840e8c0844a6a420e0a62af038077f0de932e729666020610b106111c1565b6003546001600160a01b039190610b2a908316331461128d565b168060005260058252610b4e600160ff816040600020015460a01c161515146112e4565b80600052600582526000600160408220610b6881546111d7565b80610b7a575b500155604051908152a1005b601f81118314610b8f57508281555b86610b6e565b8390828252610bab601f888420920160051c8201858301611330565b81835555610b89565b346100f35760203660031901126100f357610bcd6111c1565b47908115610c4357600080808085855af13d15610c3e573d610bee81611159565b90610bfc6040519283611138565b8152600060203d92013e5b15610c0e57005b604051639d11f56360e01b81523360048201526001600160a01b0390911660248201526044810191909152606490fd5b610c07565b604051630686827b60e51b8152600490fd5b346100f35760403660031901126100f357610c6e6111c1565b6001600160a01b03610c7e6111ab565b16604051916370a0823160e01b83523060048401526020928381602481865afa90811561047c57600091610d08575b508015610c435760405163a9059cbb60e01b81526001600160a01b039290921660048301526024820152908290829060449082906000905af1801561047c57610cf257005b8161001b92903d106104ae5761049f8183611138565b90508381813d8311610d2e575b610d1f8183611138565b810103126100f3575184610cad565b503d610d15565b346100f3576020806003193601126100f3576001600160a01b0380610d586111c1565b166000526005825260406000209060405191600090805491610d79836111d7565b808652600193808516908115610e085750600114610dd4575b5091610dbe9591610da78660ff950387611138565b015490604051958695606087526060870190611234565b9382169085015260a01c16151560408301520390f35b60008381528781209092505b818310610df557505084018501610dbe610d92565b8054878401890152918701918401610de0565b60ff19168789015250151560051b850186019050610dbe610d92565b346100f35760403660031901126100f3576001600160401b036004358181116100f357366023820112156100f357610e66903690602481600401359101611174565b610e6e6111ab565b6003546001600160a01b03918291610e89908316331461128d565b168015611071578060005260209160058352600190610eb560ff836040600020015460a01c16156112e4565b6040519060608201828110888211176105d5576040528582528482019284845260408301928184528560005260058752604060002090519889519081116105d557610f0082546111d7565b601f8111611041575b5087601f8211600114610fb3579080610f9f9a99989796959493927f619facc3344a864638bdf6b94faebe32fea796eccc10ab263d90da8b44c42be49c600092610fa8575b5050600019600383901b1c191690831b1781555b0192511682549160ff60a01b9051151560a01b16916affffffffffffffffffffff60a81b1617179055604051938493604085526040850190611234565b918301520390a1005b015190508c80610f4e565b601f1982169083600052896000209160005b81811061102c57509183917f619facc3344a864638bdf6b94faebe32fea796eccc10ab263d90da8b44c42be49d879695610f9f9e9d9c9b9a99989510611013575b505050811b018155610f62565b015160001960f88460031b161c191690558c8080611006565b8d830151845592860192918b01918b01610fc5565b61106b908360005289600020601f840160051c8101918b851061099557601f0160051c0190611330565b8a610f09565b60405162461bcd60e51b8152602060048201526016602482015275456e74657220612076616c696420616464726573732160501b6044820152606490fd5b346100f35760203660031901126100f3576004359063ffffffff60e01b82168092036100f3576020916385572ffb60e01b81149081156110f1575b5015158152f35b6301ffc9a760e01b149050836110ea565b60a081019081106001600160401b038211176105d557604052565b604081019081106001600160401b038211176105d557604052565b90601f801991011681019081106001600160401b038211176105d557604052565b6001600160401b0381116105d557601f01601f191660200190565b92919261118082611159565b9161118e6040519384611138565b8294818452818301116100f3578281602093846000960137010152565b602435906001600160a01b03821682036100f357565b600435906001600160a01b03821682036100f357565b90600182811c92168015611207575b60208310146111f157565b634e487b7160e01b600052602260045260246000fd5b91607f16916111e6565b60005b8381106112245750506000910152565b8181015183820152602001611214565b9060209161124d81518092818552858086019101611211565b601f01601f1916010190565b600435906001600160401b03821682036100f357565b9080601f830112156100f35781602061128a93359101611174565b90565b1561129457565b60405162461bcd60e51b815260206004820152602260248201527f4f6e6c79204f776e65722063616e2063616c6c20746869732066756e6374696f6044820152616e2160f01b6064820152608490fd5b156112eb57565b60405162461bcd60e51b815260206004820152601f60248201527f526563656976657220697320616c7265616479207265676973746572656421006044820152606490fd5b81811061133b575050565b60008155600101611330565b906001600160401b039093929316815260406020918183820152611376855160a08484015260e0830190611234565b916113928487015193603f199485858303016060860152611234565b8187015194848483030160808501528080875193848152019601926000905b8382106113e757505050505060c0608061128a959660018060a01b0360608201511660a085015201519282850301910152611234565b845180516001600160a01b031689528301518884015296870196938201936001909101906113b1565b908160209103126100f3575180151581036100f35790565b6020818303126100f3578051906001600160401b0382116100f3570181601f820112156100f357805161145a81611159565b926114686040519485611138565b818452602082840101116100f35761128a9160208085019101611211565b8051156114935760200190565b634e487b7160e01b600052603260045260246000fdfea264697066735822122042ac00fb266c1ca8d7b6a0ac2a964161ea83deef9bc0d066b3d6e0c8db395d6864736f6c63430008140033",
  "linkReferences": {},
  "deployedLinkReferences": {}
}