{
  "_format": "hh-sol-artifact-1",
  "contractName": "HorizonS",
  "sourceName": "contracts/HorizonS.sol",
  "abi": [
    {
      "inputs": [
        {
          "internalType": "address",
          "name": "_router",
          "type": "address"
        },
        {
          "internalType": "address",
          "name": "_linkToken",
          "type": "address"
        }
      ],
      "stateMutability": "nonpayable",
      "type": "constructor"
    },
    {
      "inputs": [
        {
          "internalType": "uint64",
          "name": "destinationChainSelector",
          "type": "uint64"
        }
      ],
      "name": "DestinationChainNotWhitelisted",
      "type": "error"
    },
    {
      "inputs": [
        {
          "internalType": "address",
          "name": "owner",
          "type": "address"
        },
        {
          "internalType": "address",
          "name": "target",
          "type": "address"
        },
        {
          "internalType": "uint256",
          "name": "value",
          "type": "uint256"
        }
      ],
      "name": "FailedToWithdrawEth",
      "type": "error"
    },
    {
      "inputs": [
        {
          "internalType": "address",
          "name": "router",
          "type": "address"
        }
      ],
      "name": "InvalidRouter",
      "type": "error"
    },
    {
      "inputs": [
        {
          "internalType": "uint256",
          "name": "currentBalance",
          "type": "uint256"
        },
        {
          "internalType": "uint256",
          "name": "calculatedFees",
          "type": "uint256"
        }
      ],
      "name": "NotEnoughBalance",
      "type": "error"
    },
    {
      "inputs": [],
      "name": "NothingToWithdraw",
      "type": "error"
    },
    {
      "anonymous": false,
      "inputs": [
        {
          "indexed": false,
          "internalType": "string",
          "name": "blockchainName",
          "type": "string"
        },
        {
          "indexed": false,
          "internalType": "address",
          "name": "receiverAddress",
          "type": "address"
        }
      ],
      "name": "CCIPReceiverAdded",
      "type": "event"
    },
    {
      "anonymous": false,
      "inputs": [
        {
          "indexed": false,
          "internalType": "address",
          "name": "_receiverAddress",
          "type": "address"
        }
      ],
      "name": "CCIPReceiverRemoved",
      "type": "event"
    },
    {
      "anonymous": false,
      "inputs": [
        {
          "indexed": true,
          "internalType": "bytes32",
          "name": "messageId",
          "type": "bytes32"
        },
        {
          "indexed": true,
          "internalType": "uint64",
          "name": "sourceChainSelector",
          "type": "uint64"
        },
        {
          "indexed": false,
          "internalType": "address",
          "name": "sender",
          "type": "address"
        },
        {
          "indexed": false,
          "internalType": "string",
          "name": "text",
          "type": "string"
        },
        {
          "indexed": false,
          "internalType": "address",
          "name": "token",
          "type": "address"
        },
        {
          "indexed": false,
          "internalType": "uint256",
          "name": "tokenAmount",
          "type": "uint256"
        }
      ],
      "name": "MessageReceived",
      "type": "event"
    },
    {
      "anonymous": false,
      "inputs": [
        {
          "indexed": true,
          "internalType": "bytes32",
          "name": "messageId",
          "type": "bytes32"
        },
        {
          "indexed": true,
          "internalType": "uint64",
          "name": "destinationChainSelector",
          "type": "uint64"
        },
        {
          "indexed": false,
          "internalType": "address",
          "name": "receiver",
          "type": "address"
        },
        {
          "indexed": false,
          "internalType": "bytes",
          "name": "text",
          "type": "bytes"
        },
        {
          "indexed": false,
          "internalType": "address",
          "name": "feeToken",
          "type": "address"
        },
        {
          "indexed": false,
          "internalType": "uint256",
          "name": "fees",
          "type": "uint256"
        }
      ],
      "name": "MessageSent",
      "type": "event"
    },
    {
      "inputs": [
        {
          "components": [
            {
              "internalType": "bytes32",
              "name": "messageId",
              "type": "bytes32"
            },
            {
              "internalType": "uint64",
              "name": "sourceChainSelector",
              "type": "uint64"
            },
            {
              "internalType": "bytes",
              "name": "sender",
              "type": "bytes"
            },
            {
              "internalType": "bytes",
              "name": "data",
              "type": "bytes"
            },
            {
              "components": [
                {
                  "internalType": "address",
                  "name": "token",
                  "type": "address"
                },
                {
                  "internalType": "uint256",
                  "name": "amount",
                  "type": "uint256"
                }
              ],
              "internalType": "struct Client.EVMTokenAmount[]",
              "name": "destTokenAmounts",
              "type": "tuple[]"
            }
          ],
          "internalType": "struct Client.Any2EVMMessage",
          "name": "message",
          "type": "tuple"
        }
      ],
      "name": "ccipReceive",
      "outputs": [],
      "stateMutability": "nonpayable",
      "type": "function"
    },
    {
      "inputs": [
        {
          "internalType": "uint64",
          "name": "_destinationChainSelector",
          "type": "uint64"
        }
      ],
      "name": "denylistDestinationChain",
      "outputs": [],
      "stateMutability": "nonpayable",
      "type": "function"
    },
    {
      "inputs": [],
      "name": "getRouter",
      "outputs": [
        {
          "internalType": "address",
          "name": "",
          "type": "address"
        }
      ],
      "stateMutability": "view",
      "type": "function"
    },
    {
      "inputs": [
        {
          "internalType": "uint64",
          "name": "_destinationChainSelector",
          "type": "uint64"
        },
        {
          "internalType": "address",
          "name": "_receiverAddress",
          "type": "address"
        },
        {
          "internalType": "bytes",
          "name": "_data",
          "type": "bytes"
        }
      ],
      "name": "sendMessagePayLINK",
      "outputs": [
        {
          "internalType": "bytes32",
          "name": "messageId",
          "type": "bytes32"
        }
      ],
      "stateMutability": "nonpayable",
      "type": "function"
    },
    {
      "inputs": [
        {
          "internalType": "bytes4",
          "name": "interfaceId",
          "type": "bytes4"
        }
      ],
      "name": "supportsInterface",
      "outputs": [
        {
          "internalType": "bool",
          "name": "",
          "type": "bool"
        }
      ],
      "stateMutability": "pure",
      "type": "function"
    },
    {
      "inputs": [
        {
          "internalType": "uint64",
          "name": "_destinationChainSelector",
          "type": "uint64"
        }
      ],
      "name": "whitelistDestinationChain",
      "outputs": [],
      "stateMutability": "nonpayable",
      "type": "function"
    },
    {
      "inputs": [
        {
          "internalType": "uint64",
          "name": "",
          "type": "uint64"
        }
      ],
      "name": "whitelistedDestinationChains",
      "outputs": [
        {
          "internalType": "bool",
          "name": "",
          "type": "bool"
        }
      ],
      "stateMutability": "view",
      "type": "function"
    },
    {
      "inputs": [
        {
          "internalType": "address",
          "name": "_beneficiary",
          "type": "address"
        }
      ],
      "name": "withdraw",
      "outputs": [],
      "stateMutability": "nonpayable",
      "type": "function"
    },
    {
      "inputs": [
        {
          "internalType": "address",
          "name": "_beneficiary",
          "type": "address"
        },
        {
          "internalType": "address",
          "name": "_token",
          "type": "address"
        }
      ],
      "name": "withdrawToken",
      "outputs": [],
      "stateMutability": "nonpayable",
      "type": "function"
    },
    {
      "stateMutability": "payable",
      "type": "receive"
    }
  ],
  "bytecode": "0x60a0346100bb57601f61105938819003918201601f19168301916001600160401b038311848410176100c05780849260409485528339810103126100bb57610052602061004b836100d6565b92016100d6565b6001600160a01b0391808316156100a25760805260018060a01b031991826005541691161760055533906003541617600355604051610f6e90816100eb823960805181818160a8015261058f0152f35b6040516335fdcccd60e21b815260006004820152602490fd5b600080fd5b634e487b7160e01b600052604160045260246000fd5b51906001600160a01b03821682036100bb5756fe6080604081815260049182361015610022575b505050361561002057600080fd5b005b600092833560e01c91826301ffc9a714610bc4575081633aeac4e114610ab157816351cff8d914610a1557816373645cff146109c95781637898d1841461097a578163835b347c1461093e57816385572ffb1461054e578163a30e3770146100db575063b0f479a1146100955780610012565b346100d757816003193601126100d757517f00000000000000000000000000000000000000000000000000000000000000006001600160a01b03168152602090f35b5080fd5b8383346100d7576060918260031936011261054b576100f8610c48565b93610101610c32565b9467ffffffffffffffff90604435828111610460576101239036908501610ceb565b6005548651976001600160a01b03929091831661013f8a610c5f565b828a5282608060209b828d820152828c8201528a8382015201528389519b1696878b8d01528a8c526101708c610c91565b89518b80820152610195816101878d820187610dac565b03601f198101835282610cad565b8a51908c82018281108a82111761053857908d92918d528b82528b8d8051906101bd82610c91565b620c3500825285820192835251946397a657c960e01b90860152516024850152511515604484015260448352608083019e8f8b858210911117610525578f808f5261020781610c5f565b5260a083015260c082015260e08101839052610100810152895163b0f479a160e01b8152948b868381305afa80156103e6578a906104e3575b610262965016918b8d8c51809881926320487ded60e01b83528b878401610dd1565b0381865afa9586156103e6578a966104b0575b508a516370a0823160e01b8082523084830152908d81602481865afa9081156104a6578c91610475575b5087116103f057508a5163095ea7b360e01b81526001600160a01b0384168382019081526020810188905290918d9183919082908e90829060400103925af180156103e6578a8d9e936103109e95938a936103b9575b508d516396f4e9f960e01b81529e8f95869485938401610dd1565b03925af19889156103af578799610378575b50928895927f3d8a9f055772202d2c3c1fddbad930d3dbe588d8692b75b84cee07194628291195926103658c9660808c5198899889528801526080870190610dac565b988a86015284015216940390a351908152f35b90959980995081813d83116103a8575b6103928183610cad565b810103126103a4575197989489610322565b8680fd5b503d610388565b88513d89823e3d90fd5b6103d890873d89116103df575b6103d08183610cad565b810190610e9e565b50386102f5565b503d6103c6565b8b513d8c823e3d90fd5b8c8c8c9493828a9460248451809481938252308a8301525afa92831561046b578693610433575b505051634787a10360e11b815292830152602482015260449150fd5b9080929350813d8311610464575b61044b8183610cad565b81010312610460576044945051908580610417565b8480fd5b503d610441565b82513d88823e3d90fd5b90508d81813d831161049f575b61048c8183610cad565b8101031261049b57518f61029f565b8b80fd5b503d610482565b8d513d8e823e3d90fd5b9095508b81813d83116104dc575b6104c88183610cad565b810103126104d85751948d610275565b8980fd5b503d6104be565b5090919293948b81813d831161051e575b6104fe8183610cad565b810103126104d8575181811681036104d857906102629594939291610240565b503d6104f4565b634e487b7160e01b8d526041855260248dfd5b634e487b7160e01b8c526041845260248cfd5b80fd5b9190503461093a57600319602036820181136104605783359167ffffffffffffffff908184116103a45760a0908436030112610936576001600160a01b03937f000000000000000000000000000000000000000000000000000000000000000085163303610921578051946105c286610c5f565b848701358652602492838601359681881688036104d857858101978852604487013582811161091d576105fa908a36918a0101610ceb565b98848201998a52606488013583811161049b5761061c908236918b0101610ceb565b97606083019889526084810135908482116109195701953660238801121561049b5781870135968488116109075786519761065c8a8260051b018a610cad565b808952828a8a019160061b83010191368311610903578301905b8282106108c4575050506080830196875282518c5561069e8951898082518301019101610eb6565b8051918583116108b35760018054909481861c9291861680156108a9575b8c8410146108975750508291818f92601f879111610823575b50508a91601f84116001146107a6579261079b575b5050600019600383901b1c191690821b1790555b51965116965184818051810103126107975784015192818416809403610797576107888561076e6107597f90ec910a8f80bb04e184a806e2ae6f8786ef2ae898859a3180f953397edc12019951838082518301019101610eb6565b946107648551610f15565b5151169351610f15565b510151926080855197889788528701526080860190610dac565b9284015260608301520390a380f35b8880fd5b0151905038806106ea565b9190859450601f1984168584527fb10e2d527612073b26eecdfd717e6a320cf44b4afac2b0732d9fcbe2b7fa0cf6935b8d82821061080d57505084116107f4575b505050811b0190556106fe565b015160001960f88460031b161c191690553880806107e7565b83850151865588979095019493840193016107d6565b91935091527fb10e2d527612073b26eecdfd717e6a320cf44b4afac2b0732d9fcbe2b7fa0cf6601f840160051c8101918b851061088d575b918f92859492601f88920160051c01915b82811061087957506106d5565b809294919395505501918e9185859461086c565b909150819061085b565b8f90602290634e487b7160e01b835252fd5b92607f16926106bc565b634e487b7160e01b8e52604184528dfd5b8882360312610903578851906108d982610c91565b82359089821682036108fe57828d928c94528285013583820152815201910190610676565b508f80fd5b8e80fd5b50634e487b7160e01b8c52604182528bfd5b8c80fd5b8a80fd5b516335fdcccd60e21b81523381870152602490fd5b8580fd5b8280fd5b90503461093a57602036600319011261093a578160209360ff9267ffffffffffffffff610969610c48565b168252855220541690519015158152f35b90503461093a57602036600319011261093a5767ffffffffffffffff61099e610c48565b6109b360018060a01b03600354163314610d32565b1683526020528120805460ff1916600117905580f35b90503461093a57602036600319011261093a5767ffffffffffffffff6109ed610c48565b610a0260018060a01b03600354163314610d32565b1683526020528120805460ff1916905580f35b9190503461093a57602036600319011261093a57610a31610c17565b47918215610aa2578480808086865af13d15610a9d573d610a5181610ccf565b90610a5e84519283610cad565b81528660203d92013e5b15610a71578480f35b51639d11f56360e01b815233938101939093526001600160a01b03166024830152604482015260649150fd5b610a68565b51630686827b60e51b81528390fd5b9190503461093a578060031936011261093a57610acc610c17565b6001600160a01b03610adc610c32565b168251916370a0823160e01b835230858401526020948584602481865afa938415610bba578794610b8b575b508315610b7d57845163a9059cbb60e01b81526001600160a01b03909216908201908152602081019390935292918491849182908890829060400103925af1908115610b745750610b57578280f35b81610b6d92903d106103df576103d08183610cad565b5038808280f35b513d85823e3d90fd5b8451630686827b60e51b8152fd5b9093508581813d8311610bb3575b610ba38183610cad565b810103126103a457519238610b08565b503d610b99565b85513d89823e3d90fd5b84913461093a57602036600319011261093a573563ffffffff60e01b811680910361093a57602092506385572ffb60e01b8114908115610c06575b5015158152f35b6301ffc9a760e01b14905083610bff565b600435906001600160a01b0382168203610c2d57565b600080fd5b602435906001600160a01b0382168203610c2d57565b6004359067ffffffffffffffff82168203610c2d57565b60a0810190811067ffffffffffffffff821117610c7b57604052565b634e487b7160e01b600052604160045260246000fd5b6040810190811067ffffffffffffffff821117610c7b57604052565b90601f8019910116810190811067ffffffffffffffff821117610c7b57604052565b67ffffffffffffffff8111610c7b57601f01601f191660200190565b81601f82011215610c2d57803590610d0282610ccf565b92610d106040519485610cad565b82845260208383010111610c2d57816000926020809301838601378301015290565b15610d3957565b60405162461bcd60e51b815260206004820152602260248201527f4f6e6c79204f776e65722063616e2063616c6c20746869732066756e6374696f6044820152616e2160f01b6064820152608490fd5b60005b838110610d9c5750506000910152565b8181015183820152602001610d8c565b90602091610dc581518092818552858086019101610d89565b601f01601f1916010190565b9067ffffffffffffffff9093929316815260406020918183820152610e01855160a08484015260e0830190610dac565b91610e1d8487015193603f199485858303016060860152610dac565b8187015194848483030160808501528080875193848152019601926000905b838210610e7557505050505060c06080610e72959660018060a01b0360608201511660a085015201519282850301910152610dac565b90565b845180516001600160a01b03168952830151888401529687019693820193600190910190610e3c565b90816020910312610c2d57518015158103610c2d5790565b602081830312610c2d5780519067ffffffffffffffff8211610c2d570181601f82011215610c2d578051610ee981610ccf565b92610ef76040519485610cad565b81845260208284010111610c2d57610e729160208085019101610d89565b805115610f225760200190565b634e487b7160e01b600052603260045260246000fdfea2646970667358221220cd13f73b949e4507e2da94ab8b8c7c26fa6c16d15dea45d2ec180d11c7615d3364736f6c63430008140033",
  "linkReferences": {},
  "deployedLinkReferences": {}
}