{
  "_format": "hh-sol-artifact-1",
  "contractName": "HorizonFujiR",
  "sourceName": "contracts/HorizonFujiR.sol",
  "abi": [
    {
      "inputs": [
        {
          "internalType": "address",
          "name": "_linkToken",
          "type": "address"
        },
        {
          "internalType": "address",
          "name": "_routerCCIP",
          "type": "address"
        }
      ],
      "stateMutability": "nonpayable",
      "type": "constructor"
    },
    {
      "inputs": [
        {
          "internalType": "address",
          "name": "owner",
          "type": "address"
        },
        {
          "internalType": "address",
          "name": "target",
          "type": "address"
        },
        {
          "internalType": "uint256",
          "name": "value",
          "type": "uint256"
        }
      ],
      "name": "FailedToWithdrawEth",
      "type": "error"
    },
    {
      "inputs": [
        {
          "internalType": "address",
          "name": "router",
          "type": "address"
        }
      ],
      "name": "InvalidRouter",
      "type": "error"
    },
    {
      "inputs": [],
      "name": "NothingToWithdraw",
      "type": "error"
    },
    {
      "anonymous": false,
      "inputs": [
        {
          "indexed": false,
          "internalType": "address",
          "name": "provisoryOwner",
          "type": "address"
        },
        {
          "indexed": false,
          "internalType": "uint256",
          "name": "_rwaId",
          "type": "uint256"
        },
        {
          "indexed": false,
          "internalType": "uint256",
          "name": "_titleId",
          "type": "uint256"
        },
        {
          "indexed": false,
          "internalType": "uint256",
          "name": "_drawNumber",
          "type": "uint256"
        }
      ],
      "name": "EnsuranceAdd",
      "type": "event"
    },
    {
      "anonymous": false,
      "inputs": [
        {
          "indexed": true,
          "internalType": "bytes32",
          "name": "messageId",
          "type": "bytes32"
        },
        {
          "indexed": true,
          "internalType": "uint64",
          "name": "sourceChainSelector",
          "type": "uint64"
        },
        {
          "indexed": false,
          "internalType": "address",
          "name": "sender",
          "type": "address"
        },
        {
          "indexed": false,
          "internalType": "string",
          "name": "text",
          "type": "string"
        }
      ],
      "name": "MessageReceived",
      "type": "event"
    },
    {
      "anonymous": false,
      "inputs": [
        {
          "indexed": false,
          "internalType": "uint256",
          "name": "_contractId",
          "type": "uint256"
        },
        {
          "indexed": false,
          "internalType": "uint256",
          "name": "_rwaValue",
          "type": "uint256"
        },
        {
          "indexed": false,
          "internalType": "uint256",
          "name": "_referenceValue",
          "type": "uint256"
        }
      ],
      "name": "PriceLowEvent",
      "type": "event"
    },
    {
      "anonymous": false,
      "inputs": [
        {
          "indexed": false,
          "internalType": "uint256",
          "name": "_contractId",
          "type": "uint256"
        },
        {
          "indexed": false,
          "internalType": "uint256",
          "name": "_rwaValue",
          "type": "uint256"
        },
        {
          "indexed": false,
          "internalType": "uint256",
          "name": "_referenceValue",
          "type": "uint256"
        }
      ],
      "name": "RWAPriceAtMoment",
      "type": "event"
    },
    {
      "anonymous": false,
      "inputs": [
        {
          "indexed": false,
          "internalType": "uint256",
          "name": "_titleId",
          "type": "uint256"
        },
        {
          "indexed": false,
          "internalType": "uint256",
          "name": "_drawNumber",
          "type": "uint256"
        },
        {
          "indexed": false,
          "internalType": "address",
          "name": "_rwaOwner",
          "type": "address"
        },
        {
          "indexed": false,
          "internalType": "uint256",
          "name": "_colateralId",
          "type": "uint256"
        }
      ],
      "name": "RWARefunded",
      "type": "event"
    },
    {
      "anonymous": false,
      "inputs": [
        {
          "indexed": false,
          "internalType": "uint256",
          "name": "_rwaId",
          "type": "uint256"
        },
        {
          "indexed": false,
          "internalType": "uint256",
          "name": "_rwaValue",
          "type": "uint256"
        }
      ],
      "name": "TheRwaValueIsLessThanTheMinimumNeeded",
      "type": "event"
    },
    {
      "anonymous": false,
      "inputs": [
        {
          "indexed": false,
          "internalType": "uint256",
          "name": "_contractId",
          "type": "uint256"
        },
        {
          "indexed": false,
          "internalType": "uint256",
          "name": "_rwaValue",
          "type": "uint256"
        },
        {
          "indexed": false,
          "internalType": "uint256",
          "name": "rwaValue",
          "type": "uint256"
        }
      ],
      "name": "TitleCancelledTheRWAWillBeSold",
      "type": "event"
    },
    {
      "anonymous": false,
      "inputs": [
        {
          "indexed": false,
          "internalType": "uint256",
          "name": "_rwaId",
          "type": "uint256"
        },
        {
          "indexed": false,
          "internalType": "string[]",
          "name": "args",
          "type": "string[]"
        }
      ],
      "name": "VerifyingRwaValue",
      "type": "event"
    },
    {
      "inputs": [
        {
          "internalType": "uint256",
          "name": "_titleId",
          "type": "uint256"
        },
        {
          "internalType": "uint256",
          "name": "_contractId",
          "type": "uint256"
        },
        {
          "internalType": "uint256",
          "name": "_drawNumber",
          "type": "uint256"
        },
        {
          "internalType": "uint256",
          "name": "_rwaId",
          "type": "uint256"
        }
      ],
      "name": "addCollateral",
      "outputs": [],
      "stateMutability": "nonpayable",
      "type": "function"
    },
    {
      "inputs": [
        {
          "internalType": "address",
          "name": "_receiverAddress",
          "type": "address"
        }
      ],
      "name": "addReceiver",
      "outputs": [],
      "stateMutability": "nonpayable",
      "type": "function"
    },
    {
      "inputs": [
        {
          "internalType": "address",
          "name": "_sender",
          "type": "address"
        }
      ],
      "name": "addSender",
      "outputs": [],
      "stateMutability": "nonpayable",
      "type": "function"
    },
    {
      "inputs": [
        {
          "internalType": "uint64",
          "name": "_sourceChainSelector",
          "type": "uint64"
        }
      ],
      "name": "addSourceChain",
      "outputs": [],
      "stateMutability": "nonpayable",
      "type": "function"
    },
    {
      "inputs": [
        {
          "components": [
            {
              "internalType": "bytes32",
              "name": "messageId",
              "type": "bytes32"
            },
            {
              "internalType": "uint64",
              "name": "sourceChainSelector",
              "type": "uint64"
            },
            {
              "internalType": "bytes",
              "name": "sender",
              "type": "bytes"
            },
            {
              "internalType": "bytes",
              "name": "data",
              "type": "bytes"
            },
            {
              "components": [
                {
                  "internalType": "address",
                  "name": "token",
                  "type": "address"
                },
                {
                  "internalType": "uint256",
                  "name": "amount",
                  "type": "uint256"
                }
              ],
              "internalType": "struct Client.EVMTokenAmount[]",
              "name": "destTokenAmounts",
              "type": "tuple[]"
            }
          ],
          "internalType": "struct Client.Any2EVMMessage",
          "name": "message",
          "type": "tuple"
        }
      ],
      "name": "ccipReceive",
      "outputs": [],
      "stateMutability": "nonpayable",
      "type": "function"
    },
    {
      "inputs": [],
      "name": "checkColateralPrice",
      "outputs": [],
      "stateMutability": "nonpayable",
      "type": "function"
    },
    {
      "inputs": [],
      "name": "getLastReceivedMessageDetails",
      "outputs": [
        {
          "internalType": "bytes32",
          "name": "messageId",
          "type": "bytes32"
        },
        {
          "internalType": "bytes",
          "name": "text",
          "type": "bytes"
        }
      ],
      "stateMutability": "view",
      "type": "function"
    },
    {
      "inputs": [],
      "name": "getRouter",
      "outputs": [
        {
          "internalType": "address",
          "name": "",
          "type": "address"
        }
      ],
      "stateMutability": "view",
      "type": "function"
    },
    {
      "inputs": [
        {
          "internalType": "bytes32",
          "name": "",
          "type": "bytes32"
        }
      ],
      "name": "permissionsInfo",
      "outputs": [
        {
          "internalType": "uint256",
          "name": "idTitle",
          "type": "uint256"
        },
        {
          "internalType": "uint256",
          "name": "drawNumber",
          "type": "uint256"
        },
        {
          "internalType": "uint256",
          "name": "contractId",
          "type": "uint256"
        },
        {
          "internalType": "address",
          "name": "rwaOwner",
          "type": "address"
        },
        {
          "internalType": "uint256",
          "name": "ensuranceValueNeeded",
          "type": "uint256"
        },
        {
          "internalType": "uint256",
          "name": "ensureValueNow",
          "type": "uint256"
        },
        {
          "internalType": "uint256",
          "name": "colateralId",
          "type": "uint256"
        },
        {
          "internalType": "bytes32",
          "name": "lastRequestId",
          "type": "bytes32"
        },
        {
          "internalType": "uint256",
          "name": "lastRequestTime",
          "type": "uint256"
        },
        {
          "internalType": "uint256",
          "name": "lastResponseTime",
          "type": "uint256"
        },
        {
          "internalType": "bool",
          "name": "colateralLocked",
          "type": "bool"
        },
        {
          "internalType": "bool",
          "name": "isPermission",
          "type": "bool"
        }
      ],
      "stateMutability": "view",
      "type": "function"
    },
    {
      "inputs": [
        {
          "internalType": "address",
          "name": "_sender",
          "type": "address"
        }
      ],
      "name": "removeSender",
      "outputs": [],
      "stateMutability": "nonpayable",
      "type": "function"
    },
    {
      "inputs": [
        {
          "internalType": "uint64",
          "name": "_sourceChainSelector",
          "type": "uint64"
        }
      ],
      "name": "removelistSourceChain",
      "outputs": [],
      "stateMutability": "nonpayable",
      "type": "function"
    },
    {
      "inputs": [
        {
          "internalType": "bytes4",
          "name": "interfaceId",
          "type": "bytes4"
        }
      ],
      "name": "supportsInterface",
      "outputs": [
        {
          "internalType": "bool",
          "name": "",
          "type": "bool"
        }
      ],
      "stateMutability": "pure",
      "type": "function"
    },
    {
      "inputs": [
        {
          "internalType": "uint256",
          "name": "_titleId",
          "type": "uint256"
        },
        {
          "internalType": "uint256",
          "name": "_contractId",
          "type": "uint256"
        },
        {
          "internalType": "uint256",
          "name": "_drawNumber",
          "type": "uint256"
        },
        {
          "internalType": "uint256",
          "name": "_rwaId",
          "type": "uint256"
        },
        {
          "internalType": "string[]",
          "name": "args",
          "type": "string[]"
        }
      ],
      "name": "verifyColateralValue",
      "outputs": [],
      "stateMutability": "nonpayable",
      "type": "function"
    },
    {
      "inputs": [
        {
          "internalType": "address",
          "name": "",
          "type": "address"
        }
      ],
      "name": "whitelistedSenders",
      "outputs": [
        {
          "internalType": "bool",
          "name": "",
          "type": "bool"
        }
      ],
      "stateMutability": "view",
      "type": "function"
    },
    {
      "inputs": [
        {
          "internalType": "uint64",
          "name": "",
          "type": "uint64"
        }
      ],
      "name": "whitelistedSourceChains",
      "outputs": [
        {
          "internalType": "bool",
          "name": "",
          "type": "bool"
        }
      ],
      "stateMutability": "view",
      "type": "function"
    },
    {
      "inputs": [
        {
          "internalType": "address",
          "name": "_beneficiary",
          "type": "address"
        }
      ],
      "name": "withdraw",
      "outputs": [],
      "stateMutability": "nonpayable",
      "type": "function"
    },
    {
      "inputs": [
        {
          "internalType": "address",
          "name": "_beneficiary",
          "type": "address"
        },
        {
          "internalType": "address",
          "name": "_token",
          "type": "address"
        }
      ],
      "name": "withdrawToken",
      "outputs": [],
      "stateMutability": "nonpayable",
      "type": "function"
    },
    {
      "stateMutability": "payable",
      "type": "receive"
    }
  ],
  "bytecode": "0x60a0346200011557601f6200225a38819003918201601f19168301916001600160401b038311848410176200011a57808492604094855283398101031262000115576200005a6020620000528362000130565b920162000130565b6001600160a01b039080821615620000fc5760805260018060a01b0319917314c9188071620abcd778a20f5b344c515ab9c0f983600a541617600a5573317383204e6406b61258cb53d535ae770b7a984f83600b541617600b5573d7ecf0bbe82717ead041eef0b9e777e1a7d577a083600c541617600c55169060055416176005556040516121149081620001468239608051818181610298015261103b0152f35b6040516335fdcccd60e21b815260006004820152602490fd5b600080fd5b634e487b7160e01b600052604160045260246000fd5b51906001600160a01b0382168203620001155756fe608080604052600436101561001d575b50361561001b57600080fd5b005b600090813560e01c90816301ffc9a714611bd757508063263596a514611b8d578063272efc6914611b4e5780633aeac4e114611a5357806351cff8d9146119b057806369d83ed1146119775780637dc91a021461193a57806385572ffb146110075780639150672014610c5657806392365ce41461082057806395871c8f146102c7578063b0f479a114610282578063b2f8764314610249578063b697f5311461020d578063c5ec1c7a146101d1578063e9982c391461011c5763ff46ed530361000f5734610119576020366003190112610119576001600160401b03610102611c8a565b168152600860205260408120805460ff1916905580f35b80fd5b503461011957602036600319011261011957604061018091600435815260076020522060ff815491600181015490600281015460018060a01b0360038301541660048301546005840154600685015491600886015493600987015495600b600a890154980154986040519b8c5260208c015260408b015260608a0152608089015260a088015260c087015260e0860152610100850152610120840152818116151561014084015260081c161515610160820152f35b5034610119576020366003190112610119576001600160401b036101f3611c8a565b168152600860205260408120805460ff1916600117905580f35b5034610119576020366003190112610119576001600160a01b0361022f611c74565b168152600960205260408120805460ff1916600117905580f35b5034610119576020366003190112610119576001600160a01b0361026b611c74565b168152600960205260408120805460ff1916905580f35b50346101195780600319360112610119576040517f00000000000000000000000000000000000000000000000000000000000000006001600160a01b03168152602090f35b503461011957608036600319011261011957600435604435906064359060405191602080840160249461031f81610311898935898791606093918352602083015260408201520190565b03601f198101835282611cc9565b51902080875260078252604087209060088201549161034c600160ff600b84015460081c16151514611fe7565b600b54604080516364b975db60e11b815260048101959095526001600160a01b03949182908a90829088165afa8015610815578a918b916107e4575b50801561078d57600483015492838311801561071357156106d85780836005600a93015501551061065e578782600c5416803b1561065a576040516323b872dd60e01b8152336004820152306024820152604481018790529082908290606490829084905af1801561064f57610637575b5050858383600c5416604051988980926331a9108f60e11b82528960048301525afa9687156105ae578997610608575b506040516001600160401b03919060608101838111828210176105f357604052868152858101848152604082019060018252600654600160401b8110156105e05780600161047a9201600655612068565b9390936105cd57916002916104a9949351845551600184015551151591019060ff801983541691151516179055565b83600c541660405193868501526040840152856060840152606083526080830191838310908311176105b9575080604052838184600a54168560025416630a30e37760e41b835267adecc60412ce25a5608487015260a4860152606060c4860152818c607f198761051d60e4820182611c4f565b0301925af180156105ae57610570575b50509160809493917f93bffd1bde7afe8c47a27012597f0dc2c5ccea5fc1323d424e13c21065d594e896936040519516855284015260408301526060820152a180f35b90839794929695939182903d84116105a6575b8161058d91611cc9565b810103126105a1579194909293388061052d565b600080fd5b3d9150610583565b6040513d8b823e3d90fd5b634e487b7160e01b60009081526041600452fd5b634e487b7160e01b8e5260048e9052848efd5b634e487b7160e01b8e526041600452848efd5b82634e487b7160e01b60005260416004526000fd5b610629919750843d8611610630575b6106218183611cc9565b810190612033565b9538610429565b503d610617565b61064090611ca0565b61064b5787386103f9565b8780fd5b6040513d84823e3d90fd5b5080fd5b60405162461bcd60e51b8152600481018490526047818801527f54686520656e737572616e6365206d7573742068617665206174206c6561737460448201527f20352074696d6573207468652076616c7565206f66207468652076616c7565206064820152666e65656465642160c81b608482015260a490fd5b50509495505050507f90d31678ec129d3863be095922ef7b97386bcca9b61e15d2d53347cddceeb0a79450604080945051928352820152a180f35b60405162461bcd60e51b8152600481018990526047818d01527f5468652076616c7565206f662074686520525741206e6565647320746f20626560448201527f2067726561746572207468616e2074686520656e737572616e636556616c75656064820152664e65656465642160c81b608482015260a490fd5b60405162461bcd60e51b815260048101879052602a818b01527f596f75206d75737420776169742074686520726573706f6e736520746f2062656044820152692072656365697665642160b01b6064820152608490fd5b9050610808915060403d60401161080e575b6108008183611cc9565b810190612052565b38610388565b503d6107f6565b6040513d8c823e3d90fd5b50346101195760a0366003190112610119576001600160401b036084351161011957366023608435011215610119576001600160401b036084356004013511610119573660246084356004013560051b6084350101116101195760405160208101906108a8816103116044356024356004358791606093918352602083015260408201520190565b51902060018060a01b03600b54169060206040518093634c8f60a360e01b82528260048301528186816108ea6024820160843560040135602460843501611f4e565b03925af1918215610c4b578392610c17575b508083526007602052610920600160ff600b60408720015460081c16151514611fe7565b600c546040516331a9108f60e11b8152606435600482015290602090829060249082906001600160a01b03165afa908115610c0c578491610bed575b506001600160a01b03163303610b9557825260076020526040822060043581556024356002820155604435600182015560038101336001600160601b0360a01b82541617905560643560068201556109bd6084356004013560078301611ebe565b60078101835260208320836084356024015b608435600401358210610a3357505050600801557fcc6833fd9787745c083edfcc3ae70e4cd35ab78cf84f127388a790fd6ed17fbb60405160643581526040602082015280610a2d6040820160843560040135602460843501611f4e565b0390a180f35b8035608435360360421901811215610b91576001600160401b0360248260843501013511610b9157608435810160248101353603604490910113610b9157610a8d602482608435010135610a878654611d83565b86611dd4565b86601f60248360843501013511600114610af75760019283926020928a90602483608435010135610ae5575b5060001960843590920160240135600381901b9290921c191690841b1786555b019301910190916109cf565b60449150826084350101013538610ab9565b8488526020882090885b608435840160240135601f19168110610b725750600193849360209391928592602492916084358301840135601f19811610610b4a575b5050608435010135811b018655610ad9565b604460001960f8868660843501013560031b161c199184608435010101351690553880610b38565b9091602060018192604486886084350101013581550193019101610b01565b8680fd5b60405162461bcd60e51b815260206004820152602a60248201527f596f75206d75737420626520746865206f776e6572206f662074686520696e666044820152696f726d6564205257412160b01b6064820152608490fd5b610c06915060203d602011610630576106218183611cc9565b3861095c565b6040513d86823e3d90fd5b9091506020813d602011610c43575b81610c3360209383611cc9565b810103126105a1575190386108fc565b3d9150610c26565b6040513d85823e3d90fd5b5034610119578060031936011261011957805b60065481101561100357600160ff6002610c8284612068565b50015416151514610c9c575b610c97906120b9565b610c69565b906001610ca883612068565b500154815260079182602052604082209260018060a01b03600b54169084019060405191634c8f60a360e01b8352602483016020600485015281548091526044808501908260051b860101928752602087209187915b818310610f505750505050602091838681809403925af1908115610c4b578391610f1e575b50600b54604080516364b975db60e11b8152600481019390935290829060249082906001600160a01b03165afa8015610c4b5783918491610efd575b50816005860155600a850155610d7482612068565b505493600481015460058102811590828104600514821715610ee9578410610de457505060020154604080519182526020820195909552938401529091610c9791907ff7b2a02710587555e8088cb5d6a5e52b1468ddc5b8c44e8ec467726812208edf90606090a15b9050610c8e565b8160021b828104600414821715610ee9578410610e4657505060020154604080519182526020820195909552938401529091610c9791907f17c27c1a1d8499a9f8ed78294056bfb908efabe86085655ffdd026928ecb674790606090a1610ddd565b81600197939492971b9687046002141715610ed557610c9794958110610e6f575b505050610ddd565b610eca60027f9828062d5a194b52d5bc47302cbc7c1d9f19ecac0d17c48feb100d0cf396ad0d9481610ea088612068565b500160ff198154169055015491604051938493846040919493926060820195825260208201520152565b0390a1388080610e67565b634e487b7160e01b85526011600452602485fd5b634e487b7160e01b87526011600452602487fd5b9050610f18915060403d60401161080e576108008183611cc9565b38610d5f565b90506020813d602011610f48575b81610f3960209383611cc9565b810103126105a1575138610d23565b3d9150610f2c565b909192936043999697989919888203018252600090855490610f7182611d83565b8082529160018116908115610fe05750600114610fa2575b5096999897965093600190810193019190602001610cfe565b909150856000526020600020916000925b818410610fca575050016020908101906001610f89565b6001816020925483878701015201930192610fb3565b60ff191660208381019190915292151560051b9091018201925060019050610f89565b5080f35b5034610119576003199060203683011261011957600435916001600160401b03831161065a5760a0908336030112610119577f00000000000000000000000000000000000000000000000000000000000000006001600160a01b03163303611922576040519160a083018381106001600160401b038211176118b6576040528060040135835260248101356001600160401b038116810361174c57602084015260448101356001600160401b03811161174c576110ca9060043691840101611d05565b604084015260648101356001600160401b03811161174c576110f29060043691840101611d05565b60608401526084810135906001600160401b03821161174c57013660238201121561065a5760048101356001600160401b0381116118b6576040519161113e60208360051b0184611cc9565b8183526024602084019260061b820101903682116114bf57602401915b8183106118ce575050506080830152815181556060820151805181019060208181840193031261174c576020810151906001600160401b0382116118ca570181603f8201121561174c5760208101516111b79291604001611d4c565b9182516001600160401b0381116118b6576111d3600154611d83565b601f811161185d575b506020601f82116001146117dc578394829394926117d1575b50508160011b916000199060031b1c1916176001555b6040516112228161121b81611e0e565b0382611cc9565b60608180518101031261174c576020810151611245606060408401519301611eb1565b6040518060208101106001600160401b036020830111176117bd5760208101604052858152836005810204600514841517156117a95760405193846101a08101106001600160401b036101a087011117611795576005906101a086016040528786528760208701528760408701528760608701520260808501528560a08501528560c085015260e084015284610100840152846101208401528461014084015280151561016084015260016101808401526001811515146000146115b0575083526007602052604083208151815560208201516001820155604082015160028201556003810160018060a01b036060840151166001600160601b0360a01b8254161790556080820151600482015560a0820151600582015560c082015160068201556007810160e08301519060208251926113808484611ebe565b019086526020862086915b8383106114c35750505050600b6101809161010084015160088201556101208401516009820155610140840151600a82015501916113dc6101608201511515849060ff801983541691151516179055565b0151815461ff00191690151560081b61ff00161790555b80516001600160401b036020830151169160408101516020818051810103126114bf57602001516001600160a01b03811691908290036114bf57606001519081518201916020818185019403126114bb576020810151906001600160401b038211610b91570182603f820112156114bb577fb1e312a29937cc11967b0e4a346fef1ae132424ebaba9dc6d90249dba053e87c9281604060206114989401519101611d4c565b906114b56040519283928352604060208401526040830190611c4f565b0390a380f35b8580fd5b8480fd5b80518051906001600160401b03821161159c576114e482610a878654611d83565b6020908a601f841160011461152f57928060209360019693879692611524575b5050600019600383901b1c191690841b1785555b0192019201919061138b565b015190503880611504565b85905260208b2091908b5b601f1985168110611584575083602093600196938796938794601f1981161061156b575b505050811b018555611518565b015160001960f88460031b161c1916905538808061155e565b9192602060018192868501518155019401920161153a565b634e487b7160e01b8a52604160045260248afd5b909150156115bf575b506113f3565b8083526007602052600160ff600b60408620015460081c161515036117505780835260076020526040832091835b8260016115f983612068565b5001541461163d578083600161161161161e94612068565b50015414611623576120b9565b6115ed565b600261162e82612068565b5001805460ff191690556120b9565b50600c5460038401805460068601805494969550919391926001600160a01b03918216928892909116803b1561174c57604051632142170760e11b81523060048201526001600160a01b0394909416602485015260448401919091528290606490829084905af1801561174157611707575b50916080917fe9c6e81492bc93fe089982a07565c4a3a6e0c968c5c00b0cd69a8dac9bf37b4993600183549301549160018060a01b03905416905491604051938452602084015260408301526060820152a1386115b9565b917fe9c6e81492bc93fe089982a07565c4a3a6e0c968c5c00b0cd69a8dac9bf37b49939195611737608094611ca0565b95919350916116af565b6040513d88823e3d90fd5b8280fd5b60405162461bcd60e51b815260206004820152601d60248201527f54686973207065726d697373696f6e206469646e7420657869737473210000006044820152606490fd5b634e487b7160e01b87526041600452602487fd5b634e487b7160e01b86526011600452602486fd5b634e487b7160e01b86526041600452602486fd5b0151905038806111f5565b600184527fb10e2d527612073b26eecdfd717e6a320cf44b4afac2b0732d9fcbe2b7fa0cf690601f198316855b8181106118455750958360019596971061182c575b505050811b0160015561120b565b015160001960f88460031b161c1916905538808061181e565b9192602060018192868b015181550194019201611809565b6118a690600185527fb10e2d527612073b26eecdfd717e6a320cf44b4afac2b0732d9fcbe2b7fa0cf6601f840160051c810191602085106118ac575b601f0160051c0190611dbd565b386111dc565b9091508190611899565b634e487b7160e01b83526041600452602483fd5b8380fd5b6040833603126114bf57604051604081018181106001600160401b038211176117955760405283356001600160a01b0381168103610b9157918160409360209352828601358382015281520192019161115b565b6040516335fdcccd60e21b8152336004820152602490fd5b50346101195760203660031901126101195760ff60406020926001600160401b03611963611c8a565b168152600884522054166040519015158152f35b5034610119576020366003190112610119576001600160a01b03611999611c74565b166001600160601b0360a01b600254161760025580f35b5034610119576020366003190112610119576119ca611c74565b47908115611a41578280808085855af13d15611a3c573d6119ea81611cea565b906119f86040519283611cc9565b81528460203d92013e5b15611a0b578280f35b604051639d11f56360e01b81523360048201526001600160a01b039190911660248201526044810191909152606490fd5b611a02565b604051630686827b60e51b8152600490fd5b503461011957604036600319011261011957611a6d611c74565b6001600160a01b039060243582811691908290036118ca576040516370a0823160e01b8152306004820152926020928385602481845afa948515611741578695611b1f575b508415611a4157839286604492604051978895869463a9059cbb60e01b865216600485015260248401525af18015610c4b57611aec578280f35b81813d8311611b18575b611b008183611cc9565b8101031261065a57611b1190611eb1565b5038808280f35b503d611af6565b9094508381813d8311611b47575b611b378183611cc9565b810103126114bb57519338611ab2565b503d611b2d565b50346101195760203660031901126101195760209060ff906040906001600160a01b03611b79611c74565b168152600984522054166040519015158152f35b50346101195780600319360112610119575460405190611bb782611bb081611e0e565b0383611cc9565b611bd36040519283928352604060208401526040830190611c4f565b0390f35b90503461065a57602036600319011261065a5760043563ffffffff60e01b811680910361174c57602092506385572ffb60e01b8114908115611c1b575b5015158152f35b6301ffc9a760e01b14905038611c14565b60005b838110611c3f5750506000910152565b8181015183820152602001611c2f565b90602091611c6881518092818552858086019101611c2c565b601f01601f1916010190565b600435906001600160a01b03821682036105a157565b600435906001600160401b03821682036105a157565b6001600160401b038111611cb357604052565b634e487b7160e01b600052604160045260246000fd5b90601f801991011681019081106001600160401b03821117611cb357604052565b6001600160401b038111611cb357601f01601f191660200190565b81601f820112156105a157803590611d1c82611cea565b92611d2a6040519485611cc9565b828452602083830101116105a157816000926020809301838601378301015290565b90929192611d5981611cea565b91611d676040519384611cc9565b8294828452828201116105a1576020611d81930190611c2c565b565b90600182811c92168015611db3575b6020831014611d9d57565b634e487b7160e01b600052602260045260246000fd5b91607f1691611d92565b818110611dc8575050565b60008155600101611dbd565b9190601f8111611de357505050565b611d81926000526020600020906020601f840160051c830193106118ac57601f0160051c0190611dbd565b90600091600190815491611e2183611d83565b80835292818116908115611e945750600114611e3c57505050565b80929394506000527fb10e2d527612073b26eecdfd717e6a320cf44b4afac2b0732d9fcbe2b7fa0cf6916000925b848410611e7c57505060209250010190565b80546020858501810191909152909301928101611e6a565b915050602093945060ff929192191683830152151560051b010190565b519081151582036105a157565b600160401b8211611cb357805491808255828110611edb57505050565b600091825260209081832093840193015b838110611ef95750505050565b8083611f0760019354611d83565b80611f15575b505001611eec565b601f8082118514611f2c57505081555b8338611f0d565b611f4590848452868420920160051c8201858301611dbd565b81835555611f25565b8183526020600583901b84018101939192906000818401855b848310611f78575050505050505090565b90919293949596601f19808883030184528835601e19843603018112156105a157830186810190356001600160401b0381116105a15780360382136105a157838893601f83808796879660019a5286860137600085828601015201160101990193019301919594939290611f67565b15611fee57565b60405162461bcd60e51b815260206004820152601e60248201527f54686973207065726d697373696f6e206469646e2774206578697374732100006044820152606490fd5b908160209103126105a157516001600160a01b03811681036105a15790565b91908260409103126105a1576020825192015190565b6006548110156120a3576003906006600052027ff652222313e28459528d920b65115c16c04f3efc82aaedc97be59f3f377c0d3f0190600090565b634e487b7160e01b600052603260045260246000fd5b60001981146120c85760010190565b634e487b7160e01b600052601160045260246000fdfea264697066735822122044e4185caf736288a161d27b865f7eb03deabfcccad461107f8d42b2072aaf2e64736f6c63430008140033",
  "linkReferences": {},
  "deployedLinkReferences": {}
}