{
  "_format": "hh-sol-artifact-1",
  "contractName": "HorizonFujiR",
  "sourceName": "contracts/HorizonFujiR.sol",
  "abi": [
    {
      "inputs": [
        {
          "internalType": "address",
          "name": "_linkToken",
          "type": "address"
        },
        {
          "internalType": "address",
          "name": "_routerCCIP",
          "type": "address"
        }
      ],
      "stateMutability": "nonpayable",
      "type": "constructor"
    },
    {
      "inputs": [
        {
          "internalType": "address",
          "name": "owner",
          "type": "address"
        },
        {
          "internalType": "address",
          "name": "target",
          "type": "address"
        },
        {
          "internalType": "uint256",
          "name": "value",
          "type": "uint256"
        }
      ],
      "name": "FailedToWithdrawEth",
      "type": "error"
    },
    {
      "inputs": [
        {
          "internalType": "address",
          "name": "router",
          "type": "address"
        }
      ],
      "name": "InvalidRouter",
      "type": "error"
    },
    {
      "inputs": [],
      "name": "NothingToWithdraw",
      "type": "error"
    },
    {
      "anonymous": false,
      "inputs": [
        {
          "indexed": false,
          "internalType": "address",
          "name": "provisoryOwner",
          "type": "address"
        },
        {
          "indexed": false,
          "internalType": "uint256",
          "name": "_rwaId",
          "type": "uint256"
        },
        {
          "indexed": false,
          "internalType": "uint256",
          "name": "_titleId",
          "type": "uint256"
        },
        {
          "indexed": false,
          "internalType": "uint256",
          "name": "_drawNumber",
          "type": "uint256"
        }
      ],
      "name": "EnsuranceAdd",
      "type": "event"
    },
    {
      "anonymous": false,
      "inputs": [
        {
          "indexed": true,
          "internalType": "bytes32",
          "name": "messageId",
          "type": "bytes32"
        },
        {
          "indexed": true,
          "internalType": "uint64",
          "name": "sourceChainSelector",
          "type": "uint64"
        },
        {
          "indexed": false,
          "internalType": "address",
          "name": "sender",
          "type": "address"
        },
        {
          "indexed": false,
          "internalType": "string",
          "name": "text",
          "type": "string"
        }
      ],
      "name": "MessageReceived",
      "type": "event"
    },
    {
      "anonymous": false,
      "inputs": [
        {
          "indexed": false,
          "internalType": "uint256",
          "name": "_contractId",
          "type": "uint256"
        },
        {
          "indexed": false,
          "internalType": "uint256",
          "name": "_rwaId",
          "type": "uint256"
        },
        {
          "indexed": false,
          "internalType": "uint256",
          "name": "_rwaValue",
          "type": "uint256"
        }
      ],
      "name": "PriceLowEvent",
      "type": "event"
    },
    {
      "anonymous": false,
      "inputs": [
        {
          "indexed": false,
          "internalType": "uint256",
          "name": "_contractId",
          "type": "uint256"
        },
        {
          "indexed": false,
          "internalType": "uint256",
          "name": "_rwaId",
          "type": "uint256"
        },
        {
          "indexed": false,
          "internalType": "uint256",
          "name": "_rwaValue",
          "type": "uint256"
        }
      ],
      "name": "RWAPriceAtMoment",
      "type": "event"
    },
    {
      "anonymous": false,
      "inputs": [
        {
          "indexed": false,
          "internalType": "uint256",
          "name": "_titleId",
          "type": "uint256"
        },
        {
          "indexed": false,
          "internalType": "uint256",
          "name": "_drawNumber",
          "type": "uint256"
        },
        {
          "indexed": false,
          "internalType": "address",
          "name": "_rwaOwner",
          "type": "address"
        },
        {
          "indexed": false,
          "internalType": "uint256",
          "name": "_colateralId",
          "type": "uint256"
        }
      ],
      "name": "RWARefunded",
      "type": "event"
    },
    {
      "anonymous": false,
      "inputs": [
        {
          "indexed": false,
          "internalType": "bytes32",
          "name": "requestId",
          "type": "bytes32"
        },
        {
          "indexed": false,
          "internalType": "string[]",
          "name": "args",
          "type": "string[]"
        }
      ],
      "name": "RwaValueUpdated",
      "type": "event"
    },
    {
      "anonymous": false,
      "inputs": [
        {
          "indexed": false,
          "internalType": "uint256",
          "name": "_rwaId",
          "type": "uint256"
        },
        {
          "indexed": false,
          "internalType": "uint256",
          "name": "_rwaValue",
          "type": "uint256"
        }
      ],
      "name": "TheRwaValueIsLessThanTheMinimumNeeded",
      "type": "event"
    },
    {
      "anonymous": false,
      "inputs": [
        {
          "indexed": false,
          "internalType": "uint256",
          "name": "_contractId",
          "type": "uint256"
        },
        {
          "indexed": false,
          "internalType": "uint256",
          "name": "_rwaId",
          "type": "uint256"
        },
        {
          "indexed": false,
          "internalType": "uint256",
          "name": "_rwaValue",
          "type": "uint256"
        }
      ],
      "name": "TitleCancelledTheRWAWillBeSold",
      "type": "event"
    },
    {
      "anonymous": false,
      "inputs": [
        {
          "indexed": false,
          "internalType": "uint256",
          "name": "value",
          "type": "uint256"
        }
      ],
      "name": "UpkeepPerformed",
      "type": "event"
    },
    {
      "anonymous": false,
      "inputs": [
        {
          "indexed": false,
          "internalType": "uint256",
          "name": "_rwaId",
          "type": "uint256"
        },
        {
          "indexed": false,
          "internalType": "string[]",
          "name": "args",
          "type": "string[]"
        }
      ],
      "name": "VerifyingRwaValue",
      "type": "event"
    },
    {
      "inputs": [
        {
          "internalType": "uint256",
          "name": "_titleId",
          "type": "uint256"
        },
        {
          "internalType": "uint256",
          "name": "_contractId",
          "type": "uint256"
        },
        {
          "internalType": "uint256",
          "name": "_drawNumber",
          "type": "uint256"
        },
        {
          "internalType": "uint256",
          "name": "_rwaId",
          "type": "uint256"
        }
      ],
      "name": "addCollateral",
      "outputs": [],
      "stateMutability": "nonpayable",
      "type": "function"
    },
    {
      "inputs": [
        {
          "internalType": "address",
          "name": "_receiverAddress",
          "type": "address"
        }
      ],
      "name": "addReceiver",
      "outputs": [],
      "stateMutability": "nonpayable",
      "type": "function"
    },
    {
      "inputs": [
        {
          "internalType": "address",
          "name": "_sender",
          "type": "address"
        }
      ],
      "name": "addSender",
      "outputs": [],
      "stateMutability": "nonpayable",
      "type": "function"
    },
    {
      "inputs": [
        {
          "internalType": "uint64",
          "name": "_sourceChainSelector",
          "type": "uint64"
        }
      ],
      "name": "addSourceChain",
      "outputs": [],
      "stateMutability": "nonpayable",
      "type": "function"
    },
    {
      "inputs": [
        {
          "components": [
            {
              "internalType": "bytes32",
              "name": "messageId",
              "type": "bytes32"
            },
            {
              "internalType": "uint64",
              "name": "sourceChainSelector",
              "type": "uint64"
            },
            {
              "internalType": "bytes",
              "name": "sender",
              "type": "bytes"
            },
            {
              "internalType": "bytes",
              "name": "data",
              "type": "bytes"
            },
            {
              "components": [
                {
                  "internalType": "address",
                  "name": "token",
                  "type": "address"
                },
                {
                  "internalType": "uint256",
                  "name": "amount",
                  "type": "uint256"
                }
              ],
              "internalType": "struct Client.EVMTokenAmount[]",
              "name": "destTokenAmounts",
              "type": "tuple[]"
            }
          ],
          "internalType": "struct Client.Any2EVMMessage",
          "name": "message",
          "type": "tuple"
        }
      ],
      "name": "ccipReceive",
      "outputs": [],
      "stateMutability": "nonpayable",
      "type": "function"
    },
    {
      "inputs": [],
      "name": "checkColateralPrice",
      "outputs": [],
      "stateMutability": "nonpayable",
      "type": "function"
    },
    {
      "inputs": [
        {
          "components": [
            {
              "internalType": "uint256",
              "name": "index",
              "type": "uint256"
            },
            {
              "internalType": "uint256",
              "name": "timestamp",
              "type": "uint256"
            },
            {
              "internalType": "bytes32",
              "name": "txHash",
              "type": "bytes32"
            },
            {
              "internalType": "uint256",
              "name": "blockNumber",
              "type": "uint256"
            },
            {
              "internalType": "bytes32",
              "name": "blockHash",
              "type": "bytes32"
            },
            {
              "internalType": "address",
              "name": "source",
              "type": "address"
            },
            {
              "internalType": "bytes32[]",
              "name": "topics",
              "type": "bytes32[]"
            },
            {
              "internalType": "bytes",
              "name": "data",
              "type": "bytes"
            }
          ],
          "internalType": "struct Log",
          "name": "log",
          "type": "tuple"
        },
        {
          "internalType": "bytes",
          "name": "",
          "type": "bytes"
        }
      ],
      "name": "checkLog",
      "outputs": [
        {
          "internalType": "bool",
          "name": "upkeepNeeded",
          "type": "bool"
        },
        {
          "internalType": "bytes",
          "name": "performData",
          "type": "bytes"
        }
      ],
      "stateMutability": "pure",
      "type": "function"
    },
    {
      "inputs": [],
      "name": "getColateralPrice",
      "outputs": [],
      "stateMutability": "nonpayable",
      "type": "function"
    },
    {
      "inputs": [],
      "name": "getLastReceivedMessageDetails",
      "outputs": [
        {
          "internalType": "bytes32",
          "name": "messageId",
          "type": "bytes32"
        },
        {
          "internalType": "bytes",
          "name": "text",
          "type": "bytes"
        }
      ],
      "stateMutability": "view",
      "type": "function"
    },
    {
      "inputs": [],
      "name": "getRouter",
      "outputs": [
        {
          "internalType": "address",
          "name": "",
          "type": "address"
        }
      ],
      "stateMutability": "view",
      "type": "function"
    },
    {
      "inputs": [
        {
          "internalType": "bytes",
          "name": "performData",
          "type": "bytes"
        }
      ],
      "name": "performUpkeep",
      "outputs": [],
      "stateMutability": "nonpayable",
      "type": "function"
    },
    {
      "inputs": [
        {
          "internalType": "bytes32",
          "name": "",
          "type": "bytes32"
        }
      ],
      "name": "permissionsInfo",
      "outputs": [
        {
          "internalType": "uint256",
          "name": "idTitle",
          "type": "uint256"
        },
        {
          "internalType": "uint256",
          "name": "drawNumber",
          "type": "uint256"
        },
        {
          "internalType": "uint256",
          "name": "contractId",
          "type": "uint256"
        },
        {
          "internalType": "address",
          "name": "rwaOwner",
          "type": "address"
        },
        {
          "internalType": "uint256",
          "name": "ensuranceValueNeeded",
          "type": "uint256"
        },
        {
          "internalType": "uint256",
          "name": "ensureValueNow",
          "type": "uint256"
        },
        {
          "internalType": "uint256",
          "name": "colateralId",
          "type": "uint256"
        },
        {
          "internalType": "bytes32",
          "name": "lastRequestId",
          "type": "bytes32"
        },
        {
          "internalType": "uint256",
          "name": "lastRequestTime",
          "type": "uint256"
        },
        {
          "internalType": "uint256",
          "name": "lastResponseTime",
          "type": "uint256"
        },
        {
          "internalType": "bool",
          "name": "colateralLocked",
          "type": "bool"
        },
        {
          "internalType": "bool",
          "name": "isPermission",
          "type": "bool"
        }
      ],
      "stateMutability": "view",
      "type": "function"
    },
    {
      "inputs": [
        {
          "internalType": "address",
          "name": "_sender",
          "type": "address"
        }
      ],
      "name": "removeSender",
      "outputs": [],
      "stateMutability": "nonpayable",
      "type": "function"
    },
    {
      "inputs": [
        {
          "internalType": "uint64",
          "name": "_sourceChainSelector",
          "type": "uint64"
        }
      ],
      "name": "removelistSourceChain",
      "outputs": [],
      "stateMutability": "nonpayable",
      "type": "function"
    },
    {
      "inputs": [
        {
          "internalType": "uint256",
          "name": "",
          "type": "uint256"
        }
      ],
      "name": "rwaMonitors",
      "outputs": [
        {
          "internalType": "uint256",
          "name": "rwaId",
          "type": "uint256"
        },
        {
          "internalType": "bytes32",
          "name": "hashPermission",
          "type": "bytes32"
        },
        {
          "internalType": "bytes32",
          "name": "lastRequestId",
          "type": "bytes32"
        },
        {
          "internalType": "bool",
          "name": "isActive",
          "type": "bool"
        }
      ],
      "stateMutability": "view",
      "type": "function"
    },
    {
      "inputs": [
        {
          "internalType": "bytes4",
          "name": "interfaceId",
          "type": "bytes4"
        }
      ],
      "name": "supportsInterface",
      "outputs": [
        {
          "internalType": "bool",
          "name": "",
          "type": "bool"
        }
      ],
      "stateMutability": "pure",
      "type": "function"
    },
    {
      "inputs": [
        {
          "internalType": "uint256",
          "name": "_titleId",
          "type": "uint256"
        },
        {
          "internalType": "uint256",
          "name": "_contractId",
          "type": "uint256"
        },
        {
          "internalType": "uint256",
          "name": "_drawNumber",
          "type": "uint256"
        },
        {
          "internalType": "uint256",
          "name": "_rwaId",
          "type": "uint256"
        },
        {
          "internalType": "string[]",
          "name": "args",
          "type": "string[]"
        }
      ],
      "name": "verifyColateralValue",
      "outputs": [],
      "stateMutability": "nonpayable",
      "type": "function"
    },
    {
      "inputs": [
        {
          "internalType": "address",
          "name": "",
          "type": "address"
        }
      ],
      "name": "whitelistedSenders",
      "outputs": [
        {
          "internalType": "bool",
          "name": "",
          "type": "bool"
        }
      ],
      "stateMutability": "view",
      "type": "function"
    },
    {
      "inputs": [
        {
          "internalType": "uint64",
          "name": "",
          "type": "uint64"
        }
      ],
      "name": "whitelistedSourceChains",
      "outputs": [
        {
          "internalType": "bool",
          "name": "",
          "type": "bool"
        }
      ],
      "stateMutability": "view",
      "type": "function"
    },
    {
      "inputs": [
        {
          "internalType": "address",
          "name": "_beneficiary",
          "type": "address"
        }
      ],
      "name": "withdraw",
      "outputs": [],
      "stateMutability": "nonpayable",
      "type": "function"
    },
    {
      "inputs": [
        {
          "internalType": "address",
          "name": "_beneficiary",
          "type": "address"
        },
        {
          "internalType": "address",
          "name": "_token",
          "type": "address"
        }
      ],
      "name": "withdrawToken",
      "outputs": [],
      "stateMutability": "nonpayable",
      "type": "function"
    },
    {
      "stateMutability": "payable",
      "type": "receive"
    }
  ],
  "bytecode": "0x60a0346200011557601f6200271938819003918201601f19168301916001600160401b038311848410176200011a57808492604094855283398101031262000115576200005a6020620000528362000130565b920162000130565b6001600160a01b039080821615620000fc5760805260018060a01b0319917314c9188071620abcd778a20f5b344c515ab9c0f983600a541617600a5573317383204e6406b61258cb53d535ae770b7a984f83600b541617600b5573d7ecf0bbe82717ead041eef0b9e777e1a7d577a083600c541617600c55169060055416176005556040516125d390816200014682396080518181816103200152610f910152f35b6040516335fdcccd60e21b815260006004820152602490fd5b600080fd5b634e487b7160e01b600052604160045260246000fd5b51906001600160a01b0382168203620001155756fe608080604052600436101561001d575b50361561001b57600080fd5b005b600090813560e01c90816301ffc9a714611ca757508063263596a514611c5d578063272efc6914611c1e5780632a26a35314611c025780633aeac4e114611b0757806340691db414611a155780634585e33b1461198a57806351cff8d9146118e757806369d83ed1146118ae5780637dc91a021461187157806385572ffb14610f5d5780639150672014610e1a57806392365ce4146109f557806395871c8f1461034f578063b0f479a11461030a578063b2f87643146102d1578063b697f53114610295578063c5ec1c7a14610259578063c82240bb146101fd578063e9982c39146101485763ff46ed530361000f5734610145576020366003190112610145576001600160401b0361012e611e0b565b168152600860205260408120805460ff1916905580f35b80fd5b503461014557602036600319011261014557604061018091600435815260076020522060ff815491600181015490600281015460018060a01b0360038301541660048301546005840154600685015491600886015493600987015495600b600a890154980154986040519b8c5260208c015260408b015260608a0152608089015260a088015260c087015260e0860152610100850152610120840152818116151561014084015260081c161515610160820152f35b5034610145576020366003190112610145576004359060065482101561014557608061022883611e21565b5080549060018101549060ff6004600383015492015416916040519384526020840152604083015215156060820152f35b5034610145576020366003190112610145576001600160401b0361027b611e0b565b168152600860205260408120805460ff1916600117905580f35b5034610145576020366003190112610145576001600160a01b036102b7611d44565b168152600960205260408120805460ff1916600117905580f35b5034610145576020366003190112610145576001600160a01b036102f3611d44565b168152600960205260408120805460ff1916905580f35b50346101455780600319360112610145576040517f00000000000000000000000000000000000000000000000000000000000000006001600160a01b03168152602090f35b503461014557608036600319011261014557604051602081019061039d8161038f6044356024356004358791606093918352602083015260408201520190565b03601f198101835282611d88565b5190208082526007602052604082209060088201546103ca600160ff600b86015460081c16151514612124565b600b54604080516364b975db60e11b8152600481019390935290829060249082906001600160a01b03165afa9081156106a657849085926109c3575b50811561096b5760048401549182821180156108f057156108b557816005860155600a8501551061083a57600c5483906001600160a01b0316803b15610836576040516323b872dd60e01b8152336004820152306024820152606480356044830152909183918391829084905af1801561082b57610813575b5050600c546040516331a9108f60e11b815260643560048201529290602090849060249082906001600160a01b03165afa9283156106a65784936107e2575b506104e26007604051926104d184611d5a565b6064358452846020850152016121a5565b604082015283606082015260016080820152600654600160401b8110156107ce578060016105139201600655611e21565b9190916107ba5780518255602081015160018301556002820160408201519060208251926105418484611ffb565b019087526020872087915b8383106106c75750505050906004608083606061058195015160038501550151151591019060ff801983541691151516179055565b60018060a01b03600c54166040519160208301526040820152606435606082015260608152608081018181106001600160401b038211176106b1576040819052600a54600254630a30e37760e41b835267adecc60412ce25a560848501526001600160a01b0390811660a4850152606060c48501526020918391168187607f198761060f60e4820182611d1f565b0301925af180156106a657610672575b5050604080516001600160a01b03909216825260643560208301526004359082015260443560608201527f93bffd1bde7afe8c47a27012597f0dc2c5ccea5fc1323d424e13c21065d594e890608090a180f35b9060209182903d841161069e575b8161068a91611d88565b8101031261069957388061061f565b600080fd5b3d9150610680565b6040513d86823e3d90fd5b634e487b7160e01b600052604160045260246000fd5b80518051906001600160401b0382116107a6576106ee826106e88654611ec0565b86611f11565b6020908b601f84116001146107395792806020936001969387969261072e575b5050600019600383901b1c191690841b1785555b0192019201919061054c565b01519050388061070e565b85905260208c2091908c5b601f198516811061078e575083602093600196938796938794601f19811610610775575b505050811b018555610722565b015160001960f88460031b161c19169055388080610768565b91926020600181928685015181550194019201610744565b634e487b7160e01b8b52604160045260248bfd5b634e487b7160e01b85526004859052602485fd5b634e487b7160e01b85526041600452602485fd5b61080591935060203d60201161080c575b6107fd8183611d88565b810190612170565b91386104be565b503d6107f3565b61081c90611d75565b61082757823861047f565b8280fd5b6040513d84823e3d90fd5b5080fd5b60405162461bcd60e51b815260206004820152604760248201527f54686520656e737572616e6365206d7573742068617665206174206c6561737460448201527f20352074696d6573207468652076616c7565206f66207468652076616c7565206064820152666e65656465642160c81b608482015260a490fd5b5090507f90d31678ec129d3863be095922ef7b97386bcca9b61e15d2d53347cddceeb0a792506040809250519060643582526020820152a180f35b60405162461bcd60e51b815260206004820152604760248201527f5468652076616c7565206f662074686520525741206e6565647320746f20626560448201527f2067726561746572207468616e2074686520656e737572616e636556616c75656064820152664e65656465642160c81b608482015260a490fd5b60405162461bcd60e51b815260206004820152602a60248201527f596f75206d75737420776169742074686520726573706f6e736520746f2062656044820152692072656365697665642160b01b6064820152608490fd5b90506109e7915060403d6040116109ee575b6109df8183611d88565b81019061218f565b9038610406565b503d6109d5565b50346101455760a0366003190112610145576001600160401b036084351161014557366023608435011215610145576001600160401b036084356004013511610145573660246084356004013560051b608435010111610145576040516020810190610a7d8161038f6044356024356004358791606093918352602083015260408201520190565b51902060018060a01b03600b54169060206040518093634c8f60a360e01b8252826004830152818681610abf602482016084356004013560246084350161208b565b03925af1918215610e0f578392610ddb575b508083526007602052610af5600160ff600b60408720015460081c16151514612124565b600c546040516331a9108f60e11b8152606435600482015290602090829060249082906001600160a01b03165afa9081156106a6578491610dbc575b506001600160a01b03163303610d6457825260076020526040822060043581556024356002820155604435600182015560038101336001600160601b0360a01b8254161790556064356006820155610b926084356004013560078301611ffb565b60078101835260208320836084356024015b608435600401358210610c0857505050600801557fcc6833fd9787745c083edfcc3ae70e4cd35ab78cf84f127388a790fd6ed17fbb60405160643581526040602082015280610c02604082016084356004013560246084350161208b565b0390a180f35b8035608435360360421901811215610d60576001600160401b0360248260843501013511610d6057608435810160248101353603604490910113610d6057610c5c6024826084350101356106e88654611ec0565b86601f60248360843501013511600114610cc65760019283926020928a90602483608435010135610cb4575b5060001960843590920160240135600381901b9290921c191690841b1786555b01930191019091610ba4565b60449150826084350101013538610c88565b8488526020882090885b608435840160240135601f19168110610d415750600193849360209391928592602492916084358301840135601f19811610610d19575b5050608435010135811b018655610ca8565b604460001960f8868660843501013560031b161c199184608435010101351690553880610d07565b9091602060018192604486886084350101013581550193019101610cd0565b8680fd5b60405162461bcd60e51b815260206004820152602a60248201527f596f75206d75737420626520746865206f776e6572206f662074686520696e666044820152696f726d6564205257412160b01b6064820152608490fd5b610dd5915060203d60201161080c576107fd8183611d88565b38610b31565b9091506020813d602011610e07575b81610df760209383611d88565b8101031261069957519038610ad1565b3d9150610dea565b6040513d85823e3d90fd5b5034610145578060031936011261014557805b600654811015610f5957600160ff6004610e4684611e21565b50015416151514610e60575b610e5b90612282565b610e2d565b610e756002610e6e83611e21565b50016121a5565b600b54604051634c8f60a360e01b815260206004820181905293929091849083906001600160a01b0316818881610eaf60248201886122a7565b03925af1918215610f4e578592610f1b575b509281610f11610e5b957f7f8c15ff47c06a016904047397e8933a03676bbe860121d4070b33d7608cc848946003610ef888611e21565b50015560408051948594855284015260408301906122a7565b0390a19050610e52565b9150928082813d8311610f47575b610f338183611d88565b810103126106995790519092610e5b610ec1565b503d610f29565b6040513d87823e3d90fd5b5080f35b5034610145576003199060203683011261014557600435916001600160401b0383116108365760a0908336030112610145577f00000000000000000000000000000000000000000000000000000000000000006001600160a01b031633036118595760405191610fcc83611d5a565b8060040135835260248101356001600160401b038116810361082757602084015260448101356001600160401b038111610827576110109060043691840101611dc4565b604084015260648101356001600160401b038111610827576110389060043691840101611dc4565b60608401526084810135906001600160401b03821161082757013660238201121561083657600481013561106b81611e72565b916110796040519384611d88565b8183526024602084019260061b820101903682116113fa57602401915b8183106118055750505060808301528151815560608201518051810190602081818401930312610827576020810151906001600160401b038211611801570181603f820112156108275760208101516110f29291604001611e89565b9182516001600160401b0381116117ed5761110e600154611ec0565b601f8111611794575b506020601f821160011461171357839482939492611708575b50508160011b916000199060031b1c1916176001555b60405161115d8161115681611f4b565b0382611d88565b606081805181010312610827576020810151611180606060408401519301611fee565b6040518060208101106001600160401b036020830111176116f45760208101604052858152836005810204600514841517156116e05760405193846101a08101106001600160401b036101a0870111176116cc576005906101a086016040528786528760208701528760408701528760608701520260808501528560a08501528560c085015260e084015284610100840152846101208401528461014084015280151561016084015260016101808401526001811515146000146114eb575083526007602052604083208151815560208201516001820155604082015160028201556003810160018060a01b036060840151166001600160601b0360a01b8254161790556080820151600482015560a0820151600582015560c082015160068201556007810160e08301519060208251926112bb8484611ffb565b019086526020862086915b8383106113fe5750505050600b6101809161010084015160088201556101208401516009820155610140840151600a82015501916113176101608201511515849060ff801983541691151516179055565b0151815461ff00191690151560081b61ff00161790555b80516001600160401b036020830151169160408101516020818051810103126113fa57602001516001600160a01b03811691908290036113fa57606001519081518201916020818185019403126113f6576020810151906001600160401b038211610d60570182603f820112156113f6577fb1e312a29937cc11967b0e4a346fef1ae132424ebaba9dc6d90249dba053e87c9281604060206113d39401519101611e89565b906113f06040519283928352604060208401526040830190611d1f565b0390a380f35b8580fd5b8480fd5b80518051906001600160401b0382116114d75761141f826106e88654611ec0565b6020908a601f841160011461146a5792806020936001969387969261145f575b5050600019600383901b1c191690841b1785555b019201920191906112c6565b01519050388061143f565b85905260208b2091908b5b601f19851681106114bf575083602093600196938796938794601f198116106114a6575b505050811b018555611453565b015160001960f88460031b161c19169055388080611499565b91926020600181928685015181550194019201611475565b634e487b7160e01b8a52604160045260248afd5b909150156114fa575b5061132e565b8083526007602052600160ff600b60408620015460081c161515036116875780835260076020526040832091835b82600161153483611e21565b50015414611578578083600161154c61155994611e21565b5001541461155e57612282565b611528565b600461156982611e21565b5001805460ff19169055612282565b50600c5460038401805460068601805494969550919391926001600160a01b03918216928892909116803b1561082757604051632142170760e11b81523060048201526001600160a01b0394909416602485015260448401919091528290606490829084905af1801561167c57611642575b50916080917fe9c6e81492bc93fe089982a07565c4a3a6e0c968c5c00b0cd69a8dac9bf37b4993600183549301549160018060a01b03905416905491604051938452602084015260408301526060820152a1386114f4565b917fe9c6e81492bc93fe089982a07565c4a3a6e0c968c5c00b0cd69a8dac9bf37b49939195611672608094611d75565b95919350916115ea565b6040513d88823e3d90fd5b60405162461bcd60e51b815260206004820152601d60248201527f54686973207065726d697373696f6e206469646e7420657869737473210000006044820152606490fd5b634e487b7160e01b87526041600452602487fd5b634e487b7160e01b86526011600452602486fd5b634e487b7160e01b86526041600452602486fd5b015190503880611130565b600184527fb10e2d527612073b26eecdfd717e6a320cf44b4afac2b0732d9fcbe2b7fa0cf690601f198316855b81811061177c57509583600195969710611763575b505050811b01600155611146565b015160001960f88460031b161c19169055388080611755565b9192602060018192868b015181550194019201611740565b6117dd90600185527fb10e2d527612073b26eecdfd717e6a320cf44b4afac2b0732d9fcbe2b7fa0cf6601f840160051c810191602085106117e3575b601f0160051c0190611efa565b38611117565b90915081906117d0565b634e487b7160e01b83526041600452602483fd5b8380fd5b6040833603126113fa57604051604081018181106001600160401b038211176116cc5760405283356001600160a01b0381168103610d60579181604093602093528286013583820152815201920191611096565b6040516335fdcccd60e21b8152336004820152602490fd5b50346101455760203660031901126101455760ff60406020926001600160401b0361189a611e0b565b168152600884522054166040519015158152f35b5034610145576020366003190112610145576001600160a01b036118d0611d44565b166001600160601b0360a01b600254161760025580f35b503461014557602036600319011261014557611901611d44565b47908115611978578280808085855af13d15611973573d61192181611da9565b9061192f6040519283611d88565b81528460203d92013e5b15611942578280f35b604051639d11f56360e01b81523360048201526001600160a01b039190911660248201526044810191909152606490fd5b611939565b604051630686827b60e51b8152600490fd5b5034610145576020366003190112610145576004356001600160401b038082116108275736602383011215610827578160040135908111610827578101366024820111610827578160209103126108365760207f94af253de69550dc89f661ee40c3f9ca744b642089664d2d8f145f393a37903c91611a07612303565b60246040519101358152a180f35b50346101455760031990604036830112610145576001600160401b039160043583811161082757610100813603928301126108275760243584811161180157611a62903690600401611dc4565b5060c481013591602219018212156108275701906004820135838111610836578060051b360360248401136108365760021015611af3576064604051920135602083015260208252604082019282841090841117611adf57506040828152600183526060820152603f1990611ada6080820182611d1f565b030190f35b634e487b7160e01b81526041600452602490fd5b634e487b7160e01b81526032600452602490fd5b503461014557604036600319011261014557611b21611d44565b6001600160a01b03906024358281169190829003611801576040516370a0823160e01b8152306004820152926020928385602481845afa94851561167c578695611bd3575b50841561197857839286604492604051978895869463a9059cbb60e01b865216600485015260248401525af18015610e0f57611ba0578280f35b81813d8311611bcc575b611bb48183611d88565b8101031261083657611bc590611fee565b5038808280f35b503d611baa565b9094508381813d8311611bfb575b611beb8183611d88565b810103126113f657519338611b66565b503d611be1565b5034610145578060031936011261014557611c1b612303565b80f35b50346101455760203660031901126101455760209060ff906040906001600160a01b03611c49611d44565b168152600984522054166040519015158152f35b50346101455780600319360112610145575460405190611c8782611c8081611f4b565b0383611d88565b611ca36040519283928352604060208401526040830190611d1f565b0390f35b9050346108365760203660031901126108365760043563ffffffff60e01b811680910361082757602092506385572ffb60e01b8114908115611ceb575b5015158152f35b6301ffc9a760e01b14905038611ce4565b60005b838110611d0f5750506000910152565b8181015183820152602001611cff565b90602091611d3881518092818552858086019101611cfc565b601f01601f1916010190565b600435906001600160a01b038216820361069957565b60a081019081106001600160401b038211176106b157604052565b6001600160401b0381116106b157604052565b90601f801991011681019081106001600160401b038211176106b157604052565b6001600160401b0381116106b157601f01601f191660200190565b81601f8201121561069957803590611ddb82611da9565b92611de96040519485611d88565b8284526020838301011161069957816000926020809301838601378301015290565b600435906001600160401b038216820361069957565b600654811015611e5c576005906006600052027ff652222313e28459528d920b65115c16c04f3efc82aaedc97be59f3f377c0d3f0190600090565b634e487b7160e01b600052603260045260246000fd5b6001600160401b0381116106b15760051b60200190565b90929192611e9681611da9565b91611ea46040519384611d88565b829482845282820111610699576020611ebe930190611cfc565b565b90600182811c92168015611ef0575b6020831014611eda57565b634e487b7160e01b600052602260045260246000fd5b91607f1691611ecf565b818110611f05575050565b60008155600101611efa565b9190601f8111611f2057505050565b611ebe926000526020600020906020601f840160051c830193106117e357601f0160051c0190611efa565b90600091600190815491611f5e83611ec0565b80835292818116908115611fd15750600114611f7957505050565b80929394506000527fb10e2d527612073b26eecdfd717e6a320cf44b4afac2b0732d9fcbe2b7fa0cf6916000925b848410611fb957505060209250010190565b80546020858501810191909152909301928101611fa7565b915050602093945060ff929192191683830152151560051b010190565b5190811515820361069957565b600160401b82116106b15780549180825582811061201857505050565b600091825260209081832093840193015b8381106120365750505050565b808361204460019354611ec0565b80612052575b505001612029565b601f808211851461206957505081555b833861204a565b61208290848452868420920160051c8201858301611efa565b81835555612062565b8183526020600583901b84018101939192906000818401855b8483106120b5575050505050505090565b90919293949596601f19808883030184528835601e198436030181121561069957830186810190356001600160401b03811161069957803603821361069957838893601f83808796879660019a52868601376000858286010152011601019901930193019195949392906120a4565b1561212b57565b60405162461bcd60e51b815260206004820152601e60248201527f54686973207065726d697373696f6e206469646e2774206578697374732100006044820152606490fd5b9081602091031261069957516001600160a01b03811681036106995790565b9190826040910312610699576020825192015190565b908154916121b283611e72565b926040916121c283519586611d88565b81855260009081526020808220938291908188015b8584106121e75750505050505050565b81518386928954926121f884611ec0565b808252600194808616908115612266575060011461222e575b50612220816001960382611d88565b8152019701930192956121d7565b8b8a52838a20955089905b80821061224f5750810183019450612220612211565b865483830186015295850195889490910190612239565b60ff19168584015250151560051b810183019450612220612211565b60001981146122915760010190565b634e487b7160e01b600052601160045260246000fd5b908082519081815260208091019281808460051b8301019501936000915b8483106122d55750505050505090565b90919293949584806122f3600193601f198682030187528a51611d1f565b98019301930191949392906122c5565b6000905b6006548210156125995761231a82611e21565b50916001928360ff60048093015416151514612343575b5061233d919250612282565b90612307565b600361234e83611e21565b500154600b54604080516364b975db60e11b815280850193909352956024939187908490869082906001600160a01b03165afa93841561258e576000938495612569575b508161239d87611e21565b500154600052600760205287600020926005958587860155600a8501556123c387611e21565b50549581850154908082028215918382041482171561255557871061243557505050506002919091015495519586525060208501919091526040840152909161233d91907ff7b2a02710587555e8088cb5d6a5e52b1468ddc5b8c44e8ec467726812208edf90606090a15b8291612331565b6002959482871b838104851483171561254157881061249a575050505091015495519586525060208501919091526040840152909161233d91907f17c27c1a1d8499a9f8ed78294056bfb908efabe86085655ffdd026928ecb674790606090a161242e565b82909b9693959897949b1b9182048314171561252d5761233d98995082106124c8575b50505050505061242e565b7f9828062d5a194b52d5bc47302cbc7c1d9f19ecac0d17c48feb100d0cf396ad0d9561251f936124f789611e21565b500160ff19815416905501549251938493846040919493926060820195825260208201520152565b0390a13880808080806124bd565b89601185634e487b7160e01b600052526000fd5b85601186634e487b7160e01b600052526000fd5b84601185634e487b7160e01b600052526000fd5b909450612584919350873d89116109ee576109df8183611d88565b9290929338612392565b87513d6000823e3d90fd5b905056fea2646970667358221220c87cbd11e0c8750c66f818b6bcf95d96967b2f702273ccea9d1678cd757e9b4d64736f6c63430008140033",
  "linkReferences": {},
  "deployedLinkReferences": {}
}