{
  "_format": "hh-sol-artifact-1",
  "contractName": "HorizonFujiR",
  "sourceName": "contracts/HorizonFujiR.sol",
  "abi": [
    {
      "inputs": [
        {
          "internalType": "address",
          "name": "_linkToken",
          "type": "address"
        },
        {
          "internalType": "address",
          "name": "_routerCCIP",
          "type": "address"
        }
      ],
      "stateMutability": "nonpayable",
      "type": "constructor"
    },
    {
      "inputs": [
        {
          "internalType": "address",
          "name": "owner",
          "type": "address"
        },
        {
          "internalType": "address",
          "name": "target",
          "type": "address"
        },
        {
          "internalType": "uint256",
          "name": "value",
          "type": "uint256"
        }
      ],
      "name": "FailedToWithdrawEth",
      "type": "error"
    },
    {
      "inputs": [
        {
          "internalType": "address",
          "name": "router",
          "type": "address"
        }
      ],
      "name": "InvalidRouter",
      "type": "error"
    },
    {
      "inputs": [],
      "name": "NothingToWithdraw",
      "type": "error"
    },
    {
      "anonymous": false,
      "inputs": [
        {
          "indexed": false,
          "internalType": "address",
          "name": "provisoryOwner",
          "type": "address"
        },
        {
          "indexed": false,
          "internalType": "uint256",
          "name": "_rwaId",
          "type": "uint256"
        },
        {
          "indexed": false,
          "internalType": "uint256",
          "name": "_titleId",
          "type": "uint256"
        },
        {
          "indexed": false,
          "internalType": "uint256",
          "name": "_drawNumber",
          "type": "uint256"
        }
      ],
      "name": "EnsuranceAdd",
      "type": "event"
    },
    {
      "anonymous": false,
      "inputs": [
        {
          "indexed": true,
          "internalType": "bytes32",
          "name": "messageId",
          "type": "bytes32"
        },
        {
          "indexed": true,
          "internalType": "uint64",
          "name": "sourceChainSelector",
          "type": "uint64"
        },
        {
          "indexed": false,
          "internalType": "address",
          "name": "sender",
          "type": "address"
        },
        {
          "indexed": false,
          "internalType": "string",
          "name": "text",
          "type": "string"
        }
      ],
      "name": "MessageReceived",
      "type": "event"
    },
    {
      "anonymous": false,
      "inputs": [
        {
          "indexed": false,
          "internalType": "uint256",
          "name": "_contractId",
          "type": "uint256"
        },
        {
          "indexed": false,
          "internalType": "uint256",
          "name": "_rwaId",
          "type": "uint256"
        },
        {
          "indexed": false,
          "internalType": "uint256",
          "name": "_rwaValue",
          "type": "uint256"
        }
      ],
      "name": "PriceLowEvent",
      "type": "event"
    },
    {
      "anonymous": false,
      "inputs": [
        {
          "indexed": false,
          "internalType": "uint256",
          "name": "_contractId",
          "type": "uint256"
        },
        {
          "indexed": false,
          "internalType": "uint256",
          "name": "_rwaId",
          "type": "uint256"
        },
        {
          "indexed": false,
          "internalType": "uint256",
          "name": "_rwaValue",
          "type": "uint256"
        }
      ],
      "name": "RWAPriceAtMoment",
      "type": "event"
    },
    {
      "anonymous": false,
      "inputs": [
        {
          "indexed": false,
          "internalType": "uint256",
          "name": "_titleId",
          "type": "uint256"
        },
        {
          "indexed": false,
          "internalType": "uint256",
          "name": "_drawNumber",
          "type": "uint256"
        },
        {
          "indexed": false,
          "internalType": "address",
          "name": "_rwaOwner",
          "type": "address"
        },
        {
          "indexed": false,
          "internalType": "uint256",
          "name": "_colateralId",
          "type": "uint256"
        }
      ],
      "name": "RWARefunded",
      "type": "event"
    },
    {
      "anonymous": false,
      "inputs": [
        {
          "indexed": false,
          "internalType": "bytes32",
          "name": "requestId",
          "type": "bytes32"
        },
        {
          "indexed": false,
          "internalType": "string[]",
          "name": "args",
          "type": "string[]"
        }
      ],
      "name": "RwaValueUpdated",
      "type": "event"
    },
    {
      "anonymous": false,
      "inputs": [
        {
          "indexed": false,
          "internalType": "uint256",
          "name": "_rwaId",
          "type": "uint256"
        },
        {
          "indexed": false,
          "internalType": "uint256",
          "name": "_rwaValue",
          "type": "uint256"
        }
      ],
      "name": "TheRwaValueIsLessThanTheMinimumNeeded",
      "type": "event"
    },
    {
      "anonymous": false,
      "inputs": [
        {
          "indexed": false,
          "internalType": "uint256",
          "name": "_contractId",
          "type": "uint256"
        },
        {
          "indexed": false,
          "internalType": "uint256",
          "name": "_rwaId",
          "type": "uint256"
        },
        {
          "indexed": false,
          "internalType": "uint256",
          "name": "_rwaValue",
          "type": "uint256"
        }
      ],
      "name": "TitleCancelledTheRWAWillBeSold",
      "type": "event"
    },
    {
      "anonymous": false,
      "inputs": [
        {
          "indexed": false,
          "internalType": "uint256",
          "name": "value",
          "type": "uint256"
        }
      ],
      "name": "UpkeepPerformed",
      "type": "event"
    },
    {
      "anonymous": false,
      "inputs": [
        {
          "indexed": false,
          "internalType": "uint256",
          "name": "_rwaId",
          "type": "uint256"
        },
        {
          "indexed": false,
          "internalType": "string[]",
          "name": "args",
          "type": "string[]"
        }
      ],
      "name": "VerifyingRwaValue",
      "type": "event"
    },
    {
      "inputs": [
        {
          "internalType": "uint256",
          "name": "_titleId",
          "type": "uint256"
        },
        {
          "internalType": "uint256",
          "name": "_contractId",
          "type": "uint256"
        },
        {
          "internalType": "uint256",
          "name": "_drawNumber",
          "type": "uint256"
        },
        {
          "internalType": "uint256",
          "name": "_rwaId",
          "type": "uint256"
        }
      ],
      "name": "addCollateral",
      "outputs": [],
      "stateMutability": "nonpayable",
      "type": "function"
    },
    {
      "inputs": [
        {
          "internalType": "address",
          "name": "_receiverAddress",
          "type": "address"
        }
      ],
      "name": "addReceiver",
      "outputs": [],
      "stateMutability": "nonpayable",
      "type": "function"
    },
    {
      "inputs": [
        {
          "internalType": "address",
          "name": "_sender",
          "type": "address"
        }
      ],
      "name": "addSender",
      "outputs": [],
      "stateMutability": "nonpayable",
      "type": "function"
    },
    {
      "inputs": [
        {
          "internalType": "uint64",
          "name": "_sourceChainSelector",
          "type": "uint64"
        }
      ],
      "name": "addSourceChain",
      "outputs": [],
      "stateMutability": "nonpayable",
      "type": "function"
    },
    {
      "inputs": [
        {
          "components": [
            {
              "internalType": "bytes32",
              "name": "messageId",
              "type": "bytes32"
            },
            {
              "internalType": "uint64",
              "name": "sourceChainSelector",
              "type": "uint64"
            },
            {
              "internalType": "bytes",
              "name": "sender",
              "type": "bytes"
            },
            {
              "internalType": "bytes",
              "name": "data",
              "type": "bytes"
            },
            {
              "components": [
                {
                  "internalType": "address",
                  "name": "token",
                  "type": "address"
                },
                {
                  "internalType": "uint256",
                  "name": "amount",
                  "type": "uint256"
                }
              ],
              "internalType": "struct Client.EVMTokenAmount[]",
              "name": "destTokenAmounts",
              "type": "tuple[]"
            }
          ],
          "internalType": "struct Client.Any2EVMMessage",
          "name": "message",
          "type": "tuple"
        }
      ],
      "name": "ccipReceive",
      "outputs": [],
      "stateMutability": "nonpayable",
      "type": "function"
    },
    {
      "inputs": [],
      "name": "checkColateralPrice",
      "outputs": [],
      "stateMutability": "nonpayable",
      "type": "function"
    },
    {
      "inputs": [],
      "name": "getColateralPrice",
      "outputs": [],
      "stateMutability": "nonpayable",
      "type": "function"
    },
    {
      "inputs": [],
      "name": "getLastReceivedMessageDetails",
      "outputs": [
        {
          "internalType": "bytes32",
          "name": "messageId",
          "type": "bytes32"
        },
        {
          "internalType": "bytes",
          "name": "text",
          "type": "bytes"
        }
      ],
      "stateMutability": "view",
      "type": "function"
    },
    {
      "inputs": [],
      "name": "getRouter",
      "outputs": [
        {
          "internalType": "address",
          "name": "",
          "type": "address"
        }
      ],
      "stateMutability": "view",
      "type": "function"
    },
    {
      "inputs": [
        {
          "internalType": "bytes32",
          "name": "",
          "type": "bytes32"
        }
      ],
      "name": "permissionsInfo",
      "outputs": [
        {
          "internalType": "uint256",
          "name": "idTitle",
          "type": "uint256"
        },
        {
          "internalType": "uint256",
          "name": "drawNumber",
          "type": "uint256"
        },
        {
          "internalType": "uint256",
          "name": "contractId",
          "type": "uint256"
        },
        {
          "internalType": "address",
          "name": "rwaOwner",
          "type": "address"
        },
        {
          "internalType": "uint256",
          "name": "ensuranceValueNeeded",
          "type": "uint256"
        },
        {
          "internalType": "uint256",
          "name": "ensureValueNow",
          "type": "uint256"
        },
        {
          "internalType": "uint256",
          "name": "colateralId",
          "type": "uint256"
        },
        {
          "internalType": "bytes32",
          "name": "lastRequestId",
          "type": "bytes32"
        },
        {
          "internalType": "uint256",
          "name": "lastRequestTime",
          "type": "uint256"
        },
        {
          "internalType": "uint256",
          "name": "lastResponseTime",
          "type": "uint256"
        },
        {
          "internalType": "bool",
          "name": "colateralLocked",
          "type": "bool"
        },
        {
          "internalType": "bool",
          "name": "isPermission",
          "type": "bool"
        }
      ],
      "stateMutability": "view",
      "type": "function"
    },
    {
      "inputs": [
        {
          "internalType": "address",
          "name": "_sender",
          "type": "address"
        }
      ],
      "name": "removeSender",
      "outputs": [],
      "stateMutability": "nonpayable",
      "type": "function"
    },
    {
      "inputs": [
        {
          "internalType": "uint64",
          "name": "_sourceChainSelector",
          "type": "uint64"
        }
      ],
      "name": "removelistSourceChain",
      "outputs": [],
      "stateMutability": "nonpayable",
      "type": "function"
    },
    {
      "inputs": [
        {
          "internalType": "uint256",
          "name": "",
          "type": "uint256"
        }
      ],
      "name": "rwaMonitors",
      "outputs": [
        {
          "internalType": "uint256",
          "name": "rwaId",
          "type": "uint256"
        },
        {
          "internalType": "bytes32",
          "name": "hashPermission",
          "type": "bytes32"
        },
        {
          "internalType": "bytes32",
          "name": "lastRequestId",
          "type": "bytes32"
        },
        {
          "internalType": "bool",
          "name": "isActive",
          "type": "bool"
        }
      ],
      "stateMutability": "view",
      "type": "function"
    },
    {
      "inputs": [
        {
          "internalType": "bytes4",
          "name": "interfaceId",
          "type": "bytes4"
        }
      ],
      "name": "supportsInterface",
      "outputs": [
        {
          "internalType": "bool",
          "name": "",
          "type": "bool"
        }
      ],
      "stateMutability": "pure",
      "type": "function"
    },
    {
      "inputs": [
        {
          "internalType": "uint256",
          "name": "_titleId",
          "type": "uint256"
        },
        {
          "internalType": "uint256",
          "name": "_contractId",
          "type": "uint256"
        },
        {
          "internalType": "uint256",
          "name": "_drawNumber",
          "type": "uint256"
        },
        {
          "internalType": "uint256",
          "name": "_rwaId",
          "type": "uint256"
        },
        {
          "internalType": "string[]",
          "name": "args",
          "type": "string[]"
        }
      ],
      "name": "verifyColateralValue",
      "outputs": [],
      "stateMutability": "nonpayable",
      "type": "function"
    },
    {
      "inputs": [
        {
          "internalType": "address",
          "name": "",
          "type": "address"
        }
      ],
      "name": "whitelistedSenders",
      "outputs": [
        {
          "internalType": "bool",
          "name": "",
          "type": "bool"
        }
      ],
      "stateMutability": "view",
      "type": "function"
    },
    {
      "inputs": [
        {
          "internalType": "uint64",
          "name": "",
          "type": "uint64"
        }
      ],
      "name": "whitelistedSourceChains",
      "outputs": [
        {
          "internalType": "bool",
          "name": "",
          "type": "bool"
        }
      ],
      "stateMutability": "view",
      "type": "function"
    },
    {
      "inputs": [
        {
          "internalType": "address",
          "name": "_beneficiary",
          "type": "address"
        }
      ],
      "name": "withdraw",
      "outputs": [],
      "stateMutability": "nonpayable",
      "type": "function"
    },
    {
      "inputs": [
        {
          "internalType": "address",
          "name": "_beneficiary",
          "type": "address"
        },
        {
          "internalType": "address",
          "name": "_token",
          "type": "address"
        }
      ],
      "name": "withdrawToken",
      "outputs": [],
      "stateMutability": "nonpayable",
      "type": "function"
    },
    {
      "stateMutability": "payable",
      "type": "receive"
    }
  ],
  "bytecode": "0x60a0346200011557601f6200256138819003918201601f19168301916001600160401b038311848410176200011a57808492604094855283398101031262000115576200005a6020620000528362000130565b920162000130565b6001600160a01b039080821615620000fc5760805260018060a01b0319917314c9188071620abcd778a20f5b344c515ab9c0f983600a541617600a5573317383204e6406b61258cb53d535ae770b7a984f83600b541617600b5573d7ecf0bbe82717ead041eef0b9e777e1a7d577a083600c541617600c551690600554161760055560405161241b908162000146823960805181818161030a0152610f7b0152f35b6040516335fdcccd60e21b815260006004820152602490fd5b600080fd5b634e487b7160e01b600052604160045260246000fd5b51906001600160a01b0382168203620001155756fe608080604052600436101561001d575b50361561001b57600080fd5b005b600090813560e01c90816301ffc9a714611d9057508063263596a514611d46578063272efc6914611d075780632a26a35314611a6f5780633aeac4e11461197457806351cff8d9146118d157806369d83ed1146118985780637dc91a021461185b57806385572ffb14610f475780639150672014610e0457806392365ce4146109df57806395871c8f14610339578063b0f479a1146102f4578063b2f87643146102bb578063b697f5311461027f578063c5ec1c7a14610243578063c82240bb146101e7578063e9982c39146101325763ff46ed530361000f573461012f57602036600319011261012f576001600160401b03610118611e43565b168152600860205260408120805460ff1916905580f35b80fd5b503461012f57602036600319011261012f57604061018091600435815260076020522060ff815491600181015490600281015460018060a01b0360038301541660048301546005840154600685015491600886015493600987015495600b600a890154980154986040519b8c5260208c015260408b015260608a0152608089015260a088015260c087015260e0860152610100850152610120840152818116151561014084015260081c161515610160820152f35b503461012f57602036600319011261012f576004359060065482101561012f57608061021283611e59565b5080549060018101549060ff6004600383015492015416916040519384526020840152604083015215156060820152f35b503461012f57602036600319011261012f576001600160401b03610265611e43565b168152600860205260408120805460ff1916600117905580f35b503461012f57602036600319011261012f576001600160a01b036102a1611e2d565b168152600960205260408120805460ff1916600117905580f35b503461012f57602036600319011261012f576001600160a01b036102dd611e2d565b168152600960205260408120805460ff1916905580f35b503461012f578060031936011261012f576040517f00000000000000000000000000000000000000000000000000000000000000006001600160a01b03168152602090f35b503461012f57608036600319011261012f576040516020810190610387816103796044356024356004358791606093918352602083015260408201520190565b03601f198101835282611ed8565b5190208082526007602052604082209060088201546103b4600160ff600b86015460081c1615151461220d565b600b54604080516364b975db60e11b8152600481019390935290829060249082906001600160a01b03165afa90811561069057849085926109ad575b5081156109555760048401549182821180156108da571561089f57816005860155600a8501551061082457600c5483906001600160a01b0316803b15610820576040516323b872dd60e01b8152336004820152306024820152606480356044830152909183918391829084905af18015610815576107fd575b5050600c546040516331a9108f60e11b815260643560048201529290602090849060249082906001600160a01b03165afa9283156106905784936107cc575b506104cc6007604051926104bb84611eaa565b60643584528460208501520161228e565b604082015283606082015260016080820152600654600160401b8110156107b8578060016104fd9201600655611e59565b9190916107a457805182556020810151600183015560028201604082015190602082519261052b84846120e4565b019087526020872087915b8383106106b15750505050906004608083606061056b95015160038501550151151591019060ff801983541691151516179055565b60018060a01b03600c54166040519160208301526040820152606435606082015260608152608081018181106001600160401b0382111761069b576040819052600a54600254630a30e37760e41b835267adecc60412ce25a560848501526001600160a01b0390811660a4850152606060c48501526020918391168187607f19876105f960e4820182611e08565b0301925af180156106905761065c575b5050604080516001600160a01b03909216825260643560208301526004359082015260443560608201527f93bffd1bde7afe8c47a27012597f0dc2c5ccea5fc1323d424e13c21065d594e890608090a180f35b9060209182903d8411610688575b8161067491611ed8565b81010312610683573880610609565b600080fd5b3d915061066a565b6040513d86823e3d90fd5b634e487b7160e01b600052604160045260246000fd5b80518051906001600160401b038211610790576106d8826106d28654611fa9565b86611ffa565b6020908b601f841160011461072357928060209360019693879692610718575b5050600019600383901b1c191690841b1785555b01920192019190610536565b0151905038806106f8565b85905260208c2091908c5b601f1985168110610778575083602093600196938796938794601f1981161061075f575b505050811b01855561070c565b015160001960f88460031b161c19169055388080610752565b9192602060018192868501518155019401920161072e565b634e487b7160e01b8b52604160045260248bfd5b634e487b7160e01b85526004859052602485fd5b634e487b7160e01b85526041600452602485fd5b6107ef91935060203d6020116107f6575b6107e78183611ed8565b810190612259565b91386104a8565b503d6107dd565b61080690611ec5565b610811578238610469565b8280fd5b6040513d84823e3d90fd5b5080fd5b60405162461bcd60e51b815260206004820152604760248201527f54686520656e737572616e6365206d7573742068617665206174206c6561737460448201527f20352074696d6573207468652076616c7565206f66207468652076616c7565206064820152666e65656465642160c81b608482015260a490fd5b5090507f90d31678ec129d3863be095922ef7b97386bcca9b61e15d2d53347cddceeb0a792506040809250519060643582526020820152a180f35b60405162461bcd60e51b815260206004820152604760248201527f5468652076616c7565206f662074686520525741206e6565647320746f20626560448201527f2067726561746572207468616e2074686520656e737572616e636556616c75656064820152664e65656465642160c81b608482015260a490fd5b60405162461bcd60e51b815260206004820152602a60248201527f596f75206d75737420776169742074686520726573706f6e736520746f2062656044820152692072656365697665642160b01b6064820152608490fd5b90506109d1915060403d6040116109d8575b6109c98183611ed8565b810190612278565b90386103f0565b503d6109bf565b503461012f5760a036600319011261012f576001600160401b036084351161012f5736602360843501121561012f576001600160401b03608435600401351161012f573660246084356004013560051b60843501011161012f576040516020810190610a67816103796044356024356004358791606093918352602083015260408201520190565b51902060018060a01b03600b54169060206040518093634c8f60a360e01b8252826004830152818681610aa96024820160843560040135602460843501612174565b03925af1918215610df9578392610dc5575b508083526007602052610adf600160ff600b60408720015460081c1615151461220d565b600c546040516331a9108f60e11b8152606435600482015290602090829060249082906001600160a01b03165afa908115610690578491610da6575b506001600160a01b03163303610d4e57825260076020526040822060043581556024356002820155604435600182015560038101336001600160601b0360a01b8254161790556064356006820155610b7c60843560040135600783016120e4565b60078101835260208320836084356024015b608435600401358210610bf257505050600801557fcc6833fd9787745c083edfcc3ae70e4cd35ab78cf84f127388a790fd6ed17fbb60405160643581526040602082015280610bec6040820160843560040135602460843501612174565b0390a180f35b8035608435360360421901811215610d4a576001600160401b0360248260843501013511610d4a57608435810160248101353603604490910113610d4a57610c466024826084350101356106d28654611fa9565b86601f60248360843501013511600114610cb05760019283926020928a90602483608435010135610c9e575b5060001960843590920160240135600381901b9290921c191690841b1786555b01930191019091610b8e565b60449150826084350101013538610c72565b8488526020882090885b608435840160240135601f19168110610d2b5750600193849360209391928592602492916084358301840135601f19811610610d03575b5050608435010135811b018655610c92565b604460001960f8868660843501013560031b161c199184608435010101351690553880610cf1565b9091602060018192604486886084350101013581550193019101610cba565b8680fd5b60405162461bcd60e51b815260206004820152602a60248201527f596f75206d75737420626520746865206f776e6572206f662074686520696e666044820152696f726d6564205257412160b01b6064820152608490fd5b610dbf915060203d6020116107f6576107e78183611ed8565b38610b1b565b9091506020813d602011610df1575b81610de160209383611ed8565b8101031261068357519038610abb565b3d9150610dd4565b6040513d85823e3d90fd5b503461012f578060031936011261012f57805b600654811015610f4357600160ff6004610e3084611e59565b50015416151514610e4a575b610e459061236b565b610e17565b610e5f6002610e5883611e59565b500161228e565b600b54604051634c8f60a360e01b815260206004820181905293929091849083906001600160a01b0316818881610e996024820188612390565b03925af1918215610f38578592610f05575b509281610efb610e45957f7f8c15ff47c06a016904047397e8933a03676bbe860121d4070b33d7608cc848946003610ee288611e59565b5001556040805194859485528401526040830190612390565b0390a19050610e3c565b9150928082813d8311610f31575b610f1d8183611ed8565b810103126106835790519092610e45610eab565b503d610f13565b6040513d87823e3d90fd5b5080f35b503461012f576003199060203683011261012f57600435916001600160401b0383116108205760a090833603011261012f577f00000000000000000000000000000000000000000000000000000000000000006001600160a01b031633036118435760405191610fb683611eaa565b8060040135835260248101356001600160401b038116810361081157602084015260448101356001600160401b03811161081157610ffa9060043691840101611f14565b604084015260648101356001600160401b038111610811576110229060043691840101611f14565b60608401526084810135906001600160401b03821161081157013660238201121561082057600481013561105581611f5b565b916110636040519384611ed8565b8183526024602084019260061b820101903682116113e457602401915b8183106117ef5750505060808301528151815560608201518051810190602081818401930312610811576020810151906001600160401b0382116117eb570181603f820112156108115760208101516110dc9291604001611f72565b9182516001600160401b0381116117d7576110f8600154611fa9565b601f811161177e575b506020601f82116001146116fd578394829394926116f2575b50508160011b916000199060031b1c1916176001555b6040516111478161114081612034565b0382611ed8565b60608180518101031261081157602081015161116a6060604084015193016120d7565b6040518060208101106001600160401b036020830111176116de5760208101604052858152836005810204600514841517156116ca5760405193846101a08101106001600160401b036101a0870111176116b6576005906101a086016040528786528760208701528760408701528760608701520260808501528560a08501528560c085015260e084015284610100840152846101208401528461014084015280151561016084015260016101808401526001811515146000146114d5575083526007602052604083208151815560208201516001820155604082015160028201556003810160018060a01b036060840151166001600160601b0360a01b8254161790556080820151600482015560a0820151600582015560c082015160068201556007810160e08301519060208251926112a584846120e4565b019086526020862086915b8383106113e85750505050600b6101809161010084015160088201556101208401516009820155610140840151600a82015501916113016101608201511515849060ff801983541691151516179055565b0151815461ff00191690151560081b61ff00161790555b80516001600160401b036020830151169160408101516020818051810103126113e457602001516001600160a01b03811691908290036113e457606001519081518201916020818185019403126113e0576020810151906001600160401b038211610d4a570182603f820112156113e0577fb1e312a29937cc11967b0e4a346fef1ae132424ebaba9dc6d90249dba053e87c9281604060206113bd9401519101611f72565b906113da6040519283928352604060208401526040830190611e08565b0390a380f35b8580fd5b8480fd5b80518051906001600160401b0382116114c157611409826106d28654611fa9565b6020908a601f841160011461145457928060209360019693879692611449575b5050600019600383901b1c191690841b1785555b019201920191906112b0565b015190503880611429565b85905260208b2091908b5b601f19851681106114a9575083602093600196938796938794601f19811610611490575b505050811b01855561143d565b015160001960f88460031b161c19169055388080611483565b9192602060018192868501518155019401920161145f565b634e487b7160e01b8a52604160045260248afd5b909150156114e4575b50611318565b8083526007602052600160ff600b60408620015460081c161515036116715780835260076020526040832091835b82600161151e83611e59565b50015414611562578083600161153661154394611e59565b500154146115485761236b565b611512565b600461155382611e59565b5001805460ff1916905561236b565b50600c5460038401805460068601805494969550919391926001600160a01b03918216928892909116803b1561081157604051632142170760e11b81523060048201526001600160a01b0394909416602485015260448401919091528290606490829084905af180156116665761162c575b50916080917fe9c6e81492bc93fe089982a07565c4a3a6e0c968c5c00b0cd69a8dac9bf37b4993600183549301549160018060a01b03905416905491604051938452602084015260408301526060820152a1386114de565b917fe9c6e81492bc93fe089982a07565c4a3a6e0c968c5c00b0cd69a8dac9bf37b4993919561165c608094611ec5565b95919350916115d4565b6040513d88823e3d90fd5b60405162461bcd60e51b815260206004820152601d60248201527f54686973207065726d697373696f6e206469646e7420657869737473210000006044820152606490fd5b634e487b7160e01b87526041600452602487fd5b634e487b7160e01b86526011600452602486fd5b634e487b7160e01b86526041600452602486fd5b01519050388061111a565b600184527fb10e2d527612073b26eecdfd717e6a320cf44b4afac2b0732d9fcbe2b7fa0cf690601f198316855b8181106117665750958360019596971061174d575b505050811b01600155611130565b015160001960f88460031b161c1916905538808061173f565b9192602060018192868b01518155019401920161172a565b6117c790600185527fb10e2d527612073b26eecdfd717e6a320cf44b4afac2b0732d9fcbe2b7fa0cf6601f840160051c810191602085106117cd575b601f0160051c0190611fe3565b38611101565b90915081906117ba565b634e487b7160e01b83526041600452602483fd5b8380fd5b6040833603126113e457604051604081018181106001600160401b038211176116b65760405283356001600160a01b0381168103610d4a579181604093602093528286013583820152815201920191611080565b6040516335fdcccd60e21b8152336004820152602490fd5b503461012f57602036600319011261012f5760ff60406020926001600160401b03611884611e43565b168152600884522054166040519015158152f35b503461012f57602036600319011261012f576001600160a01b036118ba611e2d565b166001600160601b0360a01b600254161760025580f35b503461012f57602036600319011261012f576118eb611e2d565b47908115611962578280808085855af13d1561195d573d61190b81611ef9565b906119196040519283611ed8565b81528460203d92013e5b1561192c578280f35b604051639d11f56360e01b81523360048201526001600160a01b039190911660248201526044810191909152606490fd5b611923565b604051630686827b60e51b8152600490fd5b503461012f57604036600319011261012f5761198e611e2d565b6001600160a01b039060243582811691908290036117eb576040516370a0823160e01b8152306004820152926020928385602481845afa948515611666578695611a40575b50841561196257839286604492604051978895869463a9059cbb60e01b865216600485015260248401525af18015610df957611a0d578280f35b81813d8311611a39575b611a218183611ed8565b8101031261082057611a32906120d7565b5038808280f35b503d611a17565b9094508381813d8311611a68575b611a588183611ed8565b810103126113e0575193386119d3565b503d611a4e565b503461012f578060031936011261012f57805b600654811015610f43579081611a99600493611e59565b5060ff6001948592015416151514611abc575b611ab791925061236b565b611a82565b6003611ac782611e59565b500154600b54604080516364b975db60e11b81526004810193909352602492918290849082906001600160a01b03165afa9182156106905784918593611ce4575b5085611b1385611e59565b5001548552600760205260408520956005938385890155600a880155611b3885611e59565b50549360048801549080820282159183820414821715611cd1578510611bb55750505050907ff7b2a02710587555e8088cb5d6a5e52b1468ddc5b8c44e8ec467726812208edf91611ba96002611ab79697015491604051938493846040919493926060820195825260208201520152565b0390a15b829150611aac565b6002989293989382851b838104600414831715611cbe578610611c1c57505050015460408051918252602082019390935291820152919250611ab7917f17c27c1a1d8499a9f8ed78294056bfb908efabe86085655ffdd026928ecb674790606090a1611bad565b8290969594961b91820486141715611cab57611ab79697508210611c44575b50505050611bad565b7f9828062d5a194b52d5bc47302cbc7c1d9f19ecac0d17c48feb100d0cf396ad0d93611c9f916004611c7588611e59565b500160ff198154169055015491604051938493846040919493926060820195825260208201520152565b0390a138808080611c3b565b634e487b7160e01b875260116004528787fd5b634e487b7160e01b8a5260116004528a8afd5b634e487b7160e01b895260116004528489fd5b909250611d00915060403d6040116109d8576109c98183611ed8565b9138611b08565b503461012f57602036600319011261012f5760209060ff906040906001600160a01b03611d32611e2d565b168152600984522054166040519015158152f35b503461012f578060031936011261012f575460405190611d7082611d6981612034565b0383611ed8565b611d8c6040519283928352604060208401526040830190611e08565b0390f35b9050346108205760203660031901126108205760043563ffffffff60e01b811680910361081157602092506385572ffb60e01b8114908115611dd4575b5015158152f35b6301ffc9a760e01b14905038611dcd565b60005b838110611df85750506000910152565b8181015183820152602001611de8565b90602091611e2181518092818552858086019101611de5565b601f01601f1916010190565b600435906001600160a01b038216820361068357565b600435906001600160401b038216820361068357565b600654811015611e94576005906006600052027ff652222313e28459528d920b65115c16c04f3efc82aaedc97be59f3f377c0d3f0190600090565b634e487b7160e01b600052603260045260246000fd5b60a081019081106001600160401b0382111761069b57604052565b6001600160401b03811161069b57604052565b90601f801991011681019081106001600160401b0382111761069b57604052565b6001600160401b03811161069b57601f01601f191660200190565b81601f8201121561068357803590611f2b82611ef9565b92611f396040519485611ed8565b8284526020838301011161068357816000926020809301838601378301015290565b6001600160401b03811161069b5760051b60200190565b90929192611f7f81611ef9565b91611f8d6040519384611ed8565b829482845282820111610683576020611fa7930190611de5565b565b90600182811c92168015611fd9575b6020831014611fc357565b634e487b7160e01b600052602260045260246000fd5b91607f1691611fb8565b818110611fee575050565b60008155600101611fe3565b9190601f811161200957505050565b611fa7926000526020600020906020601f840160051c830193106117cd57601f0160051c0190611fe3565b9060009160019081549161204783611fa9565b808352928181169081156120ba575060011461206257505050565b80929394506000527fb10e2d527612073b26eecdfd717e6a320cf44b4afac2b0732d9fcbe2b7fa0cf6916000925b8484106120a257505060209250010190565b80546020858501810191909152909301928101612090565b915050602093945060ff929192191683830152151560051b010190565b5190811515820361068357565b600160401b821161069b5780549180825582811061210157505050565b600091825260209081832093840193015b83811061211f5750505050565b808361212d60019354611fa9565b8061213b575b505001612112565b601f808211851461215257505081555b8338612133565b61216b90848452868420920160051c8201858301611fe3565b8183555561214b565b8183526020600583901b84018101939192906000818401855b84831061219e575050505050505090565b90919293949596601f19808883030184528835601e198436030181121561068357830186810190356001600160401b03811161068357803603821361068357838893601f83808796879660019a528686013760008582860101520116010199019301930191959493929061218d565b1561221457565b60405162461bcd60e51b815260206004820152601e60248201527f54686973207065726d697373696f6e206469646e2774206578697374732100006044820152606490fd5b9081602091031261068357516001600160a01b03811681036106835790565b9190826040910312610683576020825192015190565b9081549161229b83611f5b565b926040916122ab83519586611ed8565b81855260009081526020808220938291908188015b8584106122d05750505050505050565b81518386928954926122e184611fa9565b80825260019480861690811561234f5750600114612317575b50612309816001960382611ed8565b8152019701930192956122c0565b8b8a52838a20955089905b80821061233857508101830194506123096122fa565b865483830186015295850195889490910190612322565b60ff19168584015250151560051b8101830194506123096122fa565b600019811461237a5760010190565b634e487b7160e01b600052601160045260246000fd5b90815180825260208092019182818360051b82019501936000915b8483106123bb5750505050505090565b90919293949584806123d583856001950387528a51611e08565b98019301930191949392906123ab56fea2646970667358221220915c75af293fad525068d901f7ddd7dc73f20d2498f97b5c1a6c770bf8df00d164736f6c63430008140033",
  "linkReferences": {},
  "deployedLinkReferences": {}
}