{
  "_format": "hh-sol-artifact-1",
  "contractName": "HorizonFujiR",
  "sourceName": "contracts/HorizonFujiR.sol",
  "abi": [
    {
      "inputs": [
        {
          "internalType": "address",
          "name": "_linkToken",
          "type": "address"
        },
        {
          "internalType": "address",
          "name": "_routerCCIP",
          "type": "address"
        }
      ],
      "stateMutability": "nonpayable",
      "type": "constructor"
    },
    {
      "inputs": [
        {
          "internalType": "address",
          "name": "owner",
          "type": "address"
        },
        {
          "internalType": "address",
          "name": "target",
          "type": "address"
        },
        {
          "internalType": "uint256",
          "name": "value",
          "type": "uint256"
        }
      ],
      "name": "FailedToWithdrawEth",
      "type": "error"
    },
    {
      "inputs": [
        {
          "internalType": "address",
          "name": "router",
          "type": "address"
        }
      ],
      "name": "InvalidRouter",
      "type": "error"
    },
    {
      "inputs": [],
      "name": "NothingToWithdraw",
      "type": "error"
    },
    {
      "anonymous": false,
      "inputs": [
        {
          "indexed": false,
          "internalType": "address",
          "name": "provisoryOwner",
          "type": "address"
        },
        {
          "indexed": false,
          "internalType": "uint256",
          "name": "_rwaId",
          "type": "uint256"
        },
        {
          "indexed": false,
          "internalType": "uint256",
          "name": "_titleId",
          "type": "uint256"
        },
        {
          "indexed": false,
          "internalType": "uint256",
          "name": "_drawNumber",
          "type": "uint256"
        }
      ],
      "name": "EnsuranceAdd",
      "type": "event"
    },
    {
      "anonymous": false,
      "inputs": [
        {
          "indexed": true,
          "internalType": "bytes32",
          "name": "messageId",
          "type": "bytes32"
        },
        {
          "indexed": true,
          "internalType": "uint64",
          "name": "sourceChainSelector",
          "type": "uint64"
        },
        {
          "indexed": false,
          "internalType": "address",
          "name": "sender",
          "type": "address"
        },
        {
          "indexed": false,
          "internalType": "string",
          "name": "text",
          "type": "string"
        }
      ],
      "name": "MessageReceived",
      "type": "event"
    },
    {
      "anonymous": false,
      "inputs": [
        {
          "indexed": false,
          "internalType": "uint256",
          "name": "_contractId",
          "type": "uint256"
        },
        {
          "indexed": false,
          "internalType": "uint256",
          "name": "_rwaValue",
          "type": "uint256"
        },
        {
          "indexed": false,
          "internalType": "uint256",
          "name": "_referenceValue",
          "type": "uint256"
        }
      ],
      "name": "PriceLowEvent",
      "type": "event"
    },
    {
      "anonymous": false,
      "inputs": [
        {
          "indexed": false,
          "internalType": "uint256",
          "name": "_contractId",
          "type": "uint256"
        },
        {
          "indexed": false,
          "internalType": "uint256",
          "name": "_rwaValue",
          "type": "uint256"
        },
        {
          "indexed": false,
          "internalType": "uint256",
          "name": "_referenceValue",
          "type": "uint256"
        }
      ],
      "name": "RWAPriceAtMoment",
      "type": "event"
    },
    {
      "anonymous": false,
      "inputs": [
        {
          "indexed": false,
          "internalType": "uint256",
          "name": "_titleId",
          "type": "uint256"
        },
        {
          "indexed": false,
          "internalType": "uint256",
          "name": "_drawNumber",
          "type": "uint256"
        },
        {
          "indexed": false,
          "internalType": "address",
          "name": "_rwaOwner",
          "type": "address"
        },
        {
          "indexed": false,
          "internalType": "uint256",
          "name": "_colateralId",
          "type": "uint256"
        }
      ],
      "name": "RWARefunded",
      "type": "event"
    },
    {
      "anonymous": false,
      "inputs": [
        {
          "indexed": false,
          "internalType": "uint256",
          "name": "_rwaId",
          "type": "uint256"
        },
        {
          "indexed": false,
          "internalType": "uint256",
          "name": "_rwaValue",
          "type": "uint256"
        }
      ],
      "name": "TheRwaValueIsLessThanTheMinimumNeeded",
      "type": "event"
    },
    {
      "anonymous": false,
      "inputs": [
        {
          "indexed": false,
          "internalType": "uint256",
          "name": "_contractId",
          "type": "uint256"
        },
        {
          "indexed": false,
          "internalType": "uint256",
          "name": "_rwaValue",
          "type": "uint256"
        },
        {
          "indexed": false,
          "internalType": "uint256",
          "name": "rwaValue",
          "type": "uint256"
        }
      ],
      "name": "TitleCancelledTheRWAWillBeSold",
      "type": "event"
    },
    {
      "anonymous": false,
      "inputs": [
        {
          "indexed": false,
          "internalType": "uint256",
          "name": "_rwaId",
          "type": "uint256"
        },
        {
          "indexed": false,
          "internalType": "string[]",
          "name": "args",
          "type": "string[]"
        }
      ],
      "name": "VerifyingRwaValue",
      "type": "event"
    },
    {
      "inputs": [
        {
          "internalType": "uint256",
          "name": "_titleId",
          "type": "uint256"
        },
        {
          "internalType": "uint256",
          "name": "_contractId",
          "type": "uint256"
        },
        {
          "internalType": "uint256",
          "name": "_drawNumber",
          "type": "uint256"
        },
        {
          "internalType": "uint256",
          "name": "_rwaId",
          "type": "uint256"
        }
      ],
      "name": "addCollateral",
      "outputs": [],
      "stateMutability": "nonpayable",
      "type": "function"
    },
    {
      "inputs": [
        {
          "internalType": "address",
          "name": "_receiverAddress",
          "type": "address"
        }
      ],
      "name": "addReceiver",
      "outputs": [],
      "stateMutability": "nonpayable",
      "type": "function"
    },
    {
      "inputs": [
        {
          "internalType": "address",
          "name": "_sender",
          "type": "address"
        }
      ],
      "name": "addSender",
      "outputs": [],
      "stateMutability": "nonpayable",
      "type": "function"
    },
    {
      "inputs": [
        {
          "internalType": "uint64",
          "name": "_sourceChainSelector",
          "type": "uint64"
        }
      ],
      "name": "addSourceChain",
      "outputs": [],
      "stateMutability": "nonpayable",
      "type": "function"
    },
    {
      "inputs": [
        {
          "components": [
            {
              "internalType": "bytes32",
              "name": "messageId",
              "type": "bytes32"
            },
            {
              "internalType": "uint64",
              "name": "sourceChainSelector",
              "type": "uint64"
            },
            {
              "internalType": "bytes",
              "name": "sender",
              "type": "bytes"
            },
            {
              "internalType": "bytes",
              "name": "data",
              "type": "bytes"
            },
            {
              "components": [
                {
                  "internalType": "address",
                  "name": "token",
                  "type": "address"
                },
                {
                  "internalType": "uint256",
                  "name": "amount",
                  "type": "uint256"
                }
              ],
              "internalType": "struct Client.EVMTokenAmount[]",
              "name": "destTokenAmounts",
              "type": "tuple[]"
            }
          ],
          "internalType": "struct Client.Any2EVMMessage",
          "name": "message",
          "type": "tuple"
        }
      ],
      "name": "ccipReceive",
      "outputs": [],
      "stateMutability": "nonpayable",
      "type": "function"
    },
    {
      "inputs": [],
      "name": "getLastReceivedMessageDetails",
      "outputs": [
        {
          "internalType": "bytes32",
          "name": "messageId",
          "type": "bytes32"
        },
        {
          "internalType": "bytes",
          "name": "text",
          "type": "bytes"
        }
      ],
      "stateMutability": "view",
      "type": "function"
    },
    {
      "inputs": [],
      "name": "getRouter",
      "outputs": [
        {
          "internalType": "address",
          "name": "",
          "type": "address"
        }
      ],
      "stateMutability": "view",
      "type": "function"
    },
    {
      "inputs": [
        {
          "internalType": "bytes32",
          "name": "",
          "type": "bytes32"
        }
      ],
      "name": "permissionsInfo",
      "outputs": [
        {
          "internalType": "uint256",
          "name": "idTitle",
          "type": "uint256"
        },
        {
          "internalType": "uint256",
          "name": "drawNumber",
          "type": "uint256"
        },
        {
          "internalType": "uint256",
          "name": "contractId",
          "type": "uint256"
        },
        {
          "internalType": "address",
          "name": "rwaOwner",
          "type": "address"
        },
        {
          "internalType": "uint256",
          "name": "ensuranceValueNeeded",
          "type": "uint256"
        },
        {
          "internalType": "uint256",
          "name": "ensureValueNow",
          "type": "uint256"
        },
        {
          "internalType": "uint256",
          "name": "colateralId",
          "type": "uint256"
        },
        {
          "internalType": "bytes32",
          "name": "lastRequestId",
          "type": "bytes32"
        },
        {
          "internalType": "uint256",
          "name": "lastRequestTime",
          "type": "uint256"
        },
        {
          "internalType": "uint256",
          "name": "lastResponseTime",
          "type": "uint256"
        },
        {
          "internalType": "bool",
          "name": "colateralLocked",
          "type": "bool"
        },
        {
          "internalType": "bool",
          "name": "isPermission",
          "type": "bool"
        }
      ],
      "stateMutability": "view",
      "type": "function"
    },
    {
      "inputs": [
        {
          "internalType": "address",
          "name": "_sender",
          "type": "address"
        }
      ],
      "name": "removeSender",
      "outputs": [],
      "stateMutability": "nonpayable",
      "type": "function"
    },
    {
      "inputs": [
        {
          "internalType": "uint64",
          "name": "_sourceChainSelector",
          "type": "uint64"
        }
      ],
      "name": "removelistSourceChain",
      "outputs": [],
      "stateMutability": "nonpayable",
      "type": "function"
    },
    {
      "inputs": [
        {
          "internalType": "bytes4",
          "name": "interfaceId",
          "type": "bytes4"
        }
      ],
      "name": "supportsInterface",
      "outputs": [
        {
          "internalType": "bool",
          "name": "",
          "type": "bool"
        }
      ],
      "stateMutability": "pure",
      "type": "function"
    },
    {
      "inputs": [
        {
          "internalType": "uint256",
          "name": "_titleId",
          "type": "uint256"
        },
        {
          "internalType": "uint256",
          "name": "_contractId",
          "type": "uint256"
        },
        {
          "internalType": "uint256",
          "name": "_drawNumber",
          "type": "uint256"
        },
        {
          "internalType": "uint256",
          "name": "_rwaId",
          "type": "uint256"
        },
        {
          "internalType": "string[]",
          "name": "args",
          "type": "string[]"
        }
      ],
      "name": "verifyColateralValue",
      "outputs": [],
      "stateMutability": "nonpayable",
      "type": "function"
    },
    {
      "inputs": [
        {
          "internalType": "address",
          "name": "",
          "type": "address"
        }
      ],
      "name": "whitelistedSenders",
      "outputs": [
        {
          "internalType": "bool",
          "name": "",
          "type": "bool"
        }
      ],
      "stateMutability": "view",
      "type": "function"
    },
    {
      "inputs": [
        {
          "internalType": "uint64",
          "name": "",
          "type": "uint64"
        }
      ],
      "name": "whitelistedSourceChains",
      "outputs": [
        {
          "internalType": "bool",
          "name": "",
          "type": "bool"
        }
      ],
      "stateMutability": "view",
      "type": "function"
    },
    {
      "inputs": [
        {
          "internalType": "address",
          "name": "_beneficiary",
          "type": "address"
        }
      ],
      "name": "withdraw",
      "outputs": [],
      "stateMutability": "nonpayable",
      "type": "function"
    },
    {
      "inputs": [
        {
          "internalType": "address",
          "name": "_beneficiary",
          "type": "address"
        },
        {
          "internalType": "address",
          "name": "_token",
          "type": "address"
        }
      ],
      "name": "withdrawToken",
      "outputs": [],
      "stateMutability": "nonpayable",
      "type": "function"
    },
    {
      "stateMutability": "payable",
      "type": "receive"
    }
  ],
  "bytecode": "0x60a034620000e057601f62001da138819003918201601f19168301916001600160401b03831184841017620000e5578084926040948552833981010312620000e057602081620000536200005b93620000fb565b5001620000fb565b6001600160a01b03811615620000c757608052735fa769922a6428758fb44453815e2c436c57c3c760018060a01b03198181600a541617600a558181600b541617600b55600c541617600c55604051611c90908162000111823960805181818161028d0152610bd80152f35b6040516335fdcccd60e21b815260006004820152602490fd5b600080fd5b634e487b7160e01b600052604160045260246000fd5b51906001600160a01b0382168203620000e05756fe608080604052600436101561001d575b50361561001b57600080fd5b005b600090813560e01c90816301ffc9a71461177857508063263596a51461173d578063272efc69146116fe5780633aeac4e11461160357806351cff8d91461156057806369d83ed1146115275780637dc91a02146114ea57806385572ffb14610ba457806392365ce41461074357806395871c8f146102bc578063b0f479a114610277578063b2f876431461023e578063b697f53114610202578063c5ec1c7a146101c6578063e9982c39146101115763ff46ed530361000f573461010e57602036600319011261010e576001600160401b036100f761182b565b168152600860205260408120805460ff1916905580f35b80fd5b503461010e57602036600319011261010e57604061018091600435815260076020522060ff815491600181015490600281015460018060a01b0360038301541660048301546005840154600685015491600886015493600987015495600b600a890154980154986040519b8c5260208c015260408b015260608a0152608089015260a088015260c087015260e0860152610100850152610120840152818116151561014084015260081c161515610160820152f35b503461010e57602036600319011261010e576001600160401b036101e861182b565b168152600860205260408120805460ff1916600117905580f35b503461010e57602036600319011261010e576001600160a01b03610224611815565b168152600960205260408120805460ff1916600117905580f35b503461010e57602036600319011261010e576001600160a01b03610260611815565b168152600960205260408120805460ff1916905580f35b503461010e578060031936011261010e576040517f00000000000000000000000000000000000000000000000000000000000000006001600160a01b03168152602090f35b503461010e57608036600319011261010e57600435604435906064359060405191602080840160249461031481610306898935898791606093918352602083015260408201520190565b03601f19810183528261186a565b51902080875260078252604087209061033b600160ff600b85015460081c16151514611b05565b600b546008830154604080516364b975db60e11b815260048101929092526001600160a01b0394919283908a90829088165afa908115610738578a928b926106fa575b506004810154831092836106bf576005820155600a0155610644578782600c5416803b15610640576040516323b872dd60e01b8152336004820152306024820152604481018790529082908290606490829084905af180156106355761061d575b5050858383600c5416604051988980926331a9108f60e11b82528960048301525afa9687156105945789976105ee575b506040516001600160401b03919060608101838111828210176105d957604052868152858101848152604082019060018252600654600160401b8110156105c6578060016104609201600655611c09565b9390936105b3579160029161048f949351845551600184015551151591019060ff801983541691151516179055565b83600c5416604051938685015260408401528560608401526060835260808301918383109083111761059f575080604052838184600a54168560025416630a30e37760e41b835267adecc60412ce25a5608487015260a4860152606060c4860152818c607f198761050360e48201826117f0565b0301925af1801561059457610556575b50509160809493917f93bffd1bde7afe8c47a27012597f0dc2c5ccea5fc1323d424e13c21065d594e896936040519516855284015260408301526060820152a180f35b90839794929695939182903d841161058c575b816105739161186a565b810103126105875791949092933880610513565b600080fd5b3d9150610569565b6040513d8b823e3d90fd5b634e487b7160e01b60009081526041600452fd5b634e487b7160e01b8e5260048e9052848efd5b634e487b7160e01b8e526041600452848efd5b82634e487b7160e01b60005260416004526000fd5b61060f919750843d8611610616575b610607818361186a565b810190611b51565b953861040f565b503d6105fd565b61062690611841565b6106315787386103df565b8780fd5b6040513d84823e3d90fd5b5080fd5b60405162461bcd60e51b8152600481018490526048818801527f54686520656e737572616e6365206d7573742068617665206174206c6561737460448201527f2031302074696d6573207468652076616c7565206f66207468652076616c7565606482015267206e65656465642160c01b608482015260a490fd5b96975050505050507f90d31678ec129d3863be095922ef7b97386bcca9b61e15d2d53347cddceeb0a79450604080945051928352820152a180f35b925090506040823d604011610730575b816107176040938361186a565b8101031261072c57848251920151903861037e565b8980fd5b3d915061070a565b6040513d8c823e3d90fd5b503461010e5760a036600319011261010e576001600160401b036084351161010e5736602360843501121561010e576001600160401b03608435600401351161010e573660246084356004013560051b60843501011161010e5760405160208101906107cb816103066044356024356004358791606093918352602083015260408201520190565b51902080825260076020526107f1600160ff600b60408620015460081c16151514611b05565b600c546040516331a9108f60e11b8152606435600482015290602090829060249082906001600160a01b03165afa908115610b99578391610b7a575b506001600160a01b03163303610b2257815260076020526040812060043581556024356002820155604435600182015560038101336001600160601b0360a01b825416179055606435600682015561088e6084356004013560078301611a75565b60246084350190816007820184526020842084915b6084356004013583106109b65750505060018060a01b03600b54169060206040518093634c8f60a360e01b82528260048301528187816108ed60248201608435600401358b611b70565b03925af19182156109ab578492610955575b509161094f9160087fcc6833fd9787745c083edfcc3ae70e4cd35ab78cf84f127388a790fd6ed17fbb94015560405191829160643583526040602084015260408301906084356004013590611b70565b0390a180f35b9150916020823d6020116109a3575b816109716020938361186a565b8101031261058757905190917fcc6833fd9787745c083edfcc3ae70e4cd35ab78cf84f127388a790fd6ed17fbb6108ff565b3d9150610964565b6040513d86823e3d90fd5b60843536036042190181351215610b1e576001600160401b036024823560843501013511610b1e5760843581350160248101353603604490910113610b1e57610a1260248235608435010135610a0c8454611924565b84611975565b85601f6024833560843501013511600114610a805760206001928392899060248335608435010135610a6d575b5060001960843583350160240135600381901b9190911c1990911690841b1785555b019201920191906108a3565b6044915082356084350101013538610a3f565b8287526020872090875b60843584350160240135601f19168110610afe5750600192839260209260843583350160240135601f19811610610ad3575b50508260248235608435010135811b018555610a61565b604460001960f86024863560843501013560031b161c19918435608435010101351690553880610abc565b909160206001819260448688356084350101013581550193019101610a8a565b8580fd5b60405162461bcd60e51b815260206004820152602a60248201527f596f75206d75737420626520746865206f776e6572206f662074686520696e666044820152696f726d6564205257412160b01b6064820152608490fd5b610b93915060203d60201161061657610607818361186a565b3861082d565b6040513d85823e3d90fd5b503461010e576003199060203683011261010e57600435916001600160401b0383116106405760a090833603011261010e577f00000000000000000000000000000000000000000000000000000000000000006001600160a01b031633036114d2576040519160a083018381106001600160401b03821117611466576040528060040135835260248101356001600160401b03811681036112fc57602084015260448101356001600160401b0381116112fc57610c6790600436918401016118a6565b604084015260648101356001600160401b0381116112fc57610c8f90600436918401016118a6565b60608401526084810135906001600160401b0382116112fc5701366023820112156106405760048101356001600160401b0381116114665760405191610cdb60208360051b018461186a565b8183526024602084019260061b8201019036821161104d57602401915b81831061147e57505050608083015281518155606082015180518101906020818184019303126112fc576020810151906001600160401b03821161147a570181603f820112156112fc576020810151610d5492916040016118ed565b9182516001600160401b03811161146657610d70600154611924565b601f811161140d575b506020601f821160011461138c57839482939492611381575b50508160011b916000199060031b1c1916176001555b610db06119af565b6060818051810103126112fc576020810151610dd3606060408401519301611a68565b6040518060208101106001600160401b0360208301111761136d5760208101604052858152836005810204600514841517156113595760405193846101a08101106001600160401b036101a087011117611345576005906101a086016040528786528760208701528760408701528760608701520260808501528560a08501528560c085015260e08401528461010084015284610120840152846101408401528015156101608401526001610180840152600181151514600014611144575083526007602052604083208151815560208201516001820155604082015160028201556003810160018060a01b036060840151166001600160601b0360a01b8254161790556080820151600482015560a0820151600582015560c082015160068201556007810160e0830151906020825192610f0e8484611a75565b019086526020862086915b8383106110515750505050600b6101809161010084015160088201556101208401516009820155610140840151600a8201550191610f6a6101608201511515849060ff801983541691151516179055565b0151815461ff00191690151560081b61ff00161790555b80516001600160401b0360208301511691604081015160208180518101031261104d57602001516001600160a01b038116919082900361104d5760600151908151820191602081818501940312610b1e576020810151906001600160401b038211611049570182603f82011215610b1e577fb1e312a29937cc11967b0e4a346fef1ae132424ebaba9dc6d90249dba053e87c92816040602061102694015191016118ed565b9061104360405192839283526040602084015260408301906117f0565b0390a380f35b8680fd5b8480fd5b80518051906001600160401b03821161113057611078826110728654611924565b86611975565b6020908a601f84116001146110c3579280602093600196938796926110b8575b5050600019600383901b1c191690841b1785555b01920192019190610f19565b015190503880611098565b85905260208b2091908b5b601f1985168110611118575083602093600196938796938794601f198116106110ff575b505050811b0185556110ac565b015160001960f88460031b161c191690553880806110f2565b919260206001819286850151815501940192016110ce565b634e487b7160e01b8a52604160045260248afd5b90915092919215611157575b5090610f81565b8082526007602052600160ff600b60408520015460081c161515036113005780825260076020526040822092825b82600161119183611c09565b500154146111ed578260016111a583611c09565b500154146111d3575b60001981146111bf57600101611185565b634e487b7160e01b84526011600452602484fd5b60026111de82611c09565b5001805460ff191690556111ae565b509192905060018060a01b03600c5416600382019060018060a01b03825416856006850192835490803b156112fc57604051632142170760e11b81523060048201526001600160a01b0394909416602485015260448401919091528290606490829084905af180156112f1576112b7575b50916080917fe9c6e81492bc93fe089982a07565c4a3a6e0c968c5c00b0cd69a8dac9bf37b4993600183549301549160018060a01b03905416905491604051938452602084015260408301526060820152a19038611150565b917fe9c6e81492bc93fe089982a07565c4a3a6e0c968c5c00b0cd69a8dac9bf37b499391956112e7608094611841565b959193509161125e565b6040513d88823e3d90fd5b8280fd5b60405162461bcd60e51b815260206004820152601d60248201527f54686973207065726d697373696f6e206469646e7420657869737473210000006044820152606490fd5b634e487b7160e01b87526041600452602487fd5b634e487b7160e01b86526011600452602486fd5b634e487b7160e01b86526041600452602486fd5b015190503880610d92565b600184527fb10e2d527612073b26eecdfd717e6a320cf44b4afac2b0732d9fcbe2b7fa0cf690601f198316855b8181106113f5575095836001959697106113dc575b505050811b01600155610da8565b015160001960f88460031b161c191690553880806113ce565b9192602060018192868b0151815501940192016113b9565b61145690600185527fb10e2d527612073b26eecdfd717e6a320cf44b4afac2b0732d9fcbe2b7fa0cf6601f840160051c8101916020851061145c575b601f0160051c019061195e565b38610d79565b9091508190611449565b634e487b7160e01b83526041600452602483fd5b8380fd5b60408336031261104d57604051604081018181106001600160401b038211176113455760405283356001600160a01b0381168103611049579181604093602093528286013583820152815201920191610cf8565b6040516335fdcccd60e21b8152336004820152602490fd5b503461010e57602036600319011261010e5760ff60406020926001600160401b0361151361182b565b168152600884522054166040519015158152f35b503461010e57602036600319011261010e576001600160a01b03611549611815565b166001600160601b0360a01b600254161760025580f35b503461010e57602036600319011261010e5761157a611815565b479081156115f1578280808085855af13d156115ec573d61159a8161188b565b906115a8604051928361186a565b81528460203d92013e5b156115bb578280f35b604051639d11f56360e01b81523360048201526001600160a01b039190911660248201526044810191909152606490fd5b6115b2565b604051630686827b60e51b8152600490fd5b503461010e57604036600319011261010e5761161d611815565b6001600160a01b0390602435828116919082900361147a576040516370a0823160e01b8152306004820152926020928385602481845afa9485156112f15786956116cf575b5084156115f157839286604492604051978895869463a9059cbb60e01b865216600485015260248401525af18015610b995761169c578280f35b81813d83116116c8575b6116b0818361186a565b81010312610640576116c190611a68565b5038808280f35b503d6116a6565b9094508381813d83116116f7575b6116e7818361186a565b81010312610b1e57519338611662565b503d6116dd565b503461010e57602036600319011261010e5760209060ff906040906001600160a01b03611729611815565b168152600984522054166040519015158152f35b503461010e578060031936011261010e57546117576119af565b9061177460405192839283526040602084015260408301906117f0565b0390f35b9050346106405760203660031901126106405760043563ffffffff60e01b81168091036112fc57602092506385572ffb60e01b81149081156117bc575b5015158152f35b6301ffc9a760e01b149050386117b5565b60005b8381106117e05750506000910152565b81810151838201526020016117d0565b90602091611809815180928185528580860191016117cd565b601f01601f1916010190565b600435906001600160a01b038216820361058757565b600435906001600160401b038216820361058757565b6001600160401b03811161185457604052565b634e487b7160e01b600052604160045260246000fd5b90601f801991011681019081106001600160401b0382111761185457604052565b6001600160401b03811161185457601f01601f191660200190565b81601f82011215610587578035906118bd8261188b565b926118cb604051948561186a565b8284526020838301011161058757816000926020809301838601378301015290565b909291926118fa8161188b565b91611908604051938461186a565b8294828452828201116105875760206119229301906117cd565b565b90600182811c92168015611954575b602083101461193e57565b634e487b7160e01b600052602260045260246000fd5b91607f1691611933565b818110611969575050565b6000815560010161195e565b9190601f811161198457505050565b611922926000526020600020906020601f840160051c8301931061145c57601f0160051c019061195e565b604051906000826001918254926119c584611924565b80845293818116908115611a4657506001146119e9575b506119229250038361186a565b600081815291507fb10e2d527612073b26eecdfd717e6a320cf44b4afac2b0732d9fcbe2b7fa0cf65b848310611a2b57506119229350508101602001386119dc565b81935090816020925483858a01015201910190918592611a12565b90506020925061192294915060ff191682840152151560051b820101386119dc565b5190811515820361058757565b600160401b821161185457805491808255828110611a9257505050565b600091825260209081832093840193015b838110611ab05750505050565b8083611abe60019354611924565b80611acc575b505001611aa3565b601f8082118514611ae357505081555b8338611ac4565b611afc90848452868420920160051c820185830161195e565b81835555611adc565b15611b0c57565b60405162461bcd60e51b815260206004820152601e60248201527f54686973207065726d697373696f6e206469646e2774206578697374732100006044820152606490fd5b9081602091031261058757516001600160a01b03811681036105875790565b8183526020600583901b84018101939192906000818401855b848310611b9a575050505050505090565b90919293949596601f19808883030184528835601e198436030181121561058757830186810190356001600160401b03811161058757803603821361058757838893601f83808796879660019a5286860137600085828601015201160101990193019301919594939290611b89565b600654811015611c44576003906006600052027ff652222313e28459528d920b65115c16c04f3efc82aaedc97be59f3f377c0d3f0190600090565b634e487b7160e01b600052603260045260246000fdfea264697066735822122010626588739b69803393f1e186d0346ce31233f2704a6478f2ba0015a101117a64736f6c63430008140033",
  "linkReferences": {},
  "deployedLinkReferences": {}
}