{
  "_format": "hh-sol-artifact-1",
  "contractName": "HorizonFujiR",
  "sourceName": "contracts/HorizonFujiR.sol",
  "abi": [
    {
      "inputs": [
        {
          "internalType": "address",
          "name": "_linkToken",
          "type": "address"
        },
        {
          "internalType": "address",
          "name": "_routerCCIP",
          "type": "address"
        }
      ],
      "stateMutability": "nonpayable",
      "type": "constructor"
    },
    {
      "inputs": [
        {
          "internalType": "address",
          "name": "owner",
          "type": "address"
        },
        {
          "internalType": "address",
          "name": "target",
          "type": "address"
        },
        {
          "internalType": "uint256",
          "name": "value",
          "type": "uint256"
        }
      ],
      "name": "FailedToWithdrawEth",
      "type": "error"
    },
    {
      "inputs": [
        {
          "internalType": "address",
          "name": "router",
          "type": "address"
        }
      ],
      "name": "InvalidRouter",
      "type": "error"
    },
    {
      "inputs": [],
      "name": "NothingToWithdraw",
      "type": "error"
    },
    {
      "anonymous": false,
      "inputs": [
        {
          "indexed": false,
          "internalType": "address",
          "name": "provisoryOwner",
          "type": "address"
        },
        {
          "indexed": false,
          "internalType": "uint256",
          "name": "_rwaId",
          "type": "uint256"
        },
        {
          "indexed": false,
          "internalType": "uint256",
          "name": "_titleId",
          "type": "uint256"
        },
        {
          "indexed": false,
          "internalType": "uint256",
          "name": "_drawNumber",
          "type": "uint256"
        }
      ],
      "name": "EnsuranceAdd",
      "type": "event"
    },
    {
      "anonymous": false,
      "inputs": [
        {
          "indexed": true,
          "internalType": "bytes32",
          "name": "messageId",
          "type": "bytes32"
        },
        {
          "indexed": true,
          "internalType": "uint64",
          "name": "sourceChainSelector",
          "type": "uint64"
        },
        {
          "indexed": false,
          "internalType": "address",
          "name": "sender",
          "type": "address"
        },
        {
          "indexed": false,
          "internalType": "string",
          "name": "text",
          "type": "string"
        }
      ],
      "name": "MessageReceived",
      "type": "event"
    },
    {
      "anonymous": false,
      "inputs": [
        {
          "indexed": false,
          "internalType": "uint256",
          "name": "_contractId",
          "type": "uint256"
        },
        {
          "indexed": false,
          "internalType": "uint256",
          "name": "_rwaValue",
          "type": "uint256"
        },
        {
          "indexed": false,
          "internalType": "uint256",
          "name": "_referenceValue",
          "type": "uint256"
        }
      ],
      "name": "PriceLowEvent",
      "type": "event"
    },
    {
      "anonymous": false,
      "inputs": [
        {
          "indexed": false,
          "internalType": "uint256",
          "name": "_contractId",
          "type": "uint256"
        },
        {
          "indexed": false,
          "internalType": "uint256",
          "name": "_rwaValue",
          "type": "uint256"
        },
        {
          "indexed": false,
          "internalType": "uint256",
          "name": "_referenceValue",
          "type": "uint256"
        }
      ],
      "name": "RWAPriceAtMoment",
      "type": "event"
    },
    {
      "anonymous": false,
      "inputs": [
        {
          "indexed": false,
          "internalType": "uint256",
          "name": "_titleId",
          "type": "uint256"
        },
        {
          "indexed": false,
          "internalType": "uint256",
          "name": "_drawNumber",
          "type": "uint256"
        },
        {
          "indexed": false,
          "internalType": "address",
          "name": "_rwaOwner",
          "type": "address"
        },
        {
          "indexed": false,
          "internalType": "uint256",
          "name": "_colateralId",
          "type": "uint256"
        }
      ],
      "name": "RWARefunded",
      "type": "event"
    },
    {
      "anonymous": false,
      "inputs": [
        {
          "indexed": false,
          "internalType": "uint256",
          "name": "_rwaId",
          "type": "uint256"
        },
        {
          "indexed": false,
          "internalType": "uint256",
          "name": "_rwaValue",
          "type": "uint256"
        }
      ],
      "name": "TheRwaValueIsLessThanTheMinimumNeeded",
      "type": "event"
    },
    {
      "anonymous": false,
      "inputs": [
        {
          "indexed": false,
          "internalType": "uint256",
          "name": "_contractId",
          "type": "uint256"
        },
        {
          "indexed": false,
          "internalType": "uint256",
          "name": "_rwaValue",
          "type": "uint256"
        },
        {
          "indexed": false,
          "internalType": "uint256",
          "name": "rwaValue",
          "type": "uint256"
        }
      ],
      "name": "TitleCancelledTheRWAWillBeSold",
      "type": "event"
    },
    {
      "anonymous": false,
      "inputs": [
        {
          "indexed": false,
          "internalType": "uint256",
          "name": "_rwaId",
          "type": "uint256"
        },
        {
          "indexed": false,
          "internalType": "string[]",
          "name": "args",
          "type": "string[]"
        }
      ],
      "name": "VerifyingRwaValue",
      "type": "event"
    },
    {
      "inputs": [
        {
          "internalType": "uint256",
          "name": "_titleId",
          "type": "uint256"
        },
        {
          "internalType": "uint256",
          "name": "_contractId",
          "type": "uint256"
        },
        {
          "internalType": "uint256",
          "name": "_drawNumber",
          "type": "uint256"
        },
        {
          "internalType": "uint256",
          "name": "_rwaId",
          "type": "uint256"
        }
      ],
      "name": "addCollateral",
      "outputs": [],
      "stateMutability": "nonpayable",
      "type": "function"
    },
    {
      "inputs": [
        {
          "internalType": "address",
          "name": "_receiverAddress",
          "type": "address"
        }
      ],
      "name": "addReceiver",
      "outputs": [],
      "stateMutability": "nonpayable",
      "type": "function"
    },
    {
      "inputs": [
        {
          "internalType": "address",
          "name": "_sender",
          "type": "address"
        }
      ],
      "name": "addSender",
      "outputs": [],
      "stateMutability": "nonpayable",
      "type": "function"
    },
    {
      "inputs": [
        {
          "internalType": "uint64",
          "name": "_sourceChainSelector",
          "type": "uint64"
        }
      ],
      "name": "addSourceChain",
      "outputs": [],
      "stateMutability": "nonpayable",
      "type": "function"
    },
    {
      "inputs": [
        {
          "components": [
            {
              "internalType": "bytes32",
              "name": "messageId",
              "type": "bytes32"
            },
            {
              "internalType": "uint64",
              "name": "sourceChainSelector",
              "type": "uint64"
            },
            {
              "internalType": "bytes",
              "name": "sender",
              "type": "bytes"
            },
            {
              "internalType": "bytes",
              "name": "data",
              "type": "bytes"
            },
            {
              "components": [
                {
                  "internalType": "address",
                  "name": "token",
                  "type": "address"
                },
                {
                  "internalType": "uint256",
                  "name": "amount",
                  "type": "uint256"
                }
              ],
              "internalType": "struct Client.EVMTokenAmount[]",
              "name": "destTokenAmounts",
              "type": "tuple[]"
            }
          ],
          "internalType": "struct Client.Any2EVMMessage",
          "name": "message",
          "type": "tuple"
        }
      ],
      "name": "ccipReceive",
      "outputs": [],
      "stateMutability": "nonpayable",
      "type": "function"
    },
    {
      "inputs": [],
      "name": "getLastReceivedMessageDetails",
      "outputs": [
        {
          "internalType": "bytes32",
          "name": "messageId",
          "type": "bytes32"
        },
        {
          "internalType": "bytes",
          "name": "text",
          "type": "bytes"
        }
      ],
      "stateMutability": "view",
      "type": "function"
    },
    {
      "inputs": [],
      "name": "getRouter",
      "outputs": [
        {
          "internalType": "address",
          "name": "",
          "type": "address"
        }
      ],
      "stateMutability": "view",
      "type": "function"
    },
    {
      "inputs": [
        {
          "internalType": "bytes32",
          "name": "",
          "type": "bytes32"
        }
      ],
      "name": "permissionsInfo",
      "outputs": [
        {
          "internalType": "uint256",
          "name": "idTitle",
          "type": "uint256"
        },
        {
          "internalType": "uint256",
          "name": "drawNumber",
          "type": "uint256"
        },
        {
          "internalType": "uint256",
          "name": "contractId",
          "type": "uint256"
        },
        {
          "internalType": "address",
          "name": "rwaOwner",
          "type": "address"
        },
        {
          "internalType": "uint256",
          "name": "ensuranceValueNeeded",
          "type": "uint256"
        },
        {
          "internalType": "uint256",
          "name": "ensureValueNow",
          "type": "uint256"
        },
        {
          "internalType": "uint256",
          "name": "colateralId",
          "type": "uint256"
        },
        {
          "internalType": "bytes32",
          "name": "lastRequestId",
          "type": "bytes32"
        },
        {
          "internalType": "uint256",
          "name": "lastRequestTime",
          "type": "uint256"
        },
        {
          "internalType": "uint256",
          "name": "lastResponseTime",
          "type": "uint256"
        },
        {
          "internalType": "bool",
          "name": "colateralLocked",
          "type": "bool"
        },
        {
          "internalType": "bool",
          "name": "isPermission",
          "type": "bool"
        }
      ],
      "stateMutability": "view",
      "type": "function"
    },
    {
      "inputs": [
        {
          "internalType": "address",
          "name": "_sender",
          "type": "address"
        }
      ],
      "name": "removeSender",
      "outputs": [],
      "stateMutability": "nonpayable",
      "type": "function"
    },
    {
      "inputs": [
        {
          "internalType": "uint64",
          "name": "_sourceChainSelector",
          "type": "uint64"
        }
      ],
      "name": "removelistSourceChain",
      "outputs": [],
      "stateMutability": "nonpayable",
      "type": "function"
    },
    {
      "inputs": [
        {
          "internalType": "bytes4",
          "name": "interfaceId",
          "type": "bytes4"
        }
      ],
      "name": "supportsInterface",
      "outputs": [
        {
          "internalType": "bool",
          "name": "",
          "type": "bool"
        }
      ],
      "stateMutability": "pure",
      "type": "function"
    },
    {
      "inputs": [
        {
          "internalType": "uint256",
          "name": "_titleId",
          "type": "uint256"
        },
        {
          "internalType": "uint256",
          "name": "_contractId",
          "type": "uint256"
        },
        {
          "internalType": "uint256",
          "name": "_drawNumber",
          "type": "uint256"
        },
        {
          "internalType": "uint256",
          "name": "_rwaId",
          "type": "uint256"
        },
        {
          "internalType": "string[]",
          "name": "args",
          "type": "string[]"
        }
      ],
      "name": "verifyColateralValue",
      "outputs": [],
      "stateMutability": "nonpayable",
      "type": "function"
    },
    {
      "inputs": [
        {
          "internalType": "address",
          "name": "",
          "type": "address"
        }
      ],
      "name": "whitelistedSenders",
      "outputs": [
        {
          "internalType": "bool",
          "name": "",
          "type": "bool"
        }
      ],
      "stateMutability": "view",
      "type": "function"
    },
    {
      "inputs": [
        {
          "internalType": "uint64",
          "name": "",
          "type": "uint64"
        }
      ],
      "name": "whitelistedSourceChains",
      "outputs": [
        {
          "internalType": "bool",
          "name": "",
          "type": "bool"
        }
      ],
      "stateMutability": "view",
      "type": "function"
    },
    {
      "inputs": [
        {
          "internalType": "address",
          "name": "_beneficiary",
          "type": "address"
        }
      ],
      "name": "withdraw",
      "outputs": [],
      "stateMutability": "nonpayable",
      "type": "function"
    },
    {
      "inputs": [
        {
          "internalType": "address",
          "name": "_beneficiary",
          "type": "address"
        },
        {
          "internalType": "address",
          "name": "_token",
          "type": "address"
        }
      ],
      "name": "withdrawToken",
      "outputs": [],
      "stateMutability": "nonpayable",
      "type": "function"
    },
    {
      "stateMutability": "payable",
      "type": "receive"
    }
  ],
  "bytecode": "0x60a0346200010857601f62001e7538819003918201601f19168301916001600160401b038311848410176200010d5780849260409485528339810103126200010857602081620000536200005b9362000123565b500162000123565b6001600160a01b03811615620000ef5760805273d7ecf0bbe82717ead041eef0b9e777e1a7d577a060018060a01b03197314c9188071620abcd778a20f5b344c515ab9c0f981600a541617600a5573317383204e6406b61258cb53d535ae770b7a984f81600b541617600b55600c541617600c55604051611d3c908162000139823960805181818161028d0152610c8a0152f35b6040516335fdcccd60e21b815260006004820152602490fd5b600080fd5b634e487b7160e01b600052604160045260246000fd5b51906001600160a01b0382168203620001085756fe608080604052600436101561001d575b50361561001b57600080fd5b005b600090813560e01c90816301ffc9a71461182457508063263596a5146117e9578063272efc69146117aa5780633aeac4e1146116af57806351cff8d91461160c57806369d83ed1146115d35780637dc91a021461159657806385572ffb14610c5657806392365ce41461082057806395871c8f146102bc578063b0f479a114610277578063b2f876431461023e578063b697f53114610202578063c5ec1c7a146101c6578063e9982c39146101115763ff46ed530361000f573461010e57602036600319011261010e576001600160401b036100f76118d7565b168152600860205260408120805460ff1916905580f35b80fd5b503461010e57602036600319011261010e57604061018091600435815260076020522060ff815491600181015490600281015460018060a01b0360038301541660048301546005840154600685015491600886015493600987015495600b600a890154980154986040519b8c5260208c015260408b015260608a0152608089015260a088015260c087015260e0860152610100850152610120840152818116151561014084015260081c161515610160820152f35b503461010e57602036600319011261010e576001600160401b036101e86118d7565b168152600860205260408120805460ff1916600117905580f35b503461010e57602036600319011261010e576001600160a01b036102246118c1565b168152600960205260408120805460ff1916600117905580f35b503461010e57602036600319011261010e576001600160a01b036102606118c1565b168152600960205260408120805460ff1916905580f35b503461010e578060031936011261010e576040517f00000000000000000000000000000000000000000000000000000000000000006001600160a01b03168152602090f35b503461010e57608036600319011261010e57600435604435906064359060405191602080840160249461031481610306898935898791606093918352602083015260408201520190565b03601f198101835282611916565b519020808752600782526040872090600882015491610341600160ff600b84015460081c16151514611c4a565b600b54604080516364b975db60e11b815260048101959095526001600160a01b03949182908a90829088165afa8015610815578a918b916107d9575b50801561078257600483015492838311801561070857156106cd5780836005600a930155015510610653578782600c5416803b1561064f576040516323b872dd60e01b8152336004820152306024820152604481018790529082908290606490829084905af180156106445761062c575b5050858383600c5416604051988980926331a9108f60e11b82528960048301525afa9687156105a35789976105fd575b506040516001600160401b03919060608101838111828210176105e857604052868152858101848152604082019060018252600654600160401b8110156105d55780600161046f9201600655611cb5565b9390936105c2579160029161049e949351845551600184015551151591019060ff801983541691151516179055565b83600c541660405193868501526040840152856060840152606083526080830191838310908311176105ae575080604052838184600a54168560025416630a30e37760e41b835267adecc60412ce25a5608487015260a4860152606060c4860152818c607f198761051260e482018261189c565b0301925af180156105a357610565575b50509160809493917f93bffd1bde7afe8c47a27012597f0dc2c5ccea5fc1323d424e13c21065d594e896936040519516855284015260408301526060820152a180f35b90839794929695939182903d841161059b575b8161058291611916565b810103126105965791949092933880610522565b600080fd5b3d9150610578565b6040513d8b823e3d90fd5b634e487b7160e01b60009081526041600452fd5b634e487b7160e01b8e5260048e9052848efd5b634e487b7160e01b8e526041600452848efd5b82634e487b7160e01b60005260416004526000fd5b61061e919750843d8611610625575b6106168183611916565b810190611c96565b953861041e565b503d61060c565b610635906118ed565b6106405787386103ee565b8780fd5b6040513d84823e3d90fd5b5080fd5b60405162461bcd60e51b8152600481018490526047818801527f54686520656e737572616e6365206d7573742068617665206174206c6561737460448201527f20352074696d6573207468652076616c7565206f66207468652076616c7565206064820152666e65656465642160c81b608482015260a490fd5b50509495505050507f90d31678ec129d3863be095922ef7b97386bcca9b61e15d2d53347cddceeb0a79450604080945051928352820152a180f35b60405162461bcd60e51b8152600481018990526047818d01527f5468652076616c7565206f662074686520525741206e6565647320746f20626560448201527f2067726561746572207468616e2074686520656e737572616e636556616c75656064820152664e65656465642160c81b608482015260a490fd5b60405162461bcd60e51b815260048101879052602a818b01527f596f75206d75737420776169742074686520726573706f6e736520746f2062656044820152692072656365697665642160b01b6064820152608490fd5b9150506040813d60401161080d575b816107f560409383611916565b81010312610809578481519101513861037d565b8980fd5b3d91506107e8565b6040513d8c823e3d90fd5b503461010e5760a036600319011261010e576001600160401b036084351161010e5736602360843501121561010e576001600160401b03608435600401351161010e573660246084356004013560051b60843501011161010e5760405160208101906108a8816103066044356024356004358791606093918352602083015260408201520190565b51902060018060a01b03600b54169060206040518093634c8f60a360e01b82528260048301528186816108ea6024820160843560040135602460843501611bb1565b03925af1918215610c4b578392610c17575b508083526007602052610920600160ff600b60408720015460081c16151514611c4a565b600c546040516331a9108f60e11b8152606435600482015290602090829060249082906001600160a01b03165afa908115610c0c578491610bed575b506001600160a01b03163303610b9557825260076020526040822060043581556024356002820155604435600182015560038101336001600160601b0360a01b82541617905560643560068201556109bd6084356004013560078301611b21565b60078101835260208320836084356024015b608435600401358210610a3357505050600801557fcc6833fd9787745c083edfcc3ae70e4cd35ab78cf84f127388a790fd6ed17fbb60405160643581526040602082015280610a2d6040820160843560040135602460843501611bb1565b0390a180f35b8035608435360360421901811215610b91576001600160401b0360248260843501013511610b9157608435810160248101353603604490910113610b9157610a8d602482608435010135610a8786546119d0565b86611a21565b86601f60248360843501013511600114610af75760019283926020928a90602483608435010135610ae5575b5060001960843590920160240135600381901b9290921c191690841b1786555b019301910190916109cf565b60449150826084350101013538610ab9565b8488526020882090885b608435840160240135601f19168110610b725750600193849360209391928592602492916084358301840135601f19811610610b4a575b5050608435010135811b018655610ad9565b604460001960f8868660843501013560031b161c199184608435010101351690553880610b38565b9091602060018192604486886084350101013581550193019101610b01565b8680fd5b60405162461bcd60e51b815260206004820152602a60248201527f596f75206d75737420626520746865206f776e6572206f662074686520696e666044820152696f726d6564205257412160b01b6064820152608490fd5b610c06915060203d602011610625576106168183611916565b3861095c565b6040513d86823e3d90fd5b9091506020813d602011610c43575b81610c3360209383611916565b81010312610596575190386108fc565b3d9150610c26565b6040513d85823e3d90fd5b503461010e576003199060203683011261010e57600435916001600160401b03831161064f5760a090833603011261010e577f00000000000000000000000000000000000000000000000000000000000000006001600160a01b0316330361157e576040519160a083018381106001600160401b03821117611512576040528060040135835260248101356001600160401b03811681036113a857602084015260448101356001600160401b0381116113a857610d199060043691840101611952565b604084015260648101356001600160401b0381116113a857610d419060043691840101611952565b60608401526084810135906001600160401b0382116113a857013660238201121561064f5760048101356001600160401b0381116115125760405191610d8d60208360051b0184611916565b8183526024602084019260061b820101903682116110ff57602401915b81831061152a57505050608083015281518155606082015180518101906020818184019303126113a8576020810151906001600160401b038211611526570181603f820112156113a8576020810151610e069291604001611999565b9182516001600160401b03811161151257610e226001546119d0565b601f81116114b9575b506020601f82116001146114385783948293949261142d575b50508160011b916000199060031b1c1916176001555b610e62611a5b565b6060818051810103126113a8576020810151610e85606060408401519301611b14565b6040518060208101106001600160401b036020830111176114195760208101604052858152836005810204600514841517156114055760405193846101a08101106001600160401b036101a0870111176113f1576005906101a086016040528786528760208701528760408701528760608701520260808501528560a08501528560c085015260e084015284610100840152846101208401528461014084015280151561016084015260016101808401526001811515146000146111f0575083526007602052604083208151815560208201516001820155604082015160028201556003810160018060a01b036060840151166001600160601b0360a01b8254161790556080820151600482015560a0820151600582015560c082015160068201556007810160e0830151906020825192610fc08484611b21565b019086526020862086915b8383106111035750505050600b6101809161010084015160088201556101208401516009820155610140840151600a820155019161101c6101608201511515849060ff801983541691151516179055565b0151815461ff00191690151560081b61ff00161790555b80516001600160401b036020830151169160408101516020818051810103126110ff57602001516001600160a01b03811691908290036110ff57606001519081518201916020818185019403126110fb576020810151906001600160401b038211610b91570182603f820112156110fb577fb1e312a29937cc11967b0e4a346fef1ae132424ebaba9dc6d90249dba053e87c9281604060206110d89401519101611999565b906110f5604051928392835260406020840152604083019061189c565b0390a380f35b8580fd5b8480fd5b80518051906001600160401b0382116111dc5761112482610a8786546119d0565b6020908a601f841160011461116f57928060209360019693879692611164575b5050600019600383901b1c191690841b1785555b01920192019190610fcb565b015190503880611144565b85905260208b2091908b5b601f19851681106111c4575083602093600196938796938794601f198116106111ab575b505050811b018555611158565b015160001960f88460031b161c1916905538808061119e565b9192602060018192868501518155019401920161117a565b634e487b7160e01b8a52604160045260248afd5b90915092919215611203575b5090611033565b8082526007602052600160ff600b60408520015460081c161515036113ac5780825260076020526040822092825b82600161123d83611cb5565b500154146112995782600161125183611cb5565b5001541461127f575b600019811461126b57600101611231565b634e487b7160e01b84526011600452602484fd5b600261128a82611cb5565b5001805460ff1916905561125a565b509192905060018060a01b03600c5416600382019060018060a01b03825416856006850192835490803b156113a857604051632142170760e11b81523060048201526001600160a01b0394909416602485015260448401919091528290606490829084905af1801561139d57611363575b50916080917fe9c6e81492bc93fe089982a07565c4a3a6e0c968c5c00b0cd69a8dac9bf37b4993600183549301549160018060a01b03905416905491604051938452602084015260408301526060820152a190386111fc565b917fe9c6e81492bc93fe089982a07565c4a3a6e0c968c5c00b0cd69a8dac9bf37b499391956113936080946118ed565b959193509161130a565b6040513d88823e3d90fd5b8280fd5b60405162461bcd60e51b815260206004820152601d60248201527f54686973207065726d697373696f6e206469646e7420657869737473210000006044820152606490fd5b634e487b7160e01b87526041600452602487fd5b634e487b7160e01b86526011600452602486fd5b634e487b7160e01b86526041600452602486fd5b015190503880610e44565b600184527fb10e2d527612073b26eecdfd717e6a320cf44b4afac2b0732d9fcbe2b7fa0cf690601f198316855b8181106114a157509583600195969710611488575b505050811b01600155610e5a565b015160001960f88460031b161c1916905538808061147a565b9192602060018192868b015181550194019201611465565b61150290600185527fb10e2d527612073b26eecdfd717e6a320cf44b4afac2b0732d9fcbe2b7fa0cf6601f840160051c81019160208510611508575b601f0160051c0190611a0a565b38610e2b565b90915081906114f5565b634e487b7160e01b83526041600452602483fd5b8380fd5b6040833603126110ff57604051604081018181106001600160401b038211176113f15760405283356001600160a01b0381168103610b91579181604093602093528286013583820152815201920191610daa565b6040516335fdcccd60e21b8152336004820152602490fd5b503461010e57602036600319011261010e5760ff60406020926001600160401b036115bf6118d7565b168152600884522054166040519015158152f35b503461010e57602036600319011261010e576001600160a01b036115f56118c1565b166001600160601b0360a01b600254161760025580f35b503461010e57602036600319011261010e576116266118c1565b4790811561169d578280808085855af13d15611698573d61164681611937565b906116546040519283611916565b81528460203d92013e5b15611667578280f35b604051639d11f56360e01b81523360048201526001600160a01b039190911660248201526044810191909152606490fd5b61165e565b604051630686827b60e51b8152600490fd5b503461010e57604036600319011261010e576116c96118c1565b6001600160a01b03906024358281169190829003611526576040516370a0823160e01b8152306004820152926020928385602481845afa94851561139d57869561177b575b50841561169d57839286604492604051978895869463a9059cbb60e01b865216600485015260248401525af18015610c4b57611748578280f35b81813d8311611774575b61175c8183611916565b8101031261064f5761176d90611b14565b5038808280f35b503d611752565b9094508381813d83116117a3575b6117938183611916565b810103126110fb5751933861170e565b503d611789565b503461010e57602036600319011261010e5760209060ff906040906001600160a01b036117d56118c1565b168152600984522054166040519015158152f35b503461010e578060031936011261010e5754611803611a5b565b90611820604051928392835260406020840152604083019061189c565b0390f35b90503461064f57602036600319011261064f5760043563ffffffff60e01b81168091036113a857602092506385572ffb60e01b8114908115611868575b5015158152f35b6301ffc9a760e01b14905038611861565b60005b83811061188c5750506000910152565b818101518382015260200161187c565b906020916118b581518092818552858086019101611879565b601f01601f1916010190565b600435906001600160a01b038216820361059657565b600435906001600160401b038216820361059657565b6001600160401b03811161190057604052565b634e487b7160e01b600052604160045260246000fd5b90601f801991011681019081106001600160401b0382111761190057604052565b6001600160401b03811161190057601f01601f191660200190565b81601f820112156105965780359061196982611937565b926119776040519485611916565b8284526020838301011161059657816000926020809301838601378301015290565b909291926119a681611937565b916119b46040519384611916565b8294828452828201116105965760206119ce930190611879565b565b90600182811c92168015611a00575b60208310146119ea57565b634e487b7160e01b600052602260045260246000fd5b91607f16916119df565b818110611a15575050565b60008155600101611a0a565b9190601f8111611a3057505050565b6119ce926000526020600020906020601f840160051c8301931061150857601f0160051c0190611a0a565b60405190600082600191825492611a71846119d0565b80845293818116908115611af25750600114611a95575b506119ce92500383611916565b600081815291507fb10e2d527612073b26eecdfd717e6a320cf44b4afac2b0732d9fcbe2b7fa0cf65b848310611ad757506119ce935050810160200138611a88565b81935090816020925483858a01015201910190918592611abe565b9050602092506119ce94915060ff191682840152151560051b82010138611a88565b5190811515820361059657565b600160401b821161190057805491808255828110611b3e57505050565b600091825260209081832093840193015b838110611b5c5750505050565b8083611b6a600193546119d0565b80611b78575b505001611b4f565b601f8082118514611b8f57505081555b8338611b70565b611ba890848452868420920160051c8201858301611a0a565b81835555611b88565b8183526020600583901b84018101939192906000818401855b848310611bdb575050505050505090565b90919293949596601f19808883030184528835601e198436030181121561059657830186810190356001600160401b03811161059657803603821361059657838893601f83808796879660019a5286860137600085828601015201160101990193019301919594939290611bca565b15611c5157565b60405162461bcd60e51b815260206004820152601e60248201527f54686973207065726d697373696f6e206469646e2774206578697374732100006044820152606490fd5b9081602091031261059657516001600160a01b03811681036105965790565b600654811015611cf0576003906006600052027ff652222313e28459528d920b65115c16c04f3efc82aaedc97be59f3f377c0d3f0190600090565b634e487b7160e01b600052603260045260246000fdfea2646970667358221220328ad7cb47ced8a926ea972ecc306b96373d4da91f9653ff93aea51664f3c20564736f6c63430008140033",
  "linkReferences": {},
  "deployedLinkReferences": {}
}