{
  "_format": "hh-sol-artifact-1",
  "contractName": "HorizonFujiR",
  "sourceName": "contracts/HorizonFujiR.sol",
  "abi": [
    {
      "inputs": [
        {
          "internalType": "address",
          "name": "_linkToken",
          "type": "address"
        },
        {
          "internalType": "address",
          "name": "_routerCCIP",
          "type": "address"
        }
      ],
      "stateMutability": "nonpayable",
      "type": "constructor"
    },
    {
      "inputs": [
        {
          "internalType": "address",
          "name": "owner",
          "type": "address"
        },
        {
          "internalType": "address",
          "name": "target",
          "type": "address"
        },
        {
          "internalType": "uint256",
          "name": "value",
          "type": "uint256"
        }
      ],
      "name": "FailedToWithdrawEth",
      "type": "error"
    },
    {
      "inputs": [
        {
          "internalType": "address",
          "name": "router",
          "type": "address"
        }
      ],
      "name": "InvalidRouter",
      "type": "error"
    },
    {
      "inputs": [],
      "name": "NothingToWithdraw",
      "type": "error"
    },
    {
      "anonymous": false,
      "inputs": [
        {
          "indexed": false,
          "internalType": "address",
          "name": "provisoryOwner",
          "type": "address"
        },
        {
          "indexed": false,
          "internalType": "uint256",
          "name": "_rwaId",
          "type": "uint256"
        },
        {
          "indexed": false,
          "internalType": "uint256",
          "name": "_titleId",
          "type": "uint256"
        },
        {
          "indexed": false,
          "internalType": "uint256",
          "name": "_drawNumber",
          "type": "uint256"
        }
      ],
      "name": "EnsuranceAdd",
      "type": "event"
    },
    {
      "anonymous": false,
      "inputs": [
        {
          "indexed": true,
          "internalType": "bytes32",
          "name": "messageId",
          "type": "bytes32"
        },
        {
          "indexed": true,
          "internalType": "uint64",
          "name": "sourceChainSelector",
          "type": "uint64"
        },
        {
          "indexed": false,
          "internalType": "address",
          "name": "sender",
          "type": "address"
        },
        {
          "indexed": false,
          "internalType": "string",
          "name": "text",
          "type": "string"
        }
      ],
      "name": "MessageReceived",
      "type": "event"
    },
    {
      "anonymous": false,
      "inputs": [
        {
          "indexed": false,
          "internalType": "uint256",
          "name": "_contractId",
          "type": "uint256"
        },
        {
          "indexed": false,
          "internalType": "uint256",
          "name": "_rwaId",
          "type": "uint256"
        },
        {
          "indexed": false,
          "internalType": "uint256",
          "name": "_rwaValue",
          "type": "uint256"
        }
      ],
      "name": "PriceLowEvent",
      "type": "event"
    },
    {
      "anonymous": false,
      "inputs": [
        {
          "indexed": false,
          "internalType": "uint256",
          "name": "_contractId",
          "type": "uint256"
        },
        {
          "indexed": false,
          "internalType": "uint256",
          "name": "_rwaId",
          "type": "uint256"
        },
        {
          "indexed": false,
          "internalType": "uint256",
          "name": "_rwaValue",
          "type": "uint256"
        }
      ],
      "name": "RWAPriceAtMoment",
      "type": "event"
    },
    {
      "anonymous": false,
      "inputs": [
        {
          "indexed": false,
          "internalType": "uint256",
          "name": "_titleId",
          "type": "uint256"
        },
        {
          "indexed": false,
          "internalType": "uint256",
          "name": "_drawNumber",
          "type": "uint256"
        },
        {
          "indexed": false,
          "internalType": "address",
          "name": "_rwaOwner",
          "type": "address"
        },
        {
          "indexed": false,
          "internalType": "uint256",
          "name": "_collateralId",
          "type": "uint256"
        }
      ],
      "name": "RWARefunded",
      "type": "event"
    },
    {
      "anonymous": false,
      "inputs": [
        {
          "indexed": false,
          "internalType": "bytes32",
          "name": "requestId",
          "type": "bytes32"
        },
        {
          "indexed": false,
          "internalType": "string[]",
          "name": "args",
          "type": "string[]"
        }
      ],
      "name": "RwaValueUpdated",
      "type": "event"
    },
    {
      "anonymous": false,
      "inputs": [
        {
          "indexed": false,
          "internalType": "uint256",
          "name": "_rwaId",
          "type": "uint256"
        },
        {
          "indexed": false,
          "internalType": "uint256",
          "name": "_rwaValue",
          "type": "uint256"
        }
      ],
      "name": "TheRwaValueIsLessThanTheMinimumNeeded",
      "type": "event"
    },
    {
      "anonymous": false,
      "inputs": [
        {
          "indexed": false,
          "internalType": "uint256",
          "name": "_contractId",
          "type": "uint256"
        },
        {
          "indexed": false,
          "internalType": "uint256",
          "name": "_rwaId",
          "type": "uint256"
        },
        {
          "indexed": false,
          "internalType": "uint256",
          "name": "_rwaValue",
          "type": "uint256"
        }
      ],
      "name": "TitleCancelledTheRWAWillBeSold",
      "type": "event"
    },
    {
      "anonymous": false,
      "inputs": [
        {
          "indexed": false,
          "internalType": "uint256",
          "name": "value",
          "type": "uint256"
        }
      ],
      "name": "UpkeepPerformed",
      "type": "event"
    },
    {
      "anonymous": false,
      "inputs": [
        {
          "indexed": false,
          "internalType": "uint256",
          "name": "_rwaId",
          "type": "uint256"
        },
        {
          "indexed": false,
          "internalType": "string[]",
          "name": "args",
          "type": "string[]"
        }
      ],
      "name": "VerifyingRwaValue",
      "type": "event"
    },
    {
      "inputs": [
        {
          "internalType": "uint256",
          "name": "_titleId",
          "type": "uint256"
        },
        {
          "internalType": "uint256",
          "name": "_contractId",
          "type": "uint256"
        },
        {
          "internalType": "uint256",
          "name": "_drawNumber",
          "type": "uint256"
        },
        {
          "internalType": "uint256",
          "name": "_rwaId",
          "type": "uint256"
        }
      ],
      "name": "addCollateral",
      "outputs": [],
      "stateMutability": "nonpayable",
      "type": "function"
    },
    {
      "inputs": [
        {
          "internalType": "address",
          "name": "_receiverAddress",
          "type": "address"
        }
      ],
      "name": "addReceiver",
      "outputs": [],
      "stateMutability": "nonpayable",
      "type": "function"
    },
    {
      "inputs": [
        {
          "internalType": "address",
          "name": "_sender",
          "type": "address"
        }
      ],
      "name": "addSender",
      "outputs": [],
      "stateMutability": "nonpayable",
      "type": "function"
    },
    {
      "inputs": [
        {
          "internalType": "uint64",
          "name": "_sourceChainSelector",
          "type": "uint64"
        }
      ],
      "name": "addSourceChain",
      "outputs": [],
      "stateMutability": "nonpayable",
      "type": "function"
    },
    {
      "inputs": [
        {
          "components": [
            {
              "internalType": "bytes32",
              "name": "messageId",
              "type": "bytes32"
            },
            {
              "internalType": "uint64",
              "name": "sourceChainSelector",
              "type": "uint64"
            },
            {
              "internalType": "bytes",
              "name": "sender",
              "type": "bytes"
            },
            {
              "internalType": "bytes",
              "name": "data",
              "type": "bytes"
            },
            {
              "components": [
                {
                  "internalType": "address",
                  "name": "token",
                  "type": "address"
                },
                {
                  "internalType": "uint256",
                  "name": "amount",
                  "type": "uint256"
                }
              ],
              "internalType": "struct Client.EVMTokenAmount[]",
              "name": "destTokenAmounts",
              "type": "tuple[]"
            }
          ],
          "internalType": "struct Client.Any2EVMMessage",
          "name": "message",
          "type": "tuple"
        }
      ],
      "name": "ccipReceive",
      "outputs": [],
      "stateMutability": "nonpayable",
      "type": "function"
    },
    {
      "inputs": [],
      "name": "checkCollateralPrice",
      "outputs": [],
      "stateMutability": "nonpayable",
      "type": "function"
    },
    {
      "inputs": [],
      "name": "getCollateralPrice",
      "outputs": [],
      "stateMutability": "nonpayable",
      "type": "function"
    },
    {
      "inputs": [],
      "name": "getLastReceivedMessageDetails",
      "outputs": [
        {
          "internalType": "bytes32",
          "name": "messageId",
          "type": "bytes32"
        },
        {
          "internalType": "bytes",
          "name": "text",
          "type": "bytes"
        }
      ],
      "stateMutability": "view",
      "type": "function"
    },
    {
      "inputs": [],
      "name": "getRouter",
      "outputs": [
        {
          "internalType": "address",
          "name": "",
          "type": "address"
        }
      ],
      "stateMutability": "view",
      "type": "function"
    },
    {
      "inputs": [
        {
          "internalType": "bytes32",
          "name": "",
          "type": "bytes32"
        }
      ],
      "name": "permissionsInfo",
      "outputs": [
        {
          "internalType": "uint256",
          "name": "idTitle",
          "type": "uint256"
        },
        {
          "internalType": "uint256",
          "name": "drawNumber",
          "type": "uint256"
        },
        {
          "internalType": "uint256",
          "name": "contractId",
          "type": "uint256"
        },
        {
          "internalType": "address",
          "name": "rwaOwner",
          "type": "address"
        },
        {
          "internalType": "uint256",
          "name": "ensuranceValueNeeded",
          "type": "uint256"
        },
        {
          "internalType": "uint256",
          "name": "ensureValueNow",
          "type": "uint256"
        },
        {
          "internalType": "uint256",
          "name": "collateralId",
          "type": "uint256"
        },
        {
          "internalType": "bytes32",
          "name": "lastRequestId",
          "type": "bytes32"
        },
        {
          "internalType": "uint256",
          "name": "lastRequestTime",
          "type": "uint256"
        },
        {
          "internalType": "uint256",
          "name": "lastResponseTime",
          "type": "uint256"
        },
        {
          "internalType": "bool",
          "name": "collateralLocked",
          "type": "bool"
        },
        {
          "internalType": "bool",
          "name": "isPermission",
          "type": "bool"
        }
      ],
      "stateMutability": "view",
      "type": "function"
    },
    {
      "inputs": [
        {
          "internalType": "address",
          "name": "_sender",
          "type": "address"
        }
      ],
      "name": "removeSender",
      "outputs": [],
      "stateMutability": "nonpayable",
      "type": "function"
    },
    {
      "inputs": [
        {
          "internalType": "uint64",
          "name": "_sourceChainSelector",
          "type": "uint64"
        }
      ],
      "name": "removelistSourceChain",
      "outputs": [],
      "stateMutability": "nonpayable",
      "type": "function"
    },
    {
      "inputs": [
        {
          "internalType": "uint256",
          "name": "",
          "type": "uint256"
        }
      ],
      "name": "rwaMonitors",
      "outputs": [
        {
          "internalType": "uint256",
          "name": "rwaId",
          "type": "uint256"
        },
        {
          "internalType": "bytes32",
          "name": "hashPermission",
          "type": "bytes32"
        },
        {
          "internalType": "bytes32",
          "name": "lastRequestId",
          "type": "bytes32"
        },
        {
          "internalType": "bool",
          "name": "isActive",
          "type": "bool"
        }
      ],
      "stateMutability": "view",
      "type": "function"
    },
    {
      "inputs": [
        {
          "internalType": "bytes4",
          "name": "interfaceId",
          "type": "bytes4"
        }
      ],
      "name": "supportsInterface",
      "outputs": [
        {
          "internalType": "bool",
          "name": "",
          "type": "bool"
        }
      ],
      "stateMutability": "pure",
      "type": "function"
    },
    {
      "inputs": [
        {
          "internalType": "uint256",
          "name": "_titleId",
          "type": "uint256"
        },
        {
          "internalType": "uint256",
          "name": "_contractId",
          "type": "uint256"
        },
        {
          "internalType": "uint256",
          "name": "_drawNumber",
          "type": "uint256"
        },
        {
          "internalType": "uint256",
          "name": "_rwaId",
          "type": "uint256"
        },
        {
          "internalType": "string[]",
          "name": "args",
          "type": "string[]"
        }
      ],
      "name": "verifyCollateralValue",
      "outputs": [],
      "stateMutability": "nonpayable",
      "type": "function"
    },
    {
      "inputs": [
        {
          "internalType": "address",
          "name": "",
          "type": "address"
        }
      ],
      "name": "whitelistedSenders",
      "outputs": [
        {
          "internalType": "bool",
          "name": "",
          "type": "bool"
        }
      ],
      "stateMutability": "view",
      "type": "function"
    },
    {
      "inputs": [
        {
          "internalType": "uint64",
          "name": "",
          "type": "uint64"
        }
      ],
      "name": "whitelistedSourceChains",
      "outputs": [
        {
          "internalType": "bool",
          "name": "",
          "type": "bool"
        }
      ],
      "stateMutability": "view",
      "type": "function"
    },
    {
      "inputs": [
        {
          "internalType": "address",
          "name": "_beneficiary",
          "type": "address"
        }
      ],
      "name": "withdraw",
      "outputs": [],
      "stateMutability": "nonpayable",
      "type": "function"
    },
    {
      "inputs": [
        {
          "internalType": "address",
          "name": "_beneficiary",
          "type": "address"
        },
        {
          "internalType": "address",
          "name": "_token",
          "type": "address"
        }
      ],
      "name": "withdrawToken",
      "outputs": [],
      "stateMutability": "nonpayable",
      "type": "function"
    },
    {
      "stateMutability": "payable",
      "type": "receive"
    }
  ],
  "bytecode": "0x60a0346200011557601f6200256138819003918201601f19168301916001600160401b038311848410176200011a57808492604094855283398101031262000115576200005a6020620000528362000130565b920162000130565b6001600160a01b039080821615620000fc5760805260018060a01b0319917314c9188071620abcd778a20f5b344c515ab9c0f983600a541617600a5573317383204e6406b61258cb53d535ae770b7a984f83600b541617600b5573d7ecf0bbe82717ead041eef0b9e777e1a7d577a083600c541617600c551690600554161760055560405161241b9081620001468239608051818181610b4e01526112130152f35b6040516335fdcccd60e21b815260006004820152602490fd5b600080fd5b634e487b7160e01b600052604160045260246000fd5b51906001600160a01b0382168203620001155756fe608080604052600436101561001d575b50361561001b57600080fd5b005b600090813560e01c90816301ffc9a714611d9057508063263596a514611d46578063272efc6914611d075780633aeac4e114611c0c57806351cff8d914611b6957806369d83ed114611b305780637dc91a0214611af357806385572ffb146111df57806395871c8f14610b7d578063b0f479a114610b38578063b2f8764314610aff578063b697f53114610ac3578063c5ec1c7a14610a87578063c82240bb14610a2b578063e3362d51146105e2578063e9982c391461052d578063f7683bbc1461027a578063fd3763ef146101325763ff46ed530361000f573461012f57602036600319011261012f576001600160401b03610118611e43565b168152600860205260408120805460ff1916905580f35b80fd5b503461012f578060031936011261012f57805b60065481101561027657600160ff600461015e84611e59565b50015416151514610178575b6101739061236b565b610145565b61018d600261018683611e59565b500161228e565b600b54604051634c8f60a360e01b815260206004820181905293929091849083906001600160a01b03168188816101c76024820188612390565b03925af191821561026b578592610233575b509281610229610173957f7f8c15ff47c06a016904047397e8933a03676bbe860121d4070b33d7608cc84894600361021088611e59565b5001556040805194859485528401526040830190612390565b0390a1905061016a565b9150928082813d8311610264575b61024b8183611ed8565b8101031261025f57905190926101736101d9565b600080fd5b503d610241565b6040513d87823e3d90fd5b5080f35b503461012f578060031936011261012f57805b6006548110156102765790816102a4600493611e59565b5060ff60019485920154161515146102c7575b6102c291925061236b565b61028d565b60036102d282611e59565b500154600b54604080516364b975db60e11b81526004810193909352602492918290849082906001600160a01b03165afa91821561052257849185936104ef575b508561031e85611e59565b5001548552600760205260408520956005938385890155600a88015561034385611e59565b505493600488015490808202821591838204148217156104dc5785106103c05750505050907ff7b2a02710587555e8088cb5d6a5e52b1468ddc5b8c44e8ec467726812208edf916103b460026102c29697015491604051938493846040919493926060820195825260208201520152565b0390a15b8291506102b7565b6002989293989382851b8381046004148317156104c9578610610427575050500154604080519182526020820193909352918201529192506102c2917f17c27c1a1d8499a9f8ed78294056bfb908efabe86085655ffdd026928ecb674790606090a16103b8565b8290969594961b918204861417156104b6576102c2969750821061044f575b505050506103b8565b7f9828062d5a194b52d5bc47302cbc7c1d9f19ecac0d17c48feb100d0cf396ad0d936104aa91600461048088611e59565b500160ff198154169055015491604051938493846040919493926060820195825260208201520152565b0390a138808080610446565b634e487b7160e01b875260116004528787fd5b634e487b7160e01b8a5260116004528a8afd5b634e487b7160e01b895260116004528489fd5b909250610514915060403d60401161051b575b61050c8183611ed8565b810190612278565b9138610313565b503d610502565b6040513d86823e3d90fd5b503461012f57602036600319011261012f57604061018091600435815260076020522060ff815491600181015490600281015460018060a01b0360038301541660048301546005840154600685015491600886015493600987015495600b600a890154980154986040519b8c5260208c015260408b015260608a0152608089015260a088015260c087015260e0860152610100850152610120840152818116151561014084015260081c161515610160820152f35b503461012f5760a036600319011261012f576001600160401b036084351161012f5736602360843501121561012f576001600160401b03608435600401351161012f573660246084356004013560051b60843501011161012f5760405160208101906106788161066a6044356024356004358791606093918352602083015260408201520190565b03601f198101835282611ed8565b51902060018060a01b03600b54169060206040518093634c8f60a360e01b82528260048301528186816106ba6024820160843560040135602460843501612174565b03925af1918215610a205783926109ec575b5080835260076020526106f0600160ff600b60408720015460081c1615151461220d565b600c546040516331a9108f60e11b8152606435600482015290602090829060249082906001600160a01b03165afa9081156105225784916109bd575b506001600160a01b0316330361096557825260076020526040822060043581556024356002820155604435600182015560038101336001600160601b0360a01b825416179055606435600682015561078d60843560040135600783016120e4565b60078101835260208320836084356024015b60843560040135821061080357505050600801557fcc6833fd9787745c083edfcc3ae70e4cd35ab78cf84f127388a790fd6ed17fbb604051606435815260406020820152806107fd6040820160843560040135602460843501612174565b0390a180f35b8035608435360360421901811215610961576001600160401b0360248260843501013511610961576084358101602481013536036044909101136109615761085d6024826084350101356108578654611fa9565b86611ffa565b86601f602483608435010135116001146108c75760019283926020928a906024836084350101356108b5575b5060001960843590920160240135600381901b9290921c191690841b1786555b0193019101909161079f565b60449150826084350101013538610889565b8488526020882090885b608435840160240135601f191681106109425750600193849360209391928592602492916084358301840135601f1981161061091a575b5050608435010135811b0186556108a9565b604460001960f8868660843501013560031b161c199184608435010101351690553880610908565b90916020600181926044868860843501010135815501930191016108d1565b8680fd5b60405162461bcd60e51b815260206004820152602a60248201527f596f75206d75737420626520746865206f776e6572206f662074686520696e666044820152696f726d6564205257412160b01b6064820152608490fd5b6109df915060203d6020116109e5575b6109d78183611ed8565b810190612259565b3861072c565b503d6109cd565b9091506020813d602011610a18575b81610a0860209383611ed8565b8101031261025f575190386106cc565b3d91506109fb565b6040513d85823e3d90fd5b503461012f57602036600319011261012f576004359060065482101561012f576080610a5683611e59565b5080549060018101549060ff6004600383015492015416916040519384526020840152604083015215156060820152f35b503461012f57602036600319011261012f576001600160401b03610aa9611e43565b168152600860205260408120805460ff1916600117905580f35b503461012f57602036600319011261012f576001600160a01b03610ae5611e2d565b168152600960205260408120805460ff1916600117905580f35b503461012f57602036600319011261012f576001600160a01b03610b21611e2d565b168152600960205260408120805460ff1916905580f35b503461012f578060031936011261012f576040517f00000000000000000000000000000000000000000000000000000000000000006001600160a01b03168152602090f35b503461012f57608036600319011261012f576040516020810190610bbd8161066a6044356024356004358791606093918352602083015260408201520190565b519020808252600760205260408220906008820154610bea600160ff600b86015460081c1615151461220d565b600b54604080516364b975db60e11b8152600481019390935290829060249082906001600160a01b03165afa90811561052257849085926111bd575b5081156111655760048401549182821180156110ea57156110af57816005860155600a8501551061103457600c5483906001600160a01b0316803b15611030576040516323b872dd60e01b8152336004820152306024820152606480356044830152909183918391829084905af180156110255761100d575b5050600c546040516331a9108f60e11b815260643560048201529290602090849060249082906001600160a01b03165afa928315610522578493610fec575b50610d02600760405192610cf184611eaa565b60643584528460208501520161228e565b604082015283606082015260016080820152600654600160401b811015610fd857806001610d339201600655611e59565b919091610fc4578051825560208101516001830155600282016040820151906020825192610d6184846120e4565b019087526020872087915b838310610ed757505050509060046080836060610da195015160038501550151151591019060ff801983541691151516179055565b60018060a01b03600c54166040519160208301526040820152606435606082015260608152608081018181106001600160401b03821117610ec1576040819052600a54600254630a30e37760e41b835267adecc60412ce25a560848501526001600160a01b0390811660a4850152606060c48501526020918391168187607f1987610e2f60e4820182611e08565b0301925af1801561052257610e92575b5050604080516001600160a01b03909216825260643560208301526004359082015260443560608201527f93bffd1bde7afe8c47a27012597f0dc2c5ccea5fc1323d424e13c21065d594e890608090a180f35b9060209182903d8411610eb9575b81610eaa91611ed8565b8101031261025f573880610e3f565b3d9150610ea0565b634e487b7160e01b600052604160045260246000fd5b80518051906001600160401b038211610fb057610ef8826108578654611fa9565b6020908b601f8411600114610f4357928060209360019693879692610f38575b5050600019600383901b1c191690841b1785555b01920192019190610d6c565b015190503880610f18565b85905260208c2091908c5b601f1985168110610f98575083602093600196938796938794601f19811610610f7f575b505050811b018555610f2c565b015160001960f88460031b161c19169055388080610f72565b91926020600181928685015181550194019201610f4e565b634e487b7160e01b8b52604160045260248bfd5b634e487b7160e01b85526004859052602485fd5b634e487b7160e01b85526041600452602485fd5b61100691935060203d6020116109e5576109d78183611ed8565b9138610cde565b61101690611ec5565b611021578238610c9f565b8280fd5b6040513d84823e3d90fd5b5080fd5b60405162461bcd60e51b815260206004820152604760248201527f54686520656e737572616e6365206d7573742068617665206174206c6561737460448201527f20352074696d6573207468652076616c7565206f66207468652076616c7565206064820152666e65656465642160c81b608482015260a490fd5b5090507f90d31678ec129d3863be095922ef7b97386bcca9b61e15d2d53347cddceeb0a792506040809250519060643582526020820152a180f35b60405162461bcd60e51b815260206004820152604760248201527f5468652076616c7565206f662074686520525741206e6565647320746f20626560448201527f2067726561746572207468616e2074686520656e737572616e636556616c75656064820152664e65656465642160c81b608482015260a490fd5b60405162461bcd60e51b815260206004820152602a60248201527f596f75206d75737420776169742074686520726573706f6e736520746f2062656044820152692072656365697665642160b01b6064820152608490fd5b90506111d8915060403d60401161051b5761050c8183611ed8565b9038610c26565b503461012f576003199060203683011261012f57600435916001600160401b0383116110305760a090833603011261012f577f00000000000000000000000000000000000000000000000000000000000000006001600160a01b03163303611adb576040519161124e83611eaa565b8060040135835260248101356001600160401b038116810361102157602084015260448101356001600160401b038111611021576112929060043691840101611f14565b604084015260648101356001600160401b038111611021576112ba9060043691840101611f14565b60608401526084810135906001600160401b0382116110215701366023820112156110305760048101356112ed81611f5b565b916112fb6040519384611ed8565b8183526024602084019260061b8201019036821161167c57602401915b818310611a875750505060808301528151815560608201518051810190602081818401930312611021576020810151906001600160401b038211611a83570181603f820112156110215760208101516113749291604001611f72565b9182516001600160401b038111611a6f57611390600154611fa9565b601f8111611a16575b506020601f82116001146119955783948293949261198a575b50508160011b916000199060031b1c1916176001555b6040516113df816113d881612034565b0382611ed8565b6060818051810103126110215760208101516114026060604084015193016120d7565b6040518060208101106001600160401b036020830111176119765760208101604052858152836005810204600514841517156119625760405193846101a08101106001600160401b036101a08701111761194e576005906101a086016040528786528760208701528760408701528760608701520260808501528560a08501528560c085015260e0840152846101008401528461012084015284610140840152801515610160840152600161018084015260018115151460001461176d575083526007602052604083208151815560208201516001820155604082015160028201556003810160018060a01b036060840151166001600160601b0360a01b8254161790556080820151600482015560a0820151600582015560c082015160068201556007810160e083015190602082519261153d84846120e4565b019086526020862086915b8383106116805750505050600b6101809161010084015160088201556101208401516009820155610140840151600a82015501916115996101608201511515849060ff801983541691151516179055565b0151815461ff00191690151560081b61ff00161790555b80516001600160401b0360208301511691604081015160208180518101031261167c57602001516001600160a01b038116919082900361167c5760600151908151820191602081818501940312611678576020810151906001600160401b038211610961570182603f82011215611678577fb1e312a29937cc11967b0e4a346fef1ae132424ebaba9dc6d90249dba053e87c9281604060206116559401519101611f72565b906116726040519283928352604060208401526040830190611e08565b0390a380f35b8580fd5b8480fd5b80518051906001600160401b038211611759576116a1826108578654611fa9565b6020908a601f84116001146116ec579280602093600196938796926116e1575b5050600019600383901b1c191690841b1785555b01920192019190611548565b0151905038806116c1565b85905260208b2091908b5b601f1985168110611741575083602093600196938796938794601f19811610611728575b505050811b0185556116d5565b015160001960f88460031b161c1916905538808061171b565b919260206001819286850151815501940192016116f7565b634e487b7160e01b8a52604160045260248afd5b9091501561177c575b506115b0565b8083526007602052600160ff600b60408620015460081c161515036119095780835260076020526040832091835b8260016117b683611e59565b500154146117fa57808360016117ce6117db94611e59565b500154146117e05761236b565b6117aa565b60046117eb82611e59565b5001805460ff1916905561236b565b50600c5460038401805460068601805494969550919391926001600160a01b03918216928892909116803b1561102157604051632142170760e11b81523060048201526001600160a01b0394909416602485015260448401919091528290606490829084905af180156118fe576118c4575b50916080917fe9c6e81492bc93fe089982a07565c4a3a6e0c968c5c00b0cd69a8dac9bf37b4993600183549301549160018060a01b03905416905491604051938452602084015260408301526060820152a138611776565b917fe9c6e81492bc93fe089982a07565c4a3a6e0c968c5c00b0cd69a8dac9bf37b499391956118f4608094611ec5565b959193509161186c565b6040513d88823e3d90fd5b60405162461bcd60e51b815260206004820152601d60248201527f54686973207065726d697373696f6e206469646e7420657869737473210000006044820152606490fd5b634e487b7160e01b87526041600452602487fd5b634e487b7160e01b86526011600452602486fd5b634e487b7160e01b86526041600452602486fd5b0151905038806113b2565b600184527fb10e2d527612073b26eecdfd717e6a320cf44b4afac2b0732d9fcbe2b7fa0cf690601f198316855b8181106119fe575095836001959697106119e5575b505050811b016001556113c8565b015160001960f88460031b161c191690553880806119d7565b9192602060018192868b0151815501940192016119c2565b611a5f90600185527fb10e2d527612073b26eecdfd717e6a320cf44b4afac2b0732d9fcbe2b7fa0cf6601f840160051c81019160208510611a65575b601f0160051c0190611fe3565b38611399565b9091508190611a52565b634e487b7160e01b83526041600452602483fd5b8380fd5b60408336031261167c57604051604081018181106001600160401b0382111761194e5760405283356001600160a01b0381168103610961579181604093602093528286013583820152815201920191611318565b6040516335fdcccd60e21b8152336004820152602490fd5b503461012f57602036600319011261012f5760ff60406020926001600160401b03611b1c611e43565b168152600884522054166040519015158152f35b503461012f57602036600319011261012f576001600160a01b03611b52611e2d565b166001600160601b0360a01b600254161760025580f35b503461012f57602036600319011261012f57611b83611e2d565b47908115611bfa578280808085855af13d15611bf5573d611ba381611ef9565b90611bb16040519283611ed8565b81528460203d92013e5b15611bc4578280f35b604051639d11f56360e01b81523360048201526001600160a01b039190911660248201526044810191909152606490fd5b611bbb565b604051630686827b60e51b8152600490fd5b503461012f57604036600319011261012f57611c26611e2d565b6001600160a01b03906024358281169190829003611a83576040516370a0823160e01b8152306004820152926020928385602481845afa9485156118fe578695611cd8575b508415611bfa57839286604492604051978895869463a9059cbb60e01b865216600485015260248401525af18015610a2057611ca5578280f35b81813d8311611cd1575b611cb98183611ed8565b8101031261103057611cca906120d7565b5038808280f35b503d611caf565b9094508381813d8311611d00575b611cf08183611ed8565b8101031261167857519338611c6b565b503d611ce6565b503461012f57602036600319011261012f5760209060ff906040906001600160a01b03611d32611e2d565b168152600984522054166040519015158152f35b503461012f578060031936011261012f575460405190611d7082611d6981612034565b0383611ed8565b611d8c6040519283928352604060208401526040830190611e08565b0390f35b9050346110305760203660031901126110305760043563ffffffff60e01b811680910361102157602092506385572ffb60e01b8114908115611dd4575b5015158152f35b6301ffc9a760e01b14905038611dcd565b60005b838110611df85750506000910152565b8181015183820152602001611de8565b90602091611e2181518092818552858086019101611de5565b601f01601f1916010190565b600435906001600160a01b038216820361025f57565b600435906001600160401b038216820361025f57565b600654811015611e94576005906006600052027ff652222313e28459528d920b65115c16c04f3efc82aaedc97be59f3f377c0d3f0190600090565b634e487b7160e01b600052603260045260246000fd5b60a081019081106001600160401b03821117610ec157604052565b6001600160401b038111610ec157604052565b90601f801991011681019081106001600160401b03821117610ec157604052565b6001600160401b038111610ec157601f01601f191660200190565b81601f8201121561025f57803590611f2b82611ef9565b92611f396040519485611ed8565b8284526020838301011161025f57816000926020809301838601378301015290565b6001600160401b038111610ec15760051b60200190565b90929192611f7f81611ef9565b91611f8d6040519384611ed8565b82948284528282011161025f576020611fa7930190611de5565b565b90600182811c92168015611fd9575b6020831014611fc357565b634e487b7160e01b600052602260045260246000fd5b91607f1691611fb8565b818110611fee575050565b60008155600101611fe3565b9190601f811161200957505050565b611fa7926000526020600020906020601f840160051c83019310611a6557601f0160051c0190611fe3565b9060009160019081549161204783611fa9565b808352928181169081156120ba575060011461206257505050565b80929394506000527fb10e2d527612073b26eecdfd717e6a320cf44b4afac2b0732d9fcbe2b7fa0cf6916000925b8484106120a257505060209250010190565b80546020858501810191909152909301928101612090565b915050602093945060ff929192191683830152151560051b010190565b5190811515820361025f57565b600160401b8211610ec15780549180825582811061210157505050565b600091825260209081832093840193015b83811061211f5750505050565b808361212d60019354611fa9565b8061213b575b505001612112565b601f808211851461215257505081555b8338612133565b61216b90848452868420920160051c8201858301611fe3565b8183555561214b565b8183526020600583901b84018101939192906000818401855b84831061219e575050505050505090565b90919293949596601f19808883030184528835601e198436030181121561025f57830186810190356001600160401b03811161025f57803603821361025f57838893601f83808796879660019a528686013760008582860101520116010199019301930191959493929061218d565b1561221457565b60405162461bcd60e51b815260206004820152601e60248201527f54686973207065726d697373696f6e206469646e2774206578697374732100006044820152606490fd5b9081602091031261025f57516001600160a01b038116810361025f5790565b919082604091031261025f576020825192015190565b9081549161229b83611f5b565b926040916122ab83519586611ed8565b81855260009081526020808220938291908188015b8584106122d05750505050505050565b81518386928954926122e184611fa9565b80825260019480861690811561234f5750600114612317575b50612309816001960382611ed8565b8152019701930192956122c0565b8b8a52838a20955089905b80821061233857508101830194506123096122fa565b865483830186015295850195889490910190612322565b60ff19168584015250151560051b8101830194506123096122fa565b600019811461237a5760010190565b634e487b7160e01b600052601160045260246000fd5b90815180825260208092019182818360051b82019501936000915b8483106123bb5750505050505090565b90919293949584806123d583856001950387528a51611e08565b98019301930191949392906123ab56fea26469706673582212209df7e9e0ee7c2bf530ca3f02c239223d76898966402691163ee25194c3ff6fe664736f6c63430008140033",
  "linkReferences": {},
  "deployedLinkReferences": {}
}