{
  "_format": "hh-sol-artifact-1",
  "contractName": "Horizon",
  "sourceName": "contracts/Horizon.sol",
  "abi": [
    {
      "inputs": [
        {
          "internalType": "address",
          "name": "_router",
          "type": "address"
        }
      ],
      "stateMutability": "nonpayable",
      "type": "constructor"
    },
    {
      "inputs": [
        {
          "internalType": "address",
          "name": "router",
          "type": "address"
        }
      ],
      "name": "InvalidRouter",
      "type": "error"
    },
    {
      "inputs": [
        {
          "internalType": "uint256",
          "name": "_numberOfTitlesSold",
          "type": "uint256"
        }
      ],
      "name": "ThereIsNoTitlesAvailableAnymore",
      "type": "error"
    },
    {
      "anonymous": false,
      "inputs": [
        {
          "indexed": false,
          "internalType": "uint256",
          "name": "totalAmountLate",
          "type": "uint256"
        }
      ],
      "name": "AmountLateWithInterest",
      "type": "event"
    },
    {
      "anonymous": false,
      "inputs": [
        {
          "indexed": false,
          "internalType": "uint256",
          "name": "amountWithInterests",
          "type": "uint256"
        }
      ],
      "name": "AmountToPay",
      "type": "event"
    },
    {
      "anonymous": false,
      "inputs": [
        {
          "indexed": false,
          "internalType": "uint256",
          "name": "_idTitle",
          "type": "uint256"
        },
        {
          "indexed": false,
          "internalType": "uint256",
          "name": "_contractId",
          "type": "uint256"
        },
        {
          "indexed": false,
          "internalType": "uint256",
          "name": "_drawNumber",
          "type": "uint256"
        },
        {
          "indexed": false,
          "internalType": "uint256",
          "name": "_idOfColateralTitle",
          "type": "uint256"
        },
        {
          "indexed": false,
          "internalType": "uint256",
          "name": "_idOfColateralContract",
          "type": "uint256"
        }
      ],
      "name": "ColateralTitleAdded",
      "type": "event"
    },
    {
      "anonymous": false,
      "inputs": [
        {
          "indexed": false,
          "internalType": "uint256",
          "name": "_idTitle",
          "type": "uint256"
        },
        {
          "indexed": false,
          "internalType": "uint256",
          "name": "_contractId",
          "type": "uint256"
        },
        {
          "indexed": false,
          "internalType": "uint256",
          "name": "_drawSelected",
          "type": "uint256"
        },
        {
          "indexed": false,
          "internalType": "address",
          "name": "_fujiReceiver",
          "type": "address"
        }
      ],
      "name": "CreatingPermission",
      "type": "event"
    },
    {
      "anonymous": false,
      "inputs": [
        {
          "indexed": false,
          "internalType": "address",
          "name": "_temporaryEnsurance",
          "type": "address"
        }
      ],
      "name": "EnsuranceUpdated",
      "type": "event"
    },
    {
      "anonymous": false,
      "inputs": [
        {
          "indexed": false,
          "internalType": "uint256",
          "name": "_idTitle",
          "type": "uint256"
        },
        {
          "indexed": false,
          "internalType": "uint256",
          "name": "_contractId",
          "type": "uint256"
        },
        {
          "indexed": false,
          "internalType": "uint256",
          "name": "_valueOfEnsurance",
          "type": "uint256"
        }
      ],
      "name": "EnsuranceValueNeededUpdate",
      "type": "event"
    },
    {
      "anonymous": false,
      "inputs": [
        {
          "indexed": false,
          "internalType": "uint256",
          "name": "_idTitle",
          "type": "uint256"
        },
        {
          "indexed": false,
          "internalType": "uint256",
          "name": "_contractId",
          "type": "uint256"
        },
        {
          "indexed": false,
          "internalType": "uint256",
          "name": "_installmentsPaid",
          "type": "uint256"
        }
      ],
      "name": "InstallmentPaid",
      "type": "event"
    },
    {
      "anonymous": false,
      "inputs": [
        {
          "indexed": false,
          "internalType": "uint256",
          "name": "_installmentsPaid",
          "type": "uint256"
        }
      ],
      "name": "LastInstallmentPaid",
      "type": "event"
    },
    {
      "anonymous": false,
      "inputs": [
        {
          "indexed": true,
          "internalType": "bytes32",
          "name": "messageId",
          "type": "bytes32"
        },
        {
          "indexed": true,
          "internalType": "uint64",
          "name": "sourceChainSelector",
          "type": "uint64"
        },
        {
          "indexed": false,
          "internalType": "address",
          "name": "sender",
          "type": "address"
        },
        {
          "indexed": false,
          "internalType": "string",
          "name": "text",
          "type": "string"
        }
      ],
      "name": "MessageReceived",
      "type": "event"
    },
    {
      "anonymous": false,
      "inputs": [
        {
          "indexed": false,
          "internalType": "uint256",
          "name": "_idTitle",
          "type": "uint256"
        },
        {
          "indexed": false,
          "internalType": "uint256",
          "name": "_drawNumber",
          "type": "uint256"
        },
        {
          "indexed": false,
          "internalType": "address",
          "name": "_winner",
          "type": "address"
        },
        {
          "indexed": false,
          "internalType": "uint256",
          "name": "_titleValue",
          "type": "uint256"
        }
      ],
      "name": "MonthlyWinnerPaid",
      "type": "event"
    },
    {
      "anonymous": false,
      "inputs": [
        {
          "indexed": false,
          "internalType": "uint256",
          "name": "_idTitle",
          "type": "uint256"
        },
        {
          "indexed": false,
          "internalType": "uint256",
          "name": "_drawNumber",
          "type": "uint256"
        },
        {
          "indexed": false,
          "internalType": "uint256",
          "name": "_randomValue",
          "type": "uint256"
        },
        {
          "indexed": false,
          "internalType": "uint256",
          "name": "_selectedContractId",
          "type": "uint256"
        },
        {
          "indexed": false,
          "internalType": "address",
          "name": "_winner",
          "type": "address"
        }
      ],
      "name": "MonthlyWinnerSelected",
      "type": "event"
    },
    {
      "anonymous": false,
      "inputs": [
        {
          "indexed": false,
          "internalType": "enum Horizon.MyTitleWithdraw",
          "name": "myTitleStatus",
          "type": "uint8"
        }
      ],
      "name": "MyTitleStatusUpdated",
      "type": "event"
    },
    {
      "anonymous": false,
      "inputs": [
        {
          "indexed": false,
          "internalType": "uint256",
          "name": "_investmentValue",
          "type": "uint256"
        },
        {
          "indexed": false,
          "internalType": "address",
          "name": "_protocolAddress",
          "type": "address"
        }
      ],
      "name": "NewInvestmentCreated",
      "type": "event"
    },
    {
      "anonymous": false,
      "inputs": [
        {
          "indexed": false,
          "internalType": "uint256",
          "name": "_titleId",
          "type": "uint256"
        },
        {
          "indexed": false,
          "internalType": "uint256",
          "name": "_scheduleId",
          "type": "uint256"
        },
        {
          "indexed": false,
          "internalType": "uint256",
          "name": "_monthlyValue",
          "type": "uint256"
        },
        {
          "indexed": false,
          "internalType": "uint256",
          "name": "_titleValue",
          "type": "uint256"
        }
      ],
      "name": "NewTitleCreated",
      "type": "event"
    },
    {
      "anonymous": false,
      "inputs": [
        {
          "indexed": false,
          "internalType": "uint256",
          "name": "_contractId",
          "type": "uint256"
        },
        {
          "indexed": false,
          "internalType": "address",
          "name": "_owner",
          "type": "address"
        }
      ],
      "name": "NewTitleSold",
      "type": "event"
    },
    {
      "anonymous": false,
      "inputs": [
        {
          "indexed": false,
          "internalType": "uint256",
          "name": "_nextDraw",
          "type": "uint256"
        }
      ],
      "name": "NextDraw",
      "type": "event"
    },
    {
      "anonymous": false,
      "inputs": [
        {
          "indexed": false,
          "internalType": "uint256",
          "name": "lateInstallments",
          "type": "uint256"
        }
      ],
      "name": "PaymentIsLate",
      "type": "event"
    },
    {
      "anonymous": false,
      "inputs": [
        {
          "indexed": false,
          "internalType": "uint256",
          "name": "_i",
          "type": "uint256"
        }
      ],
      "name": "PaymentLateNumber",
      "type": "event"
    },
    {
      "anonymous": false,
      "inputs": [
        {
          "indexed": false,
          "internalType": "uint256",
          "name": "_installmentsPaid",
          "type": "uint256"
        },
        {
          "indexed": false,
          "internalType": "uint256",
          "name": "_colateralTitleId",
          "type": "uint256"
        },
        {
          "indexed": false,
          "internalType": "address",
          "name": "_colateralTitleAddress",
          "type": "address"
        },
        {
          "indexed": false,
          "internalType": "address",
          "name": "colateralRWAAddress",
          "type": "address"
        },
        {
          "indexed": false,
          "internalType": "enum Horizon.MyTitleWithdraw",
          "name": "myTitleStatus",
          "type": "uint8"
        }
      ],
      "name": "ThereAreSomePendencies",
      "type": "event"
    },
    {
      "anonymous": false,
      "inputs": [
        {
          "indexed": false,
          "internalType": "uint256",
          "name": "_titlesAvailableForNextDraw",
          "type": "uint256"
        }
      ],
      "name": "ThisTitleHasBeenCanceled",
      "type": "event"
    },
    {
      "anonymous": false,
      "inputs": [
        {
          "indexed": false,
          "internalType": "enum Horizon.TitleStatus",
          "name": "status",
          "type": "uint8"
        }
      ],
      "name": "TitleStatusUpdated",
      "type": "event"
    },
    {
      "anonymous": false,
      "inputs": [
        {
          "indexed": false,
          "internalType": "bool",
          "name": "fulfilled",
          "type": "bool"
        },
        {
          "indexed": false,
          "internalType": "uint256[]",
          "name": "randomWords",
          "type": "uint256[]"
        },
        {
          "indexed": false,
          "internalType": "uint256",
          "name": "randomValue",
          "type": "uint256"
        }
      ],
      "name": "VRFAnswer",
      "type": "event"
    },
    {
      "inputs": [
        {
          "internalType": "uint256",
          "name": "_idTitle",
          "type": "uint256"
        },
        {
          "internalType": "uint256",
          "name": "_contractId",
          "type": "uint256"
        }
      ],
      "name": "addRWAColateral",
      "outputs": [],
      "stateMutability": "nonpayable",
      "type": "function"
    },
    {
      "inputs": [
        {
          "internalType": "address",
          "name": "_receiverAddress",
          "type": "address"
        }
      ],
      "name": "addReceiver",
      "outputs": [],
      "stateMutability": "nonpayable",
      "type": "function"
    },
    {
      "inputs": [
        {
          "internalType": "address",
          "name": "_sender",
          "type": "address"
        }
      ],
      "name": "addSender",
      "outputs": [],
      "stateMutability": "nonpayable",
      "type": "function"
    },
    {
      "inputs": [
        {
          "internalType": "uint64",
          "name": "_sourceChainSelector",
          "type": "uint64"
        }
      ],
      "name": "addSourceChain",
      "outputs": [],
      "stateMutability": "nonpayable",
      "type": "function"
    },
    {
      "inputs": [
        {
          "internalType": "uint256",
          "name": "_titleId",
          "type": "uint256"
        },
        {
          "internalType": "uint256",
          "name": "_contractId",
          "type": "uint256"
        },
        {
          "internalType": "uint256",
          "name": "_idOfColateralTitle",
          "type": "uint256"
        },
        {
          "internalType": "uint256",
          "name": "_idOfColateralContract",
          "type": "uint256"
        }
      ],
      "name": "addTitleAsColateral",
      "outputs": [],
      "stateMutability": "nonpayable",
      "type": "function"
    },
    {
      "inputs": [
        {
          "internalType": "uint256",
          "name": "titleId",
          "type": "uint256"
        }
      ],
      "name": "allTitles",
      "outputs": [
        {
          "internalType": "uint256",
          "name": "openSellingDate",
          "type": "uint256"
        },
        {
          "internalType": "uint256",
          "name": "closeSellingDate",
          "type": "uint256"
        },
        {
          "internalType": "uint256",
          "name": "paymentSchedule",
          "type": "uint256"
        },
        {
          "internalType": "uint256",
          "name": "nextDrawNumber",
          "type": "uint256"
        },
        {
          "internalType": "uint256",
          "name": "titleValue",
          "type": "uint256"
        },
        {
          "internalType": "uint256",
          "name": "installments",
          "type": "uint256"
        },
        {
          "internalType": "uint256",
          "name": "monthlyInvestiment",
          "type": "uint256"
        },
        {
          "internalType": "uint256",
          "name": "protocolFee",
          "type": "uint256"
        },
        {
          "internalType": "uint256",
          "name": "numberOfTitlesSold",
          "type": "uint256"
        },
        {
          "internalType": "uint256",
          "name": "totalValueReceived",
          "type": "uint256"
        },
        {
          "internalType": "uint256",
          "name": "totalValuePaid",
          "type": "uint256"
        },
        {
          "internalType": "uint256",
          "name": "titleCanceled",
          "type": "uint256"
        },
        {
          "internalType": "enum Horizon.TitleStatus",
          "name": "status",
          "type": "uint8"
        }
      ],
      "stateMutability": "view",
      "type": "function"
    },
    {
      "inputs": [
        {
          "internalType": "uint64",
          "name": "_titleId",
          "type": "uint64"
        },
        {
          "internalType": "bool",
          "name": "withdrawPeriod",
          "type": "bool"
        },
        {
          "internalType": "contract IERC20",
          "name": "_tokenAddress",
          "type": "address"
        }
      ],
      "name": "buyTitle",
      "outputs": [],
      "stateMutability": "nonpayable",
      "type": "function"
    },
    {
      "inputs": [
        {
          "components": [
            {
              "internalType": "bytes32",
              "name": "messageId",
              "type": "bytes32"
            },
            {
              "internalType": "uint64",
              "name": "sourceChainSelector",
              "type": "uint64"
            },
            {
              "internalType": "bytes",
              "name": "sender",
              "type": "bytes"
            },
            {
              "internalType": "bytes",
              "name": "data",
              "type": "bytes"
            },
            {
              "components": [
                {
                  "internalType": "address",
                  "name": "token",
                  "type": "address"
                },
                {
                  "internalType": "uint256",
                  "name": "amount",
                  "type": "uint256"
                }
              ],
              "internalType": "struct Client.EVMTokenAmount[]",
              "name": "destTokenAmounts",
              "type": "tuple[]"
            }
          ],
          "internalType": "struct Client.Any2EVMMessage",
          "name": "message",
          "type": "tuple"
        }
      ],
      "name": "ccipReceive",
      "outputs": [],
      "stateMutability": "nonpayable",
      "type": "function"
    },
    {
      "inputs": [
        {
          "internalType": "uint256",
          "name": "titleId",
          "type": "uint256"
        },
        {
          "internalType": "uint256",
          "name": "contractId",
          "type": "uint256"
        }
      ],
      "name": "colateralInfos",
      "outputs": [
        {
          "internalType": "address",
          "name": "colateralOwner",
          "type": "address"
        },
        {
          "internalType": "uint256",
          "name": "titleIdOfColateral",
          "type": "uint256"
        },
        {
          "internalType": "uint256",
          "name": "contractIdOfColateral",
          "type": "uint256"
        }
      ],
      "stateMutability": "view",
      "type": "function"
    },
    {
      "inputs": [
        {
          "internalType": "uint256",
          "name": "_opening",
          "type": "uint256"
        },
        {
          "internalType": "uint256",
          "name": "_closing",
          "type": "uint256"
        },
        {
          "internalType": "uint256",
          "name": "_participants",
          "type": "uint256"
        },
        {
          "internalType": "uint256",
          "name": "_value",
          "type": "uint256"
        }
      ],
      "name": "createTitle",
      "outputs": [],
      "stateMutability": "nonpayable",
      "type": "function"
    },
    {
      "inputs": [
        {
          "internalType": "uint256",
          "name": "titleId",
          "type": "uint256"
        },
        {
          "internalType": "uint256",
          "name": "drawNumber",
          "type": "uint256"
        }
      ],
      "name": "drawInfos",
      "outputs": [
        {
          "internalType": "uint256",
          "name": "idTitle",
          "type": "uint256"
        },
        {
          "internalType": "uint256",
          "name": "drawNumber",
          "type": "uint256"
        },
        {
          "internalType": "uint256",
          "name": "drawDate",
          "type": "uint256"
        },
        {
          "internalType": "uint256",
          "name": "totalParticipants",
          "type": "uint256"
        },
        {
          "internalType": "uint256",
          "name": "requestId",
          "type": "uint256"
        },
        {
          "internalType": "uint256",
          "name": "randomNumberVRF",
          "type": "uint256"
        },
        {
          "internalType": "uint256",
          "name": "selectedContractID",
          "type": "uint256"
        },
        {
          "internalType": "address",
          "name": "winner",
          "type": "address"
        }
      ],
      "stateMutability": "view",
      "type": "function"
    },
    {
      "inputs": [],
      "name": "getLastReceivedMessageDetails",
      "outputs": [
        {
          "internalType": "bytes32",
          "name": "messageId",
          "type": "bytes32"
        },
        {
          "internalType": "bytes",
          "name": "text",
          "type": "bytes"
        }
      ],
      "stateMutability": "view",
      "type": "function"
    },
    {
      "inputs": [],
      "name": "getRouter",
      "outputs": [
        {
          "internalType": "address",
          "name": "",
          "type": "address"
        }
      ],
      "stateMutability": "view",
      "type": "function"
    },
    {
      "inputs": [
        {
          "internalType": "uint256",
          "name": "_idTitle",
          "type": "uint256"
        }
      ],
      "name": "monthlyVRFWinner",
      "outputs": [],
      "stateMutability": "nonpayable",
      "type": "function"
    },
    {
      "inputs": [
        {
          "internalType": "uint256",
          "name": "_idTitle",
          "type": "uint256"
        },
        {
          "internalType": "uint256",
          "name": "_contractId",
          "type": "uint256"
        },
        {
          "internalType": "contract IERC20",
          "name": "_tokenAddress",
          "type": "address"
        }
      ],
      "name": "payInstallment",
      "outputs": [],
      "stateMutability": "nonpayable",
      "type": "function"
    },
    {
      "inputs": [
        {
          "internalType": "uint256",
          "name": "_idTitle",
          "type": "uint256"
        },
        {
          "internalType": "contract IERC20",
          "name": "_tokenAddress",
          "type": "address"
        }
      ],
      "name": "protocolWithdraw",
      "outputs": [],
      "stateMutability": "nonpayable",
      "type": "function"
    },
    {
      "inputs": [
        {
          "internalType": "uint256",
          "name": "_idTitle",
          "type": "uint256"
        }
      ],
      "name": "receiveVRFRandomNumber",
      "outputs": [],
      "stateMutability": "nonpayable",
      "type": "function"
    },
    {
      "inputs": [
        {
          "internalType": "uint256",
          "name": "_idTitle",
          "type": "uint256"
        },
        {
          "internalType": "uint256",
          "name": "_contractId",
          "type": "uint256"
        }
      ],
      "name": "refundColateral",
      "outputs": [],
      "stateMutability": "nonpayable",
      "type": "function"
    },
    {
      "inputs": [
        {
          "internalType": "address",
          "name": "_sender",
          "type": "address"
        }
      ],
      "name": "removeSender",
      "outputs": [],
      "stateMutability": "nonpayable",
      "type": "function"
    },
    {
      "inputs": [
        {
          "internalType": "uint64",
          "name": "_sourceChainSelector",
          "type": "uint64"
        }
      ],
      "name": "removelistSourceChain",
      "outputs": [],
      "stateMutability": "nonpayable",
      "type": "function"
    },
    {
      "inputs": [
        {
          "internalType": "uint256",
          "name": "titleId",
          "type": "uint256"
        },
        {
          "internalType": "uint256",
          "name": "drawNumber",
          "type": "uint256"
        },
        {
          "internalType": "uint256",
          "name": "paymentOrderOrRandomValue",
          "type": "uint256"
        }
      ],
      "name": "selectorVRF",
      "outputs": [
        {
          "internalType": "uint256",
          "name": "contractId",
          "type": "uint256"
        },
        {
          "internalType": "uint256",
          "name": "installmentNumber",
          "type": "uint256"
        },
        {
          "internalType": "uint256",
          "name": "paymentDate",
          "type": "uint256"
        },
        {
          "internalType": "address",
          "name": "payerAddress",
          "type": "address"
        },
        {
          "internalType": "address",
          "name": "user",
          "type": "address"
        },
        {
          "internalType": "uint256",
          "name": "amount",
          "type": "uint256"
        },
        {
          "internalType": "uint256",
          "name": "paymentDelay",
          "type": "uint256"
        },
        {
          "internalType": "bool",
          "name": "paid",
          "type": "bool"
        },
        {
          "internalType": "uint256",
          "name": "installmentsPaid",
          "type": "uint256"
        }
      ],
      "stateMutability": "view",
      "type": "function"
    },
    {
      "inputs": [
        {
          "internalType": "bytes4",
          "name": "interfaceId",
          "type": "bytes4"
        }
      ],
      "name": "supportsInterface",
      "outputs": [
        {
          "internalType": "bool",
          "name": "",
          "type": "bool"
        }
      ],
      "stateMutability": "pure",
      "type": "function"
    },
    {
      "inputs": [
        {
          "internalType": "uint256",
          "name": "titleId",
          "type": "uint256"
        },
        {
          "internalType": "uint256",
          "name": "contractId",
          "type": "uint256"
        }
      ],
      "name": "titleSoldInfos",
      "outputs": [
        {
          "internalType": "uint256",
          "name": "contractId",
          "type": "uint256"
        },
        {
          "internalType": "uint256",
          "name": "titleValue",
          "type": "uint256"
        },
        {
          "internalType": "uint256",
          "name": "installments",
          "type": "uint256"
        },
        {
          "internalType": "uint256",
          "name": "monthlyValue",
          "type": "uint256"
        },
        {
          "internalType": "uint256",
          "name": "periodLocked",
          "type": "uint256"
        },
        {
          "internalType": "address",
          "name": "titleOwner",
          "type": "address"
        },
        {
          "internalType": "uint256",
          "name": "installmentsPaid",
          "type": "uint256"
        },
        {
          "internalType": "uint256",
          "name": "drawSelected",
          "type": "uint256"
        },
        {
          "internalType": "uint256",
          "name": "colateralId",
          "type": "uint256"
        },
        {
          "internalType": "address",
          "name": "colateralTitleAddress",
          "type": "address"
        },
        {
          "internalType": "address",
          "name": "colateralRWAAddress",
          "type": "address"
        },
        {
          "internalType": "uint256",
          "name": "valueOfEnsuranceNeeded",
          "type": "uint256"
        },
        {
          "internalType": "enum Horizon.MyTitleWithdraw",
          "name": "myTitleStatus",
          "type": "uint8"
        },
        {
          "internalType": "bool",
          "name": "paid",
          "type": "bool"
        }
      ],
      "stateMutability": "view",
      "type": "function"
    },
    {
      "inputs": [
        {
          "internalType": "uint256",
          "name": "_titleId",
          "type": "uint256"
        }
      ],
      "name": "updateTitleStatus",
      "outputs": [],
      "stateMutability": "nonpayable",
      "type": "function"
    },
    {
      "inputs": [
        {
          "internalType": "uint256",
          "name": "_titleId",
          "type": "uint256"
        },
        {
          "internalType": "uint256",
          "name": "_contractId",
          "type": "uint256"
        }
      ],
      "name": "verifyLatePayments",
      "outputs": [],
      "stateMutability": "nonpayable",
      "type": "function"
    },
    {
      "inputs": [
        {
          "internalType": "address",
          "name": "",
          "type": "address"
        }
      ],
      "name": "whitelistedSenders",
      "outputs": [
        {
          "internalType": "bool",
          "name": "",
          "type": "bool"
        }
      ],
      "stateMutability": "view",
      "type": "function"
    },
    {
      "inputs": [
        {
          "internalType": "uint64",
          "name": "",
          "type": "uint64"
        }
      ],
      "name": "whitelistedSourceChains",
      "outputs": [
        {
          "internalType": "bool",
          "name": "",
          "type": "bool"
        }
      ],
      "stateMutability": "view",
      "type": "function"
    },
    {
      "inputs": [
        {
          "internalType": "uint256",
          "name": "_idTitle",
          "type": "uint256"
        },
        {
          "internalType": "uint256",
          "name": "_contractId",
          "type": "uint256"
        },
        {
          "internalType": "contract IERC20",
          "name": "_stablecoin",
          "type": "address"
        }
      ],
      "name": "winnerWithdraw",
      "outputs": [],
      "stateMutability": "nonpayable",
      "type": "function"
    }
  ],
  "bytecode": "0x60a0346200010857601f6200413c38819003918201601f19168301916001600160401b038311848410176200010d578084926020946040528339810103126200010857516001600160a01b038116808203620001085715620000ef57608052600060045560018060a01b0319733547951aaa367094afabcae24f123473ff502bfa81600a541617600a5573a75447c1a6dd04da5ceb791023fa7192cc577cfa81600b541617600b557355a5214740ce71c80b9f91390276a0ae0e06391181600c541617600c55339060075416176007556040516140189081620001248239608051818181610c6a01526113e50152f35b6040516335fdcccd60e21b815260006004820152602490fd5b600080fd5b634e487b7160e01b600052604160045260246000fdfe608080604052600436101561001357600080fd5b600090813560e01c90816301ffc9a714612a95575080632347865414612881578063263596a514612846578063272efc69146128075780632d7c0b7f1461251757806331ae0df6146124355780634991126d1461238c5780634c67469c146121305780634facbacb14611c9457806358a15a2e14611c7c578063643233e5146118aa57806369d83ed1146118715780637dc91a021461183457806385572ffb146113a75780638a12312c146112ea5780638f9fce70146110e95780639beaf73114610d6c578063ab92263114610ce7578063ad3b6da314610c99578063b0f479a114610c54578063b2f8764314610c09578063b697f53114610bbb578063ba658a44146107d9578063c5ec1c7a14610788578063d0ade9d5146104bf578063d762a160146101c0578063f2e7896b146101a55763ff46ed531461015557600080fd5b346101a25760203660031901126101a2576001600160401b03610176612bc6565b61018b60018060a01b03600754163314613e8f565b168152600260205260408120805460ff1916905580f35b80fd5b50346101a2576101bd6101b736612b9c565b91612d4c565b80f35b50346101a2576020806003193601126104bb5760043590818352600d815260408320600c81019283549160ff8316916101f883612b7c565b600483148080156104a8575b8015610495575b156104505790829188959493544211908161043f575b50156102715750505050600390837fb34436423c205503bb9de249902d7e3e7fc76197d9cec741c46e9e0dd6489f449454908360ff19831617905516176040519061026b81612b7c565b8152a180f35b60018296959496015442118061042c575b1561029b57505050505050600160ff1982541617905580f35b60018060a098959697981b03600a541692866003840154926044604051809781936301acb51d60e31b835260048301528660248301525afa9384156104215786946103ea575b506102eb81612b7c565b60018114918291826103dc575b8315610397575b50505060001461034b5750508054600260ff19821681179092556040517fb34436423c205503bb9de249902d7e3e7fc76197d9cec741c46e9e0dd6489f44955092161761026b81612b7c565b600891935001541561035f575b5050505080f35b7f2e24ed849df3be5edecca4a9280b775d8d82b800d0ebefaa298f3d61a0998a709360ff19169055604051908152a138808080610358565b6103a391929350612b7c565b816103c0575b50806103b8575b3880806102ff565b5081156103b0565b6103d09150600b83015490612d32565b600582015410386103a9565b6005850154821193506102f8565b955092508585813d811161041a575b6104038183612c28565b810103126104155787945192386102e1565b600080fd5b503d6103f9565b6040513d88823e3d90fd5b5061043683612b7c565b60038314610282565b905061044a84612b7c565b38610221565b60405162461bcd60e51b815260048101879052601860248201527f54686973207469746c6520616c726561647920656e64656400000000000000006044820152606490fd5b5061049f84612b7c565b6001841461020b565b506104b284612b7c565b60038414610204565b5080fd5b50346101a2576020806003193601126104bb5760043590818352600d815260408320600f8252604084206003820190815486528352604085209160018060a01b0380600b54169187600486015460246040518096819363d8a4676f60e01b835260048301525afa93841561077d578889948a966106cb575b50156106865760405180606081019560019687835260608b84015281518091528a608084019201908d5b898d838310610671575050505050876040830152037f6eed17f1838c49c44631282c96ef8d77984fda771e865bc74772b03c5da4bde791a187895260108752604089209380870192835495868c52895260408b20878c52895260408b20958760058a0155865460068a01556004870198868a541690600701906001600160601b0360a01b8254161790558a8c52600e8a5260408c2087548d528a5260408c20600701558554610610908b613a48565b600c019060ff19825416179055805461062890612cc2565b90555491549354169360405195865285015260408401526060830152608082015260a07f495707aadfdb79a8158bc4c70170204a5bd6402ce8d4f16af9b93d19f5b864b791a180f35b84518652879650948501949093019201610561565b60405162461bcd60e51b815260048101889052601960248201527f5652462072657175657374206e6f742066756c66696c6c6564000000000000006044820152606490fd5b94505093503d8089853e6106df8185612c28565b830193606084860312610779576106f5846133cd565b93878101516001600160401b0381116107755781019580601f8801121561077557865161072181612cab565b9761072f604051998a612c28565b8189528a808a019260051b820101928311610771578a809101915b838310610761575050505060400151949338610537565b82518152918101918b910161074a565b8c80fd5b8a80fd5b8880fd5b6040513d8a823e3d90fd5b50346101a25760203660031901126101a2576001600160401b036107aa612bc6565b6107bf60018060a01b03600754163314613e8f565b168152600260205260408120805460ff1916600117905580f35b50346101a25760603660031901126101a2576107f3612bc6565b60243590811515809203610ae557604435906001600160a01b0382168203610bb7576001600160401b0381168452600d60205260408420600360ff600c8301541661083d81612b7c565b03610b55576008810193845490600583015491828111610b1f57610862600191612cc2565b8088559103610b155760078301549187905b6108876004860154946006870154612d32565b9060405194856101c08101106001600160401b036101c088011117610b01576101c0860160405284865260208601526040850152606084015260808301523360a08301528660c08301528660e0830152866101008301528661012083015286610140830152866101608301526002610180830152866101a08301526001600160401b0384168752600e602052604087209087526020526101a0600c6040882083518155602084015160018201556040840151600282015560608401516003820155608084015160048201556005810160018060a01b0360a086015116906001600160601b0360a01b918282541617905560c0850151600683015560e0850151600783015561010085015160088301556009820160018060a01b036101208701511682825416179055600a82019060018060a01b036101408701511690825416179055610160840151600b82015501916109ee6101808201516109e881612b7c565b84612d1a565b0151815461ff00191690151560081b61ff0016179055835460058201548111610ae957508460018060a01b03600a5416916003600282015491015490833b15610ae55760449083604051958694859363560337d160e11b8552600485015260248401525af18015610ada57610aa9575b5091610a996040927f5462399704f0e380dbcb381163c0a1404e8b14097242551b2494b16157faa530946001600160401b0384549116612d4c565b548151908152336020820152a180f35b6001600160401b038195929511610ac65760405292610a99610a5e565b634e487b7160e01b82526041600452602482fd5b6040513d87823e3d90fd5b8280fd5b6024906040519063e88592e960e01b82526004820152fd5b634e487b7160e01b8b52604160045260248bfd5b8691600590610874565b60405162461bcd60e51b815260206004820152600e60248201526d5469746c6520736f6c646f75742160901b6044820152606490fd5b60405162461bcd60e51b815260206004820152603460248201527f54686973205469746c65206973206e6f7420617661696c61626c652e20436865604482015273636b20746865205469746c65207374617475732160601b6064820152608490fd5b8380fd5b50346101a25760203660031901126101a257610bd5612b48565b6007546001600160a01b039190610bef9083163314613e8f565b168152600360205260408120805460ff1916600117905580f35b50346101a25760203660031901126101a257610c23612b48565b6007546001600160a01b039190610c3d9083163314613e8f565b168152600360205260408120805460ff1916905580f35b50346101a257806003193601126101a2576040517f00000000000000000000000000000000000000000000000000000000000000006001600160a01b03168152602090f35b50346101a2576040606091610cad36612aea565b90825260126020528282209082526020522060018060a01b0381541690600260018201549101549060405192835260208301526040820152f35b50346101a257604061010091610cfc36612aea565b908252600f6020528282209082526020522080549060018101549060028101546003820154600483015490600584015492600685015494600760018060a01b039101541695604051978852602088015260408701526060860152608085015260a084015260c083015260e0820152f35b50346101a257602090816003193601126101a25760043591828252600d815260408220600381018054946005830192835487116110a457600a5460028201546040516314d8039960e11b815260048101829052602481018a90526001600160a01b03949285169391908881604481885afa908115611099578a91611068575b5042111561102d5787906044604051809681936301acb51d60e31b835260048301528d60248301525afa92831561077d578893610ffa575b508215610f9b57600b54604051630c9807d960e21b815260048101849052602481019a909a5260448a01849052979896978890889060649082908d9089165af1968715610f90578997610f60575b50600c019660ff19966004888a54161789558554936040519461010086018681106001600160401b03821117610f4c579160079593918d9897959360405284865283860181815260408a8189019342855260608a0195865260808a0196875260a08a019782895260c08b0199838b5260e08c019e8f528352600f8152838320918352522096518755516001870155516002860155516003850155516004840155516005830155516006820155019151166001600160601b0360a01b82541617905554905410610f3e578280f35b815416600217905538808280f35b634e487b7160e01b8d52604160045260248dfd5b9096508781813d8311610f89575b610f788183612c28565b81010312610779575195600c610e71565b503d610f6e565b6040513d8b823e3d90fd5b60405162461bcd60e51b815260048101889052603160248201527f5468657265206973206e6f207061727469636970616e74657320617661696c61604482015270626c6520666f722074686520647261772160781b6064820152608490fd5b9092508681813d8311611026575b6110128183612c28565b8101031261102257519138610e23565b8780fd5b503d611008565b60405162461bcd60e51b815260048101899052601360248201527249736e2774207468652074696d65207965742160681b6044820152606490fd5b90508881813d8311611092575b61107f8183612c28565b8101031261108e575138610deb565b8980fd5b503d611075565b6040513d8c823e3d90fd5b60405162461bcd60e51b815260048101869052601e60248201527f416c6c2074686520647261777320616c7265616479206f6375727265642100006044820152606490fd5b50346101a2576110f836612aea565b908083526020600e81526040842083855281526040842060078101805491611121831515613ae9565b60058101546001600160a01b0393908416330361128f5787600b6111f99388600289958c604080518981019061117b8161116d87878b8791606093918352602083015260408201520190565b03601f198101835282612c28565b5190209781519561118b87612bdc565b865289860192835281860193845288815260118a5220935184555160018401555191015501546040519183830152604082015260016060820152606081526111d281612c0d565b84600c541685600654168a604051809681958294630a30e37760e41b845260048401613b8d565b03925af180156112845761124f575b50907f28c64511bad94645265b4ac8c503dd3b588ca95f2bfb17598135c3e6cdc4be829460809493925491600654169260405194855284015260408301526060820152a180f35b928092919493813d831161127d575b6112688183612c28565b810103126112795790919238611208565b8580fd5b503d61125e565b6040513d89823e3d90fd5b60405162461bcd60e51b815260048101869052602d60248201527f4f6e6c792074686520647261772077696e6e65722063616e206372656174652060448201526c61207065726d697373696f6e2160981b6064820152608490fd5b50346101a25760203660031901126101a25760406101a0916004358152600d6020522080549060018101549060028101546003820154600483015460058401546006850154600786015491600887015493600988015495600a8901549760ff600c600b8c01549b0154169a6040519c8d5260208d015260408c015260608b015260808a015260a089015260c088015260e087015261010086015261012085015261014084015261016083015261139f81612b7c565b610180820152f35b50346101a25760031960203682018113610ae557600435916001600160401b03908184116118305760a0908436030112610bb7576001600160a01b037f000000000000000000000000000000000000000000000000000000000000000081163303611818576040519360a08501858110848211176118045760405280600401358552602493848201359484861686036110225781870195865260448301358581116107795761145c9060043691860101612c64565b9660408101978852606484013586811161108e576114809060043691870101612c64565b936060820194855260848101359087821161077557013660238201121561108e576004810135906114b082612cab565b916114be6040519384612c28565b808352848684019160061b83010191368311610771578501905b8282106117a7575050506080820152805189558351805181019084818184019303126107755784810151908882116117a357019080603f83011215610775578482015161152792604001613379565b918251908782116117915750806001936115418554613edb565b601f8111611723575b508590601f83116001146116a6578c9261169b575b5050600019600383901b1c191690831b1782555b61157b613f15565b60608180518101031261108e5780840151879387606061159d60408601613fce565b9401519316918c526011865260408c209081548d52600e875260408d209101548c52855260408b2091806008840155600a8301826001600160601b0360a01b82541617905515159081611691575b5061167d575b505195511695518181805181010312611022578161160f9101613fce565b91519081518201818382031261077957818301519586116107795761166161167793837fb1e312a29937cc11967b0e4a346fef1ae132424ebaba9dc6d90249dba053e87c9881604095019201016133b0565b9181519586951685528401526040830190612b23565b0390a380f35b600c01805460ff19166003179055386115f1565b90501515386115eb565b01519050388061155f565b858d528593507fb10e2d527612073b26eecdfd717e6a320cf44b4afac2b0732d9fcbe2b7fa0cf69190601f1984168e5b8982821061170d57505084116116f4575b505050811b018255611573565b015160001960f88460031b161c191690553880806116e7565b83850151865589979095019493840193016116d6565b909150848c527fb10e2d527612073b26eecdfd717e6a320cf44b4afac2b0732d9fcbe2b7fa0cf6601f840160051c810191878510611787575b84939291601f88920160051c01915b82811061177957505061154a565b8e815585945087910161176b565b909150819061175c565b634e487b7160e01b8b5260416004528afd5b8b80fd5b6040823603126107715760405190604082018281108c8211176117f1576040528235908a821682036117ed578289926040945282850135838201528152019101906114d8565b8e80fd5b634e487b7160e01b8f526041600452878ffd5b634e487b7160e01b87526041600452602487fd5b6040516335fdcccd60e21b8152336004820152602490fd5b8480fd5b50346101a25760203660031901126101a25760ff60406020926001600160401b0361185d612bc6565b168152600284522054166040519015158152f35b50346101a25760203660031901126101a2576001600160a01b03611893612b48565b166001600160601b0360a01b600654161760065580f35b50346101a2576118b936612b5e565b8392919315611c1f5782821115611bc3578315611b6b57611922936020836118e2600454612cc2565b80600455838960018060a01b03600a5416926040519a8b9586948593630a52975960e31b8552600485016040919493926060820195825260208201520152565b03925af1948515610421578695611b37575b50670de0b6b3a764000091828102928184041490151715611b23576119598183612cfa565b916119648282612cfa565b93600585029480860460051490151715611b0f57604051956101a087018781106001600160401b03821117611afb57936064937f89c4c2329efcd15ed5ec8cc7dd2e4c2103edd8b1d7e9e17e76da38d7b83ade67999793611aae979360809a9760405287526020870152876040870152600160608701528886015260a085015260c08401520460e08201528561010082015285610120820152856101408201528561016082015260046101808201526004548652600d602052600c61018060408820928051845560208101516001850155604081015160028501556060810151600385015586810151600485015560a0810151600585015560c0810151600685015560e0810151600785015561010081015160088501556101208101516009850155610140810151600a850155610160810151600b850155015191611aa883612b7c565b01612d1a565b60045490818552600d602052611ad1604086206007600682015491015490612d32565b828652600d602052600460408720015491604051938452602084015260408301526060820152a180f35b634e487b7160e01b8a52604160045260248afd5b634e487b7160e01b88526011600452602488fd5b634e487b7160e01b86526011600452602486fd5b9094506020813d602011611b63575b81611b5360209383612c28565b8101031261127957519338611934565b3d9150611b46565b60405162461bcd60e51b815260206004820152602a60248201527f4d7573742073657420746865206e756d626572206f6620746f74616c207061726044820152697469636970616e74732160b01b6064820152608490fd5b60405162461bcd60e51b815260206004820152602e60248201527f4d7573742053656c6563742061206461746520746f2073746f7020746f20736560448201526d6c6c20746865207469746c65732160901b6064820152608490fd5b60405162461bcd60e51b815260206004820152602f60248201527f4d7573742053656c6563742061206461746520746f20737461727420746f207360448201526e656c6c20746865207469746c65732160881b6064820152608490fd5b50346101a2576101bd611c8e36612aea565b90613bbd565b50346101a257611ca336612b9c565b90828452602091600d83526040852091600e84526040862090865283526040852093600585019360018060a01b03928386541633148015612123575b156120b857831694611cf2861515613e4f565b600c87019360ff855416611d0581612b7c565b6003810361205a57600489015480611fcf575b5060068901549060028a015482148015611fc2575b8015611fa5575b15611f3757505060248982600a541660405192838092638c83ddd360e01b82528c60048301525afa90811561109957611d7a916001918c91611f12575b50151514613426565b600880546001600160a01b031916881790556040516370a0823160e01b815230600482015283816024818b5afa908115611099578a91611ee5575b506001890197885480921061077557835460405163a9059cbb60e01b81529084166001600160a01b03166004820152602481019290925284908290818d816044810103925af1801561109957611e77575b50927fa15c2435fada31fa58c0eb6a516d9b0df54ed70f48f3680ba2b527955c5797c192611e7297608093600a98979660078c015491541691549260405194855284015260408301526060820152a15b61010061ff001982541617905501916001835491015490612d32565b905580f35b9195949390928083813d8311611ede575b611e928183612c28565b8101031261108e57611e7297600a977fa15c2435fada31fa58c0eb6a516d9b0df54ed70f48f3680ba2b527955c5797c195611ece6080966133cd565b5093969798509350975092611e06565b503d611e88565b90508381813d8311611f0b575b611efc8183612c28565b8101031261108e575138611db5565b503d611ef2565b611f2e91503d808e833e611f268183612c28565b8101906133da565b91505038611d71565b9091611e729850600a9796955060a09350937f09878aa34b75479da70e37bce4455679dae86d7580d3cf362e48f2abb18baacd9460088b01548160098d015416918a8d0154169260405195865285015260408401526060830152611f9a81612b7c565b6080820152a1611e56565b5082600a8b01541615158015611d34575060088a01541515611d34565b5060088a01541515611d2d565b60038801541115611fe05738611d18565b60405162461bcd60e51b815260048101859052604660248201527f596f752063616e277420776974686472617720617420746869732074696d652e60448201527f20596f7572206c6f636b20706572696f6420656e6473206f6e207468652036206064820152656d6f6e74682160d01b608482015260a490fd5b60405162461bcd60e51b815260048101859052603060248201527f54686973207469746c6520646f6e2774206861766520746865207065726d697360448201526f73696f6e20746f20776974686472617760801b6064820152608490fd5b60405162461bcd60e51b815260048101839052603c60248201527f4d73672e73656e646572206d7573742062652074686520636f6e74726163742060448201527f4f776e6572206f72207468652070726f746f636f6c206f776e657221000000006064820152608490fd5b5083600754163314611cdf565b50346101a25760403660031901126101a2576024356001600160a01b0381811691829003610ae55761216781600754163314613e8f565b6004358352602090600d8252604084209060ff600c8301541661218981612b7c565b6002811490811561237a575b5015611830576121d560096121c16121b66008860154600b87015490612d3f565b600486015490612ce7565b930154926121cf8185612d3f565b93612d3f565b8211612327576121e6841515613e4f565b600a541690604051638c83ddd360e01b81528460048201528581602481865afa908115610421576122239160019188916123135750151514613426565b600880546001600160a01b031916851790556040516370a0823160e01b81523060048201528381602481885afa801561042157829187916122e2575b50106118305760405163a9059cbb60e01b81526001600160a01b0392909216600483015260248201529181908390604490829087905af180156122d7576122a4578280f35b81813d83116122d0575b6122b88183612c28565b810103126104bb576122c9906133cd565b5038808280f35b503d6122ae565b6040513d85823e3d90fd5b809250858092503d831161230c575b6122fb8183612c28565b81010312611279578190513861225f565b503d6122f1565b611f2e91503d808a833e611f268183612c28565b60405162461bcd60e51b815260048101849052602560248201527f5f616d6f756e742063616e27742065786365656420746865207469746c652076604482015264616c75652160d81b6064820152608490fd5b905061238581612b7c565b1538612195565b50346101a25760603660031901126101a257604061012091600435815260106020528181206024358252602052818120604435825260205220805490600181015490600281015460018060a01b038060038401541690600484015416600584015491600685015493600860ff60078801541696015496604051988952602089015260408801526060870152608086015260a085015260c0840152151560e0830152610100820152f35b50346101a25761244436612aea565b908252600e6020526040822090825260205260409020805490600181015460028201549160038101546004820154600160a01b60019003908160058501541660068501546007860154916008870154938560098901541695600a8901541696600b89015498600c01549a60ff8c169a604051809e81526020015260408d015260608c015260808b015260a08a015260c089015260e08801526101008701526101208601526101408501526101608401526124fd81612b7c565b61018083015260081c60ff1615156101a08201526101c090f35b50346101a25761252636612b5e565b90808594939552602094600e865260408520838652865260408520848652600e87526040862082875287526040862090600782019161256783541515613ae9565b60058101546001600160a01b03906125829082163314613b35565b6005830192612595338386541614613b35565b600181015490600b8401549081831061278c5780600360066125bc93015491015490612ce7565b918160011b918083046002149015171561277857821491821561276d575b5050156126a257928992866009848b60028c8f9a7f50243003e9d7ef147493229d55468984fe3256e1b1cf63b435c46d06331682a49f9d9b60a09f9d9a90600c60409201600360ff1982541617905581519561263587612bdc565b3387528d8701998a52828701948552815260128d528181208c82528d5220935116956001600160601b038f1b96878554161784555160018401555191015501308282541617905530908254161790555491604051958652850152604084015260608301526080820152a180f35b60405162461bcd60e51b8152600481018b9052608b60248201527f416c6c2074686520696e7374616c6c6d656e74732066726f6d2074686520636f60448201527f6c61746572616c206d7573742068617665206265656e2070616964206f72206160648201527f74206c65617374207468652076616c75652070616964206d757374206265206760848201527f726561746572207468656e2074776f2074696d65732074686520656e7375726560a48201526a15985b1d5953995959195960aa1b60c482015260e490fd5b1015905038806125da565b634e487b7160e01b8c52601160045260248cfd5b60405162461bcd60e51b8152600481018e9052604760248201527f54686520636f6c61746572616c20746f74616c2076616c7565206d757374206260448201527f652067726561746572207468616e2074756520656e737572616e636556616c756064820152661953995959195960ca1b608482015260a490fd5b50346101a25760203660031901126101a25760209060ff906040906001600160a01b03612832612b48565b168152600384522054166040519015158152f35b50346101a257806003193601126101a25754612860613f15565b9061287d6040519283928352604060208401526040830190612b23565b0390f35b50346101a25761289036612aea565b91818152600d6020526040812090600193600883019360038401955b8554811015612a9157818452600e602052604084208185526020526040842060018060a01b03600a5416600287015460208a54916044604051809581936301933c3960e61b835260048301528560248301525afa918215611284578792612a58575b50906002612926849360066129739796015490612d3f565b10801590612a44575b156129f85750600c80820160ff1990818154169055600b92838a016129548154612cc2565b9055600881015415908115916129d3575b50612978575b505050612cc2565b6128ac565b858852601260205260408820878952602052604088209160018301548952600d6020526040892092600e602052600260408b209101548a526020526040892001908154169055016129c98154612cc2565b905538808061296b565b600a01546001600160a01b0316151590816129f0575b5038612965565b9050386129e9565b4211612a05575b50612cc2565b600c01600160ff198254161790557f5238eef763c91b9905201192c7b588678d655a1fec573e5434470d30d3f975be602060405160018152a1386129ff565b50610258612a528242612d3f565b1161292f565b9091506020813d602011612a89575b81612a7460209383612c28565b81010312612a85575190600261290e565b8680fd5b3d9150612a67565b8380f35b9050346104bb5760203660031901126104bb5760043563ffffffff60e01b8116809103610ae557602092506385572ffb60e01b8114908115612ad9575b5015158152f35b6301ffc9a760e01b14905038612ad2565b6040906003190112610415576004359060243590565b60005b838110612b135750506000910152565b8181015183820152602001612b03565b90602091612b3c81518092818552858086019101612b00565b601f01601f1916010190565b600435906001600160a01b038216820361041557565b60809060031901126104155760043590602435906044359060643590565b60051115612b8657565b634e487b7160e01b600052602160045260246000fd5b60609060031901126104155760043590602435906044356001600160a01b03811681036104155790565b600435906001600160401b038216820361041557565b606081019081106001600160401b03821117612bf757604052565b634e487b7160e01b600052604160045260246000fd5b608081019081106001600160401b03821117612bf757604052565b90601f801991011681019081106001600160401b03821117612bf757604052565b6001600160401b038111612bf757601f01601f191660200190565b81601f8201121561041557803590612c7b82612c49565b92612c896040519485612c28565b8284526020838301011161041557816000926020809301838601378301015290565b6001600160401b038111612bf75760051b60200190565b6000198114612cd15760010190565b634e487b7160e01b600052601160045260246000fd5b81810292918115918404141715612cd157565b8115612d04570490565b634e487b7160e01b600052601260045260246000fd5b90612d2481612b7c565b60ff80198354169116179055565b91908201809211612cd157565b91908203918211612cd157565b80600052600d6020526040600020600e60205260406000208360005260205260406000209360ff600c83015416612d8281612b7c565b60018114908115613365575b50156133205760ff600c86015416612da581612b7c565b6002811490811561330b575b81156132f7575b50156104155760068501549060058301548210156132a35781158015929061329a5760018101809111612cd157905b60018060a01b03600a5416602060028601546044604051809481936301933c3960e61b835260048301528760248301525afa90811561311357600091613268575b506000938142119081613260575b501561321d57612e469042612d3f565b8060055580613150575b50505b6006860154906003840154918281101580613144575b801561311f575b612f49575b50505050600684612eee92827fd6985739ec9552d19c3572fc03d8cc0f929e20de244eaa8d01c1786d61fd177a970154600283015414612f21575b6003838301549101541480612f07575b612ef3575b612ecf8585613a48565b0154604051938493846040919493926060820195825260208201520152565b0390a1565b600c8101805460ff19166002179055612ec5565b50600160ff600c83015416612f1b81612b7c565b14612ec0565b600c8201805460ff19166003179055600882015415612eb057612f448686613bbd565b612eb0565b60058881015490546040519590916001600160a01b03166001600160401b03610120880190811190881117612bf7576101208701604052898752846020880152426040880152336060880152608087015260a086015260c0850152600160e0850152610100840152602060018060a01b03600a5416926044600287015460405195869384926301acb51d60e31b8452600484015260248301525afa918215613113576000926130d8575b50926006927fd6985739ec9552d19c3572fc03d8cc0f929e20de244eaa8d01c1786d61fd177a9792612eee9587600052601060205260406000209060005260205260406000209060005260205260086101006040600020928051845560208101516001850155604081015160028501556003840160018060a01b03606083015116906001600160601b0360a01b9182825416179055600485019060018060a01b036080840151169082541617905560a0810151600585015560c0810151878501556007840160e0820151151560ff801983541691161790550151910155928196612e75565b92969150926020833d60201161310b575b816130f660209383612c28565b81010312610415579151909591926006612ff3565b3d91506130e9565b6040513d6000823e3d90fd5b50600183148061313c575b8015612e705750600788015415612e70565b50801561312a565b50600788015415612e69565b600a54600286015460038a0154604051632b18775560e01b8152600481019490945260248401919091526044830152909350602090849060649082906000906001600160a01b03165af1928315613113576000936131e7575b506131e090837f57d559aaa778ae17e20a31e208d5763cb05667142a48b6098af5fb106b0ce8d96020604051838152a18787613467565b3880612e50565b9092506020813d602011613215575b8161320360209383612c28565b810103126104155751916131e06131a9565b3d91506131f6565b50915061325b6003870154927f57d559aaa778ae17e20a31e208d5763cb05667142a48b6098af5fb106b0ce8d96020604051868152a1838787613467565b612e53565b905038612e36565b90506020813d602011613292575b8161328360209383612c28565b81010312610415575138612e28565b3d9150613276565b50600190612de7565b60405162461bcd60e51b815260206004820152602660248201527f596f7520616c7265616479207061696420616c6c2074686520696e7374616c6c6044820152656d656e74732160d01b6064820152608490fd5b6003915061330481612b7c565b1438612db8565b905061331681612b7c565b6001811490612db1565b60405162461bcd60e51b815260206004820152601760248201527f436865636b20746865207469746c6520737461747573210000000000000000006044820152606490fd5b6003915061337281612b7c565b1438612d8e565b9092919261338681612c49565b916133946040519384612c28565b8294828452828201116104155760206133ae930190612b00565b565b9080601f830112156104155781516133ca92602001613379565b90565b5190811515820361041557565b90606082820312610415578151906001600160401b038211610415576134019183016133b0565b60208201519092906001600160a01b03811681036104155760406133ca9193016133cd565b1561342d57565b60405162461bcd60e51b8152602060048201526012602482015271546f6b656e206e6f7420616c6c6f7765642160701b6044820152606490fd5b9092919281600052600e602052604060002090600052602052604060002090600052600d60205260406000209181546008840154106139f15760ff600c830154166134b181612b7c565b8015908115916139dc575b501561395c576001600160a01b0316801561391f57600a54604051638c83ddd360e01b815260048101839052602492916000908290859082906001600160a01b03165afa9081156131135761351e9160019160009161390a5750151514613426565b600880546001600160a01b03191682179055600383015485106138d6576040516370a0823160e01b81523360048201526020818481855afa80156131135786916000916138a1575b501061386657602060449160405192838092636eb1769f60e11b825233600483015230878301525afa8015613113578591600091613831575b50106137d05750806006600492016135b78154612cc2565b9055015461371b576000602061361e600984018054906135dc60068701548093612d32565b90556008546040516323b872dd60e01b81523360048201523060248201526044810192909252909384926001600160a01b039092169183919082906064820190565b03925af18015613113576136d9575b50600854600a54600690920154613693936020936001600160a01b0390811693169161365891612d3f565b6040516323b872dd60e01b81523360048201526001600160a01b03909316602484015260448301529092839190829060009082906064820190565b03925af18015613113576136a45750565b6020813d6020116136d1575b816136bd60209383612c28565b81010312610415576136ce906133cd565b50565b3d91506136b0565b906020823d602011613713575b816136f360209383612c28565b81010312610415576136939261370a6020936133cd565b5092509061362d565b3d91506136e6565b61373c6009820180549061373460068501548093612d32565b905583612d3f565b156137865760085460068201546040516323b872dd60e01b815233600482015230602482015260448101919091529060209082906001600160a01b0316816000816064810161361e565b506008546040516323b872dd60e01b81523360048201523060248201526044810192909252602090829060649082906000906001600160a01b03165af18015613113576136a45750565b60849060346040519162461bcd60e51b8352602060048401528201527f596f75206d75737420617070726f76652074686520636f6e747261637420746f604482015273207472616e736665722074686520746f6b656e7360601b6064820152fd5b9150506020813d60201161385e575b8161384d60209383612c28565b81010312610415578490513861359f565b3d9150613840565b60405162461bcd60e51b81526020600482015260148184015273496e73756666696369656e742062616c616e636560601b6044820152606490fd5b9150506020813d6020116138ce575b816138bd60209383612c28565b810103126104155785905138613566565b3d91506138b0565b60405162461bcd60e51b815260206004820152600d818401526c57726f6e672076616c7565212160981b6044820152606490fd5b611f2e91503d806000833e611f268183612c28565b60405162461bcd60e51b8152602060048201526015602482015274456e746572206120746f6b656e206164647265737360581b6044820152606490fd5b60405162461bcd60e51b815260206004820152604c60248201527f796f7572207469746c6520616c72656164792068617665206265656e2066696e60448201527f616c697a6564206f722063616e63656c65642e20506c6561736520636865636b60648201526b103a34329039ba30ba3ab99760a11b608482015260a490fd5b600491506139e981612b7c565b1415386134bc565b60405162461bcd60e51b815260206004820152602960248201527f456e74657220612076616c696420636f6e747261637420496420666f722074686044820152686973205469746c652160b81b6064820152608490fd5b907f0612a8a5548125c3db9f13b41025df2c888d69f8a0351889cd94bd21a45dd34b91612eee600b6000838152600d6020526040812090600e60205260408120868252602052613aa5604082209260068085015491015490612ce7565b6001830154808210613ad6575050828201550154604051938493846040919493926060820195825260208201520152565b613ae09250612d3f565b82820155612ecf565b15613af057565b60405162461bcd60e51b815260206004820152601e60248201527f596f7520686176656e2774206265656e2073656c6563746564207965742100006044820152606490fd5b15613b3c57565b60405162461bcd60e51b815260206004820152602360248201527f4f6e6c7920746865206f776e65722063616e20616464206120636f6c61746572604482015262616c2160e81b6064820152608490fd5b67ccf0a31a221f3c9b81526001600160a01b0390911660208201526060604082018190526133ca92910190612b23565b90600090828252602090600e825260409081842081855283528184209060068201546002830154148015613df957600c830190600160ff835460081c16151503613d97578080613d81575b15613cd957505090600b849596613c969593613c4560078501549161116d8851938492898401968791606093918352602083015260408201520190565b519020910154835191838301528382015285606082015260608152613c6981612c0d565b60018060a01b0380600c54169060065416878551809781958294630a30e37760e41b845260048401613b8d565b03925af1908115613cd05750613cab57505050565b813d8311613cc9575b613cbe8183612c28565b810103126101a25750565b503d613cb4565b513d85823e3d90fd5b909694939281613d73575b50613cf2575b505050505050565b600593855260128352818520908552825280842093815194613d1386612bdc565b60018060a01b0393848254168752600260018301549283838a01520154918488019283528352600e81528383209151835252209251169101906001600160601b0360a01b825416179055600460ff19825416179055388080808080613cea565b600891500154151538613ce4565b50600a8401546001600160a01b03161515613c08565b845162461bcd60e51b815260048101879052603560248201527f596f752063616e27742072657472696576652074686520636f6c61746572616c604482015274206265666f7265207468652077697468647261772160581b6064820152608490fd5b835162461bcd60e51b815260048101869052602960248201527f416c6c2074686520696e7374616c6c6d656e7473206d7573742068617665206260448201526865656e20706169642160b81b6064820152608490fd5b15613e5657565b60405162461bcd60e51b8152602060048201526011602482015270151bdad95b881b9bdd08185b1b1bddd959607a1b6044820152606490fd5b15613e9657565b60405162461bcd60e51b815260206004820152601d60248201527f5468652063616c6c6572206d75737420626520746865206f776e6572210000006044820152606490fd5b90600182811c92168015613f0b575b6020831014613ef557565b634e487b7160e01b600052602260045260246000fd5b91607f1691613eea565b60405190600082600191825492613f2b84613edb565b80845293818116908115613fac5750600114613f4f575b506133ae92500383612c28565b600081815291507fb10e2d527612073b26eecdfd717e6a320cf44b4afac2b0732d9fcbe2b7fa0cf65b848310613f9157506133ae935050810160200138613f42565b81935090816020925483858a01015201910190918592613f78565b9050602092506133ae94915060ff191682840152151560051b82010138613f42565b51906001600160a01b03821682036104155756fea2646970667358221220fd63395447e08b1cc7077a5a55b72f8992a61404e05b34c3772663f750386e6864736f6c63430008140033",
  "linkReferences": {},
  "deployedLinkReferences": {}
}