{
  "_format": "hh-sol-artifact-1",
  "contractName": "Horizon",
  "sourceName": "contracts/Horizon.sol",
  "abi": [
    {
      "inputs": [
        {
          "internalType": "address",
          "name": "_router",
          "type": "address"
        }
      ],
      "stateMutability": "nonpayable",
      "type": "constructor"
    },
    {
      "inputs": [
        {
          "internalType": "address",
          "name": "router",
          "type": "address"
        }
      ],
      "name": "InvalidRouter",
      "type": "error"
    },
    {
      "anonymous": false,
      "inputs": [
        {
          "indexed": false,
          "internalType": "uint256",
          "name": "totalAmountLate",
          "type": "uint256"
        }
      ],
      "name": "AmountLateWithInterest",
      "type": "event"
    },
    {
      "anonymous": false,
      "inputs": [
        {
          "indexed": false,
          "internalType": "uint256",
          "name": "amountWithInterests",
          "type": "uint256"
        }
      ],
      "name": "AmountToPay",
      "type": "event"
    },
    {
      "anonymous": false,
      "inputs": [
        {
          "indexed": false,
          "internalType": "uint256",
          "name": "_idTitle",
          "type": "uint256"
        },
        {
          "indexed": false,
          "internalType": "uint256",
          "name": "_contractId",
          "type": "uint256"
        },
        {
          "indexed": false,
          "internalType": "uint256",
          "name": "_drawNumber",
          "type": "uint256"
        },
        {
          "indexed": false,
          "internalType": "uint256",
          "name": "_idOfColateralTitle",
          "type": "uint256"
        },
        {
          "indexed": false,
          "internalType": "uint256",
          "name": "_idOfColateralContract",
          "type": "uint256"
        }
      ],
      "name": "ColateralTitleAdded",
      "type": "event"
    },
    {
      "anonymous": false,
      "inputs": [
        {
          "indexed": false,
          "internalType": "uint256",
          "name": "_idTitle",
          "type": "uint256"
        },
        {
          "indexed": false,
          "internalType": "uint256",
          "name": "_contractId",
          "type": "uint256"
        },
        {
          "indexed": false,
          "internalType": "uint256",
          "name": "_drawSelected",
          "type": "uint256"
        },
        {
          "indexed": false,
          "internalType": "address",
          "name": "_fujiReceiver",
          "type": "address"
        }
      ],
      "name": "CreatingPermission",
      "type": "event"
    },
    {
      "anonymous": false,
      "inputs": [
        {
          "indexed": false,
          "internalType": "address",
          "name": "_temporaryEnsurance",
          "type": "address"
        }
      ],
      "name": "EnsuranceUpdated",
      "type": "event"
    },
    {
      "anonymous": false,
      "inputs": [
        {
          "indexed": false,
          "internalType": "uint256",
          "name": "_idTitle",
          "type": "uint256"
        },
        {
          "indexed": false,
          "internalType": "uint256",
          "name": "_contractId",
          "type": "uint256"
        },
        {
          "indexed": false,
          "internalType": "uint256",
          "name": "_valueOfEnsurance",
          "type": "uint256"
        }
      ],
      "name": "EnsuranceValueNeededUpdate",
      "type": "event"
    },
    {
      "anonymous": false,
      "inputs": [
        {
          "indexed": false,
          "internalType": "uint256",
          "name": "_idTitle",
          "type": "uint256"
        },
        {
          "indexed": false,
          "internalType": "uint256",
          "name": "_contractId",
          "type": "uint256"
        },
        {
          "indexed": false,
          "internalType": "uint256",
          "name": "_installmentsPaid",
          "type": "uint256"
        }
      ],
      "name": "InstallmentPaid",
      "type": "event"
    },
    {
      "anonymous": false,
      "inputs": [
        {
          "indexed": false,
          "internalType": "uint256",
          "name": "_installmentsPaid",
          "type": "uint256"
        }
      ],
      "name": "LastInstallmentPaid",
      "type": "event"
    },
    {
      "anonymous": false,
      "inputs": [
        {
          "indexed": true,
          "internalType": "bytes32",
          "name": "messageId",
          "type": "bytes32"
        },
        {
          "indexed": true,
          "internalType": "uint64",
          "name": "sourceChainSelector",
          "type": "uint64"
        },
        {
          "indexed": false,
          "internalType": "address",
          "name": "sender",
          "type": "address"
        },
        {
          "indexed": false,
          "internalType": "string",
          "name": "text",
          "type": "string"
        }
      ],
      "name": "MessageReceived",
      "type": "event"
    },
    {
      "anonymous": false,
      "inputs": [
        {
          "indexed": false,
          "internalType": "uint256",
          "name": "_idTitle",
          "type": "uint256"
        },
        {
          "indexed": false,
          "internalType": "uint256",
          "name": "_drawNumber",
          "type": "uint256"
        },
        {
          "indexed": false,
          "internalType": "address",
          "name": "_winner",
          "type": "address"
        },
        {
          "indexed": false,
          "internalType": "uint256",
          "name": "_titleValue",
          "type": "uint256"
        }
      ],
      "name": "MonthlyWinnerPaid",
      "type": "event"
    },
    {
      "anonymous": false,
      "inputs": [
        {
          "indexed": false,
          "internalType": "uint256",
          "name": "_idTitle",
          "type": "uint256"
        },
        {
          "indexed": false,
          "internalType": "uint256",
          "name": "_drawNumber",
          "type": "uint256"
        },
        {
          "indexed": false,
          "internalType": "uint256",
          "name": "_randomValue",
          "type": "uint256"
        },
        {
          "indexed": false,
          "internalType": "uint256",
          "name": "_selectedContractId",
          "type": "uint256"
        },
        {
          "indexed": false,
          "internalType": "address",
          "name": "_winner",
          "type": "address"
        }
      ],
      "name": "MonthlyWinnerSelected",
      "type": "event"
    },
    {
      "anonymous": false,
      "inputs": [
        {
          "indexed": false,
          "internalType": "enum Horizon.MyTitleWithdraw",
          "name": "myTitleStatus",
          "type": "uint8"
        }
      ],
      "name": "MyTitleStatusUpdated",
      "type": "event"
    },
    {
      "anonymous": false,
      "inputs": [
        {
          "indexed": false,
          "internalType": "uint256",
          "name": "_investmentValue",
          "type": "uint256"
        },
        {
          "indexed": false,
          "internalType": "address",
          "name": "_protocolAddress",
          "type": "address"
        }
      ],
      "name": "NewInvestmentCreated",
      "type": "event"
    },
    {
      "anonymous": false,
      "inputs": [
        {
          "indexed": false,
          "internalType": "uint256",
          "name": "_titleId",
          "type": "uint256"
        },
        {
          "indexed": false,
          "internalType": "uint256",
          "name": "_scheduleId",
          "type": "uint256"
        },
        {
          "indexed": false,
          "internalType": "uint256",
          "name": "_monthlyValue",
          "type": "uint256"
        },
        {
          "indexed": false,
          "internalType": "uint256",
          "name": "_titleValue",
          "type": "uint256"
        }
      ],
      "name": "NewTitleCreated",
      "type": "event"
    },
    {
      "anonymous": false,
      "inputs": [
        {
          "indexed": false,
          "internalType": "uint256",
          "name": "_contractId",
          "type": "uint256"
        },
        {
          "indexed": false,
          "internalType": "address",
          "name": "_owner",
          "type": "address"
        }
      ],
      "name": "NewTitleSold",
      "type": "event"
    },
    {
      "anonymous": false,
      "inputs": [
        {
          "indexed": false,
          "internalType": "uint256",
          "name": "_nextDraw",
          "type": "uint256"
        }
      ],
      "name": "NextDraw",
      "type": "event"
    },
    {
      "anonymous": false,
      "inputs": [
        {
          "indexed": false,
          "internalType": "uint256",
          "name": "lateInstallments",
          "type": "uint256"
        }
      ],
      "name": "PaymentIsLate",
      "type": "event"
    },
    {
      "anonymous": false,
      "inputs": [
        {
          "indexed": false,
          "internalType": "uint256",
          "name": "_i",
          "type": "uint256"
        }
      ],
      "name": "PaymentLateNumber",
      "type": "event"
    },
    {
      "anonymous": false,
      "inputs": [
        {
          "indexed": false,
          "internalType": "uint256",
          "name": "_installmentsPaid",
          "type": "uint256"
        },
        {
          "indexed": false,
          "internalType": "uint256",
          "name": "_colateralTitleId",
          "type": "uint256"
        },
        {
          "indexed": false,
          "internalType": "address",
          "name": "_colateralReceiptAddress",
          "type": "address"
        },
        {
          "indexed": false,
          "internalType": "address",
          "name": "_nftAddress",
          "type": "address"
        },
        {
          "indexed": false,
          "internalType": "enum Horizon.MyTitleWithdraw",
          "name": "myTitleStatus",
          "type": "uint8"
        }
      ],
      "name": "ThereAreSomePendencies",
      "type": "event"
    },
    {
      "anonymous": false,
      "inputs": [
        {
          "indexed": false,
          "internalType": "uint256",
          "name": "_titlesAvailableForNextDraw",
          "type": "uint256"
        }
      ],
      "name": "ThisTitleHasBeenCanceled",
      "type": "event"
    },
    {
      "anonymous": false,
      "inputs": [
        {
          "indexed": false,
          "internalType": "enum Horizon.TitleStatus",
          "name": "status",
          "type": "uint8"
        }
      ],
      "name": "TitleStatusUpdated",
      "type": "event"
    },
    {
      "anonymous": false,
      "inputs": [
        {
          "indexed": false,
          "internalType": "bool",
          "name": "fulfilled",
          "type": "bool"
        },
        {
          "indexed": false,
          "internalType": "uint256[]",
          "name": "randomWords",
          "type": "uint256[]"
        },
        {
          "indexed": false,
          "internalType": "uint256",
          "name": "randomValue",
          "type": "uint256"
        }
      ],
      "name": "VRFAnswer",
      "type": "event"
    },
    {
      "inputs": [
        {
          "internalType": "uint256",
          "name": "_idTitle",
          "type": "uint256"
        },
        {
          "internalType": "uint256",
          "name": "_contractId",
          "type": "uint256"
        }
      ],
      "name": "addRWAColateral",
      "outputs": [],
      "stateMutability": "nonpayable",
      "type": "function"
    },
    {
      "inputs": [
        {
          "internalType": "address",
          "name": "_receiverAddress",
          "type": "address"
        }
      ],
      "name": "addReceiver",
      "outputs": [],
      "stateMutability": "nonpayable",
      "type": "function"
    },
    {
      "inputs": [
        {
          "internalType": "address",
          "name": "_sender",
          "type": "address"
        }
      ],
      "name": "addSender",
      "outputs": [],
      "stateMutability": "nonpayable",
      "type": "function"
    },
    {
      "inputs": [
        {
          "internalType": "uint64",
          "name": "_sourceChainSelector",
          "type": "uint64"
        }
      ],
      "name": "addSourceChain",
      "outputs": [],
      "stateMutability": "nonpayable",
      "type": "function"
    },
    {
      "inputs": [
        {
          "internalType": "uint256",
          "name": "_titleId",
          "type": "uint256"
        },
        {
          "internalType": "uint256",
          "name": "_contractId",
          "type": "uint256"
        },
        {
          "internalType": "uint256",
          "name": "_idOfColateralTitle",
          "type": "uint256"
        },
        {
          "internalType": "uint256",
          "name": "_idOfColateralContract",
          "type": "uint256"
        }
      ],
      "name": "addTitleAsColateral",
      "outputs": [],
      "stateMutability": "nonpayable",
      "type": "function"
    },
    {
      "inputs": [
        {
          "internalType": "uint256",
          "name": "titleId",
          "type": "uint256"
        }
      ],
      "name": "allTitles",
      "outputs": [
        {
          "internalType": "uint256",
          "name": "openSellingDate",
          "type": "uint256"
        },
        {
          "internalType": "uint256",
          "name": "closeSellingDate",
          "type": "uint256"
        },
        {
          "internalType": "uint256",
          "name": "paymentSchedule",
          "type": "uint256"
        },
        {
          "internalType": "uint256",
          "name": "nextDrawNumber",
          "type": "uint256"
        },
        {
          "internalType": "uint256",
          "name": "titleValue",
          "type": "uint256"
        },
        {
          "internalType": "uint256",
          "name": "installments",
          "type": "uint256"
        },
        {
          "internalType": "uint256",
          "name": "monthlyInvestiment",
          "type": "uint256"
        },
        {
          "internalType": "uint256",
          "name": "protocolFee",
          "type": "uint256"
        },
        {
          "internalType": "uint256",
          "name": "numberOfTitlesSold",
          "type": "uint256"
        },
        {
          "internalType": "uint256",
          "name": "totalValueReceived",
          "type": "uint256"
        },
        {
          "internalType": "uint256",
          "name": "totalValuePaid",
          "type": "uint256"
        },
        {
          "internalType": "uint256",
          "name": "titleCanceled",
          "type": "uint256"
        },
        {
          "internalType": "enum Horizon.TitleStatus",
          "name": "status",
          "type": "uint8"
        }
      ],
      "stateMutability": "view",
      "type": "function"
    },
    {
      "inputs": [
        {
          "internalType": "uint64",
          "name": "_titleId",
          "type": "uint64"
        },
        {
          "internalType": "bool",
          "name": "withdrawPeriod",
          "type": "bool"
        },
        {
          "internalType": "contract IERC20",
          "name": "_tokenAddress",
          "type": "address"
        }
      ],
      "name": "buyTitle",
      "outputs": [],
      "stateMutability": "nonpayable",
      "type": "function"
    },
    {
      "inputs": [
        {
          "components": [
            {
              "internalType": "bytes32",
              "name": "messageId",
              "type": "bytes32"
            },
            {
              "internalType": "uint64",
              "name": "sourceChainSelector",
              "type": "uint64"
            },
            {
              "internalType": "bytes",
              "name": "sender",
              "type": "bytes"
            },
            {
              "internalType": "bytes",
              "name": "data",
              "type": "bytes"
            },
            {
              "components": [
                {
                  "internalType": "address",
                  "name": "token",
                  "type": "address"
                },
                {
                  "internalType": "uint256",
                  "name": "amount",
                  "type": "uint256"
                }
              ],
              "internalType": "struct Client.EVMTokenAmount[]",
              "name": "destTokenAmounts",
              "type": "tuple[]"
            }
          ],
          "internalType": "struct Client.Any2EVMMessage",
          "name": "message",
          "type": "tuple"
        }
      ],
      "name": "ccipReceive",
      "outputs": [],
      "stateMutability": "nonpayable",
      "type": "function"
    },
    {
      "inputs": [
        {
          "internalType": "uint256",
          "name": "titleId",
          "type": "uint256"
        },
        {
          "internalType": "uint256",
          "name": "contractId",
          "type": "uint256"
        }
      ],
      "name": "colateralInfos",
      "outputs": [
        {
          "internalType": "address",
          "name": "colateralOwner",
          "type": "address"
        },
        {
          "internalType": "uint256",
          "name": "titleIdOfColateral",
          "type": "uint256"
        },
        {
          "internalType": "uint256",
          "name": "contractIdOfColateral",
          "type": "uint256"
        }
      ],
      "stateMutability": "view",
      "type": "function"
    },
    {
      "inputs": [
        {
          "internalType": "uint256",
          "name": "_opening",
          "type": "uint256"
        },
        {
          "internalType": "uint256",
          "name": "_closing",
          "type": "uint256"
        },
        {
          "internalType": "uint256",
          "name": "_participants",
          "type": "uint256"
        },
        {
          "internalType": "uint256",
          "name": "_value",
          "type": "uint256"
        }
      ],
      "name": "createTitle",
      "outputs": [],
      "stateMutability": "nonpayable",
      "type": "function"
    },
    {
      "inputs": [
        {
          "internalType": "uint256",
          "name": "titleId",
          "type": "uint256"
        },
        {
          "internalType": "uint256",
          "name": "drawNumber",
          "type": "uint256"
        }
      ],
      "name": "drawInfos",
      "outputs": [
        {
          "internalType": "uint256",
          "name": "idTitle",
          "type": "uint256"
        },
        {
          "internalType": "uint256",
          "name": "drawNumber",
          "type": "uint256"
        },
        {
          "internalType": "uint256",
          "name": "drawDate",
          "type": "uint256"
        },
        {
          "internalType": "uint256",
          "name": "totalParticipants",
          "type": "uint256"
        },
        {
          "internalType": "uint256",
          "name": "requestId",
          "type": "uint256"
        },
        {
          "internalType": "uint256",
          "name": "randomNumberVRF",
          "type": "uint256"
        },
        {
          "internalType": "uint256",
          "name": "selectedContractID",
          "type": "uint256"
        },
        {
          "internalType": "address",
          "name": "winner",
          "type": "address"
        }
      ],
      "stateMutability": "view",
      "type": "function"
    },
    {
      "inputs": [],
      "name": "getLastReceivedMessageDetails",
      "outputs": [
        {
          "internalType": "bytes32",
          "name": "messageId",
          "type": "bytes32"
        },
        {
          "internalType": "bytes",
          "name": "text",
          "type": "bytes"
        }
      ],
      "stateMutability": "view",
      "type": "function"
    },
    {
      "inputs": [],
      "name": "getRouter",
      "outputs": [
        {
          "internalType": "address",
          "name": "",
          "type": "address"
        }
      ],
      "stateMutability": "view",
      "type": "function"
    },
    {
      "inputs": [
        {
          "internalType": "uint256",
          "name": "_idTitle",
          "type": "uint256"
        }
      ],
      "name": "monthlyVRFWinner",
      "outputs": [],
      "stateMutability": "nonpayable",
      "type": "function"
    },
    {
      "inputs": [
        {
          "internalType": "uint256",
          "name": "_idTitle",
          "type": "uint256"
        },
        {
          "internalType": "uint256",
          "name": "_contractId",
          "type": "uint256"
        },
        {
          "internalType": "uint256",
          "name": "_installmentNumber",
          "type": "uint256"
        },
        {
          "internalType": "contract IERC20",
          "name": "_tokenAddress",
          "type": "address"
        }
      ],
      "name": "payInstallment",
      "outputs": [],
      "stateMutability": "nonpayable",
      "type": "function"
    },
    {
      "inputs": [
        {
          "internalType": "uint256",
          "name": "_idTitle",
          "type": "uint256"
        },
        {
          "internalType": "contract IERC20",
          "name": "_tokenAddress",
          "type": "address"
        }
      ],
      "name": "protocolWithdraw",
      "outputs": [],
      "stateMutability": "nonpayable",
      "type": "function"
    },
    {
      "inputs": [
        {
          "internalType": "uint256",
          "name": "_idTitle",
          "type": "uint256"
        }
      ],
      "name": "receiveVRFRandomNumber",
      "outputs": [],
      "stateMutability": "nonpayable",
      "type": "function"
    },
    {
      "inputs": [
        {
          "internalType": "uint256",
          "name": "_idTitle",
          "type": "uint256"
        },
        {
          "internalType": "uint256",
          "name": "_contractId",
          "type": "uint256"
        }
      ],
      "name": "refundColateral",
      "outputs": [],
      "stateMutability": "nonpayable",
      "type": "function"
    },
    {
      "inputs": [
        {
          "internalType": "address",
          "name": "_sender",
          "type": "address"
        }
      ],
      "name": "removeSender",
      "outputs": [],
      "stateMutability": "nonpayable",
      "type": "function"
    },
    {
      "inputs": [
        {
          "internalType": "uint64",
          "name": "_sourceChainSelector",
          "type": "uint64"
        }
      ],
      "name": "removelistSourceChain",
      "outputs": [],
      "stateMutability": "nonpayable",
      "type": "function"
    },
    {
      "inputs": [
        {
          "internalType": "uint256",
          "name": "titleId",
          "type": "uint256"
        },
        {
          "internalType": "uint256",
          "name": "drawNumber",
          "type": "uint256"
        },
        {
          "internalType": "uint256",
          "name": "paymentOrder",
          "type": "uint256"
        }
      ],
      "name": "selectorVRF",
      "outputs": [
        {
          "internalType": "uint256",
          "name": "contractId",
          "type": "uint256"
        },
        {
          "internalType": "uint256",
          "name": "installmentNumber",
          "type": "uint256"
        },
        {
          "internalType": "uint256",
          "name": "paymentDate",
          "type": "uint256"
        },
        {
          "internalType": "address",
          "name": "payerAddress",
          "type": "address"
        },
        {
          "internalType": "address",
          "name": "user",
          "type": "address"
        },
        {
          "internalType": "uint256",
          "name": "amount",
          "type": "uint256"
        },
        {
          "internalType": "uint256",
          "name": "paymentDelay",
          "type": "uint256"
        },
        {
          "internalType": "bool",
          "name": "paid",
          "type": "bool"
        },
        {
          "internalType": "uint256",
          "name": "installmentsPaid",
          "type": "uint256"
        }
      ],
      "stateMutability": "view",
      "type": "function"
    },
    {
      "inputs": [
        {
          "internalType": "bytes4",
          "name": "interfaceId",
          "type": "bytes4"
        }
      ],
      "name": "supportsInterface",
      "outputs": [
        {
          "internalType": "bool",
          "name": "",
          "type": "bool"
        }
      ],
      "stateMutability": "pure",
      "type": "function"
    },
    {
      "inputs": [
        {
          "internalType": "uint256",
          "name": "titleId",
          "type": "uint256"
        },
        {
          "internalType": "uint256",
          "name": "contractId",
          "type": "uint256"
        }
      ],
      "name": "titleSoldInfos",
      "outputs": [
        {
          "internalType": "uint256",
          "name": "contractId",
          "type": "uint256"
        },
        {
          "internalType": "uint256",
          "name": "titleValue",
          "type": "uint256"
        },
        {
          "internalType": "uint256",
          "name": "installments",
          "type": "uint256"
        },
        {
          "internalType": "uint256",
          "name": "monthlyValue",
          "type": "uint256"
        },
        {
          "internalType": "uint256",
          "name": "periodLocked",
          "type": "uint256"
        },
        {
          "internalType": "address",
          "name": "titleOwner",
          "type": "address"
        },
        {
          "internalType": "uint256",
          "name": "installmentsPaid",
          "type": "uint256"
        },
        {
          "internalType": "uint256",
          "name": "drawSelected",
          "type": "uint256"
        },
        {
          "internalType": "uint256",
          "name": "colateralId",
          "type": "uint256"
        },
        {
          "internalType": "address",
          "name": "colateralTitleAddress",
          "type": "address"
        },
        {
          "internalType": "address",
          "name": "colateralRWAAddress",
          "type": "address"
        },
        {
          "internalType": "uint256",
          "name": "valueOfEnsuranceNeeded",
          "type": "uint256"
        },
        {
          "internalType": "enum Horizon.MyTitleWithdraw",
          "name": "myTitleStatus",
          "type": "uint8"
        },
        {
          "internalType": "bool",
          "name": "paid",
          "type": "bool"
        }
      ],
      "stateMutability": "view",
      "type": "function"
    },
    {
      "inputs": [
        {
          "internalType": "uint256",
          "name": "_titleId",
          "type": "uint256"
        }
      ],
      "name": "updateTitleStatus",
      "outputs": [],
      "stateMutability": "nonpayable",
      "type": "function"
    },
    {
      "inputs": [
        {
          "internalType": "uint256",
          "name": "_titleId",
          "type": "uint256"
        },
        {
          "internalType": "uint256",
          "name": "_contractId",
          "type": "uint256"
        }
      ],
      "name": "verifyLatePayments",
      "outputs": [],
      "stateMutability": "nonpayable",
      "type": "function"
    },
    {
      "inputs": [
        {
          "internalType": "address",
          "name": "",
          "type": "address"
        }
      ],
      "name": "whitelistedSenders",
      "outputs": [
        {
          "internalType": "bool",
          "name": "",
          "type": "bool"
        }
      ],
      "stateMutability": "view",
      "type": "function"
    },
    {
      "inputs": [
        {
          "internalType": "uint64",
          "name": "",
          "type": "uint64"
        }
      ],
      "name": "whitelistedSourceChains",
      "outputs": [
        {
          "internalType": "bool",
          "name": "",
          "type": "bool"
        }
      ],
      "stateMutability": "view",
      "type": "function"
    },
    {
      "inputs": [
        {
          "internalType": "uint256",
          "name": "_idTitle",
          "type": "uint256"
        },
        {
          "internalType": "uint256",
          "name": "_contractId",
          "type": "uint256"
        },
        {
          "internalType": "contract IERC20",
          "name": "_stablecoin",
          "type": "address"
        }
      ],
      "name": "winnerWithdraw",
      "outputs": [],
      "stateMutability": "nonpayable",
      "type": "function"
    }
  ],
  "bytecode": "0x60a0346200012657601f6200428938819003918201601f19168301916001600160401b038311848410176200012b578084926020946040528339810103126200012657516001600160a01b0381168082036200012657156200010d57608052600060045560018060a01b031973e4e7e811d79877f6838c9fdee5a06aa1e1e263ca81600b541617600b5573a75447c1a6dd04da5ceb791023fa7192cc577cfa81600c541617600c55731a33edf5e0d0a3c23f1d04d1ce61ae51c1e892ac81600d541617600d557355a5214740ce71c80b9f91390276a0ae0e06391181600e541617600e55339060085416176008556040516141479081620001428239608051818181610d3b01526113c40152f35b6040516335fdcccd60e21b815260006004820152602490fd5b600080fd5b634e487b7160e01b600052604160045260246000fdfe608080604052600436101561001357600080fd5b60003560e01c90816301ffc9a71461299d57508063234786541461279e578063263596a514612761578063272efc69146127225780632d7c0b7f1461244857806331ae0df6146123655780634991126d146122b55780634c67469c1461205e5780634facbacb14611c4257806358a15a2e14611c2b578063643233e51461187c57806369d83ed1146118425780637dc91a021461180357806385572ffb146113875780638a12312c146112c95780638f9fce70146110d65780639beaf73114610e45578063ab92263114610dbc578063ad3b6da314610d6a578063b0f479a114610d25578063b2f8764314610cd9578063b697f53114610c8a578063ba658a44146107bb578063c39622f814610785578063c5ec1c7a14610733578063d0ade9d514610470578063d762a160146101a75763ff46ed531461015357600080fd5b346101a25760203660031901126101a2576001600160401b03610174612ab8565b61018960018060a01b03600854163314613fbe565b166000908152600260205260409020805460ff19169055005b600080fd5b346101a2576020806003193601126101a2576004359081600052600f81526040600020600c81019283549160ff8316916101e083612a82565b6004831480801561045d575b801561044a575b15610405578254421190816103f4575b501561024557505050507fb34436423c205503bb9de249902d7e3e7fc76197d9cec741c46e9e0dd6489f4491600360ff1982541617905560405160038152a15b005b60018295949501544211806103e1575b1561026c575050505050600160ff19825416179055005b60018060a0979596971b03600b541692856003840154926044604051809781936301acb51d60e31b835260048301528660248301525afa9384156103d5576000946103a6575b506102bc81612a82565b6001811491829182610398575b8315610353575b5050506000146103145750507fb34436423c205503bb9de249902d7e3e7fc76197d9cec741c46e9e0dd6489f449250600260ff1982541617905560405160028152a1005b600801549091901561032257005b7f2e24ed849df3be5edecca4a9280b775d8d82b800d0ebefaa298f3d61a0998a709360ff19169055604051908152a1005b61035f91929350612a82565b8161037c575b5080610374575b8680806102d0565b50811561036c565b61038c9150600b83015490612bf8565b60058201541086610365565b6005850154821193506102c9565b9093508581813d83116103ce575b6103be8183612b04565b810103126101a2575192876102b2565b503d6103b4565b6040513d6000823e3d90fd5b506103eb83612a82565b60038314610255565b90506103ff84612a82565b87610203565b60405162461bcd60e51b815260048101879052601860248201527f54686973207469746c6520616c726561647920656e64656400000000000000006044820152606490fd5b5061045484612a82565b600184146101f3565b5061046784612a82565b600384146101ec565b346101a2576020806003193601126101a25760043580600052600f825260406000209160118152604060002060038401908154600052825260406000209060018060a01b0380600c541695600060048501546024604051809a819363d8a4676f60e01b835260048301525afa9283156103d5576000809860009561068c575b50156106475760405160608101986001998a83526060898401528151809152886080840192019060005b81811061063457507f495707aadfdb79a8158bc4c70170204a5bd6402ce8d4f16af9b93d19f5b864b760a08c8c8f8c8e918d8d8d7f6eed17f1838c49c44631282c96ef8d77984fda771e865bc74772b03c5da4bde78e808f8860408301520390a18760005260128752604060002093600c81880193845496876000528a526040600020886000528a526040600020968860058b0155875460068b015560048801996007888c54169101906001600160601b038f1b8254161790558b60005260108b52604060002088546000528b526007604060002001556105fb87548c613b76565b019060ff198254161790556106108154612b9e565b905554915493541693604051958652850152604084015260608301526080820152a1005b82518452928a0192918a01918c01610519565b60405162461bcd60e51b815260048101879052601960248201527f5652462072657175657374206e6f742066756c66696c6c6564000000000000006044820152606490fd5b98505092503d806000893e6106a18189612b04565b8701926060888503126101a2576106b788613433565b97868101516001600160401b0381116101a25781019480601f870112156101a25785516106e381612b87565b966106f16040519889612b04565b818852898089019260051b8201019283116101a25789809101915b8383106107235750505050604001519397896104ef565b82518152918101918a910161070c565b346101a25760203660031901126101a2576001600160401b03610754612ab8565b61076960018060a01b03600854163314613fbe565b166000908152600260205260409020805460ff19166001179055005b346101a25760803660031901126101a2576064356001600160a01b03811681036101a25761024390604435602435600435612c37565b346101a25760603660031901126101a2576107d4612ab8565b602435908115158092036101a2576107ea612aa2565b6001600160401b038216600052600f602052604060002091600360ff600c8501541661081581612a82565b03610c2857600883015493600584015494858111610bf257610838600191612b9e565b9182600887015514600014610be7576007840154946000905b6108646004870154976006880154612bf8565b9060405197886101c08101106001600160401b036101c08b011117610bbd576101c0890160405284895260208901526040880152606087015260808601523360a0860152600060c0860152600060e086015260006101008601523061012086015260006101408601526000610160860152600261018086015260006101a08601526001600160401b0382166000526010602052604060002090600052602052600c6040600020855181556020860151600182015560408601516002820155606086015160038201556080860151600482015560018060a01b0360a087015116600582016001600160601b0360a01b918282541617905560c0870151600683015560e0870151600783015561010087015160088301556009820160018060a01b036101208901511682825416179055600a82019060018060a01b036101408901511690825416179055610160860151600b820155016109d06101808601516109ca81612a82565b82612be0565b6101a0850151151561ff0082549160081b169061ff0019161790556008830154600584015410610bd3575b6101a06040519480516020870152602081015160408701526040810151606087015260608101516080870152608081015160a087015260018060a01b0360a08201511660c087015260c081015160e087015260e081015161010087015261010081015161012087015260018060a01b036101208201511661014087015260018060a01b0361014082015116610160870152610160810151610180870152610180810151610aa781612a82565b82870152015115156101c08501526101c084526101e08401938085106001600160401b03861117610bbd576040859052600d54636902622f60e11b865260209086906001600160a01b03168160006101df1986610b0981336101e48201612c05565b0301925af180156103d557610b8c575b6001600160401b0382166000818152601060209081526040808320600889810154855292529182902080546006909101547f5462399704f0e380dbcb381163c0a1404e8b14097242551b2494b16157faa530948992610b7c928a92909190612c37565b01548151908152336020820152a1005b602091939482903d8411610bb5575b81610ba591612b04565b810103126101a257829184610b19565b3d9150610b9b565b634e487b7160e01b600052604160045260246000fd5b600c8301805460ff191660011790556109fb565b600094600590610851565b60405162461bcd60e51b815260206004820152600e60248201526d5469746c6520736f6c646f75742160901b6044820152606490fd5b60405162461bcd60e51b815260206004820152603460248201527f54686973205469746c65206973206e6f7420617661696c61626c652e20436865604482015273636b20746865205469746c65207374617475732160601b6064820152608490fd5b346101a25760203660031901126101a257610ca3612a4e565b6008546001600160a01b039190610cbd9083163314613fbe565b166000908152600360205260409020805460ff19166001179055005b346101a25760203660031901126101a257610cf2612a4e565b6008546001600160a01b039190610d0c9083163314613fbe565b166000908152600360205260409020805460ff19169055005b346101a25760003660031901126101a2576040517f00000000000000000000000000000000000000000000000000000000000000006001600160a01b03168152602090f35b346101a257610d78366129f0565b9060005260146020526040600020906000526020526060604060002060018060a01b0381541690600260018201549101549060405192835260208301526040820152f35b346101a257610dca366129f0565b906000526011602052604060002090600052602052610100604060002080549060018101549060028101546003820154600483015490600584015492600685015494600760018060a01b039101541695604051978852602088015260408701526060860152608085015260a084015260c083015260e0820152f35b346101a2576020806003193601126101a2576004359081600052600f8152604060002060018060a01b0380600b54169060028301549460038401918254966040516314d8039960e11b81528160048201528860248201528781604481895afa9081156103d5576000916110a9575b5042111561106e5786906044604051809781936301acb51d60e31b835260048301528b60248301525afa9384156103d55760009461103d575b50600c54604051630c9807d960e21b81526004810184905260248101989098526044880185905286908890606490829060009086165af19687156103d55760009761100e575b50600c85019660ff19966004888a5416178955845490604051916101008301938385106001600160401b03861117610bbd576005986007956040528785528385018381526040860190428252606087019283526080870193845260a08701946000865260c08801966000885260e089019b60008d5260005260118152604060002091600052526040600020965187555160018701555160028601555160038501555160048401555187830155516006820155019151166001600160601b0360a01b825416179055549101541061100457005b8154166002179055005b9096508581813d8311611036575b6110268183612b04565b810103126101a257519587610f32565b503d61101c565b9693508587813d8311611067575b6110558183612b04565b810103126101a2579551929585610eec565b503d61104b565b60405162461bcd60e51b815260048101889052601360248201527249736e2774207468652074696d65207965742160681b6044820152606490fd5b90508781813d83116110cf575b6110c08183612b04565b810103126101a2575189610eb3565b503d6110b6565b346101a2576110e4366129f0565b908060005260206010815260406000208360005281526040600020600781018054611110811515613c18565b60058301546001600160a01b0393908416330361126e5760408051808701888152602081018a90529182018490526111e99387939092600b9261116081606084015b03601f198101835282612b04565b5190209260026040519161117383612ace565b8b83528683018d81526040840191825286600052601388526040600020935184555160018401555191015501546040519183830152604082015260016060820152606081526111c181612ae9565b84600e541685600754166000604051809681958294630a30e37760e41b845260048401613cbc565b03925af180156103d55761123d575b7f28c64511bad94645265b4ac8c503dd3b588ca95f2bfb17598135c3e6cdc4be8260808686868a875491600754169260405194855284015260408301526060820152a1005b928092919493813d8311611267575b6112568183612b04565b810103126101a257909192856111f8565b503d61124c565b60405162461bcd60e51b815260048101869052602d60248201527f4f6e6c792074686520647261772077696e6e65722063616e206372656174652060448201526c61207065726d697373696f6e2160981b6064820152608490fd5b346101a25760203660031901126101a257600435600052600f6020526101a0604060002080549060018101549060028101546003820154600483015460058401546006850154600786015491600887015493600988015495600a8901549760ff600c600b8c01549b0154169a6040519c8d5260208d015260408c015260608b015260808a015260a089015260c088015260e087015261010086015261012085015261014084015261016083015261137f81612a82565b610180820152f35b346101a257600319602036820181136101a257600435916001600160401b03908184116101a25760a09084360301126101a2576001600160a01b037f0000000000000000000000000000000000000000000000000000000000000000811633036117eb576040519360a0850185811084821117610bbd5760405280600401358552602493848201359484861686036101a25781870195865260448301358581116101a25761143b9060043691860101612b40565b966040810197885260648401358681116101a25761145f9060043691870101612b40565b93606082019485526084810135908782116101a25701366023820112156101a25760048101359061148f82612b87565b9161149d6040519384612b04565b808352848684019160061b830101913683116101a2578501905b82821061179057505050608082015280516000558351805181019084818184019303126101a25784810151908882116101a257019080603f830112156101a25784820151611507926040016133e2565b9182519087821161177c575080600193611521855461400a565b601f811161170c575b508590601f831160011461168c57600092611681575b5050600019600383901b1c191690831b1782555b61155c614044565b6060818051810103126101a25780840151879387606061157e604086016140fd565b9401519316916000526013865260406000209081546000526010875260406000209101546000528552604060002091806008840155600a8301826001600160601b0360a01b82541617905515159081611677575b50611663575b5051955116955181818051810103126101a257816115f691016140fd565b9151908151820181838203126101a257818301519586116101a25761164861165e93837fb1e312a29937cc11967b0e4a346fef1ae132424ebaba9dc6d90249dba053e87c988160409501920101613419565b9181519586951685528401526040830190612a29565b0390a3005b600c01805460ff19166003179055886115d8565b905015158a6115d2565b015190508a80611540565b90859350601f19831691846000527fb10e2d527612073b26eecdfd717e6a320cf44b4afac2b0732d9fcbe2b7fa0cf69260005b898282106116f657505084116116dd575b505050811b018255611554565b015160001960f88460031b161c191690558a80806116d0565b83850151865589979095019493840193016116bf565b909150846000527fb10e2d527612073b26eecdfd717e6a320cf44b4afac2b0732d9fcbe2b7fa0cf6601f840160051c810191878510611772575b84939291601f88920160051c01915b82811061176357505061152a565b60008155859450879101611755565b9091508190611746565b634e487b7160e01b60009081526041600452fd5b6040823603126101a25760405190604082018281108c8211176117d6576040528235908a821682036101a2578289926040945282850135838201528152019101906114b7565b87634e487b7160e01b60005260416004526000fd5b6040516335fdcccd60e21b8152336004820152602490fd5b346101a25760203660031901126101a2576001600160401b03611824612ab8565b166000526002602052602060ff604060002054166040519015158152f35b346101a25760203660031901126101a2576001600160a01b03611863612a4e565b166001600160601b0360a01b6007541617600755600080f35b346101a25761188a36612a64565b928015611bce5780831115611b72578115611b1a576118f2916020846118b1600454612b9e565b8060045583600060018060a01b03600b54169260405198899586948593630a52975960e31b8552600485016040919493926060820195825260208201520152565b03925af19283156103d557600093611ae6575b50670de0b6b3a764000094858102958187041490151715611ad05761192a8186612bc0565b906119358187612bc0565b600581029080820460051490151715611ad057604051926101a08401928484106001600160401b03851117610bbd577f89c4c2329efcd15ed5ec8cc7dd2e4c2103edd8b1d7e9e17e76da38d7b83ade6798608098611a809760649660405287526020870152876040870152600160608701528886015260a085015260c08401520460e082015260006101008201526000610120820152600061014082015260006101608201526004610180820152600454600052600f602052600c6101806040600020928051845560208101516001850155604081015160028501556060810151600385015586810151600485015560a0810151600585015560c0810151600685015560e0810151600785015561010081015160088501556101208101516009850155610140810151600a850155610160810151600b850155015191611a7a83612a82565b01612be0565b6004549081600052600f602052611aa560406000206007600682015491015490612bf8565b82600052600f60205260046040600020015491604051938452602084015260408301526060820152a1005b634e487b7160e01b600052601160045260246000fd5b9092506020813d602011611b12575b81611b0260209383612b04565b810103126101a257519185611905565b3d9150611af5565b60405162461bcd60e51b815260206004820152602a60248201527f4d7573742073657420746865206e756d626572206f6620746f74616c207061726044820152697469636970616e74732160b01b6064820152608490fd5b60405162461bcd60e51b815260206004820152602e60248201527f4d7573742053656c6563742061206461746520746f2073746f7020746f20736560448201526d6c6c20746865207469746c65732160901b6064820152608490fd5b60405162461bcd60e51b815260206004820152602f60248201527f4d7573742053656c6563742061206461746520746f20737461727420746f207360448201526e656c6c20746865207469746c65732160881b6064820152608490fd5b346101a257610243611c3c366129f0565b90613cec565b346101a25760603660031901126101a257600435611c5e612aa2565b81600052602090600f82526040600020906010835260406000206024356000528352604060002093600585019360018060a01b03928386541633148015612051575b15611fe657831694611cb3861515613f7e565b600c87019360ff855416611cc681612a82565b60038103611f885760068901549060028a015482148015611f7b575b8015611f5e575b15611ef05750506024600082600b541660405192838092638c83ddd360e01b82528c60048301525afa9081156103d557611d3191600191600091611eca575b5015151461348c565b600980546001600160a01b031916881790556040516370a0823160e01b815230600482015283816024818b5afa9081156103d557600091611e9d575b50600189019788548092106101a257835460405163a9059cbb60e01b81529084166001600160a01b03166004820152602481019290925284908290816000816044810103925af180156103d557611e2f575b50927fa15c2435fada31fa58c0eb6a516d9b0df54ed70f48f3680ba2b527955c5797c192611e2b97608093600a98979660078c015491541691549260405194855284015260408301526060820152a15b61010061ff001982541617905501916001835491015490612bf8565b9055005b9195949390928083813d8311611e96575b611e4a8183612b04565b810103126101a257611e2b97600a977fa15c2435fada31fa58c0eb6a516d9b0df54ed70f48f3680ba2b527955c5797c195611e86608096613433565b5093969798509350975092611dbf565b503d611e40565b90508381813d8311611ec3575b611eb48183612b04565b810103126101a2575189611d6d565b503d611eaa565b611ee791503d806000833e611edf8183612b04565b810190613440565b9150508b611d28565b9091611e2b9850600a9796955060a09350937f09878aa34b75479da70e37bce4455679dae86d7580d3cf362e48f2abb18baacd9460088b01548160098d015416918a8d0154169260405195865285015260408401526060830152611f5381612a82565b6080820152a1611e0f565b5082600a8b01541615158015611ce9575060088a01541515611ce9565b5060088a01541515611ce2565b60405162461bcd60e51b815260048101859052603060248201527f54686973207469746c6520646f6e2774206861766520746865207065726d697360448201526f73696f6e20746f20776974686472617760801b6064820152608490fd5b60405162461bcd60e51b815260048101839052603c60248201527f4d73672e73656e646572206d7573742062652074686520636f6e74726163742060448201527f4f776e6572206f72207468652070726f746f636f6c206f776e657221000000006064820152608490fd5b5083600854163314611ca0565b346101a25760403660031901126101a2576024356001600160a01b03818116918290036101a25761209481600854163314613fbe565b600435600052602090600f825260406000209060ff600c830154166120b881612a82565b600281149081156122a3575b50156101a25761210460096120f06120e56008860154600b87015490612c2a565b600486015490612bad565b930154926120fe8185612c2a565b93612c2a565b821161225057612115841515613f7e565b600b541690604051638c83ddd360e01b8152846004820152600081602481865afa9081156103d55761215491600191600091612232575015151461348c565b600980546001600160a01b031916851790556040516370a0823160e01b81523060048201528381602481885afa80156103d5578291600091612201575b50106101a25760405163a9059cbb60e01b81526001600160a01b039290921660048301526024820152918190839060449082906000905af180156103d5576121d557005b81813d83116121fa575b6121e98183612b04565b810103126101a25761024390613433565b503d6121df565b809250858092503d831161222b575b61221a8183612b04565b810103126101a25781905186612191565b503d612210565b61224791503d806000833e611edf8183612b04565b91505087611d28565b60405162461bcd60e51b815260048101849052602560248201527f5f616d6f756e742063616e27742065786365656420746865207469746c652076604482015264616c75652160d81b6064820152608490fd5b90506122ae81612a82565b15856120c4565b346101a25760603660031901126101a2576004356000526012602052604060002060243560005260205260406000206044356000526020526101206040600020805490600181015490600281015460018060a01b038060038401541690600484015416600584015491600685015493600860ff60078801541696015496604051988952602089015260408801526060870152608086015260a085015260c0840152151560e0830152610100820152f35b346101a257612373366129f0565b9060005260106020526040600020906000526020526101c0604060002060ff8154916001810154906002810154600382015460048301549060018060a01b0391826005860154166006860154906007870154926008880154948660098a01541696600a8a01541697600c600b8b01549a01549a60206040519e8f908152015260408d015260608c015260808b015260a08a015260c089015260e088015261010087015261012086015261014085015261016084015281811661243481612a82565b61018084015260081c1615156101a0820152f35b346101a25761245636612a64565b9080600094939452602093601085526040600020836000528552604060002084600052601086526040600020826000528652604060002090600782019161249f83541515613c18565b60058101546001600160a01b0391906124bb9083163314613c64565b60058301926124ce338486541614613c64565b600181015490600b830154908183106126a75780600360066124f593015491015490612bad565b918160011b9180830460021490151715611ad057821491821561269c575b5050156125d157917f50243003e9d7ef147493229d55468984fe3256e1b1cf63b435c46d06331682a4989391600c60a0999897969401600360ff1982541617905560405161256081612ace565b33815260028682019288845260408301908a82528b6000526014895260406000208860005289526040600020935116936001600160601b038d1b94858554161784555160018401555191015530908254161790555491604051958652850152604084015260608301526080820152a1005b60405162461bcd60e51b8152600481018a9052608b60248201527f416c6c2074686520696e7374616c6c6d656e74732066726f6d2074686520636f60448201527f6c61746572616c206d7573742068617665206265656e2070616964206f72206160648201527f74206c65617374207468652076616c75652070616964206d757374206265206760848201527f726561746572207468656e2074776f2074696d65732074686520656e7375726560a48201526a15985b1d5953995959195960aa1b60c482015260e490fd5b101590508a80612513565b60405162461bcd60e51b8152600481018d9052604760248201527f54686520636f6c61746572616c20746f74616c2076616c7565206d757374206260448201527f652067726561746572207468616e2074756520656e737572616e636556616c756064820152661953995959195960ca1b608482015260a490fd5b346101a25760203660031901126101a2576001600160a01b03612743612a4e565b166000526003602052602060ff604060002054166040519015158152f35b346101a25760003660031901126101a25760005461277d614044565b9061279a6040519283928352604060208401526040830190612a29565b0390f35b346101a2576127ac366129f0565b81600052600f60209181835260406000209160016008918285019560038601925b875481101561024357886000526010908183526040600020816000528352876040600020928654938c8660029687612809600686015483612c2a565b106128db57505061285595600c918284019360ff1994858154169055600b8097016128348154612b9e565b90558c81015415908115916128b6575b5061285a575b505050505050612b9e565b6127cd565b6000526014885260406000208c60005288526040600020906001820154600052898952604060002094895260406000209101546000528752604060002001908154169055016128a98154612b9e565b90558a808080808e61284a565b600a01546001600160a01b0316151590816128d3575b5038612844565b9050386128cc565b929450925050604460018060a01b03600b5416958c015460405196879384926301933c3960e61b8452600484015260248301525afa80156103d55760009061296e575b61285593504211612930575b50612b9e565b600c01600160ff198254161790557f5238eef763c91b9905201192c7b588678d655a1fec573e5434470d30d3f975be8360405160018152a18a61292a565b508383813d8311612996575b6129848183612b04565b810103126101a257612855925161291e565b503d61297a565b346101a25760203660031901126101a2576004359063ffffffff60e01b82168092036101a2576020916385572ffb60e01b81149081156129df575b5015158152f35b6301ffc9a760e01b149050836129d8565b60409060031901126101a2576004359060243590565b60005b838110612a195750506000910152565b8181015183820152602001612a09565b90602091612a4281518092818552858086019101612a06565b601f01601f1916010190565b600435906001600160a01b03821682036101a257565b60809060031901126101a25760043590602435906044359060643590565b60051115612a8c57565b634e487b7160e01b600052602160045260246000fd5b604435906001600160a01b03821682036101a257565b600435906001600160401b03821682036101a257565b606081019081106001600160401b03821117610bbd57604052565b608081019081106001600160401b03821117610bbd57604052565b90601f801991011681019081106001600160401b03821117610bbd57604052565b6001600160401b038111610bbd57601f01601f191660200190565b81601f820112156101a257803590612b5782612b25565b92612b656040519485612b04565b828452602083830101116101a257816000926020809301838601378301015290565b6001600160401b038111610bbd5760051b60200190565b6000198114611ad05760010190565b81810292918115918404141715611ad057565b8115612bca570490565b634e487b7160e01b600052601260045260246000fd5b90612bea81612a82565b60ff80198354169116179055565b91908201809211611ad057565b6001600160a01b039091168152604060208201819052612c2792910190612a29565b90565b91908203918211611ad057565b9091600090828252600f60205260408220601060205260408320858452602052604083209560ff600c83015416612c6d81612a82565b600181149081156133ce575b50156133895760028701908382541061333057600c88019360ff855416612c9f81612a82565b6002811490811561331b575b8115613307575b501561330357806132bb576001915b60018060a01b03600b5416602060028701546044604051809481936301933c3960e61b835260048301528860248301525afa90811561323a578891613289575b5080421160001461324557612d169042612c2a565b90816006558161316e575b50505b60018060a01b0360058a015416956005549660065460068c019889549260405196876101208101106001600160401b036101208a01111761315a5761012088016040528d88526020880152426040880152336060880152608087015260a086015260c0850152600160e0850152806101008501526003860154809110158061314e575b612f8c575b5090506101006040519280516020850152602081015160408501526040810151606085015260018060a01b03606082015116608085015260018060a01b0360808201511660a085015260a081015160c085015260c081015160e085015260e0810151151582850152015161012083015261012082526101408201908282106001600160401b03831117610bbd576040829052600d54636902622f60e11b835260209083906001600160a01b0316818461013f1988612e6f81336101448201612c05565b0301925af1908115612f805750612f49575b5050907fd6985739ec9552d19c3572fc03d8cc0f929e20de244eaa8d01c1786d61fd177a96849392612ef39554905414612f20575b50600383549101541480612f09575b612ef8575b50612ed58484613b76565b54604051938493846040919493926060820195825260208201520152565b0390a1565b805460ff1916600217905538612eca565b50600160ff825416612f1a81612a82565b14612ec5565b825460ff1916600317835560080154612f3a575b38612eb6565b612f448686613cec565b612f34565b90602091829695949396903d8411612f78575b81612f6691612b04565b810103126101a2579091923880612e81565b3d9150612f5c565b604051903d90823e3d90fd5b60018060a01b03600b5416906002870154823b1561314a57906044849283604051958694859363560337d160e11b8552600485015260248401525af1801561313f57613114575b50600b54600286015460038701546040516301acb51d60e31b815260048101929092526024820152919290602090839060449082906001600160a01b03165afa9182156131095783926130d5575b5088835260126020526040832090835260205260408220908252602052604081208251815560208301516001820155604083015160028201556003810160018060a01b03606085015116906001600160601b0360a01b9182825416179055600482019060018060a01b036080860151169082541617905560a0830151600582015560c083015160068201556007810160e0840151151560ff8019835416911617905560086101008401519101558038612dac565b9091506020813d602011613101575b816130f160209383612b04565b810103126101a257519038613021565b3d91506130e4565b6040513d85823e3d90fd5b6001600160401b03811161312b5760405238612fd3565b634e487b7160e01b82526041600452602482fd5b6040513d84823e3d90fd5b8380fd5b5060078b015415612da7565b634e487b7160e01b86526041600452602486fd5b600b546002870154600554604051632b18775560e01b8152600481019590955260248501919091526044840152602090839060649082908c906001600160a01b03165af1801561323a578890613200575b6131f99250806005557f57d559aaa778ae17e20a31e208d5763cb05667142a48b6098af5fb106b0ce8d96020604051838152a18a8a6134cd565b3880612d21565b50906020813d602011613232575b8161321b60209383612b04565b8101031261322e57906131f991516131bf565b8780fd5b3d915061320e565b6040513d8a823e3d90fd5b506132849060038b0154806005557f57d559aaa778ae17e20a31e208d5763cb05667142a48b6098af5fb106b0ce8d96020604051838152a18a8a6134cd565b612d24565b90506020813d6020116132b3575b816132a460209383612b04565b8101031261322e575138612d01565b3d9150613297565b60068901548111156132ce578091612cc1565b60405162461bcd60e51b815260206004820152600d60248201526c416c726561647920706169642160981b6044820152606490fd5b8580fd5b6003915061331481612a82565b1438612cb2565b905061332681612a82565b6001811490612cab565b60405162461bcd60e51b815260206004820152602b60248201527f596f7520646f6e2774206861766520616e7920696e7374616c6c6d656e74206c60448201526a65667420746f207061792160a81b6064820152608490fd5b60405162461bcd60e51b815260206004820152601760248201527f436865636b20746865207469746c6520737461747573210000000000000000006044820152606490fd5b600391506133db81612a82565b1438612c79565b909291926133ef81612b25565b916133fd6040519384612b04565b8294828452828201116101a2576020613417930190612a06565b565b9080601f830112156101a2578151612c27926020016133e2565b519081151582036101a257565b906060828203126101a2578151906001600160401b0382116101a257613467918301613419565b60208201519092906001600160a01b03811681036101a2576040612c27919301613433565b1561349357565b60405162461bcd60e51b8152602060048201526012602482015271546f6b656e206e6f7420616c6c6f7765642160701b6044820152606490fd5b92600091848352602091601083526040918285209085528352818420958452600f8352818420908654600883015410613b205760ff600c8801541661351181612a82565b801590811591613b0b575b5015613a8c576001600160a01b039081168015613a505781600b541690845190638c83ddd360e01b8252818881600495848783015260249586915afa9081156139f757613575916001918b91613a33575015151461348c565b600980546001600160a01b0319168217905560038a01548910613a015785516370a0823160e01b8152338482015287818481855afa9081156139f757908a918a916139c2575b50106139895786604491875192838092636eb1769f60e11b8252338883015230878301525afa908115613760579089918991613958575b50106138f957508781015461376a5760098301968754976006850154988961361991612bf8565b905560095485516323b872dd60e01b80825233858301908152306020820152604081019b909b529990918891839187169082908c90829060600103925af1801561376057918891889695949361371d575b50613684906006856009541695600b541696015490612c2a565b8651998a5233928a019283526001600160a01b039094166020830152604082019390935287928391829060600103925af190811561371457506136d8575b5050506006905b016136d48154612b9e565b9055565b82813d831161370d575b6136ec8183612b04565b8101031261370a575090613701600692613433565b509038806136c2565b80fd5b503d6136e2565b513d84823e3d90fd5b8092508691939495963d8311613759575b6137388183612b04565b8101031261322e5761368487959493926137528a93613433565b509061366a565b503d61372e565b86513d8a823e3d90fd5b61378d60098401936006855491019461378586548093612bf8565b905588612c2a565b156138c057600954835485516323b872dd60e01b80825233858301908152306020820152604081019390935299929091889183918290036060019082908c9089165af1801561376057918891889695949361387d575b506137fa90846009541694600b5416955490612c2a565b8651998a5233928a019283526001600160a01b03909416602083015260408201939093528792839182906060015b03925af19081156137145750613844575b5050506006906136c9565b82813d8311613876575b6138588183612b04565b8101031261370a57509061386d600692613433565b50903880613839565b503d61384e565b8092508691939495963d83116138b9575b6138988183612b04565b8101031261322e576137fa87959493926138b28a93613433565b50906137e3565b503d61388e565b60095484516323b872dd60e01b815233928101928352306020840152604083019890985285935087921690829087908290606001613828565b845162461bcd60e51b81529182018690526034908201527f596f75206d75737420617070726f76652074686520636f6e747261637420746f604482015273207472616e736665722074686520746f6b656e7360601b6064820152608490fd5b809250888092503d8311613982575b6139718183612b04565b8101031261322e57889051386135f2565b503d613967565b855162461bcd60e51b815280840188905260148184015273496e73756666696369656e742062616c616e636560601b6044820152606490fd5b809250898092503d83116139f0575b6139db8183612b04565b810103126139ec57899051386135bb565b8880fd5b503d6139d1565b87513d8b823e3d90fd5b855162461bcd60e51b8152808401889052600d818401526c57726f6e672076616c7565212160981b6044820152606490fd5b613a4791503d808d833e611edf8183612b04565b91505038611d28565b835162461bcd60e51b8152600481018690526015602482015274456e746572206120746f6b656e206164647265737360581b6044820152606490fd5b825162461bcd60e51b815260048101859052604c60248201527f796f7572207469746c6520616c72656164792068617665206265656e2066696e60448201527f616c697a6564206f722063616e63656c65642e20506c6561736520636865636b60648201526b103a34329039ba30ba3ab99760a11b608482015260a490fd5b60049150613b1881612a82565b14153861351c565b825162461bcd60e51b815260048101859052602960248201527f456e74657220612076616c696420636f6e747261637420496420666f722074686044820152686973205469746c652160b81b6064820152608490fd5b907f0612a8a5548125c3db9f13b41025df2c888d69f8a0351889cd94bd21a45dd34b91612ef3600b6000838152600f6020526040812090601060205260408120868252602052613bd3604082209260068085015491015490612bad565b6001830154808210613c05575050828201555b0154604051938493846040919493926060820195825260208201520152565b613c0f9250612c2a565b82820155613be6565b15613c1f57565b60405162461bcd60e51b815260206004820152601e60248201527f596f7520686176656e2774206265656e2073656c6563746564207965742100006044820152606490fd5b15613c6b57565b60405162461bcd60e51b815260206004820152602360248201527f4f6e6c7920746865206f776e65722063616e20616464206120636f6c61746572604482015262616c2160e81b6064820152608490fd5b67ccf0a31a221f3c9b81526001600160a01b039091166020820152606060408201819052612c2792910190612a29565b906000908282526020906010825260409081842081855283528184209060068201546002830154148015613f2857600c830190600160ff835460081c16151503613ec6578080613eb0575b15613e0857505090600b849596613dc59593613d746007850154916111528851938492898401968791606093918352602083015260408201520190565b519020910154835191838301528382015285606082015260608152613d9881612ae9565b60018060a01b0380600e54169060075416878551809781958294630a30e37760e41b845260048401613cbc565b03925af1908115613dff5750613dda57505050565b813d8311613df8575b613ded8183612b04565b8101031261370a5750565b503d613de3565b513d85823e3d90fd5b909694939281613ea2575b50613e21575b505050505050565b600593855260148352818520908552825280842093815194613e4286612ace565b60018060a01b0393848254168752600260018301549283838a01520154918488019283528352601081528383209151835252209251169101906001600160601b0360a01b825416179055600460ff19825416179055388080808080613e19565b600891500154151538613e13565b50600a8401546001600160a01b03161515613d37565b845162461bcd60e51b815260048101879052603560248201527f596f752063616e27742072657472696576652074686520636f6c61746572616c604482015274206265666f7265207468652077697468647261772160581b6064820152608490fd5b835162461bcd60e51b815260048101869052602960248201527f416c6c2074686520696e7374616c6c6d656e7473206d7573742068617665206260448201526865656e20706169642160b81b6064820152608490fd5b15613f8557565b60405162461bcd60e51b8152602060048201526011602482015270151bdad95b881b9bdd08185b1b1bddd959607a1b6044820152606490fd5b15613fc557565b60405162461bcd60e51b815260206004820152601d60248201527f5468652063616c6c6572206d75737420626520746865206f776e6572210000006044820152606490fd5b90600182811c9216801561403a575b602083101461402457565b634e487b7160e01b600052602260045260246000fd5b91607f1691614019565b6040519060008260019182549261405a8461400a565b808452938181169081156140db575060011461407e575b5061341792500383612b04565b600081815291507fb10e2d527612073b26eecdfd717e6a320cf44b4afac2b0732d9fcbe2b7fa0cf65b8483106140c05750613417935050810160200138614071565b81935090816020925483858a010152019101909185926140a7565b90506020925061341794915060ff191682840152151560051b82010138614071565b51906001600160a01b03821682036101a25756fea26469706673582212206c61ef6aba030ba05f24634723f4da8b0f107f7f87fe30efbf90bcce65c22a1164736f6c63430008140033",
  "linkReferences": {},
  "deployedLinkReferences": {}
}