{
  "_format": "hh-sol-artifact-1",
  "contractName": "Horizon",
  "sourceName": "contracts/Horizon.sol",
  "abi": [
    {
      "inputs": [
        {
          "internalType": "address",
          "name": "_router",
          "type": "address"
        }
      ],
      "stateMutability": "nonpayable",
      "type": "constructor"
    },
    {
      "inputs": [
        {
          "internalType": "address",
          "name": "router",
          "type": "address"
        }
      ],
      "name": "InvalidRouter",
      "type": "error"
    },
    {
      "anonymous": false,
      "inputs": [
        {
          "indexed": false,
          "internalType": "uint256",
          "name": "_totalAmountLate",
          "type": "uint256"
        }
      ],
      "name": "AmountLateWithInterest",
      "type": "event"
    },
    {
      "anonymous": false,
      "inputs": [
        {
          "indexed": false,
          "internalType": "uint256",
          "name": "_amountWithInterests",
          "type": "uint256"
        }
      ],
      "name": "AmountToPay",
      "type": "event"
    },
    {
      "anonymous": false,
      "inputs": [
        {
          "indexed": false,
          "internalType": "uint256",
          "name": "_idTitle",
          "type": "uint256"
        },
        {
          "indexed": false,
          "internalType": "uint256",
          "name": "_contractId",
          "type": "uint256"
        },
        {
          "indexed": false,
          "internalType": "uint256",
          "name": "_collateralId",
          "type": "uint256"
        }
      ],
      "name": "CollateralRefunded",
      "type": "event"
    },
    {
      "anonymous": false,
      "inputs": [
        {
          "indexed": false,
          "internalType": "uint256",
          "name": "_idTitle",
          "type": "uint256"
        },
        {
          "indexed": false,
          "internalType": "uint256",
          "name": "_contractId",
          "type": "uint256"
        },
        {
          "indexed": false,
          "internalType": "uint256",
          "name": "_drawNumber",
          "type": "uint256"
        },
        {
          "indexed": false,
          "internalType": "uint256",
          "name": "_idOfCollateralTitle",
          "type": "uint256"
        },
        {
          "indexed": false,
          "internalType": "uint256",
          "name": "_idOfCollateralContract",
          "type": "uint256"
        }
      ],
      "name": "CollateralTitleAdded",
      "type": "event"
    },
    {
      "anonymous": false,
      "inputs": [
        {
          "indexed": false,
          "internalType": "uint256",
          "name": "_idTitle",
          "type": "uint256"
        },
        {
          "indexed": false,
          "internalType": "uint256",
          "name": "_contractId",
          "type": "uint256"
        },
        {
          "indexed": false,
          "internalType": "uint256",
          "name": "_drawSelected",
          "type": "uint256"
        },
        {
          "indexed": false,
          "internalType": "address",
          "name": "_fujiReceiver",
          "type": "address"
        }
      ],
      "name": "CreatingPermission",
      "type": "event"
    },
    {
      "anonymous": false,
      "inputs": [
        {
          "indexed": false,
          "internalType": "uint256",
          "name": "_titleId",
          "type": "uint256"
        },
        {
          "indexed": false,
          "internalType": "uint256",
          "name": "_nextDrawNumber",
          "type": "uint256"
        },
        {
          "indexed": false,
          "internalType": "uint256",
          "name": "_nextDrawParticipants",
          "type": "uint256"
        }
      ],
      "name": "DrawHasStarted",
      "type": "event"
    },
    {
      "anonymous": false,
      "inputs": [
        {
          "indexed": false,
          "internalType": "address",
          "name": "_temporaryEnsurance",
          "type": "address"
        }
      ],
      "name": "EnsuranceUpdated",
      "type": "event"
    },
    {
      "anonymous": false,
      "inputs": [
        {
          "indexed": false,
          "internalType": "uint256",
          "name": "_idTitle",
          "type": "uint256"
        },
        {
          "indexed": false,
          "internalType": "uint256",
          "name": "_contractId",
          "type": "uint256"
        },
        {
          "indexed": false,
          "internalType": "uint256",
          "name": "_valueOfEnsurance",
          "type": "uint256"
        }
      ],
      "name": "EnsuranceValueNeededUpdate",
      "type": "event"
    },
    {
      "anonymous": false,
      "inputs": [
        {
          "indexed": false,
          "internalType": "uint256",
          "name": "_idTitle",
          "type": "uint256"
        },
        {
          "indexed": false,
          "internalType": "uint256",
          "name": "_contractId",
          "type": "uint256"
        },
        {
          "indexed": false,
          "internalType": "uint256",
          "name": "_amount",
          "type": "uint256"
        },
        {
          "indexed": false,
          "internalType": "uint256",
          "name": "_installmentsPaid",
          "type": "uint256"
        }
      ],
      "name": "InstallmentPaid",
      "type": "event"
    },
    {
      "anonymous": false,
      "inputs": [
        {
          "indexed": false,
          "internalType": "uint256",
          "name": "_installmentsPaid",
          "type": "uint256"
        }
      ],
      "name": "LastInstallmentPaid",
      "type": "event"
    },
    {
      "anonymous": false,
      "inputs": [
        {
          "indexed": true,
          "internalType": "bytes32",
          "name": "_messageId",
          "type": "bytes32"
        },
        {
          "indexed": true,
          "internalType": "uint64",
          "name": "_sourceChainSelector",
          "type": "uint64"
        },
        {
          "indexed": false,
          "internalType": "address",
          "name": "_sender",
          "type": "address"
        },
        {
          "indexed": false,
          "internalType": "string",
          "name": "_text",
          "type": "string"
        }
      ],
      "name": "MessageReceived",
      "type": "event"
    },
    {
      "anonymous": false,
      "inputs": [
        {
          "indexed": false,
          "internalType": "uint256",
          "name": "_idTitle",
          "type": "uint256"
        },
        {
          "indexed": false,
          "internalType": "uint256",
          "name": "_drawNumber",
          "type": "uint256"
        },
        {
          "indexed": false,
          "internalType": "address",
          "name": "_winner",
          "type": "address"
        },
        {
          "indexed": false,
          "internalType": "uint256",
          "name": "_titleValue",
          "type": "uint256"
        }
      ],
      "name": "MonthlyWinnerPaid",
      "type": "event"
    },
    {
      "anonymous": false,
      "inputs": [
        {
          "indexed": false,
          "internalType": "uint256",
          "name": "_idTitle",
          "type": "uint256"
        },
        {
          "indexed": false,
          "internalType": "uint256",
          "name": "_drawNumber",
          "type": "uint256"
        },
        {
          "indexed": false,
          "internalType": "uint256",
          "name": "_randomValue",
          "type": "uint256"
        },
        {
          "indexed": false,
          "internalType": "uint256",
          "name": "_selectedContractId",
          "type": "uint256"
        },
        {
          "indexed": false,
          "internalType": "address",
          "name": "_winner",
          "type": "address"
        }
      ],
      "name": "MonthlyWinnerSelected",
      "type": "event"
    },
    {
      "anonymous": false,
      "inputs": [
        {
          "indexed": false,
          "internalType": "enum Horizon.MyTitleWithdraw",
          "name": "_myTitleStatus",
          "type": "uint8"
        }
      ],
      "name": "MyTitleStatusUpdated",
      "type": "event"
    },
    {
      "anonymous": false,
      "inputs": [
        {
          "indexed": false,
          "internalType": "uint256",
          "name": "_titleId",
          "type": "uint256"
        },
        {
          "indexed": false,
          "internalType": "uint256",
          "name": "_scheduleId",
          "type": "uint256"
        },
        {
          "indexed": false,
          "internalType": "uint256",
          "name": "_titleValue",
          "type": "uint256"
        },
        {
          "indexed": false,
          "internalType": "uint256",
          "name": "_installments",
          "type": "uint256"
        },
        {
          "indexed": false,
          "internalType": "uint256",
          "name": "_monthlyValue",
          "type": "uint256"
        }
      ],
      "name": "NewTitleCreated",
      "type": "event"
    },
    {
      "anonymous": false,
      "inputs": [
        {
          "indexed": false,
          "internalType": "uint256",
          "name": "_titleId",
          "type": "uint256"
        },
        {
          "indexed": false,
          "internalType": "uint256",
          "name": "_contractId",
          "type": "uint256"
        },
        {
          "indexed": false,
          "internalType": "address",
          "name": "_owner",
          "type": "address"
        }
      ],
      "name": "NewTitleSold",
      "type": "event"
    },
    {
      "anonymous": false,
      "inputs": [
        {
          "indexed": false,
          "internalType": "uint256",
          "name": "_lateInstallments",
          "type": "uint256"
        }
      ],
      "name": "PaymentIsLate",
      "type": "event"
    },
    {
      "anonymous": false,
      "inputs": [
        {
          "indexed": false,
          "internalType": "uint256",
          "name": "_i",
          "type": "uint256"
        }
      ],
      "name": "PaymentLateNumber",
      "type": "event"
    },
    {
      "anonymous": false,
      "inputs": [
        {
          "indexed": false,
          "internalType": "uint256",
          "name": "_installmentsPaid",
          "type": "uint256"
        },
        {
          "indexed": false,
          "internalType": "uint256",
          "name": "_collateralTitleId",
          "type": "uint256"
        },
        {
          "indexed": false,
          "internalType": "address",
          "name": "_collateralTitleAddress",
          "type": "address"
        },
        {
          "indexed": false,
          "internalType": "address",
          "name": "_collateralRWAAddress",
          "type": "address"
        },
        {
          "indexed": false,
          "internalType": "enum Horizon.MyTitleWithdraw",
          "name": "_myTitleStatus",
          "type": "uint8"
        }
      ],
      "name": "ThereAreSomePendencies",
      "type": "event"
    },
    {
      "anonymous": false,
      "inputs": [
        {
          "indexed": false,
          "internalType": "uint256",
          "name": "_titlesAvailableForNextDraw",
          "type": "uint256"
        }
      ],
      "name": "ThisTitleHasBeenCanceled",
      "type": "event"
    },
    {
      "anonymous": false,
      "inputs": [
        {
          "indexed": false,
          "internalType": "uint256",
          "name": "_titleId",
          "type": "uint256"
        },
        {
          "indexed": false,
          "internalType": "uint256",
          "name": "_contractId",
          "type": "uint256"
        },
        {
          "indexed": false,
          "internalType": "uint256",
          "name": "_lastInstallmentPaid",
          "type": "uint256"
        }
      ],
      "name": "TitleCanceled",
      "type": "event"
    },
    {
      "anonymous": false,
      "inputs": [
        {
          "indexed": false,
          "internalType": "enum Horizon.TitleStatus",
          "name": "_status",
          "type": "uint8"
        }
      ],
      "name": "TitleStatusUpdated",
      "type": "event"
    },
    {
      "anonymous": false,
      "inputs": [
        {
          "indexed": false,
          "internalType": "bool",
          "name": "_fulfilled",
          "type": "bool"
        },
        {
          "indexed": false,
          "internalType": "uint256[]",
          "name": "_randomWords",
          "type": "uint256[]"
        },
        {
          "indexed": false,
          "internalType": "uint256",
          "name": "_randomValue",
          "type": "uint256"
        }
      ],
      "name": "VRFAnswer",
      "type": "event"
    },
    {
      "inputs": [
        {
          "internalType": "uint256",
          "name": "_idTitle",
          "type": "uint256"
        },
        {
          "internalType": "uint256",
          "name": "_contractId",
          "type": "uint256"
        }
      ],
      "name": "addRWACollateral",
      "outputs": [],
      "stateMutability": "nonpayable",
      "type": "function"
    },
    {
      "inputs": [
        {
          "internalType": "address",
          "name": "_receiverAddress",
          "type": "address"
        }
      ],
      "name": "addReceiver",
      "outputs": [],
      "stateMutability": "nonpayable",
      "type": "function"
    },
    {
      "inputs": [
        {
          "internalType": "address",
          "name": "_sender",
          "type": "address"
        }
      ],
      "name": "addSender",
      "outputs": [],
      "stateMutability": "nonpayable",
      "type": "function"
    },
    {
      "inputs": [
        {
          "internalType": "uint64",
          "name": "_sourceChainSelector",
          "type": "uint64"
        }
      ],
      "name": "addSourceChain",
      "outputs": [],
      "stateMutability": "nonpayable",
      "type": "function"
    },
    {
      "inputs": [
        {
          "internalType": "uint256",
          "name": "_titleId",
          "type": "uint256"
        },
        {
          "internalType": "uint256",
          "name": "_contractId",
          "type": "uint256"
        },
        {
          "internalType": "uint256",
          "name": "_idOfCollateralTitle",
          "type": "uint256"
        },
        {
          "internalType": "uint256",
          "name": "_idOfCollateralContract",
          "type": "uint256"
        }
      ],
      "name": "addTitleAsCollateral",
      "outputs": [],
      "stateMutability": "nonpayable",
      "type": "function"
    },
    {
      "inputs": [
        {
          "internalType": "uint256",
          "name": "titleId",
          "type": "uint256"
        }
      ],
      "name": "allTitles",
      "outputs": [
        {
          "internalType": "uint256",
          "name": "openSellingDate",
          "type": "uint256"
        },
        {
          "internalType": "uint256",
          "name": "closeSellingDate",
          "type": "uint256"
        },
        {
          "internalType": "uint256",
          "name": "paymentSchedule",
          "type": "uint256"
        },
        {
          "internalType": "uint256",
          "name": "nextDrawNumber",
          "type": "uint256"
        },
        {
          "internalType": "uint256",
          "name": "titleValue",
          "type": "uint256"
        },
        {
          "internalType": "uint256",
          "name": "installments",
          "type": "uint256"
        },
        {
          "internalType": "uint256",
          "name": "monthlyInvestiment",
          "type": "uint256"
        },
        {
          "internalType": "uint256",
          "name": "protocolFee",
          "type": "uint256"
        },
        {
          "internalType": "uint256",
          "name": "numberOfTitlesSold",
          "type": "uint256"
        },
        {
          "internalType": "uint256",
          "name": "totalValueReceived",
          "type": "uint256"
        },
        {
          "internalType": "uint256",
          "name": "totalValuePaid",
          "type": "uint256"
        },
        {
          "internalType": "uint256",
          "name": "titleCanceled",
          "type": "uint256"
        },
        {
          "internalType": "enum Horizon.TitleStatus",
          "name": "status",
          "type": "uint8"
        }
      ],
      "stateMutability": "view",
      "type": "function"
    },
    {
      "inputs": [
        {
          "internalType": "uint64",
          "name": "_titleId",
          "type": "uint64"
        },
        {
          "internalType": "bool",
          "name": "withdrawPeriod",
          "type": "bool"
        },
        {
          "internalType": "contract IERC20",
          "name": "_tokenAddress",
          "type": "address"
        }
      ],
      "name": "buyTitle",
      "outputs": [],
      "stateMutability": "nonpayable",
      "type": "function"
    },
    {
      "inputs": [
        {
          "components": [
            {
              "internalType": "bytes32",
              "name": "messageId",
              "type": "bytes32"
            },
            {
              "internalType": "uint64",
              "name": "sourceChainSelector",
              "type": "uint64"
            },
            {
              "internalType": "bytes",
              "name": "sender",
              "type": "bytes"
            },
            {
              "internalType": "bytes",
              "name": "data",
              "type": "bytes"
            },
            {
              "components": [
                {
                  "internalType": "address",
                  "name": "token",
                  "type": "address"
                },
                {
                  "internalType": "uint256",
                  "name": "amount",
                  "type": "uint256"
                }
              ],
              "internalType": "struct Client.EVMTokenAmount[]",
              "name": "destTokenAmounts",
              "type": "tuple[]"
            }
          ],
          "internalType": "struct Client.Any2EVMMessage",
          "name": "message",
          "type": "tuple"
        }
      ],
      "name": "ccipReceive",
      "outputs": [],
      "stateMutability": "nonpayable",
      "type": "function"
    },
    {
      "inputs": [
        {
          "internalType": "uint256",
          "name": "titleId",
          "type": "uint256"
        },
        {
          "internalType": "uint256",
          "name": "contractId",
          "type": "uint256"
        }
      ],
      "name": "collateralInfos",
      "outputs": [
        {
          "internalType": "address",
          "name": "collateralOwner",
          "type": "address"
        },
        {
          "internalType": "uint256",
          "name": "titleIdOfCollateral",
          "type": "uint256"
        },
        {
          "internalType": "uint256",
          "name": "contractIdOfCollateral",
          "type": "uint256"
        }
      ],
      "stateMutability": "view",
      "type": "function"
    },
    {
      "inputs": [
        {
          "internalType": "uint256",
          "name": "_opening",
          "type": "uint256"
        },
        {
          "internalType": "uint256",
          "name": "_closing",
          "type": "uint256"
        },
        {
          "internalType": "uint256",
          "name": "_participants",
          "type": "uint256"
        },
        {
          "internalType": "uint256",
          "name": "_value",
          "type": "uint256"
        }
      ],
      "name": "createTitle",
      "outputs": [],
      "stateMutability": "nonpayable",
      "type": "function"
    },
    {
      "inputs": [
        {
          "internalType": "uint256",
          "name": "titleId",
          "type": "uint256"
        },
        {
          "internalType": "uint256",
          "name": "drawNumber",
          "type": "uint256"
        }
      ],
      "name": "drawInfos",
      "outputs": [
        {
          "internalType": "uint256",
          "name": "idTitle",
          "type": "uint256"
        },
        {
          "internalType": "uint256",
          "name": "drawNumber",
          "type": "uint256"
        },
        {
          "internalType": "uint256",
          "name": "drawDate",
          "type": "uint256"
        },
        {
          "internalType": "uint256",
          "name": "totalParticipants",
          "type": "uint256"
        },
        {
          "internalType": "uint256",
          "name": "requestId",
          "type": "uint256"
        },
        {
          "internalType": "uint256",
          "name": "randomNumberVRF",
          "type": "uint256"
        },
        {
          "internalType": "uint256",
          "name": "selectedContractID",
          "type": "uint256"
        },
        {
          "internalType": "address",
          "name": "winner",
          "type": "address"
        }
      ],
      "stateMutability": "view",
      "type": "function"
    },
    {
      "inputs": [],
      "name": "getLastReceivedMessageDetails",
      "outputs": [
        {
          "internalType": "bytes32",
          "name": "messageId",
          "type": "bytes32"
        },
        {
          "internalType": "bytes",
          "name": "text",
          "type": "bytes"
        }
      ],
      "stateMutability": "view",
      "type": "function"
    },
    {
      "inputs": [],
      "name": "getRouter",
      "outputs": [
        {
          "internalType": "address",
          "name": "",
          "type": "address"
        }
      ],
      "stateMutability": "view",
      "type": "function"
    },
    {
      "inputs": [
        {
          "internalType": "uint256",
          "name": "_idTitle",
          "type": "uint256"
        }
      ],
      "name": "monthlyVRFWinner",
      "outputs": [],
      "stateMutability": "nonpayable",
      "type": "function"
    },
    {
      "inputs": [],
      "name": "owner",
      "outputs": [
        {
          "internalType": "address",
          "name": "",
          "type": "address"
        }
      ],
      "stateMutability": "view",
      "type": "function"
    },
    {
      "inputs": [
        {
          "internalType": "uint256",
          "name": "_idTitle",
          "type": "uint256"
        },
        {
          "internalType": "uint256",
          "name": "_contractId",
          "type": "uint256"
        },
        {
          "internalType": "contract IERC20",
          "name": "_tokenAddress",
          "type": "address"
        }
      ],
      "name": "payInstallment",
      "outputs": [],
      "stateMutability": "nonpayable",
      "type": "function"
    },
    {
      "inputs": [
        {
          "internalType": "bytes32",
          "name": "permissionHash",
          "type": "bytes32"
        }
      ],
      "name": "permissionInfo",
      "outputs": [
        {
          "internalType": "uint256",
          "name": "idTitle",
          "type": "uint256"
        },
        {
          "internalType": "uint256",
          "name": "contractId",
          "type": "uint256"
        },
        {
          "internalType": "uint256",
          "name": "drawNumber",
          "type": "uint256"
        }
      ],
      "stateMutability": "view",
      "type": "function"
    },
    {
      "inputs": [
        {
          "internalType": "uint256",
          "name": "_idTitle",
          "type": "uint256"
        },
        {
          "internalType": "contract IERC20",
          "name": "_tokenAddress",
          "type": "address"
        }
      ],
      "name": "protocolWithdraw",
      "outputs": [],
      "stateMutability": "nonpayable",
      "type": "function"
    },
    {
      "inputs": [
        {
          "internalType": "uint256",
          "name": "_idTitle",
          "type": "uint256"
        }
      ],
      "name": "receiveVRFRandomNumber",
      "outputs": [],
      "stateMutability": "nonpayable",
      "type": "function"
    },
    {
      "inputs": [
        {
          "internalType": "uint256",
          "name": "_idTitle",
          "type": "uint256"
        },
        {
          "internalType": "uint256",
          "name": "_contractId",
          "type": "uint256"
        }
      ],
      "name": "refundCollateral",
      "outputs": [],
      "stateMutability": "nonpayable",
      "type": "function"
    },
    {
      "inputs": [
        {
          "internalType": "address",
          "name": "_sender",
          "type": "address"
        }
      ],
      "name": "removeSender",
      "outputs": [],
      "stateMutability": "nonpayable",
      "type": "function"
    },
    {
      "inputs": [
        {
          "internalType": "uint64",
          "name": "_sourceChainSelector",
          "type": "uint64"
        }
      ],
      "name": "removelistSourceChain",
      "outputs": [],
      "stateMutability": "nonpayable",
      "type": "function"
    },
    {
      "inputs": [
        {
          "internalType": "uint256",
          "name": "titleId",
          "type": "uint256"
        },
        {
          "internalType": "uint256",
          "name": "drawNumber",
          "type": "uint256"
        },
        {
          "internalType": "uint256",
          "name": "paymentOrderOrRandomValue",
          "type": "uint256"
        }
      ],
      "name": "selectorVRF",
      "outputs": [
        {
          "internalType": "uint256",
          "name": "contractId",
          "type": "uint256"
        },
        {
          "internalType": "uint256",
          "name": "installmentNumber",
          "type": "uint256"
        },
        {
          "internalType": "uint256",
          "name": "paymentDate",
          "type": "uint256"
        },
        {
          "internalType": "address",
          "name": "payerAddress",
          "type": "address"
        },
        {
          "internalType": "address",
          "name": "user",
          "type": "address"
        },
        {
          "internalType": "uint256",
          "name": "amount",
          "type": "uint256"
        },
        {
          "internalType": "uint256",
          "name": "paymentDelay",
          "type": "uint256"
        },
        {
          "internalType": "bool",
          "name": "paid",
          "type": "bool"
        },
        {
          "internalType": "uint256",
          "name": "installmentsPaid",
          "type": "uint256"
        }
      ],
      "stateMutability": "view",
      "type": "function"
    },
    {
      "inputs": [
        {
          "internalType": "bytes4",
          "name": "interfaceId",
          "type": "bytes4"
        }
      ],
      "name": "supportsInterface",
      "outputs": [
        {
          "internalType": "bool",
          "name": "",
          "type": "bool"
        }
      ],
      "stateMutability": "pure",
      "type": "function"
    },
    {
      "inputs": [
        {
          "internalType": "uint256",
          "name": "titleId",
          "type": "uint256"
        },
        {
          "internalType": "uint256",
          "name": "contractId",
          "type": "uint256"
        }
      ],
      "name": "titleSoldInfos",
      "outputs": [
        {
          "internalType": "uint256",
          "name": "contractId",
          "type": "uint256"
        },
        {
          "internalType": "uint256",
          "name": "schedule",
          "type": "uint256"
        },
        {
          "internalType": "uint256",
          "name": "titleValue",
          "type": "uint256"
        },
        {
          "internalType": "uint256",
          "name": "installments",
          "type": "uint256"
        },
        {
          "internalType": "uint256",
          "name": "monthlyValue",
          "type": "uint256"
        },
        {
          "internalType": "uint256",
          "name": "periodLocked",
          "type": "uint256"
        },
        {
          "internalType": "address",
          "name": "titleOwner",
          "type": "address"
        },
        {
          "internalType": "uint256",
          "name": "installmentsPaid",
          "type": "uint256"
        },
        {
          "internalType": "uint256",
          "name": "drawSelected",
          "type": "uint256"
        },
        {
          "internalType": "uint256",
          "name": "collateralId",
          "type": "uint256"
        },
        {
          "internalType": "address",
          "name": "collateralTitleAddress",
          "type": "address"
        },
        {
          "internalType": "address",
          "name": "collateralRWAAddress",
          "type": "address"
        },
        {
          "internalType": "uint256",
          "name": "valueOfEnsuranceNeeded",
          "type": "uint256"
        },
        {
          "internalType": "enum Horizon.MyTitleWithdraw",
          "name": "myTitleStatus",
          "type": "uint8"
        },
        {
          "internalType": "bool",
          "name": "paid",
          "type": "bool"
        }
      ],
      "stateMutability": "view",
      "type": "function"
    },
    {
      "inputs": [
        {
          "internalType": "uint256",
          "name": "_titleId",
          "type": "uint256"
        }
      ],
      "name": "updateTitleStatus",
      "outputs": [],
      "stateMutability": "nonpayable",
      "type": "function"
    },
    {
      "inputs": [
        {
          "internalType": "uint256",
          "name": "_titleId",
          "type": "uint256"
        },
        {
          "internalType": "uint256",
          "name": "_contractId",
          "type": "uint256"
        }
      ],
      "name": "verifyLatePayments",
      "outputs": [],
      "stateMutability": "nonpayable",
      "type": "function"
    },
    {
      "inputs": [
        {
          "internalType": "address",
          "name": "",
          "type": "address"
        }
      ],
      "name": "whitelistedSenders",
      "outputs": [
        {
          "internalType": "bool",
          "name": "",
          "type": "bool"
        }
      ],
      "stateMutability": "view",
      "type": "function"
    },
    {
      "inputs": [
        {
          "internalType": "uint64",
          "name": "",
          "type": "uint64"
        }
      ],
      "name": "whitelistedSourceChains",
      "outputs": [
        {
          "internalType": "bool",
          "name": "",
          "type": "bool"
        }
      ],
      "stateMutability": "view",
      "type": "function"
    },
    {
      "inputs": [
        {
          "internalType": "uint256",
          "name": "_idTitle",
          "type": "uint256"
        },
        {
          "internalType": "uint256",
          "name": "_contractId",
          "type": "uint256"
        },
        {
          "internalType": "contract IERC20",
          "name": "_stablecoin",
          "type": "address"
        }
      ],
      "name": "winnerWithdraw",
      "outputs": [],
      "stateMutability": "nonpayable",
      "type": "function"
    }
  ],
  "bytecode": "0x60a0346200010857601f620042bd38819003918201601f19168301916001600160401b038311848410176200010d578084926020946040528339810103126200010857516001600160a01b038116808203620001085715620000ef57608052600060045560018060a01b0319733547951aaa367094afabcae24f123473ff502bfa81600f541617600f5573a75447c1a6dd04da5ceb791023fa7192cc577cfa81601054161760105573ded9e0f0d9274a74cc5506f80802781dde6b7e11816011541617601155339060065416176006556040516141999081620001248239608051818181610da3015261162b0152f35b6040516335fdcccd60e21b815260006004820152602490fd5b600080fd5b634e487b7160e01b600052604160045260246000fdfe608080604052600436101561001357600080fd5b60003560e01c90816301ffc9a714612a7f5750806309249e4314612a325780632347865414612815578063263596a5146127d8578063272efc691461279957806331ae0df6146126a75780633418b03b146126905780634991126d146125e05780634c67469c146123895780634facbacb14611ee5578063643233e514611b3557806369d83ed114611afb5780637dc91a0214611abc57806384fa162b14611a6a57806385572ffb146115ee5780638a12312c146115305780638bd2ec4a1461121f5780638da5cb5b146111f65780639beaf73114610e5b578063ab92263114610dd2578063b0f479a114610d8d578063b2f8764314610d41578063b697f53114610cf2578063ba658a44146109a6578063c5ec1c7a14610954578063d0ade9d514610691578063d762a160146103d5578063ea51417a146101d6578063f2e7896b146101bd5763ff46ed531461016957600080fd5b346101b85760203660031901126101b8576001600160401b0361018a612bae565b61019f60018060a01b03600654163314614010565b166000908152600260205260409020805460ff19169055005b600080fd5b346101b8576101d46101ce36612b66565b91612d08565b005b346101b8576101e436612ad2565b908060005260206008815260406000208360005281526040600020600881018054610210811515613bce565b60068301546001600160a01b0393908416330361037a5760408051808701888152602081018a90529182018490526102e99387939092600c9261026081606084015b03601f198101835282612bfa565b5190209260026040519161027383612bc4565b8b83528683018d81526040840191825286600052600b88526040600020935184555160018401555191015501546040519183830152604082015260016060820152606081526102c181612bdf565b846011541685600554166000604051809681958294630a30e37760e41b845260048401613c72565b03925af1801561036e5761033d575b7f28c64511bad94645265b4ac8c503dd3b588ca95f2bfb17598135c3e6cdc4be8260808686868a875491600554169260405194855284015260408301526060820152a1005b928092919493813d8311610367575b6103568183612bfa565b810103126101b857909192856102f8565b503d61034c565b6040513d6000823e3d90fd5b60405162461bcd60e51b815260048101869052602d60248201527f4f6e6c792074686520647261772077696e6e65722063616e206372656174652060448201526c61207065726d697373696f6e2160981b6064820152608490fd5b346101b8576020806003193601126101b8576004359081600052600781526040600020600c81019283549160ff83169161040e83612b46565b6004831480801561067e575b801561066b575b1561062657825442119081610615575b501561047257505050507fb34436423c205503bb9de249902d7e3e7fc76197d9cec741c46e9e0dd6489f4491600360ff1982541617905560405160038152a1005b6001829594950154421180610602575b15610499575050505050600160ff19825416179055005b60018060a0979596971b03600f541692856003840154926044604051809781936301acb51d60e31b835260048301528660248301525afa93841561036e576000946105d3575b506104e981612b46565b60018114918291826105c5575b8315610580575b5050506000146105415750507fb34436423c205503bb9de249902d7e3e7fc76197d9cec741c46e9e0dd6489f449250600260ff1982541617905560405160028152a1005b600801549091901561054f57005b7f2e24ed849df3be5edecca4a9280b775d8d82b800d0ebefaa298f3d61a0998a709360ff19169055604051908152a1005b61058c91929350612b46565b816105a9575b50806105a1575b8680806104fd565b508115610599565b6105b99150600b83015490612cee565b60058201541086610592565b6005850154821193506104f6565b9093508581813d83116105fb575b6105eb8183612bfa565b810103126101b8575192876104df565b503d6105e1565b5061060c83612b46565b60038314610482565b905061062084612b46565b87610431565b60405162461bcd60e51b815260048101879052601860248201527f54686973207469746c6520616c726561647920656e64656400000000000000006044820152606490fd5b5061067584612b46565b60018414610421565b5061068884612b46565b6003841461041a565b346101b8576020806003193601126101b857600435806000526007825260406000209160098152604060002060038401908154600052825260406000209060018060a01b03806010541695600060048501546024604051809a819363d8a4676f60e01b835260048301525afa92831561036e57600080986000956108ad575b50156108685760405160608101986001998a83526060898401528151809152886080840192019060005b81811061085557507f495707aadfdb79a8158bc4c70170204a5bd6402ce8d4f16af9b93d19f5b864b760a08c8c8f8c8e918d8d8d7f6eed17f1838c49c44631282c96ef8d77984fda771e865bc74772b03c5da4bde78e808f8860408301520390a187600052600a8752604060002093600c81880193845496876000528a526040600020886000528a526040600020968860058b0155875460068b015560048801996007888c54169101906001600160601b038f1b8254161790558b60005260088b52604060002088546000528b5260086040600020015561081c87548c613b26565b019060ff198254161790556108318154612c94565b905554915493541693604051958652850152604084015260608301526080820152a1005b82518452928a0192918a01918c0161073a565b60405162461bcd60e51b815260048101879052601960248201527f5652462072657175657374206e6f742066756c66696c6c6564000000000000006044820152606490fd5b98505092503d806000893e6108c28189612bfa565b8701926060888503126101b8576108d88861344d565b97868101516001600160401b0381116101b85781019480601f870112156101b857855161090481612c7d565b966109126040519889612bfa565b818852898089019260051b8201019283116101b85789809101915b838310610944575050505060400151939789610710565b82518152918101918a910161092d565b346101b85760203660031901126101b8576001600160401b03610975612bae565b61098a60018060a01b03600654163314614010565b166000908152600260205260409020805460ff19166001179055005b346101b85760603660031901126101b8576109bf612bae565b602435908115158092036101b8576044356001600160a01b03811690036101b8576001600160401b03908181166000526007602052604060002091600360ff600c85015416610a0d81612b46565b03610c9057600883015493600584015494858111610c5a57610a30600191612c94565b9182600887015514600014610c505760078401549360005b600282015492610a616004840154976006850154612cee565b9160405192836101e0810110876101e086011117610c3a577f8ecbebf0ef006f42fa814352d84bbb196bfdfe7917f18d24abe89a05e7045d2f996060996008976101e087016040528587526020870152604086015289850152608084015260a08301523360c0830152600060e08301526000610100830152600061012083015260006101408301526000610160830152600061018083015260026101a083015260006101c0830152848616600052836020526040600020906000526020526101c0600d60406000208351815560208401516001820155604084015160028201558884015160038201556080840151600482015560a084015160058201556006810160018060a01b0360c086015116906001600160601b0360a01b918282541617905560e08501516007830155610100850151878301556101208501516009830155600a820160018060a01b036101408701511682825416179055600b82019060018060a01b036101608701511690825416179055610180840151600c8201550191610bfa6101a0820151610bf481612b46565b84612cd6565b0151151561ff00825491851b169061ff001916179055610c2260443583830154858716612d08565b015490604051921682526020820152336040820152a1005b634e487b7160e01b600052604160045260246000fd5b6000936002610a48565b60405162461bcd60e51b815260206004820152600e60248201526d5469746c6520736f6c646f75742160901b6044820152606490fd5b60405162461bcd60e51b815260206004820152603460248201527f54686973205469746c65206973206e6f7420617661696c61626c652e20436865604482015273636b20746865205469746c65207374617475732160601b6064820152608490fd5b346101b85760203660031901126101b857610d0b612b30565b6006546001600160a01b039190610d259083163314614010565b166000908152600360205260409020805460ff19166001179055005b346101b85760203660031901126101b857610d5a612b30565b6006546001600160a01b039190610d749083163314614010565b166000908152600360205260409020805460ff19169055005b346101b85760003660031901126101b8576040517f00000000000000000000000000000000000000000000000000000000000000006001600160a01b03168152602090f35b346101b857610de036612ad2565b906000526009602052604060002090600052602052610100604060002080549060018101549060028101546003820154600483015490600584015492600685015494600760018060a01b039101541695604051978852602088015260408701526060860152608085015260a084015260c083015260e0820152f35b346101b8576020806003193601126101b8576004358060005260078252604060002090600382019182546005820193845482116111b157600f5460028401546040516314d8039960e11b815260048101829052602481018590526001600160a01b03959286169491908981604481895afa90811561036e57600091611184575b504211156111495788906044604051809781936301acb51d60e31b835260048301528560248301525afa93841561036e5760009461111a575b5083156110bb57601054604051630c9807d960e21b8152600481018890526024810192909252604482018590529091908890839060649082906000908a165af191821561036e5760009261108b575b50600c019160ff19916004838554161784558154956040516101008101908082106001600160401b03831117610c3a577fe160e545b5d1ccfe12a70aa9f9e59ae0c6f1a1147f6c303332dff05b497401f29b611077998b956007946040528684528284018281526040850142815260608601918d83526080870193845260a08701946000865260c08801966000885260e089019b60008d526000526009815260406000209160005252604060002096518755516001870155516002860155516003850155516004840155516005830155516006820155019151166001600160601b0360a01b825416179055549554861161107c575b5050604051938493846040919493926060820195825260208201520152565b0390a1005b81541660021790558580611058565b9091508781813d83116110b4575b6110a38183612bfa565b810103126101b8575190600c610f63565b503d611099565b60405162461bcd60e51b815260048101899052603160248201527f5468657265206973206e6f207061727469636970616e74657320617661696c61604482015270626c6520666f722074686520647261772160781b6064820152608490fd5b9093508781813d8311611142575b6111328183612bfa565b810103126101b857519288610f14565b503d611128565b60405162461bcd60e51b8152600481018a9052601360248201527249736e2774207468652074696d65207965742160681b6044820152606490fd5b90508981813d83116111aa575b61119b8183612bfa565b810103126101b857518a610edb565b503d611191565b60405162461bcd60e51b815260048101879052601e60248201527f416c6c2074686520647261777320616c7265616479206f6375727265642100006044820152606490fd5b346101b85760003660031901126101b8576006546040516001600160a01b039091168152602090f35b346101b85761122d36612b90565b81600094929452602093600885526040600020826000528552604060002083600052600886526040600020856000528652604060002090600882019161127583541515613bce565b60068101546001600160a01b0392906112919084163314613c1a565b60068101926112a4338286541614613c1a565b6002820154600c8401548082106114b4576112c86007850154600486015490612ca3565b918160011b918083046002149015171561149e578214918215611493575b5050156113c85791600988927f95e2dcadf3d03f8cd2cbd4f77a9195edde5644076e21dc8cd6cea3d1528a09909b60028a6110779b9a9998978e600d8801600360ff198254161790556040519461133c86612bc4565b338652808601998d8b5260408701948552600052600c8152604060002091600052526040600020935116966001600160601b0360a01b978885541617845551600184015551910155600a8301308582541617905554910155309082541617905554604051958695869192608093969594919660a084019784526020840152604083015260608201520152565b60405162461bcd60e51b8152600481018b9052608b60248201527f416c6c2074686520696e7374616c6c6d656e74732066726f6d2074686520636f60448201527f6c61746572616c206d7573742068617665206265656e2070616964206f72206160648201527f74206c65617374207468652076616c75652070616964206d757374206265206760848201527f726561746572207468656e2074776f2074696d65732074686520656e7375726560a48201526a15985b1d5953995959195960aa1b60c482015260e490fd5b101590508b806112e6565b634e487b7160e01b600052601160045260246000fd5b60405162461bcd60e51b8152600481018d9052604860248201527f54686520636f6c6c61746572616c20746f74616c2076616c7565206d7573742060448201527f62652067726561746572207468616e2074756520656e737572616e636556616c6064820152671d5953995959195960c21b608482015260a490fd5b346101b85760203660031901126101b85760043560005260076020526101a0604060002080549060018101549060028101546003820154600483015460058401546006850154600786015491600887015493600988015495600a8901549760ff600c600b8c01549b0154169a6040519c8d5260208d015260408c015260608b015260808a015260a089015260c088015260e08701526101008601526101208501526101408401526101608301526115e681612b46565b610180820152f35b346101b857600319602036820181136101b857600435916001600160401b03908184116101b85760a09084360301126101b8576001600160a01b037f000000000000000000000000000000000000000000000000000000000000000081163303611a52576040519360a0850185811084821117610c3a5760405280600401358552602493848201359484861686036101b85781870195865260448301358581116101b8576116a29060043691860101612c36565b966040810197885260648401358681116101b8576116c69060043691870101612c36565b93606082019485526084810135908782116101b85701366023820112156101b8576004810135906116f682612c7d565b916117046040519384612bfa565b808352848684019160061b830101913683116101b8578501905b8282106119f757505050608082015280516000558351805181019084818184019303126101b85784810151908882116101b857019080603f830112156101b8578482015161176e926040016133f9565b918251908782116119e3575080600193611788855461405c565b601f8111611973575b508590601f83116001146118f3576000926118e8575b5050600019600383901b1c191690831b1782555b6117c3614096565b6060818051810103126101b8578084015187938760606117e56040860161414f565b940151931691600052600b865260406000209081546000526008875260406000209101546000528552604060002091806009840155600b8301826001600160601b0360a01b825416179055151590816118de575b506118ca575b5051955116955181818051810103126101b8578161185d910161414f565b9151908151820181838203126101b857818301519586116101b8576118af6118c593837fb1e312a29937cc11967b0e4a346fef1ae132424ebaba9dc6d90249dba053e87c988160409501920101613430565b9181519586951685528401526040830190612b0b565b0390a3005b600d01805460ff191660031790558861183f565b905015158a611839565b015190508a806117a7565b90859350601f19831691846000527fb10e2d527612073b26eecdfd717e6a320cf44b4afac2b0732d9fcbe2b7fa0cf69260005b8982821061195d5750508411611944575b505050811b0182556117bb565b015160001960f88460031b161c191690558a8080611937565b8385015186558997909501949384019301611926565b909150846000527fb10e2d527612073b26eecdfd717e6a320cf44b4afac2b0732d9fcbe2b7fa0cf6601f840160051c8101918785106119d9575b84939291601f88920160051c01915b8281106119ca575050611791565b600081558594508791016119bc565b90915081906119ad565b634e487b7160e01b60009081526041600452fd5b6040823603126101b85760405190604082018281108c821117611a3d576040528235908a821682036101b85782899260409452828501358382015281520191019061171e565b87634e487b7160e01b60005260416004526000fd5b6040516335fdcccd60e21b8152336004820152602490fd5b346101b857611a7836612ad2565b90600052600c6020526040600020906000526020526060604060002060018060a01b0381541690600260018201549101549060405192835260208301526040820152f35b346101b85760203660031901126101b8576001600160401b03611add612bae565b166000526002602052602060ff604060002054166040519015158152f35b346101b85760203660031901126101b8576001600160a01b03611b1c612b30565b166001600160601b0360a01b6005541617600555600080f35b346101b857611b4336612b90565b91928015611e885780841115611e2c578115611dd457611bac92602085611b6b600454612c94565b8060045585600060018060a01b03600f541692604051998a9586948593630a52975960e31b8552600485016040919493926060820195825260208201520152565b03925af193841561036e57600094611da0575b50670de0b6b3a76400009081810291818304149015171561149e57611be48382612cb6565b90611bef8482612cb6565b60058102908082046005149015171561149e57604051926101a08401928484106001600160401b03851117610c3a577fec4bc05e315b23da270ec6766339954281d936546eb6713b78e8a7b130f1823a98611d3a96606495604052865260208601528760408601526001606086015260808501528560a085015260c08401520460e0820152600061010082015260006101208201526000610140820152600061016082015260046101808201526004546000526007602052600c610180604060002092805184556020810151600185015560408101516002850155606081015160038501556080810151600485015560a0810151600585015560c0810151600685015560e0810151600785015561010081015160088501556101208101516009850155610140810151600a850155610160810151600b850155015191611d3483612b46565b01612cd6565b61107760045491826000526007602052611d6260406000206007600682015491015490612cee565b90836000526007602052600460406000200154604051958695869192608093969594919660a084019784526020840152604083015260608201520152565b9093506020813d602011611dcc575b81611dbc60209383612bfa565b810103126101b857519285611bbf565b3d9150611daf565b60405162461bcd60e51b815260206004820152602a60248201527f4d7573742073657420746865206e756d626572206f6620746f74616c207061726044820152697469636970616e74732160b01b6064820152608490fd5b60405162461bcd60e51b815260206004820152602e60248201527f4d7573742053656c6563742061206461746520746f2073746f7020746f20736560448201526d6c6c20746865207469746c65732160901b6064820152608490fd5b60405162461bcd60e51b815260206004820152602f60248201527f4d7573742053656c6563742061206461746520746f20737461727420746f207360448201526e656c6c20746865207469746c65732160881b6064820152608490fd5b346101b857611ef336612b66565b908260005260209160078352604060002091600884526040600020906000528352604060002093600685019360018060a01b0392838654163314801561237c575b1561231157831694611f47861515613fd0565b600d87019360ff855416611f5a81612b46565b600381036122b357600589015480612228575b5060078901549060038a01548214801561221b575b80156121fe575b156121905750506024600082600f541660405192838092638c83ddd360e01b82528c60048301525afa90811561036e57611fd19160019160009161216a575b501515146134a6565b600d80546001600160a01b031916881790556040516370a0823160e01b815230600482015283816024818b5afa90811561036e5760009161213d575b50600289019788548092106101b857835460405163a9059cbb60e01b81529084166001600160a01b03166004820152602481019290925284908290816000816044810103925af1801561036e576120cf575b50927fa15c2435fada31fa58c0eb6a516d9b0df54ed70f48f3680ba2b527955c5797c1926120cb97608093600a98979660088c015491541691549260405194855284015260408301526060820152a15b61010061ff001982541617905501916002835491015490612cee565b9055005b9195949390928083813d8311612136575b6120ea8183612bfa565b810103126101b8576120cb97600a977fa15c2435fada31fa58c0eb6a516d9b0df54ed70f48f3680ba2b527955c5797c19561212660809661344d565b509396979850935097509261205f565b503d6120e0565b90508381813d8311612163575b6121548183612bfa565b810103126101b857518961200d565b503d61214a565b61218791503d806000833e61217f8183612bfa565b81019061345a565b9150508b611fc8565b90916120cb9850600a9796955060a09350937f09878aa34b75479da70e37bce4455679dae86d7580d3cf362e48f2abb18baacd9460098b0154818a8d01541691600b8d01541692604051958652850152604084015260608301526121f381612b46565b6080820152a16120af565b5082600b8b01541615158015611f89575060098a01541515611f89565b5060098a01541515611f82565b600388015411156122395789611f6d565b60405162461bcd60e51b815260048101859052604660248201527f596f752063616e277420776974686472617720617420746869732074696d652e60448201527f20596f7572206c6f636b20706572696f6420656e6473206f6e207468652036206064820152656d6f6e74682160d01b608482015260a490fd5b60405162461bcd60e51b815260048101859052603060248201527f54686973207469746c6520646f6e2774206861766520746865207065726d697360448201526f73696f6e20746f20776974686472617760801b6064820152608490fd5b60405162461bcd60e51b815260048101839052603c60248201527f4d73672e73656e646572206d7573742062652074686520636f6e74726163742060448201527f4f776e6572206f72207468652070726f746f636f6c206f776e657221000000006064820152608490fd5b5083600654163314611f34565b346101b85760403660031901126101b8576024356001600160a01b03818116918290036101b8576123bf81600654163314614010565b6004356000526020906007825260406000209060ff600c830154166123e381612b46565b600281149081156125ce575b50156101b85761242f600961241b6124106008860154600b87015490612cfb565b600486015490612ca3565b930154926124298185612cfb565b93612cfb565b821161257b57612440841515613fd0565b600f541690604051638c83ddd360e01b8152846004820152600081602481865afa90811561036e5761247f9160019160009161255d57501515146134a6565b600d80546001600160a01b031916851790556040516370a0823160e01b81523060048201528381602481885afa801561036e57829160009161252c575b50106101b85760405163a9059cbb60e01b81526001600160a01b039290921660048301526024820152918190839060449082906000905af1801561036e5761250057005b81813d8311612525575b6125148183612bfa565b810103126101b8576101d49061344d565b503d61250a565b809250858092503d8311612556575b6125458183612bfa565b810103126101b857819051866124bc565b503d61253b565b61257291503d806000833e61217f8183612bfa565b91505087611fc8565b60405162461bcd60e51b815260048101849052602560248201527f5f616d6f756e742063616e27742065786365656420746865207469746c652076604482015264616c75652160d81b6064820152608490fd5b90506125d981612b46565b15856123ef565b346101b85760603660031901126101b857600435600052600a602052604060002060243560005260205260406000206044356000526020526101206040600020805490600181015490600281015460018060a01b038060038401541690600484015416600584015491600685015493600860ff60078801541696015496604051988952602089015260408801526060870152608086015260a085015260c0840152151560e0830152610100820152f35b346101b8576101d46126a136612ad2565b90613ca2565b346101b8576126b536612ad2565b906000526008602052604060002090600052602052604060002080549060018101549060028101546003820154600483015490600584015491600160a01b60019003928360068701541660078701549160088801549360098901549587600a8b01541697600b8b01541698600c8b01549a600d01549b604051809e81526020015260408d015260608c015260808b015260a08a015260c089015260e088015261010087015261012086015261014085015261016084015261018083015260ff811661277f81612b46565b6101a083015260081c60ff1615156101c08201526101e090f35b346101b85760203660031901126101b8576001600160a01b036127ba612b30565b166000526003602052602060ff604060002054166040519015158152f35b346101b85760003660031901126101b8576000546127f4614096565b906128116040519283928352604060208401526040830190612b0b565b0390f35b346101b85761282336612ad2565b90806000526020600781526040600020926008825260406000208160005282526040600020600781015460018060a01b039081600f541660028801546001830180841161149e576044889260405194859384926301933c3960e61b8452600484015260248301525afa90811561036e57600091612a05575b50610258806128aa8342612cfb565b111561299c5750506129147f6ab4dd234c62d1b45b38db6d308f4892d8a518161ee5f9ced15cef39697a8b6f91600b600d86019960ff199a8b8154169055016128f38154612c94565b9055604051918291878a846040919493926060820195825260208201520152565b0390a180600a83015416159182159261298c575b505061293057005b600d92600052600c825260406000209060005281526040600020600181015460005260078252604060002091600881526002604060002092015460005252600b604060002091016129818154612c94565b905501908154169055005b600b015416151590508580612928565b94509495505050935081421191826129f1575b50506129b757005b600d7f5238eef763c91b9905201192c7b588678d655a1fec573e5434470d30d3f975be9201600160ff1982541617905560405160018152a1005b6129fd91925042612cfb565b1083806129af565b90508581813d8311612a2b575b612a1c8183612bfa565b810103126101b857518861289b565b503d612a12565b346101b85760203660031901126101b857600435600052600b6020526040600020805461281160026001840154930154604051938493846040919493926060820195825260208201520152565b346101b85760203660031901126101b8576004359063ffffffff60e01b82168092036101b8576020916385572ffb60e01b8114908115612ac1575b5015158152f35b6301ffc9a760e01b14905083612aba565b60409060031901126101b8576004359060243590565b60005b838110612afb5750506000910152565b8181015183820152602001612aeb565b90602091612b2481518092818552858086019101612ae8565b601f01601f1916010190565b600435906001600160a01b03821682036101b857565b60051115612b5057565b634e487b7160e01b600052602160045260246000fd5b60609060031901126101b85760043590602435906044356001600160a01b03811681036101b85790565b60809060031901126101b85760043590602435906044359060643590565b600435906001600160401b03821682036101b857565b606081019081106001600160401b03821117610c3a57604052565b608081019081106001600160401b03821117610c3a57604052565b90601f801991011681019081106001600160401b03821117610c3a57604052565b6001600160401b038111610c3a57601f01601f191660200190565b81601f820112156101b857803590612c4d82612c1b565b92612c5b6040519485612bfa565b828452602083830101116101b857816000926020809301838601378301015290565b6001600160401b038111610c3a5760051b60200190565b600019811461149e5760010190565b8181029291811591840414171561149e57565b8115612cc0570490565b634e487b7160e01b600052601260045260246000fd5b90612ce081612b46565b60ff80198354169116179055565b9190820180921161149e57565b9190820391821161149e57565b91600090838252600760205260408220600860205260408320848452602052604083209060ff600c82015416612d3d81612b46565b600181149081156133e5575b50156133a057600d82019160ff835416612d6281612b46565b6002811490811561338b575b8115613377575b50156132f157600781019384549560058401548710156133235780871561331c5760018801808911613308575b60018060a01b03600f54166002870192602084546044604051809581936301933c3960e61b835260048301528760248301525afa9182156132fd57908c9186936132c2575b50859b83421190816132b8575b5015613272575050612e069042612cfb565b93846131a0575b505b600388549601958654908181101580613194575b801561316f575b612ef3575b5050505050509183917fb5504e065b5053e8d3e7d6a1f157f45d85f63c83397779391cc93b026292b25c9795936080979554600382015414612eca575b50825490541480612eb3575b612ea2575b50612e888385613b26565b5491604051938452602084015260408301526060820152a1565b805460ff1916600217905538612e7d565b50600160ff825416612ec481612b46565b14612e78565b825460ff1916600317835560090154612ee4575b38612e6c565b612eee8587613ca2565b612ede565b600687015460405196906001600160a01b03166001600160401b0361012089019081119089111761315b5761012088016040528d885284602089015242604089015233606089015260808801528b60a088015260c0870152600160e087015261010086015260018060a01b03600f5416908354823b1561315757906044869283604051958694859363560337d160e11b8552600485015260248401525af1801561314c5761311d575b50600f54915486546040516301acb51d60e31b81526004810192909252602482015291602090839060449082906001600160a01b03165afa9182156131125783926130c2575b508a8352600a60209081526040808520928552918152818420928452918252918290208351815590830151600182015590820151600282015560608201516003820180546001600160a01b039283166001600160a01b0319918216179091556080808501516004850180549190941692169190911790915560a0830151600583015560c0830151600683015560e083015160078301805460ff191691151560ff169190911790556101009092015160089091015582907fb5504e065b5053e8d3e7d6a1f157f45d85f63c83397779391cc93b026292b25c90388080612e2f565b999795939150999795939160208a3d60201161310a575b816130e660209383612bfa565b810103126101b8579851979996989597949693959294919390929190610100612fe2565b3d91506130d9565b6040513d85823e3d90fd5b6001600160401b038194929411613138576040529138612f9c565b634e487b7160e01b82526041600452602482fd5b6040513d86823e3d90fd5b8580fd5b634e487b7160e01b87526041600452602487fd5b50600182148061318c575b8015612e2a5750600887015415612e2a565b50801561317a565b50600887015415612e23565b600f548354600488810154604051632b18775560e01b815291820189905260248201929092526044810191909152919d9c9b9a506020908290606490829088906001600160a01b03165af190811561314c57849161323c575b508a9b9c818b613236939d9c9d9c7f57d559aaa778ae17e20a31e208d5763cb05667142a48b6098af5fb106b0ce8d96020604051858152a16134e7565b38612e0d565b90506020813d60201161326a575b8161325760209383612bfa565b8101031261326657518a6131f9565b8380fd5b3d915061324a565b95909a506132b391508c60048801549b8c917f57d559aaa778ae17e20a31e208d5763cb05667142a48b6098af5fb106b0ce8d96020604051858152a16134e7565b612e0f565b9050151538612df4565b915091506020813d6020116132f5575b816132df60209383612bfa565b810103126132f1578b90519138612de7565b8480fd5b3d91506132d2565b6040513d87823e3d90fd5b634e487b7160e01b83526011600452602483fd5b6001612da2565b60405162461bcd60e51b815260206004820152602660248201527f596f7520616c7265616479207061696420616c6c2074686520696e7374616c6c6044820152656d656e74732160d01b6064820152608490fd5b6003915061338481612b46565b1438612d75565b905061339681612b46565b6001811490612d6e565b60405162461bcd60e51b815260206004820152601760248201527f436865636b20746865207469746c6520737461747573210000000000000000006044820152606490fd5b600391506133f281612b46565b1438612d49565b9092919261340681612c1b565b916134146040519384612bfa565b8294828452828201116101b857602061342e930190612ae8565b565b9080601f830112156101b857815161344a926020016133f9565b90565b519081151582036101b857565b906060828203126101b8578151906001600160401b0382116101b857613481918301613430565b60208201519092906001600160a01b03811681036101b857604061344a91930161344d565b156134ad57565b60405162461bcd60e51b8152602060048201526012602482015271546f6b656e206e6f7420616c6c6f7765642160701b6044820152606490fd5b91929060009280845260209260088452604092838620908652845282852091855260078452828520918054600884015410613ad05760ff600d8201541661352d81612b46565b801590811591613abb575b5015613a3c576001600160a01b03918216908115613a005782600f541691855190638c83ddd360e01b8252818981600496848883015260249586915afa9081156139a757613592916001918c916139e357501515146134a6565b600d80546001600160a01b03191682179055828401548a106139b15786516370a0823160e01b8152338582015288818481855afa9081156139a757908b918b91613972575b50106139395787604491885192838092636eb1769f60e11b8252338983015230878301525afa90811561392f57908a918a916138fa575b501061389c5750806007600592016136268154612c94565b905501546137805760098301968754976006850154988961364691612cee565b9055600d5485516323b872dd60e01b80825233858301908152306020820152604081019b909b529990918891839187169082908c90829060600103925af1801561377657918891889695949361372f575b506136b190600685600d541695600f541696015490612cfb565b8651998a5233928a019283526001600160a01b039094166020830152604082019390935287928391829060600103925af190811561372657506136f357505050565b82813d831161371f575b6137078183612bfa565b8101031261371c57506137199061344d565b50565b80fd5b503d6136fd565b513d84823e3d90fd5b8092508691939495963d831161376f575b61374a8183612bfa565b8101031261376b576136b187959493926137648a9361344d565b5090613697565b8780fd5b503d613740565b86513d8a823e3d90fd5b6137a360098401936006855491019461379b86548093612cee565b905588612cfb565b1561385357600d54835485516323b872dd60e01b80825233858301908152306020820152604081019390935299929091889183918290036060019082908c9089165af18015613776579188918896959493613810575b506136b19084600d541694600f5416955490612cfb565b8092508691939495963d831161384c575b61382b8183612bfa565b8101031261376b576136b187959493926138458a9361344d565b50906137f9565b503d613821565b600d5484516323b872dd60e01b81523392810192835230602084015260408301989098528593508792169082908790829060600103925af190811561372657506136f357505050565b8260346084928989519362461bcd60e51b85528401528201527f596f75206d75737420617070726f76652074686520636f6e747261637420746f604482015273207472616e736665722074686520746f6b656e7360601b6064820152fd5b809250898092503d8311613928575b6139138183612bfa565b81010312613924578990513861360e565b8880fd5b503d613909565b87513d8b823e3d90fd5b865162461bcd60e51b815280850189905260148184015273496e73756666696369656e742062616c616e636560601b6044820152606490fd5b8092508a8092503d83116139a0575b61398b8183612bfa565b8101031261399c578a9051386135d7565b8980fd5b503d613981565b88513d8c823e3d90fd5b865162461bcd60e51b8152808501899052600d818401526c57726f6e672076616c7565212160981b6044820152606490fd5b6139f791503d808e833e61217f8183612bfa565b91505038611fc8565b845162461bcd60e51b8152600481018790526015602482015274456e746572206120746f6b656e206164647265737360581b6044820152606490fd5b835162461bcd60e51b815260048101869052604c60248201527f796f7572207469746c6520616c72656164792068617665206265656e2066696e60448201527f616c697a6564206f722063616e63656c65642e20506c6561736520636865636b60648201526b103a34329039ba30ba3ab99760a11b608482015260a490fd5b60049150613ac881612b46565b141538613538565b835162461bcd60e51b815260048101869052602960248201527f456e74657220612076616c696420636f6e747261637420496420666f722074686044820152686973205469746c652160b81b6064820152608490fd5b907f0612a8a5548125c3db9f13b41025df2c888d69f8a0351889cd94bd21a45dd34b91613bb6600c600083815260076020526040812090600860205260408120868252602052613b8460408220926006600785015491015490612ca3565b6002830154808210613bbb575050828201555b0154604051938493846040919493926060820195825260208201520152565b0390a1565b613bc59250612cfb565b82820155613b97565b15613bd557565b60405162461bcd60e51b815260206004820152601e60248201527f596f7520686176656e2774206265656e2073656c6563746564207965742100006044820152606490fd5b15613c2157565b60405162461bcd60e51b8152602060048201526024808201527f4f6e6c7920746865206f776e65722063616e20616464206120636f6c6c61746560448201526372616c2160e01b6064820152608490fd5b67ccf0a31a221f3c9b81526001600160a01b03909116602082015260606040820181905261344a92910190612b0b565b919060009280845260206008815260409485812084825282528581209160078301546003840154148015613f7a57600d840190600160ff835460081c16151503613f17578080613f01575b15613e0c575081613d819160088601548a51613d2281610252868201948d8d8791606093918352602083015260408201520190565b51902090600c8701548b5192848401528b83015285606083015260608252613d4982612bdf565b600460ff1982541617905560018060a01b0380601154169060055416868c51809681958294630a30e37760e41b845260048401613c72565b03925af18015613e0257613dd9575b50505060090154935190815260208101919091526040810192909252907fb18d5f900ae37817bc77a3309ab701e1f7568ee80db5bb6823b4a4f68ce62ee8908060608101613bb6565b813d8311613dfb575b613dec8183612bfa565b8101031261371c578080613d90565b503d613de2565b88513d85823e3d90fd5b8098939491979890613ef4575b613e27575b50505050505050565b7fb18d5f900ae37817bc77a3309ab701e1f7568ee80db5bb6823b4a4f68ce62ee89684600660099488613ee59852600c81528683208a845281528680842093815194613e7286612bc4565b60018060a01b0393848254168752600260018301549283838a01520154918488019283528352600881528383209151835252209251169101906001600160601b0360a01b825416179055600460ff1982541617905501549051938493846040919493926060820195825260208201520152565b0390a138808080808080613e1e565b5060098101541515613e19565b50600b8501546001600160a01b03161515613ced565b885162461bcd60e51b815260048101849052603660248201527f596f752063616e27742072657472696576652074686520636f6c6c61746572616044820152756c206265666f7265207468652077697468647261772160501b6064820152608490fd5b875162461bcd60e51b815260048101839052602960248201527f416c6c2074686520696e7374616c6c6d656e7473206d7573742068617665206260448201526865656e20706169642160b81b6064820152608490fd5b15613fd757565b60405162461bcd60e51b8152602060048201526011602482015270151bdad95b881b9bdd08185b1b1bddd959607a1b6044820152606490fd5b1561401757565b60405162461bcd60e51b815260206004820152601d60248201527f5468652063616c6c6572206d75737420626520746865206f776e6572210000006044820152606490fd5b90600182811c9216801561408c575b602083101461407657565b634e487b7160e01b600052602260045260246000fd5b91607f169161406b565b604051906000826001918254926140ac8461405c565b8084529381811690811561412d57506001146140d0575b5061342e92500383612bfa565b600081815291507fb10e2d527612073b26eecdfd717e6a320cf44b4afac2b0732d9fcbe2b7fa0cf65b848310614112575061342e9350508101602001386140c3565b81935090816020925483858a010152019101909185926140f9565b90506020925061342e94915060ff191682840152151560051b820101386140c3565b51906001600160a01b03821682036101b85756fea26469706673582212208806725e641bee49abf5d9c016b34e71b1c58cfbdce6f1987278b1f017fbfbcf64736f6c63430008140033",
  "linkReferences": {},
  "deployedLinkReferences": {}
}