{
  "_format": "hh-sol-artifact-1",
  "contractName": "Horizon",
  "sourceName": "contracts/Horizon.sol",
  "abi": [
    {
      "inputs": [
        {
          "internalType": "address",
          "name": "_router",
          "type": "address"
        }
      ],
      "stateMutability": "nonpayable",
      "type": "constructor"
    },
    {
      "inputs": [
        {
          "internalType": "address",
          "name": "router",
          "type": "address"
        }
      ],
      "name": "InvalidRouter",
      "type": "error"
    },
    {
      "anonymous": false,
      "inputs": [
        {
          "indexed": false,
          "internalType": "uint256",
          "name": "totalAmountLate",
          "type": "uint256"
        }
      ],
      "name": "AmountLateWithInterest",
      "type": "event"
    },
    {
      "anonymous": false,
      "inputs": [
        {
          "indexed": false,
          "internalType": "uint256",
          "name": "amountWithInterests",
          "type": "uint256"
        }
      ],
      "name": "AmountToPay",
      "type": "event"
    },
    {
      "anonymous": false,
      "inputs": [
        {
          "indexed": false,
          "internalType": "uint256",
          "name": "_idTitle",
          "type": "uint256"
        },
        {
          "indexed": false,
          "internalType": "uint256",
          "name": "_contractId",
          "type": "uint256"
        },
        {
          "indexed": false,
          "internalType": "uint256",
          "name": "_colateralId",
          "type": "uint256"
        }
      ],
      "name": "ColateralRefunded",
      "type": "event"
    },
    {
      "anonymous": false,
      "inputs": [
        {
          "indexed": false,
          "internalType": "uint256",
          "name": "_idTitle",
          "type": "uint256"
        },
        {
          "indexed": false,
          "internalType": "uint256",
          "name": "_contractId",
          "type": "uint256"
        },
        {
          "indexed": false,
          "internalType": "uint256",
          "name": "_drawNumber",
          "type": "uint256"
        },
        {
          "indexed": false,
          "internalType": "uint256",
          "name": "_idOfColateralTitle",
          "type": "uint256"
        },
        {
          "indexed": false,
          "internalType": "uint256",
          "name": "_idOfColateralContract",
          "type": "uint256"
        }
      ],
      "name": "ColateralTitleAdded",
      "type": "event"
    },
    {
      "anonymous": false,
      "inputs": [
        {
          "indexed": false,
          "internalType": "uint256",
          "name": "_idTitle",
          "type": "uint256"
        },
        {
          "indexed": false,
          "internalType": "uint256",
          "name": "_contractId",
          "type": "uint256"
        },
        {
          "indexed": false,
          "internalType": "uint256",
          "name": "_drawSelected",
          "type": "uint256"
        },
        {
          "indexed": false,
          "internalType": "address",
          "name": "_fujiReceiver",
          "type": "address"
        }
      ],
      "name": "CreatingPermission",
      "type": "event"
    },
    {
      "anonymous": false,
      "inputs": [
        {
          "indexed": false,
          "internalType": "uint256",
          "name": "_titleId",
          "type": "uint256"
        },
        {
          "indexed": false,
          "internalType": "uint256",
          "name": "_nextDrawNumber",
          "type": "uint256"
        },
        {
          "indexed": false,
          "internalType": "uint256",
          "name": "nextDrawParticipants",
          "type": "uint256"
        }
      ],
      "name": "DrawHasStarted",
      "type": "event"
    },
    {
      "anonymous": false,
      "inputs": [
        {
          "indexed": false,
          "internalType": "address",
          "name": "_temporaryEnsurance",
          "type": "address"
        }
      ],
      "name": "EnsuranceUpdated",
      "type": "event"
    },
    {
      "anonymous": false,
      "inputs": [
        {
          "indexed": false,
          "internalType": "uint256",
          "name": "_idTitle",
          "type": "uint256"
        },
        {
          "indexed": false,
          "internalType": "uint256",
          "name": "_contractId",
          "type": "uint256"
        },
        {
          "indexed": false,
          "internalType": "uint256",
          "name": "_valueOfEnsurance",
          "type": "uint256"
        }
      ],
      "name": "EnsuranceValueNeededUpdate",
      "type": "event"
    },
    {
      "anonymous": false,
      "inputs": [
        {
          "indexed": false,
          "internalType": "uint256",
          "name": "_idTitle",
          "type": "uint256"
        },
        {
          "indexed": false,
          "internalType": "uint256",
          "name": "_contractId",
          "type": "uint256"
        },
        {
          "indexed": false,
          "internalType": "uint256",
          "name": "_amount",
          "type": "uint256"
        },
        {
          "indexed": false,
          "internalType": "uint256",
          "name": "_installmentsPaid",
          "type": "uint256"
        }
      ],
      "name": "InstallmentPaid",
      "type": "event"
    },
    {
      "anonymous": false,
      "inputs": [
        {
          "indexed": false,
          "internalType": "uint256",
          "name": "_installmentsPaid",
          "type": "uint256"
        }
      ],
      "name": "LastInstallmentPaid",
      "type": "event"
    },
    {
      "anonymous": false,
      "inputs": [
        {
          "indexed": true,
          "internalType": "bytes32",
          "name": "messageId",
          "type": "bytes32"
        },
        {
          "indexed": true,
          "internalType": "uint64",
          "name": "sourceChainSelector",
          "type": "uint64"
        },
        {
          "indexed": false,
          "internalType": "address",
          "name": "sender",
          "type": "address"
        },
        {
          "indexed": false,
          "internalType": "string",
          "name": "text",
          "type": "string"
        }
      ],
      "name": "MessageReceived",
      "type": "event"
    },
    {
      "anonymous": false,
      "inputs": [
        {
          "indexed": false,
          "internalType": "uint256",
          "name": "_idTitle",
          "type": "uint256"
        },
        {
          "indexed": false,
          "internalType": "uint256",
          "name": "_drawNumber",
          "type": "uint256"
        },
        {
          "indexed": false,
          "internalType": "address",
          "name": "_winner",
          "type": "address"
        },
        {
          "indexed": false,
          "internalType": "uint256",
          "name": "_titleValue",
          "type": "uint256"
        }
      ],
      "name": "MonthlyWinnerPaid",
      "type": "event"
    },
    {
      "anonymous": false,
      "inputs": [
        {
          "indexed": false,
          "internalType": "uint256",
          "name": "_idTitle",
          "type": "uint256"
        },
        {
          "indexed": false,
          "internalType": "uint256",
          "name": "_drawNumber",
          "type": "uint256"
        },
        {
          "indexed": false,
          "internalType": "uint256",
          "name": "_randomValue",
          "type": "uint256"
        },
        {
          "indexed": false,
          "internalType": "uint256",
          "name": "_selectedContractId",
          "type": "uint256"
        },
        {
          "indexed": false,
          "internalType": "address",
          "name": "_winner",
          "type": "address"
        }
      ],
      "name": "MonthlyWinnerSelected",
      "type": "event"
    },
    {
      "anonymous": false,
      "inputs": [
        {
          "indexed": false,
          "internalType": "enum Horizon.MyTitleWithdraw",
          "name": "myTitleStatus",
          "type": "uint8"
        }
      ],
      "name": "MyTitleStatusUpdated",
      "type": "event"
    },
    {
      "anonymous": false,
      "inputs": [
        {
          "indexed": false,
          "internalType": "uint256",
          "name": "_titleId",
          "type": "uint256"
        },
        {
          "indexed": false,
          "internalType": "uint256",
          "name": "_scheduleId",
          "type": "uint256"
        },
        {
          "indexed": false,
          "internalType": "uint256",
          "name": "_titleValue",
          "type": "uint256"
        },
        {
          "indexed": false,
          "internalType": "uint256",
          "name": "_monthlyValue",
          "type": "uint256"
        },
        {
          "indexed": false,
          "internalType": "uint256",
          "name": "_installments",
          "type": "uint256"
        }
      ],
      "name": "NewTitleCreated",
      "type": "event"
    },
    {
      "anonymous": false,
      "inputs": [
        {
          "indexed": false,
          "internalType": "uint256",
          "name": "titleId",
          "type": "uint256"
        },
        {
          "indexed": false,
          "internalType": "uint256",
          "name": "_contractId",
          "type": "uint256"
        },
        {
          "indexed": false,
          "internalType": "address",
          "name": "_owner",
          "type": "address"
        }
      ],
      "name": "NewTitleSold",
      "type": "event"
    },
    {
      "anonymous": false,
      "inputs": [
        {
          "indexed": false,
          "internalType": "uint256",
          "name": "lateInstallments",
          "type": "uint256"
        }
      ],
      "name": "PaymentIsLate",
      "type": "event"
    },
    {
      "anonymous": false,
      "inputs": [
        {
          "indexed": false,
          "internalType": "uint256",
          "name": "_i",
          "type": "uint256"
        }
      ],
      "name": "PaymentLateNumber",
      "type": "event"
    },
    {
      "anonymous": false,
      "inputs": [
        {
          "indexed": false,
          "internalType": "uint256",
          "name": "_installmentsPaid",
          "type": "uint256"
        },
        {
          "indexed": false,
          "internalType": "uint256",
          "name": "_colateralTitleId",
          "type": "uint256"
        },
        {
          "indexed": false,
          "internalType": "address",
          "name": "_colateralTitleAddress",
          "type": "address"
        },
        {
          "indexed": false,
          "internalType": "address",
          "name": "colateralRWAAddress",
          "type": "address"
        },
        {
          "indexed": false,
          "internalType": "enum Horizon.MyTitleWithdraw",
          "name": "myTitleStatus",
          "type": "uint8"
        }
      ],
      "name": "ThereAreSomePendencies",
      "type": "event"
    },
    {
      "anonymous": false,
      "inputs": [
        {
          "indexed": false,
          "internalType": "uint256",
          "name": "_titlesAvailableForNextDraw",
          "type": "uint256"
        }
      ],
      "name": "ThisTitleHasBeenCanceled",
      "type": "event"
    },
    {
      "anonymous": false,
      "inputs": [
        {
          "indexed": false,
          "internalType": "uint256",
          "name": "_titleId",
          "type": "uint256"
        },
        {
          "indexed": false,
          "internalType": "uint256",
          "name": "_contractId",
          "type": "uint256"
        },
        {
          "indexed": false,
          "internalType": "uint256",
          "name": "_lastInstallmentPaid",
          "type": "uint256"
        }
      ],
      "name": "TitleCanceled",
      "type": "event"
    },
    {
      "anonymous": false,
      "inputs": [
        {
          "indexed": false,
          "internalType": "enum Horizon.TitleStatus",
          "name": "status",
          "type": "uint8"
        }
      ],
      "name": "TitleStatusUpdated",
      "type": "event"
    },
    {
      "anonymous": false,
      "inputs": [
        {
          "indexed": false,
          "internalType": "bool",
          "name": "fulfilled",
          "type": "bool"
        },
        {
          "indexed": false,
          "internalType": "uint256[]",
          "name": "randomWords",
          "type": "uint256[]"
        },
        {
          "indexed": false,
          "internalType": "uint256",
          "name": "randomValue",
          "type": "uint256"
        }
      ],
      "name": "VRFAnswer",
      "type": "event"
    },
    {
      "inputs": [
        {
          "internalType": "uint256",
          "name": "_idTitle",
          "type": "uint256"
        },
        {
          "internalType": "uint256",
          "name": "_contractId",
          "type": "uint256"
        }
      ],
      "name": "addRWAColateral",
      "outputs": [],
      "stateMutability": "nonpayable",
      "type": "function"
    },
    {
      "inputs": [
        {
          "internalType": "address",
          "name": "_receiverAddress",
          "type": "address"
        }
      ],
      "name": "addReceiver",
      "outputs": [],
      "stateMutability": "nonpayable",
      "type": "function"
    },
    {
      "inputs": [
        {
          "internalType": "address",
          "name": "_sender",
          "type": "address"
        }
      ],
      "name": "addSender",
      "outputs": [],
      "stateMutability": "nonpayable",
      "type": "function"
    },
    {
      "inputs": [
        {
          "internalType": "uint64",
          "name": "_sourceChainSelector",
          "type": "uint64"
        }
      ],
      "name": "addSourceChain",
      "outputs": [],
      "stateMutability": "nonpayable",
      "type": "function"
    },
    {
      "inputs": [
        {
          "internalType": "uint256",
          "name": "_titleId",
          "type": "uint256"
        },
        {
          "internalType": "uint256",
          "name": "_contractId",
          "type": "uint256"
        },
        {
          "internalType": "uint256",
          "name": "_idOfColateralTitle",
          "type": "uint256"
        },
        {
          "internalType": "uint256",
          "name": "_idOfColateralContract",
          "type": "uint256"
        }
      ],
      "name": "addTitleAsColateral",
      "outputs": [],
      "stateMutability": "nonpayable",
      "type": "function"
    },
    {
      "inputs": [
        {
          "internalType": "uint256",
          "name": "titleId",
          "type": "uint256"
        }
      ],
      "name": "allTitles",
      "outputs": [
        {
          "internalType": "uint256",
          "name": "openSellingDate",
          "type": "uint256"
        },
        {
          "internalType": "uint256",
          "name": "closeSellingDate",
          "type": "uint256"
        },
        {
          "internalType": "uint256",
          "name": "paymentSchedule",
          "type": "uint256"
        },
        {
          "internalType": "uint256",
          "name": "nextDrawNumber",
          "type": "uint256"
        },
        {
          "internalType": "uint256",
          "name": "titleValue",
          "type": "uint256"
        },
        {
          "internalType": "uint256",
          "name": "installments",
          "type": "uint256"
        },
        {
          "internalType": "uint256",
          "name": "monthlyInvestiment",
          "type": "uint256"
        },
        {
          "internalType": "uint256",
          "name": "protocolFee",
          "type": "uint256"
        },
        {
          "internalType": "uint256",
          "name": "numberOfTitlesSold",
          "type": "uint256"
        },
        {
          "internalType": "uint256",
          "name": "totalValueReceived",
          "type": "uint256"
        },
        {
          "internalType": "uint256",
          "name": "totalValuePaid",
          "type": "uint256"
        },
        {
          "internalType": "uint256",
          "name": "titleCanceled",
          "type": "uint256"
        },
        {
          "internalType": "enum Horizon.TitleStatus",
          "name": "status",
          "type": "uint8"
        }
      ],
      "stateMutability": "view",
      "type": "function"
    },
    {
      "inputs": [
        {
          "internalType": "uint64",
          "name": "_titleId",
          "type": "uint64"
        },
        {
          "internalType": "bool",
          "name": "withdrawPeriod",
          "type": "bool"
        },
        {
          "internalType": "contract IERC20",
          "name": "_tokenAddress",
          "type": "address"
        }
      ],
      "name": "buyTitle",
      "outputs": [],
      "stateMutability": "nonpayable",
      "type": "function"
    },
    {
      "inputs": [
        {
          "components": [
            {
              "internalType": "bytes32",
              "name": "messageId",
              "type": "bytes32"
            },
            {
              "internalType": "uint64",
              "name": "sourceChainSelector",
              "type": "uint64"
            },
            {
              "internalType": "bytes",
              "name": "sender",
              "type": "bytes"
            },
            {
              "internalType": "bytes",
              "name": "data",
              "type": "bytes"
            },
            {
              "components": [
                {
                  "internalType": "address",
                  "name": "token",
                  "type": "address"
                },
                {
                  "internalType": "uint256",
                  "name": "amount",
                  "type": "uint256"
                }
              ],
              "internalType": "struct Client.EVMTokenAmount[]",
              "name": "destTokenAmounts",
              "type": "tuple[]"
            }
          ],
          "internalType": "struct Client.Any2EVMMessage",
          "name": "message",
          "type": "tuple"
        }
      ],
      "name": "ccipReceive",
      "outputs": [],
      "stateMutability": "nonpayable",
      "type": "function"
    },
    {
      "inputs": [
        {
          "internalType": "uint256",
          "name": "titleId",
          "type": "uint256"
        },
        {
          "internalType": "uint256",
          "name": "contractId",
          "type": "uint256"
        }
      ],
      "name": "colateralInfos",
      "outputs": [
        {
          "internalType": "address",
          "name": "colateralOwner",
          "type": "address"
        },
        {
          "internalType": "uint256",
          "name": "titleIdOfColateral",
          "type": "uint256"
        },
        {
          "internalType": "uint256",
          "name": "contractIdOfColateral",
          "type": "uint256"
        }
      ],
      "stateMutability": "view",
      "type": "function"
    },
    {
      "inputs": [
        {
          "internalType": "uint256",
          "name": "_opening",
          "type": "uint256"
        },
        {
          "internalType": "uint256",
          "name": "_closing",
          "type": "uint256"
        },
        {
          "internalType": "uint256",
          "name": "_participants",
          "type": "uint256"
        },
        {
          "internalType": "uint256",
          "name": "_value",
          "type": "uint256"
        }
      ],
      "name": "createTitle",
      "outputs": [],
      "stateMutability": "nonpayable",
      "type": "function"
    },
    {
      "inputs": [
        {
          "internalType": "uint256",
          "name": "titleId",
          "type": "uint256"
        },
        {
          "internalType": "uint256",
          "name": "drawNumber",
          "type": "uint256"
        }
      ],
      "name": "drawInfos",
      "outputs": [
        {
          "internalType": "uint256",
          "name": "idTitle",
          "type": "uint256"
        },
        {
          "internalType": "uint256",
          "name": "drawNumber",
          "type": "uint256"
        },
        {
          "internalType": "uint256",
          "name": "drawDate",
          "type": "uint256"
        },
        {
          "internalType": "uint256",
          "name": "totalParticipants",
          "type": "uint256"
        },
        {
          "internalType": "uint256",
          "name": "requestId",
          "type": "uint256"
        },
        {
          "internalType": "uint256",
          "name": "randomNumberVRF",
          "type": "uint256"
        },
        {
          "internalType": "uint256",
          "name": "selectedContractID",
          "type": "uint256"
        },
        {
          "internalType": "address",
          "name": "winner",
          "type": "address"
        }
      ],
      "stateMutability": "view",
      "type": "function"
    },
    {
      "inputs": [],
      "name": "getLastReceivedMessageDetails",
      "outputs": [
        {
          "internalType": "bytes32",
          "name": "messageId",
          "type": "bytes32"
        },
        {
          "internalType": "bytes",
          "name": "text",
          "type": "bytes"
        }
      ],
      "stateMutability": "view",
      "type": "function"
    },
    {
      "inputs": [],
      "name": "getRouter",
      "outputs": [
        {
          "internalType": "address",
          "name": "",
          "type": "address"
        }
      ],
      "stateMutability": "view",
      "type": "function"
    },
    {
      "inputs": [
        {
          "internalType": "uint256",
          "name": "_idTitle",
          "type": "uint256"
        }
      ],
      "name": "monthlyVRFWinner",
      "outputs": [],
      "stateMutability": "nonpayable",
      "type": "function"
    },
    {
      "inputs": [
        {
          "internalType": "uint256",
          "name": "_idTitle",
          "type": "uint256"
        },
        {
          "internalType": "uint256",
          "name": "_contractId",
          "type": "uint256"
        },
        {
          "internalType": "contract IERC20",
          "name": "_tokenAddress",
          "type": "address"
        }
      ],
      "name": "payInstallment",
      "outputs": [],
      "stateMutability": "nonpayable",
      "type": "function"
    },
    {
      "inputs": [
        {
          "internalType": "bytes32",
          "name": "permissionHash",
          "type": "bytes32"
        }
      ],
      "name": "permissionInfo",
      "outputs": [
        {
          "internalType": "uint256",
          "name": "idTitle",
          "type": "uint256"
        },
        {
          "internalType": "uint256",
          "name": "contractId",
          "type": "uint256"
        },
        {
          "internalType": "uint256",
          "name": "drawNumber",
          "type": "uint256"
        }
      ],
      "stateMutability": "view",
      "type": "function"
    },
    {
      "inputs": [
        {
          "internalType": "uint256",
          "name": "_idTitle",
          "type": "uint256"
        },
        {
          "internalType": "contract IERC20",
          "name": "_tokenAddress",
          "type": "address"
        }
      ],
      "name": "protocolWithdraw",
      "outputs": [],
      "stateMutability": "nonpayable",
      "type": "function"
    },
    {
      "inputs": [
        {
          "internalType": "uint256",
          "name": "_idTitle",
          "type": "uint256"
        }
      ],
      "name": "receiveVRFRandomNumber",
      "outputs": [],
      "stateMutability": "nonpayable",
      "type": "function"
    },
    {
      "inputs": [
        {
          "internalType": "uint256",
          "name": "_idTitle",
          "type": "uint256"
        },
        {
          "internalType": "uint256",
          "name": "_contractId",
          "type": "uint256"
        }
      ],
      "name": "refundColateral",
      "outputs": [],
      "stateMutability": "nonpayable",
      "type": "function"
    },
    {
      "inputs": [
        {
          "internalType": "address",
          "name": "_sender",
          "type": "address"
        }
      ],
      "name": "removeSender",
      "outputs": [],
      "stateMutability": "nonpayable",
      "type": "function"
    },
    {
      "inputs": [
        {
          "internalType": "uint64",
          "name": "_sourceChainSelector",
          "type": "uint64"
        }
      ],
      "name": "removelistSourceChain",
      "outputs": [],
      "stateMutability": "nonpayable",
      "type": "function"
    },
    {
      "inputs": [
        {
          "internalType": "uint256",
          "name": "titleId",
          "type": "uint256"
        },
        {
          "internalType": "uint256",
          "name": "drawNumber",
          "type": "uint256"
        },
        {
          "internalType": "uint256",
          "name": "paymentOrderOrRandomValue",
          "type": "uint256"
        }
      ],
      "name": "selectorVRF",
      "outputs": [
        {
          "internalType": "uint256",
          "name": "contractId",
          "type": "uint256"
        },
        {
          "internalType": "uint256",
          "name": "installmentNumber",
          "type": "uint256"
        },
        {
          "internalType": "uint256",
          "name": "paymentDate",
          "type": "uint256"
        },
        {
          "internalType": "address",
          "name": "payerAddress",
          "type": "address"
        },
        {
          "internalType": "address",
          "name": "user",
          "type": "address"
        },
        {
          "internalType": "uint256",
          "name": "amount",
          "type": "uint256"
        },
        {
          "internalType": "uint256",
          "name": "paymentDelay",
          "type": "uint256"
        },
        {
          "internalType": "bool",
          "name": "paid",
          "type": "bool"
        },
        {
          "internalType": "uint256",
          "name": "installmentsPaid",
          "type": "uint256"
        }
      ],
      "stateMutability": "view",
      "type": "function"
    },
    {
      "inputs": [
        {
          "internalType": "bytes4",
          "name": "interfaceId",
          "type": "bytes4"
        }
      ],
      "name": "supportsInterface",
      "outputs": [
        {
          "internalType": "bool",
          "name": "",
          "type": "bool"
        }
      ],
      "stateMutability": "pure",
      "type": "function"
    },
    {
      "inputs": [
        {
          "internalType": "address",
          "name": "owner",
          "type": "address"
        }
      ],
      "name": "titleOwner",
      "outputs": [
        {
          "internalType": "uint256",
          "name": "contractId",
          "type": "uint256"
        },
        {
          "internalType": "uint256",
          "name": "titleValue",
          "type": "uint256"
        },
        {
          "internalType": "uint256",
          "name": "installments",
          "type": "uint256"
        },
        {
          "internalType": "uint256",
          "name": "monthlyValue",
          "type": "uint256"
        },
        {
          "internalType": "uint256",
          "name": "periodLocked",
          "type": "uint256"
        },
        {
          "internalType": "address",
          "name": "titleOwner",
          "type": "address"
        },
        {
          "internalType": "uint256",
          "name": "installmentsPaid",
          "type": "uint256"
        },
        {
          "internalType": "uint256",
          "name": "drawSelected",
          "type": "uint256"
        },
        {
          "internalType": "uint256",
          "name": "colateralId",
          "type": "uint256"
        },
        {
          "internalType": "address",
          "name": "colateralTitleAddress",
          "type": "address"
        },
        {
          "internalType": "address",
          "name": "colateralRWAAddress",
          "type": "address"
        },
        {
          "internalType": "uint256",
          "name": "valueOfEnsuranceNeeded",
          "type": "uint256"
        },
        {
          "internalType": "enum Horizon.MyTitleWithdraw",
          "name": "myTitleStatus",
          "type": "uint8"
        },
        {
          "internalType": "bool",
          "name": "paid",
          "type": "bool"
        }
      ],
      "stateMutability": "view",
      "type": "function"
    },
    {
      "inputs": [
        {
          "internalType": "uint256",
          "name": "titleId",
          "type": "uint256"
        },
        {
          "internalType": "uint256",
          "name": "contractId",
          "type": "uint256"
        }
      ],
      "name": "titleSoldInfos",
      "outputs": [
        {
          "internalType": "uint256",
          "name": "contractId",
          "type": "uint256"
        },
        {
          "internalType": "uint256",
          "name": "titleValue",
          "type": "uint256"
        },
        {
          "internalType": "uint256",
          "name": "installments",
          "type": "uint256"
        },
        {
          "internalType": "uint256",
          "name": "monthlyValue",
          "type": "uint256"
        },
        {
          "internalType": "uint256",
          "name": "periodLocked",
          "type": "uint256"
        },
        {
          "internalType": "address",
          "name": "titleOwner",
          "type": "address"
        },
        {
          "internalType": "uint256",
          "name": "installmentsPaid",
          "type": "uint256"
        },
        {
          "internalType": "uint256",
          "name": "drawSelected",
          "type": "uint256"
        },
        {
          "internalType": "uint256",
          "name": "colateralId",
          "type": "uint256"
        },
        {
          "internalType": "address",
          "name": "colateralTitleAddress",
          "type": "address"
        },
        {
          "internalType": "address",
          "name": "colateralRWAAddress",
          "type": "address"
        },
        {
          "internalType": "uint256",
          "name": "valueOfEnsuranceNeeded",
          "type": "uint256"
        },
        {
          "internalType": "enum Horizon.MyTitleWithdraw",
          "name": "myTitleStatus",
          "type": "uint8"
        },
        {
          "internalType": "bool",
          "name": "paid",
          "type": "bool"
        }
      ],
      "stateMutability": "view",
      "type": "function"
    },
    {
      "inputs": [
        {
          "internalType": "uint256",
          "name": "_titleId",
          "type": "uint256"
        }
      ],
      "name": "updateTitleStatus",
      "outputs": [],
      "stateMutability": "nonpayable",
      "type": "function"
    },
    {
      "inputs": [
        {
          "internalType": "uint256",
          "name": "_titleId",
          "type": "uint256"
        },
        {
          "internalType": "uint256",
          "name": "_contractId",
          "type": "uint256"
        }
      ],
      "name": "verifyLatePayments",
      "outputs": [],
      "stateMutability": "nonpayable",
      "type": "function"
    },
    {
      "inputs": [
        {
          "internalType": "address",
          "name": "",
          "type": "address"
        }
      ],
      "name": "whitelistedSenders",
      "outputs": [
        {
          "internalType": "bool",
          "name": "",
          "type": "bool"
        }
      ],
      "stateMutability": "view",
      "type": "function"
    },
    {
      "inputs": [
        {
          "internalType": "uint64",
          "name": "",
          "type": "uint64"
        }
      ],
      "name": "whitelistedSourceChains",
      "outputs": [
        {
          "internalType": "bool",
          "name": "",
          "type": "bool"
        }
      ],
      "stateMutability": "view",
      "type": "function"
    },
    {
      "inputs": [
        {
          "internalType": "uint256",
          "name": "_idTitle",
          "type": "uint256"
        },
        {
          "internalType": "uint256",
          "name": "_contractId",
          "type": "uint256"
        },
        {
          "internalType": "contract IERC20",
          "name": "_stablecoin",
          "type": "address"
        }
      ],
      "name": "winnerWithdraw",
      "outputs": [],
      "stateMutability": "nonpayable",
      "type": "function"
    }
  ],
  "bytecode": "0x60a0346200010857601f620044a138819003918201601f19168301916001600160401b038311848410176200010d578084926020946040528339810103126200010857516001600160a01b038116808203620001085715620000ef57608052600060045560018060a01b0319733547951aaa367094afabcae24f123473ff502bfa81601054161760105573a75447c1a6dd04da5ceb791023fa7192cc577cfa81601154161760115573ded9e0f0d9274a74cc5506f80802781dde6b7e118160125416176012553390600654161760065560405161437d9081620001248239608051818181610ca501526114d70152f35b6040516335fdcccd60e21b815260006004820152602490fd5b600080fd5b634e487b7160e01b600052604160045260246000fdfe60c080604052600436101561001357600080fd5b60003560e01c90816301ffc9a714612b8d5750806309249e4314612b405780632347865414612923578063263596a5146128ea578063272efc69146128ab5780632d7c0b7f146125b157806331ae0df6146125175780634991126d146124675780634c67469c146122105780634facbacb14611d6c57806358a15a2e14611d55578063643233e51461198f57806369d83ed1146119555780637dc91a021461191657806385572ffb1461149a5780638a12312c146113dc5780638f9fce70146111e9578063927c68141461114a5780639beaf73114610daf578063ab92263114610d26578063ad3b6da314610cd4578063b0f479a114610c8f578063b2f8764314610c43578063b697f53114610bf4578063ba658a44146107b3578063c5ec1c7a14610761578063d0ade9d51461049e578063d762a160146101d6578063f2e7896b146101bd5763ff46ed531461016957600080fd5b346101b85760203660031901126101b8576001600160401b0361018a612d43565b61019f60018060a01b036006541633146141f4565b166000908152600260205260409020805460ff19169055005b600080fd5b346101b8576101d46101ce36612d19565b91612e9d565b005b346101b8576020806003193601126101b8576004359081600052600781526040600020600c81019283549160ff83169161020f83612c72565b6004831480801561048b575b8015610478575b1561043357825442119081610422575b501561027357505050507fb34436423c205503bb9de249902d7e3e7fc76197d9cec741c46e9e0dd6489f4491600360ff1982541617905560405160038152a1005b600182959495015442118061040f575b1561029a575050505050600160ff19825416179055005b60018060a0979596971b036010541692856003840154926044604051809781936301acb51d60e31b835260048301528660248301525afa938415610403576000946103d4575b506102ea81612c72565b60018114918291826103c6575b8315610381575b5050506000146103425750507fb34436423c205503bb9de249902d7e3e7fc76197d9cec741c46e9e0dd6489f449250600260ff1982541617905560405160028152a1005b600801549091901561035057005b7f2e24ed849df3be5edecca4a9280b775d8d82b800d0ebefaa298f3d61a0998a709360ff19169055604051908152a1005b61038d91929350612c72565b816103aa575b50806103a2575b8680806102fe565b50811561039a565b6103ba9150600b83015490612e83565b60058201541086610393565b6005850154821193506102f7565b9093508581813d83116103fc575b6103ec8183612d8f565b810103126101b8575192876102e0565b503d6103e2565b6040513d6000823e3d90fd5b5061041983612c72565b60038314610283565b905061042d84612c72565b87610232565b60405162461bcd60e51b815260048101879052601860248201527f54686973207469746c6520616c726561647920656e64656400000000000000006044820152606490fd5b5061048284612c72565b60018414610222565b5061049584612c72565b6003841461021b565b346101b8576020806003193601126101b8576004358060005260078252604060002091600a8152604060002060038401908154600052825260406000209060018060a01b03806011541695600060048501546024604051809a819363d8a4676f60e01b835260048301525afa92831561040357600080986000956106ba575b50156106755760405160608101986001998a83526060898401528151809152886080840192019060005b81811061066257507f495707aadfdb79a8158bc4c70170204a5bd6402ce8d4f16af9b93d19f5b864b760a08c8c8f8c8e918d8d8d7f6eed17f1838c49c44631282c96ef8d77984fda771e865bc74772b03c5da4bde78e808f8860408301520390a187600052600b8752604060002093600c81880193845496876000528a526040600020886000528a526040600020968860058b0155875460068b015560048801996007888c54169101906001600160601b038f1b8254161790558b60005260088b52604060002088546000528b5260076040600020015561062987548c613d0b565b019060ff1982541617905561063e8154612e29565b905554915493541693604051958652850152604084015260608301526080820152a1005b82518452928a0192918a01918c01610547565b60405162461bcd60e51b815260048101879052601960248201527f5652462072657175657374206e6f742066756c66696c6c6564000000000000006044820152606490fd5b98505092503d806000893e6106cf8189612d8f565b8701926060888503126101b8576106e5886135df565b97868101516001600160401b0381116101b85781019480601f870112156101b857855161071181612e12565b9661071f6040519889612d8f565b818852898089019260051b8201019283116101b85789809101915b83831061075157505050506040015193978961051d565b82518152918101918a910161073a565b346101b85760203660031901126101b8576001600160401b03610782612d43565b61079760018060a01b036006541633146141f4565b166000908152600260205260409020805460ff19166001179055005b346101b85760603660031901126101b8576107cc612d43565b602435908115158092036101b857604435906001600160a01b03821682036101b8576001600160401b0380821660005260076020526040600020600360ff600c8301541661081981612c72565b03610b92576008810190815494600582015495868111610b5c5761083e600191612e29565b8085559703610b505760078201546108626000915b60066004860154950154612e83565b97604051906101c082019282841088851117610b3a577f8ecbebf0ef006f42fa814352d84bbb196bfdfe7917f18d24abe89a05e7045d2f9a60609a610b2397610b1996604052848652602086015260408501528a84015260808301523360a0830152600060c0830152600060e08301526000610100830152600061012083015260006101408301526000610160830152600261018083015260006101a08301528688166000526008602052604060002090600052602052610a17600c60406000208351815560208401516001820155604084015160028201558a84015160038201556080840151600482015560018060a01b0360a0850151166001600160601b0360a01b60058301541617600582015560c0840151600682015560e0840151600782015561010084015160088201556009810160018060a01b03610120860151166001600160601b0360a01b825416179055600a810160018060a01b03610140860151166001600160601b0360a01b825416179055610160840151600b820155016109fb6101808401516109f581612c72565b82612e6b565b6101a0830151815461ff00191690151560081b61ff0016179055565b3360005260096020526101a0600c60406000208351815560208401516001820155604084015160028201558a8401516003820155608084015160048201556005810160018060a01b0360a0860151166001600160601b0360a01b82541617905560c0840151600682015560e0840151600782015561010084015160088201556009810160018060a01b03610120860151166001600160601b0360a01b825416179055600a810160018060a01b03610140860151166001600160601b0360a01b825416179055610160840151600b8201550191610b01610180820151610afb81612c72565b84612e6b565b0151815461ff00191690151560081b61ff0016179055565b8254848616612e9d565b5490604051921682526020820152336040820152a1005b634e487b7160e01b600052604160045260246000fd5b60026108626000610853565b60405162461bcd60e51b815260206004820152600e60248201526d5469746c6520736f6c646f75742160901b6044820152606490fd5b60405162461bcd60e51b815260206004820152603460248201527f54686973205469746c65206973206e6f7420617661696c61626c652e20436865604482015273636b20746865205469746c65207374617475732160601b6064820152608490fd5b346101b85760203660031901126101b857610c0d612c3e565b6006546001600160a01b039190610c2790831633146141f4565b166000908152600360205260409020805460ff19166001179055005b346101b85760203660031901126101b857610c5c612c3e565b6006546001600160a01b039190610c7690831633146141f4565b166000908152600360205260409020805460ff19169055005b346101b85760003660031901126101b8576040517f00000000000000000000000000000000000000000000000000000000000000006001600160a01b03168152602090f35b346101b857610ce236612be0565b90600052600d6020526040600020906000526020526060604060002060018060a01b0381541690600260018201549101549060405192835260208301526040820152f35b346101b857610d3436612be0565b90600052600a602052604060002090600052602052610100604060002080549060018101549060028101546003820154600483015490600584015492600685015494600760018060a01b039101541695604051978852602088015260408701526060860152608085015260a084015260c083015260e0820152f35b346101b8576020806003193601126101b8576004358060005260078252604060002090600382019182546005820193845482116111055760105460028401546040516314d8039960e11b815260048101829052602481018590526001600160a01b03959286169491908981604481895afa908115610403576000916110d8575b5042111561109d5788906044604051809781936301acb51d60e31b835260048301528560248301525afa9384156104035760009461106e575b50831561100f57601154604051630c9807d960e21b8152600481018890526024810192909252604482018590529091908890839060649082906000908a165af191821561040357600092610fdf575b50600c019160ff19916004838554161784558154956040516101008101908082106001600160401b03831117610b3a577fe160e545b5d1ccfe12a70aa9f9e59ae0c6f1a1147f6c303332dff05b497401f29b610fcb998b956007946040528684528284018281526040850142815260608601918d83526080870193845260a08701946000865260c08801966000885260e089019b60008d52600052600a815260406000209160005252604060002096518755516001870155516002860155516003850155516004840155516005830155516006820155019151166001600160601b0360a01b8254161790555495548611610fd0575b5050604051938493846040919493926060820195825260208201520152565b0390a1005b81541660021790558580610fac565b9091508781813d8311611008575b610ff78183612d8f565b810103126101b8575190600c610eb7565b503d610fed565b60405162461bcd60e51b815260048101899052603160248201527f5468657265206973206e6f207061727469636970616e74657320617661696c61604482015270626c6520666f722074686520647261772160781b6064820152608490fd5b9093508781813d8311611096575b6110868183612d8f565b810103126101b857519288610e68565b503d61107c565b60405162461bcd60e51b8152600481018a9052601360248201527249736e2774207468652074696d65207965742160681b6044820152606490fd5b90508981813d83116110fe575b6110ef8183612d8f565b810103126101b857518a610e2f565b503d6110e5565b60405162461bcd60e51b815260048101879052601e60248201527f416c6c2074686520647261777320616c7265616479206f6375727265642100006044820152606490fd5b346101b85760203660031901126101b8576001600160a01b038061116c612c3e565b1660005260096020526040600020908154906001830154906002840154926003850154946004810154928060058301541690600683015460078401546008850154918360098701541693600a8701541694600b87015496600c0154986040519c8d9c8d9c8c60081c60ff169c60ff169b6111e59e612c92565b0390f35b346101b8576111f736612be0565b908060005260206008815260406000208360005281526040600020600781018054611223811515613db2565b60058301546001600160a01b039390841633036113815760408051808701888152602081018a90529182018490526112fc9387939092600b9261127381606084015b03601f198101835282612d8f565b5190209260026040519161128683612d59565b8b83528683018d81526040840191825286600052600c88526040600020935184555160018401555191015501546040519183830152604082015260016060820152606081526112d481612d74565b846012541685600554166000604051809681958294630a30e37760e41b845260048401613e56565b03925af1801561040357611350575b7f28c64511bad94645265b4ac8c503dd3b588ca95f2bfb17598135c3e6cdc4be8260808686868a875491600554169260405194855284015260408301526060820152a1005b928092919493813d831161137a575b6113698183612d8f565b810103126101b8579091928561130b565b503d61135f565b60405162461bcd60e51b815260048101869052602d60248201527f4f6e6c792074686520647261772077696e6e65722063616e206372656174652060448201526c61207065726d697373696f6e2160981b6064820152608490fd5b346101b85760203660031901126101b85760043560005260076020526101a0604060002080549060018101549060028101546003820154600483015460058401546006850154600786015491600887015493600988015495600a8901549760ff600c600b8c01549b0154169a6040519c8d5260208d015260408c015260608b015260808a015260a089015260c088015260e087015261010086015261012085015261014084015261016083015261149281612c72565b610180820152f35b346101b857600319602036820181136101b857600435916001600160401b03908184116101b85760a09084360301126101b8576001600160a01b037f0000000000000000000000000000000000000000000000000000000000000000811633036118fe576040519360a0850185811084821117610b3a5760405280600401358552602493848201359484861686036101b85781870195865260448301358581116101b85761154e9060043691860101612dcb565b966040810197885260648401358681116101b8576115729060043691870101612dcb565b93606082019485526084810135908782116101b85701366023820112156101b8576004810135906115a282612e12565b916115b06040519384612d8f565b808352848684019160061b830101913683116101b8578501905b8282106118a357505050608082015280516000558351805181019084818184019303126101b85784810151908882116101b857019080603f830112156101b8578482015161161a9260400161358b565b9182519087821161188f5750806001936116348554614240565b601f811161181f575b508590601f831160011461179f57600092611794575b5050600019600383901b1c191690831b1782555b61166f61427a565b6060818051810103126101b85780840151879387606061169160408601614333565b940151931691600052600c865260406000209081546000526008875260406000209101546000528552604060002091806008840155600a8301826001600160601b0360a01b8254161790551515908161178a575b50611776575b5051955116955181818051810103126101b857816117099101614333565b9151908151820181838203126101b857818301519586116101b85761175b61177193837fb1e312a29937cc11967b0e4a346fef1ae132424ebaba9dc6d90249dba053e87c9881604095019201016135c2565b9181519586951685528401526040830190612c19565b0390a3005b600c01805460ff19166003179055886116eb565b905015158a6116e5565b015190508a80611653565b90859350601f19831691846000527fb10e2d527612073b26eecdfd717e6a320cf44b4afac2b0732d9fcbe2b7fa0cf69260005b8982821061180957505084116117f0575b505050811b018255611667565b015160001960f88460031b161c191690558a80806117e3565b83850151865589979095019493840193016117d2565b909150846000527fb10e2d527612073b26eecdfd717e6a320cf44b4afac2b0732d9fcbe2b7fa0cf6601f840160051c810191878510611885575b84939291601f88920160051c01915b82811061187657505061163d565b60008155859450879101611868565b9091508190611859565b634e487b7160e01b60009081526041600452fd5b6040823603126101b85760405190604082018281108c8211176118e9576040528235908a821682036101b8578289926040945282850135838201528152019101906115ca565b87634e487b7160e01b60005260416004526000fd5b6040516335fdcccd60e21b8152336004820152602490fd5b346101b85760203660031901126101b8576001600160401b03611937612d43565b166000526002602052602060ff604060002054166040519015158152f35b346101b85760203660031901126101b8576001600160a01b03611976612c3e565b166001600160601b0360a01b6005541617600555600080f35b346101b85761199d36612c54565b91928015611cf85780841115611c9c578115611c4457611a06926020856119c5600454612e29565b8060045585600060018060a01b036010541692604051998a9586948593630a52975960e31b8552600485016040919493926060820195825260208201520152565b03925af193841561040357600094611c10575b50670de0b6b3a764000090818102918183041490151715611bfa57611a3e8382612e4b565b90611a498482612e4b565b600581029080820460051490151715611bfa57604051926101a08401928484106001600160401b03851117610b3a577fec4bc05e315b23da270ec6766339954281d936546eb6713b78e8a7b130f1823a98611b9496606495604052865260208601528760408601526001606086015260808501528560a085015260c08401520460e0820152600061010082015260006101208201526000610140820152600061016082015260046101808201526004546000526007602052600c610180604060002092805184556020810151600185015560408101516002850155606081015160038501556080810151600485015560a0810151600585015560c0810151600685015560e0810151600785015561010081015160088501556101208101516009850155610140810151600a850155610160810151600b850155015191611b8e83612c72565b01612e6b565b610fcb60045491826000526007602052611bbc60406000206007600682015491015490612e83565b90836000526007602052600460406000200154604051958695869192608093969594919660a084019784526020840152604083015260608201520152565b634e487b7160e01b600052601160045260246000fd5b9093506020813d602011611c3c575b81611c2c60209383612d8f565b810103126101b857519285611a19565b3d9150611c1f565b60405162461bcd60e51b815260206004820152602a60248201527f4d7573742073657420746865206e756d626572206f6620746f74616c207061726044820152697469636970616e74732160b01b6064820152608490fd5b60405162461bcd60e51b815260206004820152602e60248201527f4d7573742053656c6563742061206461746520746f2073746f7020746f20736560448201526d6c6c20746865207469746c65732160901b6064820152608490fd5b60405162461bcd60e51b815260206004820152602f60248201527f4d7573742053656c6563742061206461746520746f20737461727420746f207360448201526e656c6c20746865207469746c65732160881b6064820152608490fd5b346101b8576101d4611d6636612be0565b90613e86565b346101b857611d7a36612d19565b908260005260209160078352604060002091600884526040600020906000528352604060002093600585019360018060a01b03928386541633148015612203575b1561219857831694611dce8615156141b4565b600c87019360ff855416611de181612c72565b6003810361213a576004890154806120af575b5060068901549060028a0154821480156120a2575b8015612085575b1561201757505060246000826010541660405192838092638c83ddd360e01b82528c60048301525afa90811561040357611e5891600191600091611ff1575b50151514613638565b600e80546001600160a01b031916881790556040516370a0823160e01b815230600482015283816024818b5afa90811561040357600091611fc4575b50600189019788548092106101b857835460405163a9059cbb60e01b81529084166001600160a01b03166004820152602481019290925284908290816000816044810103925af1801561040357611f56575b50927fa15c2435fada31fa58c0eb6a516d9b0df54ed70f48f3680ba2b527955c5797c192611f5297608093600a98979660078c015491541691549260405194855284015260408301526060820152a15b61010061ff001982541617905501916001835491015490612e83565b9055005b9195949390928083813d8311611fbd575b611f718183612d8f565b810103126101b857611f5297600a977fa15c2435fada31fa58c0eb6a516d9b0df54ed70f48f3680ba2b527955c5797c195611fad6080966135df565b5093969798509350975092611ee6565b503d611f67565b90508381813d8311611fea575b611fdb8183612d8f565b810103126101b8575189611e94565b503d611fd1565b61200e91503d806000833e6120068183612d8f565b8101906135ec565b9150508b611e4f565b9091611f529850600a9796955060a09350937f09878aa34b75479da70e37bce4455679dae86d7580d3cf362e48f2abb18baacd9460088b01548160098d015416918a8d015416926040519586528501526040840152606083015261207a81612c72565b6080820152a1611f36565b5082600a8b01541615158015611e10575060088a01541515611e10565b5060088a01541515611e09565b600388015411156120c05789611df4565b60405162461bcd60e51b815260048101859052604660248201527f596f752063616e277420776974686472617720617420746869732074696d652e60448201527f20596f7572206c6f636b20706572696f6420656e6473206f6e207468652036206064820152656d6f6e74682160d01b608482015260a490fd5b60405162461bcd60e51b815260048101859052603060248201527f54686973207469746c6520646f6e2774206861766520746865207065726d697360448201526f73696f6e20746f20776974686472617760801b6064820152608490fd5b60405162461bcd60e51b815260048101839052603c60248201527f4d73672e73656e646572206d7573742062652074686520636f6e74726163742060448201527f4f776e6572206f72207468652070726f746f636f6c206f776e657221000000006064820152608490fd5b5083600654163314611dbb565b346101b85760403660031901126101b8576024356001600160a01b03818116918290036101b857612246816006541633146141f4565b6004356000526020906007825260406000209060ff600c8301541661226a81612c72565b60028114908115612455575b50156101b8576122b660096122a26122976008860154600b87015490612e90565b600486015490612e38565b930154926122b08185612e90565b93612e90565b8211612402576122c78415156141b4565b6010541690604051638c83ddd360e01b8152846004820152600081602481865afa90811561040357612306916001916000916123e45750151514613638565b600e80546001600160a01b031916851790556040516370a0823160e01b81523060048201528381602481885afa80156104035782916000916123b3575b50106101b85760405163a9059cbb60e01b81526001600160a01b039290921660048301526024820152918190839060449082906000905af180156104035761238757005b81813d83116123ac575b61239b8183612d8f565b810103126101b8576101d4906135df565b503d612391565b809250858092503d83116123dd575b6123cc8183612d8f565b810103126101b85781905186612343565b503d6123c2565b6123f991503d806000833e6120068183612d8f565b91505087611e4f565b60405162461bcd60e51b815260048101849052602560248201527f5f616d6f756e742063616e27742065786365656420746865207469746c652076604482015264616c75652160d81b6064820152608490fd5b905061246081612c72565b1585612276565b346101b85760603660031901126101b857600435600052600b602052604060002060243560005260205260406000206044356000526020526101206040600020805490600181015490600281015460018060a01b038060038401541690600484015416600584015491600685015493600860ff60078801541696015496604051988952602089015260408801526060870152608086015260a085015260c0840152151560e0830152610100820152f35b346101b85761252536612be0565b90600052600860205260406000209060005260205260406000208054906001810154600282015491600381015493600482015491600160a01b600190038060058301541690600683015460078401546008850154918360098701541693600a8701541694600b87015496600c0154986040519c8d9c8d9c8c60081c60ff169c60ff169b6111e59e612c92565b346101b8576125bf36612c54565b81600094929452602093600885526040600020826000528552604060002083600052600886526040600020856000528652604060002090600782019161260783541515613db2565b60058101546001600160a01b0392906126239084163314613dfe565b6005810192612636338286541614613dfe565b6001820154600b8401548082106128305761265a6006850154600386015490612e38565b918160011b9180830460021490151715611bfa578214918215612825575b50501561275a5791600888927f50243003e9d7ef147493229d55468984fe3256e1b1cf63b435c46d06331682a49b60028a610fcb9b9a9998978e600c8801600360ff19825416179055604051946126ce86612d59565b338652808601998d8b5260408701948552600052600d8152604060002091600052526040600020935116966001600160601b0360a01b97888554161784555160018401555191015560098301308582541617905554910155309082541617905554604051958695869192608093969594919660a084019784526020840152604083015260608201520152565b60405162461bcd60e51b8152600481018b9052608b60248201527f416c6c2074686520696e7374616c6c6d656e74732066726f6d2074686520636f60448201527f6c61746572616c206d7573742068617665206265656e2070616964206f72206160648201527f74206c65617374207468652076616c75652070616964206d757374206265206760848201527f726561746572207468656e2074776f2074696d65732074686520656e7375726560a48201526a15985b1d5953995959195960aa1b60c482015260e490fd5b101590508b80612678565b60405162461bcd60e51b8152600481018d9052604760248201527f54686520636f6c61746572616c20746f74616c2076616c7565206d757374206260448201527f652067726561746572207468616e2074756520656e737572616e636556616c756064820152661953995959195960ca1b608482015260a490fd5b346101b85760203660031901126101b8576001600160a01b036128cc612c3e565b166000526003602052602060ff604060002054166040519015158152f35b346101b85760003660031901126101b85760005461290661427a565b906111e56040519283928352604060208401526040830190612c19565b346101b85761293136612be0565b90806000526020600781526040600020926008825260406000208160005282526040600020600681015460018060a01b03908160105416600288015460018301808411611bfa576044889260405194859384926301933c3960e61b8452600484015260248301525afa90811561040357600091612b13575b50610258806129b88342612e90565b1115612aaa575050612a227f6ab4dd234c62d1b45b38db6d308f4892d8a518161ee5f9ced15cef39697a8b6f91600b600c86019960ff199a8b815416905501612a018154612e29565b9055604051918291878a846040919493926060820195825260208201520152565b0390a1806009830154161591821592612a9a575b5050612a3e57005b600c92600052600d825260406000209060005281526040600020600181015460005260078252604060002091600881526002604060002092015460005252600b60406000209101612a8f8154612e29565b905501908154169055005b600a015416151590508580612a36565b9450949550505093508142119182612aff575b5050612ac557005b600c7f5238eef763c91b9905201192c7b588678d655a1fec573e5434470d30d3f975be9201600160ff1982541617905560405160018152a1005b612b0b91925042612e90565b108380612abd565b90508581813d8311612b39575b612b2a8183612d8f565b810103126101b85751886129a9565b503d612b20565b346101b85760203660031901126101b857600435600052600c602052604060002080546111e560026001840154930154604051938493846040919493926060820195825260208201520152565b346101b85760203660031901126101b8576004359063ffffffff60e01b82168092036101b8576020916385572ffb60e01b8114908115612bcf575b5015158152f35b6301ffc9a760e01b14905083612bc8565b60409060031901126101b8576004359060243590565b60005b838110612c095750506000910152565b8181015183820152602001612bf9565b90602091612c3281518092818552858086019101612bf6565b601f01601f1916010190565b600435906001600160a01b03821682036101b857565b60809060031901126101b85760043590602435906044359060643590565b60051115612c7c57565b634e487b7160e01b600052602160045260246000fd5b9c9a9793919e9d9b9995969894929060a05260a0516080526101c08d019e8d60a05181526020015260408d015260608c015260808b0152600160a01b60019003958680951660a08c015260c08b015260e08a01526101008901521661012087015216610140850152610160840152612d0981612c72565b6101808301521515906101a00152565b60609060031901126101b85760043590602435906044356001600160a01b03811681036101b85790565b600435906001600160401b03821682036101b857565b606081019081106001600160401b03821117610b3a57604052565b608081019081106001600160401b03821117610b3a57604052565b90601f801991011681019081106001600160401b03821117610b3a57604052565b6001600160401b038111610b3a57601f01601f191660200190565b81601f820112156101b857803590612de282612db0565b92612df06040519485612d8f565b828452602083830101116101b857816000926020809301838601378301015290565b6001600160401b038111610b3a5760051b60200190565b6000198114611bfa5760010190565b81810292918115918404141715611bfa57565b8115612e55570490565b634e487b7160e01b600052601260045260246000fd5b90612e7581612c72565b60ff80198354169116179055565b91908201809211611bfa57565b91908203918211611bfa57565b91600090838252600760205260408220600860205260408320848452602052604083209060ff600c82015416612ed281612c72565b60018114908115613577575b501561353257600c82019160ff835416612ef781612c72565b6002811490811561351d575b8115613509575b501561348357600681019384549560058401548710156134b5578087156134ae576001880180891161349a575b60018060a01b03601054166002870192602084546044604051809581936301933c3960e61b835260048301528760248301525afa91821561348f57908c918693613454575b50859b834211908161344a575b5015613404575050612f9b9042612e90565b9384613335575b505b600388549601958654908181101580613329575b8015613304575b613088575b5050505050509183917fb5504e065b5053e8d3e7d6a1f157f45d85f63c83397779391cc93b026292b25c979593608097955460028201541461305f575b50825490541480613048575b613037575b5061301d8385613d0b565b5491604051938452602084015260408301526060820152a1565b805460ff1916600217905538613012565b50600160ff82541661305981612c72565b1461300d565b825460ff1916600317835560080154613079575b38613001565b6130838587613e86565b613073565b600587015460405196906001600160a01b03166001600160401b036101208901908111908911176132f05761012088016040528d885284602089015242604089015233606089015260808801528b60a088015260c0870152600160e087015261010086015260018060a01b0360105416908354823b156132ec57906044869283604051958694859363560337d160e11b8552600485015260248401525af180156132e1576132b2575b50601054915486546040516301acb51d60e31b81526004810192909252602482015291602090839060449082906001600160a01b03165afa9182156132a7578392613257575b508a8352600b60209081526040808520928552918152818420928452918252918290208351815590830151600182015590820151600282015560608201516003820180546001600160a01b039283166001600160a01b0319918216179091556080808501516004850180549190941692169190911790915560a0830151600583015560c0830151600683015560e083015160078301805460ff191691151560ff169190911790556101009092015160089091015582907fb5504e065b5053e8d3e7d6a1f157f45d85f63c83397779391cc93b026292b25c90388080612fc4565b999795939150999795939160208a3d60201161329f575b8161327b60209383612d8f565b810103126101b8579851979996989597949693959294919390929190610100613177565b3d915061326e565b6040513d85823e3d90fd5b6001600160401b0381949294116132cd576040529138613131565b634e487b7160e01b82526041600452602482fd5b6040513d86823e3d90fd5b8580fd5b634e487b7160e01b87526041600452602487fd5b506001821480613321575b8015612fbf5750600787015415612fbf565b50801561330f565b50600787015415612fb8565b60105483546003880154604051632b18775560e01b81526004810189905260248101929092526044820152919d9c9b9a506020908290606490829088906001600160a01b03165af19081156132e15784916133ce575b508a9b9c818b6133c8939d9c9d9c7f57d559aaa778ae17e20a31e208d5763cb05667142a48b6098af5fb106b0ce8d96020604051858152a1613679565b38612fa2565b90506020813d6020116133fc575b816133e960209383612d8f565b810103126133f857518a61338b565b8380fd5b3d91506133dc565b95909a5061344591508c60038801549b8c917f57d559aaa778ae17e20a31e208d5763cb05667142a48b6098af5fb106b0ce8d96020604051858152a1613679565b612fa4565b9050151538612f89565b915091506020813d602011613487575b8161347160209383612d8f565b81010312613483578b90519138612f7c565b8480fd5b3d9150613464565b6040513d87823e3d90fd5b634e487b7160e01b83526011600452602483fd5b6001612f37565b60405162461bcd60e51b815260206004820152602660248201527f596f7520616c7265616479207061696420616c6c2074686520696e7374616c6c6044820152656d656e74732160d01b6064820152608490fd5b6003915061351681612c72565b1438612f0a565b905061352881612c72565b6001811490612f03565b60405162461bcd60e51b815260206004820152601760248201527f436865636b20746865207469746c6520737461747573210000000000000000006044820152606490fd5b6003915061358481612c72565b1438612ede565b9092919261359881612db0565b916135a66040519384612d8f565b8294828452828201116101b85760206135c0930190612bf6565b565b9080601f830112156101b85781516135dc9260200161358b565b90565b519081151582036101b857565b906060828203126101b8578151906001600160401b0382116101b8576136139183016135c2565b60208201519092906001600160a01b03811681036101b85760406135dc9193016135df565b1561363f57565b60405162461bcd60e51b8152602060048201526012602482015271546f6b656e206e6f7420616c6c6f7765642160701b6044820152606490fd5b919082600052600860205260406000209060005260205260406000209160005260076020526040600020928254600885015410613cb45760ff600c840154166136c181612c72565b801590811591613c9f575b5015613c1f576001600160a01b0316918215613be257601054604051638c83ddd360e01b81526004808201869052946024929091906000908290859082906001600160a01b03165afa9081156104035761373391600191600091613bc45750151514613638565b600e80546001600160a01b0319168217905560038301548410613b91576040516370a0823160e01b815233868201526020818481855afa8015610403578591600091613b5c575b5010613b2257602060449160405192838092636eb1769f60e11b8252338a83015230878301525afa8015610403578491600091613aed575b5010613a8d57508060068492016137c98154612e29565b90550154613914576009830190600682549401916137e983548096612e83565b9055600e54604080516323b872dd60e01b8082523387830190815230602080830191909152938101989098529690959286918290036060019082906000906001600160a01b03165af18015610403576138da575b600e546010549354602095506001600160a01b03948516949091169260009161386591612e90565b60408051978852339388019384526001600160a01b039095166020840152938201939093528492839182906060015b03925af18015610403576138a55750565b6020813d6020116138d2575b816138be60209383612d8f565b810103126101b8576138cf906135df565b50565b3d91506138b1565b6020843d60201161390c575b816138f360209383612d8f565b810103126101b8576139066020946135df565b5061383d565b3d91506138e6565b61393760098401936006855491019461392f86548093612e83565b905582612e90565b15613a3857600e548354604080516323b872dd60e01b815233868201908152306020828101919091529281019390935292909183916001600160a01b0316908290600090829060600103925af18015610403576139f4575b50600e54601054935461389494602094936001600160a01b0393841693909116916000916139bd9190612e90565b604080516323b872dd60e01b8152339681019687526001600160a01b03909416602087015285015290948593849291839160600190565b91906020833d602011613a30575b81613a0f60209383612d8f565b810103126101b85761389493613a266020946135df565b509350909161398f565b3d9150613a02565b600e54604080516323b872dd60e01b8152339481019485523060208681019190915291850193909352919350909183916001600160a01b0316908290600090829060600103925af18015610403576138a55750565b83603460849260206040519362461bcd60e51b85528401528201527f596f75206d75737420617070726f76652074686520636f6e747261637420746f604482015273207472616e736665722074686520746f6b656e7360601b6064820152fd5b9150506020813d602011613b1a575b81613b0960209383612d8f565b810103126101b857839051386137b2565b3d9150613afc565b60405162461bcd60e51b815260208187015260148184015273496e73756666696369656e742062616c616e636560601b6044820152606490fd5b9150506020813d602011613b89575b81613b7860209383612d8f565b810103126101b8578490513861377a565b3d9150613b6b565b60405162461bcd60e51b8152602081870152600d818401526c57726f6e672076616c7565212160981b6044820152606490fd5b613bd991503d806000833e6120068183612d8f565b91505038611e4f565b60405162461bcd60e51b8152602060048201526015602482015274456e746572206120746f6b656e206164647265737360581b6044820152606490fd5b60405162461bcd60e51b815260206004820152604c60248201527f796f7572207469746c6520616c72656164792068617665206265656e2066696e60448201527f616c697a6564206f722063616e63656c65642e20506c6561736520636865636b60648201526b103a34329039ba30ba3ab99760a11b608482015260a490fd5b60049150613cac81612c72565b1415386136cc565b60405162461bcd60e51b815260206004820152602960248201527f456e74657220612076616c696420636f6e747261637420496420666f722074686044820152686973205469746c652160b81b6064820152608490fd5b907f0612a8a5548125c3db9f13b41025df2c888d69f8a0351889cd94bd21a45dd34b91613d9a600b600083815260076020526040812090600860205260408120868252602052613d68604082209260068085015491015490612e38565b6001830154808210613d9f575050828201555b0154604051938493846040919493926060820195825260208201520152565b0390a1565b613da99250612e90565b82820155613d7b565b15613db957565b60405162461bcd60e51b815260206004820152601e60248201527f596f7520686176656e2774206265656e2073656c6563746564207965742100006044820152606490fd5b15613e0557565b60405162461bcd60e51b815260206004820152602360248201527f4f6e6c7920746865206f776e65722063616e20616464206120636f6c61746572604482015262616c2160e81b6064820152608490fd5b67ccf0a31a221f3c9b81526001600160a01b0390911660208201526060604082018190526135dc92910190612c19565b9190600092808452600860208181526040958681208582528252868120916006830154600284015414801561415e57600c840190600160ff8354881c161515036140fc5780806140e6575b15613ff3575060078401548951808401888152602081018a90526040810192909252613f679284929091613f088160608401611265565b51902090600b8701548c5192848401528c83015285606083015260608252613f2f82612d74565b600460ff1982541617905560018060a01b0380601254169060055416868d51809681958294630a30e37760e41b845260048401613e56565b03925af18015613fe957613fbd575b5050500154935190815260208101919091526040810192909252907f4873524778d9f5abcd81f439922a095f180c3f86ec3e38127a4add8d1bae97bd908060608101613d9a565b813d8311613fe2575b613fd08183612d8f565b81010312613fdf578080613f76565b80fd5b503d613fc6565b89513d85823e3d90fd5b8099949295939899906140da575b614010575b5050505050505050565b8760056140ca96887f4873524778d9f5abcd81f439922a095f180c3f86ec3e38127a4add8d1bae97bd9b52600d81528683208a84528152868084209381519461405886612d59565b60018060a01b0393848254168752600260018301549283838a015201549184880192835283528981528383209151835252209251169101906001600160601b0360a01b825416179055600460ff1982541617905501549051938493846040919493926060820195825260208201520152565b0390a13880808080808080614006565b50828201541515614001565b50600a8501546001600160a01b03161515613ed1565b895162461bcd60e51b815260048101849052603560248201527f596f752063616e27742072657472696576652074686520636f6c61746572616c604482015274206265666f7265207468652077697468647261772160581b6064820152608490fd5b885162461bcd60e51b815260048101839052602960248201527f416c6c2074686520696e7374616c6c6d656e7473206d7573742068617665206260448201526865656e20706169642160b81b6064820152608490fd5b156141bb57565b60405162461bcd60e51b8152602060048201526011602482015270151bdad95b881b9bdd08185b1b1bddd959607a1b6044820152606490fd5b156141fb57565b60405162461bcd60e51b815260206004820152601d60248201527f5468652063616c6c6572206d75737420626520746865206f776e6572210000006044820152606490fd5b90600182811c92168015614270575b602083101461425a57565b634e487b7160e01b600052602260045260246000fd5b91607f169161424f565b6040519060008260019182549261429084614240565b8084529381811690811561431157506001146142b4575b506135c092500383612d8f565b600081815291507fb10e2d527612073b26eecdfd717e6a320cf44b4afac2b0732d9fcbe2b7fa0cf65b8483106142f657506135c09350508101602001386142a7565b81935090816020925483858a010152019101909185926142dd565b9050602092506135c094915060ff191682840152151560051b820101386142a7565b51906001600160a01b03821682036101b85756fea2646970667358221220a444d04fc622193ddb3ee27d8dd1c026a1e25b95bfa00eca4b3ab223c1b59b6a64736f6c63430008140033",
  "linkReferences": {},
  "deployedLinkReferences": {}
}