{
  "_format": "hh-sol-artifact-1",
  "contractName": "Horizon",
  "sourceName": "contracts/Horizon.sol",
  "abi": [
    {
      "inputs": [
        {
          "internalType": "address",
          "name": "_router",
          "type": "address"
        }
      ],
      "stateMutability": "nonpayable",
      "type": "constructor"
    },
    {
      "inputs": [
        {
          "internalType": "address",
          "name": "router",
          "type": "address"
        }
      ],
      "name": "InvalidRouter",
      "type": "error"
    },
    {
      "anonymous": false,
      "inputs": [
        {
          "indexed": false,
          "internalType": "uint256",
          "name": "totalAmountLate",
          "type": "uint256"
        }
      ],
      "name": "AmountLateWithInterest",
      "type": "event"
    },
    {
      "anonymous": false,
      "inputs": [
        {
          "indexed": false,
          "internalType": "uint256",
          "name": "amountWithInterests",
          "type": "uint256"
        }
      ],
      "name": "AmountToPay",
      "type": "event"
    },
    {
      "anonymous": false,
      "inputs": [
        {
          "indexed": false,
          "internalType": "uint256",
          "name": "_idTitle",
          "type": "uint256"
        },
        {
          "indexed": false,
          "internalType": "uint256",
          "name": "_contractId",
          "type": "uint256"
        },
        {
          "indexed": false,
          "internalType": "uint256",
          "name": "_colateralId",
          "type": "uint256"
        }
      ],
      "name": "ColateralRefunded",
      "type": "event"
    },
    {
      "anonymous": false,
      "inputs": [
        {
          "indexed": false,
          "internalType": "uint256",
          "name": "_idTitle",
          "type": "uint256"
        },
        {
          "indexed": false,
          "internalType": "uint256",
          "name": "_contractId",
          "type": "uint256"
        },
        {
          "indexed": false,
          "internalType": "uint256",
          "name": "_drawNumber",
          "type": "uint256"
        },
        {
          "indexed": false,
          "internalType": "uint256",
          "name": "_idOfColateralTitle",
          "type": "uint256"
        },
        {
          "indexed": false,
          "internalType": "uint256",
          "name": "_idOfColateralContract",
          "type": "uint256"
        }
      ],
      "name": "ColateralTitleAdded",
      "type": "event"
    },
    {
      "anonymous": false,
      "inputs": [
        {
          "indexed": false,
          "internalType": "uint256",
          "name": "_idTitle",
          "type": "uint256"
        },
        {
          "indexed": false,
          "internalType": "uint256",
          "name": "_contractId",
          "type": "uint256"
        },
        {
          "indexed": false,
          "internalType": "uint256",
          "name": "_drawSelected",
          "type": "uint256"
        },
        {
          "indexed": false,
          "internalType": "address",
          "name": "_fujiReceiver",
          "type": "address"
        }
      ],
      "name": "CreatingPermission",
      "type": "event"
    },
    {
      "anonymous": false,
      "inputs": [
        {
          "indexed": false,
          "internalType": "address",
          "name": "_temporaryEnsurance",
          "type": "address"
        }
      ],
      "name": "EnsuranceUpdated",
      "type": "event"
    },
    {
      "anonymous": false,
      "inputs": [
        {
          "indexed": false,
          "internalType": "uint256",
          "name": "_idTitle",
          "type": "uint256"
        },
        {
          "indexed": false,
          "internalType": "uint256",
          "name": "_contractId",
          "type": "uint256"
        },
        {
          "indexed": false,
          "internalType": "uint256",
          "name": "_valueOfEnsurance",
          "type": "uint256"
        }
      ],
      "name": "EnsuranceValueNeededUpdate",
      "type": "event"
    },
    {
      "anonymous": false,
      "inputs": [
        {
          "indexed": false,
          "internalType": "uint256",
          "name": "_idTitle",
          "type": "uint256"
        },
        {
          "indexed": false,
          "internalType": "uint256",
          "name": "_contractId",
          "type": "uint256"
        },
        {
          "indexed": false,
          "internalType": "uint256",
          "name": "_installmentsPaid",
          "type": "uint256"
        }
      ],
      "name": "InstallmentPaid",
      "type": "event"
    },
    {
      "anonymous": false,
      "inputs": [
        {
          "indexed": false,
          "internalType": "uint256",
          "name": "_installmentsPaid",
          "type": "uint256"
        }
      ],
      "name": "LastInstallmentPaid",
      "type": "event"
    },
    {
      "anonymous": false,
      "inputs": [
        {
          "indexed": true,
          "internalType": "bytes32",
          "name": "messageId",
          "type": "bytes32"
        },
        {
          "indexed": true,
          "internalType": "uint64",
          "name": "sourceChainSelector",
          "type": "uint64"
        },
        {
          "indexed": false,
          "internalType": "address",
          "name": "sender",
          "type": "address"
        },
        {
          "indexed": false,
          "internalType": "string",
          "name": "text",
          "type": "string"
        }
      ],
      "name": "MessageReceived",
      "type": "event"
    },
    {
      "anonymous": false,
      "inputs": [
        {
          "indexed": false,
          "internalType": "uint256",
          "name": "_idTitle",
          "type": "uint256"
        },
        {
          "indexed": false,
          "internalType": "uint256",
          "name": "_drawNumber",
          "type": "uint256"
        },
        {
          "indexed": false,
          "internalType": "address",
          "name": "_winner",
          "type": "address"
        },
        {
          "indexed": false,
          "internalType": "uint256",
          "name": "_titleValue",
          "type": "uint256"
        }
      ],
      "name": "MonthlyWinnerPaid",
      "type": "event"
    },
    {
      "anonymous": false,
      "inputs": [
        {
          "indexed": false,
          "internalType": "uint256",
          "name": "_idTitle",
          "type": "uint256"
        },
        {
          "indexed": false,
          "internalType": "uint256",
          "name": "_drawNumber",
          "type": "uint256"
        },
        {
          "indexed": false,
          "internalType": "uint256",
          "name": "_randomValue",
          "type": "uint256"
        },
        {
          "indexed": false,
          "internalType": "uint256",
          "name": "_selectedContractId",
          "type": "uint256"
        },
        {
          "indexed": false,
          "internalType": "address",
          "name": "_winner",
          "type": "address"
        }
      ],
      "name": "MonthlyWinnerSelected",
      "type": "event"
    },
    {
      "anonymous": false,
      "inputs": [
        {
          "indexed": false,
          "internalType": "enum Horizon.MyTitleWithdraw",
          "name": "myTitleStatus",
          "type": "uint8"
        }
      ],
      "name": "MyTitleStatusUpdated",
      "type": "event"
    },
    {
      "anonymous": false,
      "inputs": [
        {
          "indexed": false,
          "internalType": "uint256",
          "name": "_investmentValue",
          "type": "uint256"
        },
        {
          "indexed": false,
          "internalType": "address",
          "name": "_protocolAddress",
          "type": "address"
        }
      ],
      "name": "NewInvestmentCreated",
      "type": "event"
    },
    {
      "anonymous": false,
      "inputs": [
        {
          "indexed": false,
          "internalType": "uint256",
          "name": "_titleId",
          "type": "uint256"
        },
        {
          "indexed": false,
          "internalType": "uint256",
          "name": "_scheduleId",
          "type": "uint256"
        },
        {
          "indexed": false,
          "internalType": "uint256",
          "name": "_monthlyValue",
          "type": "uint256"
        },
        {
          "indexed": false,
          "internalType": "uint256",
          "name": "_titleValue",
          "type": "uint256"
        }
      ],
      "name": "NewTitleCreated",
      "type": "event"
    },
    {
      "anonymous": false,
      "inputs": [
        {
          "indexed": false,
          "internalType": "uint256",
          "name": "_contractId",
          "type": "uint256"
        },
        {
          "indexed": false,
          "internalType": "address",
          "name": "_owner",
          "type": "address"
        }
      ],
      "name": "NewTitleSold",
      "type": "event"
    },
    {
      "anonymous": false,
      "inputs": [
        {
          "indexed": false,
          "internalType": "uint256",
          "name": "_nextDraw",
          "type": "uint256"
        }
      ],
      "name": "NextDraw",
      "type": "event"
    },
    {
      "anonymous": false,
      "inputs": [
        {
          "indexed": false,
          "internalType": "uint256",
          "name": "lateInstallments",
          "type": "uint256"
        }
      ],
      "name": "PaymentIsLate",
      "type": "event"
    },
    {
      "anonymous": false,
      "inputs": [
        {
          "indexed": false,
          "internalType": "uint256",
          "name": "_i",
          "type": "uint256"
        }
      ],
      "name": "PaymentLateNumber",
      "type": "event"
    },
    {
      "anonymous": false,
      "inputs": [
        {
          "indexed": false,
          "internalType": "uint256",
          "name": "_installmentsPaid",
          "type": "uint256"
        },
        {
          "indexed": false,
          "internalType": "uint256",
          "name": "_colateralTitleId",
          "type": "uint256"
        },
        {
          "indexed": false,
          "internalType": "address",
          "name": "_colateralTitleAddress",
          "type": "address"
        },
        {
          "indexed": false,
          "internalType": "address",
          "name": "colateralRWAAddress",
          "type": "address"
        },
        {
          "indexed": false,
          "internalType": "enum Horizon.MyTitleWithdraw",
          "name": "myTitleStatus",
          "type": "uint8"
        }
      ],
      "name": "ThereAreSomePendencies",
      "type": "event"
    },
    {
      "anonymous": false,
      "inputs": [
        {
          "indexed": false,
          "internalType": "uint256",
          "name": "_titlesAvailableForNextDraw",
          "type": "uint256"
        }
      ],
      "name": "ThisTitleHasBeenCanceled",
      "type": "event"
    },
    {
      "anonymous": false,
      "inputs": [
        {
          "indexed": false,
          "internalType": "enum Horizon.TitleStatus",
          "name": "status",
          "type": "uint8"
        }
      ],
      "name": "TitleStatusUpdated",
      "type": "event"
    },
    {
      "anonymous": false,
      "inputs": [
        {
          "indexed": false,
          "internalType": "bool",
          "name": "fulfilled",
          "type": "bool"
        },
        {
          "indexed": false,
          "internalType": "uint256[]",
          "name": "randomWords",
          "type": "uint256[]"
        },
        {
          "indexed": false,
          "internalType": "uint256",
          "name": "randomValue",
          "type": "uint256"
        }
      ],
      "name": "VRFAnswer",
      "type": "event"
    },
    {
      "inputs": [
        {
          "internalType": "uint256",
          "name": "_idTitle",
          "type": "uint256"
        },
        {
          "internalType": "uint256",
          "name": "_contractId",
          "type": "uint256"
        }
      ],
      "name": "addRWAColateral",
      "outputs": [],
      "stateMutability": "nonpayable",
      "type": "function"
    },
    {
      "inputs": [
        {
          "internalType": "address",
          "name": "_receiverAddress",
          "type": "address"
        }
      ],
      "name": "addReceiver",
      "outputs": [],
      "stateMutability": "nonpayable",
      "type": "function"
    },
    {
      "inputs": [
        {
          "internalType": "address",
          "name": "_sender",
          "type": "address"
        }
      ],
      "name": "addSender",
      "outputs": [],
      "stateMutability": "nonpayable",
      "type": "function"
    },
    {
      "inputs": [
        {
          "internalType": "uint64",
          "name": "_sourceChainSelector",
          "type": "uint64"
        }
      ],
      "name": "addSourceChain",
      "outputs": [],
      "stateMutability": "nonpayable",
      "type": "function"
    },
    {
      "inputs": [
        {
          "internalType": "uint256",
          "name": "_titleId",
          "type": "uint256"
        },
        {
          "internalType": "uint256",
          "name": "_contractId",
          "type": "uint256"
        },
        {
          "internalType": "uint256",
          "name": "_idOfColateralTitle",
          "type": "uint256"
        },
        {
          "internalType": "uint256",
          "name": "_idOfColateralContract",
          "type": "uint256"
        }
      ],
      "name": "addTitleAsColateral",
      "outputs": [],
      "stateMutability": "nonpayable",
      "type": "function"
    },
    {
      "inputs": [
        {
          "internalType": "uint256",
          "name": "titleId",
          "type": "uint256"
        }
      ],
      "name": "allTitles",
      "outputs": [
        {
          "internalType": "uint256",
          "name": "openSellingDate",
          "type": "uint256"
        },
        {
          "internalType": "uint256",
          "name": "closeSellingDate",
          "type": "uint256"
        },
        {
          "internalType": "uint256",
          "name": "paymentSchedule",
          "type": "uint256"
        },
        {
          "internalType": "uint256",
          "name": "nextDrawNumber",
          "type": "uint256"
        },
        {
          "internalType": "uint256",
          "name": "titleValue",
          "type": "uint256"
        },
        {
          "internalType": "uint256",
          "name": "installments",
          "type": "uint256"
        },
        {
          "internalType": "uint256",
          "name": "monthlyInvestiment",
          "type": "uint256"
        },
        {
          "internalType": "uint256",
          "name": "protocolFee",
          "type": "uint256"
        },
        {
          "internalType": "uint256",
          "name": "numberOfTitlesSold",
          "type": "uint256"
        },
        {
          "internalType": "uint256",
          "name": "totalValueReceived",
          "type": "uint256"
        },
        {
          "internalType": "uint256",
          "name": "totalValuePaid",
          "type": "uint256"
        },
        {
          "internalType": "uint256",
          "name": "titleCanceled",
          "type": "uint256"
        },
        {
          "internalType": "enum Horizon.TitleStatus",
          "name": "status",
          "type": "uint8"
        }
      ],
      "stateMutability": "view",
      "type": "function"
    },
    {
      "inputs": [
        {
          "internalType": "uint64",
          "name": "_titleId",
          "type": "uint64"
        },
        {
          "internalType": "bool",
          "name": "withdrawPeriod",
          "type": "bool"
        },
        {
          "internalType": "contract IERC20",
          "name": "_tokenAddress",
          "type": "address"
        }
      ],
      "name": "buyTitle",
      "outputs": [],
      "stateMutability": "nonpayable",
      "type": "function"
    },
    {
      "inputs": [
        {
          "components": [
            {
              "internalType": "bytes32",
              "name": "messageId",
              "type": "bytes32"
            },
            {
              "internalType": "uint64",
              "name": "sourceChainSelector",
              "type": "uint64"
            },
            {
              "internalType": "bytes",
              "name": "sender",
              "type": "bytes"
            },
            {
              "internalType": "bytes",
              "name": "data",
              "type": "bytes"
            },
            {
              "components": [
                {
                  "internalType": "address",
                  "name": "token",
                  "type": "address"
                },
                {
                  "internalType": "uint256",
                  "name": "amount",
                  "type": "uint256"
                }
              ],
              "internalType": "struct Client.EVMTokenAmount[]",
              "name": "destTokenAmounts",
              "type": "tuple[]"
            }
          ],
          "internalType": "struct Client.Any2EVMMessage",
          "name": "message",
          "type": "tuple"
        }
      ],
      "name": "ccipReceive",
      "outputs": [],
      "stateMutability": "nonpayable",
      "type": "function"
    },
    {
      "inputs": [
        {
          "internalType": "uint256",
          "name": "titleId",
          "type": "uint256"
        },
        {
          "internalType": "uint256",
          "name": "contractId",
          "type": "uint256"
        }
      ],
      "name": "colateralInfos",
      "outputs": [
        {
          "internalType": "address",
          "name": "colateralOwner",
          "type": "address"
        },
        {
          "internalType": "uint256",
          "name": "titleIdOfColateral",
          "type": "uint256"
        },
        {
          "internalType": "uint256",
          "name": "contractIdOfColateral",
          "type": "uint256"
        }
      ],
      "stateMutability": "view",
      "type": "function"
    },
    {
      "inputs": [
        {
          "internalType": "uint256",
          "name": "_opening",
          "type": "uint256"
        },
        {
          "internalType": "uint256",
          "name": "_closing",
          "type": "uint256"
        },
        {
          "internalType": "uint256",
          "name": "_participants",
          "type": "uint256"
        },
        {
          "internalType": "uint256",
          "name": "_value",
          "type": "uint256"
        }
      ],
      "name": "createTitle",
      "outputs": [],
      "stateMutability": "nonpayable",
      "type": "function"
    },
    {
      "inputs": [
        {
          "internalType": "uint256",
          "name": "titleId",
          "type": "uint256"
        },
        {
          "internalType": "uint256",
          "name": "drawNumber",
          "type": "uint256"
        }
      ],
      "name": "drawInfos",
      "outputs": [
        {
          "internalType": "uint256",
          "name": "idTitle",
          "type": "uint256"
        },
        {
          "internalType": "uint256",
          "name": "drawNumber",
          "type": "uint256"
        },
        {
          "internalType": "uint256",
          "name": "drawDate",
          "type": "uint256"
        },
        {
          "internalType": "uint256",
          "name": "totalParticipants",
          "type": "uint256"
        },
        {
          "internalType": "uint256",
          "name": "requestId",
          "type": "uint256"
        },
        {
          "internalType": "uint256",
          "name": "randomNumberVRF",
          "type": "uint256"
        },
        {
          "internalType": "uint256",
          "name": "selectedContractID",
          "type": "uint256"
        },
        {
          "internalType": "address",
          "name": "winner",
          "type": "address"
        }
      ],
      "stateMutability": "view",
      "type": "function"
    },
    {
      "inputs": [],
      "name": "getLastReceivedMessageDetails",
      "outputs": [
        {
          "internalType": "bytes32",
          "name": "messageId",
          "type": "bytes32"
        },
        {
          "internalType": "bytes",
          "name": "text",
          "type": "bytes"
        }
      ],
      "stateMutability": "view",
      "type": "function"
    },
    {
      "inputs": [],
      "name": "getRouter",
      "outputs": [
        {
          "internalType": "address",
          "name": "",
          "type": "address"
        }
      ],
      "stateMutability": "view",
      "type": "function"
    },
    {
      "inputs": [
        {
          "internalType": "uint256",
          "name": "_idTitle",
          "type": "uint256"
        }
      ],
      "name": "monthlyVRFWinner",
      "outputs": [],
      "stateMutability": "nonpayable",
      "type": "function"
    },
    {
      "inputs": [
        {
          "internalType": "uint256",
          "name": "_idTitle",
          "type": "uint256"
        },
        {
          "internalType": "uint256",
          "name": "_contractId",
          "type": "uint256"
        },
        {
          "internalType": "contract IERC20",
          "name": "_tokenAddress",
          "type": "address"
        }
      ],
      "name": "payInstallment",
      "outputs": [],
      "stateMutability": "nonpayable",
      "type": "function"
    },
    {
      "inputs": [
        {
          "internalType": "bytes32",
          "name": "permissionHash",
          "type": "bytes32"
        }
      ],
      "name": "permissionInfo",
      "outputs": [
        {
          "internalType": "uint256",
          "name": "idTitle",
          "type": "uint256"
        },
        {
          "internalType": "uint256",
          "name": "contractId",
          "type": "uint256"
        },
        {
          "internalType": "uint256",
          "name": "drawNumber",
          "type": "uint256"
        }
      ],
      "stateMutability": "view",
      "type": "function"
    },
    {
      "inputs": [
        {
          "internalType": "uint256",
          "name": "_idTitle",
          "type": "uint256"
        },
        {
          "internalType": "contract IERC20",
          "name": "_tokenAddress",
          "type": "address"
        }
      ],
      "name": "protocolWithdraw",
      "outputs": [],
      "stateMutability": "nonpayable",
      "type": "function"
    },
    {
      "inputs": [
        {
          "internalType": "uint256",
          "name": "_idTitle",
          "type": "uint256"
        }
      ],
      "name": "receiveVRFRandomNumber",
      "outputs": [],
      "stateMutability": "nonpayable",
      "type": "function"
    },
    {
      "inputs": [
        {
          "internalType": "uint256",
          "name": "_idTitle",
          "type": "uint256"
        },
        {
          "internalType": "uint256",
          "name": "_contractId",
          "type": "uint256"
        }
      ],
      "name": "refundColateral",
      "outputs": [],
      "stateMutability": "nonpayable",
      "type": "function"
    },
    {
      "inputs": [
        {
          "internalType": "address",
          "name": "_sender",
          "type": "address"
        }
      ],
      "name": "removeSender",
      "outputs": [],
      "stateMutability": "nonpayable",
      "type": "function"
    },
    {
      "inputs": [
        {
          "internalType": "uint64",
          "name": "_sourceChainSelector",
          "type": "uint64"
        }
      ],
      "name": "removelistSourceChain",
      "outputs": [],
      "stateMutability": "nonpayable",
      "type": "function"
    },
    {
      "inputs": [
        {
          "internalType": "uint256",
          "name": "titleId",
          "type": "uint256"
        },
        {
          "internalType": "uint256",
          "name": "drawNumber",
          "type": "uint256"
        },
        {
          "internalType": "uint256",
          "name": "paymentOrderOrRandomValue",
          "type": "uint256"
        }
      ],
      "name": "selectorVRF",
      "outputs": [
        {
          "internalType": "uint256",
          "name": "contractId",
          "type": "uint256"
        },
        {
          "internalType": "uint256",
          "name": "installmentNumber",
          "type": "uint256"
        },
        {
          "internalType": "uint256",
          "name": "paymentDate",
          "type": "uint256"
        },
        {
          "internalType": "address",
          "name": "payerAddress",
          "type": "address"
        },
        {
          "internalType": "address",
          "name": "user",
          "type": "address"
        },
        {
          "internalType": "uint256",
          "name": "amount",
          "type": "uint256"
        },
        {
          "internalType": "uint256",
          "name": "paymentDelay",
          "type": "uint256"
        },
        {
          "internalType": "bool",
          "name": "paid",
          "type": "bool"
        },
        {
          "internalType": "uint256",
          "name": "installmentsPaid",
          "type": "uint256"
        }
      ],
      "stateMutability": "view",
      "type": "function"
    },
    {
      "inputs": [
        {
          "internalType": "bytes4",
          "name": "interfaceId",
          "type": "bytes4"
        }
      ],
      "name": "supportsInterface",
      "outputs": [
        {
          "internalType": "bool",
          "name": "",
          "type": "bool"
        }
      ],
      "stateMutability": "pure",
      "type": "function"
    },
    {
      "inputs": [
        {
          "internalType": "uint256",
          "name": "titleId",
          "type": "uint256"
        },
        {
          "internalType": "uint256",
          "name": "contractId",
          "type": "uint256"
        }
      ],
      "name": "titleSoldInfos",
      "outputs": [
        {
          "internalType": "uint256",
          "name": "contractId",
          "type": "uint256"
        },
        {
          "internalType": "uint256",
          "name": "titleValue",
          "type": "uint256"
        },
        {
          "internalType": "uint256",
          "name": "installments",
          "type": "uint256"
        },
        {
          "internalType": "uint256",
          "name": "monthlyValue",
          "type": "uint256"
        },
        {
          "internalType": "uint256",
          "name": "periodLocked",
          "type": "uint256"
        },
        {
          "internalType": "address",
          "name": "titleOwner",
          "type": "address"
        },
        {
          "internalType": "uint256",
          "name": "installmentsPaid",
          "type": "uint256"
        },
        {
          "internalType": "uint256",
          "name": "drawSelected",
          "type": "uint256"
        },
        {
          "internalType": "uint256",
          "name": "colateralId",
          "type": "uint256"
        },
        {
          "internalType": "address",
          "name": "colateralTitleAddress",
          "type": "address"
        },
        {
          "internalType": "address",
          "name": "colateralRWAAddress",
          "type": "address"
        },
        {
          "internalType": "uint256",
          "name": "valueOfEnsuranceNeeded",
          "type": "uint256"
        },
        {
          "internalType": "enum Horizon.MyTitleWithdraw",
          "name": "myTitleStatus",
          "type": "uint8"
        },
        {
          "internalType": "bool",
          "name": "paid",
          "type": "bool"
        }
      ],
      "stateMutability": "view",
      "type": "function"
    },
    {
      "inputs": [
        {
          "internalType": "uint256",
          "name": "_titleId",
          "type": "uint256"
        }
      ],
      "name": "updateTitleStatus",
      "outputs": [],
      "stateMutability": "nonpayable",
      "type": "function"
    },
    {
      "inputs": [
        {
          "internalType": "uint256",
          "name": "_titleId",
          "type": "uint256"
        },
        {
          "internalType": "uint256",
          "name": "_contractId",
          "type": "uint256"
        }
      ],
      "name": "verifyLatePayments",
      "outputs": [],
      "stateMutability": "nonpayable",
      "type": "function"
    },
    {
      "inputs": [
        {
          "internalType": "address",
          "name": "",
          "type": "address"
        }
      ],
      "name": "whitelistedSenders",
      "outputs": [
        {
          "internalType": "bool",
          "name": "",
          "type": "bool"
        }
      ],
      "stateMutability": "view",
      "type": "function"
    },
    {
      "inputs": [
        {
          "internalType": "uint64",
          "name": "",
          "type": "uint64"
        }
      ],
      "name": "whitelistedSourceChains",
      "outputs": [
        {
          "internalType": "bool",
          "name": "",
          "type": "bool"
        }
      ],
      "stateMutability": "view",
      "type": "function"
    },
    {
      "inputs": [
        {
          "internalType": "uint256",
          "name": "_idTitle",
          "type": "uint256"
        },
        {
          "internalType": "uint256",
          "name": "_contractId",
          "type": "uint256"
        },
        {
          "internalType": "contract IERC20",
          "name": "_stablecoin",
          "type": "address"
        }
      ],
      "name": "winnerWithdraw",
      "outputs": [],
      "stateMutability": "nonpayable",
      "type": "function"
    }
  ],
  "bytecode": "0x60a0346200010857601f6200412238819003918201601f19168301916001600160401b038311848410176200010d578084926020946040528339810103126200010857516001600160a01b038116808203620001085715620000ef57608052600060045560018060a01b0319733547951aaa367094afabcae24f123473ff502bfa81600f541617600f5573a75447c1a6dd04da5ceb791023fa7192cc577cfa81601054161760105573ded9e0f0d9274a74cc5506f80802781dde6b7e1181601154161760115533906006541617600655604051613ffe9081620001248239608051818181610b7301526112b10152f35b6040516335fdcccd60e21b815260006004820152602490fd5b600080fd5b634e487b7160e01b600052604160045260246000fdfe608080604052600436101561001357600080fd5b60003560e01c90816301ffc9a7146129495750806309249e43146128fc5780632347865414612726578063263596a5146126e9578063272efc69146126aa5780632d7c0b7f146123bd57806331ae0df6146122da5780634991126d1461222a5780634c67469c14611fd35780634facbacb14611b2f57806358a15a2e14611b18578063643233e51461176957806369d83ed11461172f5780637dc91a02146116f057806385572ffb146112745780638a12312c146111b65780638f9fce7014610fc45780639beaf73114610c7d578063ab92263114610bf4578063ad3b6da314610ba2578063b0f479a114610b5d578063b2f8764314610b11578063b697f53114610ac2578063ba658a44146107a8578063c5ec1c7a14610756578063d0ade9d514610493578063d762a160146101cb578063f2e7896b146101b25763ff46ed531461015e57600080fd5b346101ad5760203660031901126101ad576001600160401b0361017f612a78565b61019460018060a01b03600654163314613e75565b166000908152600260205260409020805460ff19169055005b600080fd5b346101ad576101c96101c336612a4e565b91612bd2565b005b346101ad576020806003193601126101ad576004359081600052600781526040600020600c81019283549160ff83169161020483612a2e565b60048314808015610480575b801561046d575b1561042857825442119081610417575b501561026857505050507fb34436423c205503bb9de249902d7e3e7fc76197d9cec741c46e9e0dd6489f4491600360ff1982541617905560405160038152a1005b6001829594950154421180610404575b1561028f575050505050600160ff19825416179055005b60018060a0979596971b03600f541692856003840154926044604051809781936301acb51d60e31b835260048301528660248301525afa9384156103f8576000946103c9575b506102df81612a2e565b60018114918291826103bb575b8315610376575b5050506000146103375750507fb34436423c205503bb9de249902d7e3e7fc76197d9cec741c46e9e0dd6489f449250600260ff1982541617905560405160028152a1005b600801549091901561034557005b7f2e24ed849df3be5edecca4a9280b775d8d82b800d0ebefaa298f3d61a0998a709360ff19169055604051908152a1005b61038291929350612a2e565b8161039f575b5080610397575b8680806102f3565b50811561038f565b6103af9150600b83015490612bb8565b60058201541086610388565b6005850154821193506102ec565b9093508581813d83116103f1575b6103e18183612ac4565b810103126101ad575192876102d5565b503d6103d7565b6040513d6000823e3d90fd5b5061040e83612a2e565b60038314610278565b905061042284612a2e565b87610227565b60405162461bcd60e51b815260048101879052601860248201527f54686973207469746c6520616c726561647920656e64656400000000000000006044820152606490fd5b5061047784612a2e565b60018414610217565b5061048a84612a2e565b60038414610210565b346101ad576020806003193601126101ad57600435806000526007825260406000209160098152604060002060038401908154600052825260406000209060018060a01b03806010541695600060048501546024604051809a819363d8a4676f60e01b835260048301525afa9283156103f857600080986000956106af575b501561066a5760405160608101986001998a83526060898401528151809152886080840192019060005b81811061065757507f495707aadfdb79a8158bc4c70170204a5bd6402ce8d4f16af9b93d19f5b864b760a08c8c8f8c8e918d8d8d7f6eed17f1838c49c44631282c96ef8d77984fda771e865bc74772b03c5da4bde78e808f8860408301520390a187600052600a8752604060002093600c81880193845496876000528a526040600020886000528a526040600020968860058b0155875460068b015560048801996007888c54169101906001600160601b038f1b8254161790558b60005260088b52604060002088546000528b5260076040600020015561061e87548c613992565b019060ff198254161790556106338154612b5e565b905554915493541693604051958652850152604084015260608301526080820152a1005b82518452928a0192918a01918c0161053c565b60405162461bcd60e51b815260048101879052601960248201527f5652462072657175657374206e6f742066756c66696c6c6564000000000000006044820152606490fd5b98505092503d806000893e6106c48189612ac4565b8701926060888503126101ad576106da8861330e565b97868101516001600160401b0381116101ad5781019480601f870112156101ad57855161070681612b47565b966107146040519889612ac4565b818852898089019260051b8201019283116101ad5789809101915b838310610746575050505060400151939789610512565b82518152918101918a910161072f565b346101ad5760203660031901126101ad576001600160401b03610777612a78565b61078c60018060a01b03600654163314613e75565b166000908152600260205260409020805460ff19166001179055005b346101ad5760603660031901126101ad576107c1612a78565b602435908115158092036101ad57604435906001600160a01b03821682036101ad576001600160401b03928382166000526007602052604060002092600360ff600c8601541661081081612a2e565b03610a60576008840192835495600586015496878111610a2a57610835600191612b5e565b8087559403610a1e5760078601546108596000915b600660048a0154990154612bb8565b94604051916101c083019683881085891117610a08577f5462399704f0e380dbcb381163c0a1404e8b14097242551b2494b16157faa5309a60409a6109f9998c5284865260208601528a850152606084015260808301523360a0830152600060c0830152600060e08301526000610100830152600061012083015260006101408301526000610160830152600261018083015260006101a0830152828416600052600860205287600020906000526020526101a0600c88600020835181556020840151600182015589840151600282015560608401516003820155608084015160048201556005810160018060a01b0360a086015116906001600160601b0360a01b918282541617905560c0850151600683015560e0850151600783015561010085015160088301556009820160018060a01b036101208701511682825416179055600a82019060018060a01b036101408701511690825416179055610160840151600b82015501916109da6101808201516109d481612a2e565b84612ba0565b0151815461ff00191690151560081b61ff001617905584549116612bd2565b548151908152336020820152a1005b634e487b7160e01b600052604160045260246000fd5b6002610859600061084a565b60405162461bcd60e51b815260206004820152600e60248201526d5469746c6520736f6c646f75742160901b6044820152606490fd5b60405162461bcd60e51b815260206004820152603460248201527f54686973205469746c65206973206e6f7420617661696c61626c652e20436865604482015273636b20746865205469746c65207374617475732160601b6064820152608490fd5b346101ad5760203660031901126101ad57610adb6129fa565b6006546001600160a01b039190610af59083163314613e75565b166000908152600360205260409020805460ff19166001179055005b346101ad5760203660031901126101ad57610b2a6129fa565b6006546001600160a01b039190610b449083163314613e75565b166000908152600360205260409020805460ff19169055005b346101ad5760003660031901126101ad576040517f00000000000000000000000000000000000000000000000000000000000000006001600160a01b03168152602090f35b346101ad57610bb03661299c565b90600052600c6020526040600020906000526020526060604060002060018060a01b0381541690600260018201549101549060405192835260208301526040820152f35b346101ad57610c023661299c565b906000526009602052604060002090600052602052610100604060002080549060018101549060028101546003820154600483015490600584015492600685015494600760018060a01b039101541695604051978852602088015260408701526060860152608085015260a084015260c083015260e0820152f35b346101ad576020806003193601126101ad57600435908160005260078152604060002060038101805493600583019283548611610f7f57600f5460028201546040516314d8039960e11b815260048101829052602481018990526001600160a01b03939284169291908881604481875afa9081156103f857600091610f52575b50421115610f175787906044604051809581936301acb51d60e31b835260048301528c60248301525afa9182156103f857600092610ee8575b508115610e8957601054604051630c9807d960e21b81526004810186905260248101999099526044890183905287908990606490829060009088165af19788156103f857600098610e59575b50600c019660ff19966004888a54161789558554604051926101008401948486106001600160401b03871117610a08576007956040528785528385018381526040860190428252606087019283526080870193845260a08701946000865260c08801966000885260e089019b60008d526000526009815260406000209160005252604060002096518755516001870155516002860155516003850155516004840155516005830155516006820155019151166001600160601b0360a01b82541617905554905410610e4f57005b8154166002179055005b9097508681813d8311610e82575b610e718183612ac4565b810103126101ad575196600c610d82565b503d610e67565b60405162461bcd60e51b815260048101889052603160248201527f5468657265206973206e6f207061727469636970616e74657320617661696c61604482015270626c6520666f722074686520647261772160781b6064820152608490fd5b9091508681813d8311610f10575b610f008183612ac4565b810103126101ad57519088610d36565b503d610ef6565b60405162461bcd60e51b815260048101899052601360248201527249736e2774207468652074696d65207965742160681b6044820152606490fd5b90508881813d8311610f78575b610f698183612ac4565b810103126101ad57518a610cfd565b503d610f5f565b60405162461bcd60e51b815260048101869052601e60248201527f416c6c2074686520647261777320616c7265616479206f6375727265642100006044820152606490fd5b346101ad57610fd23661299c565b908060005260206008815260406000208360005281526040600020600781018054610ffe811515613a33565b60058301546001600160a01b0393908416330361115b5760408051808701888152602081018a90529182018490526110d69387939092600b9261104e81606084015b03601f198101835282612ac4565b5190209260026040519161106183612a8e565b8b83528683018d815260408401918252866000528588526040600020935184555160018401555191015501546040519183830152604082015260016060820152606081526110ae81612aa9565b846011541685600554166000604051809681958294630a30e37760e41b845260048401613ad7565b03925af180156103f85761112a575b7f28c64511bad94645265b4ac8c503dd3b588ca95f2bfb17598135c3e6cdc4be8260808686868a875491600554169260405194855284015260408301526060820152a1005b928092919493813d8311611154575b6111438183612ac4565b810103126101ad57909192856110e5565b503d611139565b60405162461bcd60e51b815260048101869052602d60248201527f4f6e6c792074686520647261772077696e6e65722063616e206372656174652060448201526c61207065726d697373696f6e2160981b6064820152608490fd5b346101ad5760203660031901126101ad5760043560005260076020526101a0604060002080549060018101549060028101546003820154600483015460058401546006850154600786015491600887015493600988015495600a8901549760ff600c600b8c01549b0154169a6040519c8d5260208d015260408c015260608b015260808a015260a089015260c088015260e087015261010086015261012085015261014084015261016083015261126c81612a2e565b610180820152f35b346101ad57600319602036820181136101ad57600435916001600160401b03908184116101ad5760a09084360301126101ad576001600160a01b037f0000000000000000000000000000000000000000000000000000000000000000811633036116d8576040519360a0850185811084821117610a085760405280600401358552602493848201359484861686036101ad5781870195865260448301358581116101ad576113289060043691860101612b00565b966040810197885260648401358681116101ad5761134c9060043691870101612b00565b93606082019485526084810135908782116101ad5701366023820112156101ad5760048101359061137c82612b47565b9161138a6040519384612ac4565b808352848684019160061b830101913683116101ad578501905b82821061167d57505050608082015280516000558351805181019084818184019303126101ad5784810151908882116101ad57019080603f830112156101ad57848201516113f4926040016132ba565b9182519087821161166957508060019361140e8554613ec1565b601f81116115f9575b508590601f83116001146115795760009261156e575b5050600019600383901b1c191690831b1782555b611449613efb565b6060818051810103126101ad5780840151879387606061146b60408601613fb4565b940151931691600052600b865260406000209081546000526008875260406000209101546000528552604060002091806008840155600a8301826001600160601b0360a01b82541617905515159081611564575b50611550575b5051955116955181818051810103126101ad57816114e39101613fb4565b9151908151820181838203126101ad57818301519586116101ad5761153561154b93837fb1e312a29937cc11967b0e4a346fef1ae132424ebaba9dc6d90249dba053e87c9881604095019201016132f1565b91815195869516855284015260408301906129d5565b0390a3005b600c01805460ff19166003179055886114c5565b905015158a6114bf565b015190508a8061142d565b90859350601f19831691846000527fb10e2d527612073b26eecdfd717e6a320cf44b4afac2b0732d9fcbe2b7fa0cf69260005b898282106115e357505084116115ca575b505050811b018255611441565b015160001960f88460031b161c191690558a80806115bd565b83850151865589979095019493840193016115ac565b909150846000527fb10e2d527612073b26eecdfd717e6a320cf44b4afac2b0732d9fcbe2b7fa0cf6601f840160051c81019187851061165f575b84939291601f88920160051c01915b828110611650575050611417565b60008155859450879101611642565b9091508190611633565b634e487b7160e01b60009081526041600452fd5b6040823603126101ad5760405190604082018281108c8211176116c3576040528235908a821682036101ad578289926040945282850135838201528152019101906113a4565b87634e487b7160e01b60005260416004526000fd5b6040516335fdcccd60e21b8152336004820152602490fd5b346101ad5760203660031901126101ad576001600160401b03611711612a78565b166000526002602052602060ff604060002054166040519015158152f35b346101ad5760203660031901126101ad576001600160a01b036117506129fa565b166001600160601b0360a01b6005541617600555600080f35b346101ad5761177736612a10565b928015611abb5780831115611a5f578115611a07576117df9160208461179e600454612b5e565b8060045583600060018060a01b03600f54169260405198899586948593630a52975960e31b8552600485016040919493926060820195825260208201520152565b03925af19283156103f8576000936119d3575b50670de0b6b3a7640000948581029581870414901517156119bd576118178186612b80565b906118228187612b80565b6005810290808204600514901517156119bd57604051926101a08401928484106001600160401b03851117610a08577f89c4c2329efcd15ed5ec8cc7dd2e4c2103edd8b1d7e9e17e76da38d7b83ade679860809861196d9760649660405287526020870152876040870152600160608701528886015260a085015260c08401520460e0820152600061010082015260006101208201526000610140820152600061016082015260046101808201526004546000526007602052600c6101806040600020928051845560208101516001850155604081015160028501556060810151600385015586810151600485015560a0810151600585015560c0810151600685015560e0810151600785015561010081015160088501556101208101516009850155610140810151600a850155610160810151600b85015501519161196783612a2e565b01612ba0565b6004549081600052600760205261199260406000206007600682015491015490612bb8565b82600052600760205260046040600020015491604051938452602084015260408301526060820152a1005b634e487b7160e01b600052601160045260246000fd5b9092506020813d6020116119ff575b816119ef60209383612ac4565b810103126101ad575191856117f2565b3d91506119e2565b60405162461bcd60e51b815260206004820152602a60248201527f4d7573742073657420746865206e756d626572206f6620746f74616c207061726044820152697469636970616e74732160b01b6064820152608490fd5b60405162461bcd60e51b815260206004820152602e60248201527f4d7573742053656c6563742061206461746520746f2073746f7020746f20736560448201526d6c6c20746865207469746c65732160901b6064820152608490fd5b60405162461bcd60e51b815260206004820152602f60248201527f4d7573742053656c6563742061206461746520746f20737461727420746f207360448201526e656c6c20746865207469746c65732160881b6064820152608490fd5b346101ad576101c9611b293661299c565b90613b07565b346101ad57611b3d36612a4e565b908260005260209160078352604060002091600884526040600020906000528352604060002093600585019360018060a01b03928386541633148015611fc6575b15611f5b57831694611b91861515613e35565b600c87019360ff855416611ba481612a2e565b60038103611efd57600489015480611e72575b5060068901549060028a015482148015611e65575b8015611e48575b15611dda5750506024600082600f541660405192838092638c83ddd360e01b82528c60048301525afa9081156103f857611c1b91600191600091611db4575b50151514613367565b600d80546001600160a01b031916881790556040516370a0823160e01b815230600482015283816024818b5afa9081156103f857600091611d87575b50600189019788548092106101ad57835460405163a9059cbb60e01b81529084166001600160a01b03166004820152602481019290925284908290816000816044810103925af180156103f857611d19575b50927fa15c2435fada31fa58c0eb6a516d9b0df54ed70f48f3680ba2b527955c5797c192611d1597608093600a98979660078c015491541691549260405194855284015260408301526060820152a15b61010061ff001982541617905501916001835491015490612bb8565b9055005b9195949390928083813d8311611d80575b611d348183612ac4565b810103126101ad57611d1597600a977fa15c2435fada31fa58c0eb6a516d9b0df54ed70f48f3680ba2b527955c5797c195611d7060809661330e565b5093969798509350975092611ca9565b503d611d2a565b90508381813d8311611dad575b611d9e8183612ac4565b810103126101ad575189611c57565b503d611d94565b611dd191503d806000833e611dc98183612ac4565b81019061331b565b9150508b611c12565b9091611d159850600a9796955060a09350937f09878aa34b75479da70e37bce4455679dae86d7580d3cf362e48f2abb18baacd9460088b01548160098d015416918a8d0154169260405195865285015260408401526060830152611e3d81612a2e565b6080820152a1611cf9565b5082600a8b01541615158015611bd3575060088a01541515611bd3565b5060088a01541515611bcc565b60038801541115611e835789611bb7565b60405162461bcd60e51b815260048101859052604660248201527f596f752063616e277420776974686472617720617420746869732074696d652e60448201527f20596f7572206c6f636b20706572696f6420656e6473206f6e207468652036206064820152656d6f6e74682160d01b608482015260a490fd5b60405162461bcd60e51b815260048101859052603060248201527f54686973207469746c6520646f6e2774206861766520746865207065726d697360448201526f73696f6e20746f20776974686472617760801b6064820152608490fd5b60405162461bcd60e51b815260048101839052603c60248201527f4d73672e73656e646572206d7573742062652074686520636f6e74726163742060448201527f4f776e6572206f72207468652070726f746f636f6c206f776e657221000000006064820152608490fd5b5083600654163314611b7e565b346101ad5760403660031901126101ad576024356001600160a01b03818116918290036101ad5761200981600654163314613e75565b6004356000526020906007825260406000209060ff600c8301541661202d81612a2e565b60028114908115612218575b50156101ad57612079600961206561205a6008860154600b87015490612bc5565b600486015490612b6d565b930154926120738185612bc5565b93612bc5565b82116121c55761208a841515613e35565b600f541690604051638c83ddd360e01b8152846004820152600081602481865afa9081156103f8576120c9916001916000916121a75750151514613367565b600d80546001600160a01b031916851790556040516370a0823160e01b81523060048201528381602481885afa80156103f8578291600091612176575b50106101ad5760405163a9059cbb60e01b81526001600160a01b039290921660048301526024820152918190839060449082906000905af180156103f85761214a57005b81813d831161216f575b61215e8183612ac4565b810103126101ad576101c99061330e565b503d612154565b809250858092503d83116121a0575b61218f8183612ac4565b810103126101ad5781905186612106565b503d612185565b6121bc91503d806000833e611dc98183612ac4565b91505087611c12565b60405162461bcd60e51b815260048101849052602560248201527f5f616d6f756e742063616e27742065786365656420746865207469746c652076604482015264616c75652160d81b6064820152608490fd5b905061222381612a2e565b1585612039565b346101ad5760603660031901126101ad57600435600052600a602052604060002060243560005260205260406000206044356000526020526101206040600020805490600181015490600281015460018060a01b038060038401541690600484015416600584015491600685015493600860ff60078801541696015496604051988952602089015260408801526060870152608086015260a085015260c0840152151560e0830152610100820152f35b346101ad576122e83661299c565b9060005260086020526040600020906000526020526101c0604060002060ff8154916001810154906002810154600382015460048301549060018060a01b0391826005860154166006860154906007870154926008880154948660098a01541696600a8a01541697600c600b8b01549a01549a60206040519e8f908152015260408d015260608c015260808b015260a08a015260c089015260e08801526101008701526101208601526101408501526101608401528181166123a981612a2e565b61018084015260081c1615156101a0820152f35b346101ad576123cb36612a10565b9080600094939452602093600885526040600020836000528552604060002084600052600886526040600020826000528652604060002090600782019161241483541515613a33565b60058101546001600160a01b0392906124309084163314613a7f565b6005810192612443338286541614613a7f565b6001820154600b84015480821061262f576124676006850154600386015490612b6d565b918160011b91808304600214901517156119bd578214918215612624575b505015612559579782600882999897959360a09b600c7f50243003e9d7ef147493229d55468984fe3256e1b1cf63b435c46d06331682a49e999701600360ff1982541617905560028b604051926124db84612a8e565b3384528b8401978d895260408501928352600052600c8c5260406000208b6000528c526040600020935116968f6001600160601b03901b9788855416178455516001840155519101556009830130858254161790555491015530908254161790555491604051958652850152604084015260608301526080820152a1005b60405162461bcd60e51b8152600481018b9052608b60248201527f416c6c2074686520696e7374616c6c6d656e74732066726f6d2074686520636f60448201527f6c61746572616c206d7573742068617665206265656e2070616964206f72206160648201527f74206c65617374207468652076616c75652070616964206d757374206265206760848201527f726561746572207468656e2074776f2074696d65732074686520656e7375726560a48201526a15985b1d5953995959195960aa1b60c482015260e490fd5b101590508b80612485565b60405162461bcd60e51b8152600481018d9052604760248201527f54686520636f6c61746572616c20746f74616c2076616c7565206d757374206260448201527f652067726561746572207468616e2074756520656e737572616e636556616c756064820152661953995959195960ca1b608482015260a490fd5b346101ad5760203660031901126101ad576001600160a01b036126cb6129fa565b166000526003602052602060ff604060002054166040519015158152f35b346101ad5760003660031901126101ad57600054612705613efb565b9061272260405192839283526040602084015260408301906129d5565b0390f35b346101ad576127343661299c565b90806000526020600781526040600020926008825260406000208160005282526040600020600681015460018060a01b039081600f541690600288015490600181018091116119bd576044879260405194859384926301933c3960e61b8452600484015260248301525afa9081156103f8576000916128cf575b50610258806127bd8342612bc5565b1115612867575050600b600c83019660ff1997888154169055016127e18154612b5e565b9055806009830154161591821592612857575b50506127fc57005b600c9260005282825260406000209060005281526040600020600181015460005260078252604060002091600881526002604060002092015460005252600b6040600020910161284c8154612b5e565b905501908154169055005b600a0154161515905085806127f4565b935093945050935081421191826128bb575b505061288157005b600c7f5238eef763c91b9905201192c7b588678d655a1fec573e5434470d30d3f975be9201600160ff1982541617905560405160018152a1005b6128c791925042612bc5565b108380612879565b90508481813d83116128f5575b6128e68183612ac4565b810103126101ad5751876127ae565b503d6128dc565b346101ad5760203660031901126101ad57600435600052600b6020526040600020805461272260026001840154930154604051938493846040919493926060820195825260208201520152565b346101ad5760203660031901126101ad576004359063ffffffff60e01b82168092036101ad576020916385572ffb60e01b811490811561298b575b5015158152f35b6301ffc9a760e01b14905083612984565b60409060031901126101ad576004359060243590565b60005b8381106129c55750506000910152565b81810151838201526020016129b5565b906020916129ee815180928185528580860191016129b2565b601f01601f1916010190565b600435906001600160a01b03821682036101ad57565b60809060031901126101ad5760043590602435906044359060643590565b60051115612a3857565b634e487b7160e01b600052602160045260246000fd5b60609060031901126101ad5760043590602435906044356001600160a01b03811681036101ad5790565b600435906001600160401b03821682036101ad57565b606081019081106001600160401b03821117610a0857604052565b608081019081106001600160401b03821117610a0857604052565b90601f801991011681019081106001600160401b03821117610a0857604052565b6001600160401b038111610a0857601f01601f191660200190565b81601f820112156101ad57803590612b1782612ae5565b92612b256040519485612ac4565b828452602083830101116101ad57816000926020809301838601378301015290565b6001600160401b038111610a085760051b60200190565b60001981146119bd5760010190565b818102929181159184041417156119bd57565b8115612b8a570490565b634e487b7160e01b600052601260045260246000fd5b90612baa81612a2e565b60ff80198354169116179055565b919082018092116119bd57565b919082039182116119bd57565b600092818452600760205260408420600860205260408520848652602052604085209160ff600c83015416612c0681612a2e565b600181149081156132a6575b50156132615760ff600c84015416612c2981612a2e565b6002811490811561324c575b8115613238575b50156132345760068301549060058301548210156131e057869082156131d857600183018084116131c457915b60018060a01b03600f541690602060028701546044604051809581936301933c3960e61b835260048301528860248301525afa9182156131b9578a92613185575b508994824211908161317b575b50156131375750612cc89042612bc5565b9081613060575b505b60068501546003850154918282101580613054575b801561302f575b612dc9575b50505050507fd6985739ec9552d19c3572fc03d8cc0f929e20de244eaa8d01c1786d61fd177a94508160069182612d6e940154600283015414612da1575b6003838301549101541480612d87575b612d73575b612d4f8585613992565b0154604051938493846040919493926060820195825260208201520152565b0390a1565b600c8101805460ff19166002179055612d45565b50600160ff600c83015416612d9b81612a2e565b14612d40565b600c8201805460ff19166003179055600882015415612d3057612dc48686613b07565b612d30565b600587015460405195906001600160a01b03166001600160401b0361012088019081119088111761301b5761012087016040528a8752856020880152426040880152336060880152608087015260a086015260c0850152600160e085015261010084015260018060a01b03600f5416906002850154823b15613017579060448a9283604051958694859363560337d160e11b8552600485015260248401525af18015612fdd57612fe8575b50600f54600284015460038501546040516301acb51d60e31b8152600481019290925260248201529190602090839060449082906001600160a01b03165afa918215612fdd578892612fa0575b5091600861010060408a60069795612d6e99978b7fd6985739ec9552d19c3572fc03d8cc0f929e20de244eaa8d01c1786d61fd177a9e52600a60205283832090835260205282822090825260205220928051845560208101516001850155604081015160028501556003840160018060a01b03606083015116906001600160601b0360a01b9182825416179055600485019060018060a01b036080840151169082541617905560a0810151600585015560c0810151878501556007840160e0820151151560ff8019835416911617905501519101559181933880612cf2565b93915093916020843d602011612fd5575b81612fbe60209383612ac4565b810103126101ad5792519193909291906008612ec1565b3d9150612fb1565b6040513d8a823e3d90fd5b6001600160401b038198929811613003576040529538612e74565b634e487b7160e01b82526041600452602482fd5b8980fd5b634e487b7160e01b8c52604160045260248cfd5b50600183148061304c575b8015612ced5750600787015415612ced565b50811561303a565b50600787015415612ce6565b600f5460028601546003880154604051632b18775560e01b815260048101869052602481019290925260448201529450602090859060649082908d906001600160a01b03165af193841561312c5789946130f2575b506130ec90847f57d559aaa778ae17e20a31e208d5763cb05667142a48b6098af5fb106b0ce8d96020604051838152a189896133a8565b38612ccf565b9093506020813d602011613124575b8161310e60209383612ac4565b810103126131205751926130ec6130b5565b8880fd5b3d9150613101565b6040513d8b823e3d90fd5b919350506131766003860154937f57d559aaa778ae17e20a31e208d5763cb05667142a48b6098af5fb106b0ce8d96020604051878152a18489896133a8565b612cd1565b9050151538612cb7565b9091506020813d6020116131b1575b816131a160209383612ac4565b8101031261301757519038612caa565b3d9150613194565b6040513d8c823e3d90fd5b634e487b7160e01b89526011600452602489fd5b600191612c69565b60405162461bcd60e51b815260206004820152602660248201527f596f7520616c7265616479207061696420616c6c2074686520696e7374616c6c6044820152656d656e74732160d01b6064820152608490fd5b8580fd5b6003915061324581612a2e565b1438612c3c565b905061325781612a2e565b6001811490612c35565b60405162461bcd60e51b815260206004820152601760248201527f436865636b20746865207469746c6520737461747573210000000000000000006044820152606490fd5b600391506132b381612a2e565b1438612c12565b909291926132c781612ae5565b916132d56040519384612ac4565b8294828452828201116101ad5760206132ef9301906129b2565b565b9080601f830112156101ad57815161330b926020016132ba565b90565b519081151582036101ad57565b906060828203126101ad578151906001600160401b0382116101ad576133429183016132f1565b60208201519092906001600160a01b03811681036101ad57604061330b91930161330e565b1561336e57565b60405162461bcd60e51b8152602060048201526012602482015271546f6b656e206e6f7420616c6c6f7765642160701b6044820152606490fd5b909291928160005260086020526040600020906000526020526040600020906000526007602052604060002091815460088401541061393b5760ff600c830154166133f281612a2e565b801590811591613926575b50156138a6576001600160a01b0316801561386957600f54604051638c83ddd360e01b815260048101839052602492916000908290859082906001600160a01b03165afa9081156103f85761345f9160019160009161384b5750151514613367565b600d80546001600160a01b0319168217905560038301548510613817576040516370a0823160e01b81523360048201526020818481855afa80156103f85786916000916137e2575b50106137a757602060449160405192838092636eb1769f60e11b825233600483015230878301525afa80156103f8578591600091613772575b50106137115750806006600492016134f88154612b5e565b9055015461365c576000602061355f6009840180549061351d60068701548093612bb8565b9055600d546040516323b872dd60e01b81523360048201523060248201526044810192909252909384926001600160a01b039092169183919082906064820190565b03925af180156103f85761361a575b50600d54600f546006909201546135d4936020936001600160a01b0390811693169161359991612bc5565b6040516323b872dd60e01b81523360048201526001600160a01b03909316602484015260448301529092839190829060009082906064820190565b03925af180156103f8576135e55750565b6020813d602011613612575b816135fe60209383612ac4565b810103126101ad5761360f9061330e565b50565b3d91506135f1565b906020823d602011613654575b8161363460209383612ac4565b810103126101ad576135d49261364b60209361330e565b5092509061356e565b3d9150613627565b61367d6009820180549061367560068501548093612bb8565b905583612bc5565b156136c757600d5460068201546040516323b872dd60e01b815233600482015230602482015260448101919091529060209082906001600160a01b0316816000816064810161355f565b50600d546040516323b872dd60e01b81523360048201523060248201526044810192909252602090829060649082906000906001600160a01b03165af180156103f8576135e55750565b60849060346040519162461bcd60e51b8352602060048401528201527f596f75206d75737420617070726f76652074686520636f6e747261637420746f604482015273207472616e736665722074686520746f6b656e7360601b6064820152fd5b9150506020813d60201161379f575b8161378e60209383612ac4565b810103126101ad57849051386134e0565b3d9150613781565b60405162461bcd60e51b81526020600482015260148184015273496e73756666696369656e742062616c616e636560601b6044820152606490fd5b9150506020813d60201161380f575b816137fe60209383612ac4565b810103126101ad57859051386134a7565b3d91506137f1565b60405162461bcd60e51b815260206004820152600d818401526c57726f6e672076616c7565212160981b6044820152606490fd5b61386091503d806000833e611dc98183612ac4565b91505038611c12565b60405162461bcd60e51b8152602060048201526015602482015274456e746572206120746f6b656e206164647265737360581b6044820152606490fd5b60405162461bcd60e51b815260206004820152604c60248201527f796f7572207469746c6520616c72656164792068617665206265656e2066696e60448201527f616c697a6564206f722063616e63656c65642e20506c6561736520636865636b60648201526b103a34329039ba30ba3ab99760a11b608482015260a490fd5b6004915061393381612a2e565b1415386133fd565b60405162461bcd60e51b815260206004820152602960248201527f456e74657220612076616c696420636f6e747261637420496420666f722074686044820152686973205469746c652160b81b6064820152608490fd5b907f0612a8a5548125c3db9f13b41025df2c888d69f8a0351889cd94bd21a45dd34b91612d6e600b6000838152600760205260408120906008602052604081208682526020526139ef604082209260068085015491015490612b6d565b6001830154808210613a20575050828201550154604051938493846040919493926060820195825260208201520152565b613a2a9250612bc5565b82820155612d4f565b15613a3a57565b60405162461bcd60e51b815260206004820152601e60248201527f596f7520686176656e2774206265656e2073656c6563746564207965742100006044820152606490fd5b15613a8657565b60405162461bcd60e51b815260206004820152602360248201527f4f6e6c7920746865206f776e65722063616e20616464206120636f6c61746572604482015262616c2160e81b6064820152608490fd5b67ccf0a31a221f3c9b81526001600160a01b03909116602082015260606040820181905261330b929101906129d5565b91906000928084526008602081815260409586812085825282528681209160068301546002840154148015613ddf57600c840190600160ff8354881c16151503613d7d578080613d67575b15613c74575060078401548951808401888152602081018a90526040810192909252613be89284929091613b898160608401611040565b51902090600b8701548c5192848401528c83015285606083015260608252613bb082612aa9565b600460ff1982541617905560018060a01b0380601154169060055416868d51809681958294630a30e37760e41b845260048401613ad7565b03925af18015613c6a57613c3e575b5050500154935190815260208101919091526040810192909252907f4873524778d9f5abcd81f439922a095f180c3f86ec3e38127a4add8d1bae97bd908060608101612d6e565b813d8311613c63575b613c518183612ac4565b81010312613c60578080613bf7565b80fd5b503d613c47565b89513d85823e3d90fd5b809994929593989990613d5b575b613c91575b5050505050505050565b876005613d4b96887f4873524778d9f5abcd81f439922a095f180c3f86ec3e38127a4add8d1bae97bd9b52600c81528683208a845281528680842093815194613cd986612a8e565b60018060a01b0393848254168752600260018301549283838a015201549184880192835283528981528383209151835252209251169101906001600160601b0360a01b825416179055600460ff1982541617905501549051938493846040919493926060820195825260208201520152565b0390a13880808080808080613c87565b50828201541515613c82565b50600a8501546001600160a01b03161515613b52565b895162461bcd60e51b815260048101849052603560248201527f596f752063616e27742072657472696576652074686520636f6c61746572616c604482015274206265666f7265207468652077697468647261772160581b6064820152608490fd5b885162461bcd60e51b815260048101839052602960248201527f416c6c2074686520696e7374616c6c6d656e7473206d7573742068617665206260448201526865656e20706169642160b81b6064820152608490fd5b15613e3c57565b60405162461bcd60e51b8152602060048201526011602482015270151bdad95b881b9bdd08185b1b1bddd959607a1b6044820152606490fd5b15613e7c57565b60405162461bcd60e51b815260206004820152601d60248201527f5468652063616c6c6572206d75737420626520746865206f776e6572210000006044820152606490fd5b90600182811c92168015613ef1575b6020831014613edb57565b634e487b7160e01b600052602260045260246000fd5b91607f1691613ed0565b60405190600082600191825492613f1184613ec1565b80845293818116908115613f925750600114613f35575b506132ef92500383612ac4565b600081815291507fb10e2d527612073b26eecdfd717e6a320cf44b4afac2b0732d9fcbe2b7fa0cf65b848310613f7757506132ef935050810160200138613f28565b81935090816020925483858a01015201910190918592613f5e565b9050602092506132ef94915060ff191682840152151560051b82010138613f28565b51906001600160a01b03821682036101ad5756fea26469706673582212201326ead14065ea05f1892e931582a10f629e26b54cdee364df0323ddc7129e7f64736f6c63430008140033",
  "linkReferences": {},
  "deployedLinkReferences": {}
}